{
  "abi": [
    {
      "inputs": [
        {
          "internalType": "address",
          "name": "_flwToken",
          "type": "address"
        }
      ],
      "stateMutability": "nonpayable",
      "type": "constructor"
    },
    {
      "anonymous": false,
      "inputs": [
        {
          "indexed": true,
          "internalType": "address",
          "name": "validator",
          "type": "address"
        },
        {
          "indexed": false,
          "internalType": "uint256",
          "name": "amount",
          "type": "uint256"
        },
        {
          "indexed": false,
          "internalType": "bytes32",
          "name": "campaignId",
          "type": "bytes32"
        }
      ],
      "name": "Slashed",
      "type": "event"
    },
    {
      "anonymous": false,
      "inputs": [
        {
          "indexed": true,
          "internalType": "address",
          "name": "validator",
          "type": "address"
        },
        {
          "indexed": false,
          "internalType": "uint256",
          "name": "amount",
          "type": "uint256"
        }
      ],
      "name": "Staked",
      "type": "event"
    },
    {
      "anonymous": false,
      "inputs": [
        {
          "indexed": true,
          "internalType": "address",
          "name": "validator",
          "type": "address"
        },
        {
          "indexed": false,
          "internalType": "uint256",
          "name": "amount",
          "type": "uint256"
        }
      ],
      "name": "Unstaked",
      "type": "event"
    },
    {
      "anonymous": false,
      "inputs": [
        {
          "indexed": true,
          "internalType": "address",
          "name": "validator",
          "type": "address"
        },
        {
          "indexed": true,
          "internalType": "bytes32",
          "name": "campaignId",
          "type": "bytes32"
        }
      ],
      "name": "Vouched",
      "type": "event"
    },
    {
      "inputs": [],
      "name": "MIN_STAKE",
      "outputs": [
        {
          "internalType": "uint256",
          "name": "",
          "type": "uint256"
        }
      ],
      "stateMutability": "view",
      "type": "function"
    },
    {
      "inputs": [
        {
          "internalType": "bytes32",
          "name": "",
          "type": "bytes32"
        },
        {
          "internalType": "uint256",
          "name": "",
          "type": "uint256"
        }
      ],
      "name": "campaignVouches",
      "outputs": [
        {
          "internalType": "address",
          "name": "",
          "type": "address"
        }
      ],
      "stateMutability": "view",
      "type": "function"
    },
    {
      "inputs": [],
      "name": "flwToken",
      "outputs": [
        {
          "internalType": "contract IERC20",
          "name": "",
          "type": "address"
        }
      ],
      "stateMutability": "view",
      "type": "function"
    },
    {
      "inputs": [],
      "name": "owner",
      "outputs": [
        {
          "internalType": "address",
          "name": "",
          "type": "address"
        }
      ],
      "stateMutability": "view",
      "type": "function"
    },
    {
      "inputs": [
        {
          "internalType": "address",
          "name": "validator",
          "type": "address"
        },
        {
          "internalType": "bytes32",
          "name": "campaignId",
          "type": "bytes32"
        },
        {
          "internalType": "uint256",
          "name": "amount",
          "type": "uint256"
        }
      ],
      "name": "slashValidator",
      "outputs": [],
      "stateMutability": "nonpayable",
      "type": "function"
    },
    {
      "inputs": [
        {
          "internalType": "uint256",
          "name": "amount",
          "type": "uint256"
        }
      ],
      "name": "stake",
      "outputs": [],
      "stateMutability": "nonpayable",
      "type": "function"
    },
    {
      "inputs": [
        {
          "internalType": "uint256",
          "name": "amount",
          "type": "uint256"
        }
      ],
      "name": "unstake",
      "outputs": [],
      "stateMutability": "nonpayable",
      "type": "function"
    },
    {
      "inputs": [
        {
          "internalType": "address",
          "name": "",
          "type": "address"
        }
      ],
      "name": "validators",
      "outputs": [
        {
          "internalType": "uint256",
          "name": "staked",
          "type": "uint256"
        },
        {
          "internalType": "bool",
          "name": "active",
          "type": "bool"
        }
      ],
      "stateMutability": "view",
      "type": "function"
    },
    {
      "inputs": [
        {
          "internalType": "bytes32",
          "name": "campaignId",
          "type": "bytes32"
        }
      ],
      "name": "vouchForCampaign",
      "outputs": [],
      "stateMutability": "nonpayable",
      "type": "function"
    }
  ],
  "devdoc": {
    "kind": "dev",
    "methods": {},
    "version": 1
  },
  "evm": {
    "assembly": "    /* \"ValidatorStaking_1751751092127.sol\":254:2498  contract ValidatorStaking {... */\n  mstore(0x40, 0xa0)\n    /* \"ValidatorStaking_1751751092127.sol\":996:1103  constructor(address _flwToken) {... */\n  callvalue\n  dup1\n  iszero\n  tag_1\n  jumpi\n  0x00\n  dup1\n  revert\ntag_1:\n  pop\n  mload(0x40)\n  sub(codesize, bytecodeSize)\n  dup1\n  bytecodeSize\n  dup4\n  codecopy\n  dup2\n  add\n  0x40\n  dup2\n  swap1\n  mstore\n  tag_2\n  swap2\n  tag_3\n  jump\t// in\ntag_2:\n  sub(shl(0xa0, 0x01), 0x01)\n    /* \"ValidatorStaking_1751751092127.sol\":1038:1066  flwToken = IERC20(_flwToken) */\n  and\n  0x80\n  mstore\n    /* \"ValidatorStaking_1751751092127.sol\":1077:1082  owner */\n  0x00\n    /* \"ValidatorStaking_1751751092127.sol\":1077:1095  owner = msg.sender */\n  dup1\n  sload\n  not(sub(shl(0xa0, 0x01), 0x01))\n  and\n    /* \"ValidatorStaking_1751751092127.sol\":1085:1095  msg.sender */\n  caller\n    /* \"ValidatorStaking_1751751092127.sol\":1077:1095  owner = msg.sender */\n  or\n  swap1\n  sstore\n    /* \"ValidatorStaking_1751751092127.sol\":254:2498  contract ValidatorStaking {... */\n  jump(tag_7)\n    /* \"#utility.yul\":14:304   */\ntag_3:\n    /* \"#utility.yul\":84:90   */\n  0x00\n    /* \"#utility.yul\":137:139   */\n  0x20\n    /* \"#utility.yul\":125:134   */\n  dup3\n    /* \"#utility.yul\":116:123   */\n  dup5\n    /* \"#utility.yul\":112:135   */\n  sub\n    /* \"#utility.yul\":108:140   */\n  slt\n    /* \"#utility.yul\":105:157   */\n  iszero\n  tag_9\n  jumpi\n    /* \"#utility.yul\":153:154   */\n  0x00\n    /* \"#utility.yul\":150:151   */\n  dup1\n    /* \"#utility.yul\":143:155   */\n  revert\n    /* \"#utility.yul\":105:157   */\ntag_9:\n    /* \"#utility.yul\":179:195   */\n  dup2\n  mload\n  sub(shl(0xa0, 0x01), 0x01)\n    /* \"#utility.yul\":224:255   */\n  dup2\n  and\n    /* \"#utility.yul\":214:256   */\n  dup2\n  eq\n    /* \"#utility.yul\":204:274   */\n  tag_10\n  jumpi\n    /* \"#utility.yul\":270:271   */\n  0x00\n    /* \"#utility.yul\":267:268   */\n  dup1\n    /* \"#utility.yul\":260:272   */\n  revert\n    /* \"#utility.yul\":204:274   */\ntag_10:\n    /* \"#utility.yul\":293:298   */\n  swap4\n    /* \"#utility.yul\":14:304   */\n  swap3\n  pop\n  pop\n  pop\n  jump\t// out\ntag_7:\n    /* \"ValidatorStaking_1751751092127.sol\":254:2498  contract ValidatorStaking {... */\n  mload(0x80)\n  codecopy(0x00, dataOffset(sub_0), dataSize(sub_0))\n  0x00\n  assignImmutable(\"0xce2221d246d230d5d7cd0a600b5e85fc0a5db88458ba0f5608fd20f3578cc6d7\")\n  return(0x00, dataSize(sub_0))\nstop\n\nsub_0: assembly {\n        /* \"ValidatorStaking_1751751092127.sol\":254:2498  contract ValidatorStaking {... */\n      mstore(0x40, 0x80)\n      callvalue\n      dup1\n      iszero\n      tag_1\n      jumpi\n      0x00\n      dup1\n      revert\n    tag_1:\n      pop\n      jumpi(tag_2, lt(calldatasize, 0x04))\n      shr(0xe0, calldataload(0x00))\n      dup1\n      0xb7ad3574\n      gt\n      tag_12\n      jumpi\n      dup1\n      0xf2e76d7b\n      gt\n      tag_13\n      jumpi\n      dup1\n      0xf2e76d7b\n      eq\n      tag_9\n      jumpi\n      dup1\n      0xf885a81a\n      eq\n      tag_10\n      jumpi\n      dup1\n      0xfa52c7d8\n      eq\n      tag_11\n      jumpi\n      0x00\n      dup1\n      revert\n    tag_13:\n      dup1\n      0xb7ad3574\n      eq\n      tag_7\n      jumpi\n      dup1\n      0xcb1c2b5c\n      eq\n      tag_8\n      jumpi\n      0x00\n      dup1\n      revert\n    tag_12:\n      dup1\n      0x2e17de78\n      eq\n      tag_3\n      jumpi\n      dup1\n      0x6b944b0e\n      eq\n      tag_4\n      jumpi\n      dup1\n      0x8da5cb5b\n      eq\n      tag_5\n      jumpi\n      dup1\n      0xa694fc3a\n      eq\n      tag_6\n      jumpi\n    tag_2:\n      0x00\n      dup1\n      revert\n        /* \"ValidatorStaking_1751751092127.sol\":1438:1828  function unstake(uint256 amount) external {... */\n    tag_3:\n      tag_14\n      tag_15\n      calldatasize\n      0x04\n      tag_16\n      jump\t// in\n    tag_15:\n      tag_17\n      jump\t// in\n    tag_14:\n      stop\n        /* \"ValidatorStaking_1751751092127.sol\":543:595  mapping(bytes32 => address[]) public campaignVouches */\n    tag_4:\n      tag_18\n      tag_19\n      calldatasize\n      0x04\n      tag_20\n      jump\t// in\n    tag_19:\n      tag_21\n      jump\t// in\n    tag_18:\n      mload(0x40)\n      sub(shl(0xa0, 0x01), 0x01)\n        /* \"#utility.yul\":616:671   */\n      swap1\n      swap2\n      and\n        /* \"#utility.yul\":598:672   */\n      dup2\n      mstore\n        /* \"#utility.yul\":586:588   */\n      0x20\n        /* \"#utility.yul\":571:589   */\n      add\n        /* \"ValidatorStaking_1751751092127.sol\":543:595  mapping(bytes32 => address[]) public campaignVouches */\n    tag_22:\n      mload(0x40)\n      dup1\n      swap2\n      sub\n      swap1\n      return\n        /* \"ValidatorStaking_1751751092127.sol\":326:346  address public owner */\n    tag_5:\n      sload(0x00)\n      tag_18\n      swap1\n      sub(shl(0xa0, 0x01), 0x01)\n      and\n      dup2\n      jump\n        /* \"ValidatorStaking_1751751092127.sol\":1111:1430  function stake(uint256 amount) external {... */\n    tag_6:\n      tag_14\n      tag_28\n      calldatasize\n      0x04\n      tag_16\n      jump\t// in\n    tag_28:\n      tag_29\n      jump\t// in\n        /* \"ValidatorStaking_1751751092127.sol\":2079:2495  function slashValidator(address validator, bytes32 campaignId, uint256 amount) external onlyOwner {... */\n    tag_7:\n      tag_14\n      tag_31\n      calldatasize\n      0x04\n      tag_32\n      jump\t// in\n    tag_31:\n      tag_33\n      jump\t// in\n        /* \"ValidatorStaking_1751751092127.sol\":353:400  uint256 public constant MIN_STAKE = 1000 * 1e18 */\n    tag_8:\n      tag_34\n        /* \"ValidatorStaking_1751751092127.sol\":389:400  1000 * 1e18 */\n      0x3635c9adc5dea00000\n        /* \"ValidatorStaking_1751751092127.sol\":353:400  uint256 public constant MIN_STAKE = 1000 * 1e18 */\n      dup2\n      jump\n    tag_34:\n      mload(0x40)\n        /* \"#utility.yul\":1357:1382   */\n      swap1\n      dup2\n      mstore\n        /* \"#utility.yul\":1345:1347   */\n      0x20\n        /* \"#utility.yul\":1330:1348   */\n      add\n        /* \"ValidatorStaking_1751751092127.sol\":353:400  uint256 public constant MIN_STAKE = 1000 * 1e18 */\n      tag_22\n        /* \"#utility.yul\":1211:1388   */\n      jump\n        /* \"ValidatorStaking_1751751092127.sol\":287:319  IERC20 public immutable flwToken */\n    tag_9:\n      tag_18\n      immutable(\"0xce2221d246d230d5d7cd0a600b5e85fc0a5db88458ba0f5608fd20f3578cc6d7\")\n      dup2\n      jump\n        /* \"ValidatorStaking_1751751092127.sol\":1836:2071  function vouchForCampaign(bytes32 campaignId) external {... */\n    tag_10:\n      tag_14\n      tag_43\n      calldatasize\n      0x04\n      tag_16\n      jump\t// in\n    tag_43:\n      tag_45\n      jump\t// in\n        /* \"ValidatorStaking_1751751092127.sol\":489:536  mapping(address => Validator) public validators */\n    tag_11:\n      tag_46\n      tag_47\n      calldatasize\n      0x04\n      tag_48\n      jump\t// in\n    tag_47:\n      0x01\n      0x20\n      dup2\n      swap1\n      mstore\n      0x00\n      swap2\n      dup3\n      mstore\n      0x40\n      swap1\n      swap2\n      keccak256\n      dup1\n      sload\n      swap2\n      add\n      sload\n      0xff\n      and\n      dup3\n      jump\n    tag_46:\n      0x40\n      dup1\n      mload\n        /* \"#utility.yul\":2183:2208   */\n      swap3\n      dup4\n      mstore\n        /* \"#utility.yul\":2251:2265   */\n      swap1\n      iszero\n        /* \"#utility.yul\":2244:2266   */\n      iszero\n        /* \"#utility.yul\":2239:2241   */\n      0x20\n        /* \"#utility.yul\":2224:2242   */\n      dup4\n      add\n        /* \"#utility.yul\":2217:2267   */\n      mstore\n        /* \"#utility.yul\":2156:2174   */\n      add\n        /* \"ValidatorStaking_1751751092127.sol\":489:536  mapping(address => Validator) public validators */\n      tag_22\n        /* \"#utility.yul\":2015:2273   */\n      jump\n        /* \"ValidatorStaking_1751751092127.sol\":1438:1828  function unstake(uint256 amount) external {... */\n    tag_17:\n        /* \"ValidatorStaking_1751751092127.sol\":1510:1520  msg.sender */\n      caller\n        /* \"ValidatorStaking_1751751092127.sol\":1499:1521  validators[msg.sender] */\n      0x00\n      swap1\n      dup2\n      mstore\n        /* \"ValidatorStaking_1751751092127.sol\":1499:1509  validators */\n      0x01\n        /* \"ValidatorStaking_1751751092127.sol\":1499:1521  validators[msg.sender] */\n      0x20\n      mstore\n      0x40\n      swap1\n      keccak256\n        /* \"ValidatorStaking_1751751092127.sol\":1499:1528  validators[msg.sender].staked */\n      sload\n        /* \"ValidatorStaking_1751751092127.sol\":1499:1538  validators[msg.sender].staked >= amount */\n      dup2\n      gt\n      iszero\n        /* \"ValidatorStaking_1751751092127.sol\":1491:1560  require(validators[msg.sender].staked >= amount, \"Not enough staked\") */\n      tag_53\n      jumpi\n      mload(0x40)\n      shl(0xe5, 0x461bcd)\n      dup2\n      mstore\n        /* \"#utility.yul\":2480:2482   */\n      0x20\n        /* \"ValidatorStaking_1751751092127.sol\":1491:1560  require(validators[msg.sender].staked >= amount, \"Not enough staked\") */\n      0x04\n      dup3\n      add\n        /* \"#utility.yul\":2462:2483   */\n      mstore\n        /* \"#utility.yul\":2519:2521   */\n      0x11\n        /* \"#utility.yul\":2499:2517   */\n      0x24\n      dup3\n      add\n        /* \"#utility.yul\":2492:2522   */\n      mstore\n        /* \"#utility.yul\":2558:2577   */\n      0x4e6f7420656e6f756768207374616b6564000000000000000000000000000000\n        /* \"#utility.yul\":2538:2556   */\n      0x44\n      dup3\n      add\n        /* \"#utility.yul\":2531:2578   */\n      mstore\n        /* \"#utility.yul\":2595:2613   */\n      0x64\n      add\n        /* \"ValidatorStaking_1751751092127.sol\":1491:1560  require(validators[msg.sender].staked >= amount, \"Not enough staked\") */\n    tag_54:\n      mload(0x40)\n      dup1\n      swap2\n      sub\n      swap1\n      revert\n    tag_53:\n        /* \"ValidatorStaking_1751751092127.sol\":1582:1592  msg.sender */\n      caller\n        /* \"ValidatorStaking_1751751092127.sol\":1571:1593  validators[msg.sender] */\n      0x00\n      swap1\n      dup2\n      mstore\n        /* \"ValidatorStaking_1751751092127.sol\":1571:1581  validators */\n      0x01\n        /* \"ValidatorStaking_1751751092127.sol\":1571:1593  validators[msg.sender] */\n      0x20\n      mstore\n      0x40\n      dup2\n      keccak256\n        /* \"ValidatorStaking_1751751092127.sol\":1571:1610  validators[msg.sender].staked -= amount */\n      dup1\n      sload\n        /* \"ValidatorStaking_1751751092127.sol\":1604:1610  amount */\n      dup4\n      swap3\n        /* \"ValidatorStaking_1751751092127.sol\":1571:1593  validators[msg.sender] */\n      swap1\n        /* \"ValidatorStaking_1751751092127.sol\":1571:1610  validators[msg.sender].staked -= amount */\n      tag_56\n      swap1\n        /* \"ValidatorStaking_1751751092127.sol\":1604:1610  amount */\n      dup5\n      swap1\n        /* \"ValidatorStaking_1751751092127.sol\":1571:1610  validators[msg.sender].staked -= amount */\n      tag_57\n      jump\t// in\n    tag_56:\n      swap1\n      swap2\n      sstore\n      pop\n      pop\n        /* \"ValidatorStaking_1751751092127.sol\":1638:1648  msg.sender */\n      caller\n        /* \"ValidatorStaking_1751751092127.sol\":1627:1649  validators[msg.sender] */\n      0x00\n      swap1\n      dup2\n      mstore\n        /* \"ValidatorStaking_1751751092127.sol\":1627:1637  validators */\n      0x01\n        /* \"ValidatorStaking_1751751092127.sol\":1627:1649  validators[msg.sender] */\n      0x20\n      mstore\n      0x40\n      dup2\n      keccak256\n        /* \"ValidatorStaking_1751751092127.sol\":1627:1656  validators[msg.sender].staked */\n      sload\n        /* \"ValidatorStaking_1751751092127.sol\":1627:1661  validators[msg.sender].staked == 0 */\n      swap1\n      sub\n        /* \"ValidatorStaking_1751751092127.sol\":1623:1727  if (validators[msg.sender].staked == 0) {... */\n      tag_58\n      jumpi\n        /* \"ValidatorStaking_1751751092127.sol\":1689:1699  msg.sender */\n      caller\n        /* \"ValidatorStaking_1751751092127.sol\":1710:1715  false */\n      0x00\n        /* \"ValidatorStaking_1751751092127.sol\":1678:1700  validators[msg.sender] */\n      swap1\n      dup2\n      mstore\n        /* \"ValidatorStaking_1751751092127.sol\":1678:1688  validators */\n      0x01\n        /* \"ValidatorStaking_1751751092127.sol\":1678:1700  validators[msg.sender] */\n      0x20\n      dup2\n      swap1\n      mstore\n      0x40\n      swap1\n      swap2\n      keccak256\n        /* \"ValidatorStaking_1751751092127.sol\":1678:1707  validators[msg.sender].active */\n      add\n        /* \"ValidatorStaking_1751751092127.sol\":1678:1715  validators[msg.sender].active = false */\n      dup1\n      sload\n      not(0xff)\n      and\n      swap1\n      sstore\n        /* \"ValidatorStaking_1751751092127.sol\":1623:1727  if (validators[msg.sender].staked == 0) {... */\n    tag_58:\n        /* \"ValidatorStaking_1751751092127.sol\":1739:1776  flwToken.transfer(msg.sender, amount) */\n      mload(0x40)\n      shl(0xe0, 0xa9059cbb)\n      dup2\n      mstore\n        /* \"ValidatorStaking_1751751092127.sol\":1757:1767  msg.sender */\n      caller\n        /* \"ValidatorStaking_1751751092127.sol\":1739:1776  flwToken.transfer(msg.sender, amount) */\n      0x04\n      dup3\n      add\n        /* \"#utility.yul\":3063:3137   */\n      mstore\n        /* \"#utility.yul\":3153:3171   */\n      0x24\n      dup2\n      add\n        /* \"#utility.yul\":3146:3180   */\n      dup3\n      swap1\n      mstore\n        /* \"ValidatorStaking_1751751092127.sol\":1739:1747  flwToken */\n      immutable(\"0xce2221d246d230d5d7cd0a600b5e85fc0a5db88458ba0f5608fd20f3578cc6d7\")\n      sub(shl(0xa0, 0x01), 0x01)\n        /* \"ValidatorStaking_1751751092127.sol\":1739:1756  flwToken.transfer */\n      and\n      swap1\n      0xa9059cbb\n      swap1\n        /* \"#utility.yul\":3036:3054   */\n      0x44\n      add\n        /* \"ValidatorStaking_1751751092127.sol\":1739:1776  flwToken.transfer(msg.sender, amount) */\n      0x20\n      mload(0x40)\n      dup1\n      dup4\n      sub\n      dup2\n      0x00\n      dup8\n      gas\n      call\n      iszero\n      dup1\n      iszero\n      tag_62\n      jumpi\n      returndatasize\n      0x00\n      dup1\n      returndatacopy\n      revert(0x00, returndatasize)\n    tag_62:\n      pop\n      pop\n      pop\n      pop\n      mload(0x40)\n      returndatasize\n      not(0x1f)\n      0x1f\n      dup3\n      add\n      and\n      dup3\n      add\n      dup1\n      0x40\n      mstore\n      pop\n      dup2\n      add\n      swap1\n      tag_63\n      swap2\n      swap1\n      tag_64\n      jump\t// in\n    tag_63:\n      pop\n        /* \"ValidatorStaking_1751751092127.sol\":1792:1820  Unstaked(msg.sender, amount) */\n      mload(0x40)\n        /* \"#utility.yul\":1357:1382   */\n      dup2\n      dup2\n      mstore\n        /* \"ValidatorStaking_1751751092127.sol\":1801:1811  msg.sender */\n      caller\n      swap1\n        /* \"ValidatorStaking_1751751092127.sol\":1792:1820  Unstaked(msg.sender, amount) */\n      0x0f5bb82176feb1b5e747e28471aa92156a04d9f3ab9f45f28e2d704232b93f75\n      swap1\n        /* \"#utility.yul\":1345:1347   */\n      0x20\n        /* \"#utility.yul\":1330:1348   */\n      add\n        /* \"ValidatorStaking_1751751092127.sol\":1792:1820  Unstaked(msg.sender, amount) */\n    tag_65:\n      mload(0x40)\n      dup1\n      swap2\n      sub\n      swap1\n      log2\n        /* \"ValidatorStaking_1751751092127.sol\":1438:1828  function unstake(uint256 amount) external {... */\n      pop\n      jump\t// out\n        /* \"ValidatorStaking_1751751092127.sol\":543:595  mapping(bytes32 => address[]) public campaignVouches */\n    tag_21:\n      mstore(0x20, 0x02)\n      dup2\n      0x00\n      mstore\n      keccak256(0x00, 0x40)\n      dup2\n      dup2\n      sload\n      dup2\n      lt\n      tag_66\n      jumpi\n      0x00\n      dup1\n      revert\n    tag_66:\n      0x00\n      swap2\n      dup3\n      mstore\n      0x20\n      swap1\n      swap2\n      keccak256\n      add\n      sload\n      sub(shl(0xa0, 0x01), 0x01)\n      and\n      swap2\n      pop\n      dup3\n      swap1\n      pop\n      jump\t// out\n        /* \"ValidatorStaking_1751751092127.sol\":1111:1430  function stake(uint256 amount) external {... */\n    tag_29:\n        /* \"ValidatorStaking_1751751092127.sol\":389:400  1000 * 1e18 */\n      0x3635c9adc5dea00000\n        /* \"ValidatorStaking_1751751092127.sol\":1170:1176  amount */\n      dup2\n        /* \"ValidatorStaking_1751751092127.sol\":1170:1189  amount >= MIN_STAKE */\n      lt\n      iszero\n        /* \"ValidatorStaking_1751751092127.sol\":1162:1212  require(amount >= MIN_STAKE, \"Insufficient stake\") */\n      tag_69\n      jumpi\n      mload(0x40)\n      shl(0xe5, 0x461bcd)\n      dup2\n      mstore\n        /* \"#utility.yul\":3675:3677   */\n      0x20\n        /* \"ValidatorStaking_1751751092127.sol\":1162:1212  require(amount >= MIN_STAKE, \"Insufficient stake\") */\n      0x04\n      dup3\n      add\n        /* \"#utility.yul\":3657:3678   */\n      mstore\n        /* \"#utility.yul\":3714:3716   */\n      0x12\n        /* \"#utility.yul\":3694:3712   */\n      0x24\n      dup3\n      add\n        /* \"#utility.yul\":3687:3717   */\n      mstore\n        /* \"#utility.yul\":3753:3773   */\n      0x496e73756666696369656e74207374616b650000000000000000000000000000\n        /* \"#utility.yul\":3733:3751   */\n      0x44\n      dup3\n      add\n        /* \"#utility.yul\":3726:3774   */\n      mstore\n        /* \"#utility.yul\":3791:3809   */\n      0x64\n      add\n        /* \"ValidatorStaking_1751751092127.sol\":1162:1212  require(amount >= MIN_STAKE, \"Insufficient stake\") */\n      tag_54\n        /* \"#utility.yul\":3473:3815   */\n      jump\n        /* \"ValidatorStaking_1751751092127.sol\":1162:1212  require(amount >= MIN_STAKE, \"Insufficient stake\") */\n    tag_69:\n        /* \"ValidatorStaking_1751751092127.sol\":1223:1279  flwToken.transferFrom(msg.sender, address(this), amount) */\n      mload(0x40)\n      shl(0xe0, 0x23b872dd)\n      dup2\n      mstore\n        /* \"ValidatorStaking_1751751092127.sol\":1245:1255  msg.sender */\n      caller\n        /* \"ValidatorStaking_1751751092127.sol\":1223:1279  flwToken.transferFrom(msg.sender, address(this), amount) */\n      0x04\n      dup3\n      add\n        /* \"#utility.yul\":4083:4117   */\n      mstore\n        /* \"ValidatorStaking_1751751092127.sol\":1265:1269  this */\n      address\n        /* \"#utility.yul\":4133:4151   */\n      0x24\n      dup3\n      add\n        /* \"#utility.yul\":4126:4169   */\n      mstore\n        /* \"#utility.yul\":4185:4203   */\n      0x44\n      dup2\n      add\n        /* \"#utility.yul\":4178:4212   */\n      dup3\n      swap1\n      mstore\n        /* \"ValidatorStaking_1751751092127.sol\":1223:1231  flwToken */\n      immutable(\"0xce2221d246d230d5d7cd0a600b5e85fc0a5db88458ba0f5608fd20f3578cc6d7\")\n      sub(shl(0xa0, 0x01), 0x01)\n        /* \"ValidatorStaking_1751751092127.sol\":1223:1244  flwToken.transferFrom */\n      and\n      swap1\n      0x23b872dd\n      swap1\n        /* \"#utility.yul\":3995:4013   */\n      0x64\n      add\n        /* \"ValidatorStaking_1751751092127.sol\":1223:1279  flwToken.transferFrom(msg.sender, address(this), amount) */\n      0x20\n      mload(0x40)\n      dup1\n      dup4\n      sub\n      dup2\n      0x00\n      dup8\n      gas\n      call\n      iszero\n      dup1\n      iszero\n      tag_75\n      jumpi\n      returndatasize\n      0x00\n      dup1\n      returndatacopy\n      revert(0x00, returndatasize)\n    tag_75:\n      pop\n      pop\n      pop\n      pop\n      mload(0x40)\n      returndatasize\n      not(0x1f)\n      0x1f\n      dup3\n      add\n      and\n      dup3\n      add\n      dup1\n      0x40\n      mstore\n      pop\n      dup2\n      add\n      swap1\n      tag_76\n      swap2\n      swap1\n      tag_64\n      jump\t// in\n    tag_76:\n      pop\n        /* \"ValidatorStaking_1751751092127.sol\":1303:1313  msg.sender */\n      caller\n        /* \"ValidatorStaking_1751751092127.sol\":1292:1314  validators[msg.sender] */\n      0x00\n      swap1\n      dup2\n      mstore\n        /* \"ValidatorStaking_1751751092127.sol\":1292:1302  validators */\n      0x01\n        /* \"ValidatorStaking_1751751092127.sol\":1292:1314  validators[msg.sender] */\n      0x20\n      mstore\n      0x40\n      dup2\n      keccak256\n        /* \"ValidatorStaking_1751751092127.sol\":1292:1331  validators[msg.sender].staked += amount */\n      dup1\n      sload\n        /* \"ValidatorStaking_1751751092127.sol\":1325:1331  amount */\n      dup4\n      swap3\n        /* \"ValidatorStaking_1751751092127.sol\":1292:1314  validators[msg.sender] */\n      swap1\n        /* \"ValidatorStaking_1751751092127.sol\":1292:1331  validators[msg.sender].staked += amount */\n      tag_77\n      swap1\n        /* \"ValidatorStaking_1751751092127.sol\":1325:1331  amount */\n      dup5\n      swap1\n        /* \"ValidatorStaking_1751751092127.sol\":1292:1331  validators[msg.sender].staked += amount */\n      tag_78\n      jump\t// in\n    tag_77:\n      swap1\n      swap2\n      sstore\n      pop\n      pop\n        /* \"ValidatorStaking_1751751092127.sol\":1353:1363  msg.sender */\n      caller\n        /* \"ValidatorStaking_1751751092127.sol\":1342:1364  validators[msg.sender] */\n      0x00\n      dup2\n      dup2\n      mstore\n        /* \"ValidatorStaking_1751751092127.sol\":1374:1378  true */\n      0x01\n        /* \"ValidatorStaking_1751751092127.sol\":1342:1364  validators[msg.sender] */\n      0x20\n      dup2\n      dup2\n      mstore\n      0x40\n      swap3\n      dup4\n      swap1\n      keccak256\n        /* \"ValidatorStaking_1751751092127.sol\":1342:1371  validators[msg.sender].active */\n      dup3\n      add\n        /* \"ValidatorStaking_1751751092127.sol\":1342:1378  validators[msg.sender].active = true */\n      dup1\n      sload\n      not(0xff)\n      and\n      swap1\n      swap3\n      or\n      swap1\n      swap2\n      sstore\n        /* \"ValidatorStaking_1751751092127.sol\":1396:1422  Staked(msg.sender, amount) */\n      swap1\n      mload\n        /* \"#utility.yul\":1357:1382   */\n      dup4\n      dup2\n      mstore\n        /* \"ValidatorStaking_1751751092127.sol\":1396:1422  Staked(msg.sender, amount) */\n      0x9e71bc8eea02a63969f509818f2dafb9254532904319f9dbda79b67bd34a5f3d\n      swap2\n        /* \"#utility.yul\":1330:1348   */\n      add\n        /* \"ValidatorStaking_1751751092127.sol\":1396:1422  Staked(msg.sender, amount) */\n      tag_65\n        /* \"#utility.yul\":1211:1388   */\n      jump\n        /* \"ValidatorStaking_1751751092127.sol\":2079:2495  function slashValidator(address validator, bytes32 campaignId, uint256 amount) external onlyOwner {... */\n    tag_33:\n        /* \"ValidatorStaking_1751751092127.sol\":944:949  owner */\n      and(sub(shl(0xa0, 0x01), 0x01), sload(0x00))\n        /* \"ValidatorStaking_1751751092127.sol\":930:940  msg.sender */\n      caller\n        /* \"ValidatorStaking_1751751092127.sol\":930:949  msg.sender == owner */\n      eq\n        /* \"ValidatorStaking_1751751092127.sol\":922:968  require(msg.sender == owner, \"Not authorized\") */\n      tag_81\n      jumpi\n      mload(0x40)\n      shl(0xe5, 0x461bcd)\n      dup2\n      mstore\n        /* \"#utility.yul\":4555:4557   */\n      0x20\n        /* \"ValidatorStaking_1751751092127.sol\":922:968  require(msg.sender == owner, \"Not authorized\") */\n      0x04\n      dup3\n      add\n        /* \"#utility.yul\":4537:4558   */\n      mstore\n        /* \"#utility.yul\":4594:4596   */\n      0x0e\n        /* \"#utility.yul\":4574:4592   */\n      0x24\n      dup3\n      add\n        /* \"#utility.yul\":4567:4597   */\n      mstore\n        /* \"#utility.yul\":4633:4649   */\n      0x4e6f7420617574686f72697a6564000000000000000000000000000000000000\n        /* \"#utility.yul\":4613:4631   */\n      0x44\n      dup3\n      add\n        /* \"#utility.yul\":4606:4650   */\n      mstore\n        /* \"#utility.yul\":4667:4685   */\n      0x64\n      add\n        /* \"ValidatorStaking_1751751092127.sol\":922:968  require(msg.sender == owner, \"Not authorized\") */\n      tag_54\n        /* \"#utility.yul\":4353:4691   */\n      jump\n        /* \"ValidatorStaking_1751751092127.sol\":922:968  require(msg.sender == owner, \"Not authorized\") */\n    tag_81:\n      sub(shl(0xa0, 0x01), 0x01)\n        /* \"ValidatorStaking_1751751092127.sol\":2196:2217  validators[validator] */\n      dup4\n      and\n      0x00\n      swap1\n      dup2\n      mstore\n        /* \"ValidatorStaking_1751751092127.sol\":2196:2206  validators */\n      0x01\n        /* \"ValidatorStaking_1751751092127.sol\":2196:2217  validators[validator] */\n      0x20\n      mstore\n      0x40\n      swap1\n      keccak256\n        /* \"ValidatorStaking_1751751092127.sol\":2196:2224  validators[validator].staked */\n      sload\n        /* \"ValidatorStaking_1751751092127.sol\":2196:2234  validators[validator].staked >= amount */\n      dup2\n      gt\n      iszero\n        /* \"ValidatorStaking_1751751092127.sol\":2188:2268  require(validators[validator].staked >= amount, \"Cannot slash more than staked\") */\n      tag_85\n      jumpi\n      mload(0x40)\n      shl(0xe5, 0x461bcd)\n      dup2\n      mstore\n        /* \"#utility.yul\":4898:4900   */\n      0x20\n        /* \"ValidatorStaking_1751751092127.sol\":2188:2268  require(validators[validator].staked >= amount, \"Cannot slash more than staked\") */\n      0x04\n      dup3\n      add\n        /* \"#utility.yul\":4880:4901   */\n      mstore\n        /* \"#utility.yul\":4937:4939   */\n      0x1d\n        /* \"#utility.yul\":4917:4935   */\n      0x24\n      dup3\n      add\n        /* \"#utility.yul\":4910:4940   */\n      mstore\n        /* \"#utility.yul\":4976:5007   */\n      0x43616e6e6f7420736c617368206d6f7265207468616e207374616b6564000000\n        /* \"#utility.yul\":4956:4974   */\n      0x44\n      dup3\n      add\n        /* \"#utility.yul\":4949:5008   */\n      mstore\n        /* \"#utility.yul\":5025:5043   */\n      0x64\n      add\n        /* \"ValidatorStaking_1751751092127.sol\":2188:2268  require(validators[validator].staked >= amount, \"Cannot slash more than staked\") */\n      tag_54\n        /* \"#utility.yul\":4696:5049   */\n      jump\n        /* \"ValidatorStaking_1751751092127.sol\":2188:2268  require(validators[validator].staked >= amount, \"Cannot slash more than staked\") */\n    tag_85:\n      sub(shl(0xa0, 0x01), 0x01)\n        /* \"ValidatorStaking_1751751092127.sol\":2281:2302  validators[validator] */\n      dup4\n      and\n      0x00\n      swap1\n      dup2\n      mstore\n        /* \"ValidatorStaking_1751751092127.sol\":2281:2291  validators */\n      0x01\n        /* \"ValidatorStaking_1751751092127.sol\":2281:2302  validators[validator] */\n      0x20\n      mstore\n      0x40\n      dup2\n      keccak256\n        /* \"ValidatorStaking_1751751092127.sol\":2281:2319  validators[validator].staked -= amount */\n      dup1\n      sload\n        /* \"ValidatorStaking_1751751092127.sol\":2313:2319  amount */\n      dup4\n      swap3\n        /* \"ValidatorStaking_1751751092127.sol\":2281:2302  validators[validator] */\n      swap1\n        /* \"ValidatorStaking_1751751092127.sol\":2281:2319  validators[validator].staked -= amount */\n      tag_88\n      swap1\n        /* \"ValidatorStaking_1751751092127.sol\":2313:2319  amount */\n      dup5\n      swap1\n        /* \"ValidatorStaking_1751751092127.sol\":2281:2319  validators[validator].staked -= amount */\n      tag_57\n      jump\t// in\n    tag_88:\n      swap1\n      swap2\n      sstore\n      pop\n      pop\n      sub(shl(0xa0, 0x01), 0x01)\n        /* \"ValidatorStaking_1751751092127.sol\":2334:2355  validators[validator] */\n      dup4\n      and\n      0x00\n      swap1\n      dup2\n      mstore\n        /* \"ValidatorStaking_1751751092127.sol\":2334:2344  validators */\n      0x01\n        /* \"ValidatorStaking_1751751092127.sol\":2334:2355  validators[validator] */\n      0x20\n      mstore\n      0x40\n      dup2\n      keccak256\n        /* \"ValidatorStaking_1751751092127.sol\":2334:2362  validators[validator].staked */\n      sload\n        /* \"ValidatorStaking_1751751092127.sol\":2334:2367  validators[validator].staked == 0 */\n      swap1\n      sub\n        /* \"ValidatorStaking_1751751092127.sol\":2330:2432  if (validators[validator].staked == 0) {... */\n      tag_89\n      jumpi\n      sub(shl(0xa0, 0x01), 0x01)\n        /* \"ValidatorStaking_1751751092127.sol\":2384:2405  validators[validator] */\n      dup4\n      and\n        /* \"ValidatorStaking_1751751092127.sol\":2415:2420  false */\n      0x00\n        /* \"ValidatorStaking_1751751092127.sol\":2384:2405  validators[validator] */\n      swap1\n      dup2\n      mstore\n        /* \"ValidatorStaking_1751751092127.sol\":2384:2394  validators */\n      0x01\n        /* \"ValidatorStaking_1751751092127.sol\":2384:2405  validators[validator] */\n      0x20\n      dup2\n      swap1\n      mstore\n      0x40\n      swap1\n      swap2\n      keccak256\n        /* \"ValidatorStaking_1751751092127.sol\":2384:2412  validators[validator].active */\n      add\n        /* \"ValidatorStaking_1751751092127.sol\":2384:2420  validators[validator].active = false */\n      dup1\n      sload\n      not(0xff)\n      and\n      swap1\n      sstore\n        /* \"ValidatorStaking_1751751092127.sol\":2330:2432  if (validators[validator].staked == 0) {... */\n    tag_89:\n        /* \"ValidatorStaking_1751751092127.sol\":2449:2487  Slashed(validator, amount, campaignId) */\n      0x40\n      dup1\n      mload\n        /* \"#utility.yul\":5228:5253   */\n      dup3\n      dup2\n      mstore\n        /* \"#utility.yul\":5284:5286   */\n      0x20\n        /* \"#utility.yul\":5269:5287   */\n      dup2\n      add\n        /* \"#utility.yul\":5262:5296   */\n      dup5\n      swap1\n      mstore\n      sub(shl(0xa0, 0x01), 0x01)\n        /* \"ValidatorStaking_1751751092127.sol\":2449:2487  Slashed(validator, amount, campaignId) */\n      dup6\n      and\n      swap2\n      0xde801f971d0ff4da891bdda531ed09f84916be41f6903734f816d6855210ff5a\n      swap2\n        /* \"#utility.yul\":5201:5219   */\n      add\n        /* \"ValidatorStaking_1751751092127.sol\":2449:2487  Slashed(validator, amount, campaignId) */\n      mload(0x40)\n      dup1\n      swap2\n      sub\n      swap1\n      log2\n        /* \"ValidatorStaking_1751751092127.sol\":2079:2495  function slashValidator(address validator, bytes32 campaignId, uint256 amount) external onlyOwner {... */\n      pop\n      pop\n      pop\n      jump\t// out\n        /* \"ValidatorStaking_1751751092127.sol\":1836:2071  function vouchForCampaign(bytes32 campaignId) external {... */\n    tag_45:\n        /* \"ValidatorStaking_1751751092127.sol\":1921:1931  msg.sender */\n      caller\n        /* \"ValidatorStaking_1751751092127.sol\":1910:1932  validators[msg.sender] */\n      0x00\n      swap1\n      dup2\n      mstore\n        /* \"ValidatorStaking_1751751092127.sol\":1910:1920  validators */\n      0x01\n        /* \"ValidatorStaking_1751751092127.sol\":1910:1932  validators[msg.sender] */\n      0x20\n      dup2\n      swap1\n      mstore\n      0x40\n      swap1\n      swap2\n      keccak256\n        /* \"ValidatorStaking_1751751092127.sol\":1910:1939  validators[msg.sender].active */\n      add\n      sload\n      0xff\n      and\n        /* \"ValidatorStaking_1751751092127.sol\":1902:1959  require(validators[msg.sender].active, \"Not a validator\") */\n      tag_93\n      jumpi\n      mload(0x40)\n      shl(0xe5, 0x461bcd)\n      dup2\n      mstore\n        /* \"#utility.yul\":5509:5511   */\n      0x20\n        /* \"ValidatorStaking_1751751092127.sol\":1902:1959  require(validators[msg.sender].active, \"Not a validator\") */\n      0x04\n      dup3\n      add\n        /* \"#utility.yul\":5491:5512   */\n      mstore\n        /* \"#utility.yul\":5548:5550   */\n      0x0f\n        /* \"#utility.yul\":5528:5546   */\n      0x24\n      dup3\n      add\n        /* \"#utility.yul\":5521:5551   */\n      mstore\n        /* \"#utility.yul\":5587:5604   */\n      0x4e6f7420612076616c696461746f720000000000000000000000000000000000\n        /* \"#utility.yul\":5567:5585   */\n      0x44\n      dup3\n      add\n        /* \"#utility.yul\":5560:5605   */\n      mstore\n        /* \"#utility.yul\":5622:5640   */\n      0x64\n      add\n        /* \"ValidatorStaking_1751751092127.sol\":1902:1959  require(validators[msg.sender].active, \"Not a validator\") */\n      tag_54\n        /* \"#utility.yul\":5307:5646   */\n      jump\n        /* \"ValidatorStaking_1751751092127.sol\":1902:1959  require(validators[msg.sender].active, \"Not a validator\") */\n    tag_93:\n        /* \"ValidatorStaking_1751751092127.sol\":1970:1997  campaignVouches[campaignId] */\n      0x00\n      dup2\n      dup2\n      mstore\n        /* \"ValidatorStaking_1751751092127.sol\":1970:1985  campaignVouches */\n      0x02\n        /* \"ValidatorStaking_1751751092127.sol\":1970:1997  campaignVouches[campaignId] */\n      0x20\n      swap1\n      dup2\n      mstore\n      0x40\n      dup1\n      dup4\n      keccak256\n        /* \"ValidatorStaking_1751751092127.sol\":1970:2014  campaignVouches[campaignId].push(msg.sender) */\n      dup1\n      sload\n      0x01\n      dup2\n      add\n      dup3\n      sstore\n      swap1\n      dup5\n      mstore\n      swap2\n      dup4\n      keccak256\n      swap1\n      swap2\n      add\n      dup1\n      sload\n      0xffffffffffffffffffffffff0000000000000000000000000000000000000000\n      and\n        /* \"ValidatorStaking_1751751092127.sol\":2003:2013  msg.sender */\n      caller\n        /* \"ValidatorStaking_1751751092127.sol\":1970:2014  campaignVouches[campaignId].push(msg.sender) */\n      swap1\n      dup2\n      or\n      swap1\n      swap2\n      sstore\n        /* \"ValidatorStaking_1751751092127.sol\":2032:2063  Vouched(msg.sender, campaignId) */\n      swap1\n      mload\n        /* \"ValidatorStaking_1751751092127.sol\":1986:1996  campaignId */\n      dup4\n      swap3\n        /* \"ValidatorStaking_1751751092127.sol\":2032:2063  Vouched(msg.sender, campaignId) */\n      0xdce2f2dd28209f88e5c3fc2dd0797ce2d14d7a6fb868b1e8c58e81ab845e823c\n      swap2\n      log3\n        /* \"ValidatorStaking_1751751092127.sol\":1836:2071  function vouchForCampaign(bytes32 campaignId) external {... */\n      pop\n      jump\t// out\n        /* \"#utility.yul\":14:194   */\n    tag_16:\n        /* \"#utility.yul\":73:79   */\n      0x00\n        /* \"#utility.yul\":126:128   */\n      0x20\n        /* \"#utility.yul\":114:123   */\n      dup3\n        /* \"#utility.yul\":105:112   */\n      dup5\n        /* \"#utility.yul\":101:124   */\n      sub\n        /* \"#utility.yul\":97:129   */\n      slt\n        /* \"#utility.yul\":94:146   */\n      iszero\n      tag_101\n      jumpi\n        /* \"#utility.yul\":142:143   */\n      0x00\n        /* \"#utility.yul\":139:140   */\n      dup1\n        /* \"#utility.yul\":132:144   */\n      revert\n        /* \"#utility.yul\":94:146   */\n    tag_101:\n      pop\n        /* \"#utility.yul\":165:188   */\n      calldataload\n      swap2\n        /* \"#utility.yul\":14:194   */\n      swap1\n      pop\n      jump\t// out\n        /* \"#utility.yul\":199:447   */\n    tag_20:\n        /* \"#utility.yul\":267:273   */\n      0x00\n        /* \"#utility.yul\":275:281   */\n      dup1\n        /* \"#utility.yul\":328:330   */\n      0x40\n        /* \"#utility.yul\":316:325   */\n      dup4\n        /* \"#utility.yul\":307:314   */\n      dup6\n        /* \"#utility.yul\":303:326   */\n      sub\n        /* \"#utility.yul\":299:331   */\n      slt\n        /* \"#utility.yul\":296:348   */\n      iszero\n      tag_103\n      jumpi\n        /* \"#utility.yul\":344:345   */\n      0x00\n        /* \"#utility.yul\":341:342   */\n      dup1\n        /* \"#utility.yul\":334:346   */\n      revert\n        /* \"#utility.yul\":296:348   */\n    tag_103:\n      pop\n      pop\n        /* \"#utility.yul\":367:390   */\n      dup1\n      calldataload\n      swap3\n        /* \"#utility.yul\":437:439   */\n      0x20\n        /* \"#utility.yul\":422:440   */\n      swap1\n      swap2\n      add\n        /* \"#utility.yul\":409:441   */\n      calldataload\n      swap2\n      pop\n        /* \"#utility.yul\":199:447   */\n      jump\t// out\n        /* \"#utility.yul\":683:879   */\n    tag_97:\n        /* \"#utility.yul\":751:771   */\n      dup1\n      calldataload\n      sub(shl(0xa0, 0x01), 0x01)\n        /* \"#utility.yul\":800:854   */\n      dup2\n      and\n        /* \"#utility.yul\":790:855   */\n      dup2\n      eq\n        /* \"#utility.yul\":780:873   */\n      tag_106\n      jumpi\n        /* \"#utility.yul\":869:870   */\n      0x00\n        /* \"#utility.yul\":866:867   */\n      dup1\n        /* \"#utility.yul\":859:871   */\n      revert\n        /* \"#utility.yul\":780:873   */\n    tag_106:\n        /* \"#utility.yul\":683:879   */\n      swap2\n      swap1\n      pop\n      jump\t// out\n        /* \"#utility.yul\":884:1206   */\n    tag_32:\n        /* \"#utility.yul\":961:967   */\n      0x00\n        /* \"#utility.yul\":969:975   */\n      dup1\n        /* \"#utility.yul\":977:983   */\n      0x00\n        /* \"#utility.yul\":1030:1032   */\n      0x60\n        /* \"#utility.yul\":1018:1027   */\n      dup5\n        /* \"#utility.yul\":1009:1016   */\n      dup7\n        /* \"#utility.yul\":1005:1028   */\n      sub\n        /* \"#utility.yul\":1001:1033   */\n      slt\n        /* \"#utility.yul\":998:1050   */\n      iszero\n      tag_108\n      jumpi\n        /* \"#utility.yul\":1046:1047   */\n      0x00\n        /* \"#utility.yul\":1043:1044   */\n      dup1\n        /* \"#utility.yul\":1036:1048   */\n      revert\n        /* \"#utility.yul\":998:1050   */\n    tag_108:\n        /* \"#utility.yul\":1069:1098   */\n      tag_109\n        /* \"#utility.yul\":1088:1097   */\n      dup5\n        /* \"#utility.yul\":1069:1098   */\n      tag_97\n      jump\t// in\n    tag_109:\n        /* \"#utility.yul\":1059:1098   */\n      swap6\n        /* \"#utility.yul\":1145:1147   */\n      0x20\n        /* \"#utility.yul\":1130:1148   */\n      dup6\n      add\n        /* \"#utility.yul\":1117:1149   */\n      calldataload\n      swap6\n      pop\n        /* \"#utility.yul\":1196:1198   */\n      0x40\n        /* \"#utility.yul\":1181:1199   */\n      swap1\n      swap5\n      add\n        /* \"#utility.yul\":1168:1200   */\n      calldataload\n      swap4\n        /* \"#utility.yul\":884:1206   */\n      swap3\n      pop\n      pop\n      pop\n      jump\t// out\n        /* \"#utility.yul\":1824:2010   */\n    tag_48:\n        /* \"#utility.yul\":1883:1889   */\n      0x00\n        /* \"#utility.yul\":1936:1938   */\n      0x20\n        /* \"#utility.yul\":1924:1933   */\n      dup3\n        /* \"#utility.yul\":1915:1922   */\n      dup5\n        /* \"#utility.yul\":1911:1934   */\n      sub\n        /* \"#utility.yul\":1907:1939   */\n      slt\n        /* \"#utility.yul\":1904:1956   */\n      iszero\n      tag_115\n      jumpi\n        /* \"#utility.yul\":1952:1953   */\n      0x00\n        /* \"#utility.yul\":1949:1950   */\n      dup1\n        /* \"#utility.yul\":1942:1954   */\n      revert\n        /* \"#utility.yul\":1904:1956   */\n    tag_115:\n        /* \"#utility.yul\":1975:2004   */\n      tag_116\n        /* \"#utility.yul\":1994:2003   */\n      dup3\n        /* \"#utility.yul\":1975:2004   */\n      tag_97\n      jump\t// in\n    tag_116:\n        /* \"#utility.yul\":1965:2004   */\n      swap4\n        /* \"#utility.yul\":1824:2010   */\n      swap3\n      pop\n      pop\n      pop\n      jump\t// out\n        /* \"#utility.yul\":2624:2751   */\n    tag_98:\n        /* \"#utility.yul\":2685:2695   */\n      0x4e487b71\n        /* \"#utility.yul\":2680:2683   */\n      0xe0\n        /* \"#utility.yul\":2676:2696   */\n      shl\n        /* \"#utility.yul\":2673:2674   */\n      0x00\n        /* \"#utility.yul\":2666:2697   */\n      mstore\n        /* \"#utility.yul\":2716:2720   */\n      0x11\n        /* \"#utility.yul\":2713:2714   */\n      0x04\n        /* \"#utility.yul\":2706:2721   */\n      mstore\n        /* \"#utility.yul\":2740:2744   */\n      0x24\n        /* \"#utility.yul\":2737:2738   */\n      0x00\n        /* \"#utility.yul\":2730:2745   */\n      revert\n        /* \"#utility.yul\":2756:2884   */\n    tag_57:\n        /* \"#utility.yul\":2823:2832   */\n      dup2\n      dup2\n      sub\n        /* \"#utility.yul\":2844:2855   */\n      dup2\n      dup2\n      gt\n        /* \"#utility.yul\":2841:2878   */\n      iszero\n      tag_122\n      jumpi\n        /* \"#utility.yul\":2858:2876   */\n      tag_122\n      tag_98\n      jump\t// in\n    tag_122:\n        /* \"#utility.yul\":2756:2884   */\n      swap3\n      swap2\n      pop\n      pop\n      jump\t// out\n        /* \"#utility.yul\":3191:3468   */\n    tag_64:\n        /* \"#utility.yul\":3258:3264   */\n      0x00\n        /* \"#utility.yul\":3311:3313   */\n      0x20\n        /* \"#utility.yul\":3299:3308   */\n      dup3\n        /* \"#utility.yul\":3290:3297   */\n      dup5\n        /* \"#utility.yul\":3286:3309   */\n      sub\n        /* \"#utility.yul\":3282:3314   */\n      slt\n        /* \"#utility.yul\":3279:3331   */\n      iszero\n      tag_125\n      jumpi\n        /* \"#utility.yul\":3327:3328   */\n      0x00\n        /* \"#utility.yul\":3324:3325   */\n      dup1\n        /* \"#utility.yul\":3317:3329   */\n      revert\n        /* \"#utility.yul\":3279:3331   */\n    tag_125:\n        /* \"#utility.yul\":3359:3368   */\n      dup2\n        /* \"#utility.yul\":3353:3369   */\n      mload\n        /* \"#utility.yul\":3412:3417   */\n      dup1\n        /* \"#utility.yul\":3405:3418   */\n      iszero\n        /* \"#utility.yul\":3398:3419   */\n      iszero\n        /* \"#utility.yul\":3391:3396   */\n      dup2\n        /* \"#utility.yul\":3388:3420   */\n      eq\n        /* \"#utility.yul\":3378:3438   */\n      tag_116\n      jumpi\n        /* \"#utility.yul\":3434:3435   */\n      0x00\n        /* \"#utility.yul\":3431:3432   */\n      dup1\n        /* \"#utility.yul\":3424:3436   */\n      revert\n        /* \"#utility.yul\":4223:4348   */\n    tag_78:\n        /* \"#utility.yul\":4288:4297   */\n      dup1\n      dup3\n      add\n        /* \"#utility.yul\":4309:4319   */\n      dup1\n      dup3\n      gt\n        /* \"#utility.yul\":4306:4342   */\n      iszero\n      tag_122\n      jumpi\n        /* \"#utility.yul\":4322:4340   */\n      tag_122\n      tag_98\n      jump\t// in\n\n    auxdata: 0xa2646970667358221220877845741dd3d8e4c18c09d6aa92341f79533081d42831788b497f1d1af6fc2564736f6c63430008190033\n}\n",
    "bytecode": {
      "linkReferences": {},
      "object": "60a0604052348015600e575f80fd5b506040516108e93803806108e9833981016040819052602b91604c565b6001600160a01b03166080525f80546001600160a01b031916331790556077565b5f60208284031215605b575f80fd5b81516001600160a01b03811681146070575f80fd5b9392505050565b60805161084c61009d5f395f81816101430152818161028801526103e3015261084c5ff3fe608060405234801561000f575f80fd5b506004361061009f575f3560e01c8063b7ad357411610072578063f2e76d7b11610058578063f2e76d7b1461013e578063f885a81a14610165578063fa52c7d814610178575f80fd5b8063b7ad35741461010d578063cb1c2b5c14610120575f80fd5b80632e17de78146100a35780636b944b0e146100b85780638da5cb5b146100e8578063a694fc3a146100fa575b5f80fd5b6100b66100b1366004610715565b6101b6565b005b6100cb6100c636600461072c565b610334565b6040516001600160a01b0390911681526020015b60405180910390f35b5f546100cb906001600160a01b031681565b6100b6610108366004610715565b610368565b6100b661011b366004610767565b6104c6565b610130683635c9adc5dea0000081565b6040519081526020016100df565b6100cb7f000000000000000000000000000000000000000000000000000000000000000081565b6100b6610173366004610715565b61063d565b6101a1610186366004610797565b600160208190525f9182526040909120805491015460ff1682565b604080519283529015156020830152016100df565b335f908152600160205260409020548111156102195760405162461bcd60e51b815260206004820152601160248201527f4e6f7420656e6f756768207374616b656400000000000000000000000000000060448201526064015b60405180910390fd5b335f90815260016020526040812080548392906102379084906107cb565b9091555050335f90815260016020526040812054900361026c57335f90815260016020819052604090912001805460ff191690555b60405163a9059cbb60e01b8152336004820152602481018290527f00000000000000000000000000000000000000000000000000000000000000006001600160a01b03169063a9059cbb906044016020604051808303815f875af11580156102d6573d5f803e3d5ffd5b505050506040513d601f19601f820116820180604052508101906102fa91906107e4565b5060405181815233907f0f5bb82176feb1b5e747e28471aa92156a04d9f3ab9f45f28e2d704232b93f75906020015b60405180910390a250565b6002602052815f5260405f20818154811061034d575f80fd5b5f918252602090912001546001600160a01b03169150829050565b683635c9adc5dea000008110156103c15760405162461bcd60e51b815260206004820152601260248201527f496e73756666696369656e74207374616b6500000000000000000000000000006044820152606401610210565b6040516323b872dd60e01b8152336004820152306024820152604481018290527f00000000000000000000000000000000000000000000000000000000000000006001600160a01b0316906323b872dd906064016020604051808303815f875af1158015610431573d5f803e3d5ffd5b505050506040513d601f19601f8201168201806040525081019061045591906107e4565b50335f9081526001602052604081208054839290610474908490610803565b9091555050335f818152600160208181526040928390208201805460ff191690921790915590518381527f9e71bc8eea02a63969f509818f2dafb9254532904319f9dbda79b67bd34a5f3d9101610329565b5f546001600160a01b0316331461051f5760405162461bcd60e51b815260206004820152600e60248201527f4e6f7420617574686f72697a65640000000000000000000000000000000000006044820152606401610210565b6001600160a01b0383165f908152600160205260409020548111156105865760405162461bcd60e51b815260206004820152601d60248201527f43616e6e6f7420736c617368206d6f7265207468616e207374616b65640000006044820152606401610210565b6001600160a01b0383165f90815260016020526040812080548392906105ad9084906107cb565b90915550506001600160a01b0383165f9081526001602052604081205490036105f4576001600160a01b0383165f90815260016020819052604090912001805460ff191690555b60408051828152602081018490526001600160a01b038516917fde801f971d0ff4da891bdda531ed09f84916be41f6903734f816d6855210ff5a910160405180910390a2505050565b335f908152600160208190526040909120015460ff1661069f5760405162461bcd60e51b815260206004820152600f60248201527f4e6f7420612076616c696461746f7200000000000000000000000000000000006044820152606401610210565b5f818152600260209081526040808320805460018101825590845291832090910180547fffffffffffffffffffffffff00000000000000000000000000000000000000001633908117909155905183927fdce2f2dd28209f88e5c3fc2dd0797ce2d14d7a6fb868b1e8c58e81ab845e823c91a350565b5f60208284031215610725575f80fd5b5035919050565b5f806040838503121561073d575f80fd5b50508035926020909101359150565b80356001600160a01b0381168114610762575f80fd5b919050565b5f805f60608486031215610779575f80fd5b6107828461074c565b95602085013595506040909401359392505050565b5f602082840312156107a7575f80fd5b6107b08261074c565b9392505050565b634e487b7160e01b5f52601160045260245ffd5b818103818111156107de576107de6107b7565b92915050565b5f602082840312156107f4575f80fd5b815180151581146107b0575f80fd5b808201808211156107de576107de6107b756fea2646970667358221220877845741dd3d8e4c18c09d6aa92341f79533081d42831788b497f1d1af6fc2564736f6c63430008190033",
      "opcodes": "PUSH1 0xA0 PUSH1 0x40 MSTORE CALLVALUE DUP1 ISZERO PUSH1 0xE JUMPI PUSH0 DUP1 REVERT JUMPDEST POP PUSH1 0x40 MLOAD PUSH2 0x8E9 CODESIZE SUB DUP1 PUSH2 0x8E9 DUP4 CODECOPY DUP2 ADD PUSH1 0x40 DUP2 SWAP1 MSTORE PUSH1 0x2B SWAP2 PUSH1 0x4C JUMP JUMPDEST PUSH1 0x1 PUSH1 0x1 PUSH1 0xA0 SHL SUB AND PUSH1 0x80 MSTORE PUSH0 DUP1 SLOAD PUSH1 0x1 PUSH1 0x1 PUSH1 0xA0 SHL SUB NOT AND CALLER OR SWAP1 SSTORE PUSH1 0x77 JUMP JUMPDEST PUSH0 PUSH1 0x20 DUP3 DUP5 SUB SLT ISZERO PUSH1 0x5B JUMPI PUSH0 DUP1 REVERT JUMPDEST DUP2 MLOAD PUSH1 0x1 PUSH1 0x1 PUSH1 0xA0 SHL SUB DUP2 AND DUP2 EQ PUSH1 0x70 JUMPI PUSH0 DUP1 REVERT JUMPDEST SWAP4 SWAP3 POP POP POP JUMP JUMPDEST PUSH1 0x80 MLOAD PUSH2 0x84C PUSH2 0x9D PUSH0 CODECOPY PUSH0 DUP2 DUP2 PUSH2 0x143 ADD MSTORE DUP2 DUP2 PUSH2 0x288 ADD MSTORE PUSH2 0x3E3 ADD MSTORE PUSH2 0x84C PUSH0 RETURN INVALID PUSH1 0x80 PUSH1 0x40 MSTORE CALLVALUE DUP1 ISZERO PUSH2 0xF JUMPI PUSH0 DUP1 REVERT JUMPDEST POP PUSH1 0x4 CALLDATASIZE LT PUSH2 0x9F JUMPI PUSH0 CALLDATALOAD PUSH1 0xE0 SHR DUP1 PUSH4 0xB7AD3574 GT PUSH2 0x72 JUMPI DUP1 PUSH4 0xF2E76D7B GT PUSH2 0x58 JUMPI DUP1 PUSH4 0xF2E76D7B EQ PUSH2 0x13E JUMPI DUP1 PUSH4 0xF885A81A EQ PUSH2 0x165 JUMPI DUP1 PUSH4 0xFA52C7D8 EQ PUSH2 0x178 JUMPI PUSH0 DUP1 REVERT JUMPDEST DUP1 PUSH4 0xB7AD3574 EQ PUSH2 0x10D JUMPI DUP1 PUSH4 0xCB1C2B5C EQ PUSH2 0x120 JUMPI PUSH0 DUP1 REVERT JUMPDEST DUP1 PUSH4 0x2E17DE78 EQ PUSH2 0xA3 JUMPI DUP1 PUSH4 0x6B944B0E EQ PUSH2 0xB8 JUMPI DUP1 PUSH4 0x8DA5CB5B EQ PUSH2 0xE8 JUMPI DUP1 PUSH4 0xA694FC3A EQ PUSH2 0xFA JUMPI JUMPDEST PUSH0 DUP1 REVERT JUMPDEST PUSH2 0xB6 PUSH2 0xB1 CALLDATASIZE PUSH1 0x4 PUSH2 0x715 JUMP JUMPDEST PUSH2 0x1B6 JUMP JUMPDEST STOP JUMPDEST PUSH2 0xCB PUSH2 0xC6 CALLDATASIZE PUSH1 0x4 PUSH2 0x72C JUMP JUMPDEST PUSH2 0x334 JUMP JUMPDEST PUSH1 0x40 MLOAD PUSH1 0x1 PUSH1 0x1 PUSH1 0xA0 SHL SUB SWAP1 SWAP2 AND DUP2 MSTORE PUSH1 0x20 ADD JUMPDEST PUSH1 0x40 MLOAD DUP1 SWAP2 SUB SWAP1 RETURN JUMPDEST PUSH0 SLOAD PUSH2 0xCB SWAP1 PUSH1 0x1 PUSH1 0x1 PUSH1 0xA0 SHL SUB AND DUP2 JUMP JUMPDEST PUSH2 0xB6 PUSH2 0x108 CALLDATASIZE PUSH1 0x4 PUSH2 0x715 JUMP JUMPDEST PUSH2 0x368 JUMP JUMPDEST PUSH2 0xB6 PUSH2 0x11B CALLDATASIZE PUSH1 0x4 PUSH2 0x767 JUMP JUMPDEST PUSH2 0x4C6 JUMP JUMPDEST PUSH2 0x130 PUSH9 0x3635C9ADC5DEA00000 DUP2 JUMP JUMPDEST PUSH1 0x40 MLOAD SWAP1 DUP2 MSTORE PUSH1 0x20 ADD PUSH2 0xDF JUMP JUMPDEST PUSH2 0xCB PUSH32 0x0 DUP2 JUMP JUMPDEST PUSH2 0xB6 PUSH2 0x173 CALLDATASIZE PUSH1 0x4 PUSH2 0x715 JUMP JUMPDEST PUSH2 0x63D JUMP JUMPDEST PUSH2 0x1A1 PUSH2 0x186 CALLDATASIZE PUSH1 0x4 PUSH2 0x797 JUMP JUMPDEST PUSH1 0x1 PUSH1 0x20 DUP2 SWAP1 MSTORE PUSH0 SWAP2 DUP3 MSTORE PUSH1 0x40 SWAP1 SWAP2 KECCAK256 DUP1 SLOAD SWAP2 ADD SLOAD PUSH1 0xFF AND DUP3 JUMP JUMPDEST PUSH1 0x40 DUP1 MLOAD SWAP3 DUP4 MSTORE SWAP1 ISZERO ISZERO PUSH1 0x20 DUP4 ADD MSTORE ADD PUSH2 0xDF JUMP JUMPDEST CALLER PUSH0 SWAP1 DUP2 MSTORE PUSH1 0x1 PUSH1 0x20 MSTORE PUSH1 0x40 SWAP1 KECCAK256 SLOAD DUP2 GT ISZERO PUSH2 0x219 JUMPI PUSH1 0x40 MLOAD PUSH3 0x461BCD PUSH1 0xE5 SHL DUP2 MSTORE PUSH1 0x20 PUSH1 0x4 DUP3 ADD MSTORE PUSH1 0x11 PUSH1 0x24 DUP3 ADD MSTORE PUSH32 0x4E6F7420656E6F756768207374616B6564000000000000000000000000000000 PUSH1 0x44 DUP3 ADD MSTORE PUSH1 0x64 ADD JUMPDEST PUSH1 0x40 MLOAD DUP1 SWAP2 SUB SWAP1 REVERT JUMPDEST CALLER PUSH0 SWAP1 DUP2 MSTORE PUSH1 0x1 PUSH1 0x20 MSTORE PUSH1 0x40 DUP2 KECCAK256 DUP1 SLOAD DUP4 SWAP3 SWAP1 PUSH2 0x237 SWAP1 DUP5 SWAP1 PUSH2 0x7CB JUMP JUMPDEST SWAP1 SWAP2 SSTORE POP POP CALLER PUSH0 SWAP1 DUP2 MSTORE PUSH1 0x1 PUSH1 0x20 MSTORE PUSH1 0x40 DUP2 KECCAK256 SLOAD SWAP1 SUB PUSH2 0x26C JUMPI CALLER PUSH0 SWAP1 DUP2 MSTORE PUSH1 0x1 PUSH1 0x20 DUP2 SWAP1 MSTORE PUSH1 0x40 SWAP1 SWAP2 KECCAK256 ADD DUP1 SLOAD PUSH1 0xFF NOT AND SWAP1 SSTORE JUMPDEST PUSH1 0x40 MLOAD PUSH4 0xA9059CBB PUSH1 0xE0 SHL DUP2 MSTORE CALLER PUSH1 0x4 DUP3 ADD MSTORE PUSH1 0x24 DUP2 ADD DUP3 SWAP1 MSTORE PUSH32 0x0 PUSH1 0x1 PUSH1 0x1 PUSH1 0xA0 SHL SUB AND SWAP1 PUSH4 0xA9059CBB SWAP1 PUSH1 0x44 ADD PUSH1 0x20 PUSH1 0x40 MLOAD DUP1 DUP4 SUB DUP2 PUSH0 DUP8 GAS CALL ISZERO DUP1 ISZERO PUSH2 0x2D6 JUMPI RETURNDATASIZE PUSH0 DUP1 RETURNDATACOPY RETURNDATASIZE PUSH0 REVERT JUMPDEST POP POP POP POP PUSH1 0x40 MLOAD RETURNDATASIZE PUSH1 0x1F NOT PUSH1 0x1F DUP3 ADD AND DUP3 ADD DUP1 PUSH1 0x40 MSTORE POP DUP2 ADD SWAP1 PUSH2 0x2FA SWAP2 SWAP1 PUSH2 0x7E4 JUMP JUMPDEST POP PUSH1 0x40 MLOAD DUP2 DUP2 MSTORE CALLER SWAP1 PUSH32 0xF5BB82176FEB1B5E747E28471AA92156A04D9F3AB9F45F28E2D704232B93F75 SWAP1 PUSH1 0x20 ADD JUMPDEST PUSH1 0x40 MLOAD DUP1 SWAP2 SUB SWAP1 LOG2 POP JUMP JUMPDEST PUSH1 0x2 PUSH1 0x20 MSTORE DUP2 PUSH0 MSTORE PUSH1 0x40 PUSH0 KECCAK256 DUP2 DUP2 SLOAD DUP2 LT PUSH2 0x34D JUMPI PUSH0 DUP1 REVERT JUMPDEST PUSH0 SWAP2 DUP3 MSTORE PUSH1 0x20 SWAP1 SWAP2 KECCAK256 ADD SLOAD PUSH1 0x1 PUSH1 0x1 PUSH1 0xA0 SHL SUB AND SWAP2 POP DUP3 SWAP1 POP JUMP JUMPDEST PUSH9 0x3635C9ADC5DEA00000 DUP2 LT ISZERO PUSH2 0x3C1 JUMPI PUSH1 0x40 MLOAD PUSH3 0x461BCD PUSH1 0xE5 SHL DUP2 MSTORE PUSH1 0x20 PUSH1 0x4 DUP3 ADD MSTORE PUSH1 0x12 PUSH1 0x24 DUP3 ADD MSTORE PUSH32 0x496E73756666696369656E74207374616B650000000000000000000000000000 PUSH1 0x44 DUP3 ADD MSTORE PUSH1 0x64 ADD PUSH2 0x210 JUMP JUMPDEST PUSH1 0x40 MLOAD PUSH4 0x23B872DD PUSH1 0xE0 SHL DUP2 MSTORE CALLER PUSH1 0x4 DUP3 ADD MSTORE ADDRESS PUSH1 0x24 DUP3 ADD MSTORE PUSH1 0x44 DUP2 ADD DUP3 SWAP1 MSTORE PUSH32 0x0 PUSH1 0x1 PUSH1 0x1 PUSH1 0xA0 SHL SUB AND SWAP1 PUSH4 0x23B872DD SWAP1 PUSH1 0x64 ADD PUSH1 0x20 PUSH1 0x40 MLOAD DUP1 DUP4 SUB DUP2 PUSH0 DUP8 GAS CALL ISZERO DUP1 ISZERO PUSH2 0x431 JUMPI RETURNDATASIZE PUSH0 DUP1 RETURNDATACOPY RETURNDATASIZE PUSH0 REVERT JUMPDEST POP POP POP POP PUSH1 0x40 MLOAD RETURNDATASIZE PUSH1 0x1F NOT PUSH1 0x1F DUP3 ADD AND DUP3 ADD DUP1 PUSH1 0x40 MSTORE POP DUP2 ADD SWAP1 PUSH2 0x455 SWAP2 SWAP1 PUSH2 0x7E4 JUMP JUMPDEST POP CALLER PUSH0 SWAP1 DUP2 MSTORE PUSH1 0x1 PUSH1 0x20 MSTORE PUSH1 0x40 DUP2 KECCAK256 DUP1 SLOAD DUP4 SWAP3 SWAP1 PUSH2 0x474 SWAP1 DUP5 SWAP1 PUSH2 0x803 JUMP JUMPDEST SWAP1 SWAP2 SSTORE POP POP CALLER PUSH0 DUP2 DUP2 MSTORE PUSH1 0x1 PUSH1 0x20 DUP2 DUP2 MSTORE PUSH1 0x40 SWAP3 DUP4 SWAP1 KECCAK256 DUP3 ADD DUP1 SLOAD PUSH1 0xFF NOT AND SWAP1 SWAP3 OR SWAP1 SWAP2 SSTORE SWAP1 MLOAD DUP4 DUP2 MSTORE PUSH32 0x9E71BC8EEA02A63969F509818F2DAFB9254532904319F9DBDA79B67BD34A5F3D SWAP2 ADD PUSH2 0x329 JUMP JUMPDEST PUSH0 SLOAD PUSH1 0x1 PUSH1 0x1 PUSH1 0xA0 SHL SUB AND CALLER EQ PUSH2 0x51F JUMPI PUSH1 0x40 MLOAD PUSH3 0x461BCD PUSH1 0xE5 SHL DUP2 MSTORE PUSH1 0x20 PUSH1 0x4 DUP3 ADD MSTORE PUSH1 0xE PUSH1 0x24 DUP3 ADD MSTORE PUSH32 0x4E6F7420617574686F72697A6564000000000000000000000000000000000000 PUSH1 0x44 DUP3 ADD MSTORE PUSH1 0x64 ADD PUSH2 0x210 JUMP JUMPDEST PUSH1 0x1 PUSH1 0x1 PUSH1 0xA0 SHL SUB DUP4 AND PUSH0 SWAP1 DUP2 MSTORE PUSH1 0x1 PUSH1 0x20 MSTORE PUSH1 0x40 SWAP1 KECCAK256 SLOAD DUP2 GT ISZERO PUSH2 0x586 JUMPI PUSH1 0x40 MLOAD PUSH3 0x461BCD PUSH1 0xE5 SHL DUP2 MSTORE PUSH1 0x20 PUSH1 0x4 DUP3 ADD MSTORE PUSH1 0x1D PUSH1 0x24 DUP3 ADD MSTORE PUSH32 0x43616E6E6F7420736C617368206D6F7265207468616E207374616B6564000000 PUSH1 0x44 DUP3 ADD MSTORE PUSH1 0x64 ADD PUSH2 0x210 JUMP JUMPDEST PUSH1 0x1 PUSH1 0x1 PUSH1 0xA0 SHL SUB DUP4 AND PUSH0 SWAP1 DUP2 MSTORE PUSH1 0x1 PUSH1 0x20 MSTORE PUSH1 0x40 DUP2 KECCAK256 DUP1 SLOAD DUP4 SWAP3 SWAP1 PUSH2 0x5AD SWAP1 DUP5 SWAP1 PUSH2 0x7CB JUMP JUMPDEST SWAP1 SWAP2 SSTORE POP POP PUSH1 0x1 PUSH1 0x1 PUSH1 0xA0 SHL SUB DUP4 AND PUSH0 SWAP1 DUP2 MSTORE PUSH1 0x1 PUSH1 0x20 MSTORE PUSH1 0x40 DUP2 KECCAK256 SLOAD SWAP1 SUB PUSH2 0x5F4 JUMPI PUSH1 0x1 PUSH1 0x1 PUSH1 0xA0 SHL SUB DUP4 AND PUSH0 SWAP1 DUP2 MSTORE PUSH1 0x1 PUSH1 0x20 DUP2 SWAP1 MSTORE PUSH1 0x40 SWAP1 SWAP2 KECCAK256 ADD DUP1 SLOAD PUSH1 0xFF NOT AND SWAP1 SSTORE JUMPDEST PUSH1 0x40 DUP1 MLOAD DUP3 DUP2 MSTORE PUSH1 0x20 DUP2 ADD DUP5 SWAP1 MSTORE PUSH1 0x1 PUSH1 0x1 PUSH1 0xA0 SHL SUB DUP6 AND SWAP2 PUSH32 0xDE801F971D0FF4DA891BDDA531ED09F84916BE41F6903734F816D6855210FF5A SWAP2 ADD PUSH1 0x40 MLOAD DUP1 SWAP2 SUB SWAP1 LOG2 POP POP POP JUMP JUMPDEST CALLER PUSH0 SWAP1 DUP2 MSTORE PUSH1 0x1 PUSH1 0x20 DUP2 SWAP1 MSTORE PUSH1 0x40 SWAP1 SWAP2 KECCAK256 ADD SLOAD PUSH1 0xFF AND PUSH2 0x69F JUMPI PUSH1 0x40 MLOAD PUSH3 0x461BCD PUSH1 0xE5 SHL DUP2 MSTORE PUSH1 0x20 PUSH1 0x4 DUP3 ADD MSTORE PUSH1 0xF PUSH1 0x24 DUP3 ADD MSTORE PUSH32 0x4E6F7420612076616C696461746F720000000000000000000000000000000000 PUSH1 0x44 DUP3 ADD MSTORE PUSH1 0x64 ADD PUSH2 0x210 JUMP JUMPDEST PUSH0 DUP2 DUP2 MSTORE PUSH1 0x2 PUSH1 0x20 SWAP1 DUP2 MSTORE PUSH1 0x40 DUP1 DUP4 KECCAK256 DUP1 SLOAD PUSH1 0x1 DUP2 ADD DUP3 SSTORE SWAP1 DUP5 MSTORE SWAP2 DUP4 KECCAK256 SWAP1 SWAP2 ADD DUP1 SLOAD PUSH32 0xFFFFFFFFFFFFFFFFFFFFFFFF0000000000000000000000000000000000000000 AND CALLER SWAP1 DUP2 OR SWAP1 SWAP2 SSTORE SWAP1 MLOAD DUP4 SWAP3 PUSH32 0xDCE2F2DD28209F88E5C3FC2DD0797CE2D14D7A6FB868B1E8C58E81AB845E823C SWAP2 LOG3 POP JUMP JUMPDEST PUSH0 PUSH1 0x20 DUP3 DUP5 SUB SLT ISZERO PUSH2 0x725 JUMPI PUSH0 DUP1 REVERT JUMPDEST POP CALLDATALOAD SWAP2 SWAP1 POP JUMP JUMPDEST PUSH0 DUP1 PUSH1 0x40 DUP4 DUP6 SUB SLT ISZERO PUSH2 0x73D JUMPI PUSH0 DUP1 REVERT JUMPDEST POP POP DUP1 CALLDATALOAD SWAP3 PUSH1 0x20 SWAP1 SWAP2 ADD CALLDATALOAD SWAP2 POP JUMP JUMPDEST DUP1 CALLDATALOAD PUSH1 0x1 PUSH1 0x1 PUSH1 0xA0 SHL SUB DUP2 AND DUP2 EQ PUSH2 0x762 JUMPI PUSH0 DUP1 REVERT JUMPDEST SWAP2 SWAP1 POP JUMP JUMPDEST PUSH0 DUP1 PUSH0 PUSH1 0x60 DUP5 DUP7 SUB SLT ISZERO PUSH2 0x779 JUMPI PUSH0 DUP1 REVERT JUMPDEST PUSH2 0x782 DUP5 PUSH2 0x74C JUMP JUMPDEST SWAP6 PUSH1 0x20 DUP6 ADD CALLDATALOAD SWAP6 POP PUSH1 0x40 SWAP1 SWAP5 ADD CALLDATALOAD SWAP4 SWAP3 POP POP POP JUMP JUMPDEST PUSH0 PUSH1 0x20 DUP3 DUP5 SUB SLT ISZERO PUSH2 0x7A7 JUMPI PUSH0 DUP1 REVERT JUMPDEST PUSH2 0x7B0 DUP3 PUSH2 0x74C JUMP JUMPDEST SWAP4 SWAP3 POP POP POP JUMP JUMPDEST PUSH4 0x4E487B71 PUSH1 0xE0 SHL PUSH0 MSTORE PUSH1 0x11 PUSH1 0x4 MSTORE PUSH1 0x24 PUSH0 REVERT JUMPDEST DUP2 DUP2 SUB DUP2 DUP2 GT ISZERO PUSH2 0x7DE JUMPI PUSH2 0x7DE PUSH2 0x7B7 JUMP JUMPDEST SWAP3 SWAP2 POP POP JUMP JUMPDEST PUSH0 PUSH1 0x20 DUP3 DUP5 SUB SLT ISZERO PUSH2 0x7F4 JUMPI PUSH0 DUP1 REVERT JUMPDEST DUP2 MLOAD DUP1 ISZERO ISZERO DUP2 EQ PUSH2 0x7B0 JUMPI PUSH0 DUP1 REVERT JUMPDEST DUP1 DUP3 ADD DUP1 DUP3 GT ISZERO PUSH2 0x7DE JUMPI PUSH2 0x7DE PUSH2 0x7B7 JUMP INVALID LOG2 PUSH5 0x6970667358 0x22 SLT KECCAK256 DUP8 PUSH25 0x45741DD3D8E4C18C09D6AA92341F79533081D42831788B497F SAR BYTE 0xF6 0xFC 0x25 PUSH5 0x736F6C6343 STOP ADDMOD NOT STOP CALLER "
    },
    "gasEstimates": {
      "creation": {
        "codeDepositCost": "424800",
        "executionCost": "infinite",
        "totalCost": "infinite"
      },
      "external": {
        "MIN_STAKE()": "239",
        "campaignVouches(bytes32,uint256)": "4712",
        "flwToken()": "infinite",
        "owner()": "2369",
        "slashValidator(address,bytes32,uint256)": "57367",
        "stake(uint256)": "infinite",
        "unstake(uint256)": "infinite",
        "validators(address)": "4730",
        "vouchForCampaign(bytes32)": "52563"
      }
    },
    "methodIdentifiers": {
      "MIN_STAKE()": "cb1c2b5c",
      "campaignVouches(bytes32,uint256)": "6b944b0e",
      "flwToken()": "f2e76d7b",
      "owner()": "8da5cb5b",
      "slashValidator(address,bytes32,uint256)": "b7ad3574",
      "stake(uint256)": "a694fc3a",
      "unstake(uint256)": "2e17de78",
      "validators(address)": "fa52c7d8",
      "vouchForCampaign(bytes32)": "f885a81a"
    }
  },
  "storageLayout": {
    "storage": [
      {
        "astId": 3809,
        "contract": "ValidatorStaking_1751751092127.sol:ValidatorStaking",
        "label": "owner",
        "offset": 0,
        "slot": "0",
        "type": "t_address"
      },
      {
        "astId": 3824,
        "contract": "ValidatorStaking_1751751092127.sol:ValidatorStaking",
        "label": "validators",
        "offset": 0,
        "slot": "1",
        "type": "t_mapping(t_address,t_struct(Validator)3819_storage)"
      },
      {
        "astId": 3829,
        "contract": "ValidatorStaking_1751751092127.sol:ValidatorStaking",
        "label": "campaignVouches",
        "offset": 0,
        "slot": "2",
        "type": "t_mapping(t_bytes32,t_array(t_address)dyn_storage)"
      }
    ],
    "types": {
      "t_address": {
        "encoding": "inplace",
        "label": "address",
        "numberOfBytes": "20"
      },
      "t_array(t_address)dyn_storage": {
        "base": "t_address",
        "encoding": "dynamic_array",
        "label": "address[]",
        "numberOfBytes": "32"
      },
      "t_bool": {
        "encoding": "inplace",
        "label": "bool",
        "numberOfBytes": "1"
      },
      "t_bytes32": {
        "encoding": "inplace",
        "label": "bytes32",
        "numberOfBytes": "32"
      },
      "t_mapping(t_address,t_struct(Validator)3819_storage)": {
        "encoding": "mapping",
        "key": "t_address",
        "label": "mapping(address => struct ValidatorStaking.Validator)",
        "numberOfBytes": "32",
        "value": "t_struct(Validator)3819_storage"
      },
      "t_mapping(t_bytes32,t_array(t_address)dyn_storage)": {
        "encoding": "mapping",
        "key": "t_bytes32",
        "label": "mapping(bytes32 => address[])",
        "numberOfBytes": "32",
        "value": "t_array(t_address)dyn_storage"
      },
      "t_struct(Validator)3819_storage": {
        "encoding": "inplace",
        "label": "struct ValidatorStaking.Validator",
        "members": [
          {
            "astId": 3816,
            "contract": "ValidatorStaking_1751751092127.sol:ValidatorStaking",
            "label": "staked",
            "offset": 0,
            "slot": "0",
            "type": "t_uint256"
          },
          {
            "astId": 3818,
            "contract": "ValidatorStaking_1751751092127.sol:ValidatorStaking",
            "label": "active",
            "offset": 0,
            "slot": "1",
            "type": "t_bool"
          }
        ],
        "numberOfBytes": "64"
      },
      "t_uint256": {
        "encoding": "inplace",
        "label": "uint256",
        "numberOfBytes": "32"
      }
    }
  },
  "userdoc": {
    "kind": "user",
    "methods": {},
    "version": 1
  }
}