{
  "abi": [
    {
      "inputs": [],
      "stateMutability": "nonpayable",
      "type": "constructor"
    },
    {
      "anonymous": false,
      "inputs": [
        {
          "indexed": false,
          "internalType": "uint256",
          "name": "amount",
          "type": "uint256"
        }
      ],
      "name": "FeesDistributedETH",
      "type": "event"
    },
    {
      "anonymous": false,
      "inputs": [
        {
          "indexed": false,
          "internalType": "address",
          "name": "token",
          "type": "address"
        },
        {
          "indexed": false,
          "internalType": "uint256",
          "name": "amount",
          "type": "uint256"
        }
      ],
      "name": "FeesDistributedToken",
      "type": "event"
    },
    {
      "inputs": [],
      "name": "BPS",
      "outputs": [
        {
          "internalType": "uint256",
          "name": "",
          "type": "uint256"
        }
      ],
      "stateMutability": "view",
      "type": "function"
    },
    {
      "inputs": [
        {
          "internalType": "uint256",
          "name": "amount",
          "type": "uint256"
        }
      ],
      "name": "distributeETHManually",
      "outputs": [],
      "stateMutability": "nonpayable",
      "type": "function"
    },
    {
      "inputs": [
        {
          "internalType": "contract IERC20",
          "name": "token",
          "type": "address"
        },
        {
          "internalType": "uint256",
          "name": "amount",
          "type": "uint256"
        }
      ],
      "name": "distributeTokenManually",
      "outputs": [],
      "stateMutability": "nonpayable",
      "type": "function"
    },
    {
      "inputs": [],
      "name": "marketingWallet",
      "outputs": [
        {
          "internalType": "address",
          "name": "",
          "type": "address"
        }
      ],
      "stateMutability": "view",
      "type": "function"
    },
    {
      "inputs": [],
      "name": "owner",
      "outputs": [
        {
          "internalType": "address",
          "name": "",
          "type": "address"
        }
      ],
      "stateMutability": "view",
      "type": "function"
    },
    {
      "inputs": [],
      "name": "rndWallet",
      "outputs": [
        {
          "internalType": "address",
          "name": "",
          "type": "address"
        }
      ],
      "stateMutability": "view",
      "type": "function"
    },
    {
      "inputs": [],
      "name": "teamWallet",
      "outputs": [
        {
          "internalType": "address",
          "name": "",
          "type": "address"
        }
      ],
      "stateMutability": "view",
      "type": "function"
    },
    {
      "inputs": [],
      "name": "treasuryWallet",
      "outputs": [
        {
          "internalType": "address",
          "name": "",
          "type": "address"
        }
      ],
      "stateMutability": "view",
      "type": "function"
    },
    {
      "inputs": [
        {
          "internalType": "address",
          "name": "_validator",
          "type": "address"
        },
        {
          "internalType": "address",
          "name": "_team",
          "type": "address"
        },
        {
          "internalType": "address",
          "name": "_treasury",
          "type": "address"
        },
        {
          "internalType": "address",
          "name": "_marketing",
          "type": "address"
        },
        {
          "internalType": "address",
          "name": "_rnd",
          "type": "address"
        }
      ],
      "name": "updateRecipients",
      "outputs": [],
      "stateMutability": "nonpayable",
      "type": "function"
    },
    {
      "inputs": [],
      "name": "validatorPool",
      "outputs": [
        {
          "internalType": "address",
          "name": "",
          "type": "address"
        }
      ],
      "stateMutability": "view",
      "type": "function"
    },
    {
      "stateMutability": "payable",
      "type": "receive"
    }
  ],
  "devdoc": {
    "kind": "dev",
    "methods": {},
    "version": 1
  },
  "evm": {
    "assembly": "    /* \"FeeDistributor_1751751092126.sol\":243:2912  contract FeeDistributor {... */\n  mstore(0x40, 0x80)\n    /* \"FeeDistributor_1751751092126.sol\":303:376  address public validatorPool = 0x535f7b11e4F9B77d8ef04A564e09E0B4feE75fb3 */\n  0x01\n  dup1\n  sload\n    /* \"FeeDistributor_1751751092126.sol\":334:376  0x535f7b11e4F9B77d8ef04A564e09E0B4feE75fb3 */\n  0x535f7b11e4f9b77d8ef04a564e09e0b4fee75fb3\n  not(sub(shl(0xa0, 0x01), 0x01))\n    /* \"FeeDistributor_1751751092126.sol\":303:376  address public validatorPool = 0x535f7b11e4F9B77d8ef04A564e09E0B4feE75fb3 */\n  swap2\n  dup3\n  and\n  dup2\n  or\n  swap1\n  swap3\n  sstore\n    /* \"FeeDistributor_1751751092126.sol\":383:453  address public teamWallet = 0x535f7b11e4F9B77d8ef04A564e09E0B4feE75fb3 */\n  0x02\n  dup1\n  sload\n  dup3\n  and\n  dup4\n  or\n  swap1\n  sstore\n    /* \"FeeDistributor_1751751092126.sol\":460:534  address public treasuryWallet = 0x535f7b11e4F9B77d8ef04A564e09E0B4feE75fb3 */\n  0x03\n  dup1\n  sload\n  dup3\n  and\n  dup4\n  or\n  swap1\n  sstore\n    /* \"FeeDistributor_1751751092126.sol\":541:616  address public marketingWallet = 0x535f7b11e4F9B77d8ef04A564e09E0B4feE75fb3 */\n  0x04\n  dup1\n  sload\n  dup3\n  and\n  dup4\n  or\n  swap1\n  sstore\n    /* \"FeeDistributor_1751751092126.sol\":623:692  address public rndWallet = 0x535f7b11e4F9B77d8ef04A564e09E0B4feE75fb3 */\n  0x05\n  dup1\n  sload\n  swap1\n  swap2\n  and\n  swap1\n  swap2\n  or\n  swap1\n  sstore\n    /* \"FeeDistributor_1751751092126.sol\":964:1015  constructor() {... */\n  callvalue\n  dup1\n  iszero\n  tag_1\n  jumpi\n  0x00\n  dup1\n  revert\ntag_1:\n  pop\n    /* \"FeeDistributor_1751751092126.sol\":989:994  owner */\n  0x00\n    /* \"FeeDistributor_1751751092126.sol\":989:1007  owner = msg.sender */\n  dup1\n  sload\n  not(sub(shl(0xa0, 0x01), 0x01))\n  and\n    /* \"FeeDistributor_1751751092126.sol\":997:1007  msg.sender */\n  caller\n    /* \"FeeDistributor_1751751092126.sol\":989:1007  owner = msg.sender */\n  or\n  swap1\n  sstore\n    /* \"FeeDistributor_1751751092126.sol\":243:2912  contract FeeDistributor {... */\n  dataSize(sub_0)\n  dup1\n  dataOffset(sub_0)\n  0x00\n  codecopy\n  0x00\n  return\nstop\n\nsub_0: assembly {\n        /* \"FeeDistributor_1751751092126.sol\":243:2912  contract FeeDistributor {... */\n      mstore(0x40, 0x80)\n      jumpi(tag_1, lt(calldatasize, 0x04))\n      shr(0xe0, calldataload(0x00))\n      dup1\n      0x75f0a874\n      gt\n      tag_13\n      jumpi\n      dup1\n      0xd4c6d1de\n      gt\n      tag_14\n      jumpi\n      dup1\n      0xd4c6d1de\n      eq\n      tag_10\n      jumpi\n      dup1\n      0xdb5b4d91\n      eq\n      tag_11\n      jumpi\n      dup1\n      0xe8490706\n      eq\n      tag_12\n      jumpi\n      0x00\n      dup1\n      revert\n    tag_14:\n      dup1\n      0x75f0a874\n      eq\n      tag_8\n      jumpi\n      dup1\n      0x8da5cb5b\n      eq\n      tag_9\n      jumpi\n      0x00\n      dup1\n      revert\n    tag_13:\n      dup1\n      0x4626402b\n      gt\n      tag_15\n      jumpi\n      dup1\n      0x4626402b\n      eq\n      tag_5\n      jumpi\n      dup1\n      0x59927044\n      eq\n      tag_6\n      jumpi\n      dup1\n      0x63a8a551\n      eq\n      tag_7\n      jumpi\n      0x00\n      dup1\n      revert\n    tag_15:\n      dup1\n      0x249d39e9\n      eq\n      tag_3\n      jumpi\n      dup1\n      0x3f0c4125\n      eq\n      tag_4\n      jumpi\n      0x00\n      dup1\n      revert\n    tag_1:\n      jumpi(tag_2, calldatasize)\n      stop\n    tag_2:\n      0x00\n      dup1\n      revert\n        /* \"FeeDistributor_1751751092126.sol\":701:736  uint256 public constant BPS = 10000 */\n    tag_3:\n      callvalue\n      dup1\n      iszero\n      tag_18\n      jumpi\n      0x00\n      dup1\n      revert\n    tag_18:\n      pop\n      tag_19\n        /* \"FeeDistributor_1751751092126.sol\":731:736  10000 */\n      0x2710\n        /* \"FeeDistributor_1751751092126.sol\":701:736  uint256 public constant BPS = 10000 */\n      dup2\n      jump\n    tag_19:\n      mload(0x40)\n        /* \"#utility.yul\":160:185   */\n      swap1\n      dup2\n      mstore\n        /* \"#utility.yul\":148:150   */\n      0x20\n        /* \"#utility.yul\":133:151   */\n      add\n        /* \"FeeDistributor_1751751092126.sol\":701:736  uint256 public constant BPS = 10000 */\n    tag_21:\n      mload(0x40)\n      dup1\n      swap2\n      sub\n      swap1\n      return\n        /* \"FeeDistributor_1751751092126.sol\":623:692  address public rndWallet = 0x535f7b11e4F9B77d8ef04A564e09E0B4feE75fb3 */\n    tag_4:\n      callvalue\n      dup1\n      iszero\n      tag_23\n      jumpi\n      0x00\n      dup1\n      revert\n    tag_23:\n      pop\n      sload(0x05)\n      tag_24\n      swap1\n      sub(shl(0xa0, 0x01), 0x01)\n      and\n      dup2\n      jump\n    tag_24:\n      mload(0x40)\n      sub(shl(0xa0, 0x01), 0x01)\n        /* \"#utility.yul\":360:415   */\n      swap1\n      swap2\n      and\n        /* \"#utility.yul\":342:416   */\n      dup2\n      mstore\n        /* \"#utility.yul\":330:332   */\n      0x20\n        /* \"#utility.yul\":315:333   */\n      add\n        /* \"FeeDistributor_1751751092126.sol\":623:692  address public rndWallet = 0x535f7b11e4F9B77d8ef04A564e09E0B4feE75fb3 */\n      tag_21\n        /* \"#utility.yul\":196:422   */\n      jump\n        /* \"FeeDistributor_1751751092126.sol\":460:534  address public treasuryWallet = 0x535f7b11e4F9B77d8ef04A564e09E0B4feE75fb3 */\n    tag_5:\n      callvalue\n      dup1\n      iszero\n      tag_28\n      jumpi\n      0x00\n      dup1\n      revert\n    tag_28:\n      pop\n      sload(0x03)\n      tag_24\n      swap1\n      sub(shl(0xa0, 0x01), 0x01)\n      and\n      dup2\n      jump\n        /* \"FeeDistributor_1751751092126.sol\":383:453  address public teamWallet = 0x535f7b11e4F9B77d8ef04A564e09E0B4feE75fb3 */\n    tag_6:\n      callvalue\n      dup1\n      iszero\n      tag_32\n      jumpi\n      0x00\n      dup1\n      revert\n    tag_32:\n      pop\n      sload(0x02)\n      tag_24\n      swap1\n      sub(shl(0xa0, 0x01), 0x01)\n      and\n      dup2\n      jump\n        /* \"FeeDistributor_1751751092126.sol\":1853:2452  function distributeTokenManually(IERC20 token, uint256 amount) external onlyOwner {... */\n    tag_7:\n      callvalue\n      dup1\n      iszero\n      tag_36\n      jumpi\n      0x00\n      dup1\n      revert\n    tag_36:\n      pop\n      tag_37\n      tag_38\n      calldatasize\n      0x04\n      tag_39\n      jump\t// in\n    tag_38:\n      tag_40\n      jump\t// in\n    tag_37:\n      stop\n        /* \"FeeDistributor_1751751092126.sol\":541:616  address public marketingWallet = 0x535f7b11e4F9B77d8ef04A564e09E0B4feE75fb3 */\n    tag_8:\n      callvalue\n      dup1\n      iszero\n      tag_41\n      jumpi\n      0x00\n      dup1\n      revert\n    tag_41:\n      pop\n      sload(0x04)\n      tag_24\n      swap1\n      sub(shl(0xa0, 0x01), 0x01)\n      and\n      dup2\n      jump\n        /* \"FeeDistributor_1751751092126.sol\":274:294  address public owner */\n    tag_9:\n      callvalue\n      dup1\n      iszero\n      tag_45\n      jumpi\n      0x00\n      dup1\n      revert\n    tag_45:\n      pop\n      sload(0x00)\n      tag_24\n      swap1\n      sub(shl(0xa0, 0x01), 0x01)\n      and\n      dup2\n      jump\n        /* \"FeeDistributor_1751751092126.sol\":303:376  address public validatorPool = 0x535f7b11e4F9B77d8ef04A564e09E0B4feE75fb3 */\n    tag_10:\n      callvalue\n      dup1\n      iszero\n      tag_49\n      jumpi\n      0x00\n      dup1\n      revert\n    tag_49:\n      pop\n      sload(0x01)\n      tag_24\n      swap1\n      sub(shl(0xa0, 0x01), 0x01)\n      and\n      dup2\n      jump\n        /* \"FeeDistributor_1751751092126.sol\":2460:2822  function updateRecipients(... */\n    tag_11:\n      callvalue\n      dup1\n      iszero\n      tag_53\n      jumpi\n      0x00\n      dup1\n      revert\n    tag_53:\n      pop\n      tag_37\n      tag_55\n      calldatasize\n      0x04\n      tag_56\n      jump\t// in\n    tag_55:\n      tag_57\n      jump\t// in\n        /* \"FeeDistributor_1751751092126.sol\":1023:1845  function distributeETHManually(uint256 amount) external onlyOwner {... */\n    tag_12:\n      callvalue\n      dup1\n      iszero\n      tag_58\n      jumpi\n      0x00\n      dup1\n      revert\n    tag_58:\n      pop\n      tag_37\n      tag_60\n      calldatasize\n      0x04\n      tag_61\n      jump\t// in\n    tag_60:\n      tag_62\n      jump\t// in\n        /* \"FeeDistributor_1751751092126.sol\":1853:2452  function distributeTokenManually(IERC20 token, uint256 amount) external onlyOwner {... */\n    tag_40:\n        /* \"FeeDistributor_1751751092126.sol\":912:917  owner */\n      and(sub(shl(0xa0, 0x01), 0x01), sload(0x00))\n        /* \"FeeDistributor_1751751092126.sol\":898:908  msg.sender */\n      caller\n        /* \"FeeDistributor_1751751092126.sol\":898:917  msg.sender == owner */\n      eq\n        /* \"FeeDistributor_1751751092126.sol\":890:936  require(msg.sender == owner, \"Not authorized\") */\n      tag_64\n      jumpi\n      mload(0x40)\n      shl(0xe5, 0x461bcd)\n      dup2\n      mstore\n        /* \"#utility.yul\":2182:2184   */\n      0x20\n        /* \"FeeDistributor_1751751092126.sol\":890:936  require(msg.sender == owner, \"Not authorized\") */\n      0x04\n      dup3\n      add\n        /* \"#utility.yul\":2164:2185   */\n      mstore\n        /* \"#utility.yul\":2221:2223   */\n      0x0e\n        /* \"#utility.yul\":2201:2219   */\n      0x24\n      dup3\n      add\n        /* \"#utility.yul\":2194:2224   */\n      mstore\n      shl(0x92, 0x139bdd08185d5d1a1bdc9a5e9959)\n        /* \"#utility.yul\":2240:2258   */\n      0x44\n      dup3\n      add\n        /* \"#utility.yul\":2233:2277   */\n      mstore\n        /* \"#utility.yul\":2294:2312   */\n      0x64\n      add\n        /* \"FeeDistributor_1751751092126.sol\":890:936  require(msg.sender == owner, \"Not authorized\") */\n    tag_65:\n      mload(0x40)\n      dup1\n      swap2\n      sub\n      swap1\n      revert\n    tag_64:\n        /* \"FeeDistributor_1751751092126.sol\":1954:1984  token.balanceOf(address(this)) */\n      mload(0x40)\n      shl(0xe0, 0x70a08231)\n      dup2\n      mstore\n        /* \"FeeDistributor_1751751092126.sol\":1978:1982  this */\n      address\n        /* \"FeeDistributor_1751751092126.sol\":1954:1984  token.balanceOf(address(this)) */\n      0x04\n      dup3\n      add\n        /* \"#utility.yul\":342:416   */\n      mstore\n        /* \"FeeDistributor_1751751092126.sol\":1988:1994  amount */\n      dup2\n      swap1\n      sub(shl(0xa0, 0x01), 0x01)\n        /* \"FeeDistributor_1751751092126.sol\":1954:1969  token.balanceOf */\n      dup5\n      and\n      swap1\n      0x70a08231\n      swap1\n        /* \"#utility.yul\":315:333   */\n      0x24\n      add\n        /* \"FeeDistributor_1751751092126.sol\":1954:1984  token.balanceOf(address(this)) */\n      0x20\n      mload(0x40)\n      dup1\n      dup4\n      sub\n      dup2\n      dup7\n      gas\n      staticcall\n      iszero\n      dup1\n      iszero\n      tag_70\n      jumpi\n      returndatasize\n      0x00\n      dup1\n      returndatacopy\n      revert(0x00, returndatasize)\n    tag_70:\n      pop\n      pop\n      pop\n      pop\n      mload(0x40)\n      returndatasize\n      not(0x1f)\n      0x1f\n      dup3\n      add\n      and\n      dup3\n      add\n      dup1\n      0x40\n      mstore\n      pop\n      dup2\n      add\n      swap1\n      tag_71\n      swap2\n      swap1\n      tag_72\n      jump\t// in\n    tag_71:\n        /* \"FeeDistributor_1751751092126.sol\":1954:1994  token.balanceOf(address(this)) >= amount */\n      lt\n      iszero\n        /* \"FeeDistributor_1751751092126.sol\":1946:2025  require(token.balanceOf(address(this)) >= amount, \"Insufficient token balance\") */\n      tag_73\n      jumpi\n      mload(0x40)\n      shl(0xe5, 0x461bcd)\n      dup2\n      mstore\n        /* \"#utility.yul\":2714:2716   */\n      0x20\n        /* \"FeeDistributor_1751751092126.sol\":1946:2025  require(token.balanceOf(address(this)) >= amount, \"Insufficient token balance\") */\n      0x04\n      dup3\n      add\n        /* \"#utility.yul\":2696:2717   */\n      mstore\n        /* \"#utility.yul\":2753:2755   */\n      0x1a\n        /* \"#utility.yul\":2733:2751   */\n      0x24\n      dup3\n      add\n        /* \"#utility.yul\":2726:2756   */\n      mstore\n        /* \"#utility.yul\":2792:2820   */\n      0x496e73756666696369656e7420746f6b656e2062616c616e6365000000000000\n        /* \"#utility.yul\":2772:2790   */\n      0x44\n      dup3\n      add\n        /* \"#utility.yul\":2765:2821   */\n      mstore\n        /* \"#utility.yul\":2838:2856   */\n      0x64\n      add\n        /* \"FeeDistributor_1751751092126.sol\":1946:2025  require(token.balanceOf(address(this)) >= amount, \"Insufficient token balance\") */\n      tag_65\n        /* \"#utility.yul\":2512:2862   */\n      jump\n        /* \"FeeDistributor_1751751092126.sol\":1946:2025  require(token.balanceOf(address(this)) >= amount, \"Insufficient token balance\") */\n    tag_73:\n        /* \"FeeDistributor_1751751092126.sol\":2061:2074  validatorPool */\n      sload(0x01)\n      sub(shl(0xa0, 0x01), 0x01)\n        /* \"FeeDistributor_1751751092126.sol\":2046:2060  token.transfer */\n      dup1\n      dup5\n      and\n      swap2\n      0xa9059cbb\n      swap2\n        /* \"FeeDistributor_1751751092126.sol\":2061:2074  validatorPool */\n      and\n        /* \"FeeDistributor_1751751092126.sol\":731:736  10000 */\n      0x2710\n        /* \"FeeDistributor_1751751092126.sol\":2077:2090  amount * 4000 */\n      tag_76\n        /* \"FeeDistributor_1751751092126.sol\":2077:2083  amount */\n      dup6\n        /* \"FeeDistributor_1751751092126.sol\":2086:2090  4000 */\n      0x0fa0\n        /* \"FeeDistributor_1751751092126.sol\":2077:2090  amount * 4000 */\n      tag_77\n      jump\t// in\n    tag_76:\n        /* \"FeeDistributor_1751751092126.sol\":2076:2097  (amount * 4000) / BPS */\n      tag_78\n      swap2\n      swap1\n      tag_79\n      jump\t// in\n    tag_78:\n        /* \"FeeDistributor_1751751092126.sol\":2046:2098  token.transfer(validatorPool, (amount * 4000) / BPS) */\n      mload(0x40)\n      not(sub(shl(0xe0, 0x01), 0x01))\n      0xe0\n      dup6\n      swap1\n      shl\n      and\n      dup2\n      mstore\n      sub(shl(0xa0, 0x01), 0x01)\n        /* \"#utility.yul\":3551:3606   */\n      swap1\n      swap3\n      and\n        /* \"FeeDistributor_1751751092126.sol\":2046:2098  token.transfer(validatorPool, (amount * 4000) / BPS) */\n      0x04\n      dup4\n      add\n        /* \"#utility.yul\":3533:3607   */\n      mstore\n        /* \"#utility.yul\":3623:3641   */\n      0x24\n      dup3\n      add\n        /* \"#utility.yul\":3616:3650   */\n      mstore\n        /* \"#utility.yul\":3506:3524   */\n      0x44\n      add\n        /* \"FeeDistributor_1751751092126.sol\":2046:2098  token.transfer(validatorPool, (amount * 4000) / BPS) */\n      0x20\n      mload(0x40)\n      dup1\n      dup4\n      sub\n      dup2\n      0x00\n      dup8\n      gas\n      call\n      iszero\n      dup1\n      iszero\n      tag_83\n      jumpi\n      returndatasize\n      0x00\n      dup1\n      returndatacopy\n      revert(0x00, returndatasize)\n    tag_83:\n      pop\n      pop\n      pop\n      pop\n      mload(0x40)\n      returndatasize\n      not(0x1f)\n      0x1f\n      dup3\n      add\n      and\n      dup3\n      add\n      dup1\n      0x40\n      mstore\n      pop\n      dup2\n      add\n      swap1\n      tag_84\n      swap2\n      swap1\n      tag_85\n      jump\t// in\n    tag_84:\n        /* \"FeeDistributor_1751751092126.sol\":2038:2099  require(token.transfer(validatorPool, (amount * 4000) / BPS)) */\n      tag_86\n      jumpi\n      0x00\n      dup1\n      revert\n    tag_86:\n        /* \"FeeDistributor_1751751092126.sol\":2133:2143  teamWallet */\n      sload(0x02)\n      sub(shl(0xa0, 0x01), 0x01)\n        /* \"FeeDistributor_1751751092126.sol\":2118:2132  token.transfer */\n      dup1\n      dup5\n      and\n      swap2\n      0xa9059cbb\n      swap2\n        /* \"FeeDistributor_1751751092126.sol\":2133:2143  teamWallet */\n      and\n        /* \"FeeDistributor_1751751092126.sol\":731:736  10000 */\n      0x2710\n        /* \"FeeDistributor_1751751092126.sol\":2146:2159  amount * 2500 */\n      tag_87\n        /* \"FeeDistributor_1751751092126.sol\":2146:2152  amount */\n      dup6\n        /* \"FeeDistributor_1751751092126.sol\":2155:2159  2500 */\n      0x09c4\n        /* \"FeeDistributor_1751751092126.sol\":2146:2159  amount * 2500 */\n      tag_77\n      jump\t// in\n    tag_87:\n        /* \"FeeDistributor_1751751092126.sol\":2145:2166  (amount * 2500) / BPS */\n      tag_88\n      swap2\n      swap1\n      tag_79\n      jump\t// in\n    tag_88:\n        /* \"FeeDistributor_1751751092126.sol\":2118:2167  token.transfer(teamWallet, (amount * 2500) / BPS) */\n      mload(0x40)\n      not(sub(shl(0xe0, 0x01), 0x01))\n      0xe0\n      dup6\n      swap1\n      shl\n      and\n      dup2\n      mstore\n      sub(shl(0xa0, 0x01), 0x01)\n        /* \"#utility.yul\":3551:3606   */\n      swap1\n      swap3\n      and\n        /* \"FeeDistributor_1751751092126.sol\":2118:2167  token.transfer(teamWallet, (amount * 2500) / BPS) */\n      0x04\n      dup4\n      add\n        /* \"#utility.yul\":3533:3607   */\n      mstore\n        /* \"#utility.yul\":3623:3641   */\n      0x24\n      dup3\n      add\n        /* \"#utility.yul\":3616:3650   */\n      mstore\n        /* \"#utility.yul\":3506:3524   */\n      0x44\n      add\n        /* \"FeeDistributor_1751751092126.sol\":2118:2167  token.transfer(teamWallet, (amount * 2500) / BPS) */\n      0x20\n      mload(0x40)\n      dup1\n      dup4\n      sub\n      dup2\n      0x00\n      dup8\n      gas\n      call\n      iszero\n      dup1\n      iszero\n      tag_91\n      jumpi\n      returndatasize\n      0x00\n      dup1\n      returndatacopy\n      revert(0x00, returndatasize)\n    tag_91:\n      pop\n      pop\n      pop\n      pop\n      mload(0x40)\n      returndatasize\n      not(0x1f)\n      0x1f\n      dup3\n      add\n      and\n      dup3\n      add\n      dup1\n      0x40\n      mstore\n      pop\n      dup2\n      add\n      swap1\n      tag_92\n      swap2\n      swap1\n      tag_85\n      jump\t// in\n    tag_92:\n        /* \"FeeDistributor_1751751092126.sol\":2110:2168  require(token.transfer(teamWallet, (amount * 2500) / BPS)) */\n      tag_93\n      jumpi\n      0x00\n      dup1\n      revert\n    tag_93:\n        /* \"FeeDistributor_1751751092126.sol\":2202:2216  treasuryWallet */\n      sload(0x03)\n      sub(shl(0xa0, 0x01), 0x01)\n        /* \"FeeDistributor_1751751092126.sol\":2187:2201  token.transfer */\n      dup1\n      dup5\n      and\n      swap2\n      0xa9059cbb\n      swap2\n        /* \"FeeDistributor_1751751092126.sol\":2202:2216  treasuryWallet */\n      and\n        /* \"FeeDistributor_1751751092126.sol\":731:736  10000 */\n      0x2710\n        /* \"FeeDistributor_1751751092126.sol\":2219:2232  amount * 2000 */\n      tag_94\n        /* \"FeeDistributor_1751751092126.sol\":2219:2225  amount */\n      dup6\n        /* \"FeeDistributor_1751751092126.sol\":2228:2232  2000 */\n      0x07d0\n        /* \"FeeDistributor_1751751092126.sol\":2219:2232  amount * 2000 */\n      tag_77\n      jump\t// in\n    tag_94:\n        /* \"FeeDistributor_1751751092126.sol\":2218:2239  (amount * 2000) / BPS */\n      tag_95\n      swap2\n      swap1\n      tag_79\n      jump\t// in\n    tag_95:\n        /* \"FeeDistributor_1751751092126.sol\":2187:2240  token.transfer(treasuryWallet, (amount * 2000) / BPS) */\n      mload(0x40)\n      not(sub(shl(0xe0, 0x01), 0x01))\n      0xe0\n      dup6\n      swap1\n      shl\n      and\n      dup2\n      mstore\n      sub(shl(0xa0, 0x01), 0x01)\n        /* \"#utility.yul\":3551:3606   */\n      swap1\n      swap3\n      and\n        /* \"FeeDistributor_1751751092126.sol\":2187:2240  token.transfer(treasuryWallet, (amount * 2000) / BPS) */\n      0x04\n      dup4\n      add\n        /* \"#utility.yul\":3533:3607   */\n      mstore\n        /* \"#utility.yul\":3623:3641   */\n      0x24\n      dup3\n      add\n        /* \"#utility.yul\":3616:3650   */\n      mstore\n        /* \"#utility.yul\":3506:3524   */\n      0x44\n      add\n        /* \"FeeDistributor_1751751092126.sol\":2187:2240  token.transfer(treasuryWallet, (amount * 2000) / BPS) */\n      0x20\n      mload(0x40)\n      dup1\n      dup4\n      sub\n      dup2\n      0x00\n      dup8\n      gas\n      call\n      iszero\n      dup1\n      iszero\n      tag_98\n      jumpi\n      returndatasize\n      0x00\n      dup1\n      returndatacopy\n      revert(0x00, returndatasize)\n    tag_98:\n      pop\n      pop\n      pop\n      pop\n      mload(0x40)\n      returndatasize\n      not(0x1f)\n      0x1f\n      dup3\n      add\n      and\n      dup3\n      add\n      dup1\n      0x40\n      mstore\n      pop\n      dup2\n      add\n      swap1\n      tag_99\n      swap2\n      swap1\n      tag_85\n      jump\t// in\n    tag_99:\n        /* \"FeeDistributor_1751751092126.sol\":2179:2241  require(token.transfer(treasuryWallet, (amount * 2000) / BPS)) */\n      tag_100\n      jumpi\n      0x00\n      dup1\n      revert\n    tag_100:\n        /* \"FeeDistributor_1751751092126.sol\":2275:2290  marketingWallet */\n      sload(0x04)\n      sub(shl(0xa0, 0x01), 0x01)\n        /* \"FeeDistributor_1751751092126.sol\":2260:2274  token.transfer */\n      dup1\n      dup5\n      and\n      swap2\n      0xa9059cbb\n      swap2\n        /* \"FeeDistributor_1751751092126.sol\":2275:2290  marketingWallet */\n      and\n        /* \"FeeDistributor_1751751092126.sol\":731:736  10000 */\n      0x2710\n        /* \"FeeDistributor_1751751092126.sol\":2293:2306  amount * 1000 */\n      tag_101\n        /* \"FeeDistributor_1751751092126.sol\":2293:2299  amount */\n      dup6\n        /* \"FeeDistributor_1751751092126.sol\":2302:2306  1000 */\n      0x03e8\n        /* \"FeeDistributor_1751751092126.sol\":2293:2306  amount * 1000 */\n      tag_77\n      jump\t// in\n    tag_101:\n        /* \"FeeDistributor_1751751092126.sol\":2292:2313  (amount * 1000) / BPS */\n      tag_102\n      swap2\n      swap1\n      tag_79\n      jump\t// in\n    tag_102:\n        /* \"FeeDistributor_1751751092126.sol\":2260:2314  token.transfer(marketingWallet, (amount * 1000) / BPS) */\n      mload(0x40)\n      not(sub(shl(0xe0, 0x01), 0x01))\n      0xe0\n      dup6\n      swap1\n      shl\n      and\n      dup2\n      mstore\n      sub(shl(0xa0, 0x01), 0x01)\n        /* \"#utility.yul\":3551:3606   */\n      swap1\n      swap3\n      and\n        /* \"FeeDistributor_1751751092126.sol\":2260:2314  token.transfer(marketingWallet, (amount * 1000) / BPS) */\n      0x04\n      dup4\n      add\n        /* \"#utility.yul\":3533:3607   */\n      mstore\n        /* \"#utility.yul\":3623:3641   */\n      0x24\n      dup3\n      add\n        /* \"#utility.yul\":3616:3650   */\n      mstore\n        /* \"#utility.yul\":3506:3524   */\n      0x44\n      add\n        /* \"FeeDistributor_1751751092126.sol\":2260:2314  token.transfer(marketingWallet, (amount * 1000) / BPS) */\n      0x20\n      mload(0x40)\n      dup1\n      dup4\n      sub\n      dup2\n      0x00\n      dup8\n      gas\n      call\n      iszero\n      dup1\n      iszero\n      tag_105\n      jumpi\n      returndatasize\n      0x00\n      dup1\n      returndatacopy\n      revert(0x00, returndatasize)\n    tag_105:\n      pop\n      pop\n      pop\n      pop\n      mload(0x40)\n      returndatasize\n      not(0x1f)\n      0x1f\n      dup3\n      add\n      and\n      dup3\n      add\n      dup1\n      0x40\n      mstore\n      pop\n      dup2\n      add\n      swap1\n      tag_106\n      swap2\n      swap1\n      tag_85\n      jump\t// in\n    tag_106:\n        /* \"FeeDistributor_1751751092126.sol\":2252:2315  require(token.transfer(marketingWallet, (amount * 1000) / BPS)) */\n      tag_107\n      jumpi\n      0x00\n      dup1\n      revert\n    tag_107:\n        /* \"FeeDistributor_1751751092126.sol\":2349:2358  rndWallet */\n      sload(0x05)\n      sub(shl(0xa0, 0x01), 0x01)\n        /* \"FeeDistributor_1751751092126.sol\":2334:2348  token.transfer */\n      dup1\n      dup5\n      and\n      swap2\n      0xa9059cbb\n      swap2\n        /* \"FeeDistributor_1751751092126.sol\":2349:2358  rndWallet */\n      and\n        /* \"FeeDistributor_1751751092126.sol\":731:736  10000 */\n      0x2710\n        /* \"FeeDistributor_1751751092126.sol\":2361:2373  amount * 500 */\n      tag_108\n        /* \"FeeDistributor_1751751092126.sol\":2361:2367  amount */\n      dup6\n        /* \"FeeDistributor_1751751092126.sol\":2370:2373  500 */\n      0x01f4\n        /* \"FeeDistributor_1751751092126.sol\":2361:2373  amount * 500 */\n      tag_77\n      jump\t// in\n    tag_108:\n        /* \"FeeDistributor_1751751092126.sol\":2360:2380  (amount * 500) / BPS */\n      tag_109\n      swap2\n      swap1\n      tag_79\n      jump\t// in\n    tag_109:\n        /* \"FeeDistributor_1751751092126.sol\":2334:2381  token.transfer(rndWallet, (amount * 500) / BPS) */\n      mload(0x40)\n      not(sub(shl(0xe0, 0x01), 0x01))\n      0xe0\n      dup6\n      swap1\n      shl\n      and\n      dup2\n      mstore\n      sub(shl(0xa0, 0x01), 0x01)\n        /* \"#utility.yul\":3551:3606   */\n      swap1\n      swap3\n      and\n        /* \"FeeDistributor_1751751092126.sol\":2334:2381  token.transfer(rndWallet, (amount * 500) / BPS) */\n      0x04\n      dup4\n      add\n        /* \"#utility.yul\":3533:3607   */\n      mstore\n        /* \"#utility.yul\":3623:3641   */\n      0x24\n      dup3\n      add\n        /* \"#utility.yul\":3616:3650   */\n      mstore\n        /* \"#utility.yul\":3506:3524   */\n      0x44\n      add\n        /* \"FeeDistributor_1751751092126.sol\":2334:2381  token.transfer(rndWallet, (amount * 500) / BPS) */\n      0x20\n      mload(0x40)\n      dup1\n      dup4\n      sub\n      dup2\n      0x00\n      dup8\n      gas\n      call\n      iszero\n      dup1\n      iszero\n      tag_112\n      jumpi\n      returndatasize\n      0x00\n      dup1\n      returndatacopy\n      revert(0x00, returndatasize)\n    tag_112:\n      pop\n      pop\n      pop\n      pop\n      mload(0x40)\n      returndatasize\n      not(0x1f)\n      0x1f\n      dup3\n      add\n      and\n      dup3\n      add\n      dup1\n      0x40\n      mstore\n      pop\n      dup2\n      add\n      swap1\n      tag_113\n      swap2\n      swap1\n      tag_85\n      jump\t// in\n    tag_113:\n        /* \"FeeDistributor_1751751092126.sol\":2326:2382  require(token.transfer(rndWallet, (amount * 500) / BPS)) */\n      tag_114\n      jumpi\n      0x00\n      dup1\n      revert\n    tag_114:\n        /* \"FeeDistributor_1751751092126.sol\":2400:2444  FeesDistributedToken(address(token), amount) */\n      0x40\n      dup1\n      mload\n      sub(shl(0xa0, 0x01), 0x01)\n        /* \"#utility.yul\":3551:3606   */\n      dup5\n      and\n        /* \"#utility.yul\":3533:3607   */\n      dup2\n      mstore\n        /* \"#utility.yul\":3638:3640   */\n      0x20\n        /* \"#utility.yul\":3623:3641   */\n      dup2\n      add\n        /* \"#utility.yul\":3616:3650   */\n      dup4\n      swap1\n      mstore\n        /* \"FeeDistributor_1751751092126.sol\":2400:2444  FeesDistributedToken(address(token), amount) */\n      0x72085d542cc91f8c84e3f39d5b6f0e85b079a416734ce2d5f4a498c846382977\n      swap2\n        /* \"#utility.yul\":3506:3524   */\n      add\n        /* \"FeeDistributor_1751751092126.sol\":2400:2444  FeesDistributedToken(address(token), amount) */\n      mload(0x40)\n      dup1\n      swap2\n      sub\n      swap1\n      log1\n        /* \"FeeDistributor_1751751092126.sol\":1853:2452  function distributeTokenManually(IERC20 token, uint256 amount) external onlyOwner {... */\n      pop\n      pop\n      jump\t// out\n        /* \"FeeDistributor_1751751092126.sol\":2460:2822  function updateRecipients(... */\n    tag_57:\n        /* \"FeeDistributor_1751751092126.sol\":912:917  owner */\n      and(sub(shl(0xa0, 0x01), 0x01), sload(0x00))\n        /* \"FeeDistributor_1751751092126.sol\":898:908  msg.sender */\n      caller\n        /* \"FeeDistributor_1751751092126.sol\":898:917  msg.sender == owner */\n      eq\n        /* \"FeeDistributor_1751751092126.sol\":890:936  require(msg.sender == owner, \"Not authorized\") */\n      tag_117\n      jumpi\n      mload(0x40)\n      shl(0xe5, 0x461bcd)\n      dup2\n      mstore\n        /* \"#utility.yul\":2182:2184   */\n      0x20\n        /* \"FeeDistributor_1751751092126.sol\":890:936  require(msg.sender == owner, \"Not authorized\") */\n      0x04\n      dup3\n      add\n        /* \"#utility.yul\":2164:2185   */\n      mstore\n        /* \"#utility.yul\":2221:2223   */\n      0x0e\n        /* \"#utility.yul\":2201:2219   */\n      0x24\n      dup3\n      add\n        /* \"#utility.yul\":2194:2224   */\n      mstore\n      shl(0x92, 0x139bdd08185d5d1a1bdc9a5e9959)\n        /* \"#utility.yul\":2240:2258   */\n      0x44\n      dup3\n      add\n        /* \"#utility.yul\":2233:2277   */\n      mstore\n        /* \"#utility.yul\":2294:2312   */\n      0x64\n      add\n        /* \"FeeDistributor_1751751092126.sol\":890:936  require(msg.sender == owner, \"Not authorized\") */\n      tag_65\n        /* \"#utility.yul\":1980:2318   */\n      jump\n        /* \"FeeDistributor_1751751092126.sol\":890:936  require(msg.sender == owner, \"Not authorized\") */\n    tag_117:\n        /* \"FeeDistributor_1751751092126.sol\":2656:2669  validatorPool */\n      0x01\n        /* \"FeeDistributor_1751751092126.sol\":2656:2682  validatorPool = _validator */\n      dup1\n      sload\n      0xffffffffffffffffffffffff0000000000000000000000000000000000000000\n      swap1\n      dup2\n      and\n      sub(shl(0xa0, 0x01), 0x01)\n      swap8\n      dup9\n      and\n      or\n      swap1\n      swap2\n      sstore\n        /* \"FeeDistributor_1751751092126.sol\":2693:2703  teamWallet */\n      0x02\n        /* \"FeeDistributor_1751751092126.sol\":2693:2711  teamWallet = _team */\n      dup1\n      sload\n      dup3\n      and\n      swap6\n      dup8\n      and\n      swap6\n      swap1\n      swap6\n      or\n      swap1\n      swap5\n      sstore\n        /* \"FeeDistributor_1751751092126.sol\":2722:2736  treasuryWallet */\n      0x03\n        /* \"FeeDistributor_1751751092126.sol\":2722:2748  treasuryWallet = _treasury */\n      dup1\n      sload\n      dup6\n      and\n      swap4\n      dup7\n      and\n      swap4\n      swap1\n      swap4\n      or\n      swap1\n      swap3\n      sstore\n        /* \"FeeDistributor_1751751092126.sol\":2759:2774  marketingWallet */\n      0x04\n        /* \"FeeDistributor_1751751092126.sol\":2759:2787  marketingWallet = _marketing */\n      dup1\n      sload\n      dup5\n      and\n      swap2\n      dup6\n      and\n      swap2\n      swap1\n      swap2\n      or\n      swap1\n      sstore\n        /* \"FeeDistributor_1751751092126.sol\":2798:2807  rndWallet */\n      0x05\n        /* \"FeeDistributor_1751751092126.sol\":2798:2814  rndWallet = _rnd */\n      dup1\n      sload\n      swap1\n      swap3\n      and\n      swap3\n      and\n      swap2\n      swap1\n      swap2\n      or\n      swap1\n      sstore\n        /* \"FeeDistributor_1751751092126.sol\":2460:2822  function updateRecipients(... */\n      jump\t// out\n        /* \"FeeDistributor_1751751092126.sol\":1023:1845  function distributeETHManually(uint256 amount) external onlyOwner {... */\n    tag_62:\n        /* \"FeeDistributor_1751751092126.sol\":912:917  owner */\n      and(sub(shl(0xa0, 0x01), 0x01), sload(0x00))\n        /* \"FeeDistributor_1751751092126.sol\":898:908  msg.sender */\n      caller\n        /* \"FeeDistributor_1751751092126.sol\":898:917  msg.sender == owner */\n      eq\n        /* \"FeeDistributor_1751751092126.sol\":890:936  require(msg.sender == owner, \"Not authorized\") */\n      tag_121\n      jumpi\n      mload(0x40)\n      shl(0xe5, 0x461bcd)\n      dup2\n      mstore\n        /* \"#utility.yul\":2182:2184   */\n      0x20\n        /* \"FeeDistributor_1751751092126.sol\":890:936  require(msg.sender == owner, \"Not authorized\") */\n      0x04\n      dup3\n      add\n        /* \"#utility.yul\":2164:2185   */\n      mstore\n        /* \"#utility.yul\":2221:2223   */\n      0x0e\n        /* \"#utility.yul\":2201:2219   */\n      0x24\n      dup3\n      add\n        /* \"#utility.yul\":2194:2224   */\n      mstore\n      shl(0x92, 0x139bdd08185d5d1a1bdc9a5e9959)\n        /* \"#utility.yul\":2240:2258   */\n      0x44\n      dup3\n      add\n        /* \"#utility.yul\":2233:2277   */\n      mstore\n        /* \"#utility.yul\":2294:2312   */\n      0x64\n      add\n        /* \"FeeDistributor_1751751092126.sol\":890:936  require(msg.sender == owner, \"Not authorized\") */\n      tag_65\n        /* \"#utility.yul\":1980:2318   */\n      jump\n        /* \"FeeDistributor_1751751092126.sol\":890:936  require(msg.sender == owner, \"Not authorized\") */\n    tag_121:\n        /* \"FeeDistributor_1751751092126.sol\":1133:1139  amount */\n      dup1\n        /* \"FeeDistributor_1751751092126.sol\":1108:1129  address(this).balance */\n      selfbalance\n        /* \"FeeDistributor_1751751092126.sol\":1108:1139  address(this).balance >= amount */\n      lt\n      iszero\n        /* \"FeeDistributor_1751751092126.sol\":1100:1160  require(address(this).balance >= amount, \"Insufficient ETH\") */\n      tag_124\n      jumpi\n      mload(0x40)\n      shl(0xe5, 0x461bcd)\n      dup2\n      mstore\n        /* \"#utility.yul\":4145:4147   */\n      0x20\n        /* \"FeeDistributor_1751751092126.sol\":1100:1160  require(address(this).balance >= amount, \"Insufficient ETH\") */\n      0x04\n      dup3\n      add\n        /* \"#utility.yul\":4127:4148   */\n      mstore\n        /* \"#utility.yul\":4184:4186   */\n      0x10\n        /* \"#utility.yul\":4164:4182   */\n      0x24\n      dup3\n      add\n        /* \"#utility.yul\":4157:4187   */\n      mstore\n        /* \"#utility.yul\":4223:4241   */\n      0x496e73756666696369656e742045544800000000000000000000000000000000\n        /* \"#utility.yul\":4203:4221   */\n      0x44\n      dup3\n      add\n        /* \"#utility.yul\":4196:4242   */\n      mstore\n        /* \"#utility.yul\":4259:4277   */\n      0x64\n      add\n        /* \"FeeDistributor_1751751092126.sol\":1100:1160  require(address(this).balance >= amount, \"Insufficient ETH\") */\n      tag_65\n        /* \"#utility.yul\":3943:4283   */\n      jump\n        /* \"FeeDistributor_1751751092126.sol\":1100:1160  require(address(this).balance >= amount, \"Insufficient ETH\") */\n    tag_124:\n        /* \"FeeDistributor_1751751092126.sol\":1208:1218  teamWallet */\n      sload(0x02)\n      0x01\n        /* \"FeeDistributor_1751751092126.sol\":1191:1204  validatorPool */\n      sload\n      sub(shl(0xa0, 0x01), 0x01)\n      swap1\n      dup2\n      and\n        /* \"FeeDistributor_1751751092126.sol\":1208:1218  teamWallet */\n      swap2\n      and\n        /* \"FeeDistributor_1751751092126.sol\":1191:1218  validatorPool == teamWallet */\n      eq\n        /* \"FeeDistributor_1751751092126.sol\":1191:1263  validatorPool == teamWallet &&... */\n      dup1\n      iszero\n      tag_127\n      jumpi\n      pop\n        /* \"FeeDistributor_1751751092126.sol\":1249:1263  treasuryWallet */\n      sload(0x03)\n        /* \"FeeDistributor_1751751092126.sol\":1235:1245  teamWallet */\n      sload(0x02)\n      sub(shl(0xa0, 0x01), 0x01)\n      swap1\n      dup2\n      and\n        /* \"FeeDistributor_1751751092126.sol\":1249:1263  treasuryWallet */\n      swap2\n      and\n        /* \"FeeDistributor_1751751092126.sol\":1235:1263  teamWallet == treasuryWallet */\n      eq\n        /* \"FeeDistributor_1751751092126.sol\":1191:1263  validatorPool == teamWallet &&... */\n    tag_127:\n        /* \"FeeDistributor_1751751092126.sol\":1191:1313  validatorPool == teamWallet &&... */\n      dup1\n      iszero\n      tag_128\n      jumpi\n      pop\n        /* \"FeeDistributor_1751751092126.sol\":1298:1313  marketingWallet */\n      sload(0x04)\n        /* \"FeeDistributor_1751751092126.sol\":1280:1294  treasuryWallet */\n      sload(0x03)\n      sub(shl(0xa0, 0x01), 0x01)\n      swap1\n      dup2\n      and\n        /* \"FeeDistributor_1751751092126.sol\":1298:1313  marketingWallet */\n      swap2\n      and\n        /* \"FeeDistributor_1751751092126.sol\":1280:1313  treasuryWallet == marketingWallet */\n      eq\n        /* \"FeeDistributor_1751751092126.sol\":1191:1313  validatorPool == teamWallet &&... */\n    tag_128:\n        /* \"FeeDistributor_1751751092126.sol\":1191:1358  validatorPool == teamWallet &&... */\n      dup1\n      iszero\n      tag_129\n      jumpi\n      pop\n        /* \"FeeDistributor_1751751092126.sol\":1349:1358  rndWallet */\n      sload(0x05)\n        /* \"FeeDistributor_1751751092126.sol\":1330:1345  marketingWallet */\n      sload(0x04)\n      sub(shl(0xa0, 0x01), 0x01)\n      swap1\n      dup2\n      and\n        /* \"FeeDistributor_1751751092126.sol\":1349:1358  rndWallet */\n      swap2\n      and\n        /* \"FeeDistributor_1751751092126.sol\":1330:1358  marketingWallet == rndWallet */\n      eq\n        /* \"FeeDistributor_1751751092126.sol\":1191:1358  validatorPool == teamWallet &&... */\n    tag_129:\n        /* \"FeeDistributor_1751751092126.sol\":1173:1794  if (... */\n      iszero\n      tag_130\n      jumpi\n        /* \"FeeDistributor_1751751092126.sol\":1393:1406  validatorPool */\n      sload(0x01)\n        /* \"FeeDistributor_1751751092126.sol\":1385:1424  payable(validatorPool).transfer(amount) */\n      mload(0x40)\n      sub(shl(0xa0, 0x01), 0x01)\n        /* \"FeeDistributor_1751751092126.sol\":1393:1406  validatorPool */\n      swap1\n      swap2\n      and\n      swap1\n        /* \"FeeDistributor_1751751092126.sol\":1385:1424  payable(validatorPool).transfer(amount) */\n      dup3\n      iszero\n      0x08fc\n      mul\n      swap1\n        /* \"FeeDistributor_1751751092126.sol\":1417:1423  amount */\n      dup4\n      swap1\n        /* \"FeeDistributor_1751751092126.sol\":1393:1406  validatorPool */\n      0x00\n        /* \"FeeDistributor_1751751092126.sol\":1385:1424  payable(validatorPool).transfer(amount) */\n      dup2\n        /* \"FeeDistributor_1751751092126.sol\":1393:1406  validatorPool */\n      dup2\n        /* \"FeeDistributor_1751751092126.sol\":1385:1424  payable(validatorPool).transfer(amount) */\n      dup2\n        /* \"FeeDistributor_1751751092126.sol\":1417:1423  amount */\n      dup6\n        /* \"FeeDistributor_1751751092126.sol\":1393:1406  validatorPool */\n      dup9\n        /* \"FeeDistributor_1751751092126.sol\":1385:1424  payable(validatorPool).transfer(amount) */\n      dup9\n      call\n      swap4\n      pop\n      pop\n      pop\n      pop\n      iszero\n      dup1\n      iszero\n      tag_132\n      jumpi\n      returndatasize\n      0x00\n      dup1\n      returndatacopy\n      revert(0x00, returndatasize)\n    tag_132:\n      pop\n        /* \"FeeDistributor_1751751092126.sol\":1173:1794  if (... */\n      jump(tag_133)\n    tag_130:\n        /* \"FeeDistributor_1751751092126.sol\":1465:1478  validatorPool */\n      and(sub(shl(0xa0, 0x01), 0x01), sload(0x01))\n        /* \"FeeDistributor_1751751092126.sol\":1457:1511  payable(validatorPool).transfer((amount * 4000) / BPS) */\n      0x08fc\n        /* \"FeeDistributor_1751751092126.sol\":731:736  10000 */\n      0x2710\n        /* \"FeeDistributor_1751751092126.sol\":1490:1503  amount * 4000 */\n      tag_134\n        /* \"FeeDistributor_1751751092126.sol\":1490:1496  amount */\n      dup5\n        /* \"FeeDistributor_1751751092126.sol\":1499:1503  4000 */\n      0x0fa0\n        /* \"FeeDistributor_1751751092126.sol\":1490:1503  amount * 4000 */\n      tag_77\n      jump\t// in\n    tag_134:\n        /* \"FeeDistributor_1751751092126.sol\":1489:1510  (amount * 4000) / BPS */\n      tag_135\n      swap2\n      swap1\n      tag_79\n      jump\t// in\n    tag_135:\n        /* \"FeeDistributor_1751751092126.sol\":1457:1511  payable(validatorPool).transfer((amount * 4000) / BPS) */\n      mload(0x40)\n      dup2\n      iszero\n      swap1\n      swap3\n      mul\n      swap2\n      0x00\n      dup2\n      dup2\n      dup2\n      dup6\n      dup9\n      dup9\n      call\n      swap4\n      pop\n      pop\n      pop\n      pop\n      iszero\n      dup1\n      iszero\n      tag_137\n      jumpi\n      returndatasize\n      0x00\n      dup1\n      returndatacopy\n      revert(0x00, returndatasize)\n    tag_137:\n      pop\n        /* \"FeeDistributor_1751751092126.sol\":1534:1544  teamWallet */\n      and(sub(shl(0xa0, 0x01), 0x01), sload(0x02))\n        /* \"FeeDistributor_1751751092126.sol\":1526:1577  payable(teamWallet).transfer((amount * 2500) / BPS) */\n      0x08fc\n        /* \"FeeDistributor_1751751092126.sol\":731:736  10000 */\n      0x2710\n        /* \"FeeDistributor_1751751092126.sol\":1556:1569  amount * 2500 */\n      tag_138\n        /* \"FeeDistributor_1751751092126.sol\":1556:1562  amount */\n      dup5\n        /* \"FeeDistributor_1751751092126.sol\":1565:1569  2500 */\n      0x09c4\n        /* \"FeeDistributor_1751751092126.sol\":1556:1569  amount * 2500 */\n      tag_77\n      jump\t// in\n    tag_138:\n        /* \"FeeDistributor_1751751092126.sol\":1555:1576  (amount * 2500) / BPS */\n      tag_139\n      swap2\n      swap1\n      tag_79\n      jump\t// in\n    tag_139:\n        /* \"FeeDistributor_1751751092126.sol\":1526:1577  payable(teamWallet).transfer((amount * 2500) / BPS) */\n      mload(0x40)\n      dup2\n      iszero\n      swap1\n      swap3\n      mul\n      swap2\n      0x00\n      dup2\n      dup2\n      dup2\n      dup6\n      dup9\n      dup9\n      call\n      swap4\n      pop\n      pop\n      pop\n      pop\n      iszero\n      dup1\n      iszero\n      tag_141\n      jumpi\n      returndatasize\n      0x00\n      dup1\n      returndatacopy\n      revert(0x00, returndatasize)\n    tag_141:\n      pop\n        /* \"FeeDistributor_1751751092126.sol\":1600:1614  treasuryWallet */\n      and(sub(shl(0xa0, 0x01), 0x01), sload(0x03))\n        /* \"FeeDistributor_1751751092126.sol\":1592:1647  payable(treasuryWallet).transfer((amount * 2000) / BPS) */\n      0x08fc\n        /* \"FeeDistributor_1751751092126.sol\":731:736  10000 */\n      0x2710\n        /* \"FeeDistributor_1751751092126.sol\":1626:1639  amount * 2000 */\n      tag_142\n        /* \"FeeDistributor_1751751092126.sol\":1626:1632  amount */\n      dup5\n        /* \"FeeDistributor_1751751092126.sol\":1635:1639  2000 */\n      0x07d0\n        /* \"FeeDistributor_1751751092126.sol\":1626:1639  amount * 2000 */\n      tag_77\n      jump\t// in\n    tag_142:\n        /* \"FeeDistributor_1751751092126.sol\":1625:1646  (amount * 2000) / BPS */\n      tag_143\n      swap2\n      swap1\n      tag_79\n      jump\t// in\n    tag_143:\n        /* \"FeeDistributor_1751751092126.sol\":1592:1647  payable(treasuryWallet).transfer((amount * 2000) / BPS) */\n      mload(0x40)\n      dup2\n      iszero\n      swap1\n      swap3\n      mul\n      swap2\n      0x00\n      dup2\n      dup2\n      dup2\n      dup6\n      dup9\n      dup9\n      call\n      swap4\n      pop\n      pop\n      pop\n      pop\n      iszero\n      dup1\n      iszero\n      tag_145\n      jumpi\n      returndatasize\n      0x00\n      dup1\n      returndatacopy\n      revert(0x00, returndatasize)\n    tag_145:\n      pop\n        /* \"FeeDistributor_1751751092126.sol\":1670:1685  marketingWallet */\n      and(sub(shl(0xa0, 0x01), 0x01), sload(0x04))\n        /* \"FeeDistributor_1751751092126.sol\":1662:1718  payable(marketingWallet).transfer((amount * 1000) / BPS) */\n      0x08fc\n        /* \"FeeDistributor_1751751092126.sol\":731:736  10000 */\n      0x2710\n        /* \"FeeDistributor_1751751092126.sol\":1697:1710  amount * 1000 */\n      tag_146\n        /* \"FeeDistributor_1751751092126.sol\":1697:1703  amount */\n      dup5\n        /* \"FeeDistributor_1751751092126.sol\":1706:1710  1000 */\n      0x03e8\n        /* \"FeeDistributor_1751751092126.sol\":1697:1710  amount * 1000 */\n      tag_77\n      jump\t// in\n    tag_146:\n        /* \"FeeDistributor_1751751092126.sol\":1696:1717  (amount * 1000) / BPS */\n      tag_147\n      swap2\n      swap1\n      tag_79\n      jump\t// in\n    tag_147:\n        /* \"FeeDistributor_1751751092126.sol\":1662:1718  payable(marketingWallet).transfer((amount * 1000) / BPS) */\n      mload(0x40)\n      dup2\n      iszero\n      swap1\n      swap3\n      mul\n      swap2\n      0x00\n      dup2\n      dup2\n      dup2\n      dup6\n      dup9\n      dup9\n      call\n      swap4\n      pop\n      pop\n      pop\n      pop\n      iszero\n      dup1\n      iszero\n      tag_149\n      jumpi\n      returndatasize\n      0x00\n      dup1\n      returndatacopy\n      revert(0x00, returndatasize)\n    tag_149:\n      pop\n        /* \"FeeDistributor_1751751092126.sol\":1741:1750  rndWallet */\n      and(sub(shl(0xa0, 0x01), 0x01), sload(0x05))\n        /* \"FeeDistributor_1751751092126.sol\":1733:1782  payable(rndWallet).transfer((amount * 500) / BPS) */\n      0x08fc\n        /* \"FeeDistributor_1751751092126.sol\":731:736  10000 */\n      0x2710\n        /* \"FeeDistributor_1751751092126.sol\":1762:1774  amount * 500 */\n      tag_150\n        /* \"FeeDistributor_1751751092126.sol\":1762:1768  amount */\n      dup5\n        /* \"FeeDistributor_1751751092126.sol\":1771:1774  500 */\n      0x01f4\n        /* \"FeeDistributor_1751751092126.sol\":1762:1774  amount * 500 */\n      tag_77\n      jump\t// in\n    tag_150:\n        /* \"FeeDistributor_1751751092126.sol\":1761:1781  (amount * 500) / BPS */\n      tag_151\n      swap2\n      swap1\n      tag_79\n      jump\t// in\n    tag_151:\n        /* \"FeeDistributor_1751751092126.sol\":1733:1782  payable(rndWallet).transfer((amount * 500) / BPS) */\n      mload(0x40)\n      dup2\n      iszero\n      swap1\n      swap3\n      mul\n      swap2\n      0x00\n      dup2\n      dup2\n      dup2\n      dup6\n      dup9\n      dup9\n      call\n      swap4\n      pop\n      pop\n      pop\n      pop\n      iszero\n      dup1\n      iszero\n      tag_153\n      jumpi\n      returndatasize\n      0x00\n      dup1\n      returndatacopy\n      revert(0x00, returndatasize)\n    tag_153:\n      pop\n        /* \"FeeDistributor_1751751092126.sol\":1173:1794  if (... */\n    tag_133:\n        /* \"FeeDistributor_1751751092126.sol\":1811:1837  FeesDistributedETH(amount) */\n      mload(0x40)\n        /* \"#utility.yul\":160:185   */\n      dup2\n      dup2\n      mstore\n        /* \"FeeDistributor_1751751092126.sol\":1811:1837  FeesDistributedETH(amount) */\n      0xee5c3c42fee98395117c1860fa4e70d5c9c568a5ad10b52c570d499b0cabc6d6\n      swap1\n        /* \"#utility.yul\":148:150   */\n      0x20\n        /* \"#utility.yul\":133:151   */\n      add\n        /* \"FeeDistributor_1751751092126.sol\":1811:1837  FeesDistributedETH(amount) */\n      mload(0x40)\n      dup1\n      swap2\n      sub\n      swap1\n      log1\n        /* \"FeeDistributor_1751751092126.sol\":1023:1845  function distributeETHManually(uint256 amount) external onlyOwner {... */\n      pop\n      jump\t// out\n        /* \"#utility.yul\":427:589   */\n    tag_155:\n      sub(shl(0xa0, 0x01), 0x01)\n        /* \"#utility.yul\":514:519   */\n      dup2\n        /* \"#utility.yul\":510:564   */\n      and\n        /* \"#utility.yul\":503:508   */\n      dup2\n        /* \"#utility.yul\":500:565   */\n      eq\n        /* \"#utility.yul\":490:583   */\n      tag_160\n      jumpi\n        /* \"#utility.yul\":579:580   */\n      0x00\n        /* \"#utility.yul\":576:577   */\n      dup1\n        /* \"#utility.yul\":569:581   */\n      revert\n        /* \"#utility.yul\":490:583   */\n    tag_160:\n        /* \"#utility.yul\":427:589   */\n      pop\n      jump\t// out\n        /* \"#utility.yul\":594:932   */\n    tag_39:\n        /* \"#utility.yul\":677:683   */\n      0x00\n        /* \"#utility.yul\":685:691   */\n      dup1\n        /* \"#utility.yul\":738:740   */\n      0x40\n        /* \"#utility.yul\":726:735   */\n      dup4\n        /* \"#utility.yul\":717:724   */\n      dup6\n        /* \"#utility.yul\":713:736   */\n      sub\n        /* \"#utility.yul\":709:741   */\n      slt\n        /* \"#utility.yul\":706:758   */\n      iszero\n      tag_162\n      jumpi\n        /* \"#utility.yul\":754:755   */\n      0x00\n        /* \"#utility.yul\":751:752   */\n      dup1\n        /* \"#utility.yul\":744:756   */\n      revert\n        /* \"#utility.yul\":706:758   */\n    tag_162:\n        /* \"#utility.yul\":793:802   */\n      dup3\n        /* \"#utility.yul\":780:803   */\n      calldataload\n        /* \"#utility.yul\":812:851   */\n      tag_163\n        /* \"#utility.yul\":845:850   */\n      dup2\n        /* \"#utility.yul\":812:851   */\n      tag_155\n      jump\t// in\n    tag_163:\n        /* \"#utility.yul\":870:875   */\n      swap5\n        /* \"#utility.yul\":922:924   */\n      0x20\n        /* \"#utility.yul\":907:925   */\n      swap4\n      swap1\n      swap4\n      add\n        /* \"#utility.yul\":894:926   */\n      calldataload\n      swap4\n      pop\n      pop\n      pop\n        /* \"#utility.yul\":594:932   */\n      jump\t// out\n        /* \"#utility.yul\":937:1790   */\n    tag_56:\n        /* \"#utility.yul\":1032:1038   */\n      0x00\n        /* \"#utility.yul\":1040:1046   */\n      dup1\n        /* \"#utility.yul\":1048:1054   */\n      0x00\n        /* \"#utility.yul\":1056:1062   */\n      dup1\n        /* \"#utility.yul\":1064:1070   */\n      0x00\n        /* \"#utility.yul\":1117:1120   */\n      0xa0\n        /* \"#utility.yul\":1105:1114   */\n      dup7\n        /* \"#utility.yul\":1096:1103   */\n      dup9\n        /* \"#utility.yul\":1092:1115   */\n      sub\n        /* \"#utility.yul\":1088:1121   */\n      slt\n        /* \"#utility.yul\":1085:1138   */\n      iszero\n      tag_165\n      jumpi\n        /* \"#utility.yul\":1134:1135   */\n      0x00\n        /* \"#utility.yul\":1131:1132   */\n      dup1\n        /* \"#utility.yul\":1124:1136   */\n      revert\n        /* \"#utility.yul\":1085:1138   */\n    tag_165:\n        /* \"#utility.yul\":1173:1182   */\n      dup6\n        /* \"#utility.yul\":1160:1183   */\n      calldataload\n        /* \"#utility.yul\":1192:1231   */\n      tag_166\n        /* \"#utility.yul\":1225:1230   */\n      dup2\n        /* \"#utility.yul\":1192:1231   */\n      tag_155\n      jump\t// in\n    tag_166:\n        /* \"#utility.yul\":1250:1255   */\n      swap5\n      pop\n        /* \"#utility.yul\":1307:1309   */\n      0x20\n        /* \"#utility.yul\":1292:1310   */\n      dup7\n      add\n        /* \"#utility.yul\":1279:1311   */\n      calldataload\n        /* \"#utility.yul\":1320:1361   */\n      tag_167\n        /* \"#utility.yul\":1279:1311   */\n      dup2\n        /* \"#utility.yul\":1320:1361   */\n      tag_155\n      jump\t// in\n    tag_167:\n        /* \"#utility.yul\":1380:1387   */\n      swap4\n      pop\n        /* \"#utility.yul\":1439:1441   */\n      0x40\n        /* \"#utility.yul\":1424:1442   */\n      dup7\n      add\n        /* \"#utility.yul\":1411:1443   */\n      calldataload\n        /* \"#utility.yul\":1452:1493   */\n      tag_168\n        /* \"#utility.yul\":1411:1443   */\n      dup2\n        /* \"#utility.yul\":1452:1493   */\n      tag_155\n      jump\t// in\n    tag_168:\n        /* \"#utility.yul\":1512:1519   */\n      swap3\n      pop\n        /* \"#utility.yul\":1571:1573   */\n      0x60\n        /* \"#utility.yul\":1556:1574   */\n      dup7\n      add\n        /* \"#utility.yul\":1543:1575   */\n      calldataload\n        /* \"#utility.yul\":1584:1625   */\n      tag_169\n        /* \"#utility.yul\":1543:1575   */\n      dup2\n        /* \"#utility.yul\":1584:1625   */\n      tag_155\n      jump\t// in\n    tag_169:\n        /* \"#utility.yul\":1644:1651   */\n      swap2\n      pop\n        /* \"#utility.yul\":1703:1706   */\n      0x80\n        /* \"#utility.yul\":1688:1707   */\n      dup7\n      add\n        /* \"#utility.yul\":1675:1708   */\n      calldataload\n        /* \"#utility.yul\":1717:1758   */\n      tag_170\n        /* \"#utility.yul\":1675:1708   */\n      dup2\n        /* \"#utility.yul\":1717:1758   */\n      tag_155\n      jump\t// in\n    tag_170:\n        /* \"#utility.yul\":1777:1784   */\n      dup1\n        /* \"#utility.yul\":1767:1784   */\n      swap2\n      pop\n      pop\n        /* \"#utility.yul\":937:1790   */\n      swap3\n      swap6\n      pop\n      swap3\n      swap6\n      swap1\n      swap4\n      pop\n      jump\t// out\n        /* \"#utility.yul\":1795:1975   */\n    tag_61:\n        /* \"#utility.yul\":1854:1860   */\n      0x00\n        /* \"#utility.yul\":1907:1909   */\n      0x20\n        /* \"#utility.yul\":1895:1904   */\n      dup3\n        /* \"#utility.yul\":1886:1893   */\n      dup5\n        /* \"#utility.yul\":1882:1905   */\n      sub\n        /* \"#utility.yul\":1878:1910   */\n      slt\n        /* \"#utility.yul\":1875:1927   */\n      iszero\n      tag_172\n      jumpi\n        /* \"#utility.yul\":1923:1924   */\n      0x00\n        /* \"#utility.yul\":1920:1921   */\n      dup1\n        /* \"#utility.yul\":1913:1925   */\n      revert\n        /* \"#utility.yul\":1875:1927   */\n    tag_172:\n      pop\n        /* \"#utility.yul\":1946:1969   */\n      calldataload\n      swap2\n        /* \"#utility.yul\":1795:1975   */\n      swap1\n      pop\n      jump\t// out\n        /* \"#utility.yul\":2323:2507   */\n    tag_72:\n        /* \"#utility.yul\":2393:2399   */\n      0x00\n        /* \"#utility.yul\":2446:2448   */\n      0x20\n        /* \"#utility.yul\":2434:2443   */\n      dup3\n        /* \"#utility.yul\":2425:2432   */\n      dup5\n        /* \"#utility.yul\":2421:2444   */\n      sub\n        /* \"#utility.yul\":2417:2449   */\n      slt\n        /* \"#utility.yul\":2414:2466   */\n      iszero\n      tag_175\n      jumpi\n        /* \"#utility.yul\":2462:2463   */\n      0x00\n        /* \"#utility.yul\":2459:2460   */\n      dup1\n        /* \"#utility.yul\":2452:2464   */\n      revert\n        /* \"#utility.yul\":2414:2466   */\n    tag_175:\n      pop\n        /* \"#utility.yul\":2485:2501   */\n      mload\n      swap2\n        /* \"#utility.yul\":2323:2507   */\n      swap1\n      pop\n      jump\t// out\n        /* \"#utility.yul\":2867:3132   */\n    tag_77:\n        /* \"#utility.yul\":2940:2949   */\n      dup1\n      dup3\n      mul\n        /* \"#utility.yul\":2971:2980   */\n      dup2\n      iszero\n        /* \"#utility.yul\":2988:3003   */\n      dup3\n      dup3\n      div\n        /* \"#utility.yul\":2982:3004   */\n      dup5\n      eq\n        /* \"#utility.yul\":2968:3005   */\n      or\n        /* \"#utility.yul\":2958:3126   */\n      tag_178\n      jumpi\n        /* \"#utility.yul\":3048:3058   */\n      0x4e487b71\n        /* \"#utility.yul\":3043:3046   */\n      0xe0\n        /* \"#utility.yul\":3039:3059   */\n      shl\n        /* \"#utility.yul\":3036:3037   */\n      0x00\n        /* \"#utility.yul\":3029:3060   */\n      mstore\n        /* \"#utility.yul\":3083:3087   */\n      0x11\n        /* \"#utility.yul\":3080:3081   */\n      0x04\n        /* \"#utility.yul\":3073:3088   */\n      mstore\n        /* \"#utility.yul\":3111:3115   */\n      0x24\n        /* \"#utility.yul\":3108:3109   */\n      0x00\n        /* \"#utility.yul\":3101:3116   */\n      revert\n        /* \"#utility.yul\":2958:3126   */\n    tag_178:\n        /* \"#utility.yul\":2867:3132   */\n      swap3\n      swap2\n      pop\n      pop\n      jump\t// out\n        /* \"#utility.yul\":3137:3354   */\n    tag_79:\n        /* \"#utility.yul\":3177:3178   */\n      0x00\n        /* \"#utility.yul\":3203:3204   */\n      dup3\n        /* \"#utility.yul\":3193:3325   */\n      tag_180\n      jumpi\n        /* \"#utility.yul\":3247:3257   */\n      0x4e487b71\n        /* \"#utility.yul\":3242:3245   */\n      0xe0\n        /* \"#utility.yul\":3238:3258   */\n      shl\n        /* \"#utility.yul\":3235:3236   */\n      0x00\n        /* \"#utility.yul\":3228:3259   */\n      mstore\n        /* \"#utility.yul\":3282:3286   */\n      0x12\n        /* \"#utility.yul\":3279:3280   */\n      0x04\n        /* \"#utility.yul\":3272:3287   */\n      mstore\n        /* \"#utility.yul\":3310:3314   */\n      0x24\n        /* \"#utility.yul\":3307:3308   */\n      0x00\n        /* \"#utility.yul\":3300:3315   */\n      revert\n        /* \"#utility.yul\":3193:3325   */\n    tag_180:\n      pop\n        /* \"#utility.yul\":3339:3348   */\n      div\n      swap1\n        /* \"#utility.yul\":3137:3354   */\n      jump\t// out\n        /* \"#utility.yul\":3661:3938   */\n    tag_85:\n        /* \"#utility.yul\":3728:3734   */\n      0x00\n        /* \"#utility.yul\":3781:3783   */\n      0x20\n        /* \"#utility.yul\":3769:3778   */\n      dup3\n        /* \"#utility.yul\":3760:3767   */\n      dup5\n        /* \"#utility.yul\":3756:3779   */\n      sub\n        /* \"#utility.yul\":3752:3784   */\n      slt\n        /* \"#utility.yul\":3749:3801   */\n      iszero\n      tag_183\n      jumpi\n        /* \"#utility.yul\":3797:3798   */\n      0x00\n        /* \"#utility.yul\":3794:3795   */\n      dup1\n        /* \"#utility.yul\":3787:3799   */\n      revert\n        /* \"#utility.yul\":3749:3801   */\n    tag_183:\n        /* \"#utility.yul\":3829:3838   */\n      dup2\n        /* \"#utility.yul\":3823:3839   */\n      mload\n        /* \"#utility.yul\":3882:3887   */\n      dup1\n        /* \"#utility.yul\":3875:3888   */\n      iszero\n        /* \"#utility.yul\":3868:3889   */\n      iszero\n        /* \"#utility.yul\":3861:3866   */\n      dup2\n        /* \"#utility.yul\":3858:3890   */\n      eq\n        /* \"#utility.yul\":3848:3908   */\n      tag_184\n      jumpi\n        /* \"#utility.yul\":3904:3905   */\n      0x00\n        /* \"#utility.yul\":3901:3902   */\n      dup1\n        /* \"#utility.yul\":3894:3906   */\n      revert\n        /* \"#utility.yul\":3848:3908   */\n    tag_184:\n        /* \"#utility.yul\":3927:3932   */\n      swap4\n        /* \"#utility.yul\":3661:3938   */\n      swap3\n      pop\n      pop\n      pop\n      jump\t// out\n\n    auxdata: 0xa2646970667358221220c4529a9163a3727ab09280a2df759c33365bc957441ed0786c8d67d26a22982b64736f6c63430008190033\n}\n",
    "bytecode": {
      "linkReferences": {},
      "object": "60806040526001805473535f7b11e4f9b77d8ef04a564e09e0b4fee75fb36001600160a01b031991821681179092556002805482168317905560038054821683179055600480548216831790556005805490911690911790553480156062575f80fd5b505f80546001600160a01b03191633179055610bcf806100815f395ff3fe6080604052600436106100b0575f3560e01c806375f0a87411610066578063d4c6d1de1161004c578063d4c6d1de146101b6578063db5b4d91146101d5578063e8490706146101f4575f80fd5b806375f0a874146101795780638da5cb5b14610198575f80fd5b80634626402b116100965780634626402b1461011a578063599270441461013957806363a8a55114610158575f80fd5b8063249d39e9146100bb5780633f0c4125146100e3575f80fd5b366100b757005b5f80fd5b3480156100c6575f80fd5b506100d061271081565b6040519081526020015b60405180910390f35b3480156100ee575f80fd5b50600554610102906001600160a01b031681565b6040516001600160a01b0390911681526020016100da565b348015610125575f80fd5b50600354610102906001600160a01b031681565b348015610144575f80fd5b50600254610102906001600160a01b031681565b348015610163575f80fd5b50610177610172366004610a66565b610213565b005b348015610184575f80fd5b50600454610102906001600160a01b031681565b3480156101a3575f80fd5b505f54610102906001600160a01b031681565b3480156101c1575f80fd5b50600154610102906001600160a01b031681565b3480156101e0575f80fd5b506101776101ef366004610a90565b61068d565b3480156101ff575f80fd5b5061017761020e366004610afd565b61074e565b5f546001600160a01b031633146102625760405162461bcd60e51b815260206004820152600e60248201526d139bdd08185d5d1a1bdc9a5e995960921b60448201526064015b60405180910390fd5b6040516370a0823160e01b815230600482015281906001600160a01b038416906370a0823190602401602060405180830381865afa1580156102a6573d5f803e3d5ffd5b505050506040513d601f19601f820116820180604052508101906102ca9190610b14565b10156103185760405162461bcd60e51b815260206004820152601a60248201527f496e73756666696369656e7420746f6b656e2062616c616e63650000000000006044820152606401610259565b6001546001600160a01b038084169163a9059cbb911661271061033d85610fa0610b2b565b6103479190610b54565b6040516001600160e01b031960e085901b1681526001600160a01b03909216600483015260248201526044016020604051808303815f875af115801561038f573d5f803e3d5ffd5b505050506040513d601f19601f820116820180604052508101906103b39190610b73565b6103bb575f80fd5b6002546001600160a01b038084169163a9059cbb91166127106103e0856109c4610b2b565b6103ea9190610b54565b6040516001600160e01b031960e085901b1681526001600160a01b03909216600483015260248201526044016020604051808303815f875af1158015610432573d5f803e3d5ffd5b505050506040513d601f19601f820116820180604052508101906104569190610b73565b61045e575f80fd5b6003546001600160a01b038084169163a9059cbb9116612710610483856107d0610b2b565b61048d9190610b54565b6040516001600160e01b031960e085901b1681526001600160a01b03909216600483015260248201526044016020604051808303815f875af11580156104d5573d5f803e3d5ffd5b505050506040513d601f19601f820116820180604052508101906104f99190610b73565b610501575f80fd5b6004546001600160a01b038084169163a9059cbb9116612710610526856103e8610b2b565b6105309190610b54565b6040516001600160e01b031960e085901b1681526001600160a01b03909216600483015260248201526044016020604051808303815f875af1158015610578573d5f803e3d5ffd5b505050506040513d601f19601f8201168201806040525081019061059c9190610b73565b6105a4575f80fd5b6005546001600160a01b038084169163a9059cbb91166127106105c9856101f4610b2b565b6105d39190610b54565b6040516001600160e01b031960e085901b1681526001600160a01b03909216600483015260248201526044016020604051808303815f875af115801561061b573d5f803e3d5ffd5b505050506040513d601f19601f8201168201806040525081019061063f9190610b73565b610647575f80fd5b604080516001600160a01b0384168152602081018390527f72085d542cc91f8c84e3f39d5b6f0e85b079a416734ce2d5f4a498c846382977910160405180910390a15050565b5f546001600160a01b031633146106d75760405162461bcd60e51b815260206004820152600e60248201526d139bdd08185d5d1a1bdc9a5e995960921b6044820152606401610259565b600180547fffffffffffffffffffffffff00000000000000000000000000000000000000009081166001600160a01b03978816179091556002805482169587169590951790945560038054851693861693909317909255600480548416918516919091179055600580549092169216919091179055565b5f546001600160a01b031633146107985760405162461bcd60e51b815260206004820152600e60248201526d139bdd08185d5d1a1bdc9a5e995960921b6044820152606401610259565b804710156107e85760405162461bcd60e51b815260206004820152601060248201527f496e73756666696369656e7420455448000000000000000000000000000000006044820152606401610259565b6002546001546001600160a01b03908116911614801561081857506003546002546001600160a01b039081169116145b801561083457506004546003546001600160a01b039081169116145b801561085057506005546004546001600160a01b039081169116145b15610892576001546040516001600160a01b039091169082156108fc029083905f818181858888f1935050505015801561088c573d5f803e3d5ffd5b50610a19565b6001546001600160a01b03166108fc6127106108b084610fa0610b2b565b6108ba9190610b54565b6040518115909202915f818181858888f193505050501580156108df573d5f803e3d5ffd5b506002546001600160a01b03166108fc6127106108fe846109c4610b2b565b6109089190610b54565b6040518115909202915f818181858888f1935050505015801561092d573d5f803e3d5ffd5b506003546001600160a01b03166108fc61271061094c846107d0610b2b565b6109569190610b54565b6040518115909202915f818181858888f1935050505015801561097b573d5f803e3d5ffd5b506004546001600160a01b03166108fc61271061099a846103e8610b2b565b6109a49190610b54565b6040518115909202915f818181858888f193505050501580156109c9573d5f803e3d5ffd5b506005546001600160a01b03166108fc6127106109e8846101f4610b2b565b6109f29190610b54565b6040518115909202915f818181858888f19350505050158015610a17573d5f803e3d5ffd5b505b6040518181527fee5c3c42fee98395117c1860fa4e70d5c9c568a5ad10b52c570d499b0cabc6d69060200160405180910390a150565b6001600160a01b0381168114610a63575f80fd5b50565b5f8060408385031215610a77575f80fd5b8235610a8281610a4f565b946020939093013593505050565b5f805f805f60a08688031215610aa4575f80fd5b8535610aaf81610a4f565b94506020860135610abf81610a4f565b93506040860135610acf81610a4f565b92506060860135610adf81610a4f565b91506080860135610aef81610a4f565b809150509295509295909350565b5f60208284031215610b0d575f80fd5b5035919050565b5f60208284031215610b24575f80fd5b5051919050565b8082028115828204841417610b4e57634e487b7160e01b5f52601160045260245ffd5b92915050565b5f82610b6e57634e487b7160e01b5f52601260045260245ffd5b500490565b5f60208284031215610b83575f80fd5b81518015158114610b92575f80fd5b939250505056fea2646970667358221220c4529a9163a3727ab09280a2df759c33365bc957441ed0786c8d67d26a22982b64736f6c63430008190033",
      "opcodes": "PUSH1 0x80 PUSH1 0x40 MSTORE PUSH1 0x1 DUP1 SLOAD PUSH20 0x535F7B11E4F9B77D8EF04A564E09E0B4FEE75FB3 PUSH1 0x1 PUSH1 0x1 PUSH1 0xA0 SHL SUB NOT SWAP2 DUP3 AND DUP2 OR SWAP1 SWAP3 SSTORE PUSH1 0x2 DUP1 SLOAD DUP3 AND DUP4 OR SWAP1 SSTORE PUSH1 0x3 DUP1 SLOAD DUP3 AND DUP4 OR SWAP1 SSTORE PUSH1 0x4 DUP1 SLOAD DUP3 AND DUP4 OR SWAP1 SSTORE PUSH1 0x5 DUP1 SLOAD SWAP1 SWAP2 AND SWAP1 SWAP2 OR SWAP1 SSTORE CALLVALUE DUP1 ISZERO PUSH1 0x62 JUMPI PUSH0 DUP1 REVERT JUMPDEST POP PUSH0 DUP1 SLOAD PUSH1 0x1 PUSH1 0x1 PUSH1 0xA0 SHL SUB NOT AND CALLER OR SWAP1 SSTORE PUSH2 0xBCF DUP1 PUSH2 0x81 PUSH0 CODECOPY PUSH0 RETURN INVALID PUSH1 0x80 PUSH1 0x40 MSTORE PUSH1 0x4 CALLDATASIZE LT PUSH2 0xB0 JUMPI PUSH0 CALLDATALOAD PUSH1 0xE0 SHR DUP1 PUSH4 0x75F0A874 GT PUSH2 0x66 JUMPI DUP1 PUSH4 0xD4C6D1DE GT PUSH2 0x4C JUMPI DUP1 PUSH4 0xD4C6D1DE EQ PUSH2 0x1B6 JUMPI DUP1 PUSH4 0xDB5B4D91 EQ PUSH2 0x1D5 JUMPI DUP1 PUSH4 0xE8490706 EQ PUSH2 0x1F4 JUMPI PUSH0 DUP1 REVERT JUMPDEST DUP1 PUSH4 0x75F0A874 EQ PUSH2 0x179 JUMPI DUP1 PUSH4 0x8DA5CB5B EQ PUSH2 0x198 JUMPI PUSH0 DUP1 REVERT JUMPDEST DUP1 PUSH4 0x4626402B GT PUSH2 0x96 JUMPI DUP1 PUSH4 0x4626402B EQ PUSH2 0x11A JUMPI DUP1 PUSH4 0x59927044 EQ PUSH2 0x139 JUMPI DUP1 PUSH4 0x63A8A551 EQ PUSH2 0x158 JUMPI PUSH0 DUP1 REVERT JUMPDEST DUP1 PUSH4 0x249D39E9 EQ PUSH2 0xBB JUMPI DUP1 PUSH4 0x3F0C4125 EQ PUSH2 0xE3 JUMPI PUSH0 DUP1 REVERT JUMPDEST CALLDATASIZE PUSH2 0xB7 JUMPI STOP JUMPDEST PUSH0 DUP1 REVERT JUMPDEST CALLVALUE DUP1 ISZERO PUSH2 0xC6 JUMPI PUSH0 DUP1 REVERT JUMPDEST POP PUSH2 0xD0 PUSH2 0x2710 DUP2 JUMP JUMPDEST PUSH1 0x40 MLOAD SWAP1 DUP2 MSTORE PUSH1 0x20 ADD JUMPDEST PUSH1 0x40 MLOAD DUP1 SWAP2 SUB SWAP1 RETURN JUMPDEST CALLVALUE DUP1 ISZERO PUSH2 0xEE JUMPI PUSH0 DUP1 REVERT JUMPDEST POP PUSH1 0x5 SLOAD PUSH2 0x102 SWAP1 PUSH1 0x1 PUSH1 0x1 PUSH1 0xA0 SHL SUB AND DUP2 JUMP JUMPDEST PUSH1 0x40 MLOAD PUSH1 0x1 PUSH1 0x1 PUSH1 0xA0 SHL SUB SWAP1 SWAP2 AND DUP2 MSTORE PUSH1 0x20 ADD PUSH2 0xDA JUMP JUMPDEST CALLVALUE DUP1 ISZERO PUSH2 0x125 JUMPI PUSH0 DUP1 REVERT JUMPDEST POP PUSH1 0x3 SLOAD PUSH2 0x102 SWAP1 PUSH1 0x1 PUSH1 0x1 PUSH1 0xA0 SHL SUB AND DUP2 JUMP JUMPDEST CALLVALUE DUP1 ISZERO PUSH2 0x144 JUMPI PUSH0 DUP1 REVERT JUMPDEST POP PUSH1 0x2 SLOAD PUSH2 0x102 SWAP1 PUSH1 0x1 PUSH1 0x1 PUSH1 0xA0 SHL SUB AND DUP2 JUMP JUMPDEST CALLVALUE DUP1 ISZERO PUSH2 0x163 JUMPI PUSH0 DUP1 REVERT JUMPDEST POP PUSH2 0x177 PUSH2 0x172 CALLDATASIZE PUSH1 0x4 PUSH2 0xA66 JUMP JUMPDEST PUSH2 0x213 JUMP JUMPDEST STOP JUMPDEST CALLVALUE DUP1 ISZERO PUSH2 0x184 JUMPI PUSH0 DUP1 REVERT JUMPDEST POP PUSH1 0x4 SLOAD PUSH2 0x102 SWAP1 PUSH1 0x1 PUSH1 0x1 PUSH1 0xA0 SHL SUB AND DUP2 JUMP JUMPDEST CALLVALUE DUP1 ISZERO PUSH2 0x1A3 JUMPI PUSH0 DUP1 REVERT JUMPDEST POP PUSH0 SLOAD PUSH2 0x102 SWAP1 PUSH1 0x1 PUSH1 0x1 PUSH1 0xA0 SHL SUB AND DUP2 JUMP JUMPDEST CALLVALUE DUP1 ISZERO PUSH2 0x1C1 JUMPI PUSH0 DUP1 REVERT JUMPDEST POP PUSH1 0x1 SLOAD PUSH2 0x102 SWAP1 PUSH1 0x1 PUSH1 0x1 PUSH1 0xA0 SHL SUB AND DUP2 JUMP JUMPDEST CALLVALUE DUP1 ISZERO PUSH2 0x1E0 JUMPI PUSH0 DUP1 REVERT JUMPDEST POP PUSH2 0x177 PUSH2 0x1EF CALLDATASIZE PUSH1 0x4 PUSH2 0xA90 JUMP JUMPDEST PUSH2 0x68D JUMP JUMPDEST CALLVALUE DUP1 ISZERO PUSH2 0x1FF JUMPI PUSH0 DUP1 REVERT JUMPDEST POP PUSH2 0x177 PUSH2 0x20E CALLDATASIZE PUSH1 0x4 PUSH2 0xAFD JUMP JUMPDEST PUSH2 0x74E JUMP JUMPDEST PUSH0 SLOAD PUSH1 0x1 PUSH1 0x1 PUSH1 0xA0 SHL SUB AND CALLER EQ PUSH2 0x262 JUMPI PUSH1 0x40 MLOAD PUSH3 0x461BCD PUSH1 0xE5 SHL DUP2 MSTORE PUSH1 0x20 PUSH1 0x4 DUP3 ADD MSTORE PUSH1 0xE PUSH1 0x24 DUP3 ADD MSTORE PUSH14 0x139BDD08185D5D1A1BDC9A5E9959 PUSH1 0x92 SHL PUSH1 0x44 DUP3 ADD MSTORE PUSH1 0x64 ADD JUMPDEST PUSH1 0x40 MLOAD DUP1 SWAP2 SUB SWAP1 REVERT JUMPDEST PUSH1 0x40 MLOAD PUSH4 0x70A08231 PUSH1 0xE0 SHL DUP2 MSTORE ADDRESS PUSH1 0x4 DUP3 ADD MSTORE DUP2 SWAP1 PUSH1 0x1 PUSH1 0x1 PUSH1 0xA0 SHL SUB DUP5 AND SWAP1 PUSH4 0x70A08231 SWAP1 PUSH1 0x24 ADD PUSH1 0x20 PUSH1 0x40 MLOAD DUP1 DUP4 SUB DUP2 DUP7 GAS STATICCALL ISZERO DUP1 ISZERO PUSH2 0x2A6 JUMPI RETURNDATASIZE PUSH0 DUP1 RETURNDATACOPY RETURNDATASIZE PUSH0 REVERT JUMPDEST POP POP POP POP PUSH1 0x40 MLOAD RETURNDATASIZE PUSH1 0x1F NOT PUSH1 0x1F DUP3 ADD AND DUP3 ADD DUP1 PUSH1 0x40 MSTORE POP DUP2 ADD SWAP1 PUSH2 0x2CA SWAP2 SWAP1 PUSH2 0xB14 JUMP JUMPDEST LT ISZERO PUSH2 0x318 JUMPI PUSH1 0x40 MLOAD PUSH3 0x461BCD PUSH1 0xE5 SHL DUP2 MSTORE PUSH1 0x20 PUSH1 0x4 DUP3 ADD MSTORE PUSH1 0x1A PUSH1 0x24 DUP3 ADD MSTORE PUSH32 0x496E73756666696369656E7420746F6B656E2062616C616E6365000000000000 PUSH1 0x44 DUP3 ADD MSTORE PUSH1 0x64 ADD PUSH2 0x259 JUMP JUMPDEST PUSH1 0x1 SLOAD PUSH1 0x1 PUSH1 0x1 PUSH1 0xA0 SHL SUB DUP1 DUP5 AND SWAP2 PUSH4 0xA9059CBB SWAP2 AND PUSH2 0x2710 PUSH2 0x33D DUP6 PUSH2 0xFA0 PUSH2 0xB2B JUMP JUMPDEST PUSH2 0x347 SWAP2 SWAP1 PUSH2 0xB54 JUMP JUMPDEST PUSH1 0x40 MLOAD PUSH1 0x1 PUSH1 0x1 PUSH1 0xE0 SHL SUB NOT PUSH1 0xE0 DUP6 SWAP1 SHL AND DUP2 MSTORE PUSH1 0x1 PUSH1 0x1 PUSH1 0xA0 SHL SUB SWAP1 SWAP3 AND PUSH1 0x4 DUP4 ADD MSTORE PUSH1 0x24 DUP3 ADD MSTORE PUSH1 0x44 ADD PUSH1 0x20 PUSH1 0x40 MLOAD DUP1 DUP4 SUB DUP2 PUSH0 DUP8 GAS CALL ISZERO DUP1 ISZERO PUSH2 0x38F JUMPI RETURNDATASIZE PUSH0 DUP1 RETURNDATACOPY RETURNDATASIZE PUSH0 REVERT JUMPDEST POP POP POP POP PUSH1 0x40 MLOAD RETURNDATASIZE PUSH1 0x1F NOT PUSH1 0x1F DUP3 ADD AND DUP3 ADD DUP1 PUSH1 0x40 MSTORE POP DUP2 ADD SWAP1 PUSH2 0x3B3 SWAP2 SWAP1 PUSH2 0xB73 JUMP JUMPDEST PUSH2 0x3BB JUMPI PUSH0 DUP1 REVERT JUMPDEST PUSH1 0x2 SLOAD PUSH1 0x1 PUSH1 0x1 PUSH1 0xA0 SHL SUB DUP1 DUP5 AND SWAP2 PUSH4 0xA9059CBB SWAP2 AND PUSH2 0x2710 PUSH2 0x3E0 DUP6 PUSH2 0x9C4 PUSH2 0xB2B JUMP JUMPDEST PUSH2 0x3EA SWAP2 SWAP1 PUSH2 0xB54 JUMP JUMPDEST PUSH1 0x40 MLOAD PUSH1 0x1 PUSH1 0x1 PUSH1 0xE0 SHL SUB NOT PUSH1 0xE0 DUP6 SWAP1 SHL AND DUP2 MSTORE PUSH1 0x1 PUSH1 0x1 PUSH1 0xA0 SHL SUB SWAP1 SWAP3 AND PUSH1 0x4 DUP4 ADD MSTORE PUSH1 0x24 DUP3 ADD MSTORE PUSH1 0x44 ADD PUSH1 0x20 PUSH1 0x40 MLOAD DUP1 DUP4 SUB DUP2 PUSH0 DUP8 GAS CALL ISZERO DUP1 ISZERO PUSH2 0x432 JUMPI RETURNDATASIZE PUSH0 DUP1 RETURNDATACOPY RETURNDATASIZE PUSH0 REVERT JUMPDEST POP POP POP POP PUSH1 0x40 MLOAD RETURNDATASIZE PUSH1 0x1F NOT PUSH1 0x1F DUP3 ADD AND DUP3 ADD DUP1 PUSH1 0x40 MSTORE POP DUP2 ADD SWAP1 PUSH2 0x456 SWAP2 SWAP1 PUSH2 0xB73 JUMP JUMPDEST PUSH2 0x45E JUMPI PUSH0 DUP1 REVERT JUMPDEST PUSH1 0x3 SLOAD PUSH1 0x1 PUSH1 0x1 PUSH1 0xA0 SHL SUB DUP1 DUP5 AND SWAP2 PUSH4 0xA9059CBB SWAP2 AND PUSH2 0x2710 PUSH2 0x483 DUP6 PUSH2 0x7D0 PUSH2 0xB2B JUMP JUMPDEST PUSH2 0x48D SWAP2 SWAP1 PUSH2 0xB54 JUMP JUMPDEST PUSH1 0x40 MLOAD PUSH1 0x1 PUSH1 0x1 PUSH1 0xE0 SHL SUB NOT PUSH1 0xE0 DUP6 SWAP1 SHL AND DUP2 MSTORE PUSH1 0x1 PUSH1 0x1 PUSH1 0xA0 SHL SUB SWAP1 SWAP3 AND PUSH1 0x4 DUP4 ADD MSTORE PUSH1 0x24 DUP3 ADD MSTORE PUSH1 0x44 ADD PUSH1 0x20 PUSH1 0x40 MLOAD DUP1 DUP4 SUB DUP2 PUSH0 DUP8 GAS CALL ISZERO DUP1 ISZERO PUSH2 0x4D5 JUMPI RETURNDATASIZE PUSH0 DUP1 RETURNDATACOPY RETURNDATASIZE PUSH0 REVERT JUMPDEST POP POP POP POP PUSH1 0x40 MLOAD RETURNDATASIZE PUSH1 0x1F NOT PUSH1 0x1F DUP3 ADD AND DUP3 ADD DUP1 PUSH1 0x40 MSTORE POP DUP2 ADD SWAP1 PUSH2 0x4F9 SWAP2 SWAP1 PUSH2 0xB73 JUMP JUMPDEST PUSH2 0x501 JUMPI PUSH0 DUP1 REVERT JUMPDEST PUSH1 0x4 SLOAD PUSH1 0x1 PUSH1 0x1 PUSH1 0xA0 SHL SUB DUP1 DUP5 AND SWAP2 PUSH4 0xA9059CBB SWAP2 AND PUSH2 0x2710 PUSH2 0x526 DUP6 PUSH2 0x3E8 PUSH2 0xB2B JUMP JUMPDEST PUSH2 0x530 SWAP2 SWAP1 PUSH2 0xB54 JUMP JUMPDEST PUSH1 0x40 MLOAD PUSH1 0x1 PUSH1 0x1 PUSH1 0xE0 SHL SUB NOT PUSH1 0xE0 DUP6 SWAP1 SHL AND DUP2 MSTORE PUSH1 0x1 PUSH1 0x1 PUSH1 0xA0 SHL SUB SWAP1 SWAP3 AND PUSH1 0x4 DUP4 ADD MSTORE PUSH1 0x24 DUP3 ADD MSTORE PUSH1 0x44 ADD PUSH1 0x20 PUSH1 0x40 MLOAD DUP1 DUP4 SUB DUP2 PUSH0 DUP8 GAS CALL ISZERO DUP1 ISZERO PUSH2 0x578 JUMPI RETURNDATASIZE PUSH0 DUP1 RETURNDATACOPY RETURNDATASIZE PUSH0 REVERT JUMPDEST POP POP POP POP PUSH1 0x40 MLOAD RETURNDATASIZE PUSH1 0x1F NOT PUSH1 0x1F DUP3 ADD AND DUP3 ADD DUP1 PUSH1 0x40 MSTORE POP DUP2 ADD SWAP1 PUSH2 0x59C SWAP2 SWAP1 PUSH2 0xB73 JUMP JUMPDEST PUSH2 0x5A4 JUMPI PUSH0 DUP1 REVERT JUMPDEST PUSH1 0x5 SLOAD PUSH1 0x1 PUSH1 0x1 PUSH1 0xA0 SHL SUB DUP1 DUP5 AND SWAP2 PUSH4 0xA9059CBB SWAP2 AND PUSH2 0x2710 PUSH2 0x5C9 DUP6 PUSH2 0x1F4 PUSH2 0xB2B JUMP JUMPDEST PUSH2 0x5D3 SWAP2 SWAP1 PUSH2 0xB54 JUMP JUMPDEST PUSH1 0x40 MLOAD PUSH1 0x1 PUSH1 0x1 PUSH1 0xE0 SHL SUB NOT PUSH1 0xE0 DUP6 SWAP1 SHL AND DUP2 MSTORE PUSH1 0x1 PUSH1 0x1 PUSH1 0xA0 SHL SUB SWAP1 SWAP3 AND PUSH1 0x4 DUP4 ADD MSTORE PUSH1 0x24 DUP3 ADD MSTORE PUSH1 0x44 ADD PUSH1 0x20 PUSH1 0x40 MLOAD DUP1 DUP4 SUB DUP2 PUSH0 DUP8 GAS CALL ISZERO DUP1 ISZERO PUSH2 0x61B JUMPI RETURNDATASIZE PUSH0 DUP1 RETURNDATACOPY RETURNDATASIZE PUSH0 REVERT JUMPDEST POP POP POP POP PUSH1 0x40 MLOAD RETURNDATASIZE PUSH1 0x1F NOT PUSH1 0x1F DUP3 ADD AND DUP3 ADD DUP1 PUSH1 0x40 MSTORE POP DUP2 ADD SWAP1 PUSH2 0x63F SWAP2 SWAP1 PUSH2 0xB73 JUMP JUMPDEST PUSH2 0x647 JUMPI PUSH0 DUP1 REVERT JUMPDEST PUSH1 0x40 DUP1 MLOAD PUSH1 0x1 PUSH1 0x1 PUSH1 0xA0 SHL SUB DUP5 AND DUP2 MSTORE PUSH1 0x20 DUP2 ADD DUP4 SWAP1 MSTORE PUSH32 0x72085D542CC91F8C84E3F39D5B6F0E85B079A416734CE2D5F4A498C846382977 SWAP2 ADD PUSH1 0x40 MLOAD DUP1 SWAP2 SUB SWAP1 LOG1 POP POP JUMP JUMPDEST PUSH0 SLOAD PUSH1 0x1 PUSH1 0x1 PUSH1 0xA0 SHL SUB AND CALLER EQ PUSH2 0x6D7 JUMPI PUSH1 0x40 MLOAD PUSH3 0x461BCD PUSH1 0xE5 SHL DUP2 MSTORE PUSH1 0x20 PUSH1 0x4 DUP3 ADD MSTORE PUSH1 0xE PUSH1 0x24 DUP3 ADD MSTORE PUSH14 0x139BDD08185D5D1A1BDC9A5E9959 PUSH1 0x92 SHL PUSH1 0x44 DUP3 ADD MSTORE PUSH1 0x64 ADD PUSH2 0x259 JUMP JUMPDEST PUSH1 0x1 DUP1 SLOAD PUSH32 0xFFFFFFFFFFFFFFFFFFFFFFFF0000000000000000000000000000000000000000 SWAP1 DUP2 AND PUSH1 0x1 PUSH1 0x1 PUSH1 0xA0 SHL SUB SWAP8 DUP9 AND OR SWAP1 SWAP2 SSTORE PUSH1 0x2 DUP1 SLOAD DUP3 AND SWAP6 DUP8 AND SWAP6 SWAP1 SWAP6 OR SWAP1 SWAP5 SSTORE PUSH1 0x3 DUP1 SLOAD DUP6 AND SWAP4 DUP7 AND SWAP4 SWAP1 SWAP4 OR SWAP1 SWAP3 SSTORE PUSH1 0x4 DUP1 SLOAD DUP5 AND SWAP2 DUP6 AND SWAP2 SWAP1 SWAP2 OR SWAP1 SSTORE PUSH1 0x5 DUP1 SLOAD SWAP1 SWAP3 AND SWAP3 AND SWAP2 SWAP1 SWAP2 OR SWAP1 SSTORE JUMP JUMPDEST PUSH0 SLOAD PUSH1 0x1 PUSH1 0x1 PUSH1 0xA0 SHL SUB AND CALLER EQ PUSH2 0x798 JUMPI PUSH1 0x40 MLOAD PUSH3 0x461BCD PUSH1 0xE5 SHL DUP2 MSTORE PUSH1 0x20 PUSH1 0x4 DUP3 ADD MSTORE PUSH1 0xE PUSH1 0x24 DUP3 ADD MSTORE PUSH14 0x139BDD08185D5D1A1BDC9A5E9959 PUSH1 0x92 SHL PUSH1 0x44 DUP3 ADD MSTORE PUSH1 0x64 ADD PUSH2 0x259 JUMP JUMPDEST DUP1 SELFBALANCE LT ISZERO PUSH2 0x7E8 JUMPI PUSH1 0x40 MLOAD PUSH3 0x461BCD PUSH1 0xE5 SHL DUP2 MSTORE PUSH1 0x20 PUSH1 0x4 DUP3 ADD MSTORE PUSH1 0x10 PUSH1 0x24 DUP3 ADD MSTORE PUSH32 0x496E73756666696369656E742045544800000000000000000000000000000000 PUSH1 0x44 DUP3 ADD MSTORE PUSH1 0x64 ADD PUSH2 0x259 JUMP JUMPDEST PUSH1 0x2 SLOAD PUSH1 0x1 SLOAD PUSH1 0x1 PUSH1 0x1 PUSH1 0xA0 SHL SUB SWAP1 DUP2 AND SWAP2 AND EQ DUP1 ISZERO PUSH2 0x818 JUMPI POP PUSH1 0x3 SLOAD PUSH1 0x2 SLOAD PUSH1 0x1 PUSH1 0x1 PUSH1 0xA0 SHL SUB SWAP1 DUP2 AND SWAP2 AND EQ JUMPDEST DUP1 ISZERO PUSH2 0x834 JUMPI POP PUSH1 0x4 SLOAD PUSH1 0x3 SLOAD PUSH1 0x1 PUSH1 0x1 PUSH1 0xA0 SHL SUB SWAP1 DUP2 AND SWAP2 AND EQ JUMPDEST DUP1 ISZERO PUSH2 0x850 JUMPI POP PUSH1 0x5 SLOAD PUSH1 0x4 SLOAD PUSH1 0x1 PUSH1 0x1 PUSH1 0xA0 SHL SUB SWAP1 DUP2 AND SWAP2 AND EQ JUMPDEST ISZERO PUSH2 0x892 JUMPI PUSH1 0x1 SLOAD PUSH1 0x40 MLOAD PUSH1 0x1 PUSH1 0x1 PUSH1 0xA0 SHL SUB SWAP1 SWAP2 AND SWAP1 DUP3 ISZERO PUSH2 0x8FC MUL SWAP1 DUP4 SWAP1 PUSH0 DUP2 DUP2 DUP2 DUP6 DUP9 DUP9 CALL SWAP4 POP POP POP POP ISZERO DUP1 ISZERO PUSH2 0x88C JUMPI RETURNDATASIZE PUSH0 DUP1 RETURNDATACOPY RETURNDATASIZE PUSH0 REVERT JUMPDEST POP PUSH2 0xA19 JUMP JUMPDEST PUSH1 0x1 SLOAD PUSH1 0x1 PUSH1 0x1 PUSH1 0xA0 SHL SUB AND PUSH2 0x8FC PUSH2 0x2710 PUSH2 0x8B0 DUP5 PUSH2 0xFA0 PUSH2 0xB2B JUMP JUMPDEST PUSH2 0x8BA SWAP2 SWAP1 PUSH2 0xB54 JUMP JUMPDEST PUSH1 0x40 MLOAD DUP2 ISZERO SWAP1 SWAP3 MUL SWAP2 PUSH0 DUP2 DUP2 DUP2 DUP6 DUP9 DUP9 CALL SWAP4 POP POP POP POP ISZERO DUP1 ISZERO PUSH2 0x8DF JUMPI RETURNDATASIZE PUSH0 DUP1 RETURNDATACOPY RETURNDATASIZE PUSH0 REVERT JUMPDEST POP PUSH1 0x2 SLOAD PUSH1 0x1 PUSH1 0x1 PUSH1 0xA0 SHL SUB AND PUSH2 0x8FC PUSH2 0x2710 PUSH2 0x8FE DUP5 PUSH2 0x9C4 PUSH2 0xB2B JUMP JUMPDEST PUSH2 0x908 SWAP2 SWAP1 PUSH2 0xB54 JUMP JUMPDEST PUSH1 0x40 MLOAD DUP2 ISZERO SWAP1 SWAP3 MUL SWAP2 PUSH0 DUP2 DUP2 DUP2 DUP6 DUP9 DUP9 CALL SWAP4 POP POP POP POP ISZERO DUP1 ISZERO PUSH2 0x92D JUMPI RETURNDATASIZE PUSH0 DUP1 RETURNDATACOPY RETURNDATASIZE PUSH0 REVERT JUMPDEST POP PUSH1 0x3 SLOAD PUSH1 0x1 PUSH1 0x1 PUSH1 0xA0 SHL SUB AND PUSH2 0x8FC PUSH2 0x2710 PUSH2 0x94C DUP5 PUSH2 0x7D0 PUSH2 0xB2B JUMP JUMPDEST PUSH2 0x956 SWAP2 SWAP1 PUSH2 0xB54 JUMP JUMPDEST PUSH1 0x40 MLOAD DUP2 ISZERO SWAP1 SWAP3 MUL SWAP2 PUSH0 DUP2 DUP2 DUP2 DUP6 DUP9 DUP9 CALL SWAP4 POP POP POP POP ISZERO DUP1 ISZERO PUSH2 0x97B JUMPI RETURNDATASIZE PUSH0 DUP1 RETURNDATACOPY RETURNDATASIZE PUSH0 REVERT JUMPDEST POP PUSH1 0x4 SLOAD PUSH1 0x1 PUSH1 0x1 PUSH1 0xA0 SHL SUB AND PUSH2 0x8FC PUSH2 0x2710 PUSH2 0x99A DUP5 PUSH2 0x3E8 PUSH2 0xB2B JUMP JUMPDEST PUSH2 0x9A4 SWAP2 SWAP1 PUSH2 0xB54 JUMP JUMPDEST PUSH1 0x40 MLOAD DUP2 ISZERO SWAP1 SWAP3 MUL SWAP2 PUSH0 DUP2 DUP2 DUP2 DUP6 DUP9 DUP9 CALL SWAP4 POP POP POP POP ISZERO DUP1 ISZERO PUSH2 0x9C9 JUMPI RETURNDATASIZE PUSH0 DUP1 RETURNDATACOPY RETURNDATASIZE PUSH0 REVERT JUMPDEST POP PUSH1 0x5 SLOAD PUSH1 0x1 PUSH1 0x1 PUSH1 0xA0 SHL SUB AND PUSH2 0x8FC PUSH2 0x2710 PUSH2 0x9E8 DUP5 PUSH2 0x1F4 PUSH2 0xB2B JUMP JUMPDEST PUSH2 0x9F2 SWAP2 SWAP1 PUSH2 0xB54 JUMP JUMPDEST PUSH1 0x40 MLOAD DUP2 ISZERO SWAP1 SWAP3 MUL SWAP2 PUSH0 DUP2 DUP2 DUP2 DUP6 DUP9 DUP9 CALL SWAP4 POP POP POP POP ISZERO DUP1 ISZERO PUSH2 0xA17 JUMPI RETURNDATASIZE PUSH0 DUP1 RETURNDATACOPY RETURNDATASIZE PUSH0 REVERT JUMPDEST POP JUMPDEST PUSH1 0x40 MLOAD DUP2 DUP2 MSTORE PUSH32 0xEE5C3C42FEE98395117C1860FA4E70D5C9C568A5AD10B52C570D499B0CABC6D6 SWAP1 PUSH1 0x20 ADD PUSH1 0x40 MLOAD DUP1 SWAP2 SUB SWAP1 LOG1 POP JUMP JUMPDEST PUSH1 0x1 PUSH1 0x1 PUSH1 0xA0 SHL SUB DUP2 AND DUP2 EQ PUSH2 0xA63 JUMPI PUSH0 DUP1 REVERT JUMPDEST POP JUMP JUMPDEST PUSH0 DUP1 PUSH1 0x40 DUP4 DUP6 SUB SLT ISZERO PUSH2 0xA77 JUMPI PUSH0 DUP1 REVERT JUMPDEST DUP3 CALLDATALOAD PUSH2 0xA82 DUP2 PUSH2 0xA4F JUMP JUMPDEST SWAP5 PUSH1 0x20 SWAP4 SWAP1 SWAP4 ADD CALLDATALOAD SWAP4 POP POP POP JUMP JUMPDEST PUSH0 DUP1 PUSH0 DUP1 PUSH0 PUSH1 0xA0 DUP7 DUP9 SUB SLT ISZERO PUSH2 0xAA4 JUMPI PUSH0 DUP1 REVERT JUMPDEST DUP6 CALLDATALOAD PUSH2 0xAAF DUP2 PUSH2 0xA4F JUMP JUMPDEST SWAP5 POP PUSH1 0x20 DUP7 ADD CALLDATALOAD PUSH2 0xABF DUP2 PUSH2 0xA4F JUMP JUMPDEST SWAP4 POP PUSH1 0x40 DUP7 ADD CALLDATALOAD PUSH2 0xACF DUP2 PUSH2 0xA4F JUMP JUMPDEST SWAP3 POP PUSH1 0x60 DUP7 ADD CALLDATALOAD PUSH2 0xADF DUP2 PUSH2 0xA4F JUMP JUMPDEST SWAP2 POP PUSH1 0x80 DUP7 ADD CALLDATALOAD PUSH2 0xAEF DUP2 PUSH2 0xA4F JUMP JUMPDEST DUP1 SWAP2 POP POP SWAP3 SWAP6 POP SWAP3 SWAP6 SWAP1 SWAP4 POP JUMP JUMPDEST PUSH0 PUSH1 0x20 DUP3 DUP5 SUB SLT ISZERO PUSH2 0xB0D JUMPI PUSH0 DUP1 REVERT JUMPDEST POP CALLDATALOAD SWAP2 SWAP1 POP JUMP JUMPDEST PUSH0 PUSH1 0x20 DUP3 DUP5 SUB SLT ISZERO PUSH2 0xB24 JUMPI PUSH0 DUP1 REVERT JUMPDEST POP MLOAD SWAP2 SWAP1 POP JUMP JUMPDEST DUP1 DUP3 MUL DUP2 ISZERO DUP3 DUP3 DIV DUP5 EQ OR PUSH2 0xB4E JUMPI PUSH4 0x4E487B71 PUSH1 0xE0 SHL PUSH0 MSTORE PUSH1 0x11 PUSH1 0x4 MSTORE PUSH1 0x24 PUSH0 REVERT JUMPDEST SWAP3 SWAP2 POP POP JUMP JUMPDEST PUSH0 DUP3 PUSH2 0xB6E JUMPI PUSH4 0x4E487B71 PUSH1 0xE0 SHL PUSH0 MSTORE PUSH1 0x12 PUSH1 0x4 MSTORE PUSH1 0x24 PUSH0 REVERT JUMPDEST POP DIV SWAP1 JUMP JUMPDEST PUSH0 PUSH1 0x20 DUP3 DUP5 SUB SLT ISZERO PUSH2 0xB83 JUMPI PUSH0 DUP1 REVERT JUMPDEST DUP2 MLOAD DUP1 ISZERO ISZERO DUP2 EQ PUSH2 0xB92 JUMPI PUSH0 DUP1 REVERT JUMPDEST SWAP4 SWAP3 POP POP POP JUMP INVALID LOG2 PUSH5 0x6970667358 0x22 SLT KECCAK256 0xC4 MSTORE SWAP11 SWAP2 PUSH4 0xA3727AB0 SWAP3 DUP1 LOG2 0xDF PUSH22 0x9C33365BC957441ED0786C8D67D26A22982B64736F6C PUSH4 0x43000819 STOP CALLER "
    },
    "gasEstimates": {
      "creation": {
        "codeDepositCost": "604600",
        "executionCost": "146008",
        "totalCost": "750608"
      },
      "external": {
        "BPS()": "207",
        "distributeETHManually(uint256)": "infinite",
        "distributeTokenManually(address,uint256)": "infinite",
        "marketingWallet()": "2359",
        "owner()": "2380",
        "rndWallet()": "2382",
        "teamWallet()": "2381",
        "treasuryWallet()": "2359",
        "updateRecipients(address,address,address,address,address)": "infinite",
        "validatorPool()": "2358"
      }
    },
    "methodIdentifiers": {
      "BPS()": "249d39e9",
      "distributeETHManually(uint256)": "e8490706",
      "distributeTokenManually(address,uint256)": "63a8a551",
      "marketingWallet()": "75f0a874",
      "owner()": "8da5cb5b",
      "rndWallet()": "3f0c4125",
      "teamWallet()": "59927044",
      "treasuryWallet()": "4626402b",
      "updateRecipients(address,address,address,address,address)": "db5b4d91",
      "validatorPool()": "d4c6d1de"
    }
  },
  "storageLayout": {
    "storage": [
      {
        "astId": 2018,
        "contract": "FeeDistributor_1751751092126.sol:FeeDistributor",
        "label": "owner",
        "offset": 0,
        "slot": "0",
        "type": "t_address"
      },
      {
        "astId": 2021,
        "contract": "FeeDistributor_1751751092126.sol:FeeDistributor",
        "label": "validatorPool",
        "offset": 0,
        "slot": "1",
        "type": "t_address"
      },
      {
        "astId": 2024,
        "contract": "FeeDistributor_1751751092126.sol:FeeDistributor",
        "label": "teamWallet",
        "offset": 0,
        "slot": "2",
        "type": "t_address"
      },
      {
        "astId": 2027,
        "contract": "FeeDistributor_1751751092126.sol:FeeDistributor",
        "label": "treasuryWallet",
        "offset": 0,
        "slot": "3",
        "type": "t_address"
      },
      {
        "astId": 2030,
        "contract": "FeeDistributor_1751751092126.sol:FeeDistributor",
        "label": "marketingWallet",
        "offset": 0,
        "slot": "4",
        "type": "t_address"
      },
      {
        "astId": 2033,
        "contract": "FeeDistributor_1751751092126.sol:FeeDistributor",
        "label": "rndWallet",
        "offset": 0,
        "slot": "5",
        "type": "t_address"
      }
    ],
    "types": {
      "t_address": {
        "encoding": "inplace",
        "label": "address",
        "numberOfBytes": "20"
      }
    }
  },
  "userdoc": {
    "kind": "user",
    "methods": {},
    "version": 1
  }
}