{
  "abi": [
    {
      "inputs": [
        {
          "internalType": "address",
          "name": "_campaignOwner",
          "type": "address"
        },
        {
          "internalType": "uint256",
          "name": "_goal",
          "type": "uint256"
        },
        {
          "internalType": "uint256",
          "name": "_duration",
          "type": "uint256"
        },
        {
          "internalType": "address",
          "name": "_flwToken",
          "type": "address"
        },
        {
          "internalType": "address",
          "name": "_feeDistributor",
          "type": "address"
        },
        {
          "internalType": "string",
          "name": "_title",
          "type": "string"
        },
        {
          "internalType": "string",
          "name": "_description",
          "type": "string"
        },
        {
          "internalType": "string",
          "name": "_imageUrl",
          "type": "string"
        }
      ],
      "stateMutability": "nonpayable",
      "type": "constructor"
    },
    {
      "anonymous": false,
      "inputs": [
        {
          "indexed": false,
          "internalType": "string",
          "name": "message",
          "type": "string"
        },
        {
          "indexed": false,
          "internalType": "uint256",
          "name": "timestamp",
          "type": "uint256"
        }
      ],
      "name": "UpdatePosted",
      "type": "event"
    },
    {
      "anonymous": false,
      "inputs": [
        {
          "indexed": true,
          "internalType": "address",
          "name": "owner",
          "type": "address"
        },
        {
          "indexed": false,
          "internalType": "uint256",
          "name": "ethAmount",
          "type": "uint256"
        },
        {
          "indexed": false,
          "internalType": "uint256",
          "name": "tokenAmount",
          "type": "uint256"
        }
      ],
      "name": "WithdrawAttempt",
      "type": "event"
    },
    {
      "anonymous": false,
      "inputs": [
        {
          "indexed": false,
          "internalType": "bool",
          "name": "ethSent",
          "type": "bool"
        },
        {
          "indexed": false,
          "internalType": "bool",
          "name": "tokenSent",
          "type": "bool"
        }
      ],
      "name": "WithdrawSuccess",
      "type": "event"
    },
    {
      "inputs": [],
      "name": "campaignOwner",
      "outputs": [
        {
          "internalType": "address",
          "name": "",
          "type": "address"
        }
      ],
      "stateMutability": "view",
      "type": "function"
    },
    {
      "inputs": [
        {
          "internalType": "address",
          "name": "to",
          "type": "address"
        }
      ],
      "name": "collectAllFees",
      "outputs": [],
      "stateMutability": "nonpayable",
      "type": "function"
    },
    {
      "inputs": [
        {
          "internalType": "address",
          "name": "to",
          "type": "address"
        }
      ],
      "name": "collectETHFees",
      "outputs": [],
      "stateMutability": "nonpayable",
      "type": "function"
    },
    {
      "inputs": [
        {
          "internalType": "address",
          "name": "token",
          "type": "address"
        },
        {
          "internalType": "address",
          "name": "to",
          "type": "address"
        }
      ],
      "name": "collectTokenFees",
      "outputs": [],
      "stateMutability": "nonpayable",
      "type": "function"
    },
    {
      "inputs": [],
      "name": "deadline",
      "outputs": [
        {
          "internalType": "uint256",
          "name": "",
          "type": "uint256"
        }
      ],
      "stateMutability": "view",
      "type": "function"
    },
    {
      "inputs": [],
      "name": "description",
      "outputs": [
        {
          "internalType": "string",
          "name": "",
          "type": "string"
        }
      ],
      "stateMutability": "view",
      "type": "function"
    },
    {
      "inputs": [],
      "name": "donateETH",
      "outputs": [],
      "stateMutability": "payable",
      "type": "function"
    },
    {
      "inputs": [
        {
          "internalType": "address",
          "name": "token",
          "type": "address"
        },
        {
          "internalType": "uint256",
          "name": "amount",
          "type": "uint256"
        }
      ],
      "name": "donateToken",
      "outputs": [],
      "stateMutability": "nonpayable",
      "type": "function"
    },
    {
      "inputs": [
        {
          "internalType": "address",
          "name": "",
          "type": "address"
        }
      ],
      "name": "ethContributions",
      "outputs": [
        {
          "internalType": "uint256",
          "name": "",
          "type": "uint256"
        }
      ],
      "stateMutability": "view",
      "type": "function"
    },
    {
      "inputs": [],
      "name": "ethFeesCollected",
      "outputs": [
        {
          "internalType": "uint256",
          "name": "",
          "type": "uint256"
        }
      ],
      "stateMutability": "view",
      "type": "function"
    },
    {
      "inputs": [],
      "name": "factory",
      "outputs": [
        {
          "internalType": "address",
          "name": "",
          "type": "address"
        }
      ],
      "stateMutability": "view",
      "type": "function"
    },
    {
      "inputs": [],
      "name": "feeDistributor",
      "outputs": [
        {
          "internalType": "address",
          "name": "",
          "type": "address"
        }
      ],
      "stateMutability": "view",
      "type": "function"
    },
    {
      "inputs": [],
      "name": "flwToken",
      "outputs": [
        {
          "internalType": "address",
          "name": "",
          "type": "address"
        }
      ],
      "stateMutability": "view",
      "type": "function"
    },
    {
      "inputs": [],
      "name": "getDeadline",
      "outputs": [
        {
          "internalType": "uint256",
          "name": "",
          "type": "uint256"
        }
      ],
      "stateMutability": "view",
      "type": "function"
    },
    {
      "inputs": [],
      "name": "getDescription",
      "outputs": [
        {
          "internalType": "string",
          "name": "",
          "type": "string"
        }
      ],
      "stateMutability": "view",
      "type": "function"
    },
    {
      "inputs": [],
      "name": "getFactory",
      "outputs": [
        {
          "internalType": "address",
          "name": "",
          "type": "address"
        }
      ],
      "stateMutability": "view",
      "type": "function"
    },
    {
      "inputs": [],
      "name": "getFeeBalances",
      "outputs": [
        {
          "internalType": "uint256",
          "name": "ethFees",
          "type": "uint256"
        },
        {
          "internalType": "uint256",
          "name": "flwFees",
          "type": "uint256"
        }
      ],
      "stateMutability": "view",
      "type": "function"
    },
    {
      "inputs": [],
      "name": "getGoal",
      "outputs": [
        {
          "internalType": "uint256",
          "name": "",
          "type": "uint256"
        }
      ],
      "stateMutability": "view",
      "type": "function"
    },
    {
      "inputs": [],
      "name": "getImageUrl",
      "outputs": [
        {
          "internalType": "string",
          "name": "",
          "type": "string"
        }
      ],
      "stateMutability": "view",
      "type": "function"
    },
    {
      "inputs": [],
      "name": "getPlatformOwner",
      "outputs": [
        {
          "internalType": "address",
          "name": "",
          "type": "address"
        }
      ],
      "stateMutability": "view",
      "type": "function"
    },
    {
      "inputs": [],
      "name": "getTitle",
      "outputs": [
        {
          "internalType": "string",
          "name": "",
          "type": "string"
        }
      ],
      "stateMutability": "view",
      "type": "function"
    },
    {
      "inputs": [],
      "name": "getTotalBalance",
      "outputs": [
        {
          "internalType": "uint256",
          "name": "ethBalance",
          "type": "uint256"
        },
        {
          "internalType": "uint256",
          "name": "flwBalance",
          "type": "uint256"
        }
      ],
      "stateMutability": "view",
      "type": "function"
    },
    {
      "inputs": [
        {
          "internalType": "uint256",
          "name": "index",
          "type": "uint256"
        }
      ],
      "name": "getUpdate",
      "outputs": [
        {
          "internalType": "string",
          "name": "",
          "type": "string"
        },
        {
          "internalType": "uint256",
          "name": "",
          "type": "uint256"
        }
      ],
      "stateMutability": "view",
      "type": "function"
    },
    {
      "inputs": [],
      "name": "getUpdateCount",
      "outputs": [
        {
          "internalType": "uint256",
          "name": "",
          "type": "uint256"
        }
      ],
      "stateMutability": "view",
      "type": "function"
    },
    {
      "inputs": [],
      "name": "getWithdrawableAmount",
      "outputs": [
        {
          "internalType": "uint256",
          "name": "ethAmount",
          "type": "uint256"
        },
        {
          "internalType": "uint256",
          "name": "flwAmount",
          "type": "uint256"
        }
      ],
      "stateMutability": "view",
      "type": "function"
    },
    {
      "inputs": [],
      "name": "goal",
      "outputs": [
        {
          "internalType": "uint256",
          "name": "",
          "type": "uint256"
        }
      ],
      "stateMutability": "view",
      "type": "function"
    },
    {
      "inputs": [],
      "name": "hasEnded",
      "outputs": [
        {
          "internalType": "bool",
          "name": "",
          "type": "bool"
        }
      ],
      "stateMutability": "view",
      "type": "function"
    },
    {
      "inputs": [],
      "name": "imageUrl",
      "outputs": [
        {
          "internalType": "string",
          "name": "",
          "type": "string"
        }
      ],
      "stateMutability": "view",
      "type": "function"
    },
    {
      "inputs": [],
      "name": "isActive",
      "outputs": [
        {
          "internalType": "bool",
          "name": "",
          "type": "bool"
        }
      ],
      "stateMutability": "view",
      "type": "function"
    },
    {
      "inputs": [],
      "name": "owner",
      "outputs": [
        {
          "internalType": "address",
          "name": "",
          "type": "address"
        }
      ],
      "stateMutability": "view",
      "type": "function"
    },
    {
      "inputs": [
        {
          "internalType": "string",
          "name": "message",
          "type": "string"
        }
      ],
      "name": "postUpdate",
      "outputs": [],
      "stateMutability": "nonpayable",
      "type": "function"
    },
    {
      "inputs": [],
      "name": "title",
      "outputs": [
        {
          "internalType": "string",
          "name": "",
          "type": "string"
        }
      ],
      "stateMutability": "view",
      "type": "function"
    },
    {
      "inputs": [
        {
          "internalType": "address",
          "name": "",
          "type": "address"
        },
        {
          "internalType": "address",
          "name": "",
          "type": "address"
        }
      ],
      "name": "tokenContributions",
      "outputs": [
        {
          "internalType": "uint256",
          "name": "",
          "type": "uint256"
        }
      ],
      "stateMutability": "view",
      "type": "function"
    },
    {
      "inputs": [
        {
          "internalType": "address",
          "name": "",
          "type": "address"
        }
      ],
      "name": "tokenFeesCollected",
      "outputs": [
        {
          "internalType": "uint256",
          "name": "",
          "type": "uint256"
        }
      ],
      "stateMutability": "view",
      "type": "function"
    },
    {
      "inputs": [
        {
          "internalType": "uint256",
          "name": "",
          "type": "uint256"
        }
      ],
      "name": "updateMessages",
      "outputs": [
        {
          "internalType": "string",
          "name": "",
          "type": "string"
        }
      ],
      "stateMutability": "view",
      "type": "function"
    },
    {
      "inputs": [
        {
          "internalType": "uint256",
          "name": "",
          "type": "uint256"
        }
      ],
      "name": "updateTimestamps",
      "outputs": [
        {
          "internalType": "uint256",
          "name": "",
          "type": "uint256"
        }
      ],
      "stateMutability": "view",
      "type": "function"
    },
    {
      "inputs": [
        {
          "internalType": "uint256",
          "name": "",
          "type": "uint256"
        }
      ],
      "name": "updates",
      "outputs": [
        {
          "internalType": "address",
          "name": "",
          "type": "address"
        }
      ],
      "stateMutability": "view",
      "type": "function"
    },
    {
      "inputs": [],
      "name": "withdraw",
      "outputs": [],
      "stateMutability": "nonpayable",
      "type": "function"
    },
    {
      "stateMutability": "payable",
      "type": "receive"
    }
  ],
  "devdoc": {
    "kind": "dev",
    "methods": {},
    "version": 1
  },
  "evm": {
    "assembly": "    /* \"Campaign-Fixed-v2.sol\":423:7676  contract Campaign {... */\n  mstore(0x40, 0x80)\n    /* \"Campaign-Fixed-v2.sol\":1626:2535  constructor(... */\n  callvalue\n  dup1\n  iszero\n  tag_1\n  jumpi\n  0x00\n  dup1\n  revert\ntag_1:\n  pop\n  mload(0x40)\n  sub(codesize, bytecodeSize)\n  dup1\n  bytecodeSize\n  dup4\n  codecopy\n  dup2\n  add\n  0x40\n  dup2\n  swap1\n  mstore\n  tag_2\n  swap2\n  tag_3\n  jump\t// in\ntag_2:\n  sub(shl(0xa0, 0x01), 0x01)\n    /* \"Campaign-Fixed-v2.sol\":1903:1931  _campaignOwner != address(0) */\n  dup9\n  and\n    /* \"Campaign-Fixed-v2.sol\":1895:1959  require(_campaignOwner != address(0), \"Campaign owner required\") */\n  tag_6\n  jumpi\n  mload(0x40)\n  shl(0xe5, 0x461bcd)\n  dup2\n  mstore\n    /* \"#utility.yul\":2404:2406   */\n  0x20\n    /* \"Campaign-Fixed-v2.sol\":1895:1959  require(_campaignOwner != address(0), \"Campaign owner required\") */\n  0x04\n  dup3\n  add\n    /* \"#utility.yul\":2386:2407   */\n  mstore\n    /* \"#utility.yul\":2443:2445   */\n  0x17\n    /* \"#utility.yul\":2423:2441   */\n  0x24\n  dup3\n  add\n    /* \"#utility.yul\":2416:2446   */\n  mstore\n    /* \"#utility.yul\":2482:2507   */\n  0x43616d706169676e206f776e6572207265717569726564000000000000000000\n    /* \"#utility.yul\":2462:2480   */\n  0x44\n  dup3\n  add\n    /* \"#utility.yul\":2455:2508   */\n  mstore\n    /* \"#utility.yul\":2525:2543   */\n  0x64\n  add\n    /* \"Campaign-Fixed-v2.sol\":1895:1959  require(_campaignOwner != address(0), \"Campaign owner required\") */\ntag_7:\n  mload(0x40)\n  dup1\n  swap2\n  sub\n  swap1\n  revert\ntag_6:\n    /* \"Campaign-Fixed-v2.sol\":1985:1986  0 */\n  0x00\n    /* \"Campaign-Fixed-v2.sol\":1977:1982  _goal */\n  dup8\n    /* \"Campaign-Fixed-v2.sol\":1977:1986  _goal > 0 */\n  gt\n    /* \"Campaign-Fixed-v2.sol\":1969:2007  require(_goal > 0, \"Goal must be > 0\") */\n  tag_9\n  jumpi\n  mload(0x40)\n  shl(0xe5, 0x461bcd)\n  dup2\n  mstore\n    /* \"#utility.yul\":2756:2758   */\n  0x20\n    /* \"Campaign-Fixed-v2.sol\":1969:2007  require(_goal > 0, \"Goal must be > 0\") */\n  0x04\n  dup3\n  add\n    /* \"#utility.yul\":2738:2759   */\n  mstore\n    /* \"#utility.yul\":2795:2797   */\n  0x10\n    /* \"#utility.yul\":2775:2793   */\n  0x24\n  dup3\n  add\n    /* \"#utility.yul\":2768:2798   */\n  mstore\n  shl(0x84, 0x0476f616c206d757374206265203e203)\n    /* \"#utility.yul\":2814:2832   */\n  0x44\n  dup3\n  add\n    /* \"#utility.yul\":2807:2853   */\n  mstore\n    /* \"#utility.yul\":2870:2888   */\n  0x64\n  add\n    /* \"Campaign-Fixed-v2.sol\":1969:2007  require(_goal > 0, \"Goal must be > 0\") */\n  tag_7\n    /* \"#utility.yul\":2554:2894   */\n  jump\n    /* \"Campaign-Fixed-v2.sol\":1969:2007  require(_goal > 0, \"Goal must be > 0\") */\ntag_9:\n    /* \"Campaign-Fixed-v2.sol\":2037:2038  0 */\n  0x00\n    /* \"Campaign-Fixed-v2.sol\":2025:2034  _duration */\n  dup7\n    /* \"Campaign-Fixed-v2.sol\":2025:2038  _duration > 0 */\n  gt\n    /* \"Campaign-Fixed-v2.sol\":2017:2060  require(_duration > 0, \"Duration required\") */\n  tag_12\n  jumpi\n  mload(0x40)\n  shl(0xe5, 0x461bcd)\n  dup2\n  mstore\n    /* \"#utility.yul\":3101:3103   */\n  0x20\n    /* \"Campaign-Fixed-v2.sol\":2017:2060  require(_duration > 0, \"Duration required\") */\n  0x04\n  dup3\n  add\n    /* \"#utility.yul\":3083:3104   */\n  mstore\n    /* \"#utility.yul\":3140:3142   */\n  0x11\n    /* \"#utility.yul\":3120:3138   */\n  0x24\n  dup3\n  add\n    /* \"#utility.yul\":3113:3143   */\n  mstore\n  shl(0x7a, 0x111d5c985d1a5bdb881c995c5d5a5c9959)\n    /* \"#utility.yul\":3159:3177   */\n  0x44\n  dup3\n  add\n    /* \"#utility.yul\":3152:3199   */\n  mstore\n    /* \"#utility.yul\":3216:3234   */\n  0x64\n  add\n    /* \"Campaign-Fixed-v2.sol\":2017:2060  require(_duration > 0, \"Duration required\") */\n  tag_7\n    /* \"#utility.yul\":2899:3240   */\n  jump\n    /* \"Campaign-Fixed-v2.sol\":2017:2060  require(_duration > 0, \"Duration required\") */\ntag_12:\n  sub(shl(0xa0, 0x01), 0x01)\n    /* \"Campaign-Fixed-v2.sol\":2078:2101  _flwToken != address(0) */\n  dup6\n  and\n    /* \"Campaign-Fixed-v2.sol\":2070:2124  require(_flwToken != address(0), \"FLW token required\") */\n  tag_15\n  jumpi\n  mload(0x40)\n  shl(0xe5, 0x461bcd)\n  dup2\n  mstore\n    /* \"#utility.yul\":3447:3449   */\n  0x20\n    /* \"Campaign-Fixed-v2.sol\":2070:2124  require(_flwToken != address(0), \"FLW token required\") */\n  0x04\n  dup3\n  add\n    /* \"#utility.yul\":3429:3450   */\n  mstore\n    /* \"#utility.yul\":3486:3488   */\n  0x12\n    /* \"#utility.yul\":3466:3484   */\n  0x24\n  dup3\n  add\n    /* \"#utility.yul\":3459:3489   */\n  mstore\n  shl(0x72, 0x119315c81d1bdad95b881c995c5d5a5c9959)\n    /* \"#utility.yul\":3505:3523   */\n  0x44\n  dup3\n  add\n    /* \"#utility.yul\":3498:3546   */\n  mstore\n    /* \"#utility.yul\":3563:3581   */\n  0x64\n  add\n    /* \"Campaign-Fixed-v2.sol\":2070:2124  require(_flwToken != address(0), \"FLW token required\") */\n  tag_7\n    /* \"#utility.yul\":3245:3587   */\n  jump\n    /* \"Campaign-Fixed-v2.sol\":2070:2124  require(_flwToken != address(0), \"FLW token required\") */\ntag_15:\n  sub(shl(0xa0, 0x01), 0x01)\n    /* \"Campaign-Fixed-v2.sol\":2142:2171  _feeDistributor != address(0) */\n  dup5\n  and\n    /* \"Campaign-Fixed-v2.sol\":2134:2199  require(_feeDistributor != address(0), \"FeeDistributor required\") */\n  tag_18\n  jumpi\n  mload(0x40)\n  shl(0xe5, 0x461bcd)\n  dup2\n  mstore\n    /* \"#utility.yul\":3794:3796   */\n  0x20\n    /* \"Campaign-Fixed-v2.sol\":2134:2199  require(_feeDistributor != address(0), \"FeeDistributor required\") */\n  0x04\n  dup3\n  add\n    /* \"#utility.yul\":3776:3797   */\n  mstore\n    /* \"#utility.yul\":3833:3835   */\n  0x17\n    /* \"#utility.yul\":3813:3831   */\n  0x24\n  dup3\n  add\n    /* \"#utility.yul\":3806:3836   */\n  mstore\n    /* \"#utility.yul\":3872:3897   */\n  0x4665654469737472696275746f72207265717569726564000000000000000000\n    /* \"#utility.yul\":3852:3870   */\n  0x44\n  dup3\n  add\n    /* \"#utility.yul\":3845:3898   */\n  mstore\n    /* \"#utility.yul\":3915:3933   */\n  0x64\n  add\n    /* \"Campaign-Fixed-v2.sol\":2134:2199  require(_feeDistributor != address(0), \"FeeDistributor required\") */\n  tag_7\n    /* \"#utility.yul\":3592:3939   */\n  jump\n    /* \"Campaign-Fixed-v2.sol\":2134:2199  require(_feeDistributor != address(0), \"FeeDistributor required\") */\ntag_18:\n    /* \"Campaign-Fixed-v2.sol\":2210:2223  campaignOwner */\n  0x00\n    /* \"Campaign-Fixed-v2.sol\":2210:2240  campaignOwner = _campaignOwner */\n  dup1\n  sload\n  sub(shl(0xa0, 0x01), 0x01)\n  dup11\n  and\n  not(sub(shl(0xa0, 0x01), 0x01))\n  swap2\n  dup3\n  and\n  or\n  swap1\n  swap2\n  sstore\n  0x01\n    /* \"Campaign-Fixed-v2.sol\":2250:2270  factory = msg.sender */\n  dup1\n  sload\n  swap1\n  swap2\n  and\n    /* \"Campaign-Fixed-v2.sol\":2260:2270  msg.sender */\n  caller\n    /* \"Campaign-Fixed-v2.sol\":2250:2270  factory = msg.sender */\n  or\n  swap1\n  sstore\n    /* \"Campaign-Fixed-v2.sol\":2306:2310  goal */\n  0x02\n    /* \"Campaign-Fixed-v2.sol\":2306:2318  goal = _goal */\n  dup8\n  swap1\n  sstore\n    /* \"Campaign-Fixed-v2.sol\":2339:2366  block.timestamp + _duration */\n  tag_21\n    /* \"Campaign-Fixed-v2.sol\":2357:2366  _duration */\n  dup7\n    /* \"Campaign-Fixed-v2.sol\":2339:2354  block.timestamp */\n  timestamp\n    /* \"Campaign-Fixed-v2.sol\":2339:2366  block.timestamp + _duration */\n  tag_22\n  jump\t// in\ntag_21:\n    /* \"Campaign-Fixed-v2.sol\":2328:2336  deadline */\n  0x03\n    /* \"Campaign-Fixed-v2.sol\":2328:2366  deadline = block.timestamp + _duration */\n  sstore\n    /* \"Campaign-Fixed-v2.sol\":2376:2384  flwToken */\n  0x04\n    /* \"Campaign-Fixed-v2.sol\":2376:2396  flwToken = _flwToken */\n  dup1\n  sload\n  sub(shl(0xa0, 0x01), 0x01)\n  dup1\n  dup9\n  and\n  not(sub(shl(0xa0, 0x01), 0x01))\n  swap3\n  dup4\n  and\n  or\n  swap1\n  swap3\n  sstore\n    /* \"Campaign-Fixed-v2.sol\":2406:2420  feeDistributor */\n  0x05\n    /* \"Campaign-Fixed-v2.sol\":2406:2438  feeDistributor = _feeDistributor */\n  dup1\n  sload\n  swap3\n  dup8\n  and\n  swap3\n  swap1\n  swap2\n  and\n  swap2\n  swap1\n  swap2\n  or\n  swap1\n  sstore\n    /* \"Campaign-Fixed-v2.sol\":2448:2453  title */\n  0x06\n    /* \"Campaign-Fixed-v2.sol\":2448:2462  title = _title */\n  tag_23\n    /* \"Campaign-Fixed-v2.sol\":2456:2462  _title */\n  dup5\n    /* \"Campaign-Fixed-v2.sol\":2448:2453  title */\n  dup3\n    /* \"Campaign-Fixed-v2.sol\":2448:2462  title = _title */\n  tag_24\n  jump\t// in\ntag_23:\n  pop\n    /* \"Campaign-Fixed-v2.sol\":2472:2483  description */\n  0x07\n    /* \"Campaign-Fixed-v2.sol\":2472:2498  description = _description */\n  tag_25\n    /* \"Campaign-Fixed-v2.sol\":2486:2498  _description */\n  dup4\n    /* \"Campaign-Fixed-v2.sol\":2472:2483  description */\n  dup3\n    /* \"Campaign-Fixed-v2.sol\":2472:2498  description = _description */\n  tag_24\n  jump\t// in\ntag_25:\n  pop\n    /* \"Campaign-Fixed-v2.sol\":2508:2516  imageUrl */\n  0x08\n    /* \"Campaign-Fixed-v2.sol\":2508:2528  imageUrl = _imageUrl */\n  tag_26\n    /* \"Campaign-Fixed-v2.sol\":2519:2528  _imageUrl */\n  dup3\n    /* \"Campaign-Fixed-v2.sol\":2508:2516  imageUrl */\n  dup3\n    /* \"Campaign-Fixed-v2.sol\":2508:2528  imageUrl = _imageUrl */\n  tag_24\n  jump\t// in\ntag_26:\n  pop\n    /* \"Campaign-Fixed-v2.sol\":1626:2535  constructor(... */\n  pop\n  pop\n  pop\n  pop\n  pop\n  pop\n  pop\n  pop\n    /* \"Campaign-Fixed-v2.sol\":423:7676  contract Campaign {... */\n  jump(tag_35)\n    /* \"#utility.yul\":14:191   */\ntag_28:\n    /* \"#utility.yul\":93:106   */\n  dup1\n  mload\n  sub(shl(0xa0, 0x01), 0x01)\n    /* \"#utility.yul\":135:166   */\n  dup2\n  and\n    /* \"#utility.yul\":125:167   */\n  dup2\n  eq\n    /* \"#utility.yul\":115:185   */\n  tag_37\n  jumpi\n    /* \"#utility.yul\":181:182   */\n  0x00\n    /* \"#utility.yul\":178:179   */\n  dup1\n    /* \"#utility.yul\":171:183   */\n  revert\n    /* \"#utility.yul\":115:185   */\ntag_37:\n    /* \"#utility.yul\":14:191   */\n  swap2\n  swap1\n  pop\n  jump\t// out\n    /* \"#utility.yul\":196:323   */\ntag_29:\n    /* \"#utility.yul\":257:267   */\n  0x4e487b71\n    /* \"#utility.yul\":252:255   */\n  0xe0\n    /* \"#utility.yul\":248:268   */\n  shl\n    /* \"#utility.yul\":245:246   */\n  0x00\n    /* \"#utility.yul\":238:269   */\n  mstore\n    /* \"#utility.yul\":288:292   */\n  0x41\n    /* \"#utility.yul\":285:286   */\n  0x04\n    /* \"#utility.yul\":278:293   */\n  mstore\n    /* \"#utility.yul\":312:316   */\n  0x24\n    /* \"#utility.yul\":309:310   */\n  0x00\n    /* \"#utility.yul\":302:317   */\n  revert\n    /* \"#utility.yul\":328:1044   */\ntag_30:\n    /* \"#utility.yul\":382:387   */\n  0x00\n    /* \"#utility.yul\":435:438   */\n  dup3\n    /* \"#utility.yul\":428:432   */\n  0x1f\n    /* \"#utility.yul\":420:426   */\n  dup4\n    /* \"#utility.yul\":416:433   */\n  add\n    /* \"#utility.yul\":412:439   */\n  slt\n    /* \"#utility.yul\":402:457   */\n  tag_40\n  jumpi\n    /* \"#utility.yul\":453:454   */\n  0x00\n    /* \"#utility.yul\":450:451   */\n  dup1\n    /* \"#utility.yul\":443:455   */\n  revert\n    /* \"#utility.yul\":402:457   */\ntag_40:\n    /* \"#utility.yul\":476:489   */\n  dup2\n  mload\n  sub(shl(0x40, 0x01), 0x01)\n    /* \"#utility.yul\":538:548   */\n  dup1\n  dup3\n  gt\n    /* \"#utility.yul\":535:571   */\n  iszero\n  tag_42\n  jumpi\n    /* \"#utility.yul\":551:569   */\n  tag_42\n  tag_29\n  jump\t// in\ntag_42:\n    /* \"#utility.yul\":626:628   */\n  0x40\n    /* \"#utility.yul\":620:629   */\n  mload\n    /* \"#utility.yul\":594:596   */\n  0x1f\n    /* \"#utility.yul\":680:693   */\n  dup4\n  add\n  not(0x1f)\n    /* \"#utility.yul\":676:698   */\n  swap1\n  dup2\n  and\n    /* \"#utility.yul\":700:702   */\n  0x3f\n    /* \"#utility.yul\":672:703   */\n  add\n    /* \"#utility.yul\":668:708   */\n  and\n    /* \"#utility.yul\":656:709   */\n  dup2\n  add\n  swap1\n    /* \"#utility.yul\":724:742   */\n  dup3\n  dup3\n  gt\n    /* \"#utility.yul\":744:766   */\n  dup2\n  dup4\n  lt\n    /* \"#utility.yul\":721:767   */\n  or\n    /* \"#utility.yul\":718:790   */\n  iszero\n  tag_44\n  jumpi\n    /* \"#utility.yul\":770:788   */\n  tag_44\n  tag_29\n  jump\t// in\ntag_44:\n    /* \"#utility.yul\":810:820   */\n  dup2\n    /* \"#utility.yul\":806:808   */\n  0x40\n    /* \"#utility.yul\":799:821   */\n  mstore\n    /* \"#utility.yul\":845:847   */\n  dup4\n    /* \"#utility.yul\":837:843   */\n  dup2\n    /* \"#utility.yul\":830:848   */\n  mstore\n    /* \"#utility.yul\":891:894   */\n  dup7\n    /* \"#utility.yul\":884:888   */\n  0x20\n    /* \"#utility.yul\":879:881   */\n  dup6\n    /* \"#utility.yul\":871:877   */\n  dup9\n    /* \"#utility.yul\":867:882   */\n  add\n    /* \"#utility.yul\":863:889   */\n  add\n    /* \"#utility.yul\":860:895   */\n  gt\n    /* \"#utility.yul\":857:912   */\n  iszero\n  tag_45\n  jumpi\n    /* \"#utility.yul\":908:909   */\n  0x00\n    /* \"#utility.yul\":905:906   */\n  dup1\n    /* \"#utility.yul\":898:910   */\n  revert\n    /* \"#utility.yul\":857:912   */\ntag_45:\n    /* \"#utility.yul\":965:967   */\n  dup4\n    /* \"#utility.yul\":958:962   */\n  0x20\n    /* \"#utility.yul\":950:956   */\n  dup8\n    /* \"#utility.yul\":946:963   */\n  add\n    /* \"#utility.yul\":939:943   */\n  0x20\n    /* \"#utility.yul\":931:937   */\n  dup4\n    /* \"#utility.yul\":927:944   */\n  add\n    /* \"#utility.yul\":921:968   */\n  mcopy\n    /* \"#utility.yul\":1012:1013   */\n  0x00\n    /* \"#utility.yul\":1005:1009   */\n  0x20\n    /* \"#utility.yul\":1000:1002   */\n  dup6\n    /* \"#utility.yul\":992:998   */\n  dup4\n    /* \"#utility.yul\":988:1003   */\n  add\n    /* \"#utility.yul\":984:1010   */\n  add\n    /* \"#utility.yul\":977:1014   */\n  mstore\n    /* \"#utility.yul\":1032:1038   */\n  dup1\n    /* \"#utility.yul\":1023:1038   */\n  swap5\n  pop\n  pop\n  pop\n  pop\n  pop\n    /* \"#utility.yul\":328:1044   */\n  swap3\n  swap2\n  pop\n  pop\n  jump\t// out\n    /* \"#utility.yul\":1049:2197   */\ntag_3:\n    /* \"#utility.yul\":1212:1218   */\n  0x00\n    /* \"#utility.yul\":1220:1226   */\n  dup1\n    /* \"#utility.yul\":1228:1234   */\n  0x00\n    /* \"#utility.yul\":1236:1242   */\n  dup1\n    /* \"#utility.yul\":1244:1250   */\n  0x00\n    /* \"#utility.yul\":1252:1258   */\n  dup1\n    /* \"#utility.yul\":1260:1266   */\n  0x00\n    /* \"#utility.yul\":1268:1274   */\n  dup1\n    /* \"#utility.yul\":1321:1324   */\n  0x0100\n    /* \"#utility.yul\":1309:1318   */\n  dup10\n    /* \"#utility.yul\":1300:1307   */\n  dup12\n    /* \"#utility.yul\":1296:1319   */\n  sub\n    /* \"#utility.yul\":1292:1325   */\n  slt\n    /* \"#utility.yul\":1289:1342   */\n  iszero\n  tag_47\n  jumpi\n    /* \"#utility.yul\":1338:1339   */\n  0x00\n    /* \"#utility.yul\":1335:1336   */\n  dup1\n    /* \"#utility.yul\":1328:1340   */\n  revert\n    /* \"#utility.yul\":1289:1342   */\ntag_47:\n    /* \"#utility.yul\":1361:1401   */\n  tag_48\n    /* \"#utility.yul\":1391:1400   */\n  dup10\n    /* \"#utility.yul\":1361:1401   */\n  tag_28\n  jump\t// in\ntag_48:\n    /* \"#utility.yul\":1351:1401   */\n  swap8\n  pop\n    /* \"#utility.yul\":1441:1443   */\n  0x20\n    /* \"#utility.yul\":1430:1439   */\n  dup10\n    /* \"#utility.yul\":1426:1444   */\n  add\n    /* \"#utility.yul\":1420:1445   */\n  mload\n    /* \"#utility.yul\":1410:1445   */\n  swap7\n  pop\n    /* \"#utility.yul\":1485:1487   */\n  0x40\n    /* \"#utility.yul\":1474:1483   */\n  dup10\n    /* \"#utility.yul\":1470:1488   */\n  add\n    /* \"#utility.yul\":1464:1489   */\n  mload\n    /* \"#utility.yul\":1454:1489   */\n  swap6\n  pop\n    /* \"#utility.yul\":1508:1557   */\n  tag_49\n    /* \"#utility.yul\":1553:1555   */\n  0x60\n    /* \"#utility.yul\":1542:1551   */\n  dup11\n    /* \"#utility.yul\":1538:1556   */\n  add\n    /* \"#utility.yul\":1508:1557   */\n  tag_28\n  jump\t// in\ntag_49:\n    /* \"#utility.yul\":1498:1557   */\n  swap5\n  pop\n    /* \"#utility.yul\":1576:1626   */\n  tag_50\n    /* \"#utility.yul\":1621:1624   */\n  0x80\n    /* \"#utility.yul\":1610:1619   */\n  dup11\n    /* \"#utility.yul\":1606:1625   */\n  add\n    /* \"#utility.yul\":1576:1626   */\n  tag_28\n  jump\t// in\ntag_50:\n    /* \"#utility.yul\":1670:1673   */\n  0xa0\n    /* \"#utility.yul\":1655:1674   */\n  dup11\n  add\n    /* \"#utility.yul\":1649:1675   */\n  mload\n    /* \"#utility.yul\":1566:1626   */\n  swap1\n  swap5\n  pop\n  sub(shl(0x40, 0x01), 0x01)\n    /* \"#utility.yul\":1724:1738   */\n  dup1\n  dup3\n  gt\n    /* \"#utility.yul\":1721:1755   */\n  iszero\n  tag_51\n  jumpi\n    /* \"#utility.yul\":1751:1752   */\n  0x00\n    /* \"#utility.yul\":1748:1749   */\n  dup1\n    /* \"#utility.yul\":1741:1753   */\n  revert\n    /* \"#utility.yul\":1721:1755   */\ntag_51:\n    /* \"#utility.yul\":1774:1835   */\n  tag_52\n    /* \"#utility.yul\":1827:1834   */\n  dup13\n    /* \"#utility.yul\":1818:1824   */\n  dup4\n    /* \"#utility.yul\":1807:1816   */\n  dup14\n    /* \"#utility.yul\":1803:1825   */\n  add\n    /* \"#utility.yul\":1774:1835   */\n  tag_30\n  jump\t// in\ntag_52:\n    /* \"#utility.yul\":1764:1835   */\n  swap5\n  pop\n    /* \"#utility.yul\":1881:1884   */\n  0xc0\n    /* \"#utility.yul\":1870:1879   */\n  dup12\n    /* \"#utility.yul\":1866:1885   */\n  add\n    /* \"#utility.yul\":1860:1886   */\n  mload\n    /* \"#utility.yul\":1844:1886   */\n  swap2\n  pop\n    /* \"#utility.yul\":1911:1913   */\n  dup1\n    /* \"#utility.yul\":1901:1909   */\n  dup3\n    /* \"#utility.yul\":1898:1914   */\n  gt\n    /* \"#utility.yul\":1895:1931   */\n  iszero\n  tag_53\n  jumpi\n    /* \"#utility.yul\":1927:1928   */\n  0x00\n    /* \"#utility.yul\":1924:1925   */\n  dup1\n    /* \"#utility.yul\":1917:1929   */\n  revert\n    /* \"#utility.yul\":1895:1931   */\ntag_53:\n    /* \"#utility.yul\":1950:2013   */\n  tag_54\n    /* \"#utility.yul\":2005:2012   */\n  dup13\n    /* \"#utility.yul\":1994:2002   */\n  dup4\n    /* \"#utility.yul\":1983:1992   */\n  dup14\n    /* \"#utility.yul\":1979:2003   */\n  add\n    /* \"#utility.yul\":1950:2013   */\n  tag_30\n  jump\t// in\ntag_54:\n    /* \"#utility.yul\":1940:2013   */\n  swap4\n  pop\n    /* \"#utility.yul\":2059:2062   */\n  0xe0\n    /* \"#utility.yul\":2048:2057   */\n  dup12\n    /* \"#utility.yul\":2044:2063   */\n  add\n    /* \"#utility.yul\":2038:2064   */\n  mload\n    /* \"#utility.yul\":2022:2064   */\n  swap2\n  pop\n    /* \"#utility.yul\":2089:2091   */\n  dup1\n    /* \"#utility.yul\":2079:2087   */\n  dup3\n    /* \"#utility.yul\":2076:2092   */\n  gt\n    /* \"#utility.yul\":2073:2109   */\n  iszero\n  tag_55\n  jumpi\n    /* \"#utility.yul\":2105:2106   */\n  0x00\n    /* \"#utility.yul\":2102:2103   */\n  dup1\n    /* \"#utility.yul\":2095:2107   */\n  revert\n    /* \"#utility.yul\":2073:2109   */\ntag_55:\n  pop\n    /* \"#utility.yul\":2128:2191   */\n  tag_56\n    /* \"#utility.yul\":2183:2190   */\n  dup12\n    /* \"#utility.yul\":2172:2180   */\n  dup3\n    /* \"#utility.yul\":2161:2170   */\n  dup13\n    /* \"#utility.yul\":2157:2181   */\n  add\n    /* \"#utility.yul\":2128:2191   */\n  tag_30\n  jump\t// in\ntag_56:\n    /* \"#utility.yul\":2118:2191   */\n  swap2\n  pop\n  pop\n    /* \"#utility.yul\":1049:2197   */\n  swap3\n  swap6\n  swap9\n  pop\n  swap3\n  swap6\n  swap9\n  swap1\n  swap4\n  swap7\n  pop\n  jump\t// out\n    /* \"#utility.yul\":3944:4166   */\ntag_22:\n    /* \"#utility.yul\":4009:4018   */\n  dup1\n  dup3\n  add\n    /* \"#utility.yul\":4030:4040   */\n  dup1\n  dup3\n  gt\n    /* \"#utility.yul\":4027:4160   */\n  iszero\n  tag_63\n  jumpi\n    /* \"#utility.yul\":4082:4092   */\n  0x4e487b71\n    /* \"#utility.yul\":4077:4080   */\n  0xe0\n    /* \"#utility.yul\":4073:4093   */\n  shl\n    /* \"#utility.yul\":4070:4071   */\n  0x00\n    /* \"#utility.yul\":4063:4094   */\n  mstore\n    /* \"#utility.yul\":4117:4121   */\n  0x11\n    /* \"#utility.yul\":4114:4115   */\n  0x04\n    /* \"#utility.yul\":4107:4122   */\n  mstore\n    /* \"#utility.yul\":4145:4149   */\n  0x24\n    /* \"#utility.yul\":4142:4143   */\n  0x00\n    /* \"#utility.yul\":4135:4150   */\n  revert\n    /* \"#utility.yul\":4027:4160   */\ntag_63:\n    /* \"#utility.yul\":3944:4166   */\n  swap3\n  swap2\n  pop\n  pop\n  jump\t// out\n    /* \"#utility.yul\":4171:4551   */\ntag_31:\n    /* \"#utility.yul\":4250:4251   */\n  0x01\n    /* \"#utility.yul\":4246:4258   */\n  dup2\n  dup2\n  shr\n  swap1\n    /* \"#utility.yul\":4293:4305   */\n  dup3\n  and\n  dup1\n    /* \"#utility.yul\":4314:4375   */\n  tag_65\n  jumpi\n    /* \"#utility.yul\":4368:4372   */\n  0x7f\n    /* \"#utility.yul\":4360:4366   */\n  dup3\n    /* \"#utility.yul\":4356:4373   */\n  and\n    /* \"#utility.yul\":4346:4373   */\n  swap2\n  pop\n    /* \"#utility.yul\":4314:4375   */\ntag_65:\n    /* \"#utility.yul\":4421:4423   */\n  0x20\n    /* \"#utility.yul\":4413:4419   */\n  dup3\n    /* \"#utility.yul\":4410:4424   */\n  lt\n    /* \"#utility.yul\":4390:4408   */\n  dup2\n    /* \"#utility.yul\":4387:4425   */\n  sub\n    /* \"#utility.yul\":4384:4545   */\n  tag_66\n  jumpi\n    /* \"#utility.yul\":4467:4477   */\n  0x4e487b71\n    /* \"#utility.yul\":4462:4465   */\n  0xe0\n    /* \"#utility.yul\":4458:4478   */\n  shl\n    /* \"#utility.yul\":4455:4456   */\n  0x00\n    /* \"#utility.yul\":4448:4479   */\n  mstore\n    /* \"#utility.yul\":4502:4506   */\n  0x22\n    /* \"#utility.yul\":4499:4500   */\n  0x04\n    /* \"#utility.yul\":4492:4507   */\n  mstore\n    /* \"#utility.yul\":4530:4534   */\n  0x24\n    /* \"#utility.yul\":4527:4528   */\n  0x00\n    /* \"#utility.yul\":4520:4535   */\n  revert\n    /* \"#utility.yul\":4384:4545   */\ntag_66:\n  pop\n    /* \"#utility.yul\":4171:4551   */\n  swap2\n  swap1\n  pop\n  jump\t// out\n    /* \"#utility.yul\":4682:5200   */\ntag_33:\n    /* \"#utility.yul\":4784:4786   */\n  0x1f\n    /* \"#utility.yul\":4779:4782   */\n  dup3\n    /* \"#utility.yul\":4776:4787   */\n  gt\n    /* \"#utility.yul\":4773:5194   */\n  iszero\n  tag_69\n  jumpi\n    /* \"#utility.yul\":4820:4825   */\n  dup1\n    /* \"#utility.yul\":4817:4818   */\n  0x00\n    /* \"#utility.yul\":4810:4826   */\n  mstore\n    /* \"#utility.yul\":4864:4868   */\n  0x20\n    /* \"#utility.yul\":4861:4862   */\n  0x00\n    /* \"#utility.yul\":4851:4869   */\n  keccak256\n    /* \"#utility.yul\":4934:4936   */\n  0x1f\n    /* \"#utility.yul\":4922:4932   */\n  dup5\n    /* \"#utility.yul\":4918:4937   */\n  add\n    /* \"#utility.yul\":4915:4916   */\n  0x05\n    /* \"#utility.yul\":4911:4938   */\n  shr\n    /* \"#utility.yul\":4905:4909   */\n  dup2\n    /* \"#utility.yul\":4901:4939   */\n  add\n    /* \"#utility.yul\":4970:4974   */\n  0x20\n    /* \"#utility.yul\":4958:4968   */\n  dup6\n    /* \"#utility.yul\":4955:4975   */\n  lt\n    /* \"#utility.yul\":4952:4999   */\n  iszero\n  tag_70\n  jumpi\n  pop\n    /* \"#utility.yul\":4993:4997   */\n  dup1\n    /* \"#utility.yul\":4952:4999   */\ntag_70:\n    /* \"#utility.yul\":5048:5050   */\n  0x1f\n    /* \"#utility.yul\":5043:5046   */\n  dup5\n    /* \"#utility.yul\":5039:5051   */\n  add\n    /* \"#utility.yul\":5036:5037   */\n  0x05\n    /* \"#utility.yul\":5032:5052   */\n  shr\n    /* \"#utility.yul\":5026:5030   */\n  dup3\n    /* \"#utility.yul\":5022:5053   */\n  add\n    /* \"#utility.yul\":5012:5053   */\n  swap2\n  pop\n    /* \"#utility.yul\":5103:5184   */\ntag_71:\n    /* \"#utility.yul\":5121:5123   */\n  dup2\n    /* \"#utility.yul\":5114:5119   */\n  dup2\n    /* \"#utility.yul\":5111:5124   */\n  lt\n    /* \"#utility.yul\":5103:5184   */\n  iszero\n  tag_73\n  jumpi\n    /* \"#utility.yul\":5180:5181   */\n  0x00\n    /* \"#utility.yul\":5166:5182   */\n  dup2\n  sstore\n    /* \"#utility.yul\":5147:5148   */\n  0x01\n    /* \"#utility.yul\":5136:5149   */\n  add\n    /* \"#utility.yul\":5103:5184   */\n  jump(tag_71)\ntag_73:\n    /* \"#utility.yul\":5107:5110   */\n  pop\n  pop\n    /* \"#utility.yul\":4773:5194   */\ntag_69:\n    /* \"#utility.yul\":4682:5200   */\n  pop\n  pop\n  pop\n  jump\t// out\n    /* \"#utility.yul\":5376:6721   */\ntag_24:\n    /* \"#utility.yul\":5496:5506   */\n  dup2\n  mload\n  sub(shl(0x40, 0x01), 0x01)\n    /* \"#utility.yul\":5518:5548   */\n  dup2\n  gt\n    /* \"#utility.yul\":5515:5571   */\n  iszero\n  tag_77\n  jumpi\n    /* \"#utility.yul\":5551:5569   */\n  tag_77\n  tag_29\n  jump\t// in\ntag_77:\n    /* \"#utility.yul\":5580:5677   */\n  tag_78\n    /* \"#utility.yul\":5670:5676   */\n  dup2\n    /* \"#utility.yul\":5630:5668   */\n  tag_79\n    /* \"#utility.yul\":5662:5666   */\n  dup5\n    /* \"#utility.yul\":5656:5667   */\n  sload\n    /* \"#utility.yul\":5630:5668   */\n  tag_31\n  jump\t// in\ntag_79:\n    /* \"#utility.yul\":5624:5628   */\n  dup5\n    /* \"#utility.yul\":5580:5677   */\n  tag_33\n  jump\t// in\ntag_78:\n    /* \"#utility.yul\":5732:5736   */\n  0x20\n  dup1\n    /* \"#utility.yul\":5789:5791   */\n  0x1f\n    /* \"#utility.yul\":5778:5792   */\n  dup4\n  gt\n    /* \"#utility.yul\":5806:5807   */\n  0x01\n    /* \"#utility.yul\":5801:6464   */\n  dup2\n  eq\n  tag_81\n  jumpi\n    /* \"#utility.yul\":6508:6509   */\n  0x00\n    /* \"#utility.yul\":6525:6531   */\n  dup5\n    /* \"#utility.yul\":6522:6611   */\n  iszero\n  tag_82\n  jumpi\n  pop\n    /* \"#utility.yul\":6577:6596   */\n  dup6\n  dup4\n  add\n    /* \"#utility.yul\":6571:6597   */\n  mload\n    /* \"#utility.yul\":6522:6611   */\ntag_82:\n  not(0x00)\n    /* \"#utility.yul\":5333:5334   */\n  0x03\n    /* \"#utility.yul\":5329:5340   */\n  dup7\n  swap1\n  shl\n    /* \"#utility.yul\":5325:5349   */\n  shr\n    /* \"#utility.yul\":5321:5350   */\n  not\n    /* \"#utility.yul\":5311:5351   */\n  and\n    /* \"#utility.yul\":5357:5358   */\n  0x01\n    /* \"#utility.yul\":5353:5364   */\n  dup6\n  swap1\n  shl\n    /* \"#utility.yul\":5308:5365   */\n  or\n    /* \"#utility.yul\":6624:6705   */\n  dup6\n  sstore\n    /* \"#utility.yul\":5771:6715   */\n  jump(tag_80)\n    /* \"#utility.yul\":5801:6464   */\ntag_81:\n    /* \"#utility.yul\":4629:4630   */\n  0x00\n    /* \"#utility.yul\":4622:4636   */\n  dup6\n  dup2\n  mstore\n    /* \"#utility.yul\":4666:4670   */\n  0x20\n    /* \"#utility.yul\":4653:4671   */\n  dup2\n  keccak256\n  not(0x1f)\n    /* \"#utility.yul\":5837:5857   */\n  dup7\n  and\n  swap2\n    /* \"#utility.yul\":5955:6191   */\ntag_85:\n    /* \"#utility.yul\":5969:5976   */\n  dup3\n    /* \"#utility.yul\":5966:5967   */\n  dup2\n    /* \"#utility.yul\":5963:5977   */\n  lt\n    /* \"#utility.yul\":5955:6191   */\n  iszero\n  tag_87\n  jumpi\n    /* \"#utility.yul\":6058:6077   */\n  dup9\n  dup7\n  add\n    /* \"#utility.yul\":6052:6078   */\n  mload\n    /* \"#utility.yul\":6037:6079   */\n  dup3\n  sstore\n    /* \"#utility.yul\":6150:6177   */\n  swap5\n  dup5\n  add\n  swap5\n    /* \"#utility.yul\":6118:6119   */\n  0x01\n    /* \"#utility.yul\":6106:6120   */\n  swap1\n  swap2\n  add\n  swap1\n    /* \"#utility.yul\":5985:6004   */\n  dup5\n  add\n    /* \"#utility.yul\":5955:6191   */\n  jump(tag_85)\ntag_87:\n    /* \"#utility.yul\":5959:5962   */\n  pop\n    /* \"#utility.yul\":6219:6225   */\n  dup6\n    /* \"#utility.yul\":6210:6217   */\n  dup3\n    /* \"#utility.yul\":6207:6226   */\n  lt\n    /* \"#utility.yul\":6204:6405   */\n  iszero\n  tag_88\n  jumpi\n    /* \"#utility.yul\":6280:6299   */\n  dup8\n  dup6\n  add\n    /* \"#utility.yul\":6274:6300   */\n  mload\n  not(0x00)\n    /* \"#utility.yul\":6363:6364   */\n  0x03\n    /* \"#utility.yul\":6359:6373   */\n  dup9\n  swap1\n  shl\n    /* \"#utility.yul\":6375:6378   */\n  0xf8\n    /* \"#utility.yul\":6355:6379   */\n  and\n    /* \"#utility.yul\":6351:6388   */\n  shr\n    /* \"#utility.yul\":6347:6389   */\n  not\n    /* \"#utility.yul\":6332:6390   */\n  and\n    /* \"#utility.yul\":6317:6391   */\n  dup2\n  sstore\n    /* \"#utility.yul\":6204:6405   */\ntag_88:\n  pop\n  pop\n    /* \"#utility.yul\":6451:6452   */\n  0x01\n    /* \"#utility.yul\":6442:6448   */\n  dup5\n    /* \"#utility.yul\":6439:6440   */\n  0x01\n    /* \"#utility.yul\":6435:6449   */\n  shl\n    /* \"#utility.yul\":6431:6453   */\n  add\n    /* \"#utility.yul\":6425:6429   */\n  dup6\n    /* \"#utility.yul\":6418:6454   */\n  sstore\n    /* \"#utility.yul\":5771:6715   */\ntag_80:\n  pop\n  pop\n  pop\n  pop\n    /* \"#utility.yul\":5376:6721   */\n  pop\n  pop\n  jump\t// out\ntag_35:\n    /* \"Campaign-Fixed-v2.sol\":423:7676  contract Campaign {... */\n  dataSize(sub_0)\n  dup1\n  dataOffset(sub_0)\n  0x00\n  codecopy\n  0x00\n  return\nstop\n\nsub_0: assembly {\n        /* \"Campaign-Fixed-v2.sol\":423:7676  contract Campaign {... */\n      mstore(0x40, 0x80)\n      jumpi(tag_1, lt(calldatasize, 0x04))\n      shr(0xe0, calldataload(0x00))\n      dup1\n      0x8da5cb5b\n      gt\n      tag_41\n      jumpi\n      dup1\n      0xbca856ad\n      gt\n      tag_42\n      jumpi\n      dup1\n      0xe98798e8\n      gt\n      tag_43\n      jumpi\n      dup1\n      0xefdf762a\n      gt\n      tag_44\n      jumpi\n      dup1\n      0xefdf762a\n      eq\n      tag_38\n      jumpi\n      dup1\n      0xf2e76d7b\n      eq\n      tag_39\n      jumpi\n      dup1\n      0xff3c1a8f\n      eq\n      tag_40\n      jumpi\n      0x00\n      dup1\n      revert\n    tag_44:\n      dup1\n      0xe98798e8\n      eq\n      tag_36\n      jumpi\n      dup1\n      0xecb70fb7\n      eq\n      tag_37\n      jumpi\n      0x00\n      dup1\n      revert\n    tag_43:\n      dup1\n      0xc52ed534\n      gt\n      tag_45\n      jumpi\n      dup1\n      0xc52ed534\n      eq\n      tag_33\n      jumpi\n      dup1\n      0xe27cc5d9\n      eq\n      tag_34\n      jumpi\n      dup1\n      0xe730395a\n      eq\n      tag_35\n      jumpi\n      0x00\n      dup1\n      revert\n    tag_45:\n      dup1\n      0xbca856ad\n      eq\n      tag_31\n      jumpi\n      dup1\n      0xc45a0155\n      eq\n      tag_32\n      jumpi\n      0x00\n      dup1\n      revert\n    tag_42:\n      dup1\n      0xab975e3b\n      gt\n      tag_46\n      jumpi\n      dup1\n      0xb17fac22\n      gt\n      tag_47\n      jumpi\n      dup1\n      0xb17fac22\n      eq\n      tag_28\n      jumpi\n      dup1\n      0xb4c2f727\n      eq\n      tag_29\n      jumpi\n      dup1\n      0xb97a7d24\n      eq\n      tag_30\n      jumpi\n      0x00\n      dup1\n      revert\n    tag_47:\n      dup1\n      0xab975e3b\n      eq\n      tag_26\n      jumpi\n      dup1\n      0xaba83150\n      eq\n      tag_27\n      jumpi\n      0x00\n      dup1\n      revert\n    tag_46:\n      dup1\n      0x8da5cb5b\n      eq\n      tag_22\n      jumpi\n      dup1\n      0x90be10cc\n      eq\n      tag_23\n      jumpi\n      dup1\n      0x9743a691\n      eq\n      tag_24\n      jumpi\n      dup1\n      0xa035531b\n      eq\n      tag_25\n      jumpi\n      0x00\n      dup1\n      revert\n    tag_41:\n      dup1\n      0x40193883\n      gt\n      tag_48\n      jumpi\n      dup1\n      0x7273b736\n      gt\n      tag_49\n      jumpi\n      dup1\n      0x79388e41\n      gt\n      tag_50\n      jumpi\n      dup1\n      0x79388e41\n      eq\n      tag_19\n      jumpi\n      dup1\n      0x88cc58e4\n      eq\n      tag_20\n      jumpi\n      dup1\n      0x8b4c40b0\n      eq\n      tag_21\n      jumpi\n      0x00\n      dup1\n      revert\n    tag_50:\n      dup1\n      0x7273b736\n      eq\n      tag_17\n      jumpi\n      dup1\n      0x7284e416\n      eq\n      tag_18\n      jumpi\n      0x00\n      dup1\n      revert\n    tag_49:\n      dup1\n      0x5f8d96de\n      gt\n      tag_51\n      jumpi\n      dup1\n      0x5f8d96de\n      eq\n      tag_14\n      jumpi\n      dup1\n      0x6136f6cf\n      eq\n      tag_15\n      jumpi\n      dup1\n      0x71a6acf2\n      eq\n      tag_16\n      jumpi\n      0x00\n      dup1\n      revert\n    tag_51:\n      dup1\n      0x40193883\n      eq\n      tag_12\n      jumpi\n      dup1\n      0x4a79d50c\n      eq\n      tag_13\n      jumpi\n      0x00\n      dup1\n      revert\n    tag_48:\n      dup1\n      0x21d29038\n      gt\n      tag_52\n      jumpi\n      dup1\n      0x29dcb0cf\n      gt\n      tag_53\n      jumpi\n      dup1\n      0x29dcb0cf\n      eq\n      tag_9\n      jumpi\n      dup1\n      0x32cb25be\n      eq\n      tag_10\n      jumpi\n      dup1\n      0x3ccfd60b\n      eq\n      tag_11\n      jumpi\n      0x00\n      dup1\n      revert\n    tag_53:\n      dup1\n      0x21d29038\n      eq\n      tag_7\n      jumpi\n      dup1\n      0x22f3e2d4\n      eq\n      tag_8\n      jumpi\n      0x00\n      dup1\n      revert\n    tag_52:\n      dup1\n      0x07ec3174\n      eq\n      tag_3\n      jumpi\n      dup1\n      0x0d43e8ad\n      eq\n      tag_4\n      jumpi\n      dup1\n      0x12b58349\n      eq\n      tag_5\n      jumpi\n      dup1\n      0x1a092541\n      eq\n      tag_6\n      jumpi\n      0x00\n      dup1\n      revert\n    tag_1:\n      jumpi(tag_2, calldatasize)\n        /* \"Campaign-Fixed-v2.sol\":2578:2589  donateETH() */\n      tag_56\n        /* \"Campaign-Fixed-v2.sol\":2578:2587  donateETH */\n      tag_57\n        /* \"Campaign-Fixed-v2.sol\":2578:2589  donateETH() */\n      jump\t// in\n    tag_56:\n        /* \"Campaign-Fixed-v2.sol\":423:7676  contract Campaign {... */\n      stop\n    tag_2:\n      0x00\n      dup1\n      revert\n        /* \"Campaign-Fixed-v2.sol\":969:1022  mapping(address => uint256) public tokenFeesCollected */\n    tag_3:\n      callvalue\n      dup1\n      iszero\n      tag_58\n      jumpi\n      0x00\n      dup1\n      revert\n    tag_58:\n      pop\n      tag_59\n      tag_60\n      calldatasize\n      0x04\n      tag_61\n      jump\t// in\n    tag_60:\n      mstore(0x20, 0x0b)\n      0x00\n      swap1\n      dup2\n      mstore\n      0x40\n      swap1\n      keccak256\n      sload\n      dup2\n      jump\n    tag_59:\n      mload(0x40)\n        /* \"#utility.yul\":571:596   */\n      swap1\n      dup2\n      mstore\n        /* \"#utility.yul\":559:561   */\n      0x20\n        /* \"#utility.yul\":544:562   */\n      add\n        /* \"Campaign-Fixed-v2.sol\":969:1022  mapping(address => uint256) public tokenFeesCollected */\n    tag_63:\n      mload(0x40)\n      dup1\n      swap2\n      sub\n      swap1\n      return\n        /* \"Campaign-Fixed-v2.sol\":712:741  address public feeDistributor */\n    tag_4:\n      callvalue\n      dup1\n      iszero\n      tag_65\n      jumpi\n      0x00\n      dup1\n      revert\n    tag_65:\n      pop\n      sload(0x05)\n      tag_66\n      swap1\n      sub(shl(0xa0, 0x01), 0x01)\n      and\n      dup2\n      jump\n    tag_66:\n      mload(0x40)\n      sub(shl(0xa0, 0x01), 0x01)\n        /* \"#utility.yul\":771:826   */\n      swap1\n      swap2\n      and\n        /* \"#utility.yul\":753:827   */\n      dup2\n      mstore\n        /* \"#utility.yul\":741:743   */\n      0x20\n        /* \"#utility.yul\":726:744   */\n      add\n        /* \"Campaign-Fixed-v2.sol\":712:741  address public feeDistributor */\n      tag_63\n        /* \"#utility.yul\":607:833   */\n      jump\n        /* \"Campaign-Fixed-v2.sol\":6410:6588  function getTotalBalance() public view returns (uint256 ethBalance, uint256 flwBalance) {... */\n    tag_5:\n      callvalue\n      dup1\n      iszero\n      tag_70\n      jumpi\n      0x00\n      dup1\n      revert\n    tag_70:\n      pop\n      tag_71\n      tag_72\n      jump\t// in\n    tag_71:\n      0x40\n      dup1\n      mload\n        /* \"#utility.yul\":1012:1037   */\n      swap3\n      dup4\n      mstore\n        /* \"#utility.yul\":1068:1070   */\n      0x20\n        /* \"#utility.yul\":1053:1071   */\n      dup4\n      add\n        /* \"#utility.yul\":1046:1080   */\n      swap2\n      swap1\n      swap2\n      mstore\n        /* \"#utility.yul\":985:1003   */\n      add\n        /* \"Campaign-Fixed-v2.sol\":6410:6588  function getTotalBalance() public view returns (uint256 ethBalance, uint256 flwBalance) {... */\n      tag_63\n        /* \"#utility.yul\":838:1086   */\n      jump\n        /* \"Campaign-Fixed-v2.sol\":7367:7464  function getDescription() public view returns (string memory) {... */\n    tag_6:\n      callvalue\n      dup1\n      iszero\n      tag_75\n      jumpi\n      0x00\n      dup1\n      revert\n    tag_75:\n      pop\n      tag_76\n      tag_77\n      jump\t// in\n    tag_76:\n      mload(0x40)\n      tag_63\n      swap2\n      swap1\n      tag_79\n      jump\t// in\n        /* \"Campaign-Fixed-v2.sol\":5032:5284  function postUpdate(string calldata message) external onlyCampaignOwner {... */\n    tag_7:\n      callvalue\n      dup1\n      iszero\n      tag_80\n      jumpi\n      0x00\n      dup1\n      revert\n    tag_80:\n      pop\n      tag_56\n      tag_82\n      calldatasize\n      0x04\n      tag_83\n      jump\t// in\n    tag_82:\n      tag_84\n      jump\t// in\n        /* \"Campaign-Fixed-v2.sol\":6594:6691  function isActive() public view returns (bool) {... */\n    tag_8:\n      callvalue\n      dup1\n      iszero\n      tag_85\n      jumpi\n      0x00\n      dup1\n      revert\n    tag_85:\n      pop\n        /* \"Campaign-Fixed-v2.sol\":6676:6684  deadline */\n      sload(0x03)\n        /* \"Campaign-Fixed-v2.sol\":6658:6673  block.timestamp */\n      timestamp\n        /* \"Campaign-Fixed-v2.sol\":6658:6684  block.timestamp < deadline */\n      lt\n        /* \"Campaign-Fixed-v2.sol\":6594:6691  function isActive() public view returns (bool) {... */\n    tag_86:\n      mload(0x40)\n        /* \"#utility.yul\":2372:2386   */\n      swap1\n      iszero\n        /* \"#utility.yul\":2365:2387   */\n      iszero\n        /* \"#utility.yul\":2347:2388   */\n      dup2\n      mstore\n        /* \"#utility.yul\":2335:2337   */\n      0x20\n        /* \"#utility.yul\":2320:2338   */\n      add\n        /* \"Campaign-Fixed-v2.sol\":6594:6691  function isActive() public view returns (bool) {... */\n      tag_63\n        /* \"#utility.yul\":2207:2394   */\n      jump\n        /* \"Campaign-Fixed-v2.sol\":654:677  uint256 public deadline */\n    tag_9:\n      callvalue\n      dup1\n      iszero\n      tag_90\n      jumpi\n      0x00\n      dup1\n      revert\n    tag_90:\n      pop\n      tag_59\n      sload(0x03)\n      dup2\n      jump\n        /* \"Campaign-Fixed-v2.sol\":5399:5617  function getUpdate(uint256 index) external view returns (string memory, uint256) {... */\n    tag_10:\n      callvalue\n      dup1\n      iszero\n      tag_94\n      jumpi\n      0x00\n      dup1\n      revert\n    tag_94:\n      pop\n      tag_95\n      tag_96\n      calldatasize\n      0x04\n      tag_97\n      jump\t// in\n    tag_96:\n      tag_98\n      jump\t// in\n    tag_95:\n      mload(0x40)\n      tag_63\n      swap3\n      swap2\n      swap1\n      tag_100\n      jump\t// in\n        /* \"Campaign-Fixed-v2.sol\":3495:4194  function withdraw() external onlyCampaignOwner {... */\n    tag_11:\n      callvalue\n      dup1\n      iszero\n      tag_101\n      jumpi\n      0x00\n      dup1\n      revert\n    tag_101:\n      pop\n      tag_56\n      tag_103\n      jump\t// in\n        /* \"Campaign-Fixed-v2.sol\":629:648  uint256 public goal */\n    tag_12:\n      callvalue\n      dup1\n      iszero\n      tag_104\n      jumpi\n      0x00\n      dup1\n      revert\n    tag_104:\n      pop\n      tag_59\n      sload(0x02)\n      dup2\n      jump\n        /* \"Campaign-Fixed-v2.sol\":748:767  string public title */\n    tag_13:\n      callvalue\n      dup1\n      iszero\n      tag_108\n      jumpi\n      0x00\n      dup1\n      revert\n    tag_108:\n      pop\n      tag_76\n      tag_110\n      jump\t// in\n        /* \"Campaign-Fixed-v2.sol\":7185:7270  function getDeadline() public view returns (uint256) {... */\n    tag_14:\n      callvalue\n      dup1\n      iszero\n      tag_112\n      jumpi\n      0x00\n      dup1\n      revert\n    tag_112:\n      pop\n        /* \"Campaign-Fixed-v2.sol\":7255:7263  deadline */\n      sload(0x03)\n        /* \"Campaign-Fixed-v2.sol\":7185:7270  function getDeadline() public view returns (uint256) {... */\n      jump(tag_59)\n        /* \"Campaign-Fixed-v2.sol\":4239:4497  function collectETHFees(address to) public onlyPlatformOwner {... */\n    tag_15:\n      callvalue\n      dup1\n      iszero\n      tag_116\n      jumpi\n      0x00\n      dup1\n      revert\n    tag_116:\n      pop\n      tag_56\n      tag_118\n      calldatasize\n      0x04\n      tag_61\n      jump\t// in\n    tag_118:\n      tag_119\n      jump\t// in\n        /* \"Campaign-Fixed-v2.sol\":2903:3435  function donateToken(address token, uint256 amount) external {... */\n    tag_16:\n      callvalue\n      dup1\n      iszero\n      tag_120\n      jumpi\n      0x00\n      dup1\n      revert\n    tag_120:\n      pop\n      tag_56\n      tag_122\n      calldatasize\n      0x04\n      tag_123\n      jump\t// in\n    tag_122:\n      tag_124\n      jump\t// in\n        /* \"Campaign-Fixed-v2.sol\":6251:6404  function getFeeBalances() public view returns (uint256 ethFees, uint256 flwFees) {... */\n    tag_17:\n      callvalue\n      dup1\n      iszero\n      tag_125\n      jumpi\n      0x00\n      dup1\n      revert\n    tag_125:\n      pop\n        /* \"Campaign-Fixed-v2.sol\":6350:6366  ethFeesCollected */\n      sload(0x0c)\n        /* \"Campaign-Fixed-v2.sol\":6387:6395  flwToken */\n      and(sub(shl(0xa0, 0x01), 0x01), sload(0x04))\n        /* \"Campaign-Fixed-v2.sol\":6298:6313  uint256 ethFees */\n      0x00\n        /* \"Campaign-Fixed-v2.sol\":6368:6396  tokenFeesCollected[flwToken] */\n      swap1\n      dup2\n      mstore\n        /* \"Campaign-Fixed-v2.sol\":6368:6386  tokenFeesCollected */\n      0x0b\n        /* \"Campaign-Fixed-v2.sol\":6368:6396  tokenFeesCollected[flwToken] */\n      0x20\n      mstore\n      0x40\n      swap1\n      keccak256\n      sload\n        /* \"Campaign-Fixed-v2.sol\":6251:6404  function getFeeBalances() public view returns (uint256 ethFees, uint256 flwFees) {... */\n      jump(tag_71)\n        /* \"Campaign-Fixed-v2.sol\":773:798  string public description */\n    tag_18:\n      callvalue\n      dup1\n      iszero\n      tag_129\n      jumpi\n      0x00\n      dup1\n      revert\n    tag_129:\n      pop\n      tag_76\n      tag_131\n      jump\t// in\n        /* \"Campaign-Fixed-v2.sol\":4849:4987  function collectAllFees(address to) external onlyPlatformOwner {... */\n    tag_19:\n      callvalue\n      dup1\n      iszero\n      tag_133\n      jumpi\n      0x00\n      dup1\n      revert\n    tag_133:\n      pop\n      tag_56\n      tag_135\n      calldatasize\n      0x04\n      tag_61\n      jump\t// in\n    tag_135:\n      tag_136\n      jump\t// in\n        /* \"Campaign-Fixed-v2.sol\":7591:7674  function getFactory() public view returns (address) {... */\n    tag_20:\n      callvalue\n      dup1\n      iszero\n      tag_137\n      jumpi\n      0x00\n      dup1\n      revert\n    tag_137:\n      pop\n        /* \"Campaign-Fixed-v2.sol\":7660:7667  factory */\n      and(sub(shl(0xa0, 0x01), 0x01), sload(0x01))\n        /* \"Campaign-Fixed-v2.sol\":7591:7674  function getFactory() public view returns (address) {... */\n      jump(tag_66)\n        /* \"Campaign-Fixed-v2.sol\":2602:2897  function donateETH() public payable {... */\n    tag_21:\n      tag_56\n      tag_57\n      jump\t// in\n        /* \"Campaign-Fixed-v2.sol\":7031:7115  function owner() public view returns (address) {... */\n    tag_22:\n      callvalue\n      dup1\n      iszero\n      tag_142\n      jumpi\n      0x00\n      dup1\n      revert\n    tag_142:\n      pop\n        /* \"Campaign-Fixed-v2.sol\":7069:7076  address */\n      0x00\n        /* \"Campaign-Fixed-v2.sol\":7095:7108  campaignOwner */\n      sload\n      sub(shl(0xa0, 0x01), 0x01)\n      and\n        /* \"Campaign-Fixed-v2.sol\":7031:7115  function owner() public view returns (address) {... */\n      jump(tag_66)\n        /* \"Campaign-Fixed-v2.sol\":5727:6245  function getWithdrawableAmount() public view returns (uint256 ethAmount, uint256 flwAmount) {... */\n    tag_23:\n      callvalue\n      dup1\n      iszero\n      tag_146\n      jumpi\n      0x00\n      dup1\n      revert\n    tag_146:\n      pop\n      tag_71\n      tag_148\n      jump\t// in\n        /* \"Campaign-Fixed-v2.sol\":7470:7561  function getImageUrl() public view returns (string memory) {... */\n    tag_24:\n      callvalue\n      dup1\n      iszero\n      tag_150\n      jumpi\n      0x00\n      dup1\n      revert\n    tag_150:\n      pop\n      tag_76\n      tag_152\n      jump\t// in\n        /* \"Campaign-Fixed-v2.sol\":1132:1165  uint256[] public updateTimestamps */\n    tag_25:\n      callvalue\n      dup1\n      iszero\n      tag_154\n      jumpi\n      0x00\n      dup1\n      revert\n    tag_154:\n      pop\n      tag_59\n      tag_156\n      calldatasize\n      0x04\n      tag_97\n      jump\t// in\n    tag_156:\n      tag_157\n      jump\t// in\n        /* \"Campaign-Fixed-v2.sol\":6827:6942  function getPlatformOwner() public view returns (address) {... */\n    tag_26:\n      callvalue\n      dup1\n      iszero\n      tag_159\n      jumpi\n      0x00\n      dup1\n      revert\n    tag_159:\n      pop\n      tag_66\n      tag_161\n      jump\t// in\n        /* \"Campaign-Fixed-v2.sol\":804:826  string public imageUrl */\n    tag_27:\n      callvalue\n      dup1\n      iszero\n      tag_163\n      jumpi\n      0x00\n      dup1\n      revert\n    tag_163:\n      pop\n      tag_76\n      tag_165\n      jump\t// in\n        /* \"Campaign-Fixed-v2.sol\":447:475  address public campaignOwner */\n    tag_28:\n      callvalue\n      dup1\n      iszero\n      tag_167\n      jumpi\n      0x00\n      dup1\n      revert\n    tag_167:\n      pop\n      sload(0x00)\n      tag_66\n      swap1\n      sub(shl(0xa0, 0x01), 0x01)\n      and\n      dup2\n      jump\n        /* \"Campaign-Fixed-v2.sol\":1066:1090  address[] public updates */\n    tag_29:\n      callvalue\n      dup1\n      iszero\n      tag_171\n      jumpi\n      0x00\n      dup1\n      revert\n    tag_171:\n      pop\n      tag_66\n      tag_173\n      calldatasize\n      0x04\n      tag_97\n      jump\t// in\n    tag_173:\n      tag_174\n      jump\t// in\n        /* \"Campaign-Fixed-v2.sol\":6697:6774  function getGoal() public view returns (uint256) {... */\n    tag_30:\n      callvalue\n      dup1\n      iszero\n      tag_176\n      jumpi\n      0x00\n      dup1\n      revert\n    tag_176:\n      pop\n        /* \"Campaign-Fixed-v2.sol\":6763:6767  goal */\n      sload(0x02)\n        /* \"Campaign-Fixed-v2.sol\":6697:6774  function getGoal() public view returns (uint256) {... */\n      jump(tag_59)\n        /* \"Campaign-Fixed-v2.sol\":1096:1126  string[] public updateMessages */\n    tag_31:\n      callvalue\n      dup1\n      iszero\n      tag_180\n      jumpi\n      0x00\n      dup1\n      revert\n    tag_180:\n      pop\n      tag_76\n      tag_182\n      calldatasize\n      0x04\n      tag_97\n      jump\t// in\n    tag_182:\n      tag_183\n      jump\t// in\n        /* \"Campaign-Fixed-v2.sol\":538:560  address public factory */\n    tag_32:\n      callvalue\n      dup1\n      iszero\n      tag_185\n      jumpi\n      0x00\n      dup1\n      revert\n    tag_185:\n      pop\n      sload(0x01)\n      tag_66\n      swap1\n      sub(shl(0xa0, 0x01), 0x01)\n      and\n      dup2\n      jump\n        /* \"Campaign-Fixed-v2.sol\":5290:5393  function getUpdateCount() external view returns (uint256) {... */\n    tag_33:\n      callvalue\n      dup1\n      iszero\n      tag_189\n      jumpi\n      0x00\n      dup1\n      revert\n    tag_189:\n      pop\n        /* \"Campaign-Fixed-v2.sol\":5365:5379  updateMessages */\n      0x0e\n        /* \"Campaign-Fixed-v2.sol\":5365:5386  updateMessages.length */\n      sload\n        /* \"Campaign-Fixed-v2.sol\":5290:5393  function getUpdateCount() external view returns (uint256) {... */\n      jump(tag_59)\n        /* \"Campaign-Fixed-v2.sol\":1028:1059  uint256 public ethFeesCollected */\n    tag_34:\n      callvalue\n      dup1\n      iszero\n      tag_193\n      jumpi\n      0x00\n      dup1\n      revert\n    tag_193:\n      pop\n      tag_59\n      sload(0x0c)\n      dup2\n      jump\n        /* \"Campaign-Fixed-v2.sol\":833:884  mapping(address => uint256) public ethContributions */\n    tag_35:\n      callvalue\n      dup1\n      iszero\n      tag_197\n      jumpi\n      0x00\n      dup1\n      revert\n    tag_197:\n      pop\n      tag_59\n      tag_199\n      calldatasize\n      0x04\n      tag_61\n      jump\t// in\n    tag_199:\n      mstore(0x20, 0x09)\n      0x00\n      swap1\n      dup2\n      mstore\n      0x40\n      swap1\n      keccak256\n      sload\n      dup2\n      jump\n        /* \"Campaign-Fixed-v2.sol\":4542:4800  function collectTokenFees(address token, address to) public onlyPlatformOwner {... */\n    tag_36:\n      callvalue\n      dup1\n      iszero\n      tag_202\n      jumpi\n      0x00\n      dup1\n      revert\n    tag_202:\n      pop\n      tag_56\n      tag_204\n      calldatasize\n      0x04\n      tag_205\n      jump\t// in\n    tag_204:\n      tag_206\n      jump\t// in\n        /* \"Campaign-Fixed-v2.sol\":5623:5721  function hasEnded() public view returns (bool) {... */\n    tag_37:\n      callvalue\n      dup1\n      iszero\n      tag_207\n      jumpi\n      0x00\n      dup1\n      revert\n    tag_207:\n      pop\n        /* \"Campaign-Fixed-v2.sol\":5706:5714  deadline */\n      sload(0x03)\n        /* \"Campaign-Fixed-v2.sol\":5687:5702  block.timestamp */\n      timestamp\n        /* \"Campaign-Fixed-v2.sol\":5687:5714  block.timestamp >= deadline */\n      lt\n      iszero\n        /* \"Campaign-Fixed-v2.sol\":5623:5721  function hasEnded() public view returns (bool) {... */\n      jump(tag_86)\n        /* \"Campaign-Fixed-v2.sol\":890:963  mapping(address => mapping(address => uint256)) public tokenContributions */\n    tag_38:\n      callvalue\n      dup1\n      iszero\n      tag_211\n      jumpi\n      0x00\n      dup1\n      revert\n    tag_211:\n      pop\n      tag_59\n      tag_213\n      calldatasize\n      0x04\n      tag_205\n      jump\t// in\n    tag_213:\n      0x0a\n      0x20\n      swap1\n      dup2\n      mstore\n      0x00\n      swap3\n      dup4\n      mstore\n      0x40\n      dup1\n      dup5\n      keccak256\n      swap1\n      swap2\n      mstore\n      swap1\n      dup3\n      mstore\n      swap1\n      keccak256\n      sload\n      dup2\n      jump\n        /* \"Campaign-Fixed-v2.sol\":683:706  address public flwToken */\n    tag_39:\n      callvalue\n      dup1\n      iszero\n      tag_216\n      jumpi\n      0x00\n      dup1\n      revert\n    tag_216:\n      pop\n      sload(0x04)\n      tag_66\n      swap1\n      sub(shl(0xa0, 0x01), 0x01)\n      and\n      dup2\n      jump\n        /* \"Campaign-Fixed-v2.sol\":7276:7361  function getTitle() public view returns (string memory) {... */\n    tag_40:\n      callvalue\n      dup1\n      iszero\n      tag_220\n      jumpi\n      0x00\n      dup1\n      revert\n    tag_220:\n      pop\n      tag_76\n      tag_222\n      jump\t// in\n        /* \"Campaign-Fixed-v2.sol\":2602:2897  function donateETH() public payable {... */\n    tag_57:\n        /* \"Campaign-Fixed-v2.sol\":2674:2682  deadline */\n      sload(0x03)\n        /* \"Campaign-Fixed-v2.sol\":2656:2671  block.timestamp */\n      timestamp\n        /* \"Campaign-Fixed-v2.sol\":2656:2682  block.timestamp < deadline */\n      lt\n        /* \"Campaign-Fixed-v2.sol\":2648:2701  require(block.timestamp < deadline, \"Campaign ended\") */\n      tag_225\n      jumpi\n      mload(0x40)\n      shl(0xe5, 0x461bcd)\n      dup2\n      mstore\n        /* \"#utility.yul\":3795:3797   */\n      0x20\n        /* \"Campaign-Fixed-v2.sol\":2648:2701  require(block.timestamp < deadline, \"Campaign ended\") */\n      0x04\n      dup3\n      add\n        /* \"#utility.yul\":3777:3798   */\n      mstore\n        /* \"#utility.yul\":3834:3836   */\n      0x0e\n        /* \"#utility.yul\":3814:3832   */\n      0x24\n      dup3\n      add\n        /* \"#utility.yul\":3807:3837   */\n      mstore\n      shl(0x92, 0x10d85b5c185a59db88195b991959)\n        /* \"#utility.yul\":3853:3871   */\n      0x44\n      dup3\n      add\n        /* \"#utility.yul\":3846:3890   */\n      mstore\n        /* \"#utility.yul\":3907:3925   */\n      0x64\n      add\n        /* \"Campaign-Fixed-v2.sol\":2648:2701  require(block.timestamp < deadline, \"Campaign ended\") */\n    tag_226:\n      mload(0x40)\n      dup1\n      swap2\n      sub\n      swap1\n      revert\n    tag_225:\n        /* \"Campaign-Fixed-v2.sol\":2731:2732  0 */\n      0x00\n        /* \"Campaign-Fixed-v2.sol\":2719:2728  msg.value */\n      callvalue\n        /* \"Campaign-Fixed-v2.sol\":2719:2732  msg.value > 0 */\n      gt\n        /* \"Campaign-Fixed-v2.sol\":2711:2748  require(msg.value > 0, \"No ETH sent\") */\n      tag_228\n      jumpi\n      mload(0x40)\n      shl(0xe5, 0x461bcd)\n      dup2\n      mstore\n        /* \"#utility.yul\":4138:4140   */\n      0x20\n        /* \"Campaign-Fixed-v2.sol\":2711:2748  require(msg.value > 0, \"No ETH sent\") */\n      0x04\n      dup3\n      add\n        /* \"#utility.yul\":4120:4141   */\n      mstore\n        /* \"#utility.yul\":4177:4179   */\n      0x0b\n        /* \"#utility.yul\":4157:4175   */\n      0x24\n      dup3\n      add\n        /* \"#utility.yul\":4150:4180   */\n      mstore\n        /* \"#utility.yul\":4216:4229   */\n      0x4e6f204554482073656e74000000000000000000000000000000000000000000\n        /* \"#utility.yul\":4196:4214   */\n      0x44\n      dup3\n      add\n        /* \"#utility.yul\":4189:4230   */\n      mstore\n        /* \"#utility.yul\":4247:4265   */\n      0x64\n      add\n        /* \"Campaign-Fixed-v2.sol\":2711:2748  require(msg.value > 0, \"No ETH sent\") */\n      tag_226\n        /* \"#utility.yul\":3936:4271   */\n      jump\n        /* \"Campaign-Fixed-v2.sol\":2711:2748  require(msg.value > 0, \"No ETH sent\") */\n    tag_228:\n        /* \"Campaign-Fixed-v2.sol\":2759:2770  uint256 fee */\n      0x00\n        /* \"Campaign-Fixed-v2.sol\":2791:2794  100 */\n      0x64\n        /* \"Campaign-Fixed-v2.sol\":2774:2787  msg.value * 2 */\n      tag_231\n        /* \"Campaign-Fixed-v2.sol\":2774:2783  msg.value */\n      callvalue\n        /* \"Campaign-Fixed-v2.sol\":2786:2787  2 */\n      0x02\n        /* \"Campaign-Fixed-v2.sol\":2774:2787  msg.value * 2 */\n      tag_232\n      jump\t// in\n    tag_231:\n        /* \"Campaign-Fixed-v2.sol\":2773:2794  (msg.value * 2) / 100 */\n      tag_233\n      swap2\n      swap1\n      tag_234\n      jump\t// in\n    tag_233:\n        /* \"Campaign-Fixed-v2.sol\":2759:2794  uint256 fee = (msg.value * 2) / 100 */\n      swap1\n      pop\n        /* \"Campaign-Fixed-v2.sol\":2830:2833  fee */\n      dup1\n        /* \"Campaign-Fixed-v2.sol\":2810:2826  ethFeesCollected */\n      0x0c\n      0x00\n        /* \"Campaign-Fixed-v2.sol\":2810:2833  ethFeesCollected += fee */\n      dup3\n      dup3\n      sload\n      tag_235\n      swap2\n      swap1\n      tag_236\n      jump\t// in\n    tag_235:\n      swap1\n      swap2\n      sstore\n      pop\n        /* \"Campaign-Fixed-v2.sol\":2875:2890  msg.value - fee */\n      tag_237\n      swap1\n      pop\n        /* \"Campaign-Fixed-v2.sol\":2887:2890  fee */\n      dup2\n        /* \"Campaign-Fixed-v2.sol\":2875:2884  msg.value */\n      callvalue\n        /* \"Campaign-Fixed-v2.sol\":2875:2890  msg.value - fee */\n      tag_238\n      jump\t// in\n    tag_237:\n        /* \"Campaign-Fixed-v2.sol\":2860:2870  msg.sender */\n      caller\n        /* \"Campaign-Fixed-v2.sol\":2843:2871  ethContributions[msg.sender] */\n      0x00\n      swap1\n      dup2\n      mstore\n        /* \"Campaign-Fixed-v2.sol\":2843:2859  ethContributions */\n      0x09\n        /* \"Campaign-Fixed-v2.sol\":2843:2871  ethContributions[msg.sender] */\n      0x20\n      mstore\n      0x40\n      dup2\n      keccak256\n        /* \"Campaign-Fixed-v2.sol\":2843:2890  ethContributions[msg.sender] += msg.value - fee */\n      dup1\n      sload\n        /* \"Campaign-Fixed-v2.sol\":2843:2871  ethContributions[msg.sender] */\n      swap1\n      swap2\n      swap1\n        /* \"Campaign-Fixed-v2.sol\":2843:2890  ethContributions[msg.sender] += msg.value - fee */\n      tag_239\n      swap1\n      dup5\n      swap1\n      tag_236\n      jump\t// in\n    tag_239:\n      swap1\n      swap2\n      sstore\n      pop\n      pop\n      pop\n        /* \"Campaign-Fixed-v2.sol\":2602:2897  function donateETH() public payable {... */\n      jump\t// out\n        /* \"Campaign-Fixed-v2.sol\":6410:6588  function getTotalBalance() public view returns (uint256 ethBalance, uint256 flwBalance) {... */\n    tag_72:\n        /* \"Campaign-Fixed-v2.sol\":6546:6554  flwToken */\n      0x04\n      dup1\n      sload\n        /* \"Campaign-Fixed-v2.sol\":6539:6580  IERC20(flwToken).balanceOf(address(this)) */\n      mload(0x40)\n      shl(0xe0, 0x70a08231)\n      dup2\n      mstore\n        /* \"Campaign-Fixed-v2.sol\":6574:6578  this */\n      address\n        /* \"Campaign-Fixed-v2.sol\":6539:6580  IERC20(flwToken).balanceOf(address(this)) */\n      swap3\n      dup2\n      add\n        /* \"#utility.yul\":753:827   */\n      swap3\n      swap1\n      swap3\n      mstore\n        /* \"Campaign-Fixed-v2.sol\":6458:6476  uint256 ethBalance */\n      0x00\n      swap2\n      dup3\n      swap2\n        /* \"Campaign-Fixed-v2.sol\":6516:6537  address(this).balance */\n      selfbalance\n      swap2\n      sub(shl(0xa0, 0x01), 0x01)\n        /* \"Campaign-Fixed-v2.sol\":6546:6554  flwToken */\n      swap1\n      swap2\n      and\n      swap1\n        /* \"Campaign-Fixed-v2.sol\":6539:6565  IERC20(flwToken).balanceOf */\n      0x70a08231\n      swap1\n        /* \"#utility.yul\":726:744   */\n      0x24\n      add\n        /* \"Campaign-Fixed-v2.sol\":6539:6580  IERC20(flwToken).balanceOf(address(this)) */\n      0x20\n      mload(0x40)\n      dup1\n      dup4\n      sub\n      dup2\n      dup7\n      gas\n      staticcall\n      iszero\n      dup1\n      iszero\n      tag_243\n      jumpi\n      returndatasize\n      0x00\n      dup1\n      returndatacopy\n      revert(0x00, returndatasize)\n    tag_243:\n      pop\n      pop\n      pop\n      pop\n      mload(0x40)\n      returndatasize\n      not(0x1f)\n      0x1f\n      dup3\n      add\n      and\n      dup3\n      add\n      dup1\n      0x40\n      mstore\n      pop\n      dup2\n      add\n      swap1\n      tag_244\n      swap2\n      swap1\n      tag_245\n      jump\t// in\n    tag_244:\n        /* \"Campaign-Fixed-v2.sol\":6508:6581  return (address(this).balance, IERC20(flwToken).balanceOf(address(this))) */\n      swap2\n      pop\n      swap2\n      pop\n        /* \"Campaign-Fixed-v2.sol\":6410:6588  function getTotalBalance() public view returns (uint256 ethBalance, uint256 flwBalance) {... */\n      swap1\n      swap2\n      jump\t// out\n        /* \"Campaign-Fixed-v2.sol\":7367:7464  function getDescription() public view returns (string memory) {... */\n    tag_77:\n        /* \"Campaign-Fixed-v2.sol\":7414:7427  string memory */\n      0x60\n        /* \"Campaign-Fixed-v2.sol\":7446:7457  description */\n      0x07\n        /* \"Campaign-Fixed-v2.sol\":7439:7457  return description */\n      dup1\n      sload\n      tag_247\n      swap1\n      tag_248\n      jump\t// in\n    tag_247:\n      dup1\n      0x1f\n      add\n      0x20\n      dup1\n      swap2\n      div\n      mul\n      0x20\n      add\n      mload(0x40)\n      swap1\n      dup2\n      add\n      0x40\n      mstore\n      dup1\n      swap3\n      swap2\n      swap1\n      dup2\n      dup2\n      mstore\n      0x20\n      add\n      dup3\n      dup1\n      sload\n      tag_249\n      swap1\n      tag_248\n      jump\t// in\n    tag_249:\n      dup1\n      iszero\n      tag_250\n      jumpi\n      dup1\n      0x1f\n      lt\n      tag_251\n      jumpi\n      0x0100\n      dup1\n      dup4\n      sload\n      div\n      mul\n      dup4\n      mstore\n      swap2\n      0x20\n      add\n      swap2\n      jump(tag_250)\n    tag_251:\n      dup3\n      add\n      swap2\n      swap1\n      0x00\n      mstore\n      keccak256(0x00, 0x20)\n      swap1\n    tag_252:\n      dup2\n      sload\n      dup2\n      mstore\n      swap1\n      0x01\n      add\n      swap1\n      0x20\n      add\n      dup1\n      dup4\n      gt\n      tag_252\n      jumpi\n      dup3\n      swap1\n      sub\n      0x1f\n      and\n      dup3\n      add\n      swap2\n    tag_250:\n      pop\n      pop\n      pop\n      pop\n      pop\n      swap1\n      pop\n        /* \"Campaign-Fixed-v2.sol\":7367:7464  function getDescription() public view returns (string memory) {... */\n      swap1\n      jump\t// out\n        /* \"Campaign-Fixed-v2.sol\":5032:5284  function postUpdate(string calldata message) external onlyCampaignOwner {... */\n    tag_84:\n        /* \"Campaign-Fixed-v2.sol\":1440:1453  campaignOwner */\n      and(sub(shl(0xa0, 0x01), 0x01), sload(0x00))\n        /* \"Campaign-Fixed-v2.sol\":1426:1436  msg.sender */\n      caller\n        /* \"Campaign-Fixed-v2.sol\":1426:1453  msg.sender == campaignOwner */\n      eq\n        /* \"Campaign-Fixed-v2.sol\":1418:1476  require(msg.sender == campaignOwner, \"Not campaign owner\") */\n      tag_254\n      jumpi\n      mload(0x40)\n      shl(0xe5, 0x461bcd)\n      dup2\n      mstore\n        /* \"#utility.yul\":5842:5844   */\n      0x20\n        /* \"Campaign-Fixed-v2.sol\":1418:1476  require(msg.sender == campaignOwner, \"Not campaign owner\") */\n      0x04\n      dup3\n      add\n        /* \"#utility.yul\":5824:5845   */\n      mstore\n        /* \"#utility.yul\":5881:5883   */\n      0x12\n        /* \"#utility.yul\":5861:5879   */\n      0x24\n      dup3\n      add\n        /* \"#utility.yul\":5854:5884   */\n      mstore\n        /* \"#utility.yul\":5920:5940   */\n      0x4e6f742063616d706169676e206f776e65720000000000000000000000000000\n        /* \"#utility.yul\":5900:5918   */\n      0x44\n      dup3\n      add\n        /* \"#utility.yul\":5893:5941   */\n      mstore\n        /* \"#utility.yul\":5958:5976   */\n      0x64\n      add\n        /* \"Campaign-Fixed-v2.sol\":1418:1476  require(msg.sender == campaignOwner, \"Not campaign owner\") */\n      tag_226\n        /* \"#utility.yul\":5640:5982   */\n      jump\n        /* \"Campaign-Fixed-v2.sol\":1418:1476  require(msg.sender == campaignOwner, \"Not campaign owner\") */\n    tag_254:\n        /* \"Campaign-Fixed-v2.sol\":5114:5121  updates */\n      0x0d\n        /* \"Campaign-Fixed-v2.sol\":5114:5138  updates.push(msg.sender) */\n      dup1\n      sload\n      0x01\n      dup2\n      dup2\n      add\n      swap1\n      swap3\n      sstore\n      0xd7b6990105719101dabeb77144f2a3385c8033acd3af97e9423a695e81ad1eb5\n      add\n      dup1\n      sload\n      0xffffffffffffffffffffffff0000000000000000000000000000000000000000\n      and\n        /* \"Campaign-Fixed-v2.sol\":5127:5137  msg.sender */\n      caller\n        /* \"Campaign-Fixed-v2.sol\":5114:5138  updates.push(msg.sender) */\n      or\n      swap1\n      sstore\n        /* \"Campaign-Fixed-v2.sol\":5148:5162  updateMessages */\n      0x0e\n        /* \"Campaign-Fixed-v2.sol\":5148:5176  updateMessages.push(message) */\n      dup1\n      sload\n      swap2\n      dup3\n      add\n      dup2\n      sstore\n      0x00\n      mstore\n      0xbb7b4a454dc3493923482f07822329ed19e8244eff582cc204f8554c3620c3fd\n      add\n      tag_260\n        /* \"Campaign-Fixed-v2.sol\":5168:5175  message */\n      dup3\n      dup5\n        /* \"Campaign-Fixed-v2.sol\":5148:5176  updateMessages.push(message) */\n      dup4\n      tag_261\n      jump\t// in\n    tag_260:\n      pop\n        /* \"Campaign-Fixed-v2.sol\":5186:5202  updateTimestamps */\n      0x0f\n        /* \"Campaign-Fixed-v2.sol\":5186:5224  updateTimestamps.push(block.timestamp) */\n      dup1\n      sload\n      0x01\n      dup2\n      add\n      dup3\n      sstore\n      0x00\n      swap2\n      swap1\n      swap2\n      mstore\n        /* \"Campaign-Fixed-v2.sol\":5208:5223  block.timestamp */\n      timestamp\n        /* \"Campaign-Fixed-v2.sol\":5186:5224  updateTimestamps.push(block.timestamp) */\n      0x8d1108e10bcb7c27dddfc02ed9d693a074039d026cf4ea4240b40f7d581ac802\n      swap1\n      swap2\n      add\n      dup2\n      swap1\n      sstore\n        /* \"Campaign-Fixed-v2.sol\":5239:5277  UpdatePosted(message, block.timestamp) */\n      mload(0x40)\n      0x795d961edbc9e83a9c6d46e7e54ae3be27574cfbc69a1eca98133687155c24b0\n      swap2\n      tag_263\n      swap2\n        /* \"Campaign-Fixed-v2.sol\":5252:5259  message */\n      dup6\n      swap2\n      dup6\n      swap2\n        /* \"Campaign-Fixed-v2.sol\":5239:5277  UpdatePosted(message, block.timestamp) */\n      tag_264\n      jump\t// in\n    tag_263:\n      mload(0x40)\n      dup1\n      swap2\n      sub\n      swap1\n      log1\n        /* \"Campaign-Fixed-v2.sol\":5032:5284  function postUpdate(string calldata message) external onlyCampaignOwner {... */\n      pop\n      pop\n      jump\t// out\n        /* \"Campaign-Fixed-v2.sol\":5399:5617  function getUpdate(uint256 index) external view returns (string memory, uint256) {... */\n    tag_98:\n        /* \"Campaign-Fixed-v2.sol\":5506:5520  updateMessages */\n      0x0e\n        /* \"Campaign-Fixed-v2.sol\":5506:5527  updateMessages.length */\n      sload\n        /* \"Campaign-Fixed-v2.sol\":5456:5469  string memory */\n      0x60\n      swap1\n        /* \"Campaign-Fixed-v2.sol\":5471:5478  uint256 */\n      0x00\n      swap1\n        /* \"Campaign-Fixed-v2.sol\":5498:5527  index < updateMessages.length */\n      dup4\n      lt\n        /* \"Campaign-Fixed-v2.sol\":5490:5545  require(index < updateMessages.length, \"Invalid index\") */\n      tag_267\n      jumpi\n      mload(0x40)\n      shl(0xe5, 0x461bcd)\n      dup2\n      mstore\n        /* \"#utility.yul\":8812:8814   */\n      0x20\n        /* \"Campaign-Fixed-v2.sol\":5490:5545  require(index < updateMessages.length, \"Invalid index\") */\n      0x04\n      dup3\n      add\n        /* \"#utility.yul\":8794:8815   */\n      mstore\n        /* \"#utility.yul\":8851:8853   */\n      0x0d\n        /* \"#utility.yul\":8831:8849   */\n      0x24\n      dup3\n      add\n        /* \"#utility.yul\":8824:8854   */\n      mstore\n        /* \"#utility.yul\":8890:8905   */\n      0x496e76616c696420696e64657800000000000000000000000000000000000000\n        /* \"#utility.yul\":8870:8888   */\n      0x44\n      dup3\n      add\n        /* \"#utility.yul\":8863:8906   */\n      mstore\n        /* \"#utility.yul\":8923:8941   */\n      0x64\n      add\n        /* \"Campaign-Fixed-v2.sol\":5490:5545  require(index < updateMessages.length, \"Invalid index\") */\n      tag_226\n        /* \"#utility.yul\":8610:8947   */\n      jump\n        /* \"Campaign-Fixed-v2.sol\":5490:5545  require(index < updateMessages.length, \"Invalid index\") */\n    tag_267:\n        /* \"Campaign-Fixed-v2.sol\":5563:5577  updateMessages */\n      0x0e\n        /* \"Campaign-Fixed-v2.sol\":5578:5583  index */\n      dup4\n        /* \"Campaign-Fixed-v2.sol\":5563:5584  updateMessages[index] */\n      dup2\n      sload\n      dup2\n      lt\n      tag_271\n      jumpi\n      tag_271\n      tag_272\n      jump\t// in\n    tag_271:\n      swap1\n      0x00\n      mstore\n      keccak256(0x00, 0x20)\n      add\n        /* \"Campaign-Fixed-v2.sol\":5586:5602  updateTimestamps */\n      0x0f\n        /* \"Campaign-Fixed-v2.sol\":5603:5608  index */\n      dup5\n        /* \"Campaign-Fixed-v2.sol\":5586:5609  updateTimestamps[index] */\n      dup2\n      sload\n      dup2\n      lt\n      tag_275\n      jumpi\n      tag_275\n      tag_272\n      jump\t// in\n    tag_275:\n      swap1\n      0x00\n      mstore\n      keccak256(0x00, 0x20)\n      add\n      sload\n        /* \"Campaign-Fixed-v2.sol\":5555:5610  return (updateMessages[index], updateTimestamps[index]) */\n      dup2\n      dup1\n      sload\n      tag_277\n      swap1\n      tag_248\n      jump\t// in\n    tag_277:\n      dup1\n      0x1f\n      add\n      0x20\n      dup1\n      swap2\n      div\n      mul\n      0x20\n      add\n      mload(0x40)\n      swap1\n      dup2\n      add\n      0x40\n      mstore\n      dup1\n      swap3\n      swap2\n      swap1\n      dup2\n      dup2\n      mstore\n      0x20\n      add\n      dup3\n      dup1\n      sload\n      tag_278\n      swap1\n      tag_248\n      jump\t// in\n    tag_278:\n      dup1\n      iszero\n      tag_279\n      jumpi\n      dup1\n      0x1f\n      lt\n      tag_280\n      jumpi\n      0x0100\n      dup1\n      dup4\n      sload\n      div\n      mul\n      dup4\n      mstore\n      swap2\n      0x20\n      add\n      swap2\n      jump(tag_279)\n    tag_280:\n      dup3\n      add\n      swap2\n      swap1\n      0x00\n      mstore\n      keccak256(0x00, 0x20)\n      swap1\n    tag_281:\n      dup2\n      sload\n      dup2\n      mstore\n      swap1\n      0x01\n      add\n      swap1\n      0x20\n      add\n      dup1\n      dup4\n      gt\n      tag_281\n      jumpi\n      dup3\n      swap1\n      sub\n      0x1f\n      and\n      dup3\n      add\n      swap2\n    tag_279:\n      pop\n      pop\n      pop\n      pop\n      pop\n      swap2\n      pop\n      swap2\n      pop\n      swap2\n      pop\n        /* \"Campaign-Fixed-v2.sol\":5399:5617  function getUpdate(uint256 index) external view returns (string memory, uint256) {... */\n      swap2\n      pop\n      swap2\n      jump\t// out\n        /* \"Campaign-Fixed-v2.sol\":3495:4194  function withdraw() external onlyCampaignOwner {... */\n    tag_103:\n        /* \"Campaign-Fixed-v2.sol\":1440:1453  campaignOwner */\n      and(sub(shl(0xa0, 0x01), 0x01), sload(0x00))\n        /* \"Campaign-Fixed-v2.sol\":1426:1436  msg.sender */\n      caller\n        /* \"Campaign-Fixed-v2.sol\":1426:1453  msg.sender == campaignOwner */\n      eq\n        /* \"Campaign-Fixed-v2.sol\":1418:1476  require(msg.sender == campaignOwner, \"Not campaign owner\") */\n      tag_283\n      jumpi\n      mload(0x40)\n      shl(0xe5, 0x461bcd)\n      dup2\n      mstore\n        /* \"#utility.yul\":5842:5844   */\n      0x20\n        /* \"Campaign-Fixed-v2.sol\":1418:1476  require(msg.sender == campaignOwner, \"Not campaign owner\") */\n      0x04\n      dup3\n      add\n        /* \"#utility.yul\":5824:5845   */\n      mstore\n        /* \"#utility.yul\":5881:5883   */\n      0x12\n        /* \"#utility.yul\":5861:5879   */\n      0x24\n      dup3\n      add\n        /* \"#utility.yul\":5854:5884   */\n      mstore\n        /* \"#utility.yul\":5920:5940   */\n      0x4e6f742063616d706169676e206f776e65720000000000000000000000000000\n        /* \"#utility.yul\":5900:5918   */\n      0x44\n      dup3\n      add\n        /* \"#utility.yul\":5893:5941   */\n      mstore\n        /* \"#utility.yul\":5958:5976   */\n      0x64\n      add\n        /* \"Campaign-Fixed-v2.sol\":1418:1476  require(msg.sender == campaignOwner, \"Not campaign owner\") */\n      tag_226\n        /* \"#utility.yul\":5640:5982   */\n      jump\n        /* \"Campaign-Fixed-v2.sol\":1418:1476  require(msg.sender == campaignOwner, \"Not campaign owner\") */\n    tag_283:\n        /* \"Campaign-Fixed-v2.sol\":3579:3587  deadline */\n      sload(0x03)\n        /* \"Campaign-Fixed-v2.sol\":3560:3575  block.timestamp */\n      timestamp\n        /* \"Campaign-Fixed-v2.sol\":3560:3587  block.timestamp >= deadline */\n      lt\n      iszero\n        /* \"Campaign-Fixed-v2.sol\":3552:3610  require(block.timestamp >= deadline, \"Campaign not ended\") */\n      tag_286\n      jumpi\n      mload(0x40)\n      shl(0xe5, 0x461bcd)\n      dup2\n      mstore\n        /* \"#utility.yul\":9286:9288   */\n      0x20\n        /* \"Campaign-Fixed-v2.sol\":3552:3610  require(block.timestamp >= deadline, \"Campaign not ended\") */\n      0x04\n      dup3\n      add\n        /* \"#utility.yul\":9268:9289   */\n      mstore\n        /* \"#utility.yul\":9325:9327   */\n      0x12\n        /* \"#utility.yul\":9305:9323   */\n      0x24\n      dup3\n      add\n        /* \"#utility.yul\":9298:9328   */\n      mstore\n        /* \"#utility.yul\":9364:9384   */\n      0x43616d706169676e206e6f7420656e6465640000000000000000000000000000\n        /* \"#utility.yul\":9344:9362   */\n      0x44\n      dup3\n      add\n        /* \"#utility.yul\":9337:9385   */\n      mstore\n        /* \"#utility.yul\":9402:9420   */\n      0x64\n      add\n        /* \"Campaign-Fixed-v2.sol\":3552:3610  require(block.timestamp >= deadline, \"Campaign not ended\") */\n      tag_226\n        /* \"#utility.yul\":9084:9426   */\n      jump\n        /* \"Campaign-Fixed-v2.sol\":3552:3610  require(block.timestamp >= deadline, \"Campaign not ended\") */\n    tag_286:\n        /* \"Campaign-Fixed-v2.sol\":3621:3639  uint256 ethBalance */\n      0x00\n        /* \"Campaign-Fixed-v2.sol\":3666:3682  ethFeesCollected */\n      sload(0x0c)\n        /* \"Campaign-Fixed-v2.sol\":3642:3663  address(this).balance */\n      selfbalance\n        /* \"Campaign-Fixed-v2.sol\":3642:3682  address(this).balance - ethFeesCollected */\n      tag_289\n      swap2\n      swap1\n      tag_238\n      jump\t// in\n    tag_289:\n        /* \"Campaign-Fixed-v2.sol\":3776:3784  flwToken */\n      0x04\n      dup1\n      sload\n      sub(shl(0xa0, 0x01), 0x01)\n      and\n        /* \"Campaign-Fixed-v2.sol\":3692:3710  uint256 flwBalance */\n      0x00\n        /* \"Campaign-Fixed-v2.sol\":3757:3785  tokenFeesCollected[flwToken] */\n      dup2\n      dup2\n      mstore\n        /* \"Campaign-Fixed-v2.sol\":3757:3775  tokenFeesCollected */\n      0x0b\n        /* \"Campaign-Fixed-v2.sol\":3757:3785  tokenFeesCollected[flwToken] */\n      0x20\n      mstore\n      0x40\n      dup1\n      dup3\n      keccak256\n      sload\n        /* \"Campaign-Fixed-v2.sol\":3713:3754  IERC20(flwToken).balanceOf(address(this)) */\n      swap1\n      mload\n      shl(0xe0, 0x70a08231)\n      dup2\n      mstore\n        /* \"Campaign-Fixed-v2.sol\":3748:3752  this */\n      address\n        /* \"Campaign-Fixed-v2.sol\":3713:3754  IERC20(flwToken).balanceOf(address(this)) */\n      swap5\n      dup2\n      add\n        /* \"#utility.yul\":753:827   */\n      swap5\n      swap1\n      swap5\n      mstore\n        /* \"Campaign-Fixed-v2.sol\":3621:3682  uint256 ethBalance = address(this).balance - ethFeesCollected */\n      swap4\n      swap5\n      pop\n        /* \"Campaign-Fixed-v2.sol\":3692:3710  uint256 flwBalance */\n      swap3\n        /* \"Campaign-Fixed-v2.sol\":3757:3785  tokenFeesCollected[flwToken] */\n      swap2\n        /* \"Campaign-Fixed-v2.sol\":3713:3739  IERC20(flwToken).balanceOf */\n      0x70a08231\n      swap1\n        /* \"#utility.yul\":726:744   */\n      0x24\n      add\n        /* \"Campaign-Fixed-v2.sol\":3713:3754  IERC20(flwToken).balanceOf(address(this)) */\n      0x20\n      mload(0x40)\n      dup1\n      dup4\n      sub\n      dup2\n      dup7\n      gas\n      staticcall\n      iszero\n      dup1\n      iszero\n      tag_292\n      jumpi\n      returndatasize\n      0x00\n      dup1\n      returndatacopy\n      revert(0x00, returndatasize)\n    tag_292:\n      pop\n      pop\n      pop\n      pop\n      mload(0x40)\n      returndatasize\n      not(0x1f)\n      0x1f\n      dup3\n      add\n      and\n      dup3\n      add\n      dup1\n      0x40\n      mstore\n      pop\n      dup2\n      add\n      swap1\n      tag_293\n      swap2\n      swap1\n      tag_245\n      jump\t// in\n    tag_293:\n        /* \"Campaign-Fixed-v2.sol\":3713:3785  IERC20(flwToken).balanceOf(address(this)) - tokenFeesCollected[flwToken] */\n      tag_294\n      swap2\n      swap1\n      tag_238\n      jump\t// in\n    tag_294:\n        /* \"Campaign-Fixed-v2.sol\":3692:3785  uint256 flwBalance = IERC20(flwToken).balanceOf(address(this)) - tokenFeesCollected[flwToken] */\n      swap1\n      pop\n        /* \"Campaign-Fixed-v2.sol\":3811:3815  true */\n      0x01\n      dup1\n        /* \"Campaign-Fixed-v2.sol\":3859:3873  ethBalance > 0 */\n      dup4\n      iszero\n        /* \"Campaign-Fixed-v2.sol\":3855:3964  if (ethBalance > 0) {... */\n      tag_295\n      jumpi\n        /* \"Campaign-Fixed-v2.sol\":3911:3924  campaignOwner */\n      0x00\n      dup1\n      sload\n        /* \"Campaign-Fixed-v2.sol\":3903:3953  payable(campaignOwner).call{value: ethBalance}(\"\") */\n      mload(0x40)\n      sub(shl(0xa0, 0x01), 0x01)\n        /* \"Campaign-Fixed-v2.sol\":3911:3924  campaignOwner */\n      swap1\n      swap2\n      and\n      swap2\n        /* \"Campaign-Fixed-v2.sol\":3938:3948  ethBalance */\n      dup7\n      swap2\n        /* \"Campaign-Fixed-v2.sol\":3903:3953  payable(campaignOwner).call{value: ethBalance}(\"\") */\n      swap1\n      dup2\n        /* \"Campaign-Fixed-v2.sol\":3911:3924  campaignOwner */\n      dup2\n        /* \"Campaign-Fixed-v2.sol\":3903:3953  payable(campaignOwner).call{value: ethBalance}(\"\") */\n      dup2\n        /* \"Campaign-Fixed-v2.sol\":3938:3948  ethBalance */\n      dup6\n        /* \"Campaign-Fixed-v2.sol\":3911:3924  campaignOwner */\n      dup8\n        /* \"Campaign-Fixed-v2.sol\":3903:3953  payable(campaignOwner).call{value: ethBalance}(\"\") */\n      gas\n      call\n      swap3\n      pop\n      pop\n      pop\n      returndatasize\n      dup1\n      0x00\n      dup2\n      eq\n      tag_300\n      jumpi\n      mload(0x40)\n      swap2\n      pop\n      and(add(returndatasize, 0x3f), not(0x1f))\n      dup3\n      add\n      0x40\n      mstore\n      returndatasize\n      dup3\n      mstore\n      returndatasize\n      0x00\n      0x20\n      dup5\n      add\n      returndatacopy\n      jump(tag_299)\n    tag_300:\n      0x60\n      swap2\n      pop\n    tag_299:\n      pop\n        /* \"Campaign-Fixed-v2.sol\":3889:3953  (ethSent, ) = payable(campaignOwner).call{value: ethBalance}(\"\") */\n      swap1\n      swap3\n      pop\n      pop\n        /* \"Campaign-Fixed-v2.sol\":3855:3964  if (ethBalance > 0) {... */\n    tag_295:\n        /* \"Campaign-Fixed-v2.sol\":3978:3992  flwBalance > 0 */\n      dup3\n      iszero\n        /* \"Campaign-Fixed-v2.sol\":3974:4081  if (flwBalance > 0) {... */\n      tag_301\n      jumpi\n        /* \"Campaign-Fixed-v2.sol\":4025:4033  flwToken */\n      0x04\n      dup1\n      sload\n      0x00\n        /* \"Campaign-Fixed-v2.sol\":4044:4057  campaignOwner */\n      sload\n        /* \"Campaign-Fixed-v2.sol\":4018:4070  IERC20(flwToken).transfer(campaignOwner, flwBalance) */\n      mload(0x40)\n      shl(0xe0, 0xa9059cbb)\n      dup2\n      mstore\n      sub(shl(0xa0, 0x01), 0x01)\n        /* \"Campaign-Fixed-v2.sol\":4044:4057  campaignOwner */\n      swap2\n      dup3\n      and\n        /* \"Campaign-Fixed-v2.sol\":4018:4070  IERC20(flwToken).transfer(campaignOwner, flwBalance) */\n      swap4\n      dup2\n      add\n        /* \"#utility.yul\":9815:9889   */\n      swap4\n      swap1\n      swap4\n      mstore\n        /* \"#utility.yul\":9905:9923   */\n      0x24\n      dup4\n      add\n        /* \"#utility.yul\":9898:9932   */\n      dup7\n      swap1\n      mstore\n        /* \"Campaign-Fixed-v2.sol\":4025:4033  flwToken */\n      and\n      swap1\n        /* \"Campaign-Fixed-v2.sol\":4018:4043  IERC20(flwToken).transfer */\n      0xa9059cbb\n      swap1\n        /* \"#utility.yul\":9788:9806   */\n      0x44\n      add\n        /* \"Campaign-Fixed-v2.sol\":4018:4070  IERC20(flwToken).transfer(campaignOwner, flwBalance) */\n      0x20\n      mload(0x40)\n      dup1\n      dup4\n      sub\n      dup2\n      0x00\n      dup8\n      gas\n      call\n      iszero\n      dup1\n      iszero\n      tag_305\n      jumpi\n      returndatasize\n      0x00\n      dup1\n      returndatacopy\n      revert(0x00, returndatasize)\n    tag_305:\n      pop\n      pop\n      pop\n      pop\n      mload(0x40)\n      returndatasize\n      not(0x1f)\n      0x1f\n      dup3\n      add\n      and\n      dup3\n      add\n      dup1\n      0x40\n      mstore\n      pop\n      dup2\n      add\n      swap1\n      tag_306\n      swap2\n      swap1\n      tag_307\n      jump\t// in\n    tag_306:\n        /* \"Campaign-Fixed-v2.sol\":4008:4070  flwSent = IERC20(flwToken).transfer(campaignOwner, flwBalance) */\n      swap1\n      pop\n        /* \"Campaign-Fixed-v2.sol\":3974:4081  if (flwBalance > 0) {... */\n    tag_301:\n        /* \"Campaign-Fixed-v2.sol\":4096:4129  WithdrawSuccess(ethSent, flwSent) */\n      0x40\n      dup1\n      mload\n        /* \"#utility.yul\":10412:10426   */\n      dup4\n      iszero\n        /* \"#utility.yul\":10405:10427   */\n      iszero\n        /* \"#utility.yul\":10387:10428   */\n      dup2\n      mstore\n        /* \"#utility.yul\":10471:10485   */\n      dup3\n      iszero\n        /* \"#utility.yul\":10464:10486   */\n      iszero\n        /* \"#utility.yul\":10459:10461   */\n      0x20\n        /* \"#utility.yul\":10444:10462   */\n      dup3\n      add\n        /* \"#utility.yul\":10437:10487   */\n      mstore\n        /* \"Campaign-Fixed-v2.sol\":4096:4129  WithdrawSuccess(ethSent, flwSent) */\n      0xedaf6307dd03cf2213c8cf4c3154d20dbf80b44bb80b206b6381109881db78e7\n      swap2\n        /* \"#utility.yul\":10360:10378   */\n      add\n        /* \"Campaign-Fixed-v2.sol\":4096:4129  WithdrawSuccess(ethSent, flwSent) */\n      mload(0x40)\n      dup1\n      swap2\n      sub\n      swap1\n      log1\n        /* \"Campaign-Fixed-v2.sol\":4147:4154  ethSent */\n      dup2\n        /* \"Campaign-Fixed-v2.sol\":4147:4165  ethSent || flwSent */\n      dup1\n      tag_310\n      jumpi\n      pop\n        /* \"Campaign-Fixed-v2.sol\":4158:4165  flwSent */\n      dup1\n        /* \"Campaign-Fixed-v2.sol\":4147:4165  ethSent || flwSent */\n    tag_310:\n        /* \"Campaign-Fixed-v2.sol\":4139:4187  require(ethSent || flwSent, \"Nothing withdrawn\") */\n      tag_311\n      jumpi\n      mload(0x40)\n      shl(0xe5, 0x461bcd)\n      dup2\n      mstore\n        /* \"#utility.yul\":10700:10702   */\n      0x20\n        /* \"Campaign-Fixed-v2.sol\":4139:4187  require(ethSent || flwSent, \"Nothing withdrawn\") */\n      0x04\n      dup3\n      add\n        /* \"#utility.yul\":10682:10703   */\n      mstore\n        /* \"#utility.yul\":10739:10741   */\n      0x11\n        /* \"#utility.yul\":10719:10737   */\n      0x24\n      dup3\n      add\n        /* \"#utility.yul\":10712:10742   */\n      mstore\n        /* \"#utility.yul\":10778:10797   */\n      0x4e6f7468696e672077697468647261776e000000000000000000000000000000\n        /* \"#utility.yul\":10758:10776   */\n      0x44\n      dup3\n      add\n        /* \"#utility.yul\":10751:10798   */\n      mstore\n        /* \"#utility.yul\":10815:10833   */\n      0x64\n      add\n        /* \"Campaign-Fixed-v2.sol\":4139:4187  require(ethSent || flwSent, \"Nothing withdrawn\") */\n      tag_226\n        /* \"#utility.yul\":10498:10839   */\n      jump\n        /* \"Campaign-Fixed-v2.sol\":4139:4187  require(ethSent || flwSent, \"Nothing withdrawn\") */\n    tag_311:\n        /* \"Campaign-Fixed-v2.sol\":3542:4194  {... */\n      pop\n      pop\n      pop\n      pop\n        /* \"Campaign-Fixed-v2.sol\":3495:4194  function withdraw() external onlyCampaignOwner {... */\n      jump\t// out\n        /* \"Campaign-Fixed-v2.sol\":748:767  string public title */\n    tag_110:\n      0x06\n      dup1\n      sload\n      tag_314\n      swap1\n      tag_248\n      jump\t// in\n    tag_314:\n      dup1\n      0x1f\n      add\n      0x20\n      dup1\n      swap2\n      div\n      mul\n      0x20\n      add\n      mload(0x40)\n      swap1\n      dup2\n      add\n      0x40\n      mstore\n      dup1\n      swap3\n      swap2\n      swap1\n      dup2\n      dup2\n      mstore\n      0x20\n      add\n      dup3\n      dup1\n      sload\n      tag_315\n      swap1\n      tag_248\n      jump\t// in\n    tag_315:\n      dup1\n      iszero\n      tag_316\n      jumpi\n      dup1\n      0x1f\n      lt\n      tag_317\n      jumpi\n      0x0100\n      dup1\n      dup4\n      sload\n      div\n      mul\n      dup4\n      mstore\n      swap2\n      0x20\n      add\n      swap2\n      jump(tag_316)\n    tag_317:\n      dup3\n      add\n      swap2\n      swap1\n      0x00\n      mstore\n      keccak256(0x00, 0x20)\n      swap1\n    tag_318:\n      dup2\n      sload\n      dup2\n      mstore\n      swap1\n      0x01\n      add\n      swap1\n      0x20\n      add\n      dup1\n      dup4\n      gt\n      tag_318\n      jumpi\n      dup3\n      swap1\n      sub\n      0x1f\n      and\n      dup3\n      add\n      swap2\n    tag_316:\n      pop\n      pop\n      pop\n      pop\n      pop\n      dup2\n      jump\t// out\n        /* \"Campaign-Fixed-v2.sol\":4239:4497  function collectETHFees(address to) public onlyPlatformOwner {... */\n    tag_119:\n        /* \"Campaign-Fixed-v2.sol\":1561:1579  getPlatformOwner() */\n      tag_321\n        /* \"Campaign-Fixed-v2.sol\":1561:1577  getPlatformOwner */\n      tag_161\n        /* \"Campaign-Fixed-v2.sol\":1561:1579  getPlatformOwner() */\n      jump\t// in\n    tag_321:\n      sub(shl(0xa0, 0x01), 0x01)\n        /* \"Campaign-Fixed-v2.sol\":1547:1579  msg.sender == getPlatformOwner() */\n      and\n        /* \"Campaign-Fixed-v2.sol\":1547:1557  msg.sender */\n      caller\n      sub(shl(0xa0, 0x01), 0x01)\n        /* \"Campaign-Fixed-v2.sol\":1547:1579  msg.sender == getPlatformOwner() */\n      and\n      eq\n        /* \"Campaign-Fixed-v2.sol\":1539:1602  require(msg.sender == getPlatformOwner(), \"Not platform owner\") */\n      tag_322\n      jumpi\n      mload(0x40)\n      shl(0xe5, 0x461bcd)\n      dup2\n      mstore\n        /* \"#utility.yul\":11046:11048   */\n      0x20\n        /* \"Campaign-Fixed-v2.sol\":1539:1602  require(msg.sender == getPlatformOwner(), \"Not platform owner\") */\n      0x04\n      dup3\n      add\n        /* \"#utility.yul\":11028:11049   */\n      mstore\n        /* \"#utility.yul\":11085:11087   */\n      0x12\n        /* \"#utility.yul\":11065:11083   */\n      0x24\n      dup3\n      add\n        /* \"#utility.yul\":11058:11088   */\n      mstore\n      shl(0x71, 0x2737ba10383630ba3337b9369037bbb732b9)\n        /* \"#utility.yul\":11104:11122   */\n      0x44\n      dup3\n      add\n        /* \"#utility.yul\":11097:11145   */\n      mstore\n        /* \"#utility.yul\":11162:11180   */\n      0x64\n      add\n        /* \"Campaign-Fixed-v2.sol\":1539:1602  require(msg.sender == getPlatformOwner(), \"Not platform owner\") */\n      tag_226\n        /* \"#utility.yul\":10844:11186   */\n      jump\n        /* \"Campaign-Fixed-v2.sol\":1539:1602  require(msg.sender == getPlatformOwner(), \"Not platform owner\") */\n    tag_322:\n        /* \"Campaign-Fixed-v2.sol\":4327:4343  ethFeesCollected */\n      0x0c\n      dup1\n      sload\n        /* \"Campaign-Fixed-v2.sol\":4310:4324  uint256 amount */\n      0x00\n        /* \"Campaign-Fixed-v2.sol\":4353:4373  ethFeesCollected = 0 */\n      swap2\n      dup3\n      swap1\n      sstore\n        /* \"Campaign-Fixed-v2.sol\":4402:4437  payable(to).call{value: amount}(\"\") */\n      mload(0x40)\n        /* \"Campaign-Fixed-v2.sol\":4327:4343  ethFeesCollected */\n      swap1\n      swap2\n        /* \"Campaign-Fixed-v2.sol\":4310:4324  uint256 amount */\n      swap1\n      sub(shl(0xa0, 0x01), 0x01)\n        /* \"Campaign-Fixed-v2.sol\":4402:4418  payable(to).call */\n      dup5\n      and\n      swap1\n        /* \"Campaign-Fixed-v2.sol\":4327:4343  ethFeesCollected */\n      dup4\n      swap1\n        /* \"Campaign-Fixed-v2.sol\":4310:4324  uint256 amount */\n      dup4\n        /* \"Campaign-Fixed-v2.sol\":4402:4437  payable(to).call{value: amount}(\"\") */\n      dup2\n        /* \"Campaign-Fixed-v2.sol\":4310:4324  uint256 amount */\n      dup2\n        /* \"Campaign-Fixed-v2.sol\":4402:4437  payable(to).call{value: amount}(\"\") */\n      dup2\n        /* \"Campaign-Fixed-v2.sol\":4327:4343  ethFeesCollected */\n      dup6\n        /* \"Campaign-Fixed-v2.sol\":4402:4418  payable(to).call */\n      dup8\n        /* \"Campaign-Fixed-v2.sol\":4402:4437  payable(to).call{value: amount}(\"\") */\n      gas\n      call\n      swap3\n      pop\n      pop\n      pop\n      returndatasize\n      dup1\n      0x00\n      dup2\n      eq\n      tag_329\n      jumpi\n      mload(0x40)\n      swap2\n      pop\n      and(add(returndatasize, 0x3f), not(0x1f))\n      dup3\n      add\n      0x40\n      mstore\n      returndatasize\n      dup3\n      mstore\n      returndatasize\n      0x00\n      0x20\n      dup5\n      add\n      returndatacopy\n      jump(tag_328)\n    tag_329:\n      0x60\n      swap2\n      pop\n    tag_328:\n      pop\n        /* \"Campaign-Fixed-v2.sol\":4383:4437  (bool success, ) = payable(to).call{value: amount}(\"\") */\n      pop\n      swap1\n      pop\n        /* \"Campaign-Fixed-v2.sol\":4455:4462  success */\n      dup1\n        /* \"Campaign-Fixed-v2.sol\":4447:4490  require(success, \"ETH fee transfer failed\") */\n      tag_330\n      jumpi\n      mload(0x40)\n      shl(0xe5, 0x461bcd)\n      dup2\n      mstore\n        /* \"#utility.yul\":11393:11395   */\n      0x20\n        /* \"Campaign-Fixed-v2.sol\":4447:4490  require(success, \"ETH fee transfer failed\") */\n      0x04\n      dup3\n      add\n        /* \"#utility.yul\":11375:11396   */\n      mstore\n        /* \"#utility.yul\":11432:11434   */\n      0x17\n        /* \"#utility.yul\":11412:11430   */\n      0x24\n      dup3\n      add\n        /* \"#utility.yul\":11405:11435   */\n      mstore\n        /* \"#utility.yul\":11471:11496   */\n      0x45544820666565207472616e73666572206661696c6564000000000000000000\n        /* \"#utility.yul\":11451:11469   */\n      0x44\n      dup3\n      add\n        /* \"#utility.yul\":11444:11497   */\n      mstore\n        /* \"#utility.yul\":11514:11532   */\n      0x64\n      add\n        /* \"Campaign-Fixed-v2.sol\":4447:4490  require(success, \"ETH fee transfer failed\") */\n      tag_226\n        /* \"#utility.yul\":11191:11538   */\n      jump\n        /* \"Campaign-Fixed-v2.sol\":4447:4490  require(success, \"ETH fee transfer failed\") */\n    tag_330:\n        /* \"Campaign-Fixed-v2.sol\":4300:4497  {... */\n      pop\n      pop\n        /* \"Campaign-Fixed-v2.sol\":4239:4497  function collectETHFees(address to) public onlyPlatformOwner {... */\n      pop\n      jump\t// out\n        /* \"Campaign-Fixed-v2.sol\":2903:3435  function donateToken(address token, uint256 amount) external {... */\n    tag_124:\n        /* \"Campaign-Fixed-v2.sol\":3000:3008  deadline */\n      sload(0x03)\n        /* \"Campaign-Fixed-v2.sol\":2982:2997  block.timestamp */\n      timestamp\n        /* \"Campaign-Fixed-v2.sol\":2982:3008  block.timestamp < deadline */\n      lt\n        /* \"Campaign-Fixed-v2.sol\":2974:3027  require(block.timestamp < deadline, \"Campaign ended\") */\n      tag_334\n      jumpi\n      mload(0x40)\n      shl(0xe5, 0x461bcd)\n      dup2\n      mstore\n        /* \"#utility.yul\":3795:3797   */\n      0x20\n        /* \"Campaign-Fixed-v2.sol\":2974:3027  require(block.timestamp < deadline, \"Campaign ended\") */\n      0x04\n      dup3\n      add\n        /* \"#utility.yul\":3777:3798   */\n      mstore\n        /* \"#utility.yul\":3834:3836   */\n      0x0e\n        /* \"#utility.yul\":3814:3832   */\n      0x24\n      dup3\n      add\n        /* \"#utility.yul\":3807:3837   */\n      mstore\n      shl(0x92, 0x10d85b5c185a59db88195b991959)\n        /* \"#utility.yul\":3853:3871   */\n      0x44\n      dup3\n      add\n        /* \"#utility.yul\":3846:3890   */\n      mstore\n        /* \"#utility.yul\":3907:3925   */\n      0x64\n      add\n        /* \"Campaign-Fixed-v2.sol\":2974:3027  require(block.timestamp < deadline, \"Campaign ended\") */\n      tag_226\n        /* \"#utility.yul\":3593:3931   */\n      jump\n        /* \"Campaign-Fixed-v2.sol\":2974:3027  require(block.timestamp < deadline, \"Campaign ended\") */\n    tag_334:\n        /* \"Campaign-Fixed-v2.sol\":3054:3055  0 */\n      0x00\n        /* \"Campaign-Fixed-v2.sol\":3045:3051  amount */\n      dup2\n        /* \"Campaign-Fixed-v2.sol\":3045:3055  amount > 0 */\n      gt\n        /* \"Campaign-Fixed-v2.sol\":3037:3074  require(amount > 0, \"No tokens sent\") */\n      tag_336\n      jumpi\n      mload(0x40)\n      shl(0xe5, 0x461bcd)\n      dup2\n      mstore\n        /* \"#utility.yul\":11745:11747   */\n      0x20\n        /* \"Campaign-Fixed-v2.sol\":3037:3074  require(amount > 0, \"No tokens sent\") */\n      0x04\n      dup3\n      add\n        /* \"#utility.yul\":11727:11748   */\n      mstore\n        /* \"#utility.yul\":11784:11786   */\n      0x0e\n        /* \"#utility.yul\":11764:11782   */\n      0x24\n      dup3\n      add\n        /* \"#utility.yul\":11757:11787   */\n      mstore\n        /* \"#utility.yul\":11823:11839   */\n      0x4e6f20746f6b656e732073656e74000000000000000000000000000000000000\n        /* \"#utility.yul\":11803:11821   */\n      0x44\n      dup3\n      add\n        /* \"#utility.yul\":11796:11840   */\n      mstore\n        /* \"#utility.yul\":11857:11875   */\n      0x64\n      add\n        /* \"Campaign-Fixed-v2.sol\":3037:3074  require(amount > 0, \"No tokens sent\") */\n      tag_226\n        /* \"#utility.yul\":11543:11881   */\n      jump\n        /* \"Campaign-Fixed-v2.sol\":3037:3074  require(amount > 0, \"No tokens sent\") */\n    tag_336:\n        /* \"Campaign-Fixed-v2.sol\":3109:3117  flwToken */\n      sload(0x04)\n        /* \"Campaign-Fixed-v2.sol\":3085:3096  uint256 fee */\n      0x00\n      swap1\n      sub(shl(0xa0, 0x01), 0x01)\n        /* \"Campaign-Fixed-v2.sol\":3100:3117  token == flwToken */\n      dup5\n      dup2\n      and\n        /* \"Campaign-Fixed-v2.sol\":3109:3117  flwToken */\n      swap2\n      and\n        /* \"Campaign-Fixed-v2.sol\":3100:3117  token == flwToken */\n      eq\n        /* \"Campaign-Fixed-v2.sol\":3099:3161  (token == flwToken) ? (amount * 5) / 1000 : (amount * 2) / 100 */\n      tag_339\n      jumpi\n        /* \"Campaign-Fixed-v2.sol\":3158:3161  100 */\n      0x64\n        /* \"Campaign-Fixed-v2.sol\":3144:3154  amount * 2 */\n      tag_340\n        /* \"Campaign-Fixed-v2.sol\":3144:3150  amount */\n      dup4\n        /* \"Campaign-Fixed-v2.sol\":3153:3154  2 */\n      0x02\n        /* \"Campaign-Fixed-v2.sol\":3144:3154  amount * 2 */\n      tag_232\n      jump\t// in\n    tag_340:\n        /* \"Campaign-Fixed-v2.sol\":3143:3161  (amount * 2) / 100 */\n      tag_341\n      swap2\n      swap1\n      tag_234\n      jump\t// in\n    tag_341:\n        /* \"Campaign-Fixed-v2.sol\":3099:3161  (token == flwToken) ? (amount * 5) / 1000 : (amount * 2) / 100 */\n      jump(tag_344)\n    tag_339:\n        /* \"Campaign-Fixed-v2.sol\":3136:3140  1000 */\n      0x03e8\n        /* \"Campaign-Fixed-v2.sol\":3122:3132  amount * 5 */\n      tag_343\n        /* \"Campaign-Fixed-v2.sol\":3122:3128  amount */\n      dup4\n        /* \"Campaign-Fixed-v2.sol\":3131:3132  5 */\n      0x05\n        /* \"Campaign-Fixed-v2.sol\":3122:3132  amount * 5 */\n      tag_232\n      jump\t// in\n    tag_343:\n        /* \"Campaign-Fixed-v2.sol\":3121:3140  (amount * 5) / 1000 */\n      tag_344\n      swap2\n      swap1\n      tag_234\n      jump\t// in\n    tag_344:\n        /* \"Campaign-Fixed-v2.sol\":3085:3161  uint256 fee = (token == flwToken) ? (amount * 5) / 1000 : (amount * 2) / 100 */\n      swap1\n      pop\n        /* \"Campaign-Fixed-v2.sol\":3194:3211  uint256 netAmount */\n      0x00\n        /* \"Campaign-Fixed-v2.sol\":3214:3226  amount - fee */\n      tag_345\n        /* \"Campaign-Fixed-v2.sol\":3085:3161  uint256 fee = (token == flwToken) ? (amount * 5) / 1000 : (amount * 2) / 100 */\n      dup3\n        /* \"Campaign-Fixed-v2.sol\":3214:3220  amount */\n      dup5\n        /* \"Campaign-Fixed-v2.sol\":3214:3226  amount - fee */\n      tag_238\n      jump\t// in\n    tag_345:\n        /* \"Campaign-Fixed-v2.sol\":3245:3306  IERC20(token).transferFrom(msg.sender, address(this), amount) */\n      mload(0x40)\n      shl(0xe0, 0x23b872dd)\n      dup2\n      mstore\n        /* \"Campaign-Fixed-v2.sol\":3272:3282  msg.sender */\n      caller\n        /* \"Campaign-Fixed-v2.sol\":3245:3306  IERC20(token).transferFrom(msg.sender, address(this), amount) */\n      0x04\n      dup3\n      add\n        /* \"#utility.yul\":12149:12183   */\n      mstore\n        /* \"Campaign-Fixed-v2.sol\":3292:3296  this */\n      address\n        /* \"#utility.yul\":12199:12217   */\n      0x24\n      dup3\n      add\n        /* \"#utility.yul\":12192:12235   */\n      mstore\n        /* \"#utility.yul\":12251:12269   */\n      0x44\n      dup2\n      add\n        /* \"#utility.yul\":12244:12278   */\n      dup6\n      swap1\n      mstore\n        /* \"Campaign-Fixed-v2.sol\":3194:3226  uint256 netAmount = amount - fee */\n      swap1\n      swap2\n      pop\n      sub(shl(0xa0, 0x01), 0x01)\n        /* \"Campaign-Fixed-v2.sol\":3245:3271  IERC20(token).transferFrom */\n      dup6\n      and\n      swap1\n      0x23b872dd\n      swap1\n        /* \"#utility.yul\":12061:12079   */\n      0x64\n      add\n        /* \"Campaign-Fixed-v2.sol\":3245:3306  IERC20(token).transferFrom(msg.sender, address(this), amount) */\n      0x20\n      mload(0x40)\n      dup1\n      dup4\n      sub\n      dup2\n      0x00\n      dup8\n      gas\n      call\n      iszero\n      dup1\n      iszero\n      tag_349\n      jumpi\n      returndatasize\n      0x00\n      dup1\n      returndatacopy\n      revert(0x00, returndatasize)\n    tag_349:\n      pop\n      pop\n      pop\n      pop\n      mload(0x40)\n      returndatasize\n      not(0x1f)\n      0x1f\n      dup3\n      add\n      and\n      dup3\n      add\n      dup1\n      0x40\n      mstore\n      pop\n      dup2\n      add\n      swap1\n      tag_350\n      swap2\n      swap1\n      tag_307\n      jump\t// in\n    tag_350:\n        /* \"Campaign-Fixed-v2.sol\":3237:3326  require(IERC20(token).transferFrom(msg.sender, address(this), amount), \"Transfer failed\") */\n      tag_351\n      jumpi\n      mload(0x40)\n      shl(0xe5, 0x461bcd)\n      dup2\n      mstore\n        /* \"#utility.yul\":12491:12493   */\n      0x20\n        /* \"Campaign-Fixed-v2.sol\":3237:3326  require(IERC20(token).transferFrom(msg.sender, address(this), amount), \"Transfer failed\") */\n      0x04\n      dup3\n      add\n        /* \"#utility.yul\":12473:12494   */\n      mstore\n        /* \"#utility.yul\":12530:12532   */\n      0x0f\n        /* \"#utility.yul\":12510:12528   */\n      0x24\n      dup3\n      add\n        /* \"#utility.yul\":12503:12533   */\n      mstore\n        /* \"#utility.yul\":12569:12586   */\n      0x5472616e73666572206661696c65640000000000000000000000000000000000\n        /* \"#utility.yul\":12549:12567   */\n      0x44\n      dup3\n      add\n        /* \"#utility.yul\":12542:12587   */\n      mstore\n        /* \"#utility.yul\":12604:12622   */\n      0x64\n      add\n        /* \"Campaign-Fixed-v2.sol\":3237:3326  require(IERC20(token).transferFrom(msg.sender, address(this), amount), \"Transfer failed\") */\n      tag_226\n        /* \"#utility.yul\":12289:12628   */\n      jump\n        /* \"Campaign-Fixed-v2.sol\":3237:3326  require(IERC20(token).transferFrom(msg.sender, address(this), amount), \"Transfer failed\") */\n    tag_351:\n      sub(shl(0xa0, 0x01), 0x01)\n        /* \"Campaign-Fixed-v2.sol\":3336:3361  tokenFeesCollected[token] */\n      dup5\n      and\n      0x00\n      swap1\n      dup2\n      mstore\n        /* \"Campaign-Fixed-v2.sol\":3336:3354  tokenFeesCollected */\n      0x0b\n        /* \"Campaign-Fixed-v2.sol\":3336:3361  tokenFeesCollected[token] */\n      0x20\n      mstore\n      0x40\n      dup2\n      keccak256\n        /* \"Campaign-Fixed-v2.sol\":3336:3368  tokenFeesCollected[token] += fee */\n      dup1\n      sload\n        /* \"Campaign-Fixed-v2.sol\":3365:3368  fee */\n      dup5\n      swap3\n        /* \"Campaign-Fixed-v2.sol\":3336:3361  tokenFeesCollected[token] */\n      swap1\n        /* \"Campaign-Fixed-v2.sol\":3336:3368  tokenFeesCollected[token] += fee */\n      tag_354\n      swap1\n        /* \"Campaign-Fixed-v2.sol\":3365:3368  fee */\n      dup5\n      swap1\n        /* \"Campaign-Fixed-v2.sol\":3336:3368  tokenFeesCollected[token] += fee */\n      tag_236\n      jump\t// in\n    tag_354:\n      swap1\n      swap2\n      sstore\n      pop\n      pop\n        /* \"Campaign-Fixed-v2.sol\":3397:3407  msg.sender */\n      caller\n        /* \"Campaign-Fixed-v2.sol\":3378:3408  tokenContributions[msg.sender] */\n      0x00\n      swap1\n      dup2\n      mstore\n        /* \"Campaign-Fixed-v2.sol\":3378:3396  tokenContributions */\n      0x0a\n        /* \"Campaign-Fixed-v2.sol\":3378:3408  tokenContributions[msg.sender] */\n      0x20\n      swap1\n      dup2\n      mstore\n      0x40\n      dup1\n      dup4\n      keccak256\n      sub(shl(0xa0, 0x01), 0x01)\n        /* \"Campaign-Fixed-v2.sol\":3378:3415  tokenContributions[msg.sender][token] */\n      dup9\n      and\n      dup5\n      mstore\n      swap1\n      swap2\n      mstore\n      dup2\n      keccak256\n        /* \"Campaign-Fixed-v2.sol\":3378:3428  tokenContributions[msg.sender][token] += netAmount */\n      dup1\n      sload\n        /* \"Campaign-Fixed-v2.sol\":3419:3428  netAmount */\n      dup4\n      swap3\n        /* \"Campaign-Fixed-v2.sol\":3378:3408  tokenContributions[msg.sender] */\n      swap1\n        /* \"Campaign-Fixed-v2.sol\":3378:3428  tokenContributions[msg.sender][token] += netAmount */\n      tag_355\n      swap1\n        /* \"Campaign-Fixed-v2.sol\":3419:3428  netAmount */\n      dup5\n      swap1\n        /* \"Campaign-Fixed-v2.sol\":3378:3428  tokenContributions[msg.sender][token] += netAmount */\n      tag_236\n      jump\t// in\n    tag_355:\n      swap1\n      swap2\n      sstore\n      pop\n      pop\n      pop\n      pop\n      pop\n      pop\n        /* \"Campaign-Fixed-v2.sol\":2903:3435  function donateToken(address token, uint256 amount) external {... */\n      jump\t// out\n        /* \"Campaign-Fixed-v2.sol\":773:798  string public description */\n    tag_131:\n      0x07\n      dup1\n      sload\n      tag_314\n      swap1\n      tag_248\n      jump\t// in\n        /* \"Campaign-Fixed-v2.sol\":4849:4987  function collectAllFees(address to) external onlyPlatformOwner {... */\n    tag_136:\n        /* \"Campaign-Fixed-v2.sol\":1561:1579  getPlatformOwner() */\n      tag_363\n        /* \"Campaign-Fixed-v2.sol\":1561:1577  getPlatformOwner */\n      tag_161\n        /* \"Campaign-Fixed-v2.sol\":1561:1579  getPlatformOwner() */\n      jump\t// in\n    tag_363:\n      sub(shl(0xa0, 0x01), 0x01)\n        /* \"Campaign-Fixed-v2.sol\":1547:1579  msg.sender == getPlatformOwner() */\n      and\n        /* \"Campaign-Fixed-v2.sol\":1547:1557  msg.sender */\n      caller\n      sub(shl(0xa0, 0x01), 0x01)\n        /* \"Campaign-Fixed-v2.sol\":1547:1579  msg.sender == getPlatformOwner() */\n      and\n      eq\n        /* \"Campaign-Fixed-v2.sol\":1539:1602  require(msg.sender == getPlatformOwner(), \"Not platform owner\") */\n      tag_364\n      jumpi\n      mload(0x40)\n      shl(0xe5, 0x461bcd)\n      dup2\n      mstore\n        /* \"#utility.yul\":11046:11048   */\n      0x20\n        /* \"Campaign-Fixed-v2.sol\":1539:1602  require(msg.sender == getPlatformOwner(), \"Not platform owner\") */\n      0x04\n      dup3\n      add\n        /* \"#utility.yul\":11028:11049   */\n      mstore\n        /* \"#utility.yul\":11085:11087   */\n      0x12\n        /* \"#utility.yul\":11065:11083   */\n      0x24\n      dup3\n      add\n        /* \"#utility.yul\":11058:11088   */\n      mstore\n      shl(0x71, 0x2737ba10383630ba3337b9369037bbb732b9)\n        /* \"#utility.yul\":11104:11122   */\n      0x44\n      dup3\n      add\n        /* \"#utility.yul\":11097:11145   */\n      mstore\n        /* \"#utility.yul\":11162:11180   */\n      0x64\n      add\n        /* \"Campaign-Fixed-v2.sol\":1539:1602  require(msg.sender == getPlatformOwner(), \"Not platform owner\") */\n      tag_226\n        /* \"#utility.yul\":10844:11186   */\n      jump\n        /* \"Campaign-Fixed-v2.sol\":1539:1602  require(msg.sender == getPlatformOwner(), \"Not platform owner\") */\n    tag_364:\n        /* \"Campaign-Fixed-v2.sol\":4922:4940  collectETHFees(to) */\n      tag_367\n        /* \"Campaign-Fixed-v2.sol\":4937:4939  to */\n      dup2\n        /* \"Campaign-Fixed-v2.sol\":4922:4936  collectETHFees */\n      tag_119\n        /* \"Campaign-Fixed-v2.sol\":4922:4940  collectETHFees(to) */\n      jump\t// in\n    tag_367:\n        /* \"Campaign-Fixed-v2.sol\":4967:4975  flwToken */\n      sload(0x04)\n        /* \"Campaign-Fixed-v2.sol\":4950:4980  collectTokenFees(flwToken, to) */\n      tag_368\n      swap1\n      sub(shl(0xa0, 0x01), 0x01)\n        /* \"Campaign-Fixed-v2.sol\":4967:4975  flwToken */\n      and\n        /* \"Campaign-Fixed-v2.sol\":4977:4979  to */\n      dup3\n        /* \"Campaign-Fixed-v2.sol\":4950:4966  collectTokenFees */\n      tag_206\n        /* \"Campaign-Fixed-v2.sol\":4950:4980  collectTokenFees(flwToken, to) */\n      jump\t// in\n    tag_368:\n        /* \"Campaign-Fixed-v2.sol\":4849:4987  function collectAllFees(address to) external onlyPlatformOwner {... */\n      pop\n      jump\t// out\n        /* \"Campaign-Fixed-v2.sol\":5727:6245  function getWithdrawableAmount() public view returns (uint256 ethAmount, uint256 flwAmount) {... */\n    tag_148:\n        /* \"Campaign-Fixed-v2.sol\":5781:5798  uint256 ethAmount */\n      0x00\n        /* \"Campaign-Fixed-v2.sol\":5800:5817  uint256 flwAmount */\n      dup1\n        /* \"Campaign-Fixed-v2.sol\":5851:5859  deadline */\n      sload(0x03)\n        /* \"Campaign-Fixed-v2.sol\":5833:5848  block.timestamp */\n      timestamp\n        /* \"Campaign-Fixed-v2.sol\":5833:5859  block.timestamp < deadline */\n      lt\n        /* \"Campaign-Fixed-v2.sol\":5829:5899  if (block.timestamp < deadline) {... */\n      iszero\n      tag_372\n      jumpi\n      pop\n        /* \"Campaign-Fixed-v2.sol\":5883:5884  0 */\n      0x00\n      swap2\n      dup3\n      swap2\n      pop\n        /* \"Campaign-Fixed-v2.sol\":5727:6245  function getWithdrawableAmount() public view returns (uint256 ethAmount, uint256 flwAmount) {... */\n      jump\t// out\n        /* \"Campaign-Fixed-v2.sol\":5829:5899  if (block.timestamp < deadline) {... */\n    tag_372:\n        /* \"Campaign-Fixed-v2.sol\":5997:6005  flwToken */\n      0x04\n      dup1\n      sload\n        /* \"Campaign-Fixed-v2.sol\":5990:6031  IERC20(flwToken).balanceOf(address(this)) */\n      mload(0x40)\n      shl(0xe0, 0x70a08231)\n      dup2\n      mstore\n        /* \"Campaign-Fixed-v2.sol\":6025:6029  this */\n      address\n        /* \"Campaign-Fixed-v2.sol\":5990:6031  IERC20(flwToken).balanceOf(address(this)) */\n      swap3\n      dup2\n      add\n        /* \"#utility.yul\":753:827   */\n      swap3\n      swap1\n      swap3\n      mstore\n        /* \"Campaign-Fixed-v2.sol\":5938:5959  address(this).balance */\n      selfbalance\n      swap2\n        /* \"Campaign-Fixed-v2.sol\":5917:5935  uint256 ethBalance */\n      0x00\n      swap2\n      sub(shl(0xa0, 0x01), 0x01)\n        /* \"Campaign-Fixed-v2.sol\":5997:6005  flwToken */\n      and\n      swap1\n        /* \"Campaign-Fixed-v2.sol\":5990:6016  IERC20(flwToken).balanceOf */\n      0x70a08231\n      swap1\n        /* \"#utility.yul\":726:744   */\n      0x24\n      add\n        /* \"Campaign-Fixed-v2.sol\":5990:6031  IERC20(flwToken).balanceOf(address(this)) */\n      0x20\n      mload(0x40)\n      dup1\n      dup4\n      sub\n      dup2\n      dup7\n      gas\n      staticcall\n      iszero\n      dup1\n      iszero\n      tag_375\n      jumpi\n      returndatasize\n      0x00\n      dup1\n      returndatacopy\n      revert(0x00, returndatasize)\n    tag_375:\n      pop\n      pop\n      pop\n      pop\n      mload(0x40)\n      returndatasize\n      not(0x1f)\n      0x1f\n      dup3\n      add\n      and\n      dup3\n      add\n      dup1\n      0x40\n      mstore\n      pop\n      dup2\n      add\n      swap1\n      tag_376\n      swap2\n      swap1\n      tag_245\n      jump\t// in\n    tag_376:\n        /* \"Campaign-Fixed-v2.sol\":5969:6031  uint256 flwBalance = IERC20(flwToken).balanceOf(address(this)) */\n      swap1\n      pop\n        /* \"Campaign-Fixed-v2.sol\":6075:6091  ethFeesCollected */\n      sload(0x0c)\n        /* \"Campaign-Fixed-v2.sol\":6062:6072  ethBalance */\n      dup3\n        /* \"Campaign-Fixed-v2.sol\":6062:6091  ethBalance > ethFeesCollected */\n      gt\n        /* \"Campaign-Fixed-v2.sol\":6062:6127  ethBalance > ethFeesCollected ? ethBalance - ethFeesCollected : 0 */\n      tag_377\n      jumpi\n        /* \"Campaign-Fixed-v2.sol\":6126:6127  0 */\n      0x00\n        /* \"Campaign-Fixed-v2.sol\":6062:6127  ethBalance > ethFeesCollected ? ethBalance - ethFeesCollected : 0 */\n      jump(tag_379)\n    tag_377:\n        /* \"Campaign-Fixed-v2.sol\":6107:6123  ethFeesCollected */\n      sload(0x0c)\n        /* \"Campaign-Fixed-v2.sol\":6094:6123  ethBalance - ethFeesCollected */\n      tag_379\n      swap1\n        /* \"Campaign-Fixed-v2.sol\":6094:6104  ethBalance */\n      dup4\n        /* \"Campaign-Fixed-v2.sol\":6094:6123  ethBalance - ethFeesCollected */\n      tag_238\n      jump\t// in\n    tag_379:\n        /* \"Campaign-Fixed-v2.sol\":6181:6189  flwToken */\n      and(sub(shl(0xa0, 0x01), 0x01), sload(0x04))\n        /* \"Campaign-Fixed-v2.sol\":6162:6190  tokenFeesCollected[flwToken] */\n      0x00\n      swap1\n      dup2\n      mstore\n        /* \"Campaign-Fixed-v2.sol\":6162:6180  tokenFeesCollected */\n      0x0b\n        /* \"Campaign-Fixed-v2.sol\":6162:6190  tokenFeesCollected[flwToken] */\n      0x20\n      mstore\n      0x40\n      swap1\n      keccak256\n      sload\n        /* \"Campaign-Fixed-v2.sol\":6050:6127  ethAmount = ethBalance > ethFeesCollected ? ethBalance - ethFeesCollected : 0 */\n      swap1\n      swap5\n      pop\n        /* \"Campaign-Fixed-v2.sol\":6149:6190  flwBalance > tokenFeesCollected[flwToken] */\n      dup2\n      gt\n        /* \"Campaign-Fixed-v2.sol\":6149:6238  flwBalance > tokenFeesCollected[flwToken] ? flwBalance - tokenFeesCollected[flwToken] : 0 */\n      tag_380\n      jumpi\n        /* \"Campaign-Fixed-v2.sol\":6237:6238  0 */\n      0x00\n        /* \"Campaign-Fixed-v2.sol\":6149:6238  flwBalance > tokenFeesCollected[flwToken] ? flwBalance - tokenFeesCollected[flwToken] : 0 */\n      jump(tag_382)\n    tag_380:\n        /* \"Campaign-Fixed-v2.sol\":6225:6233  flwToken */\n      and(sub(shl(0xa0, 0x01), 0x01), sload(0x04))\n        /* \"Campaign-Fixed-v2.sol\":6206:6234  tokenFeesCollected[flwToken] */\n      0x00\n      swap1\n      dup2\n      mstore\n        /* \"Campaign-Fixed-v2.sol\":6206:6224  tokenFeesCollected */\n      0x0b\n        /* \"Campaign-Fixed-v2.sol\":6206:6234  tokenFeesCollected[flwToken] */\n      0x20\n      mstore\n      0x40\n      swap1\n      keccak256\n      sload\n        /* \"Campaign-Fixed-v2.sol\":6193:6234  flwBalance - tokenFeesCollected[flwToken] */\n      tag_382\n      swap1\n        /* \"Campaign-Fixed-v2.sol\":6193:6203  flwBalance */\n      dup3\n        /* \"Campaign-Fixed-v2.sol\":6193:6234  flwBalance - tokenFeesCollected[flwToken] */\n      tag_238\n      jump\t// in\n    tag_382:\n        /* \"Campaign-Fixed-v2.sol\":6137:6238  flwAmount = flwBalance > tokenFeesCollected[flwToken] ? flwBalance - tokenFeesCollected[flwToken] : 0 */\n      swap3\n      pop\n        /* \"Campaign-Fixed-v2.sol\":5819:6245  {... */\n      pop\n      pop\n        /* \"Campaign-Fixed-v2.sol\":5727:6245  function getWithdrawableAmount() public view returns (uint256 ethAmount, uint256 flwAmount) {... */\n      swap1\n      swap2\n      jump\t// out\n        /* \"Campaign-Fixed-v2.sol\":7470:7561  function getImageUrl() public view returns (string memory) {... */\n    tag_152:\n        /* \"Campaign-Fixed-v2.sol\":7514:7527  string memory */\n      0x60\n        /* \"Campaign-Fixed-v2.sol\":7546:7554  imageUrl */\n      0x08\n        /* \"Campaign-Fixed-v2.sol\":7539:7554  return imageUrl */\n      dup1\n      sload\n      tag_247\n      swap1\n      tag_248\n      jump\t// in\n        /* \"Campaign-Fixed-v2.sol\":1132:1165  uint256[] public updateTimestamps */\n    tag_157:\n      0x0f\n      dup2\n      dup2\n      sload\n      dup2\n      lt\n      tag_389\n      jumpi\n      0x00\n      dup1\n      revert\n    tag_389:\n      0x00\n      swap2\n      dup3\n      mstore\n      0x20\n      swap1\n      swap2\n      keccak256\n      add\n      sload\n      swap1\n      pop\n      dup2\n      jump\t// out\n        /* \"Campaign-Fixed-v2.sol\":6827:6942  function getPlatformOwner() public view returns (address) {... */\n    tag_161:\n        /* \"Campaign-Fixed-v2.sol\":6919:6926  factory */\n      sload(0x01)\n        /* \"Campaign-Fixed-v2.sol\":6902:6935  ICampaignFactory(factory).owner() */\n      0x40\n      dup1\n      mload\n      shl(0xe0, 0x8da5cb5b)\n      dup2\n      mstore\n      swap1\n      mload\n        /* \"Campaign-Fixed-v2.sol\":6876:6883  address */\n      0x00\n      swap3\n      sub(shl(0xa0, 0x01), 0x01)\n        /* \"Campaign-Fixed-v2.sol\":6919:6926  factory */\n      and\n      swap2\n        /* \"Campaign-Fixed-v2.sol\":6902:6933  ICampaignFactory(factory).owner */\n      0x8da5cb5b\n      swap2\n        /* \"Campaign-Fixed-v2.sol\":6902:6935  ICampaignFactory(factory).owner() */\n      0x04\n      dup1\n      dup4\n      add\n      swap3\n      0x20\n      swap3\n      swap2\n      swap1\n      dup3\n      swap1\n      sub\n      add\n      dup2\n        /* \"Campaign-Fixed-v2.sol\":6919:6926  factory */\n      dup7\n        /* \"Campaign-Fixed-v2.sol\":6902:6935  ICampaignFactory(factory).owner() */\n      gas\n      staticcall\n      iszero\n      dup1\n      iszero\n      tag_393\n      jumpi\n      returndatasize\n      0x00\n      dup1\n      returndatacopy\n      revert(0x00, returndatasize)\n    tag_393:\n      pop\n      pop\n      pop\n      pop\n      mload(0x40)\n      returndatasize\n      not(0x1f)\n      0x1f\n      dup3\n      add\n      and\n      dup3\n      add\n      dup1\n      0x40\n      mstore\n      pop\n      dup2\n      add\n      swap1\n      tag_394\n      swap2\n      swap1\n      tag_395\n      jump\t// in\n    tag_394:\n        /* \"Campaign-Fixed-v2.sol\":6895:6935  return ICampaignFactory(factory).owner() */\n      swap1\n      pop\n        /* \"Campaign-Fixed-v2.sol\":6827:6942  function getPlatformOwner() public view returns (address) {... */\n      swap1\n      jump\t// out\n        /* \"Campaign-Fixed-v2.sol\":804:826  string public imageUrl */\n    tag_165:\n      0x08\n      dup1\n      sload\n      tag_314\n      swap1\n      tag_248\n      jump\t// in\n        /* \"Campaign-Fixed-v2.sol\":1066:1090  address[] public updates */\n    tag_174:\n      0x0d\n      dup2\n      dup2\n      sload\n      dup2\n      lt\n      tag_401\n      jumpi\n      0x00\n      dup1\n      revert\n    tag_401:\n      0x00\n      swap2\n      dup3\n      mstore\n      0x20\n      swap1\n      swap2\n      keccak256\n      add\n      sload\n      sub(shl(0xa0, 0x01), 0x01)\n      and\n      swap1\n      pop\n      dup2\n      jump\t// out\n        /* \"Campaign-Fixed-v2.sol\":1096:1126  string[] public updateMessages */\n    tag_183:\n      0x0e\n      dup2\n      dup2\n      sload\n      dup2\n      lt\n      tag_404\n      jumpi\n      0x00\n      dup1\n      revert\n    tag_404:\n      swap1\n      0x00\n      mstore\n      keccak256(0x00, 0x20)\n      add\n      0x00\n      swap2\n      pop\n      swap1\n      pop\n      dup1\n      sload\n      tag_314\n      swap1\n      tag_248\n      jump\t// in\n        /* \"Campaign-Fixed-v2.sol\":4542:4800  function collectTokenFees(address token, address to) public onlyPlatformOwner {... */\n    tag_206:\n        /* \"Campaign-Fixed-v2.sol\":1561:1579  getPlatformOwner() */\n      tag_413\n        /* \"Campaign-Fixed-v2.sol\":1561:1577  getPlatformOwner */\n      tag_161\n        /* \"Campaign-Fixed-v2.sol\":1561:1579  getPlatformOwner() */\n      jump\t// in\n    tag_413:\n      sub(shl(0xa0, 0x01), 0x01)\n        /* \"Campaign-Fixed-v2.sol\":1547:1579  msg.sender == getPlatformOwner() */\n      and\n        /* \"Campaign-Fixed-v2.sol\":1547:1557  msg.sender */\n      caller\n      sub(shl(0xa0, 0x01), 0x01)\n        /* \"Campaign-Fixed-v2.sol\":1547:1579  msg.sender == getPlatformOwner() */\n      and\n      eq\n        /* \"Campaign-Fixed-v2.sol\":1539:1602  require(msg.sender == getPlatformOwner(), \"Not platform owner\") */\n      tag_414\n      jumpi\n      mload(0x40)\n      shl(0xe5, 0x461bcd)\n      dup2\n      mstore\n        /* \"#utility.yul\":11046:11048   */\n      0x20\n        /* \"Campaign-Fixed-v2.sol\":1539:1602  require(msg.sender == getPlatformOwner(), \"Not platform owner\") */\n      0x04\n      dup3\n      add\n        /* \"#utility.yul\":11028:11049   */\n      mstore\n        /* \"#utility.yul\":11085:11087   */\n      0x12\n        /* \"#utility.yul\":11065:11083   */\n      0x24\n      dup3\n      add\n        /* \"#utility.yul\":11058:11088   */\n      mstore\n      shl(0x71, 0x2737ba10383630ba3337b9369037bbb732b9)\n        /* \"#utility.yul\":11104:11122   */\n      0x44\n      dup3\n      add\n        /* \"#utility.yul\":11097:11145   */\n      mstore\n        /* \"#utility.yul\":11162:11180   */\n      0x64\n      add\n        /* \"Campaign-Fixed-v2.sol\":1539:1602  require(msg.sender == getPlatformOwner(), \"Not platform owner\") */\n      tag_226\n        /* \"#utility.yul\":10844:11186   */\n      jump\n        /* \"Campaign-Fixed-v2.sol\":1539:1602  require(msg.sender == getPlatformOwner(), \"Not platform owner\") */\n    tag_414:\n      sub(shl(0xa0, 0x01), 0x01)\n        /* \"Campaign-Fixed-v2.sol\":4647:4672  tokenFeesCollected[token] */\n      dup3\n      dup2\n      and\n        /* \"Campaign-Fixed-v2.sol\":4630:4644  uint256 amount */\n      0x00\n        /* \"Campaign-Fixed-v2.sol\":4647:4672  tokenFeesCollected[token] */\n      dup2\n      dup2\n      mstore\n        /* \"Campaign-Fixed-v2.sol\":4647:4665  tokenFeesCollected */\n      0x0b\n        /* \"Campaign-Fixed-v2.sol\":4647:4672  tokenFeesCollected[token] */\n      0x20\n      mstore\n      0x40\n      dup1\n      dup3\n      keccak256\n      dup1\n      sload\n        /* \"Campaign-Fixed-v2.sol\":4682:4711  tokenFeesCollected[token] = 0 */\n      swap3\n      swap1\n      sstore\n        /* \"Campaign-Fixed-v2.sol\":4729:4763  IERC20(token).transfer(to, amount) */\n      mload\n      shl(0xe0, 0xa9059cbb)\n      dup2\n      mstore\n        /* \"#utility.yul\":9833:9888   */\n      swap3\n      dup5\n      and\n        /* \"Campaign-Fixed-v2.sol\":4729:4763  IERC20(token).transfer(to, amount) */\n      0x04\n      dup5\n      add\n        /* \"#utility.yul\":9815:9889   */\n      mstore\n        /* \"#utility.yul\":9905:9923   */\n      0x24\n      dup4\n      add\n        /* \"#utility.yul\":9898:9932   */\n      dup2\n      swap1\n      mstore\n        /* \"Campaign-Fixed-v2.sol\":4647:4672  tokenFeesCollected[token] */\n      swap2\n        /* \"Campaign-Fixed-v2.sol\":4729:4751  IERC20(token).transfer */\n      0xa9059cbb\n      swap1\n        /* \"#utility.yul\":9788:9806   */\n      0x44\n      add\n        /* \"Campaign-Fixed-v2.sol\":4729:4763  IERC20(token).transfer(to, amount) */\n      0x20\n      mload(0x40)\n      dup1\n      dup4\n      sub\n      dup2\n      0x00\n      dup8\n      gas\n      call\n      iszero\n      dup1\n      iszero\n      tag_419\n      jumpi\n      returndatasize\n      0x00\n      dup1\n      returndatacopy\n      revert(0x00, returndatasize)\n    tag_419:\n      pop\n      pop\n      pop\n      pop\n      mload(0x40)\n      returndatasize\n      not(0x1f)\n      0x1f\n      dup3\n      add\n      and\n      dup3\n      add\n      dup1\n      0x40\n      mstore\n      pop\n      dup2\n      add\n      swap1\n      tag_420\n      swap2\n      swap1\n      tag_307\n      jump\t// in\n    tag_420:\n        /* \"Campaign-Fixed-v2.sol\":4721:4793  require(IERC20(token).transfer(to, amount), \"Token fee transfer failed\") */\n      tag_330\n      jumpi\n      mload(0x40)\n      shl(0xe5, 0x461bcd)\n      dup2\n      mstore\n        /* \"#utility.yul\":13091:13093   */\n      0x20\n        /* \"Campaign-Fixed-v2.sol\":4721:4793  require(IERC20(token).transfer(to, amount), \"Token fee transfer failed\") */\n      0x04\n      dup3\n      add\n        /* \"#utility.yul\":13073:13094   */\n      mstore\n        /* \"#utility.yul\":13130:13132   */\n      0x19\n        /* \"#utility.yul\":13110:13128   */\n      0x24\n      dup3\n      add\n        /* \"#utility.yul\":13103:13133   */\n      mstore\n        /* \"#utility.yul\":13169:13196   */\n      0x546f6b656e20666565207472616e73666572206661696c656400000000000000\n        /* \"#utility.yul\":13149:13167   */\n      0x44\n      dup3\n      add\n        /* \"#utility.yul\":13142:13197   */\n      mstore\n        /* \"#utility.yul\":13214:13232   */\n      0x64\n      add\n        /* \"Campaign-Fixed-v2.sol\":4721:4793  require(IERC20(token).transfer(to, amount), \"Token fee transfer failed\") */\n      tag_226\n        /* \"#utility.yul\":12889:13238   */\n      jump\n        /* \"Campaign-Fixed-v2.sol\":7276:7361  function getTitle() public view returns (string memory) {... */\n    tag_222:\n        /* \"Campaign-Fixed-v2.sol\":7317:7330  string memory */\n      0x60\n        /* \"Campaign-Fixed-v2.sol\":7349:7354  title */\n      0x06\n        /* \"Campaign-Fixed-v2.sol\":7342:7354  return title */\n      dup1\n      sload\n      tag_247\n      swap1\n      tag_248\n      jump\t// in\n        /* \"#utility.yul\":14:168   */\n    tag_431:\n      sub(shl(0xa0, 0x01), 0x01)\n        /* \"#utility.yul\":93:98   */\n      dup2\n        /* \"#utility.yul\":89:143   */\n      and\n        /* \"#utility.yul\":82:87   */\n      dup2\n        /* \"#utility.yul\":79:144   */\n      eq\n        /* \"#utility.yul\":69:162   */\n      tag_368\n      jumpi\n        /* \"#utility.yul\":158:159   */\n      0x00\n        /* \"#utility.yul\":155:156   */\n      dup1\n        /* \"#utility.yul\":148:160   */\n      revert\n        /* \"#utility.yul\":173:420   */\n    tag_61:\n        /* \"#utility.yul\":232:238   */\n      0x00\n        /* \"#utility.yul\":285:287   */\n      0x20\n        /* \"#utility.yul\":273:282   */\n      dup3\n        /* \"#utility.yul\":264:271   */\n      dup5\n        /* \"#utility.yul\":260:283   */\n      sub\n        /* \"#utility.yul\":256:288   */\n      slt\n        /* \"#utility.yul\":253:305   */\n      iszero\n      tag_442\n      jumpi\n        /* \"#utility.yul\":301:302   */\n      0x00\n        /* \"#utility.yul\":298:299   */\n      dup1\n        /* \"#utility.yul\":291:303   */\n      revert\n        /* \"#utility.yul\":253:305   */\n    tag_442:\n        /* \"#utility.yul\":340:349   */\n      dup2\n        /* \"#utility.yul\":327:350   */\n      calldataload\n        /* \"#utility.yul\":359:390   */\n      tag_443\n        /* \"#utility.yul\":384:389   */\n      dup2\n        /* \"#utility.yul\":359:390   */\n      tag_431\n      jump\t// in\n    tag_443:\n        /* \"#utility.yul\":409:414   */\n      swap4\n        /* \"#utility.yul\":173:420   */\n      swap3\n      pop\n      pop\n      pop\n      jump\t// out\n        /* \"#utility.yul\":1091:1380   */\n    tag_432:\n        /* \"#utility.yul\":1133:1136   */\n      0x00\n        /* \"#utility.yul\":1171:1176   */\n      dup2\n        /* \"#utility.yul\":1165:1177   */\n      mload\n        /* \"#utility.yul\":1198:1204   */\n      dup1\n        /* \"#utility.yul\":1193:1196   */\n      dup5\n        /* \"#utility.yul\":1186:1205   */\n      mstore\n        /* \"#utility.yul\":1254:1260   */\n      dup1\n        /* \"#utility.yul\":1247:1251   */\n      0x20\n        /* \"#utility.yul\":1240:1245   */\n      dup5\n        /* \"#utility.yul\":1236:1252   */\n      add\n        /* \"#utility.yul\":1229:1233   */\n      0x20\n        /* \"#utility.yul\":1224:1227   */\n      dup7\n        /* \"#utility.yul\":1220:1234   */\n      add\n        /* \"#utility.yul\":1214:1261   */\n      mcopy\n        /* \"#utility.yul\":1306:1307   */\n      0x00\n        /* \"#utility.yul\":1299:1303   */\n      0x20\n        /* \"#utility.yul\":1290:1296   */\n      dup3\n        /* \"#utility.yul\":1285:1288   */\n      dup7\n        /* \"#utility.yul\":1281:1297   */\n      add\n        /* \"#utility.yul\":1277:1304   */\n      add\n        /* \"#utility.yul\":1270:1308   */\n      mstore\n        /* \"#utility.yul\":1369:1373   */\n      0x20\n        /* \"#utility.yul\":1362:1364   */\n      0x1f\n        /* \"#utility.yul\":1358:1365   */\n      not\n        /* \"#utility.yul\":1353:1355   */\n      0x1f\n        /* \"#utility.yul\":1345:1351   */\n      dup4\n        /* \"#utility.yul\":1341:1356   */\n      add\n        /* \"#utility.yul\":1337:1366   */\n      and\n        /* \"#utility.yul\":1332:1335   */\n      dup6\n        /* \"#utility.yul\":1328:1367   */\n      add\n        /* \"#utility.yul\":1324:1374   */\n      add\n        /* \"#utility.yul\":1317:1374   */\n      swap2\n      pop\n      pop\n        /* \"#utility.yul\":1091:1380   */\n      swap3\n      swap2\n      pop\n      pop\n      jump\t// out\n        /* \"#utility.yul\":1385:1605   */\n    tag_79:\n        /* \"#utility.yul\":1534:1536   */\n      0x20\n        /* \"#utility.yul\":1523:1532   */\n      dup2\n        /* \"#utility.yul\":1516:1537   */\n      mstore\n        /* \"#utility.yul\":1497:1501   */\n      0x00\n        /* \"#utility.yul\":1554:1599   */\n      tag_443\n        /* \"#utility.yul\":1595:1597   */\n      0x20\n        /* \"#utility.yul\":1584:1593   */\n      dup4\n        /* \"#utility.yul\":1580:1598   */\n      add\n        /* \"#utility.yul\":1572:1578   */\n      dup5\n        /* \"#utility.yul\":1554:1599   */\n      tag_432\n      jump\t// in\n        /* \"#utility.yul\":1610:2202   */\n    tag_83:\n        /* \"#utility.yul\":1681:1687   */\n      0x00\n        /* \"#utility.yul\":1689:1695   */\n      dup1\n        /* \"#utility.yul\":1742:1744   */\n      0x20\n        /* \"#utility.yul\":1730:1739   */\n      dup4\n        /* \"#utility.yul\":1721:1728   */\n      dup6\n        /* \"#utility.yul\":1717:1740   */\n      sub\n        /* \"#utility.yul\":1713:1745   */\n      slt\n        /* \"#utility.yul\":1710:1762   */\n      iszero\n      tag_451\n      jumpi\n        /* \"#utility.yul\":1758:1759   */\n      0x00\n        /* \"#utility.yul\":1755:1756   */\n      dup1\n        /* \"#utility.yul\":1748:1760   */\n      revert\n        /* \"#utility.yul\":1710:1762   */\n    tag_451:\n        /* \"#utility.yul\":1798:1807   */\n      dup3\n        /* \"#utility.yul\":1785:1808   */\n      calldataload\n        /* \"#utility.yul\":1827:1845   */\n      0xffffffffffffffff\n        /* \"#utility.yul\":1868:1870   */\n      dup1\n        /* \"#utility.yul\":1860:1866   */\n      dup3\n        /* \"#utility.yul\":1857:1871   */\n      gt\n        /* \"#utility.yul\":1854:1888   */\n      iszero\n      tag_452\n      jumpi\n        /* \"#utility.yul\":1884:1885   */\n      0x00\n        /* \"#utility.yul\":1881:1882   */\n      dup1\n        /* \"#utility.yul\":1874:1886   */\n      revert\n        /* \"#utility.yul\":1854:1888   */\n    tag_452:\n        /* \"#utility.yul\":1922:1928   */\n      dup2\n        /* \"#utility.yul\":1911:1920   */\n      dup6\n        /* \"#utility.yul\":1907:1929   */\n      add\n        /* \"#utility.yul\":1897:1929   */\n      swap2\n      pop\n        /* \"#utility.yul\":1967:1974   */\n      dup6\n        /* \"#utility.yul\":1960:1964   */\n      0x1f\n        /* \"#utility.yul\":1956:1958   */\n      dup4\n        /* \"#utility.yul\":1952:1965   */\n      add\n        /* \"#utility.yul\":1948:1975   */\n      slt\n        /* \"#utility.yul\":1938:1993   */\n      tag_453\n      jumpi\n        /* \"#utility.yul\":1989:1990   */\n      0x00\n        /* \"#utility.yul\":1986:1987   */\n      dup1\n        /* \"#utility.yul\":1979:1991   */\n      revert\n        /* \"#utility.yul\":1938:1993   */\n    tag_453:\n        /* \"#utility.yul\":2029:2031   */\n      dup2\n        /* \"#utility.yul\":2016:2032   */\n      calldataload\n        /* \"#utility.yul\":2055:2057   */\n      dup2\n        /* \"#utility.yul\":2047:2053   */\n      dup2\n        /* \"#utility.yul\":2044:2058   */\n      gt\n        /* \"#utility.yul\":2041:2075   */\n      iszero\n      tag_454\n      jumpi\n        /* \"#utility.yul\":2071:2072   */\n      0x00\n        /* \"#utility.yul\":2068:2069   */\n      dup1\n        /* \"#utility.yul\":2061:2073   */\n      revert\n        /* \"#utility.yul\":2041:2075   */\n    tag_454:\n        /* \"#utility.yul\":2116:2123   */\n      dup7\n        /* \"#utility.yul\":2111:2113   */\n      0x20\n        /* \"#utility.yul\":2102:2108   */\n      dup3\n        /* \"#utility.yul\":2098:2100   */\n      dup6\n        /* \"#utility.yul\":2094:2109   */\n      add\n        /* \"#utility.yul\":2090:2114   */\n      add\n        /* \"#utility.yul\":2087:2124   */\n      gt\n        /* \"#utility.yul\":2084:2141   */\n      iszero\n      tag_455\n      jumpi\n        /* \"#utility.yul\":2137:2138   */\n      0x00\n        /* \"#utility.yul\":2134:2135   */\n      dup1\n        /* \"#utility.yul\":2127:2139   */\n      revert\n        /* \"#utility.yul\":2084:2141   */\n    tag_455:\n        /* \"#utility.yul\":2168:2170   */\n      0x20\n        /* \"#utility.yul\":2160:2171   */\n      swap3\n      swap1\n      swap3\n      add\n      swap7\n        /* \"#utility.yul\":2190:2196   */\n      swap2\n      swap6\n      pop\n        /* \"#utility.yul\":1610:2202   */\n      swap1\n      swap4\n      pop\n      pop\n      pop\n      pop\n      jump\t// out\n        /* \"#utility.yul\":2399:2579   */\n    tag_97:\n        /* \"#utility.yul\":2458:2464   */\n      0x00\n        /* \"#utility.yul\":2511:2513   */\n      0x20\n        /* \"#utility.yul\":2499:2508   */\n      dup3\n        /* \"#utility.yul\":2490:2497   */\n      dup5\n        /* \"#utility.yul\":2486:2509   */\n      sub\n        /* \"#utility.yul\":2482:2514   */\n      slt\n        /* \"#utility.yul\":2479:2531   */\n      iszero\n      tag_458\n      jumpi\n        /* \"#utility.yul\":2527:2528   */\n      0x00\n        /* \"#utility.yul\":2524:2525   */\n      dup1\n        /* \"#utility.yul\":2517:2529   */\n      revert\n        /* \"#utility.yul\":2479:2531   */\n    tag_458:\n      pop\n        /* \"#utility.yul\":2550:2573   */\n      calldataload\n      swap2\n        /* \"#utility.yul\":2399:2579   */\n      swap1\n      pop\n      jump\t// out\n        /* \"#utility.yul\":2584:2875   */\n    tag_100:\n        /* \"#utility.yul\":2761:2763   */\n      0x40\n        /* \"#utility.yul\":2750:2759   */\n      dup2\n        /* \"#utility.yul\":2743:2764   */\n      mstore\n        /* \"#utility.yul\":2724:2728   */\n      0x00\n        /* \"#utility.yul\":2781:2826   */\n      tag_460\n        /* \"#utility.yul\":2822:2824   */\n      0x40\n        /* \"#utility.yul\":2811:2820   */\n      dup4\n        /* \"#utility.yul\":2807:2825   */\n      add\n        /* \"#utility.yul\":2799:2805   */\n      dup6\n        /* \"#utility.yul\":2781:2826   */\n      tag_432\n      jump\t// in\n    tag_460:\n        /* \"#utility.yul\":2773:2826   */\n      swap1\n      pop\n        /* \"#utility.yul\":2862:2868   */\n      dup3\n        /* \"#utility.yul\":2857:2859   */\n      0x20\n        /* \"#utility.yul\":2846:2855   */\n      dup4\n        /* \"#utility.yul\":2842:2860   */\n      add\n        /* \"#utility.yul\":2835:2869   */\n      mstore\n        /* \"#utility.yul\":2584:2875   */\n      swap4\n      swap3\n      pop\n      pop\n      pop\n      jump\t// out\n        /* \"#utility.yul\":2880:3195   */\n    tag_123:\n        /* \"#utility.yul\":2948:2954   */\n      0x00\n        /* \"#utility.yul\":2956:2962   */\n      dup1\n        /* \"#utility.yul\":3009:3011   */\n      0x40\n        /* \"#utility.yul\":2997:3006   */\n      dup4\n        /* \"#utility.yul\":2988:2995   */\n      dup6\n        /* \"#utility.yul\":2984:3007   */\n      sub\n        /* \"#utility.yul\":2980:3012   */\n      slt\n        /* \"#utility.yul\":2977:3029   */\n      iszero\n      tag_462\n      jumpi\n        /* \"#utility.yul\":3025:3026   */\n      0x00\n        /* \"#utility.yul\":3022:3023   */\n      dup1\n        /* \"#utility.yul\":3015:3027   */\n      revert\n        /* \"#utility.yul\":2977:3029   */\n    tag_462:\n        /* \"#utility.yul\":3064:3073   */\n      dup3\n        /* \"#utility.yul\":3051:3074   */\n      calldataload\n        /* \"#utility.yul\":3083:3114   */\n      tag_463\n        /* \"#utility.yul\":3108:3113   */\n      dup2\n        /* \"#utility.yul\":3083:3114   */\n      tag_431\n      jump\t// in\n    tag_463:\n        /* \"#utility.yul\":3133:3138   */\n      swap5\n        /* \"#utility.yul\":3185:3187   */\n      0x20\n        /* \"#utility.yul\":3170:3188   */\n      swap4\n      swap1\n      swap4\n      add\n        /* \"#utility.yul\":3157:3189   */\n      calldataload\n      swap4\n      pop\n      pop\n      pop\n        /* \"#utility.yul\":2880:3195   */\n      jump\t// out\n        /* \"#utility.yul\":3200:3588   */\n    tag_205:\n        /* \"#utility.yul\":3268:3274   */\n      0x00\n        /* \"#utility.yul\":3276:3282   */\n      dup1\n        /* \"#utility.yul\":3329:3331   */\n      0x40\n        /* \"#utility.yul\":3317:3326   */\n      dup4\n        /* \"#utility.yul\":3308:3315   */\n      dup6\n        /* \"#utility.yul\":3304:3327   */\n      sub\n        /* \"#utility.yul\":3300:3332   */\n      slt\n        /* \"#utility.yul\":3297:3349   */\n      iszero\n      tag_465\n      jumpi\n        /* \"#utility.yul\":3345:3346   */\n      0x00\n        /* \"#utility.yul\":3342:3343   */\n      dup1\n        /* \"#utility.yul\":3335:3347   */\n      revert\n        /* \"#utility.yul\":3297:3349   */\n    tag_465:\n        /* \"#utility.yul\":3384:3393   */\n      dup3\n        /* \"#utility.yul\":3371:3394   */\n      calldataload\n        /* \"#utility.yul\":3403:3434   */\n      tag_466\n        /* \"#utility.yul\":3428:3433   */\n      dup2\n        /* \"#utility.yul\":3403:3434   */\n      tag_431\n      jump\t// in\n    tag_466:\n        /* \"#utility.yul\":3453:3458   */\n      swap2\n      pop\n        /* \"#utility.yul\":3510:3512   */\n      0x20\n        /* \"#utility.yul\":3495:3513   */\n      dup4\n      add\n        /* \"#utility.yul\":3482:3514   */\n      calldataload\n        /* \"#utility.yul\":3523:3556   */\n      tag_467\n        /* \"#utility.yul\":3482:3514   */\n      dup2\n        /* \"#utility.yul\":3523:3556   */\n      tag_431\n      jump\t// in\n    tag_467:\n        /* \"#utility.yul\":3575:3582   */\n      dup1\n        /* \"#utility.yul\":3565:3582   */\n      swap2\n      pop\n      pop\n        /* \"#utility.yul\":3200:3588   */\n      swap3\n      pop\n      swap3\n      swap1\n      pop\n      jump\t// out\n        /* \"#utility.yul\":4276:4403   */\n    tag_433:\n        /* \"#utility.yul\":4337:4347   */\n      0x4e487b71\n        /* \"#utility.yul\":4332:4335   */\n      0xe0\n        /* \"#utility.yul\":4328:4348   */\n      shl\n        /* \"#utility.yul\":4325:4326   */\n      0x00\n        /* \"#utility.yul\":4318:4349   */\n      mstore\n        /* \"#utility.yul\":4368:4372   */\n      0x11\n        /* \"#utility.yul\":4365:4366   */\n      0x04\n        /* \"#utility.yul\":4358:4373   */\n      mstore\n        /* \"#utility.yul\":4392:4396   */\n      0x24\n        /* \"#utility.yul\":4389:4390   */\n      0x00\n        /* \"#utility.yul\":4382:4397   */\n      revert\n        /* \"#utility.yul\":4408:4576   */\n    tag_232:\n        /* \"#utility.yul\":4481:4490   */\n      dup1\n      dup3\n      mul\n        /* \"#utility.yul\":4512:4521   */\n      dup2\n      iszero\n        /* \"#utility.yul\":4529:4544   */\n      dup3\n      dup3\n      div\n        /* \"#utility.yul\":4523:4545   */\n      dup5\n      eq\n        /* \"#utility.yul\":4509:4546   */\n      or\n        /* \"#utility.yul\":4499:4570   */\n      tag_473\n      jumpi\n        /* \"#utility.yul\":4550:4568   */\n      tag_473\n      tag_433\n      jump\t// in\n    tag_473:\n        /* \"#utility.yul\":4408:4576   */\n      swap3\n      swap2\n      pop\n      pop\n      jump\t// out\n        /* \"#utility.yul\":4581:4798   */\n    tag_234:\n        /* \"#utility.yul\":4621:4622   */\n      0x00\n        /* \"#utility.yul\":4647:4648   */\n      dup3\n        /* \"#utility.yul\":4637:4769   */\n      tag_475\n      jumpi\n        /* \"#utility.yul\":4691:4701   */\n      0x4e487b71\n        /* \"#utility.yul\":4686:4689   */\n      0xe0\n        /* \"#utility.yul\":4682:4702   */\n      shl\n        /* \"#utility.yul\":4679:4680   */\n      0x00\n        /* \"#utility.yul\":4672:4703   */\n      mstore\n        /* \"#utility.yul\":4726:4730   */\n      0x12\n        /* \"#utility.yul\":4723:4724   */\n      0x04\n        /* \"#utility.yul\":4716:4731   */\n      mstore\n        /* \"#utility.yul\":4754:4758   */\n      0x24\n        /* \"#utility.yul\":4751:4752   */\n      0x00\n        /* \"#utility.yul\":4744:4759   */\n      revert\n        /* \"#utility.yul\":4637:4769   */\n    tag_475:\n      pop\n        /* \"#utility.yul\":4783:4792   */\n      div\n      swap1\n        /* \"#utility.yul\":4581:4798   */\n      jump\t// out\n        /* \"#utility.yul\":4803:4928   */\n    tag_236:\n        /* \"#utility.yul\":4868:4877   */\n      dup1\n      dup3\n      add\n        /* \"#utility.yul\":4889:4899   */\n      dup1\n      dup3\n      gt\n        /* \"#utility.yul\":4886:4922   */\n      iszero\n      tag_473\n      jumpi\n        /* \"#utility.yul\":4902:4920   */\n      tag_473\n      tag_433\n      jump\t// in\n        /* \"#utility.yul\":4933:5061   */\n    tag_238:\n        /* \"#utility.yul\":5000:5009   */\n      dup2\n      dup2\n      sub\n        /* \"#utility.yul\":5021:5032   */\n      dup2\n      dup2\n      gt\n        /* \"#utility.yul\":5018:5055   */\n      iszero\n      tag_473\n      jumpi\n        /* \"#utility.yul\":5035:5053   */\n      tag_473\n      tag_433\n      jump\t// in\n        /* \"#utility.yul\":5066:5250   */\n    tag_245:\n        /* \"#utility.yul\":5136:5142   */\n      0x00\n        /* \"#utility.yul\":5189:5191   */\n      0x20\n        /* \"#utility.yul\":5177:5186   */\n      dup3\n        /* \"#utility.yul\":5168:5175   */\n      dup5\n        /* \"#utility.yul\":5164:5187   */\n      sub\n        /* \"#utility.yul\":5160:5192   */\n      slt\n        /* \"#utility.yul\":5157:5209   */\n      iszero\n      tag_483\n      jumpi\n        /* \"#utility.yul\":5205:5206   */\n      0x00\n        /* \"#utility.yul\":5202:5203   */\n      dup1\n        /* \"#utility.yul\":5195:5207   */\n      revert\n        /* \"#utility.yul\":5157:5209   */\n    tag_483:\n      pop\n        /* \"#utility.yul\":5228:5244   */\n      mload\n      swap2\n        /* \"#utility.yul\":5066:5250   */\n      swap1\n      pop\n      jump\t// out\n        /* \"#utility.yul\":5255:5635   */\n    tag_248:\n        /* \"#utility.yul\":5334:5335   */\n      0x01\n        /* \"#utility.yul\":5330:5342   */\n      dup2\n      dup2\n      shr\n      swap1\n        /* \"#utility.yul\":5377:5389   */\n      dup3\n      and\n      dup1\n        /* \"#utility.yul\":5398:5459   */\n      tag_485\n      jumpi\n        /* \"#utility.yul\":5452:5456   */\n      0x7f\n        /* \"#utility.yul\":5444:5450   */\n      dup3\n        /* \"#utility.yul\":5440:5457   */\n      and\n        /* \"#utility.yul\":5430:5457   */\n      swap2\n      pop\n        /* \"#utility.yul\":5398:5459   */\n    tag_485:\n        /* \"#utility.yul\":5505:5507   */\n      0x20\n        /* \"#utility.yul\":5497:5503   */\n      dup3\n        /* \"#utility.yul\":5494:5508   */\n      lt\n        /* \"#utility.yul\":5474:5492   */\n      dup2\n        /* \"#utility.yul\":5471:5509   */\n      sub\n        /* \"#utility.yul\":5468:5629   */\n      tag_486\n      jumpi\n        /* \"#utility.yul\":5551:5561   */\n      0x4e487b71\n        /* \"#utility.yul\":5546:5549   */\n      0xe0\n        /* \"#utility.yul\":5542:5562   */\n      shl\n        /* \"#utility.yul\":5539:5540   */\n      0x00\n        /* \"#utility.yul\":5532:5563   */\n      mstore\n        /* \"#utility.yul\":5586:5590   */\n      0x22\n        /* \"#utility.yul\":5583:5584   */\n      0x04\n        /* \"#utility.yul\":5576:5591   */\n      mstore\n        /* \"#utility.yul\":5614:5618   */\n      0x24\n        /* \"#utility.yul\":5611:5612   */\n      0x00\n        /* \"#utility.yul\":5604:5619   */\n      revert\n        /* \"#utility.yul\":5468:5629   */\n    tag_486:\n      pop\n        /* \"#utility.yul\":5255:5635   */\n      swap2\n      swap1\n      pop\n      jump\t// out\n        /* \"#utility.yul\":5987:6114   */\n    tag_434:\n        /* \"#utility.yul\":6048:6058   */\n      0x4e487b71\n        /* \"#utility.yul\":6043:6046   */\n      0xe0\n        /* \"#utility.yul\":6039:6059   */\n      shl\n        /* \"#utility.yul\":6036:6037   */\n      0x00\n        /* \"#utility.yul\":6029:6060   */\n      mstore\n        /* \"#utility.yul\":6079:6083   */\n      0x41\n        /* \"#utility.yul\":6076:6077   */\n      0x04\n        /* \"#utility.yul\":6069:6084   */\n      mstore\n        /* \"#utility.yul\":6103:6107   */\n      0x24\n        /* \"#utility.yul\":6100:6101   */\n      0x00\n        /* \"#utility.yul\":6093:6108   */\n      revert\n        /* \"#utility.yul\":6245:6763   */\n    tag_436:\n        /* \"#utility.yul\":6347:6349   */\n      0x1f\n        /* \"#utility.yul\":6342:6345   */\n      dup3\n        /* \"#utility.yul\":6339:6350   */\n      gt\n        /* \"#utility.yul\":6336:6757   */\n      iszero\n      tag_330\n      jumpi\n        /* \"#utility.yul\":6383:6388   */\n      dup1\n        /* \"#utility.yul\":6380:6381   */\n      0x00\n        /* \"#utility.yul\":6373:6389   */\n      mstore\n        /* \"#utility.yul\":6427:6431   */\n      0x20\n        /* \"#utility.yul\":6424:6425   */\n      0x00\n        /* \"#utility.yul\":6414:6432   */\n      keccak256\n        /* \"#utility.yul\":6497:6499   */\n      0x1f\n        /* \"#utility.yul\":6485:6495   */\n      dup5\n        /* \"#utility.yul\":6481:6500   */\n      add\n        /* \"#utility.yul\":6478:6479   */\n      0x05\n        /* \"#utility.yul\":6474:6501   */\n      shr\n        /* \"#utility.yul\":6468:6472   */\n      dup2\n        /* \"#utility.yul\":6464:6502   */\n      add\n        /* \"#utility.yul\":6533:6537   */\n      0x20\n        /* \"#utility.yul\":6521:6531   */\n      dup6\n        /* \"#utility.yul\":6518:6538   */\n      lt\n        /* \"#utility.yul\":6515:6562   */\n      iszero\n      tag_492\n      jumpi\n      pop\n        /* \"#utility.yul\":6556:6560   */\n      dup1\n        /* \"#utility.yul\":6515:6562   */\n    tag_492:\n        /* \"#utility.yul\":6611:6613   */\n      0x1f\n        /* \"#utility.yul\":6606:6609   */\n      dup5\n        /* \"#utility.yul\":6602:6614   */\n      add\n        /* \"#utility.yul\":6599:6600   */\n      0x05\n        /* \"#utility.yul\":6595:6615   */\n      shr\n        /* \"#utility.yul\":6589:6593   */\n      dup3\n        /* \"#utility.yul\":6585:6616   */\n      add\n        /* \"#utility.yul\":6575:6616   */\n      swap2\n      pop\n        /* \"#utility.yul\":6666:6747   */\n    tag_493:\n        /* \"#utility.yul\":6684:6686   */\n      dup2\n        /* \"#utility.yul\":6677:6682   */\n      dup2\n        /* \"#utility.yul\":6674:6687   */\n      lt\n        /* \"#utility.yul\":6666:6747   */\n      iszero\n      tag_495\n      jumpi\n        /* \"#utility.yul\":6743:6744   */\n      0x00\n        /* \"#utility.yul\":6729:6745   */\n      dup2\n      sstore\n        /* \"#utility.yul\":6710:6711   */\n      0x01\n        /* \"#utility.yul\":6699:6712   */\n      add\n        /* \"#utility.yul\":6666:6747   */\n      jump(tag_493)\n    tag_495:\n        /* \"#utility.yul\":6670:6673   */\n      pop\n      pop\n        /* \"#utility.yul\":6245:6763   */\n      pop\n      pop\n      pop\n      jump\t// out\n        /* \"#utility.yul\":6939:8137   */\n    tag_261:\n        /* \"#utility.yul\":7063:7081   */\n      0xffffffffffffffff\n        /* \"#utility.yul\":7058:7061   */\n      dup4\n        /* \"#utility.yul\":7055:7082   */\n      gt\n        /* \"#utility.yul\":7052:7105   */\n      iszero\n      tag_499\n      jumpi\n        /* \"#utility.yul\":7085:7103   */\n      tag_499\n      tag_434\n      jump\t// in\n    tag_499:\n        /* \"#utility.yul\":7114:7208   */\n      tag_500\n        /* \"#utility.yul\":7204:7207   */\n      dup4\n        /* \"#utility.yul\":7164:7202   */\n      tag_501\n        /* \"#utility.yul\":7196:7200   */\n      dup4\n        /* \"#utility.yul\":7190:7201   */\n      sload\n        /* \"#utility.yul\":7164:7202   */\n      tag_248\n      jump\t// in\n    tag_501:\n        /* \"#utility.yul\":7158:7162   */\n      dup4\n        /* \"#utility.yul\":7114:7208   */\n      tag_436\n      jump\t// in\n    tag_500:\n        /* \"#utility.yul\":7234:7235   */\n      0x00\n        /* \"#utility.yul\":7259:7261   */\n      0x1f\n        /* \"#utility.yul\":7254:7257   */\n      dup5\n        /* \"#utility.yul\":7251:7262   */\n      gt\n        /* \"#utility.yul\":7276:7277   */\n      0x01\n        /* \"#utility.yul\":7271:7879   */\n      dup2\n      eq\n      tag_503\n      jumpi\n        /* \"#utility.yul\":7923:7924   */\n      0x00\n        /* \"#utility.yul\":7940:7943   */\n      dup6\n        /* \"#utility.yul\":7937:8030   */\n      iszero\n      tag_504\n      jumpi\n      pop\n        /* \"#utility.yul\":7996:8015   */\n      dup4\n      dup3\n      add\n        /* \"#utility.yul\":7983:8016   */\n      calldataload\n        /* \"#utility.yul\":7937:8030   */\n    tag_504:\n      not(0x00)\n        /* \"#utility.yul\":6896:6897   */\n      0x03\n        /* \"#utility.yul\":6892:6903   */\n      dup8\n      swap1\n      shl\n        /* \"#utility.yul\":6888:6912   */\n      shr\n        /* \"#utility.yul\":6884:6913   */\n      not\n        /* \"#utility.yul\":6874:6914   */\n      and\n        /* \"#utility.yul\":6920:6921   */\n      0x01\n        /* \"#utility.yul\":6916:6927   */\n      dup7\n      swap1\n      shl\n        /* \"#utility.yul\":6871:6928   */\n      or\n        /* \"#utility.yul\":8043:8121   */\n      dup4\n      sstore\n        /* \"#utility.yul\":7244:8131   */\n      jump(tag_495)\n        /* \"#utility.yul\":7271:7879   */\n    tag_503:\n        /* \"#utility.yul\":6192:6193   */\n      0x00\n        /* \"#utility.yul\":6185:6199   */\n      dup4\n      dup2\n      mstore\n        /* \"#utility.yul\":6229:6233   */\n      0x20\n        /* \"#utility.yul\":6216:6234   */\n      dup2\n      keccak256\n      not(0x1f)\n        /* \"#utility.yul\":7307:7324   */\n      dup8\n      and\n      swap2\n        /* \"#utility.yul\":7422:7651   */\n    tag_507:\n        /* \"#utility.yul\":7436:7443   */\n      dup3\n        /* \"#utility.yul\":7433:7434   */\n      dup2\n        /* \"#utility.yul\":7430:7444   */\n      lt\n        /* \"#utility.yul\":7422:7651   */\n      iszero\n      tag_509\n      jumpi\n        /* \"#utility.yul\":7525:7544   */\n      dup7\n      dup6\n      add\n        /* \"#utility.yul\":7512:7545   */\n      calldataload\n        /* \"#utility.yul\":7497:7546   */\n      dup3\n      sstore\n        /* \"#utility.yul\":7632:7636   */\n      0x20\n        /* \"#utility.yul\":7617:7637   */\n      swap5\n      dup6\n      add\n      swap5\n        /* \"#utility.yul\":7585:7586   */\n      0x01\n        /* \"#utility.yul\":7573:7587   */\n      swap1\n      swap3\n      add\n      swap2\n        /* \"#utility.yul\":7452:7464   */\n      add\n        /* \"#utility.yul\":7422:7651   */\n      jump(tag_507)\n    tag_509:\n        /* \"#utility.yul\":7426:7429   */\n      pop\n        /* \"#utility.yul\":7679:7682   */\n      dup7\n        /* \"#utility.yul\":7670:7677   */\n      dup3\n        /* \"#utility.yul\":7667:7683   */\n      lt\n        /* \"#utility.yul\":7664:7823   */\n      iszero\n      tag_510\n      jumpi\n        /* \"#utility.yul\":7803:7804   */\n      0x00\n        /* \"#utility.yul\":7799:7805   */\n      not\n        /* \"#utility.yul\":7793:7796   */\n      0xf8\n        /* \"#utility.yul\":7787:7790   */\n      dup9\n        /* \"#utility.yul\":7784:7785   */\n      0x03\n        /* \"#utility.yul\":7780:7791   */\n      shl\n        /* \"#utility.yul\":7776:7797   */\n      and\n        /* \"#utility.yul\":7772:7806   */\n      shr\n        /* \"#utility.yul\":7768:7807   */\n      not\n        /* \"#utility.yul\":7755:7764   */\n      dup5\n        /* \"#utility.yul\":7750:7753   */\n      dup8\n        /* \"#utility.yul\":7746:7765   */\n      add\n        /* \"#utility.yul\":7733:7766   */\n      calldataload\n        /* \"#utility.yul\":7729:7808   */\n      and\n        /* \"#utility.yul\":7721:7727   */\n      dup2\n        /* \"#utility.yul\":7714:7809   */\n      sstore\n        /* \"#utility.yul\":7664:7823   */\n    tag_510:\n      pop\n      pop\n        /* \"#utility.yul\":7866:7867   */\n      0x01\n        /* \"#utility.yul\":7860:7863   */\n      dup6\n        /* \"#utility.yul\":7857:7858   */\n      0x01\n        /* \"#utility.yul\":7853:7864   */\n      shl\n        /* \"#utility.yul\":7849:7868   */\n      add\n        /* \"#utility.yul\":7843:7847   */\n      dup4\n        /* \"#utility.yul\":7836:7869   */\n      sstore\n        /* \"#utility.yul\":7244:8131   */\n      pop\n      pop\n        /* \"#utility.yul\":6939:8137   */\n      pop\n      pop\n      pop\n      jump\t// out\n        /* \"#utility.yul\":8142:8605   */\n    tag_264:\n        /* \"#utility.yul\":8329:8331   */\n      0x40\n        /* \"#utility.yul\":8318:8327   */\n      dup2\n        /* \"#utility.yul\":8311:8332   */\n      mstore\n        /* \"#utility.yul\":8368:8374   */\n      dup3\n        /* \"#utility.yul\":8363:8365   */\n      0x40\n        /* \"#utility.yul\":8352:8361   */\n      dup3\n        /* \"#utility.yul\":8348:8366   */\n      add\n        /* \"#utility.yul\":8341:8375   */\n      mstore\n        /* \"#utility.yul\":8425:8431   */\n      dup3\n        /* \"#utility.yul\":8417:8423   */\n      dup5\n        /* \"#utility.yul\":8412:8414   */\n      0x60\n        /* \"#utility.yul\":8401:8410   */\n      dup4\n        /* \"#utility.yul\":8397:8415   */\n      add\n        /* \"#utility.yul\":8384:8432   */\n      calldatacopy\n        /* \"#utility.yul\":8481:8482   */\n      0x00\n        /* \"#utility.yul\":8476:8478   */\n      0x60\n        /* \"#utility.yul\":8467:8473   */\n      dup5\n        /* \"#utility.yul\":8456:8465   */\n      dup4\n        /* \"#utility.yul\":8452:8474   */\n      add\n        /* \"#utility.yul\":8448:8479   */\n      add\n        /* \"#utility.yul\":8441:8483   */\n      mstore\n        /* \"#utility.yul\":8292:8296   */\n      0x00\n        /* \"#utility.yul\":8551:8553   */\n      0x60\n        /* \"#utility.yul\":8544:8546   */\n      0x1f\n        /* \"#utility.yul\":8540:8547   */\n      not\n        /* \"#utility.yul\":8535:8537   */\n      0x1f\n        /* \"#utility.yul\":8527:8533   */\n      dup7\n        /* \"#utility.yul\":8523:8538   */\n      add\n        /* \"#utility.yul\":8519:8548   */\n      and\n        /* \"#utility.yul\":8508:8517   */\n      dup4\n        /* \"#utility.yul\":8504:8549   */\n      add\n        /* \"#utility.yul\":8500:8554   */\n      add\n        /* \"#utility.yul\":8492:8554   */\n      swap1\n      pop\n        /* \"#utility.yul\":8592:8598   */\n      dup3\n        /* \"#utility.yul\":8585:8589   */\n      0x20\n        /* \"#utility.yul\":8574:8583   */\n      dup4\n        /* \"#utility.yul\":8570:8590   */\n      add\n        /* \"#utility.yul\":8563:8599   */\n      mstore\n        /* \"#utility.yul\":8142:8605   */\n      swap5\n      swap4\n      pop\n      pop\n      pop\n      pop\n      jump\t// out\n        /* \"#utility.yul\":8952:9079   */\n    tag_272:\n        /* \"#utility.yul\":9013:9023   */\n      0x4e487b71\n        /* \"#utility.yul\":9008:9011   */\n      0xe0\n        /* \"#utility.yul\":9004:9024   */\n      shl\n        /* \"#utility.yul\":9001:9002   */\n      0x00\n        /* \"#utility.yul\":8994:9025   */\n      mstore\n        /* \"#utility.yul\":9044:9048   */\n      0x32\n        /* \"#utility.yul\":9041:9042   */\n      0x04\n        /* \"#utility.yul\":9034:9049   */\n      mstore\n        /* \"#utility.yul\":9068:9072   */\n      0x24\n        /* \"#utility.yul\":9065:9066   */\n      0x00\n        /* \"#utility.yul\":9058:9073   */\n      revert\n        /* \"#utility.yul\":9943:10220   */\n    tag_307:\n        /* \"#utility.yul\":10010:10016   */\n      0x00\n        /* \"#utility.yul\":10063:10065   */\n      0x20\n        /* \"#utility.yul\":10051:10060   */\n      dup3\n        /* \"#utility.yul\":10042:10049   */\n      dup5\n        /* \"#utility.yul\":10038:10061   */\n      sub\n        /* \"#utility.yul\":10034:10066   */\n      slt\n        /* \"#utility.yul\":10031:10083   */\n      iszero\n      tag_518\n      jumpi\n        /* \"#utility.yul\":10079:10080   */\n      0x00\n        /* \"#utility.yul\":10076:10077   */\n      dup1\n        /* \"#utility.yul\":10069:10081   */\n      revert\n        /* \"#utility.yul\":10031:10083   */\n    tag_518:\n        /* \"#utility.yul\":10111:10120   */\n      dup2\n        /* \"#utility.yul\":10105:10121   */\n      mload\n        /* \"#utility.yul\":10164:10169   */\n      dup1\n        /* \"#utility.yul\":10157:10170   */\n      iszero\n        /* \"#utility.yul\":10150:10171   */\n      iszero\n        /* \"#utility.yul\":10143:10148   */\n      dup2\n        /* \"#utility.yul\":10140:10172   */\n      eq\n        /* \"#utility.yul\":10130:10190   */\n      tag_443\n      jumpi\n        /* \"#utility.yul\":10186:10187   */\n      0x00\n        /* \"#utility.yul\":10183:10184   */\n      dup1\n        /* \"#utility.yul\":10176:10188   */\n      revert\n        /* \"#utility.yul\":12633:12884   */\n    tag_395:\n        /* \"#utility.yul\":12703:12709   */\n      0x00\n        /* \"#utility.yul\":12756:12758   */\n      0x20\n        /* \"#utility.yul\":12744:12753   */\n      dup3\n        /* \"#utility.yul\":12735:12742   */\n      dup5\n        /* \"#utility.yul\":12731:12754   */\n      sub\n        /* \"#utility.yul\":12727:12759   */\n      slt\n        /* \"#utility.yul\":12724:12776   */\n      iszero\n      tag_528\n      jumpi\n        /* \"#utility.yul\":12772:12773   */\n      0x00\n        /* \"#utility.yul\":12769:12770   */\n      dup1\n        /* \"#utility.yul\":12762:12774   */\n      revert\n        /* \"#utility.yul\":12724:12776   */\n    tag_528:\n        /* \"#utility.yul\":12804:12813   */\n      dup2\n        /* \"#utility.yul\":12798:12814   */\n      mload\n        /* \"#utility.yul\":12823:12854   */\n      tag_443\n        /* \"#utility.yul\":12848:12853   */\n      dup2\n        /* \"#utility.yul\":12823:12854   */\n      tag_431\n      jump\t// in\n\n    auxdata: 0xa264697066735822122079178144bb207d3ee84ba23c23b17d036c19a139f48a0cc5b750e3d81e315fc564736f6c63430008190033\n}\n",
    "bytecode": {
      "linkReferences": {},
      "object": "608060405234801561000f575f80fd5b50604051611edc380380611edc83398101604081905261002e91610304565b6001600160a01b0388166100895760405162461bcd60e51b815260206004820152601760248201527f43616d706169676e206f776e657220726571756972656400000000000000000060448201526064015b60405180910390fd5b5f87116100cb5760405162461bcd60e51b815260206004820152601060248201526f0476f616c206d757374206265203e20360841b6044820152606401610080565b5f861161010e5760405162461bcd60e51b8152602060048201526011602482015270111d5c985d1a5bdb881c995c5d5a5c9959607a1b6044820152606401610080565b6001600160a01b0385166101595760405162461bcd60e51b8152602060048201526012602482015271119315c81d1bdad95b881c995c5d5a5c995960721b6044820152606401610080565b6001600160a01b0384166101af5760405162461bcd60e51b815260206004820152601760248201527f4665654469737472696275746f722072657175697265640000000000000000006044820152606401610080565b5f80546001600160a01b038a166001600160a01b031991821617909155600180549091163317905560028790556101e686426103ca565b600355600480546001600160a01b038088166001600160a01b031992831617909255600580549287169290911691909117905560066102258482610473565b5060076102328382610473565b50600861023f8282610473565b505050505050505050610532565b80516001600160a01b0381168114610263575f80fd5b919050565b634e487b7160e01b5f52604160045260245ffd5b5f82601f83011261028b575f80fd5b81516001600160401b03808211156102a5576102a5610268565b604051601f8301601f19908116603f011681019082821181831017156102cd576102cd610268565b816040528381528660208588010111156102e5575f80fd5b8360208701602083015e5f602085830101528094505050505092915050565b5f805f805f805f80610100898b03121561031c575f80fd5b6103258961024d565b9750602089015196506040890151955061034160608a0161024d565b945061034f60808a0161024d565b60a08a01519094506001600160401b038082111561036b575f80fd5b6103778c838d0161027c565b945060c08b015191508082111561038c575f80fd5b6103988c838d0161027c565b935060e08b01519150808211156103ad575f80fd5b506103ba8b828c0161027c565b9150509295985092959890939650565b808201808211156103e957634e487b7160e01b5f52601160045260245ffd5b92915050565b600181811c9082168061040357607f821691505b60208210810361042157634e487b7160e01b5f52602260045260245ffd5b50919050565b601f82111561046e57805f5260205f20601f840160051c8101602085101561044c5750805b601f840160051c820191505b8181101561046b575f8155600101610458565b50505b505050565b81516001600160401b0381111561048c5761048c610268565b6104a08161049a84546103ef565b84610427565b602080601f8311600181146104d3575f84156104bc5750858301515b5f19600386901b1c1916600185901b17855561052a565b5f85815260208120601f198616915b82811015610501578886015182559484019460019091019084016104e2565b508582101561051e57878501515f19600388901b60f8161c191681555b505060018460011b0185555b505050505050565b61199d8061053f5f395ff3fe60806040526004361061027a575f3560e01c80638da5cb5b1161014b578063bca856ad116100c6578063e98798e81161007c578063efdf762a11610062578063efdf762a14610688578063f2e76d7b146106be578063ff3c1a8f146106dd575f80fd5b8063e98798e814610652578063ecb70fb714610671575f80fd5b8063c52ed534116100ac578063c52ed534146105fe578063e27cc5d914610612578063e730395a14610627575f80fd5b8063bca856ad146105c0578063c45a0155146105df575f80fd5b8063ab975e3b1161011b578063b17fac2211610101578063b17fac221461056f578063b4c2f7271461058d578063b97a7d24146105ac575f80fd5b8063ab975e3b14610547578063aba831501461055b575f80fd5b80638da5cb5b146104e457806390be10cc146105005780639743a69114610514578063a035531b14610528575f80fd5b806340193883116101f55780637273b736116101ab57806379388e411161019157806379388e41146104a057806388cc58e4146104bf5780638b4c40b0146104dc575f80fd5b80637273b7361461045e5780637284e4161461048c575f80fd5b80635f8d96de116101db5780635f8d96de1461040c5780636136f6cf1461042057806371a6acf21461043f575f80fd5b806340193883146103e35780634a79d50c146103f8575f80fd5b806321d290381161024a57806329dcb0cf1161023057806329dcb0cf1461038d57806332cb25be146103a25780633ccfd60b146103cf575f80fd5b806321d290381461034c57806322f3e2d41461036b575f80fd5b806307ec31741461028d5780630d43e8ad146102cb57806312b58349146103025780631a0925411461032b575f80fd5b36610289576102876106f1565b005b5f80fd5b348015610298575f80fd5b506102b86102a736600461159d565b600b6020525f908152604090205481565b6040519081526020015b60405180910390f35b3480156102d6575f80fd5b506005546102ea906001600160a01b031681565b6040516001600160a01b0390911681526020016102c2565b34801561030d575f80fd5b506103166107e8565b604080519283526020830191909152016102c2565b348015610336575f80fd5b5061033f610863565b6040516102c291906115ed565b348015610357575f80fd5b506102876103663660046115ff565b6108f3565b348015610376575f80fd5b5060035442105b60405190151581526020016102c2565b348015610398575f80fd5b506102b860035481565b3480156103ad575f80fd5b506103c16103bc36600461166b565b610a50565b6040516102c2929190611682565b3480156103da575f80fd5b50610287610b70565b3480156103ee575f80fd5b506102b860025481565b348015610403575f80fd5b5061033f610e28565b348015610417575f80fd5b506003546102b8565b34801561042b575f80fd5b5061028761043a36600461159d565b610eb4565b34801561044a575f80fd5b506102876104593660046116a3565b610fbe565b348015610469575f80fd5b50600c546004546001600160a01b03165f908152600b6020526040902054610316565b348015610497575f80fd5b5061033f6111d3565b3480156104ab575f80fd5b506102876104ba36600461159d565b6111e0565b3480156104ca575f80fd5b506001546001600160a01b03166102ea565b6102876106f1565b3480156104ef575f80fd5b505f546001600160a01b03166102ea565b34801561050b575f80fd5b5061031661125f565b34801561051f575f80fd5b5061033f611355565b348015610533575f80fd5b506102b861054236600461166b565b611364565b348015610552575f80fd5b506102ea611383565b348015610566575f80fd5b5061033f6113f3565b34801561057a575f80fd5b505f546102ea906001600160a01b031681565b348015610598575f80fd5b506102ea6105a736600461166b565b611400565b3480156105b7575f80fd5b506002546102b8565b3480156105cb575f80fd5b5061033f6105da36600461166b565b611428565b3480156105ea575f80fd5b506001546102ea906001600160a01b031681565b348015610609575f80fd5b50600e546102b8565b34801561061d575f80fd5b506102b8600c5481565b348015610632575f80fd5b506102b861064136600461159d565b60096020525f908152604090205481565b34801561065d575f80fd5b5061028761066c3660046116cd565b61144f565b34801561067c575f80fd5b5060035442101561037d565b348015610693575f80fd5b506102b86106a23660046116cd565b600a60209081525f928352604080842090915290825290205481565b3480156106c9575f80fd5b506004546102ea906001600160a01b031681565b3480156106e8575f80fd5b5061033f61157a565b60035442106107385760405162461bcd60e51b815260206004820152600e60248201526d10d85b5c185a59db88195b99195960921b60448201526064015b60405180910390fd5b5f34116107875760405162461bcd60e51b815260206004820152600b60248201527f4e6f204554482073656e74000000000000000000000000000000000000000000604482015260640161072f565b5f6064610795346002611718565b61079f9190611735565b905080600c5f8282546107b29190611754565b909155506107c290508134611767565b335f90815260096020526040812080549091906107e0908490611754565b909155505050565b600480546040516370a0823160e01b815230928101929092525f91829147916001600160a01b03909116906370a0823190602401602060405180830381865afa158015610837573d5f803e3d5ffd5b505050506040513d601f19601f8201168201806040525081019061085b919061177a565b915091509091565b60606007805461087290611791565b80601f016020809104026020016040519081016040528092919081815260200182805461089e90611791565b80156108e95780601f106108c0576101008083540402835291602001916108e9565b820191905f5260205f20905b8154815290600101906020018083116108cc57829003601f168201915b5050505050905090565b5f546001600160a01b0316331461094c5760405162461bcd60e51b815260206004820152601260248201527f4e6f742063616d706169676e206f776e65720000000000000000000000000000604482015260640161072f565b600d805460018181019092557fd7b6990105719101dabeb77144f2a3385c8033acd3af97e9423a695e81ad1eb50180547fffffffffffffffffffffffff00000000000000000000000000000000000000001633179055600e805491820181555f527fbb7b4a454dc3493923482f07822329ed19e8244eff582cc204f8554c3620c3fd016109da828483611828565b50600f80546001810182555f91909152427f8d1108e10bcb7c27dddfc02ed9d693a074039d026cf4ea4240b40f7d581ac8029091018190556040517f795d961edbc9e83a9c6d46e7e54ae3be27574cfbc69a1eca98133687155c24b091610a4491859185916118e2565b60405180910390a15050565b600e546060905f908310610aa65760405162461bcd60e51b815260206004820152600d60248201527f496e76616c696420696e64657800000000000000000000000000000000000000604482015260640161072f565b600e8381548110610ab957610ab9611919565b905f5260205f2001600f8481548110610ad457610ad4611919565b905f5260205f200154818054610ae990611791565b80601f0160208091040260200160405190810160405280929190818152602001828054610b1590611791565b8015610b605780601f10610b3757610100808354040283529160200191610b60565b820191905f5260205f20905b815481529060010190602001808311610b4357829003601f168201915b5050505050915091509150915091565b5f546001600160a01b03163314610bc95760405162461bcd60e51b815260206004820152601260248201527f4e6f742063616d706169676e206f776e65720000000000000000000000000000604482015260640161072f565b600354421015610c1b5760405162461bcd60e51b815260206004820152601260248201527f43616d706169676e206e6f7420656e6465640000000000000000000000000000604482015260640161072f565b5f600c5447610c2a9190611767565b600480546001600160a01b03165f818152600b60205260408082205490516370a0823160e01b8152309481019490945293945092916370a0823190602401602060405180830381865afa158015610c83573d5f803e3d5ffd5b505050506040513d601f19601f82011682018060405250810190610ca7919061177a565b610cb19190611767565b90506001808315610d11575f80546040516001600160a01b039091169186919081818185875af1925050503d805f8114610d06576040519150601f19603f3d011682016040523d82523d5f602084013e610d0b565b606091505b50909250505b8215610d9157600480545f5460405163a9059cbb60e01b81526001600160a01b039182169381019390935260248301869052169063a9059cbb906044016020604051808303815f875af1158015610d6a573d5f803e3d5ffd5b505050506040513d601f19601f82011682018060405250810190610d8e919061192d565b90505b60408051831515815282151560208201527fedaf6307dd03cf2213c8cf4c3154d20dbf80b44bb80b206b6381109881db78e7910160405180910390a18180610dd65750805b610e225760405162461bcd60e51b815260206004820152601160248201527f4e6f7468696e672077697468647261776e000000000000000000000000000000604482015260640161072f565b50505050565b60068054610e3590611791565b80601f0160208091040260200160405190810160405280929190818152602001828054610e6190611791565b8015610eac5780601f10610e8357610100808354040283529160200191610eac565b820191905f5260205f20905b815481529060010190602001808311610e8f57829003601f168201915b505050505081565b610ebc611383565b6001600160a01b0316336001600160a01b031614610f115760405162461bcd60e51b81526020600482015260126024820152712737ba10383630ba3337b9369037bbb732b960711b604482015260640161072f565b600c80545f918290556040519091906001600160a01b0384169083908381818185875af1925050503d805f8114610f63576040519150601f19603f3d011682016040523d82523d5f602084013e610f68565b606091505b5050905080610fb95760405162461bcd60e51b815260206004820152601760248201527f45544820666565207472616e73666572206661696c6564000000000000000000604482015260640161072f565b505050565b60035442106110005760405162461bcd60e51b815260206004820152600e60248201526d10d85b5c185a59db88195b99195960921b604482015260640161072f565b5f811161104f5760405162461bcd60e51b815260206004820152600e60248201527f4e6f20746f6b656e732073656e74000000000000000000000000000000000000604482015260640161072f565b6004545f906001600160a01b03848116911614611082576064611073836002611718565b61107d9190611735565b61109a565b6103e8611090836005611718565b61109a9190611735565b90505f6110a78284611767565b6040516323b872dd60e01b8152336004820152306024820152604481018590529091506001600160a01b038516906323b872dd906064016020604051808303815f875af11580156110fa573d5f803e3d5ffd5b505050506040513d601f19601f8201168201806040525081019061111e919061192d565b61116a5760405162461bcd60e51b815260206004820152600f60248201527f5472616e73666572206661696c65640000000000000000000000000000000000604482015260640161072f565b6001600160a01b0384165f908152600b602052604081208054849290611191908490611754565b9091555050335f908152600a602090815260408083206001600160a01b0388168452909152812080548392906111c8908490611754565b909155505050505050565b60078054610e3590611791565b6111e8611383565b6001600160a01b0316336001600160a01b03161461123d5760405162461bcd60e51b81526020600482015260126024820152712737ba10383630ba3337b9369037bbb732b960711b604482015260640161072f565b61124681610eb4565b60045461125c906001600160a01b03168261144f565b50565b5f8060035442101561127357505f91829150565b600480546040516370a0823160e01b8152309281019290925247915f916001600160a01b0316906370a0823190602401602060405180830381865afa1580156112be573d5f803e3d5ffd5b505050506040513d601f19601f820116820180604052508101906112e2919061177a565b9050600c5482116112f3575f611300565b600c546113009083611767565b6004546001600160a01b03165f908152600b60205260409020549094508111611329575f61134d565b6004546001600160a01b03165f908152600b602052604090205461134d9082611767565b925050509091565b60606008805461087290611791565b600f8181548110611373575f80fd5b5f91825260209091200154905081565b60015460408051638da5cb5b60e01b815290515f926001600160a01b031691638da5cb5b9160048083019260209291908290030181865afa1580156113ca573d5f803e3d5ffd5b505050506040513d601f19601f820116820180604052508101906113ee919061194c565b905090565b60088054610e3590611791565b600d818154811061140f575f80fd5b5f918252602090912001546001600160a01b0316905081565b600e8181548110611437575f80fd5b905f5260205f20015f915090508054610e3590611791565b611457611383565b6001600160a01b0316336001600160a01b0316146114ac5760405162461bcd60e51b81526020600482015260126024820152712737ba10383630ba3337b9369037bbb732b960711b604482015260640161072f565b6001600160a01b038281165f818152600b602052604080822080549290555163a9059cbb60e01b81529284166004840152602483018190529163a9059cbb906044016020604051808303815f875af115801561150a573d5f803e3d5ffd5b505050506040513d601f19601f8201168201806040525081019061152e919061192d565b610fb95760405162461bcd60e51b815260206004820152601960248201527f546f6b656e20666565207472616e73666572206661696c656400000000000000604482015260640161072f565b60606006805461087290611791565b6001600160a01b038116811461125c575f80fd5b5f602082840312156115ad575f80fd5b81356115b881611589565b9392505050565b5f81518084528060208401602086015e5f602082860101526020601f19601f83011685010191505092915050565b602081525f6115b860208301846115bf565b5f8060208385031215611610575f80fd5b823567ffffffffffffffff80821115611627575f80fd5b818501915085601f83011261163a575f80fd5b813581811115611648575f80fd5b866020828501011115611659575f80fd5b60209290920196919550909350505050565b5f6020828403121561167b575f80fd5b5035919050565b604081525f61169460408301856115bf565b90508260208301529392505050565b5f80604083850312156116b4575f80fd5b82356116bf81611589565b946020939093013593505050565b5f80604083850312156116de575f80fd5b82356116e981611589565b915060208301356116f981611589565b809150509250929050565b634e487b7160e01b5f52601160045260245ffd5b808202811582820484141761172f5761172f611704565b92915050565b5f8261174f57634e487b7160e01b5f52601260045260245ffd5b500490565b8082018082111561172f5761172f611704565b8181038181111561172f5761172f611704565b5f6020828403121561178a575f80fd5b5051919050565b600181811c908216806117a557607f821691505b6020821081036117c357634e487b7160e01b5f52602260045260245ffd5b50919050565b634e487b7160e01b5f52604160045260245ffd5b601f821115610fb957805f5260205f20601f840160051c810160208510156118025750805b601f840160051c820191505b81811015611821575f815560010161180e565b5050505050565b67ffffffffffffffff831115611840576118406117c9565b6118548361184e8354611791565b836117dd565b5f601f841160018114611885575f851561186e5750838201355b5f19600387901b1c1916600186901b178355611821565b5f83815260208120601f198716915b828110156118b45786850135825560209485019460019092019101611894565b50868210156118d0575f1960f88860031b161c19848701351681555b505060018560011b0183555050505050565b60408152826040820152828460608301375f606084830101525f6060601f19601f8601168301019050826020830152949350505050565b634e487b7160e01b5f52603260045260245ffd5b5f6020828403121561193d575f80fd5b815180151581146115b8575f80fd5b5f6020828403121561195c575f80fd5b81516115b88161158956fea264697066735822122079178144bb207d3ee84ba23c23b17d036c19a139f48a0cc5b750e3d81e315fc564736f6c63430008190033",
      "opcodes": "PUSH1 0x80 PUSH1 0x40 MSTORE CALLVALUE DUP1 ISZERO PUSH2 0xF JUMPI PUSH0 DUP1 REVERT JUMPDEST POP PUSH1 0x40 MLOAD PUSH2 0x1EDC CODESIZE SUB DUP1 PUSH2 0x1EDC DUP4 CODECOPY DUP2 ADD PUSH1 0x40 DUP2 SWAP1 MSTORE PUSH2 0x2E SWAP2 PUSH2 0x304 JUMP JUMPDEST PUSH1 0x1 PUSH1 0x1 PUSH1 0xA0 SHL SUB DUP9 AND PUSH2 0x89 JUMPI PUSH1 0x40 MLOAD PUSH3 0x461BCD PUSH1 0xE5 SHL DUP2 MSTORE PUSH1 0x20 PUSH1 0x4 DUP3 ADD MSTORE PUSH1 0x17 PUSH1 0x24 DUP3 ADD MSTORE PUSH32 0x43616D706169676E206F776E6572207265717569726564000000000000000000 PUSH1 0x44 DUP3 ADD MSTORE PUSH1 0x64 ADD JUMPDEST PUSH1 0x40 MLOAD DUP1 SWAP2 SUB SWAP1 REVERT JUMPDEST PUSH0 DUP8 GT PUSH2 0xCB JUMPI PUSH1 0x40 MLOAD PUSH3 0x461BCD PUSH1 0xE5 SHL DUP2 MSTORE PUSH1 0x20 PUSH1 0x4 DUP3 ADD MSTORE PUSH1 0x10 PUSH1 0x24 DUP3 ADD MSTORE PUSH16 0x476F616C206D757374206265203E203 PUSH1 0x84 SHL PUSH1 0x44 DUP3 ADD MSTORE PUSH1 0x64 ADD PUSH2 0x80 JUMP JUMPDEST PUSH0 DUP7 GT PUSH2 0x10E JUMPI PUSH1 0x40 MLOAD PUSH3 0x461BCD PUSH1 0xE5 SHL DUP2 MSTORE PUSH1 0x20 PUSH1 0x4 DUP3 ADD MSTORE PUSH1 0x11 PUSH1 0x24 DUP3 ADD MSTORE PUSH17 0x111D5C985D1A5BDB881C995C5D5A5C9959 PUSH1 0x7A SHL PUSH1 0x44 DUP3 ADD MSTORE PUSH1 0x64 ADD PUSH2 0x80 JUMP JUMPDEST PUSH1 0x1 PUSH1 0x1 PUSH1 0xA0 SHL SUB DUP6 AND PUSH2 0x159 JUMPI PUSH1 0x40 MLOAD PUSH3 0x461BCD PUSH1 0xE5 SHL DUP2 MSTORE PUSH1 0x20 PUSH1 0x4 DUP3 ADD MSTORE PUSH1 0x12 PUSH1 0x24 DUP3 ADD MSTORE PUSH18 0x119315C81D1BDAD95B881C995C5D5A5C9959 PUSH1 0x72 SHL PUSH1 0x44 DUP3 ADD MSTORE PUSH1 0x64 ADD PUSH2 0x80 JUMP JUMPDEST PUSH1 0x1 PUSH1 0x1 PUSH1 0xA0 SHL SUB DUP5 AND PUSH2 0x1AF JUMPI PUSH1 0x40 MLOAD PUSH3 0x461BCD PUSH1 0xE5 SHL DUP2 MSTORE PUSH1 0x20 PUSH1 0x4 DUP3 ADD MSTORE PUSH1 0x17 PUSH1 0x24 DUP3 ADD MSTORE PUSH32 0x4665654469737472696275746F72207265717569726564000000000000000000 PUSH1 0x44 DUP3 ADD MSTORE PUSH1 0x64 ADD PUSH2 0x80 JUMP JUMPDEST PUSH0 DUP1 SLOAD PUSH1 0x1 PUSH1 0x1 PUSH1 0xA0 SHL SUB DUP11 AND PUSH1 0x1 PUSH1 0x1 PUSH1 0xA0 SHL SUB NOT SWAP2 DUP3 AND OR SWAP1 SWAP2 SSTORE PUSH1 0x1 DUP1 SLOAD SWAP1 SWAP2 AND CALLER OR SWAP1 SSTORE PUSH1 0x2 DUP8 SWAP1 SSTORE PUSH2 0x1E6 DUP7 TIMESTAMP PUSH2 0x3CA JUMP JUMPDEST PUSH1 0x3 SSTORE PUSH1 0x4 DUP1 SLOAD PUSH1 0x1 PUSH1 0x1 PUSH1 0xA0 SHL SUB DUP1 DUP9 AND PUSH1 0x1 PUSH1 0x1 PUSH1 0xA0 SHL SUB NOT SWAP3 DUP4 AND OR SWAP1 SWAP3 SSTORE PUSH1 0x5 DUP1 SLOAD SWAP3 DUP8 AND SWAP3 SWAP1 SWAP2 AND SWAP2 SWAP1 SWAP2 OR SWAP1 SSTORE PUSH1 0x6 PUSH2 0x225 DUP5 DUP3 PUSH2 0x473 JUMP JUMPDEST POP PUSH1 0x7 PUSH2 0x232 DUP4 DUP3 PUSH2 0x473 JUMP JUMPDEST POP PUSH1 0x8 PUSH2 0x23F DUP3 DUP3 PUSH2 0x473 JUMP JUMPDEST POP POP POP POP POP POP POP POP POP PUSH2 0x532 JUMP JUMPDEST DUP1 MLOAD PUSH1 0x1 PUSH1 0x1 PUSH1 0xA0 SHL SUB DUP2 AND DUP2 EQ PUSH2 0x263 JUMPI PUSH0 DUP1 REVERT JUMPDEST SWAP2 SWAP1 POP JUMP JUMPDEST PUSH4 0x4E487B71 PUSH1 0xE0 SHL PUSH0 MSTORE PUSH1 0x41 PUSH1 0x4 MSTORE PUSH1 0x24 PUSH0 REVERT JUMPDEST PUSH0 DUP3 PUSH1 0x1F DUP4 ADD SLT PUSH2 0x28B JUMPI PUSH0 DUP1 REVERT JUMPDEST DUP2 MLOAD PUSH1 0x1 PUSH1 0x1 PUSH1 0x40 SHL SUB DUP1 DUP3 GT ISZERO PUSH2 0x2A5 JUMPI PUSH2 0x2A5 PUSH2 0x268 JUMP JUMPDEST PUSH1 0x40 MLOAD PUSH1 0x1F DUP4 ADD PUSH1 0x1F NOT SWAP1 DUP2 AND PUSH1 0x3F ADD AND DUP2 ADD SWAP1 DUP3 DUP3 GT DUP2 DUP4 LT OR ISZERO PUSH2 0x2CD JUMPI PUSH2 0x2CD PUSH2 0x268 JUMP JUMPDEST DUP2 PUSH1 0x40 MSTORE DUP4 DUP2 MSTORE DUP7 PUSH1 0x20 DUP6 DUP9 ADD ADD GT ISZERO PUSH2 0x2E5 JUMPI PUSH0 DUP1 REVERT JUMPDEST DUP4 PUSH1 0x20 DUP8 ADD PUSH1 0x20 DUP4 ADD MCOPY PUSH0 PUSH1 0x20 DUP6 DUP4 ADD ADD MSTORE DUP1 SWAP5 POP POP POP POP POP SWAP3 SWAP2 POP POP JUMP JUMPDEST PUSH0 DUP1 PUSH0 DUP1 PUSH0 DUP1 PUSH0 DUP1 PUSH2 0x100 DUP10 DUP12 SUB SLT ISZERO PUSH2 0x31C JUMPI PUSH0 DUP1 REVERT JUMPDEST PUSH2 0x325 DUP10 PUSH2 0x24D JUMP JUMPDEST SWAP8 POP PUSH1 0x20 DUP10 ADD MLOAD SWAP7 POP PUSH1 0x40 DUP10 ADD MLOAD SWAP6 POP PUSH2 0x341 PUSH1 0x60 DUP11 ADD PUSH2 0x24D JUMP JUMPDEST SWAP5 POP PUSH2 0x34F PUSH1 0x80 DUP11 ADD PUSH2 0x24D JUMP JUMPDEST PUSH1 0xA0 DUP11 ADD MLOAD SWAP1 SWAP5 POP PUSH1 0x1 PUSH1 0x1 PUSH1 0x40 SHL SUB DUP1 DUP3 GT ISZERO PUSH2 0x36B JUMPI PUSH0 DUP1 REVERT JUMPDEST PUSH2 0x377 DUP13 DUP4 DUP14 ADD PUSH2 0x27C JUMP JUMPDEST SWAP5 POP PUSH1 0xC0 DUP12 ADD MLOAD SWAP2 POP DUP1 DUP3 GT ISZERO PUSH2 0x38C JUMPI PUSH0 DUP1 REVERT JUMPDEST PUSH2 0x398 DUP13 DUP4 DUP14 ADD PUSH2 0x27C JUMP JUMPDEST SWAP4 POP PUSH1 0xE0 DUP12 ADD MLOAD SWAP2 POP DUP1 DUP3 GT ISZERO PUSH2 0x3AD JUMPI PUSH0 DUP1 REVERT JUMPDEST POP PUSH2 0x3BA DUP12 DUP3 DUP13 ADD PUSH2 0x27C JUMP JUMPDEST SWAP2 POP POP SWAP3 SWAP6 SWAP9 POP SWAP3 SWAP6 SWAP9 SWAP1 SWAP4 SWAP7 POP JUMP JUMPDEST DUP1 DUP3 ADD DUP1 DUP3 GT ISZERO PUSH2 0x3E9 JUMPI PUSH4 0x4E487B71 PUSH1 0xE0 SHL PUSH0 MSTORE PUSH1 0x11 PUSH1 0x4 MSTORE PUSH1 0x24 PUSH0 REVERT JUMPDEST SWAP3 SWAP2 POP POP JUMP JUMPDEST PUSH1 0x1 DUP2 DUP2 SHR SWAP1 DUP3 AND DUP1 PUSH2 0x403 JUMPI PUSH1 0x7F DUP3 AND SWAP2 POP JUMPDEST PUSH1 0x20 DUP3 LT DUP2 SUB PUSH2 0x421 JUMPI PUSH4 0x4E487B71 PUSH1 0xE0 SHL PUSH0 MSTORE PUSH1 0x22 PUSH1 0x4 MSTORE PUSH1 0x24 PUSH0 REVERT JUMPDEST POP SWAP2 SWAP1 POP JUMP JUMPDEST PUSH1 0x1F DUP3 GT ISZERO PUSH2 0x46E JUMPI DUP1 PUSH0 MSTORE PUSH1 0x20 PUSH0 KECCAK256 PUSH1 0x1F DUP5 ADD PUSH1 0x5 SHR DUP2 ADD PUSH1 0x20 DUP6 LT ISZERO PUSH2 0x44C JUMPI POP DUP1 JUMPDEST PUSH1 0x1F DUP5 ADD PUSH1 0x5 SHR DUP3 ADD SWAP2 POP JUMPDEST DUP2 DUP2 LT ISZERO PUSH2 0x46B JUMPI PUSH0 DUP2 SSTORE PUSH1 0x1 ADD PUSH2 0x458 JUMP JUMPDEST POP POP JUMPDEST POP POP POP JUMP JUMPDEST DUP2 MLOAD PUSH1 0x1 PUSH1 0x1 PUSH1 0x40 SHL SUB DUP2 GT ISZERO PUSH2 0x48C JUMPI PUSH2 0x48C PUSH2 0x268 JUMP JUMPDEST PUSH2 0x4A0 DUP2 PUSH2 0x49A DUP5 SLOAD PUSH2 0x3EF JUMP JUMPDEST DUP5 PUSH2 0x427 JUMP JUMPDEST PUSH1 0x20 DUP1 PUSH1 0x1F DUP4 GT PUSH1 0x1 DUP2 EQ PUSH2 0x4D3 JUMPI PUSH0 DUP5 ISZERO PUSH2 0x4BC JUMPI POP DUP6 DUP4 ADD MLOAD JUMPDEST PUSH0 NOT PUSH1 0x3 DUP7 SWAP1 SHL SHR NOT AND PUSH1 0x1 DUP6 SWAP1 SHL OR DUP6 SSTORE PUSH2 0x52A JUMP JUMPDEST PUSH0 DUP6 DUP2 MSTORE PUSH1 0x20 DUP2 KECCAK256 PUSH1 0x1F NOT DUP7 AND SWAP2 JUMPDEST DUP3 DUP2 LT ISZERO PUSH2 0x501 JUMPI DUP9 DUP7 ADD MLOAD DUP3 SSTORE SWAP5 DUP5 ADD SWAP5 PUSH1 0x1 SWAP1 SWAP2 ADD SWAP1 DUP5 ADD PUSH2 0x4E2 JUMP JUMPDEST POP DUP6 DUP3 LT ISZERO PUSH2 0x51E JUMPI DUP8 DUP6 ADD MLOAD PUSH0 NOT PUSH1 0x3 DUP9 SWAP1 SHL PUSH1 0xF8 AND SHR NOT AND DUP2 SSTORE JUMPDEST POP POP PUSH1 0x1 DUP5 PUSH1 0x1 SHL ADD DUP6 SSTORE JUMPDEST POP POP POP POP POP POP JUMP JUMPDEST PUSH2 0x199D DUP1 PUSH2 0x53F PUSH0 CODECOPY PUSH0 RETURN INVALID PUSH1 0x80 PUSH1 0x40 MSTORE PUSH1 0x4 CALLDATASIZE LT PUSH2 0x27A JUMPI PUSH0 CALLDATALOAD PUSH1 0xE0 SHR DUP1 PUSH4 0x8DA5CB5B GT PUSH2 0x14B JUMPI DUP1 PUSH4 0xBCA856AD GT PUSH2 0xC6 JUMPI DUP1 PUSH4 0xE98798E8 GT PUSH2 0x7C JUMPI DUP1 PUSH4 0xEFDF762A GT PUSH2 0x62 JUMPI DUP1 PUSH4 0xEFDF762A EQ PUSH2 0x688 JUMPI DUP1 PUSH4 0xF2E76D7B EQ PUSH2 0x6BE JUMPI DUP1 PUSH4 0xFF3C1A8F EQ PUSH2 0x6DD JUMPI PUSH0 DUP1 REVERT JUMPDEST DUP1 PUSH4 0xE98798E8 EQ PUSH2 0x652 JUMPI DUP1 PUSH4 0xECB70FB7 EQ PUSH2 0x671 JUMPI PUSH0 DUP1 REVERT JUMPDEST DUP1 PUSH4 0xC52ED534 GT PUSH2 0xAC JUMPI DUP1 PUSH4 0xC52ED534 EQ PUSH2 0x5FE JUMPI DUP1 PUSH4 0xE27CC5D9 EQ PUSH2 0x612 JUMPI DUP1 PUSH4 0xE730395A EQ PUSH2 0x627 JUMPI PUSH0 DUP1 REVERT JUMPDEST DUP1 PUSH4 0xBCA856AD EQ PUSH2 0x5C0 JUMPI DUP1 PUSH4 0xC45A0155 EQ PUSH2 0x5DF JUMPI PUSH0 DUP1 REVERT JUMPDEST DUP1 PUSH4 0xAB975E3B GT PUSH2 0x11B JUMPI DUP1 PUSH4 0xB17FAC22 GT PUSH2 0x101 JUMPI DUP1 PUSH4 0xB17FAC22 EQ PUSH2 0x56F JUMPI DUP1 PUSH4 0xB4C2F727 EQ PUSH2 0x58D JUMPI DUP1 PUSH4 0xB97A7D24 EQ PUSH2 0x5AC JUMPI PUSH0 DUP1 REVERT JUMPDEST DUP1 PUSH4 0xAB975E3B EQ PUSH2 0x547 JUMPI DUP1 PUSH4 0xABA83150 EQ PUSH2 0x55B JUMPI PUSH0 DUP1 REVERT JUMPDEST DUP1 PUSH4 0x8DA5CB5B EQ PUSH2 0x4E4 JUMPI DUP1 PUSH4 0x90BE10CC EQ PUSH2 0x500 JUMPI DUP1 PUSH4 0x9743A691 EQ PUSH2 0x514 JUMPI DUP1 PUSH4 0xA035531B EQ PUSH2 0x528 JUMPI PUSH0 DUP1 REVERT JUMPDEST DUP1 PUSH4 0x40193883 GT PUSH2 0x1F5 JUMPI DUP1 PUSH4 0x7273B736 GT PUSH2 0x1AB JUMPI DUP1 PUSH4 0x79388E41 GT PUSH2 0x191 JUMPI DUP1 PUSH4 0x79388E41 EQ PUSH2 0x4A0 JUMPI DUP1 PUSH4 0x88CC58E4 EQ PUSH2 0x4BF JUMPI DUP1 PUSH4 0x8B4C40B0 EQ PUSH2 0x4DC JUMPI PUSH0 DUP1 REVERT JUMPDEST DUP1 PUSH4 0x7273B736 EQ PUSH2 0x45E JUMPI DUP1 PUSH4 0x7284E416 EQ PUSH2 0x48C JUMPI PUSH0 DUP1 REVERT JUMPDEST DUP1 PUSH4 0x5F8D96DE GT PUSH2 0x1DB JUMPI DUP1 PUSH4 0x5F8D96DE EQ PUSH2 0x40C JUMPI DUP1 PUSH4 0x6136F6CF EQ PUSH2 0x420 JUMPI DUP1 PUSH4 0x71A6ACF2 EQ PUSH2 0x43F JUMPI PUSH0 DUP1 REVERT JUMPDEST DUP1 PUSH4 0x40193883 EQ PUSH2 0x3E3 JUMPI DUP1 PUSH4 0x4A79D50C EQ PUSH2 0x3F8 JUMPI PUSH0 DUP1 REVERT JUMPDEST DUP1 PUSH4 0x21D29038 GT PUSH2 0x24A JUMPI DUP1 PUSH4 0x29DCB0CF GT PUSH2 0x230 JUMPI DUP1 PUSH4 0x29DCB0CF EQ PUSH2 0x38D JUMPI DUP1 PUSH4 0x32CB25BE EQ PUSH2 0x3A2 JUMPI DUP1 PUSH4 0x3CCFD60B EQ PUSH2 0x3CF JUMPI PUSH0 DUP1 REVERT JUMPDEST DUP1 PUSH4 0x21D29038 EQ PUSH2 0x34C JUMPI DUP1 PUSH4 0x22F3E2D4 EQ PUSH2 0x36B JUMPI PUSH0 DUP1 REVERT JUMPDEST DUP1 PUSH4 0x7EC3174 EQ PUSH2 0x28D JUMPI DUP1 PUSH4 0xD43E8AD EQ PUSH2 0x2CB JUMPI DUP1 PUSH4 0x12B58349 EQ PUSH2 0x302 JUMPI DUP1 PUSH4 0x1A092541 EQ PUSH2 0x32B JUMPI PUSH0 DUP1 REVERT JUMPDEST CALLDATASIZE PUSH2 0x289 JUMPI PUSH2 0x287 PUSH2 0x6F1 JUMP JUMPDEST STOP JUMPDEST PUSH0 DUP1 REVERT JUMPDEST CALLVALUE DUP1 ISZERO PUSH2 0x298 JUMPI PUSH0 DUP1 REVERT JUMPDEST POP PUSH2 0x2B8 PUSH2 0x2A7 CALLDATASIZE PUSH1 0x4 PUSH2 0x159D JUMP JUMPDEST PUSH1 0xB PUSH1 0x20 MSTORE PUSH0 SWAP1 DUP2 MSTORE PUSH1 0x40 SWAP1 KECCAK256 SLOAD DUP2 JUMP JUMPDEST PUSH1 0x40 MLOAD SWAP1 DUP2 MSTORE PUSH1 0x20 ADD JUMPDEST PUSH1 0x40 MLOAD DUP1 SWAP2 SUB SWAP1 RETURN JUMPDEST CALLVALUE DUP1 ISZERO PUSH2 0x2D6 JUMPI PUSH0 DUP1 REVERT JUMPDEST POP PUSH1 0x5 SLOAD PUSH2 0x2EA SWAP1 PUSH1 0x1 PUSH1 0x1 PUSH1 0xA0 SHL SUB AND DUP2 JUMP JUMPDEST PUSH1 0x40 MLOAD PUSH1 0x1 PUSH1 0x1 PUSH1 0xA0 SHL SUB SWAP1 SWAP2 AND DUP2 MSTORE PUSH1 0x20 ADD PUSH2 0x2C2 JUMP JUMPDEST CALLVALUE DUP1 ISZERO PUSH2 0x30D JUMPI PUSH0 DUP1 REVERT JUMPDEST POP PUSH2 0x316 PUSH2 0x7E8 JUMP JUMPDEST PUSH1 0x40 DUP1 MLOAD SWAP3 DUP4 MSTORE PUSH1 0x20 DUP4 ADD SWAP2 SWAP1 SWAP2 MSTORE ADD PUSH2 0x2C2 JUMP JUMPDEST CALLVALUE DUP1 ISZERO PUSH2 0x336 JUMPI PUSH0 DUP1 REVERT JUMPDEST POP PUSH2 0x33F PUSH2 0x863 JUMP JUMPDEST PUSH1 0x40 MLOAD PUSH2 0x2C2 SWAP2 SWAP1 PUSH2 0x15ED JUMP JUMPDEST CALLVALUE DUP1 ISZERO PUSH2 0x357 JUMPI PUSH0 DUP1 REVERT JUMPDEST POP PUSH2 0x287 PUSH2 0x366 CALLDATASIZE PUSH1 0x4 PUSH2 0x15FF JUMP JUMPDEST PUSH2 0x8F3 JUMP JUMPDEST CALLVALUE DUP1 ISZERO PUSH2 0x376 JUMPI PUSH0 DUP1 REVERT JUMPDEST POP PUSH1 0x3 SLOAD TIMESTAMP LT JUMPDEST PUSH1 0x40 MLOAD SWAP1 ISZERO ISZERO DUP2 MSTORE PUSH1 0x20 ADD PUSH2 0x2C2 JUMP JUMPDEST CALLVALUE DUP1 ISZERO PUSH2 0x398 JUMPI PUSH0 DUP1 REVERT JUMPDEST POP PUSH2 0x2B8 PUSH1 0x3 SLOAD DUP2 JUMP JUMPDEST CALLVALUE DUP1 ISZERO PUSH2 0x3AD JUMPI PUSH0 DUP1 REVERT JUMPDEST POP PUSH2 0x3C1 PUSH2 0x3BC CALLDATASIZE PUSH1 0x4 PUSH2 0x166B JUMP JUMPDEST PUSH2 0xA50 JUMP JUMPDEST PUSH1 0x40 MLOAD PUSH2 0x2C2 SWAP3 SWAP2 SWAP1 PUSH2 0x1682 JUMP JUMPDEST CALLVALUE DUP1 ISZERO PUSH2 0x3DA JUMPI PUSH0 DUP1 REVERT JUMPDEST POP PUSH2 0x287 PUSH2 0xB70 JUMP JUMPDEST CALLVALUE DUP1 ISZERO PUSH2 0x3EE JUMPI PUSH0 DUP1 REVERT JUMPDEST POP PUSH2 0x2B8 PUSH1 0x2 SLOAD DUP2 JUMP JUMPDEST CALLVALUE DUP1 ISZERO PUSH2 0x403 JUMPI PUSH0 DUP1 REVERT JUMPDEST POP PUSH2 0x33F PUSH2 0xE28 JUMP JUMPDEST CALLVALUE DUP1 ISZERO PUSH2 0x417 JUMPI PUSH0 DUP1 REVERT JUMPDEST POP PUSH1 0x3 SLOAD PUSH2 0x2B8 JUMP JUMPDEST CALLVALUE DUP1 ISZERO PUSH2 0x42B JUMPI PUSH0 DUP1 REVERT JUMPDEST POP PUSH2 0x287 PUSH2 0x43A CALLDATASIZE PUSH1 0x4 PUSH2 0x159D JUMP JUMPDEST PUSH2 0xEB4 JUMP JUMPDEST CALLVALUE DUP1 ISZERO PUSH2 0x44A JUMPI PUSH0 DUP1 REVERT JUMPDEST POP PUSH2 0x287 PUSH2 0x459 CALLDATASIZE PUSH1 0x4 PUSH2 0x16A3 JUMP JUMPDEST PUSH2 0xFBE JUMP JUMPDEST CALLVALUE DUP1 ISZERO PUSH2 0x469 JUMPI PUSH0 DUP1 REVERT JUMPDEST POP PUSH1 0xC SLOAD PUSH1 0x4 SLOAD PUSH1 0x1 PUSH1 0x1 PUSH1 0xA0 SHL SUB AND PUSH0 SWAP1 DUP2 MSTORE PUSH1 0xB PUSH1 0x20 MSTORE PUSH1 0x40 SWAP1 KECCAK256 SLOAD PUSH2 0x316 JUMP JUMPDEST CALLVALUE DUP1 ISZERO PUSH2 0x497 JUMPI PUSH0 DUP1 REVERT JUMPDEST POP PUSH2 0x33F PUSH2 0x11D3 JUMP JUMPDEST CALLVALUE DUP1 ISZERO PUSH2 0x4AB JUMPI PUSH0 DUP1 REVERT JUMPDEST POP PUSH2 0x287 PUSH2 0x4BA CALLDATASIZE PUSH1 0x4 PUSH2 0x159D JUMP JUMPDEST PUSH2 0x11E0 JUMP JUMPDEST CALLVALUE DUP1 ISZERO PUSH2 0x4CA JUMPI PUSH0 DUP1 REVERT JUMPDEST POP PUSH1 0x1 SLOAD PUSH1 0x1 PUSH1 0x1 PUSH1 0xA0 SHL SUB AND PUSH2 0x2EA JUMP JUMPDEST PUSH2 0x287 PUSH2 0x6F1 JUMP JUMPDEST CALLVALUE DUP1 ISZERO PUSH2 0x4EF JUMPI PUSH0 DUP1 REVERT JUMPDEST POP PUSH0 SLOAD PUSH1 0x1 PUSH1 0x1 PUSH1 0xA0 SHL SUB AND PUSH2 0x2EA JUMP JUMPDEST CALLVALUE DUP1 ISZERO PUSH2 0x50B JUMPI PUSH0 DUP1 REVERT JUMPDEST POP PUSH2 0x316 PUSH2 0x125F JUMP JUMPDEST CALLVALUE DUP1 ISZERO PUSH2 0x51F JUMPI PUSH0 DUP1 REVERT JUMPDEST POP PUSH2 0x33F PUSH2 0x1355 JUMP JUMPDEST CALLVALUE DUP1 ISZERO PUSH2 0x533 JUMPI PUSH0 DUP1 REVERT JUMPDEST POP PUSH2 0x2B8 PUSH2 0x542 CALLDATASIZE PUSH1 0x4 PUSH2 0x166B JUMP JUMPDEST PUSH2 0x1364 JUMP JUMPDEST CALLVALUE DUP1 ISZERO PUSH2 0x552 JUMPI PUSH0 DUP1 REVERT JUMPDEST POP PUSH2 0x2EA PUSH2 0x1383 JUMP JUMPDEST CALLVALUE DUP1 ISZERO PUSH2 0x566 JUMPI PUSH0 DUP1 REVERT JUMPDEST POP PUSH2 0x33F PUSH2 0x13F3 JUMP JUMPDEST CALLVALUE DUP1 ISZERO PUSH2 0x57A JUMPI PUSH0 DUP1 REVERT JUMPDEST POP PUSH0 SLOAD PUSH2 0x2EA SWAP1 PUSH1 0x1 PUSH1 0x1 PUSH1 0xA0 SHL SUB AND DUP2 JUMP JUMPDEST CALLVALUE DUP1 ISZERO PUSH2 0x598 JUMPI PUSH0 DUP1 REVERT JUMPDEST POP PUSH2 0x2EA PUSH2 0x5A7 CALLDATASIZE PUSH1 0x4 PUSH2 0x166B JUMP JUMPDEST PUSH2 0x1400 JUMP JUMPDEST CALLVALUE DUP1 ISZERO PUSH2 0x5B7 JUMPI PUSH0 DUP1 REVERT JUMPDEST POP PUSH1 0x2 SLOAD PUSH2 0x2B8 JUMP JUMPDEST CALLVALUE DUP1 ISZERO PUSH2 0x5CB JUMPI PUSH0 DUP1 REVERT JUMPDEST POP PUSH2 0x33F PUSH2 0x5DA CALLDATASIZE PUSH1 0x4 PUSH2 0x166B JUMP JUMPDEST PUSH2 0x1428 JUMP JUMPDEST CALLVALUE DUP1 ISZERO PUSH2 0x5EA JUMPI PUSH0 DUP1 REVERT JUMPDEST POP PUSH1 0x1 SLOAD PUSH2 0x2EA SWAP1 PUSH1 0x1 PUSH1 0x1 PUSH1 0xA0 SHL SUB AND DUP2 JUMP JUMPDEST CALLVALUE DUP1 ISZERO PUSH2 0x609 JUMPI PUSH0 DUP1 REVERT JUMPDEST POP PUSH1 0xE SLOAD PUSH2 0x2B8 JUMP JUMPDEST CALLVALUE DUP1 ISZERO PUSH2 0x61D JUMPI PUSH0 DUP1 REVERT JUMPDEST POP PUSH2 0x2B8 PUSH1 0xC SLOAD DUP2 JUMP JUMPDEST CALLVALUE DUP1 ISZERO PUSH2 0x632 JUMPI PUSH0 DUP1 REVERT JUMPDEST POP PUSH2 0x2B8 PUSH2 0x641 CALLDATASIZE PUSH1 0x4 PUSH2 0x159D JUMP JUMPDEST PUSH1 0x9 PUSH1 0x20 MSTORE PUSH0 SWAP1 DUP2 MSTORE PUSH1 0x40 SWAP1 KECCAK256 SLOAD DUP2 JUMP JUMPDEST CALLVALUE DUP1 ISZERO PUSH2 0x65D JUMPI PUSH0 DUP1 REVERT JUMPDEST POP PUSH2 0x287 PUSH2 0x66C CALLDATASIZE PUSH1 0x4 PUSH2 0x16CD JUMP JUMPDEST PUSH2 0x144F JUMP JUMPDEST CALLVALUE DUP1 ISZERO PUSH2 0x67C JUMPI PUSH0 DUP1 REVERT JUMPDEST POP PUSH1 0x3 SLOAD TIMESTAMP LT ISZERO PUSH2 0x37D JUMP JUMPDEST CALLVALUE DUP1 ISZERO PUSH2 0x693 JUMPI PUSH0 DUP1 REVERT JUMPDEST POP PUSH2 0x2B8 PUSH2 0x6A2 CALLDATASIZE PUSH1 0x4 PUSH2 0x16CD JUMP JUMPDEST PUSH1 0xA PUSH1 0x20 SWAP1 DUP2 MSTORE PUSH0 SWAP3 DUP4 MSTORE PUSH1 0x40 DUP1 DUP5 KECCAK256 SWAP1 SWAP2 MSTORE SWAP1 DUP3 MSTORE SWAP1 KECCAK256 SLOAD DUP2 JUMP JUMPDEST CALLVALUE DUP1 ISZERO PUSH2 0x6C9 JUMPI PUSH0 DUP1 REVERT JUMPDEST POP PUSH1 0x4 SLOAD PUSH2 0x2EA SWAP1 PUSH1 0x1 PUSH1 0x1 PUSH1 0xA0 SHL SUB AND DUP2 JUMP JUMPDEST CALLVALUE DUP1 ISZERO PUSH2 0x6E8 JUMPI PUSH0 DUP1 REVERT JUMPDEST POP PUSH2 0x33F PUSH2 0x157A JUMP JUMPDEST PUSH1 0x3 SLOAD TIMESTAMP LT PUSH2 0x738 JUMPI PUSH1 0x40 MLOAD PUSH3 0x461BCD PUSH1 0xE5 SHL DUP2 MSTORE PUSH1 0x20 PUSH1 0x4 DUP3 ADD MSTORE PUSH1 0xE PUSH1 0x24 DUP3 ADD MSTORE PUSH14 0x10D85B5C185A59DB88195B991959 PUSH1 0x92 SHL PUSH1 0x44 DUP3 ADD MSTORE PUSH1 0x64 ADD JUMPDEST PUSH1 0x40 MLOAD DUP1 SWAP2 SUB SWAP1 REVERT JUMPDEST PUSH0 CALLVALUE GT PUSH2 0x787 JUMPI PUSH1 0x40 MLOAD PUSH3 0x461BCD PUSH1 0xE5 SHL DUP2 MSTORE PUSH1 0x20 PUSH1 0x4 DUP3 ADD MSTORE PUSH1 0xB PUSH1 0x24 DUP3 ADD MSTORE PUSH32 0x4E6F204554482073656E74000000000000000000000000000000000000000000 PUSH1 0x44 DUP3 ADD MSTORE PUSH1 0x64 ADD PUSH2 0x72F JUMP JUMPDEST PUSH0 PUSH1 0x64 PUSH2 0x795 CALLVALUE PUSH1 0x2 PUSH2 0x1718 JUMP JUMPDEST PUSH2 0x79F SWAP2 SWAP1 PUSH2 0x1735 JUMP JUMPDEST SWAP1 POP DUP1 PUSH1 0xC PUSH0 DUP3 DUP3 SLOAD PUSH2 0x7B2 SWAP2 SWAP1 PUSH2 0x1754 JUMP JUMPDEST SWAP1 SWAP2 SSTORE POP PUSH2 0x7C2 SWAP1 POP DUP2 CALLVALUE PUSH2 0x1767 JUMP JUMPDEST CALLER PUSH0 SWAP1 DUP2 MSTORE PUSH1 0x9 PUSH1 0x20 MSTORE PUSH1 0x40 DUP2 KECCAK256 DUP1 SLOAD SWAP1 SWAP2 SWAP1 PUSH2 0x7E0 SWAP1 DUP5 SWAP1 PUSH2 0x1754 JUMP JUMPDEST SWAP1 SWAP2 SSTORE POP POP POP JUMP JUMPDEST PUSH1 0x4 DUP1 SLOAD PUSH1 0x40 MLOAD PUSH4 0x70A08231 PUSH1 0xE0 SHL DUP2 MSTORE ADDRESS SWAP3 DUP2 ADD SWAP3 SWAP1 SWAP3 MSTORE PUSH0 SWAP2 DUP3 SWAP2 SELFBALANCE SWAP2 PUSH1 0x1 PUSH1 0x1 PUSH1 0xA0 SHL SUB SWAP1 SWAP2 AND SWAP1 PUSH4 0x70A08231 SWAP1 PUSH1 0x24 ADD PUSH1 0x20 PUSH1 0x40 MLOAD DUP1 DUP4 SUB DUP2 DUP7 GAS STATICCALL ISZERO DUP1 ISZERO PUSH2 0x837 JUMPI RETURNDATASIZE PUSH0 DUP1 RETURNDATACOPY RETURNDATASIZE PUSH0 REVERT JUMPDEST POP POP POP POP PUSH1 0x40 MLOAD RETURNDATASIZE PUSH1 0x1F NOT PUSH1 0x1F DUP3 ADD AND DUP3 ADD DUP1 PUSH1 0x40 MSTORE POP DUP2 ADD SWAP1 PUSH2 0x85B SWAP2 SWAP1 PUSH2 0x177A JUMP JUMPDEST SWAP2 POP SWAP2 POP SWAP1 SWAP2 JUMP JUMPDEST PUSH1 0x60 PUSH1 0x7 DUP1 SLOAD PUSH2 0x872 SWAP1 PUSH2 0x1791 JUMP JUMPDEST DUP1 PUSH1 0x1F ADD PUSH1 0x20 DUP1 SWAP2 DIV MUL PUSH1 0x20 ADD PUSH1 0x40 MLOAD SWAP1 DUP2 ADD PUSH1 0x40 MSTORE DUP1 SWAP3 SWAP2 SWAP1 DUP2 DUP2 MSTORE PUSH1 0x20 ADD DUP3 DUP1 SLOAD PUSH2 0x89E SWAP1 PUSH2 0x1791 JUMP JUMPDEST DUP1 ISZERO PUSH2 0x8E9 JUMPI DUP1 PUSH1 0x1F LT PUSH2 0x8C0 JUMPI PUSH2 0x100 DUP1 DUP4 SLOAD DIV MUL DUP4 MSTORE SWAP2 PUSH1 0x20 ADD SWAP2 PUSH2 0x8E9 JUMP JUMPDEST DUP3 ADD SWAP2 SWAP1 PUSH0 MSTORE PUSH1 0x20 PUSH0 KECCAK256 SWAP1 JUMPDEST DUP2 SLOAD DUP2 MSTORE SWAP1 PUSH1 0x1 ADD SWAP1 PUSH1 0x20 ADD DUP1 DUP4 GT PUSH2 0x8CC JUMPI DUP3 SWAP1 SUB PUSH1 0x1F AND DUP3 ADD SWAP2 JUMPDEST POP POP POP POP POP SWAP1 POP SWAP1 JUMP JUMPDEST PUSH0 SLOAD PUSH1 0x1 PUSH1 0x1 PUSH1 0xA0 SHL SUB AND CALLER EQ PUSH2 0x94C JUMPI PUSH1 0x40 MLOAD PUSH3 0x461BCD PUSH1 0xE5 SHL DUP2 MSTORE PUSH1 0x20 PUSH1 0x4 DUP3 ADD MSTORE PUSH1 0x12 PUSH1 0x24 DUP3 ADD MSTORE PUSH32 0x4E6F742063616D706169676E206F776E65720000000000000000000000000000 PUSH1 0x44 DUP3 ADD MSTORE PUSH1 0x64 ADD PUSH2 0x72F JUMP JUMPDEST PUSH1 0xD DUP1 SLOAD PUSH1 0x1 DUP2 DUP2 ADD SWAP1 SWAP3 SSTORE PUSH32 0xD7B6990105719101DABEB77144F2A3385C8033ACD3AF97E9423A695E81AD1EB5 ADD DUP1 SLOAD PUSH32 0xFFFFFFFFFFFFFFFFFFFFFFFF0000000000000000000000000000000000000000 AND CALLER OR SWAP1 SSTORE PUSH1 0xE DUP1 SLOAD SWAP2 DUP3 ADD DUP2 SSTORE PUSH0 MSTORE PUSH32 0xBB7B4A454DC3493923482F07822329ED19E8244EFF582CC204F8554C3620C3FD ADD PUSH2 0x9DA DUP3 DUP5 DUP4 PUSH2 0x1828 JUMP JUMPDEST POP PUSH1 0xF DUP1 SLOAD PUSH1 0x1 DUP2 ADD DUP3 SSTORE PUSH0 SWAP2 SWAP1 SWAP2 MSTORE TIMESTAMP PUSH32 0x8D1108E10BCB7C27DDDFC02ED9D693A074039D026CF4EA4240B40F7D581AC802 SWAP1 SWAP2 ADD DUP2 SWAP1 SSTORE PUSH1 0x40 MLOAD PUSH32 0x795D961EDBC9E83A9C6D46E7E54AE3BE27574CFBC69A1ECA98133687155C24B0 SWAP2 PUSH2 0xA44 SWAP2 DUP6 SWAP2 DUP6 SWAP2 PUSH2 0x18E2 JUMP JUMPDEST PUSH1 0x40 MLOAD DUP1 SWAP2 SUB SWAP1 LOG1 POP POP JUMP JUMPDEST PUSH1 0xE SLOAD PUSH1 0x60 SWAP1 PUSH0 SWAP1 DUP4 LT PUSH2 0xAA6 JUMPI PUSH1 0x40 MLOAD PUSH3 0x461BCD PUSH1 0xE5 SHL DUP2 MSTORE PUSH1 0x20 PUSH1 0x4 DUP3 ADD MSTORE PUSH1 0xD PUSH1 0x24 DUP3 ADD MSTORE PUSH32 0x496E76616C696420696E64657800000000000000000000000000000000000000 PUSH1 0x44 DUP3 ADD MSTORE PUSH1 0x64 ADD PUSH2 0x72F JUMP JUMPDEST PUSH1 0xE DUP4 DUP2 SLOAD DUP2 LT PUSH2 0xAB9 JUMPI PUSH2 0xAB9 PUSH2 0x1919 JUMP JUMPDEST SWAP1 PUSH0 MSTORE PUSH1 0x20 PUSH0 KECCAK256 ADD PUSH1 0xF DUP5 DUP2 SLOAD DUP2 LT PUSH2 0xAD4 JUMPI PUSH2 0xAD4 PUSH2 0x1919 JUMP JUMPDEST SWAP1 PUSH0 MSTORE PUSH1 0x20 PUSH0 KECCAK256 ADD SLOAD DUP2 DUP1 SLOAD PUSH2 0xAE9 SWAP1 PUSH2 0x1791 JUMP JUMPDEST DUP1 PUSH1 0x1F ADD PUSH1 0x20 DUP1 SWAP2 DIV MUL PUSH1 0x20 ADD PUSH1 0x40 MLOAD SWAP1 DUP2 ADD PUSH1 0x40 MSTORE DUP1 SWAP3 SWAP2 SWAP1 DUP2 DUP2 MSTORE PUSH1 0x20 ADD DUP3 DUP1 SLOAD PUSH2 0xB15 SWAP1 PUSH2 0x1791 JUMP JUMPDEST DUP1 ISZERO PUSH2 0xB60 JUMPI DUP1 PUSH1 0x1F LT PUSH2 0xB37 JUMPI PUSH2 0x100 DUP1 DUP4 SLOAD DIV MUL DUP4 MSTORE SWAP2 PUSH1 0x20 ADD SWAP2 PUSH2 0xB60 JUMP JUMPDEST DUP3 ADD SWAP2 SWAP1 PUSH0 MSTORE PUSH1 0x20 PUSH0 KECCAK256 SWAP1 JUMPDEST DUP2 SLOAD DUP2 MSTORE SWAP1 PUSH1 0x1 ADD SWAP1 PUSH1 0x20 ADD DUP1 DUP4 GT PUSH2 0xB43 JUMPI DUP3 SWAP1 SUB PUSH1 0x1F AND DUP3 ADD SWAP2 JUMPDEST POP POP POP POP POP SWAP2 POP SWAP2 POP SWAP2 POP SWAP2 POP SWAP2 JUMP JUMPDEST PUSH0 SLOAD PUSH1 0x1 PUSH1 0x1 PUSH1 0xA0 SHL SUB AND CALLER EQ PUSH2 0xBC9 JUMPI PUSH1 0x40 MLOAD PUSH3 0x461BCD PUSH1 0xE5 SHL DUP2 MSTORE PUSH1 0x20 PUSH1 0x4 DUP3 ADD MSTORE PUSH1 0x12 PUSH1 0x24 DUP3 ADD MSTORE PUSH32 0x4E6F742063616D706169676E206F776E65720000000000000000000000000000 PUSH1 0x44 DUP3 ADD MSTORE PUSH1 0x64 ADD PUSH2 0x72F JUMP JUMPDEST PUSH1 0x3 SLOAD TIMESTAMP LT ISZERO PUSH2 0xC1B JUMPI PUSH1 0x40 MLOAD PUSH3 0x461BCD PUSH1 0xE5 SHL DUP2 MSTORE PUSH1 0x20 PUSH1 0x4 DUP3 ADD MSTORE PUSH1 0x12 PUSH1 0x24 DUP3 ADD MSTORE PUSH32 0x43616D706169676E206E6F7420656E6465640000000000000000000000000000 PUSH1 0x44 DUP3 ADD MSTORE PUSH1 0x64 ADD PUSH2 0x72F JUMP JUMPDEST PUSH0 PUSH1 0xC SLOAD SELFBALANCE PUSH2 0xC2A SWAP2 SWAP1 PUSH2 0x1767 JUMP JUMPDEST PUSH1 0x4 DUP1 SLOAD PUSH1 0x1 PUSH1 0x1 PUSH1 0xA0 SHL SUB AND PUSH0 DUP2 DUP2 MSTORE PUSH1 0xB PUSH1 0x20 MSTORE PUSH1 0x40 DUP1 DUP3 KECCAK256 SLOAD SWAP1 MLOAD PUSH4 0x70A08231 PUSH1 0xE0 SHL DUP2 MSTORE ADDRESS SWAP5 DUP2 ADD SWAP5 SWAP1 SWAP5 MSTORE SWAP4 SWAP5 POP SWAP3 SWAP2 PUSH4 0x70A08231 SWAP1 PUSH1 0x24 ADD PUSH1 0x20 PUSH1 0x40 MLOAD DUP1 DUP4 SUB DUP2 DUP7 GAS STATICCALL ISZERO DUP1 ISZERO PUSH2 0xC83 JUMPI RETURNDATASIZE PUSH0 DUP1 RETURNDATACOPY RETURNDATASIZE PUSH0 REVERT JUMPDEST POP POP POP POP PUSH1 0x40 MLOAD RETURNDATASIZE PUSH1 0x1F NOT PUSH1 0x1F DUP3 ADD AND DUP3 ADD DUP1 PUSH1 0x40 MSTORE POP DUP2 ADD SWAP1 PUSH2 0xCA7 SWAP2 SWAP1 PUSH2 0x177A JUMP JUMPDEST PUSH2 0xCB1 SWAP2 SWAP1 PUSH2 0x1767 JUMP JUMPDEST SWAP1 POP PUSH1 0x1 DUP1 DUP4 ISZERO PUSH2 0xD11 JUMPI PUSH0 DUP1 SLOAD PUSH1 0x40 MLOAD PUSH1 0x1 PUSH1 0x1 PUSH1 0xA0 SHL SUB SWAP1 SWAP2 AND SWAP2 DUP7 SWAP2 SWAP1 DUP2 DUP2 DUP2 DUP6 DUP8 GAS CALL SWAP3 POP POP POP RETURNDATASIZE DUP1 PUSH0 DUP2 EQ PUSH2 0xD06 JUMPI PUSH1 0x40 MLOAD SWAP2 POP PUSH1 0x1F NOT PUSH1 0x3F RETURNDATASIZE ADD AND DUP3 ADD PUSH1 0x40 MSTORE RETURNDATASIZE DUP3 MSTORE RETURNDATASIZE PUSH0 PUSH1 0x20 DUP5 ADD RETURNDATACOPY PUSH2 0xD0B JUMP JUMPDEST PUSH1 0x60 SWAP2 POP JUMPDEST POP SWAP1 SWAP3 POP POP JUMPDEST DUP3 ISZERO PUSH2 0xD91 JUMPI PUSH1 0x4 DUP1 SLOAD PUSH0 SLOAD PUSH1 0x40 MLOAD PUSH4 0xA9059CBB PUSH1 0xE0 SHL DUP2 MSTORE PUSH1 0x1 PUSH1 0x1 PUSH1 0xA0 SHL SUB SWAP2 DUP3 AND SWAP4 DUP2 ADD SWAP4 SWAP1 SWAP4 MSTORE PUSH1 0x24 DUP4 ADD DUP7 SWAP1 MSTORE AND SWAP1 PUSH4 0xA9059CBB SWAP1 PUSH1 0x44 ADD PUSH1 0x20 PUSH1 0x40 MLOAD DUP1 DUP4 SUB DUP2 PUSH0 DUP8 GAS CALL ISZERO DUP1 ISZERO PUSH2 0xD6A JUMPI RETURNDATASIZE PUSH0 DUP1 RETURNDATACOPY RETURNDATASIZE PUSH0 REVERT JUMPDEST POP POP POP POP PUSH1 0x40 MLOAD RETURNDATASIZE PUSH1 0x1F NOT PUSH1 0x1F DUP3 ADD AND DUP3 ADD DUP1 PUSH1 0x40 MSTORE POP DUP2 ADD SWAP1 PUSH2 0xD8E SWAP2 SWAP1 PUSH2 0x192D JUMP JUMPDEST SWAP1 POP JUMPDEST PUSH1 0x40 DUP1 MLOAD DUP4 ISZERO ISZERO DUP2 MSTORE DUP3 ISZERO ISZERO PUSH1 0x20 DUP3 ADD MSTORE PUSH32 0xEDAF6307DD03CF2213C8CF4C3154D20DBF80B44BB80B206B6381109881DB78E7 SWAP2 ADD PUSH1 0x40 MLOAD DUP1 SWAP2 SUB SWAP1 LOG1 DUP2 DUP1 PUSH2 0xDD6 JUMPI POP DUP1 JUMPDEST PUSH2 0xE22 JUMPI PUSH1 0x40 MLOAD PUSH3 0x461BCD PUSH1 0xE5 SHL DUP2 MSTORE PUSH1 0x20 PUSH1 0x4 DUP3 ADD MSTORE PUSH1 0x11 PUSH1 0x24 DUP3 ADD MSTORE PUSH32 0x4E6F7468696E672077697468647261776E000000000000000000000000000000 PUSH1 0x44 DUP3 ADD MSTORE PUSH1 0x64 ADD PUSH2 0x72F JUMP JUMPDEST POP POP POP POP JUMP JUMPDEST PUSH1 0x6 DUP1 SLOAD PUSH2 0xE35 SWAP1 PUSH2 0x1791 JUMP JUMPDEST DUP1 PUSH1 0x1F ADD PUSH1 0x20 DUP1 SWAP2 DIV MUL PUSH1 0x20 ADD PUSH1 0x40 MLOAD SWAP1 DUP2 ADD PUSH1 0x40 MSTORE DUP1 SWAP3 SWAP2 SWAP1 DUP2 DUP2 MSTORE PUSH1 0x20 ADD DUP3 DUP1 SLOAD PUSH2 0xE61 SWAP1 PUSH2 0x1791 JUMP JUMPDEST DUP1 ISZERO PUSH2 0xEAC JUMPI DUP1 PUSH1 0x1F LT PUSH2 0xE83 JUMPI PUSH2 0x100 DUP1 DUP4 SLOAD DIV MUL DUP4 MSTORE SWAP2 PUSH1 0x20 ADD SWAP2 PUSH2 0xEAC JUMP JUMPDEST DUP3 ADD SWAP2 SWAP1 PUSH0 MSTORE PUSH1 0x20 PUSH0 KECCAK256 SWAP1 JUMPDEST DUP2 SLOAD DUP2 MSTORE SWAP1 PUSH1 0x1 ADD SWAP1 PUSH1 0x20 ADD DUP1 DUP4 GT PUSH2 0xE8F JUMPI DUP3 SWAP1 SUB PUSH1 0x1F AND DUP3 ADD SWAP2 JUMPDEST POP POP POP POP POP DUP2 JUMP JUMPDEST PUSH2 0xEBC PUSH2 0x1383 JUMP JUMPDEST PUSH1 0x1 PUSH1 0x1 PUSH1 0xA0 SHL SUB AND CALLER PUSH1 0x1 PUSH1 0x1 PUSH1 0xA0 SHL SUB AND EQ PUSH2 0xF11 JUMPI PUSH1 0x40 MLOAD PUSH3 0x461BCD PUSH1 0xE5 SHL DUP2 MSTORE PUSH1 0x20 PUSH1 0x4 DUP3 ADD MSTORE PUSH1 0x12 PUSH1 0x24 DUP3 ADD MSTORE PUSH18 0x2737BA10383630BA3337B9369037BBB732B9 PUSH1 0x71 SHL PUSH1 0x44 DUP3 ADD MSTORE PUSH1 0x64 ADD PUSH2 0x72F JUMP JUMPDEST PUSH1 0xC DUP1 SLOAD PUSH0 SWAP2 DUP3 SWAP1 SSTORE PUSH1 0x40 MLOAD SWAP1 SWAP2 SWAP1 PUSH1 0x1 PUSH1 0x1 PUSH1 0xA0 SHL SUB DUP5 AND SWAP1 DUP4 SWAP1 DUP4 DUP2 DUP2 DUP2 DUP6 DUP8 GAS CALL SWAP3 POP POP POP RETURNDATASIZE DUP1 PUSH0 DUP2 EQ PUSH2 0xF63 JUMPI PUSH1 0x40 MLOAD SWAP2 POP PUSH1 0x1F NOT PUSH1 0x3F RETURNDATASIZE ADD AND DUP3 ADD PUSH1 0x40 MSTORE RETURNDATASIZE DUP3 MSTORE RETURNDATASIZE PUSH0 PUSH1 0x20 DUP5 ADD RETURNDATACOPY PUSH2 0xF68 JUMP JUMPDEST PUSH1 0x60 SWAP2 POP JUMPDEST POP POP SWAP1 POP DUP1 PUSH2 0xFB9 JUMPI PUSH1 0x40 MLOAD PUSH3 0x461BCD PUSH1 0xE5 SHL DUP2 MSTORE PUSH1 0x20 PUSH1 0x4 DUP3 ADD MSTORE PUSH1 0x17 PUSH1 0x24 DUP3 ADD MSTORE PUSH32 0x45544820666565207472616E73666572206661696C6564000000000000000000 PUSH1 0x44 DUP3 ADD MSTORE PUSH1 0x64 ADD PUSH2 0x72F JUMP JUMPDEST POP POP POP JUMP JUMPDEST PUSH1 0x3 SLOAD TIMESTAMP LT PUSH2 0x1000 JUMPI PUSH1 0x40 MLOAD PUSH3 0x461BCD PUSH1 0xE5 SHL DUP2 MSTORE PUSH1 0x20 PUSH1 0x4 DUP3 ADD MSTORE PUSH1 0xE PUSH1 0x24 DUP3 ADD MSTORE PUSH14 0x10D85B5C185A59DB88195B991959 PUSH1 0x92 SHL PUSH1 0x44 DUP3 ADD MSTORE PUSH1 0x64 ADD PUSH2 0x72F JUMP JUMPDEST PUSH0 DUP2 GT PUSH2 0x104F JUMPI PUSH1 0x40 MLOAD PUSH3 0x461BCD PUSH1 0xE5 SHL DUP2 MSTORE PUSH1 0x20 PUSH1 0x4 DUP3 ADD MSTORE PUSH1 0xE PUSH1 0x24 DUP3 ADD MSTORE PUSH32 0x4E6F20746F6B656E732073656E74000000000000000000000000000000000000 PUSH1 0x44 DUP3 ADD MSTORE PUSH1 0x64 ADD PUSH2 0x72F JUMP JUMPDEST PUSH1 0x4 SLOAD PUSH0 SWAP1 PUSH1 0x1 PUSH1 0x1 PUSH1 0xA0 SHL SUB DUP5 DUP2 AND SWAP2 AND EQ PUSH2 0x1082 JUMPI PUSH1 0x64 PUSH2 0x1073 DUP4 PUSH1 0x2 PUSH2 0x1718 JUMP JUMPDEST PUSH2 0x107D SWAP2 SWAP1 PUSH2 0x1735 JUMP JUMPDEST PUSH2 0x109A JUMP JUMPDEST PUSH2 0x3E8 PUSH2 0x1090 DUP4 PUSH1 0x5 PUSH2 0x1718 JUMP JUMPDEST PUSH2 0x109A SWAP2 SWAP1 PUSH2 0x1735 JUMP JUMPDEST SWAP1 POP PUSH0 PUSH2 0x10A7 DUP3 DUP5 PUSH2 0x1767 JUMP JUMPDEST PUSH1 0x40 MLOAD PUSH4 0x23B872DD PUSH1 0xE0 SHL DUP2 MSTORE CALLER PUSH1 0x4 DUP3 ADD MSTORE ADDRESS PUSH1 0x24 DUP3 ADD MSTORE PUSH1 0x44 DUP2 ADD DUP6 SWAP1 MSTORE SWAP1 SWAP2 POP PUSH1 0x1 PUSH1 0x1 PUSH1 0xA0 SHL SUB DUP6 AND SWAP1 PUSH4 0x23B872DD SWAP1 PUSH1 0x64 ADD PUSH1 0x20 PUSH1 0x40 MLOAD DUP1 DUP4 SUB DUP2 PUSH0 DUP8 GAS CALL ISZERO DUP1 ISZERO PUSH2 0x10FA JUMPI RETURNDATASIZE PUSH0 DUP1 RETURNDATACOPY RETURNDATASIZE PUSH0 REVERT JUMPDEST POP POP POP POP PUSH1 0x40 MLOAD RETURNDATASIZE PUSH1 0x1F NOT PUSH1 0x1F DUP3 ADD AND DUP3 ADD DUP1 PUSH1 0x40 MSTORE POP DUP2 ADD SWAP1 PUSH2 0x111E SWAP2 SWAP1 PUSH2 0x192D JUMP JUMPDEST PUSH2 0x116A JUMPI PUSH1 0x40 MLOAD PUSH3 0x461BCD PUSH1 0xE5 SHL DUP2 MSTORE PUSH1 0x20 PUSH1 0x4 DUP3 ADD MSTORE PUSH1 0xF PUSH1 0x24 DUP3 ADD MSTORE PUSH32 0x5472616E73666572206661696C65640000000000000000000000000000000000 PUSH1 0x44 DUP3 ADD MSTORE PUSH1 0x64 ADD PUSH2 0x72F JUMP JUMPDEST PUSH1 0x1 PUSH1 0x1 PUSH1 0xA0 SHL SUB DUP5 AND PUSH0 SWAP1 DUP2 MSTORE PUSH1 0xB PUSH1 0x20 MSTORE PUSH1 0x40 DUP2 KECCAK256 DUP1 SLOAD DUP5 SWAP3 SWAP1 PUSH2 0x1191 SWAP1 DUP5 SWAP1 PUSH2 0x1754 JUMP JUMPDEST SWAP1 SWAP2 SSTORE POP POP CALLER PUSH0 SWAP1 DUP2 MSTORE PUSH1 0xA PUSH1 0x20 SWAP1 DUP2 MSTORE PUSH1 0x40 DUP1 DUP4 KECCAK256 PUSH1 0x1 PUSH1 0x1 PUSH1 0xA0 SHL SUB DUP9 AND DUP5 MSTORE SWAP1 SWAP2 MSTORE DUP2 KECCAK256 DUP1 SLOAD DUP4 SWAP3 SWAP1 PUSH2 0x11C8 SWAP1 DUP5 SWAP1 PUSH2 0x1754 JUMP JUMPDEST SWAP1 SWAP2 SSTORE POP POP POP POP POP POP JUMP JUMPDEST PUSH1 0x7 DUP1 SLOAD PUSH2 0xE35 SWAP1 PUSH2 0x1791 JUMP JUMPDEST PUSH2 0x11E8 PUSH2 0x1383 JUMP JUMPDEST PUSH1 0x1 PUSH1 0x1 PUSH1 0xA0 SHL SUB AND CALLER PUSH1 0x1 PUSH1 0x1 PUSH1 0xA0 SHL SUB AND EQ PUSH2 0x123D JUMPI PUSH1 0x40 MLOAD PUSH3 0x461BCD PUSH1 0xE5 SHL DUP2 MSTORE PUSH1 0x20 PUSH1 0x4 DUP3 ADD MSTORE PUSH1 0x12 PUSH1 0x24 DUP3 ADD MSTORE PUSH18 0x2737BA10383630BA3337B9369037BBB732B9 PUSH1 0x71 SHL PUSH1 0x44 DUP3 ADD MSTORE PUSH1 0x64 ADD PUSH2 0x72F JUMP JUMPDEST PUSH2 0x1246 DUP2 PUSH2 0xEB4 JUMP JUMPDEST PUSH1 0x4 SLOAD PUSH2 0x125C SWAP1 PUSH1 0x1 PUSH1 0x1 PUSH1 0xA0 SHL SUB AND DUP3 PUSH2 0x144F JUMP JUMPDEST POP JUMP JUMPDEST PUSH0 DUP1 PUSH1 0x3 SLOAD TIMESTAMP LT ISZERO PUSH2 0x1273 JUMPI POP PUSH0 SWAP2 DUP3 SWAP2 POP JUMP JUMPDEST PUSH1 0x4 DUP1 SLOAD PUSH1 0x40 MLOAD PUSH4 0x70A08231 PUSH1 0xE0 SHL DUP2 MSTORE ADDRESS SWAP3 DUP2 ADD SWAP3 SWAP1 SWAP3 MSTORE SELFBALANCE SWAP2 PUSH0 SWAP2 PUSH1 0x1 PUSH1 0x1 PUSH1 0xA0 SHL SUB AND SWAP1 PUSH4 0x70A08231 SWAP1 PUSH1 0x24 ADD PUSH1 0x20 PUSH1 0x40 MLOAD DUP1 DUP4 SUB DUP2 DUP7 GAS STATICCALL ISZERO DUP1 ISZERO PUSH2 0x12BE JUMPI RETURNDATASIZE PUSH0 DUP1 RETURNDATACOPY RETURNDATASIZE PUSH0 REVERT JUMPDEST POP POP POP POP PUSH1 0x40 MLOAD RETURNDATASIZE PUSH1 0x1F NOT PUSH1 0x1F DUP3 ADD AND DUP3 ADD DUP1 PUSH1 0x40 MSTORE POP DUP2 ADD SWAP1 PUSH2 0x12E2 SWAP2 SWAP1 PUSH2 0x177A JUMP JUMPDEST SWAP1 POP PUSH1 0xC SLOAD DUP3 GT PUSH2 0x12F3 JUMPI PUSH0 PUSH2 0x1300 JUMP JUMPDEST PUSH1 0xC SLOAD PUSH2 0x1300 SWAP1 DUP4 PUSH2 0x1767 JUMP JUMPDEST PUSH1 0x4 SLOAD PUSH1 0x1 PUSH1 0x1 PUSH1 0xA0 SHL SUB AND PUSH0 SWAP1 DUP2 MSTORE PUSH1 0xB PUSH1 0x20 MSTORE PUSH1 0x40 SWAP1 KECCAK256 SLOAD SWAP1 SWAP5 POP DUP2 GT PUSH2 0x1329 JUMPI PUSH0 PUSH2 0x134D JUMP JUMPDEST PUSH1 0x4 SLOAD PUSH1 0x1 PUSH1 0x1 PUSH1 0xA0 SHL SUB AND PUSH0 SWAP1 DUP2 MSTORE PUSH1 0xB PUSH1 0x20 MSTORE PUSH1 0x40 SWAP1 KECCAK256 SLOAD PUSH2 0x134D SWAP1 DUP3 PUSH2 0x1767 JUMP JUMPDEST SWAP3 POP POP POP SWAP1 SWAP2 JUMP JUMPDEST PUSH1 0x60 PUSH1 0x8 DUP1 SLOAD PUSH2 0x872 SWAP1 PUSH2 0x1791 JUMP JUMPDEST PUSH1 0xF DUP2 DUP2 SLOAD DUP2 LT PUSH2 0x1373 JUMPI PUSH0 DUP1 REVERT JUMPDEST PUSH0 SWAP2 DUP3 MSTORE PUSH1 0x20 SWAP1 SWAP2 KECCAK256 ADD SLOAD SWAP1 POP DUP2 JUMP JUMPDEST PUSH1 0x1 SLOAD PUSH1 0x40 DUP1 MLOAD PUSH4 0x8DA5CB5B PUSH1 0xE0 SHL DUP2 MSTORE SWAP1 MLOAD PUSH0 SWAP3 PUSH1 0x1 PUSH1 0x1 PUSH1 0xA0 SHL SUB AND SWAP2 PUSH4 0x8DA5CB5B SWAP2 PUSH1 0x4 DUP1 DUP4 ADD SWAP3 PUSH1 0x20 SWAP3 SWAP2 SWAP1 DUP3 SWAP1 SUB ADD DUP2 DUP7 GAS STATICCALL ISZERO DUP1 ISZERO PUSH2 0x13CA JUMPI RETURNDATASIZE PUSH0 DUP1 RETURNDATACOPY RETURNDATASIZE PUSH0 REVERT JUMPDEST POP POP POP POP PUSH1 0x40 MLOAD RETURNDATASIZE PUSH1 0x1F NOT PUSH1 0x1F DUP3 ADD AND DUP3 ADD DUP1 PUSH1 0x40 MSTORE POP DUP2 ADD SWAP1 PUSH2 0x13EE SWAP2 SWAP1 PUSH2 0x194C JUMP JUMPDEST SWAP1 POP SWAP1 JUMP JUMPDEST PUSH1 0x8 DUP1 SLOAD PUSH2 0xE35 SWAP1 PUSH2 0x1791 JUMP JUMPDEST PUSH1 0xD DUP2 DUP2 SLOAD DUP2 LT PUSH2 0x140F JUMPI PUSH0 DUP1 REVERT JUMPDEST PUSH0 SWAP2 DUP3 MSTORE PUSH1 0x20 SWAP1 SWAP2 KECCAK256 ADD SLOAD PUSH1 0x1 PUSH1 0x1 PUSH1 0xA0 SHL SUB AND SWAP1 POP DUP2 JUMP JUMPDEST PUSH1 0xE DUP2 DUP2 SLOAD DUP2 LT PUSH2 0x1437 JUMPI PUSH0 DUP1 REVERT JUMPDEST SWAP1 PUSH0 MSTORE PUSH1 0x20 PUSH0 KECCAK256 ADD PUSH0 SWAP2 POP SWAP1 POP DUP1 SLOAD PUSH2 0xE35 SWAP1 PUSH2 0x1791 JUMP JUMPDEST PUSH2 0x1457 PUSH2 0x1383 JUMP JUMPDEST PUSH1 0x1 PUSH1 0x1 PUSH1 0xA0 SHL SUB AND CALLER PUSH1 0x1 PUSH1 0x1 PUSH1 0xA0 SHL SUB AND EQ PUSH2 0x14AC JUMPI PUSH1 0x40 MLOAD PUSH3 0x461BCD PUSH1 0xE5 SHL DUP2 MSTORE PUSH1 0x20 PUSH1 0x4 DUP3 ADD MSTORE PUSH1 0x12 PUSH1 0x24 DUP3 ADD MSTORE PUSH18 0x2737BA10383630BA3337B9369037BBB732B9 PUSH1 0x71 SHL PUSH1 0x44 DUP3 ADD MSTORE PUSH1 0x64 ADD PUSH2 0x72F JUMP JUMPDEST PUSH1 0x1 PUSH1 0x1 PUSH1 0xA0 SHL SUB DUP3 DUP2 AND PUSH0 DUP2 DUP2 MSTORE PUSH1 0xB PUSH1 0x20 MSTORE PUSH1 0x40 DUP1 DUP3 KECCAK256 DUP1 SLOAD SWAP3 SWAP1 SSTORE MLOAD PUSH4 0xA9059CBB PUSH1 0xE0 SHL DUP2 MSTORE SWAP3 DUP5 AND PUSH1 0x4 DUP5 ADD MSTORE PUSH1 0x24 DUP4 ADD DUP2 SWAP1 MSTORE SWAP2 PUSH4 0xA9059CBB SWAP1 PUSH1 0x44 ADD PUSH1 0x20 PUSH1 0x40 MLOAD DUP1 DUP4 SUB DUP2 PUSH0 DUP8 GAS CALL ISZERO DUP1 ISZERO PUSH2 0x150A JUMPI RETURNDATASIZE PUSH0 DUP1 RETURNDATACOPY RETURNDATASIZE PUSH0 REVERT JUMPDEST POP POP POP POP PUSH1 0x40 MLOAD RETURNDATASIZE PUSH1 0x1F NOT PUSH1 0x1F DUP3 ADD AND DUP3 ADD DUP1 PUSH1 0x40 MSTORE POP DUP2 ADD SWAP1 PUSH2 0x152E SWAP2 SWAP1 PUSH2 0x192D JUMP JUMPDEST PUSH2 0xFB9 JUMPI PUSH1 0x40 MLOAD PUSH3 0x461BCD PUSH1 0xE5 SHL DUP2 MSTORE PUSH1 0x20 PUSH1 0x4 DUP3 ADD MSTORE PUSH1 0x19 PUSH1 0x24 DUP3 ADD MSTORE PUSH32 0x546F6B656E20666565207472616E73666572206661696C656400000000000000 PUSH1 0x44 DUP3 ADD MSTORE PUSH1 0x64 ADD PUSH2 0x72F JUMP JUMPDEST PUSH1 0x60 PUSH1 0x6 DUP1 SLOAD PUSH2 0x872 SWAP1 PUSH2 0x1791 JUMP JUMPDEST PUSH1 0x1 PUSH1 0x1 PUSH1 0xA0 SHL SUB DUP2 AND DUP2 EQ PUSH2 0x125C JUMPI PUSH0 DUP1 REVERT JUMPDEST PUSH0 PUSH1 0x20 DUP3 DUP5 SUB SLT ISZERO PUSH2 0x15AD JUMPI PUSH0 DUP1 REVERT JUMPDEST DUP2 CALLDATALOAD PUSH2 0x15B8 DUP2 PUSH2 0x1589 JUMP JUMPDEST SWAP4 SWAP3 POP POP POP JUMP JUMPDEST PUSH0 DUP2 MLOAD DUP1 DUP5 MSTORE DUP1 PUSH1 0x20 DUP5 ADD PUSH1 0x20 DUP7 ADD MCOPY PUSH0 PUSH1 0x20 DUP3 DUP7 ADD ADD MSTORE PUSH1 0x20 PUSH1 0x1F NOT PUSH1 0x1F DUP4 ADD AND DUP6 ADD ADD SWAP2 POP POP SWAP3 SWAP2 POP POP JUMP JUMPDEST PUSH1 0x20 DUP2 MSTORE PUSH0 PUSH2 0x15B8 PUSH1 0x20 DUP4 ADD DUP5 PUSH2 0x15BF JUMP JUMPDEST PUSH0 DUP1 PUSH1 0x20 DUP4 DUP6 SUB SLT ISZERO PUSH2 0x1610 JUMPI PUSH0 DUP1 REVERT JUMPDEST DUP3 CALLDATALOAD PUSH8 0xFFFFFFFFFFFFFFFF DUP1 DUP3 GT ISZERO PUSH2 0x1627 JUMPI PUSH0 DUP1 REVERT JUMPDEST DUP2 DUP6 ADD SWAP2 POP DUP6 PUSH1 0x1F DUP4 ADD SLT PUSH2 0x163A JUMPI PUSH0 DUP1 REVERT JUMPDEST DUP2 CALLDATALOAD DUP2 DUP2 GT ISZERO PUSH2 0x1648 JUMPI PUSH0 DUP1 REVERT JUMPDEST DUP7 PUSH1 0x20 DUP3 DUP6 ADD ADD GT ISZERO PUSH2 0x1659 JUMPI PUSH0 DUP1 REVERT JUMPDEST PUSH1 0x20 SWAP3 SWAP1 SWAP3 ADD SWAP7 SWAP2 SWAP6 POP SWAP1 SWAP4 POP POP POP POP JUMP JUMPDEST PUSH0 PUSH1 0x20 DUP3 DUP5 SUB SLT ISZERO PUSH2 0x167B JUMPI PUSH0 DUP1 REVERT JUMPDEST POP CALLDATALOAD SWAP2 SWAP1 POP JUMP JUMPDEST PUSH1 0x40 DUP2 MSTORE PUSH0 PUSH2 0x1694 PUSH1 0x40 DUP4 ADD DUP6 PUSH2 0x15BF JUMP JUMPDEST SWAP1 POP DUP3 PUSH1 0x20 DUP4 ADD MSTORE SWAP4 SWAP3 POP POP POP JUMP JUMPDEST PUSH0 DUP1 PUSH1 0x40 DUP4 DUP6 SUB SLT ISZERO PUSH2 0x16B4 JUMPI PUSH0 DUP1 REVERT JUMPDEST DUP3 CALLDATALOAD PUSH2 0x16BF DUP2 PUSH2 0x1589 JUMP JUMPDEST SWAP5 PUSH1 0x20 SWAP4 SWAP1 SWAP4 ADD CALLDATALOAD SWAP4 POP POP POP JUMP JUMPDEST PUSH0 DUP1 PUSH1 0x40 DUP4 DUP6 SUB SLT ISZERO PUSH2 0x16DE JUMPI PUSH0 DUP1 REVERT JUMPDEST DUP3 CALLDATALOAD PUSH2 0x16E9 DUP2 PUSH2 0x1589 JUMP JUMPDEST SWAP2 POP PUSH1 0x20 DUP4 ADD CALLDATALOAD PUSH2 0x16F9 DUP2 PUSH2 0x1589 JUMP JUMPDEST DUP1 SWAP2 POP POP SWAP3 POP SWAP3 SWAP1 POP JUMP JUMPDEST PUSH4 0x4E487B71 PUSH1 0xE0 SHL PUSH0 MSTORE PUSH1 0x11 PUSH1 0x4 MSTORE PUSH1 0x24 PUSH0 REVERT JUMPDEST DUP1 DUP3 MUL DUP2 ISZERO DUP3 DUP3 DIV DUP5 EQ OR PUSH2 0x172F JUMPI PUSH2 0x172F PUSH2 0x1704 JUMP JUMPDEST SWAP3 SWAP2 POP POP JUMP JUMPDEST PUSH0 DUP3 PUSH2 0x174F JUMPI PUSH4 0x4E487B71 PUSH1 0xE0 SHL PUSH0 MSTORE PUSH1 0x12 PUSH1 0x4 MSTORE PUSH1 0x24 PUSH0 REVERT JUMPDEST POP DIV SWAP1 JUMP JUMPDEST DUP1 DUP3 ADD DUP1 DUP3 GT ISZERO PUSH2 0x172F JUMPI PUSH2 0x172F PUSH2 0x1704 JUMP JUMPDEST DUP2 DUP2 SUB DUP2 DUP2 GT ISZERO PUSH2 0x172F JUMPI PUSH2 0x172F PUSH2 0x1704 JUMP JUMPDEST PUSH0 PUSH1 0x20 DUP3 DUP5 SUB SLT ISZERO PUSH2 0x178A JUMPI PUSH0 DUP1 REVERT JUMPDEST POP MLOAD SWAP2 SWAP1 POP JUMP JUMPDEST PUSH1 0x1 DUP2 DUP2 SHR SWAP1 DUP3 AND DUP1 PUSH2 0x17A5 JUMPI PUSH1 0x7F DUP3 AND SWAP2 POP JUMPDEST PUSH1 0x20 DUP3 LT DUP2 SUB PUSH2 0x17C3 JUMPI PUSH4 0x4E487B71 PUSH1 0xE0 SHL PUSH0 MSTORE PUSH1 0x22 PUSH1 0x4 MSTORE PUSH1 0x24 PUSH0 REVERT JUMPDEST POP SWAP2 SWAP1 POP JUMP JUMPDEST PUSH4 0x4E487B71 PUSH1 0xE0 SHL PUSH0 MSTORE PUSH1 0x41 PUSH1 0x4 MSTORE PUSH1 0x24 PUSH0 REVERT JUMPDEST PUSH1 0x1F DUP3 GT ISZERO PUSH2 0xFB9 JUMPI DUP1 PUSH0 MSTORE PUSH1 0x20 PUSH0 KECCAK256 PUSH1 0x1F DUP5 ADD PUSH1 0x5 SHR DUP2 ADD PUSH1 0x20 DUP6 LT ISZERO PUSH2 0x1802 JUMPI POP DUP1 JUMPDEST PUSH1 0x1F DUP5 ADD PUSH1 0x5 SHR DUP3 ADD SWAP2 POP JUMPDEST DUP2 DUP2 LT ISZERO PUSH2 0x1821 JUMPI PUSH0 DUP2 SSTORE PUSH1 0x1 ADD PUSH2 0x180E JUMP JUMPDEST POP POP POP POP POP JUMP JUMPDEST PUSH8 0xFFFFFFFFFFFFFFFF DUP4 GT ISZERO PUSH2 0x1840 JUMPI PUSH2 0x1840 PUSH2 0x17C9 JUMP JUMPDEST PUSH2 0x1854 DUP4 PUSH2 0x184E DUP4 SLOAD PUSH2 0x1791 JUMP JUMPDEST DUP4 PUSH2 0x17DD JUMP JUMPDEST PUSH0 PUSH1 0x1F DUP5 GT PUSH1 0x1 DUP2 EQ PUSH2 0x1885 JUMPI PUSH0 DUP6 ISZERO PUSH2 0x186E JUMPI POP DUP4 DUP3 ADD CALLDATALOAD JUMPDEST PUSH0 NOT PUSH1 0x3 DUP8 SWAP1 SHL SHR NOT AND PUSH1 0x1 DUP7 SWAP1 SHL OR DUP4 SSTORE PUSH2 0x1821 JUMP JUMPDEST PUSH0 DUP4 DUP2 MSTORE PUSH1 0x20 DUP2 KECCAK256 PUSH1 0x1F NOT DUP8 AND SWAP2 JUMPDEST DUP3 DUP2 LT ISZERO PUSH2 0x18B4 JUMPI DUP7 DUP6 ADD CALLDATALOAD DUP3 SSTORE PUSH1 0x20 SWAP5 DUP6 ADD SWAP5 PUSH1 0x1 SWAP1 SWAP3 ADD SWAP2 ADD PUSH2 0x1894 JUMP JUMPDEST POP DUP7 DUP3 LT ISZERO PUSH2 0x18D0 JUMPI PUSH0 NOT PUSH1 0xF8 DUP9 PUSH1 0x3 SHL AND SHR NOT DUP5 DUP8 ADD CALLDATALOAD AND DUP2 SSTORE JUMPDEST POP POP PUSH1 0x1 DUP6 PUSH1 0x1 SHL ADD DUP4 SSTORE POP POP POP POP POP JUMP JUMPDEST PUSH1 0x40 DUP2 MSTORE DUP3 PUSH1 0x40 DUP3 ADD MSTORE DUP3 DUP5 PUSH1 0x60 DUP4 ADD CALLDATACOPY PUSH0 PUSH1 0x60 DUP5 DUP4 ADD ADD MSTORE PUSH0 PUSH1 0x60 PUSH1 0x1F NOT PUSH1 0x1F DUP7 ADD AND DUP4 ADD ADD SWAP1 POP DUP3 PUSH1 0x20 DUP4 ADD MSTORE SWAP5 SWAP4 POP POP POP POP JUMP JUMPDEST PUSH4 0x4E487B71 PUSH1 0xE0 SHL PUSH0 MSTORE PUSH1 0x32 PUSH1 0x4 MSTORE PUSH1 0x24 PUSH0 REVERT JUMPDEST PUSH0 PUSH1 0x20 DUP3 DUP5 SUB SLT ISZERO PUSH2 0x193D JUMPI PUSH0 DUP1 REVERT JUMPDEST DUP2 MLOAD DUP1 ISZERO ISZERO DUP2 EQ PUSH2 0x15B8 JUMPI PUSH0 DUP1 REVERT JUMPDEST PUSH0 PUSH1 0x20 DUP3 DUP5 SUB SLT ISZERO PUSH2 0x195C JUMPI PUSH0 DUP1 REVERT JUMPDEST DUP2 MLOAD PUSH2 0x15B8 DUP2 PUSH2 0x1589 JUMP INVALID LOG2 PUSH5 0x6970667358 0x22 SLT KECCAK256 PUSH26 0x178144BB207D3EE84BA23C23B17D036C19A139F48A0CC5B750E3 0xD8 0x1E BALANCE PUSH0 0xC5 PUSH5 0x736F6C6343 STOP ADDMOD NOT STOP CALLER "
    },
    "gasEstimates": {
      "creation": {
        "codeDepositCost": "1311400",
        "executionCost": "infinite",
        "totalCost": "infinite"
      },
      "external": {
        "campaignOwner()": "2402",
        "collectAllFees(address)": "infinite",
        "collectETHFees(address)": "infinite",
        "collectTokenFees(address,address)": "infinite",
        "deadline()": "2351",
        "description()": "infinite",
        "donateETH()": "infinite",
        "donateToken(address,uint256)": "infinite",
        "ethContributions(address)": "2610",
        "ethFeesCollected()": "2372",
        "factory()": "2426",
        "feeDistributor()": "2405",
        "flwToken()": "2424",
        "getDeadline()": "2348",
        "getDescription()": "infinite",
        "getFactory()": "2419",
        "getFeeBalances()": "6672",
        "getGoal()": "2391",
        "getImageUrl()": "infinite",
        "getPlatformOwner()": "infinite",
        "getTitle()": "infinite",
        "getTotalBalance()": "infinite",
        "getUpdate(uint256)": "infinite",
        "getUpdateCount()": "2347",
        "getWithdrawableAmount()": "infinite",
        "goal()": "2352",
        "hasEnded()": "2394",
        "imageUrl()": "infinite",
        "isActive()": "2382",
        "owner()": "2375",
        "postUpdate(string)": "infinite",
        "title()": "infinite",
        "tokenContributions(address,address)": "infinite",
        "tokenFeesCollected(address)": "2546",
        "updateMessages(uint256)": "infinite",
        "updateTimestamps(uint256)": "4673",
        "updates(uint256)": "4700",
        "withdraw()": "infinite"
      }
    },
    "methodIdentifiers": {
      "campaignOwner()": "b17fac22",
      "collectAllFees(address)": "79388e41",
      "collectETHFees(address)": "6136f6cf",
      "collectTokenFees(address,address)": "e98798e8",
      "deadline()": "29dcb0cf",
      "description()": "7284e416",
      "donateETH()": "8b4c40b0",
      "donateToken(address,uint256)": "71a6acf2",
      "ethContributions(address)": "e730395a",
      "ethFeesCollected()": "e27cc5d9",
      "factory()": "c45a0155",
      "feeDistributor()": "0d43e8ad",
      "flwToken()": "f2e76d7b",
      "getDeadline()": "5f8d96de",
      "getDescription()": "1a092541",
      "getFactory()": "88cc58e4",
      "getFeeBalances()": "7273b736",
      "getGoal()": "b97a7d24",
      "getImageUrl()": "9743a691",
      "getPlatformOwner()": "ab975e3b",
      "getTitle()": "ff3c1a8f",
      "getTotalBalance()": "12b58349",
      "getUpdate(uint256)": "32cb25be",
      "getUpdateCount()": "c52ed534",
      "getWithdrawableAmount()": "90be10cc",
      "goal()": "40193883",
      "hasEnded()": "ecb70fb7",
      "imageUrl()": "aba83150",
      "isActive()": "22f3e2d4",
      "owner()": "8da5cb5b",
      "postUpdate(string)": "21d29038",
      "title()": "4a79d50c",
      "tokenContributions(address,address)": "efdf762a",
      "tokenFeesCollected(address)": "07ec3174",
      "updateMessages(uint256)": "bca856ad",
      "updateTimestamps(uint256)": "a035531b",
      "updates(uint256)": "b4c2f727",
      "withdraw()": "3ccfd60b"
    }
  },
  "storageLayout": {
    "storage": [
      {
        "astId": 37,
        "contract": "Campaign-Fixed-v2.sol:Campaign",
        "label": "campaignOwner",
        "offset": 0,
        "slot": "0",
        "type": "t_address"
      },
      {
        "astId": 39,
        "contract": "Campaign-Fixed-v2.sol:Campaign",
        "label": "factory",
        "offset": 0,
        "slot": "1",
        "type": "t_address"
      },
      {
        "astId": 41,
        "contract": "Campaign-Fixed-v2.sol:Campaign",
        "label": "goal",
        "offset": 0,
        "slot": "2",
        "type": "t_uint256"
      },
      {
        "astId": 43,
        "contract": "Campaign-Fixed-v2.sol:Campaign",
        "label": "deadline",
        "offset": 0,
        "slot": "3",
        "type": "t_uint256"
      },
      {
        "astId": 45,
        "contract": "Campaign-Fixed-v2.sol:Campaign",
        "label": "flwToken",
        "offset": 0,
        "slot": "4",
        "type": "t_address"
      },
      {
        "astId": 47,
        "contract": "Campaign-Fixed-v2.sol:Campaign",
        "label": "feeDistributor",
        "offset": 0,
        "slot": "5",
        "type": "t_address"
      },
      {
        "astId": 49,
        "contract": "Campaign-Fixed-v2.sol:Campaign",
        "label": "title",
        "offset": 0,
        "slot": "6",
        "type": "t_string_storage"
      },
      {
        "astId": 51,
        "contract": "Campaign-Fixed-v2.sol:Campaign",
        "label": "description",
        "offset": 0,
        "slot": "7",
        "type": "t_string_storage"
      },
      {
        "astId": 53,
        "contract": "Campaign-Fixed-v2.sol:Campaign",
        "label": "imageUrl",
        "offset": 0,
        "slot": "8",
        "type": "t_string_storage"
      },
      {
        "astId": 57,
        "contract": "Campaign-Fixed-v2.sol:Campaign",
        "label": "ethContributions",
        "offset": 0,
        "slot": "9",
        "type": "t_mapping(t_address,t_uint256)"
      },
      {
        "astId": 63,
        "contract": "Campaign-Fixed-v2.sol:Campaign",
        "label": "tokenContributions",
        "offset": 0,
        "slot": "10",
        "type": "t_mapping(t_address,t_mapping(t_address,t_uint256))"
      },
      {
        "astId": 67,
        "contract": "Campaign-Fixed-v2.sol:Campaign",
        "label": "tokenFeesCollected",
        "offset": 0,
        "slot": "11",
        "type": "t_mapping(t_address,t_uint256)"
      },
      {
        "astId": 69,
        "contract": "Campaign-Fixed-v2.sol:Campaign",
        "label": "ethFeesCollected",
        "offset": 0,
        "slot": "12",
        "type": "t_uint256"
      },
      {
        "astId": 72,
        "contract": "Campaign-Fixed-v2.sol:Campaign",
        "label": "updates",
        "offset": 0,
        "slot": "13",
        "type": "t_array(t_address)dyn_storage"
      },
      {
        "astId": 75,
        "contract": "Campaign-Fixed-v2.sol:Campaign",
        "label": "updateMessages",
        "offset": 0,
        "slot": "14",
        "type": "t_array(t_string_storage)dyn_storage"
      },
      {
        "astId": 78,
        "contract": "Campaign-Fixed-v2.sol:Campaign",
        "label": "updateTimestamps",
        "offset": 0,
        "slot": "15",
        "type": "t_array(t_uint256)dyn_storage"
      }
    ],
    "types": {
      "t_address": {
        "encoding": "inplace",
        "label": "address",
        "numberOfBytes": "20"
      },
      "t_array(t_address)dyn_storage": {
        "base": "t_address",
        "encoding": "dynamic_array",
        "label": "address[]",
        "numberOfBytes": "32"
      },
      "t_array(t_string_storage)dyn_storage": {
        "base": "t_string_storage",
        "encoding": "dynamic_array",
        "label": "string[]",
        "numberOfBytes": "32"
      },
      "t_array(t_uint256)dyn_storage": {
        "base": "t_uint256",
        "encoding": "dynamic_array",
        "label": "uint256[]",
        "numberOfBytes": "32"
      },
      "t_mapping(t_address,t_mapping(t_address,t_uint256))": {
        "encoding": "mapping",
        "key": "t_address",
        "label": "mapping(address => mapping(address => uint256))",
        "numberOfBytes": "32",
        "value": "t_mapping(t_address,t_uint256)"
      },
      "t_mapping(t_address,t_uint256)": {
        "encoding": "mapping",
        "key": "t_address",
        "label": "mapping(address => uint256)",
        "numberOfBytes": "32",
        "value": "t_uint256"
      },
      "t_string_storage": {
        "encoding": "bytes",
        "label": "string",
        "numberOfBytes": "32"
      },
      "t_uint256": {
        "encoding": "inplace",
        "label": "uint256",
        "numberOfBytes": "32"
      }
    }
  },
  "userdoc": {
    "kind": "user",
    "methods": {},
    "version": 1
  }
}