{
  "abi": [
    {
      "inputs": [
        {
          "internalType": "address",
          "name": "_owner",
          "type": "address"
        },
        {
          "internalType": "uint256",
          "name": "_goal",
          "type": "uint256"
        },
        {
          "internalType": "uint256",
          "name": "_duration",
          "type": "uint256"
        },
        {
          "internalType": "address",
          "name": "_flwToken",
          "type": "address"
        },
        {
          "internalType": "address",
          "name": "_feeDistributor",
          "type": "address"
        },
        {
          "internalType": "string",
          "name": "_title",
          "type": "string"
        },
        {
          "internalType": "string",
          "name": "_description",
          "type": "string"
        },
        {
          "internalType": "string",
          "name": "_imageUrl",
          "type": "string"
        }
      ],
      "stateMutability": "nonpayable",
      "type": "constructor"
    },
    {
      "anonymous": false,
      "inputs": [
        {
          "indexed": false,
          "internalType": "string",
          "name": "message",
          "type": "string"
        },
        {
          "indexed": false,
          "internalType": "uint256",
          "name": "timestamp",
          "type": "uint256"
        }
      ],
      "name": "UpdatePosted",
      "type": "event"
    },
    {
      "anonymous": false,
      "inputs": [
        {
          "indexed": true,
          "internalType": "address",
          "name": "owner",
          "type": "address"
        },
        {
          "indexed": false,
          "internalType": "uint256",
          "name": "ethAmount",
          "type": "uint256"
        },
        {
          "indexed": false,
          "internalType": "uint256",
          "name": "tokenAmount",
          "type": "uint256"
        }
      ],
      "name": "WithdrawAttempt",
      "type": "event"
    },
    {
      "anonymous": false,
      "inputs": [
        {
          "indexed": false,
          "internalType": "bool",
          "name": "ethSent",
          "type": "bool"
        },
        {
          "indexed": false,
          "internalType": "bool",
          "name": "tokenSent",
          "type": "bool"
        }
      ],
      "name": "WithdrawSuccess",
      "type": "event"
    },
    {
      "inputs": [
        {
          "internalType": "address",
          "name": "to",
          "type": "address"
        }
      ],
      "name": "collectAllFees",
      "outputs": [],
      "stateMutability": "nonpayable",
      "type": "function"
    },
    {
      "inputs": [
        {
          "internalType": "address",
          "name": "to",
          "type": "address"
        }
      ],
      "name": "collectETHFees",
      "outputs": [],
      "stateMutability": "nonpayable",
      "type": "function"
    },
    {
      "inputs": [
        {
          "internalType": "address",
          "name": "token",
          "type": "address"
        },
        {
          "internalType": "address",
          "name": "to",
          "type": "address"
        }
      ],
      "name": "collectTokenFees",
      "outputs": [],
      "stateMutability": "nonpayable",
      "type": "function"
    },
    {
      "inputs": [],
      "name": "deadline",
      "outputs": [
        {
          "internalType": "uint256",
          "name": "",
          "type": "uint256"
        }
      ],
      "stateMutability": "view",
      "type": "function"
    },
    {
      "inputs": [],
      "name": "description",
      "outputs": [
        {
          "internalType": "string",
          "name": "",
          "type": "string"
        }
      ],
      "stateMutability": "view",
      "type": "function"
    },
    {
      "inputs": [],
      "name": "donateETH",
      "outputs": [],
      "stateMutability": "payable",
      "type": "function"
    },
    {
      "inputs": [
        {
          "internalType": "address",
          "name": "token",
          "type": "address"
        },
        {
          "internalType": "uint256",
          "name": "amount",
          "type": "uint256"
        }
      ],
      "name": "donateToken",
      "outputs": [],
      "stateMutability": "nonpayable",
      "type": "function"
    },
    {
      "inputs": [
        {
          "internalType": "address",
          "name": "",
          "type": "address"
        }
      ],
      "name": "ethContributions",
      "outputs": [
        {
          "internalType": "uint256",
          "name": "",
          "type": "uint256"
        }
      ],
      "stateMutability": "view",
      "type": "function"
    },
    {
      "inputs": [],
      "name": "ethFeesCollected",
      "outputs": [
        {
          "internalType": "uint256",
          "name": "",
          "type": "uint256"
        }
      ],
      "stateMutability": "view",
      "type": "function"
    },
    {
      "inputs": [],
      "name": "feeDistributor",
      "outputs": [
        {
          "internalType": "address",
          "name": "",
          "type": "address"
        }
      ],
      "stateMutability": "view",
      "type": "function"
    },
    {
      "inputs": [],
      "name": "flwToken",
      "outputs": [
        {
          "internalType": "address",
          "name": "",
          "type": "address"
        }
      ],
      "stateMutability": "view",
      "type": "function"
    },
    {
      "inputs": [],
      "name": "getFeeBalances",
      "outputs": [
        {
          "internalType": "uint256",
          "name": "ethFee",
          "type": "uint256"
        },
        {
          "internalType": "uint256",
          "name": "flwFee",
          "type": "uint256"
        }
      ],
      "stateMutability": "view",
      "type": "function"
    },
    {
      "inputs": [
        {
          "internalType": "uint256",
          "name": "index",
          "type": "uint256"
        }
      ],
      "name": "getUpdate",
      "outputs": [
        {
          "internalType": "string",
          "name": "",
          "type": "string"
        },
        {
          "internalType": "uint256",
          "name": "",
          "type": "uint256"
        }
      ],
      "stateMutability": "view",
      "type": "function"
    },
    {
      "inputs": [],
      "name": "getUpdateCount",
      "outputs": [
        {
          "internalType": "uint256",
          "name": "",
          "type": "uint256"
        }
      ],
      "stateMutability": "view",
      "type": "function"
    },
    {
      "inputs": [],
      "name": "getWithdrawableAmount",
      "outputs": [
        {
          "internalType": "uint256",
          "name": "ethAmount",
          "type": "uint256"
        },
        {
          "internalType": "uint256",
          "name": "flwAmount",
          "type": "uint256"
        }
      ],
      "stateMutability": "view",
      "type": "function"
    },
    {
      "inputs": [],
      "name": "goal",
      "outputs": [
        {
          "internalType": "uint256",
          "name": "",
          "type": "uint256"
        }
      ],
      "stateMutability": "view",
      "type": "function"
    },
    {
      "inputs": [],
      "name": "hasEnded",
      "outputs": [
        {
          "internalType": "bool",
          "name": "",
          "type": "bool"
        }
      ],
      "stateMutability": "view",
      "type": "function"
    },
    {
      "inputs": [],
      "name": "imageUrl",
      "outputs": [
        {
          "internalType": "string",
          "name": "",
          "type": "string"
        }
      ],
      "stateMutability": "view",
      "type": "function"
    },
    {
      "inputs": [],
      "name": "owner",
      "outputs": [
        {
          "internalType": "address",
          "name": "",
          "type": "address"
        }
      ],
      "stateMutability": "view",
      "type": "function"
    },
    {
      "inputs": [
        {
          "internalType": "string",
          "name": "message",
          "type": "string"
        }
      ],
      "name": "postUpdate",
      "outputs": [],
      "stateMutability": "nonpayable",
      "type": "function"
    },
    {
      "inputs": [],
      "name": "title",
      "outputs": [
        {
          "internalType": "string",
          "name": "",
          "type": "string"
        }
      ],
      "stateMutability": "view",
      "type": "function"
    },
    {
      "inputs": [
        {
          "internalType": "address",
          "name": "",
          "type": "address"
        },
        {
          "internalType": "address",
          "name": "",
          "type": "address"
        }
      ],
      "name": "tokenContributions",
      "outputs": [
        {
          "internalType": "uint256",
          "name": "",
          "type": "uint256"
        }
      ],
      "stateMutability": "view",
      "type": "function"
    },
    {
      "inputs": [
        {
          "internalType": "address",
          "name": "",
          "type": "address"
        }
      ],
      "name": "tokenFeesCollected",
      "outputs": [
        {
          "internalType": "uint256",
          "name": "",
          "type": "uint256"
        }
      ],
      "stateMutability": "view",
      "type": "function"
    },
    {
      "inputs": [
        {
          "internalType": "uint256",
          "name": "",
          "type": "uint256"
        }
      ],
      "name": "updateMessages",
      "outputs": [
        {
          "internalType": "string",
          "name": "",
          "type": "string"
        }
      ],
      "stateMutability": "view",
      "type": "function"
    },
    {
      "inputs": [
        {
          "internalType": "uint256",
          "name": "",
          "type": "uint256"
        }
      ],
      "name": "updateTimestamps",
      "outputs": [
        {
          "internalType": "uint256",
          "name": "",
          "type": "uint256"
        }
      ],
      "stateMutability": "view",
      "type": "function"
    },
    {
      "inputs": [
        {
          "internalType": "uint256",
          "name": "",
          "type": "uint256"
        }
      ],
      "name": "updates",
      "outputs": [
        {
          "internalType": "address",
          "name": "",
          "type": "address"
        }
      ],
      "stateMutability": "view",
      "type": "function"
    },
    {
      "inputs": [],
      "name": "withdraw",
      "outputs": [],
      "stateMutability": "nonpayable",
      "type": "function"
    },
    {
      "stateMutability": "payable",
      "type": "receive"
    }
  ],
  "devdoc": {
    "kind": "dev",
    "methods": {},
    "version": 1
  },
  "evm": {
    "assembly": "    /* \"Campaign_1751751092126.sol\":346:5660  contract Campaign {... */\n  mstore(0x40, 0x80)\n    /* \"Campaign_1751751092126.sol\":1271:2107  constructor(... */\n  callvalue\n  dup1\n  iszero\n  tag_1\n  jumpi\n  0x00\n  dup1\n  revert\ntag_1:\n  pop\n  mload(0x40)\n  sub(codesize, bytecodeSize)\n  dup1\n  bytecodeSize\n  dup4\n  codecopy\n  dup2\n  add\n  0x40\n  dup2\n  swap1\n  mstore\n  tag_2\n  swap2\n  tag_3\n  jump\t// in\ntag_2:\n  sub(shl(0xa0, 0x01), 0x01)\n    /* \"Campaign_1751751092126.sol\":1550:1570  _owner != address(0) */\n  dup9\n  and\n    /* \"Campaign_1751751092126.sol\":1542:1589  require(_owner != address(0), \"Owner required\") */\n  tag_6\n  jumpi\n  mload(0x40)\n  shl(0xe5, 0x461bcd)\n  dup2\n  mstore\n    /* \"#utility.yul\":2404:2406   */\n  0x20\n    /* \"Campaign_1751751092126.sol\":1542:1589  require(_owner != address(0), \"Owner required\") */\n  0x04\n  dup3\n  add\n    /* \"#utility.yul\":2386:2407   */\n  mstore\n    /* \"#utility.yul\":2443:2445   */\n  0x0e\n    /* \"#utility.yul\":2423:2441   */\n  0x24\n  dup3\n  add\n    /* \"#utility.yul\":2416:2446   */\n  mstore\n  shl(0x92, 0x13dddb995c881c995c5d5a5c9959)\n    /* \"#utility.yul\":2462:2480   */\n  0x44\n  dup3\n  add\n    /* \"#utility.yul\":2455:2499   */\n  mstore\n    /* \"#utility.yul\":2516:2534   */\n  0x64\n  add\n    /* \"Campaign_1751751092126.sol\":1542:1589  require(_owner != address(0), \"Owner required\") */\ntag_7:\n  mload(0x40)\n  dup1\n  swap2\n  sub\n  swap1\n  revert\ntag_6:\n    /* \"Campaign_1751751092126.sol\":1616:1617  0 */\n  0x00\n    /* \"Campaign_1751751092126.sol\":1608:1613  _goal */\n  dup8\n    /* \"Campaign_1751751092126.sol\":1608:1617  _goal > 0 */\n  gt\n    /* \"Campaign_1751751092126.sol\":1600:1638  require(_goal > 0, \"Goal must be > 0\") */\n  tag_9\n  jumpi\n  mload(0x40)\n  shl(0xe5, 0x461bcd)\n  dup2\n  mstore\n    /* \"#utility.yul\":2747:2749   */\n  0x20\n    /* \"Campaign_1751751092126.sol\":1600:1638  require(_goal > 0, \"Goal must be > 0\") */\n  0x04\n  dup3\n  add\n    /* \"#utility.yul\":2729:2750   */\n  mstore\n    /* \"#utility.yul\":2786:2788   */\n  0x10\n    /* \"#utility.yul\":2766:2784   */\n  0x24\n  dup3\n  add\n    /* \"#utility.yul\":2759:2789   */\n  mstore\n  shl(0x84, 0x0476f616c206d757374206265203e203)\n    /* \"#utility.yul\":2805:2823   */\n  0x44\n  dup3\n  add\n    /* \"#utility.yul\":2798:2844   */\n  mstore\n    /* \"#utility.yul\":2861:2879   */\n  0x64\n  add\n    /* \"Campaign_1751751092126.sol\":1600:1638  require(_goal > 0, \"Goal must be > 0\") */\n  tag_7\n    /* \"#utility.yul\":2545:2885   */\n  jump\n    /* \"Campaign_1751751092126.sol\":1600:1638  require(_goal > 0, \"Goal must be > 0\") */\ntag_9:\n    /* \"Campaign_1751751092126.sol\":1669:1670  0 */\n  0x00\n    /* \"Campaign_1751751092126.sol\":1657:1666  _duration */\n  dup7\n    /* \"Campaign_1751751092126.sol\":1657:1670  _duration > 0 */\n  gt\n    /* \"Campaign_1751751092126.sol\":1649:1692  require(_duration > 0, \"Duration required\") */\n  tag_12\n  jumpi\n  mload(0x40)\n  shl(0xe5, 0x461bcd)\n  dup2\n  mstore\n    /* \"#utility.yul\":3092:3094   */\n  0x20\n    /* \"Campaign_1751751092126.sol\":1649:1692  require(_duration > 0, \"Duration required\") */\n  0x04\n  dup3\n  add\n    /* \"#utility.yul\":3074:3095   */\n  mstore\n    /* \"#utility.yul\":3131:3133   */\n  0x11\n    /* \"#utility.yul\":3111:3129   */\n  0x24\n  dup3\n  add\n    /* \"#utility.yul\":3104:3134   */\n  mstore\n  shl(0x7a, 0x111d5c985d1a5bdb881c995c5d5a5c9959)\n    /* \"#utility.yul\":3150:3168   */\n  0x44\n  dup3\n  add\n    /* \"#utility.yul\":3143:3190   */\n  mstore\n    /* \"#utility.yul\":3207:3225   */\n  0x64\n  add\n    /* \"Campaign_1751751092126.sol\":1649:1692  require(_duration > 0, \"Duration required\") */\n  tag_7\n    /* \"#utility.yul\":2890:3231   */\n  jump\n    /* \"Campaign_1751751092126.sol\":1649:1692  require(_duration > 0, \"Duration required\") */\ntag_12:\n  sub(shl(0xa0, 0x01), 0x01)\n    /* \"Campaign_1751751092126.sol\":1711:1734  _flwToken != address(0) */\n  dup6\n  and\n    /* \"Campaign_1751751092126.sol\":1703:1757  require(_flwToken != address(0), \"FLW token required\") */\n  tag_15\n  jumpi\n  mload(0x40)\n  shl(0xe5, 0x461bcd)\n  dup2\n  mstore\n    /* \"#utility.yul\":3438:3440   */\n  0x20\n    /* \"Campaign_1751751092126.sol\":1703:1757  require(_flwToken != address(0), \"FLW token required\") */\n  0x04\n  dup3\n  add\n    /* \"#utility.yul\":3420:3441   */\n  mstore\n    /* \"#utility.yul\":3477:3479   */\n  0x12\n    /* \"#utility.yul\":3457:3475   */\n  0x24\n  dup3\n  add\n    /* \"#utility.yul\":3450:3480   */\n  mstore\n  shl(0x72, 0x119315c81d1bdad95b881c995c5d5a5c9959)\n    /* \"#utility.yul\":3496:3514   */\n  0x44\n  dup3\n  add\n    /* \"#utility.yul\":3489:3537   */\n  mstore\n    /* \"#utility.yul\":3554:3572   */\n  0x64\n  add\n    /* \"Campaign_1751751092126.sol\":1703:1757  require(_flwToken != address(0), \"FLW token required\") */\n  tag_7\n    /* \"#utility.yul\":3236:3578   */\n  jump\n    /* \"Campaign_1751751092126.sol\":1703:1757  require(_flwToken != address(0), \"FLW token required\") */\ntag_15:\n  sub(shl(0xa0, 0x01), 0x01)\n    /* \"Campaign_1751751092126.sol\":1776:1805  _feeDistributor != address(0) */\n  dup5\n  and\n    /* \"Campaign_1751751092126.sol\":1768:1833  require(_feeDistributor != address(0), \"FeeDistributor required\") */\n  tag_18\n  jumpi\n  mload(0x40)\n  shl(0xe5, 0x461bcd)\n  dup2\n  mstore\n    /* \"#utility.yul\":3785:3787   */\n  0x20\n    /* \"Campaign_1751751092126.sol\":1768:1833  require(_feeDistributor != address(0), \"FeeDistributor required\") */\n  0x04\n  dup3\n  add\n    /* \"#utility.yul\":3767:3788   */\n  mstore\n    /* \"#utility.yul\":3824:3826   */\n  0x17\n    /* \"#utility.yul\":3804:3822   */\n  0x24\n  dup3\n  add\n    /* \"#utility.yul\":3797:3827   */\n  mstore\n    /* \"#utility.yul\":3863:3888   */\n  0x4665654469737472696275746f72207265717569726564000000000000000000\n    /* \"#utility.yul\":3843:3861   */\n  0x44\n  dup3\n  add\n    /* \"#utility.yul\":3836:3889   */\n  mstore\n    /* \"#utility.yul\":3906:3924   */\n  0x64\n  add\n    /* \"Campaign_1751751092126.sol\":1768:1833  require(_feeDistributor != address(0), \"FeeDistributor required\") */\n  tag_7\n    /* \"#utility.yul\":3583:3930   */\n  jump\n    /* \"Campaign_1751751092126.sol\":1768:1833  require(_feeDistributor != address(0), \"FeeDistributor required\") */\ntag_18:\n    /* \"Campaign_1751751092126.sol\":1846:1851  owner */\n  0x00\n    /* \"Campaign_1751751092126.sol\":1846:1860  owner = _owner */\n  dup1\n  sload\n  not(sub(shl(0xa0, 0x01), 0x01))\n  and\n  sub(shl(0xa0, 0x01), 0x01)\n  dup11\n  and\n  or\n  swap1\n  sstore\n  0x01\n    /* \"Campaign_1751751092126.sol\":1871:1883  goal = _goal */\n  dup8\n  swap1\n  sstore\n    /* \"Campaign_1751751092126.sol\":1905:1932  block.timestamp + _duration */\n  tag_21\n    /* \"Campaign_1751751092126.sol\":1923:1932  _duration */\n  dup7\n    /* \"Campaign_1751751092126.sol\":1905:1920  block.timestamp */\n  timestamp\n    /* \"Campaign_1751751092126.sol\":1905:1932  block.timestamp + _duration */\n  tag_22\n  jump\t// in\ntag_21:\n    /* \"Campaign_1751751092126.sol\":1894:1902  deadline */\n  0x02\n    /* \"Campaign_1751751092126.sol\":1894:1932  deadline = block.timestamp + _duration */\n  sstore\n    /* \"Campaign_1751751092126.sol\":1943:1951  flwToken */\n  0x03\n    /* \"Campaign_1751751092126.sol\":1943:1963  flwToken = _flwToken */\n  dup1\n  sload\n  sub(shl(0xa0, 0x01), 0x01)\n  dup1\n  dup9\n  and\n  not(sub(shl(0xa0, 0x01), 0x01))\n  swap3\n  dup4\n  and\n  or\n  swap1\n  swap3\n  sstore\n    /* \"Campaign_1751751092126.sol\":1974:1988  feeDistributor */\n  0x04\n    /* \"Campaign_1751751092126.sol\":1974:2006  feeDistributor = _feeDistributor */\n  dup1\n  sload\n  swap3\n  dup8\n  and\n  swap3\n  swap1\n  swap2\n  and\n  swap2\n  swap1\n  swap2\n  or\n  swap1\n  sstore\n    /* \"Campaign_1751751092126.sol\":2017:2022  title */\n  0x05\n    /* \"Campaign_1751751092126.sol\":2017:2031  title = _title */\n  tag_23\n    /* \"Campaign_1751751092126.sol\":2025:2031  _title */\n  dup5\n    /* \"Campaign_1751751092126.sol\":2017:2022  title */\n  dup3\n    /* \"Campaign_1751751092126.sol\":2017:2031  title = _title */\n  tag_24\n  jump\t// in\ntag_23:\n  pop\n    /* \"Campaign_1751751092126.sol\":2042:2053  description */\n  0x06\n    /* \"Campaign_1751751092126.sol\":2042:2068  description = _description */\n  tag_25\n    /* \"Campaign_1751751092126.sol\":2056:2068  _description */\n  dup4\n    /* \"Campaign_1751751092126.sol\":2042:2053  description */\n  dup3\n    /* \"Campaign_1751751092126.sol\":2042:2068  description = _description */\n  tag_24\n  jump\t// in\ntag_25:\n  pop\n    /* \"Campaign_1751751092126.sol\":2079:2087  imageUrl */\n  0x07\n    /* \"Campaign_1751751092126.sol\":2079:2099  imageUrl = _imageUrl */\n  tag_26\n    /* \"Campaign_1751751092126.sol\":2090:2099  _imageUrl */\n  dup3\n    /* \"Campaign_1751751092126.sol\":2079:2087  imageUrl */\n  dup3\n    /* \"Campaign_1751751092126.sol\":2079:2099  imageUrl = _imageUrl */\n  tag_24\n  jump\t// in\ntag_26:\n  pop\n    /* \"Campaign_1751751092126.sol\":1271:2107  constructor(... */\n  pop\n  pop\n  pop\n  pop\n  pop\n  pop\n  pop\n  pop\n    /* \"Campaign_1751751092126.sol\":346:5660  contract Campaign {... */\n  jump(tag_35)\n    /* \"#utility.yul\":14:191   */\ntag_28:\n    /* \"#utility.yul\":93:106   */\n  dup1\n  mload\n  sub(shl(0xa0, 0x01), 0x01)\n    /* \"#utility.yul\":135:166   */\n  dup2\n  and\n    /* \"#utility.yul\":125:167   */\n  dup2\n  eq\n    /* \"#utility.yul\":115:185   */\n  tag_37\n  jumpi\n    /* \"#utility.yul\":181:182   */\n  0x00\n    /* \"#utility.yul\":178:179   */\n  dup1\n    /* \"#utility.yul\":171:183   */\n  revert\n    /* \"#utility.yul\":115:185   */\ntag_37:\n    /* \"#utility.yul\":14:191   */\n  swap2\n  swap1\n  pop\n  jump\t// out\n    /* \"#utility.yul\":196:323   */\ntag_29:\n    /* \"#utility.yul\":257:267   */\n  0x4e487b71\n    /* \"#utility.yul\":252:255   */\n  0xe0\n    /* \"#utility.yul\":248:268   */\n  shl\n    /* \"#utility.yul\":245:246   */\n  0x00\n    /* \"#utility.yul\":238:269   */\n  mstore\n    /* \"#utility.yul\":288:292   */\n  0x41\n    /* \"#utility.yul\":285:286   */\n  0x04\n    /* \"#utility.yul\":278:293   */\n  mstore\n    /* \"#utility.yul\":312:316   */\n  0x24\n    /* \"#utility.yul\":309:310   */\n  0x00\n    /* \"#utility.yul\":302:317   */\n  revert\n    /* \"#utility.yul\":328:1044   */\ntag_30:\n    /* \"#utility.yul\":382:387   */\n  0x00\n    /* \"#utility.yul\":435:438   */\n  dup3\n    /* \"#utility.yul\":428:432   */\n  0x1f\n    /* \"#utility.yul\":420:426   */\n  dup4\n    /* \"#utility.yul\":416:433   */\n  add\n    /* \"#utility.yul\":412:439   */\n  slt\n    /* \"#utility.yul\":402:457   */\n  tag_40\n  jumpi\n    /* \"#utility.yul\":453:454   */\n  0x00\n    /* \"#utility.yul\":450:451   */\n  dup1\n    /* \"#utility.yul\":443:455   */\n  revert\n    /* \"#utility.yul\":402:457   */\ntag_40:\n    /* \"#utility.yul\":476:489   */\n  dup2\n  mload\n  sub(shl(0x40, 0x01), 0x01)\n    /* \"#utility.yul\":538:548   */\n  dup1\n  dup3\n  gt\n    /* \"#utility.yul\":535:571   */\n  iszero\n  tag_42\n  jumpi\n    /* \"#utility.yul\":551:569   */\n  tag_42\n  tag_29\n  jump\t// in\ntag_42:\n    /* \"#utility.yul\":626:628   */\n  0x40\n    /* \"#utility.yul\":620:629   */\n  mload\n    /* \"#utility.yul\":594:596   */\n  0x1f\n    /* \"#utility.yul\":680:693   */\n  dup4\n  add\n  not(0x1f)\n    /* \"#utility.yul\":676:698   */\n  swap1\n  dup2\n  and\n    /* \"#utility.yul\":700:702   */\n  0x3f\n    /* \"#utility.yul\":672:703   */\n  add\n    /* \"#utility.yul\":668:708   */\n  and\n    /* \"#utility.yul\":656:709   */\n  dup2\n  add\n  swap1\n    /* \"#utility.yul\":724:742   */\n  dup3\n  dup3\n  gt\n    /* \"#utility.yul\":744:766   */\n  dup2\n  dup4\n  lt\n    /* \"#utility.yul\":721:767   */\n  or\n    /* \"#utility.yul\":718:790   */\n  iszero\n  tag_44\n  jumpi\n    /* \"#utility.yul\":770:788   */\n  tag_44\n  tag_29\n  jump\t// in\ntag_44:\n    /* \"#utility.yul\":810:820   */\n  dup2\n    /* \"#utility.yul\":806:808   */\n  0x40\n    /* \"#utility.yul\":799:821   */\n  mstore\n    /* \"#utility.yul\":845:847   */\n  dup4\n    /* \"#utility.yul\":837:843   */\n  dup2\n    /* \"#utility.yul\":830:848   */\n  mstore\n    /* \"#utility.yul\":891:894   */\n  dup7\n    /* \"#utility.yul\":884:888   */\n  0x20\n    /* \"#utility.yul\":879:881   */\n  dup6\n    /* \"#utility.yul\":871:877   */\n  dup9\n    /* \"#utility.yul\":867:882   */\n  add\n    /* \"#utility.yul\":863:889   */\n  add\n    /* \"#utility.yul\":860:895   */\n  gt\n    /* \"#utility.yul\":857:912   */\n  iszero\n  tag_45\n  jumpi\n    /* \"#utility.yul\":908:909   */\n  0x00\n    /* \"#utility.yul\":905:906   */\n  dup1\n    /* \"#utility.yul\":898:910   */\n  revert\n    /* \"#utility.yul\":857:912   */\ntag_45:\n    /* \"#utility.yul\":965:967   */\n  dup4\n    /* \"#utility.yul\":958:962   */\n  0x20\n    /* \"#utility.yul\":950:956   */\n  dup8\n    /* \"#utility.yul\":946:963   */\n  add\n    /* \"#utility.yul\":939:943   */\n  0x20\n    /* \"#utility.yul\":931:937   */\n  dup4\n    /* \"#utility.yul\":927:944   */\n  add\n    /* \"#utility.yul\":921:968   */\n  mcopy\n    /* \"#utility.yul\":1012:1013   */\n  0x00\n    /* \"#utility.yul\":1005:1009   */\n  0x20\n    /* \"#utility.yul\":1000:1002   */\n  dup6\n    /* \"#utility.yul\":992:998   */\n  dup4\n    /* \"#utility.yul\":988:1003   */\n  add\n    /* \"#utility.yul\":984:1010   */\n  add\n    /* \"#utility.yul\":977:1014   */\n  mstore\n    /* \"#utility.yul\":1032:1038   */\n  dup1\n    /* \"#utility.yul\":1023:1038   */\n  swap5\n  pop\n  pop\n  pop\n  pop\n  pop\n    /* \"#utility.yul\":328:1044   */\n  swap3\n  swap2\n  pop\n  pop\n  jump\t// out\n    /* \"#utility.yul\":1049:2197   */\ntag_3:\n    /* \"#utility.yul\":1212:1218   */\n  0x00\n    /* \"#utility.yul\":1220:1226   */\n  dup1\n    /* \"#utility.yul\":1228:1234   */\n  0x00\n    /* \"#utility.yul\":1236:1242   */\n  dup1\n    /* \"#utility.yul\":1244:1250   */\n  0x00\n    /* \"#utility.yul\":1252:1258   */\n  dup1\n    /* \"#utility.yul\":1260:1266   */\n  0x00\n    /* \"#utility.yul\":1268:1274   */\n  dup1\n    /* \"#utility.yul\":1321:1324   */\n  0x0100\n    /* \"#utility.yul\":1309:1318   */\n  dup10\n    /* \"#utility.yul\":1300:1307   */\n  dup12\n    /* \"#utility.yul\":1296:1319   */\n  sub\n    /* \"#utility.yul\":1292:1325   */\n  slt\n    /* \"#utility.yul\":1289:1342   */\n  iszero\n  tag_47\n  jumpi\n    /* \"#utility.yul\":1338:1339   */\n  0x00\n    /* \"#utility.yul\":1335:1336   */\n  dup1\n    /* \"#utility.yul\":1328:1340   */\n  revert\n    /* \"#utility.yul\":1289:1342   */\ntag_47:\n    /* \"#utility.yul\":1361:1401   */\n  tag_48\n    /* \"#utility.yul\":1391:1400   */\n  dup10\n    /* \"#utility.yul\":1361:1401   */\n  tag_28\n  jump\t// in\ntag_48:\n    /* \"#utility.yul\":1351:1401   */\n  swap8\n  pop\n    /* \"#utility.yul\":1441:1443   */\n  0x20\n    /* \"#utility.yul\":1430:1439   */\n  dup10\n    /* \"#utility.yul\":1426:1444   */\n  add\n    /* \"#utility.yul\":1420:1445   */\n  mload\n    /* \"#utility.yul\":1410:1445   */\n  swap7\n  pop\n    /* \"#utility.yul\":1485:1487   */\n  0x40\n    /* \"#utility.yul\":1474:1483   */\n  dup10\n    /* \"#utility.yul\":1470:1488   */\n  add\n    /* \"#utility.yul\":1464:1489   */\n  mload\n    /* \"#utility.yul\":1454:1489   */\n  swap6\n  pop\n    /* \"#utility.yul\":1508:1557   */\n  tag_49\n    /* \"#utility.yul\":1553:1555   */\n  0x60\n    /* \"#utility.yul\":1542:1551   */\n  dup11\n    /* \"#utility.yul\":1538:1556   */\n  add\n    /* \"#utility.yul\":1508:1557   */\n  tag_28\n  jump\t// in\ntag_49:\n    /* \"#utility.yul\":1498:1557   */\n  swap5\n  pop\n    /* \"#utility.yul\":1576:1626   */\n  tag_50\n    /* \"#utility.yul\":1621:1624   */\n  0x80\n    /* \"#utility.yul\":1610:1619   */\n  dup11\n    /* \"#utility.yul\":1606:1625   */\n  add\n    /* \"#utility.yul\":1576:1626   */\n  tag_28\n  jump\t// in\ntag_50:\n    /* \"#utility.yul\":1670:1673   */\n  0xa0\n    /* \"#utility.yul\":1655:1674   */\n  dup11\n  add\n    /* \"#utility.yul\":1649:1675   */\n  mload\n    /* \"#utility.yul\":1566:1626   */\n  swap1\n  swap5\n  pop\n  sub(shl(0x40, 0x01), 0x01)\n    /* \"#utility.yul\":1724:1738   */\n  dup1\n  dup3\n  gt\n    /* \"#utility.yul\":1721:1755   */\n  iszero\n  tag_51\n  jumpi\n    /* \"#utility.yul\":1751:1752   */\n  0x00\n    /* \"#utility.yul\":1748:1749   */\n  dup1\n    /* \"#utility.yul\":1741:1753   */\n  revert\n    /* \"#utility.yul\":1721:1755   */\ntag_51:\n    /* \"#utility.yul\":1774:1835   */\n  tag_52\n    /* \"#utility.yul\":1827:1834   */\n  dup13\n    /* \"#utility.yul\":1818:1824   */\n  dup4\n    /* \"#utility.yul\":1807:1816   */\n  dup14\n    /* \"#utility.yul\":1803:1825   */\n  add\n    /* \"#utility.yul\":1774:1835   */\n  tag_30\n  jump\t// in\ntag_52:\n    /* \"#utility.yul\":1764:1835   */\n  swap5\n  pop\n    /* \"#utility.yul\":1881:1884   */\n  0xc0\n    /* \"#utility.yul\":1870:1879   */\n  dup12\n    /* \"#utility.yul\":1866:1885   */\n  add\n    /* \"#utility.yul\":1860:1886   */\n  mload\n    /* \"#utility.yul\":1844:1886   */\n  swap2\n  pop\n    /* \"#utility.yul\":1911:1913   */\n  dup1\n    /* \"#utility.yul\":1901:1909   */\n  dup3\n    /* \"#utility.yul\":1898:1914   */\n  gt\n    /* \"#utility.yul\":1895:1931   */\n  iszero\n  tag_53\n  jumpi\n    /* \"#utility.yul\":1927:1928   */\n  0x00\n    /* \"#utility.yul\":1924:1925   */\n  dup1\n    /* \"#utility.yul\":1917:1929   */\n  revert\n    /* \"#utility.yul\":1895:1931   */\ntag_53:\n    /* \"#utility.yul\":1950:2013   */\n  tag_54\n    /* \"#utility.yul\":2005:2012   */\n  dup13\n    /* \"#utility.yul\":1994:2002   */\n  dup4\n    /* \"#utility.yul\":1983:1992   */\n  dup14\n    /* \"#utility.yul\":1979:2003   */\n  add\n    /* \"#utility.yul\":1950:2013   */\n  tag_30\n  jump\t// in\ntag_54:\n    /* \"#utility.yul\":1940:2013   */\n  swap4\n  pop\n    /* \"#utility.yul\":2059:2062   */\n  0xe0\n    /* \"#utility.yul\":2048:2057   */\n  dup12\n    /* \"#utility.yul\":2044:2063   */\n  add\n    /* \"#utility.yul\":2038:2064   */\n  mload\n    /* \"#utility.yul\":2022:2064   */\n  swap2\n  pop\n    /* \"#utility.yul\":2089:2091   */\n  dup1\n    /* \"#utility.yul\":2079:2087   */\n  dup3\n    /* \"#utility.yul\":2076:2092   */\n  gt\n    /* \"#utility.yul\":2073:2109   */\n  iszero\n  tag_55\n  jumpi\n    /* \"#utility.yul\":2105:2106   */\n  0x00\n    /* \"#utility.yul\":2102:2103   */\n  dup1\n    /* \"#utility.yul\":2095:2107   */\n  revert\n    /* \"#utility.yul\":2073:2109   */\ntag_55:\n  pop\n    /* \"#utility.yul\":2128:2191   */\n  tag_56\n    /* \"#utility.yul\":2183:2190   */\n  dup12\n    /* \"#utility.yul\":2172:2180   */\n  dup3\n    /* \"#utility.yul\":2161:2170   */\n  dup13\n    /* \"#utility.yul\":2157:2181   */\n  add\n    /* \"#utility.yul\":2128:2191   */\n  tag_30\n  jump\t// in\ntag_56:\n    /* \"#utility.yul\":2118:2191   */\n  swap2\n  pop\n  pop\n    /* \"#utility.yul\":1049:2197   */\n  swap3\n  swap6\n  swap9\n  pop\n  swap3\n  swap6\n  swap9\n  swap1\n  swap4\n  swap7\n  pop\n  jump\t// out\n    /* \"#utility.yul\":3935:4157   */\ntag_22:\n    /* \"#utility.yul\":4000:4009   */\n  dup1\n  dup3\n  add\n    /* \"#utility.yul\":4021:4031   */\n  dup1\n  dup3\n  gt\n    /* \"#utility.yul\":4018:4151   */\n  iszero\n  tag_63\n  jumpi\n    /* \"#utility.yul\":4073:4083   */\n  0x4e487b71\n    /* \"#utility.yul\":4068:4071   */\n  0xe0\n    /* \"#utility.yul\":4064:4084   */\n  shl\n    /* \"#utility.yul\":4061:4062   */\n  0x00\n    /* \"#utility.yul\":4054:4085   */\n  mstore\n    /* \"#utility.yul\":4108:4112   */\n  0x11\n    /* \"#utility.yul\":4105:4106   */\n  0x04\n    /* \"#utility.yul\":4098:4113   */\n  mstore\n    /* \"#utility.yul\":4136:4140   */\n  0x24\n    /* \"#utility.yul\":4133:4134   */\n  0x00\n    /* \"#utility.yul\":4126:4141   */\n  revert\n    /* \"#utility.yul\":4018:4151   */\ntag_63:\n    /* \"#utility.yul\":3935:4157   */\n  swap3\n  swap2\n  pop\n  pop\n  jump\t// out\n    /* \"#utility.yul\":4162:4542   */\ntag_31:\n    /* \"#utility.yul\":4241:4242   */\n  0x01\n    /* \"#utility.yul\":4237:4249   */\n  dup2\n  dup2\n  shr\n  swap1\n    /* \"#utility.yul\":4284:4296   */\n  dup3\n  and\n  dup1\n    /* \"#utility.yul\":4305:4366   */\n  tag_65\n  jumpi\n    /* \"#utility.yul\":4359:4363   */\n  0x7f\n    /* \"#utility.yul\":4351:4357   */\n  dup3\n    /* \"#utility.yul\":4347:4364   */\n  and\n    /* \"#utility.yul\":4337:4364   */\n  swap2\n  pop\n    /* \"#utility.yul\":4305:4366   */\ntag_65:\n    /* \"#utility.yul\":4412:4414   */\n  0x20\n    /* \"#utility.yul\":4404:4410   */\n  dup3\n    /* \"#utility.yul\":4401:4415   */\n  lt\n    /* \"#utility.yul\":4381:4399   */\n  dup2\n    /* \"#utility.yul\":4378:4416   */\n  sub\n    /* \"#utility.yul\":4375:4536   */\n  tag_66\n  jumpi\n    /* \"#utility.yul\":4458:4468   */\n  0x4e487b71\n    /* \"#utility.yul\":4453:4456   */\n  0xe0\n    /* \"#utility.yul\":4449:4469   */\n  shl\n    /* \"#utility.yul\":4446:4447   */\n  0x00\n    /* \"#utility.yul\":4439:4470   */\n  mstore\n    /* \"#utility.yul\":4493:4497   */\n  0x22\n    /* \"#utility.yul\":4490:4491   */\n  0x04\n    /* \"#utility.yul\":4483:4498   */\n  mstore\n    /* \"#utility.yul\":4521:4525   */\n  0x24\n    /* \"#utility.yul\":4518:4519   */\n  0x00\n    /* \"#utility.yul\":4511:4526   */\n  revert\n    /* \"#utility.yul\":4375:4536   */\ntag_66:\n  pop\n    /* \"#utility.yul\":4162:4542   */\n  swap2\n  swap1\n  pop\n  jump\t// out\n    /* \"#utility.yul\":4673:5191   */\ntag_33:\n    /* \"#utility.yul\":4775:4777   */\n  0x1f\n    /* \"#utility.yul\":4770:4773   */\n  dup3\n    /* \"#utility.yul\":4767:4778   */\n  gt\n    /* \"#utility.yul\":4764:5185   */\n  iszero\n  tag_69\n  jumpi\n    /* \"#utility.yul\":4811:4816   */\n  dup1\n    /* \"#utility.yul\":4808:4809   */\n  0x00\n    /* \"#utility.yul\":4801:4817   */\n  mstore\n    /* \"#utility.yul\":4855:4859   */\n  0x20\n    /* \"#utility.yul\":4852:4853   */\n  0x00\n    /* \"#utility.yul\":4842:4860   */\n  keccak256\n    /* \"#utility.yul\":4925:4927   */\n  0x1f\n    /* \"#utility.yul\":4913:4923   */\n  dup5\n    /* \"#utility.yul\":4909:4928   */\n  add\n    /* \"#utility.yul\":4906:4907   */\n  0x05\n    /* \"#utility.yul\":4902:4929   */\n  shr\n    /* \"#utility.yul\":4896:4900   */\n  dup2\n    /* \"#utility.yul\":4892:4930   */\n  add\n    /* \"#utility.yul\":4961:4965   */\n  0x20\n    /* \"#utility.yul\":4949:4959   */\n  dup6\n    /* \"#utility.yul\":4946:4966   */\n  lt\n    /* \"#utility.yul\":4943:4990   */\n  iszero\n  tag_70\n  jumpi\n  pop\n    /* \"#utility.yul\":4984:4988   */\n  dup1\n    /* \"#utility.yul\":4943:4990   */\ntag_70:\n    /* \"#utility.yul\":5039:5041   */\n  0x1f\n    /* \"#utility.yul\":5034:5037   */\n  dup5\n    /* \"#utility.yul\":5030:5042   */\n  add\n    /* \"#utility.yul\":5027:5028   */\n  0x05\n    /* \"#utility.yul\":5023:5043   */\n  shr\n    /* \"#utility.yul\":5017:5021   */\n  dup3\n    /* \"#utility.yul\":5013:5044   */\n  add\n    /* \"#utility.yul\":5003:5044   */\n  swap2\n  pop\n    /* \"#utility.yul\":5094:5175   */\ntag_71:\n    /* \"#utility.yul\":5112:5114   */\n  dup2\n    /* \"#utility.yul\":5105:5110   */\n  dup2\n    /* \"#utility.yul\":5102:5115   */\n  lt\n    /* \"#utility.yul\":5094:5175   */\n  iszero\n  tag_73\n  jumpi\n    /* \"#utility.yul\":5171:5172   */\n  0x00\n    /* \"#utility.yul\":5157:5173   */\n  dup2\n  sstore\n    /* \"#utility.yul\":5138:5139   */\n  0x01\n    /* \"#utility.yul\":5127:5140   */\n  add\n    /* \"#utility.yul\":5094:5175   */\n  jump(tag_71)\ntag_73:\n    /* \"#utility.yul\":5098:5101   */\n  pop\n  pop\n    /* \"#utility.yul\":4764:5185   */\ntag_69:\n    /* \"#utility.yul\":4673:5191   */\n  pop\n  pop\n  pop\n  jump\t// out\n    /* \"#utility.yul\":5367:6712   */\ntag_24:\n    /* \"#utility.yul\":5487:5497   */\n  dup2\n  mload\n  sub(shl(0x40, 0x01), 0x01)\n    /* \"#utility.yul\":5509:5539   */\n  dup2\n  gt\n    /* \"#utility.yul\":5506:5562   */\n  iszero\n  tag_77\n  jumpi\n    /* \"#utility.yul\":5542:5560   */\n  tag_77\n  tag_29\n  jump\t// in\ntag_77:\n    /* \"#utility.yul\":5571:5668   */\n  tag_78\n    /* \"#utility.yul\":5661:5667   */\n  dup2\n    /* \"#utility.yul\":5621:5659   */\n  tag_79\n    /* \"#utility.yul\":5653:5657   */\n  dup5\n    /* \"#utility.yul\":5647:5658   */\n  sload\n    /* \"#utility.yul\":5621:5659   */\n  tag_31\n  jump\t// in\ntag_79:\n    /* \"#utility.yul\":5615:5619   */\n  dup5\n    /* \"#utility.yul\":5571:5668   */\n  tag_33\n  jump\t// in\ntag_78:\n    /* \"#utility.yul\":5723:5727   */\n  0x20\n  dup1\n    /* \"#utility.yul\":5780:5782   */\n  0x1f\n    /* \"#utility.yul\":5769:5783   */\n  dup4\n  gt\n    /* \"#utility.yul\":5797:5798   */\n  0x01\n    /* \"#utility.yul\":5792:6455   */\n  dup2\n  eq\n  tag_81\n  jumpi\n    /* \"#utility.yul\":6499:6500   */\n  0x00\n    /* \"#utility.yul\":6516:6522   */\n  dup5\n    /* \"#utility.yul\":6513:6602   */\n  iszero\n  tag_82\n  jumpi\n  pop\n    /* \"#utility.yul\":6568:6587   */\n  dup6\n  dup4\n  add\n    /* \"#utility.yul\":6562:6588   */\n  mload\n    /* \"#utility.yul\":6513:6602   */\ntag_82:\n  not(0x00)\n    /* \"#utility.yul\":5324:5325   */\n  0x03\n    /* \"#utility.yul\":5320:5331   */\n  dup7\n  swap1\n  shl\n    /* \"#utility.yul\":5316:5340   */\n  shr\n    /* \"#utility.yul\":5312:5341   */\n  not\n    /* \"#utility.yul\":5302:5342   */\n  and\n    /* \"#utility.yul\":5348:5349   */\n  0x01\n    /* \"#utility.yul\":5344:5355   */\n  dup6\n  swap1\n  shl\n    /* \"#utility.yul\":5299:5356   */\n  or\n    /* \"#utility.yul\":6615:6696   */\n  dup6\n  sstore\n    /* \"#utility.yul\":5762:6706   */\n  jump(tag_80)\n    /* \"#utility.yul\":5792:6455   */\ntag_81:\n    /* \"#utility.yul\":4620:4621   */\n  0x00\n    /* \"#utility.yul\":4613:4627   */\n  dup6\n  dup2\n  mstore\n    /* \"#utility.yul\":4657:4661   */\n  0x20\n    /* \"#utility.yul\":4644:4662   */\n  dup2\n  keccak256\n  not(0x1f)\n    /* \"#utility.yul\":5828:5848   */\n  dup7\n  and\n  swap2\n    /* \"#utility.yul\":5946:6182   */\ntag_85:\n    /* \"#utility.yul\":5960:5967   */\n  dup3\n    /* \"#utility.yul\":5957:5958   */\n  dup2\n    /* \"#utility.yul\":5954:5968   */\n  lt\n    /* \"#utility.yul\":5946:6182   */\n  iszero\n  tag_87\n  jumpi\n    /* \"#utility.yul\":6049:6068   */\n  dup9\n  dup7\n  add\n    /* \"#utility.yul\":6043:6069   */\n  mload\n    /* \"#utility.yul\":6028:6070   */\n  dup3\n  sstore\n    /* \"#utility.yul\":6141:6168   */\n  swap5\n  dup5\n  add\n  swap5\n    /* \"#utility.yul\":6109:6110   */\n  0x01\n    /* \"#utility.yul\":6097:6111   */\n  swap1\n  swap2\n  add\n  swap1\n    /* \"#utility.yul\":5976:5995   */\n  dup5\n  add\n    /* \"#utility.yul\":5946:6182   */\n  jump(tag_85)\ntag_87:\n    /* \"#utility.yul\":5950:5953   */\n  pop\n    /* \"#utility.yul\":6210:6216   */\n  dup6\n    /* \"#utility.yul\":6201:6208   */\n  dup3\n    /* \"#utility.yul\":6198:6217   */\n  lt\n    /* \"#utility.yul\":6195:6396   */\n  iszero\n  tag_88\n  jumpi\n    /* \"#utility.yul\":6271:6290   */\n  dup8\n  dup6\n  add\n    /* \"#utility.yul\":6265:6291   */\n  mload\n  not(0x00)\n    /* \"#utility.yul\":6354:6355   */\n  0x03\n    /* \"#utility.yul\":6350:6364   */\n  dup9\n  swap1\n  shl\n    /* \"#utility.yul\":6366:6369   */\n  0xf8\n    /* \"#utility.yul\":6346:6370   */\n  and\n    /* \"#utility.yul\":6342:6379   */\n  shr\n    /* \"#utility.yul\":6338:6380   */\n  not\n    /* \"#utility.yul\":6323:6381   */\n  and\n    /* \"#utility.yul\":6308:6382   */\n  dup2\n  sstore\n    /* \"#utility.yul\":6195:6396   */\ntag_88:\n  pop\n  pop\n    /* \"#utility.yul\":6442:6443   */\n  0x01\n    /* \"#utility.yul\":6433:6439   */\n  dup5\n    /* \"#utility.yul\":6430:6431   */\n  0x01\n    /* \"#utility.yul\":6426:6440   */\n  shl\n    /* \"#utility.yul\":6422:6444   */\n  add\n    /* \"#utility.yul\":6416:6420   */\n  dup6\n    /* \"#utility.yul\":6409:6445   */\n  sstore\n    /* \"#utility.yul\":5762:6706   */\ntag_80:\n  pop\n  pop\n  pop\n  pop\n    /* \"#utility.yul\":5367:6712   */\n  pop\n  pop\n  jump\t// out\ntag_35:\n    /* \"Campaign_1751751092126.sol\":346:5660  contract Campaign {... */\n  dataSize(sub_0)\n  dup1\n  dataOffset(sub_0)\n  0x00\n  codecopy\n  0x00\n  return\nstop\n\nsub_0: assembly {\n        /* \"Campaign_1751751092126.sol\":346:5660  contract Campaign {... */\n      mstore(0x40, 0x80)\n      jumpi(tag_1, lt(calldatasize, 0x04))\n      shr(0xe0, calldataload(0x00))\n      dup1\n      0x8b4c40b0\n      gt\n      tag_30\n      jumpi\n      dup1\n      0xc52ed534\n      gt\n      tag_31\n      jumpi\n      dup1\n      0xe98798e8\n      gt\n      tag_32\n      jumpi\n      dup1\n      0xe98798e8\n      eq\n      tag_26\n      jumpi\n      dup1\n      0xecb70fb7\n      eq\n      tag_27\n      jumpi\n      dup1\n      0xefdf762a\n      eq\n      tag_28\n      jumpi\n      dup1\n      0xf2e76d7b\n      eq\n      tag_29\n      jumpi\n      0x00\n      dup1\n      revert\n    tag_32:\n      dup1\n      0xc52ed534\n      eq\n      tag_23\n      jumpi\n      dup1\n      0xe27cc5d9\n      eq\n      tag_24\n      jumpi\n      dup1\n      0xe730395a\n      eq\n      tag_25\n      jumpi\n      0x00\n      dup1\n      revert\n    tag_31:\n      dup1\n      0xa035531b\n      gt\n      tag_33\n      jumpi\n      dup1\n      0xa035531b\n      eq\n      tag_19\n      jumpi\n      dup1\n      0xaba83150\n      eq\n      tag_20\n      jumpi\n      dup1\n      0xb4c2f727\n      eq\n      tag_21\n      jumpi\n      dup1\n      0xbca856ad\n      eq\n      tag_22\n      jumpi\n      0x00\n      dup1\n      revert\n    tag_33:\n      dup1\n      0x8b4c40b0\n      eq\n      tag_16\n      jumpi\n      dup1\n      0x8da5cb5b\n      eq\n      tag_17\n      jumpi\n      dup1\n      0x90be10cc\n      eq\n      tag_18\n      jumpi\n      0x00\n      dup1\n      revert\n    tag_30:\n      dup1\n      0x40193883\n      gt\n      tag_34\n      jumpi\n      dup1\n      0x71a6acf2\n      gt\n      tag_35\n      jumpi\n      dup1\n      0x71a6acf2\n      eq\n      tag_12\n      jumpi\n      dup1\n      0x7273b736\n      eq\n      tag_13\n      jumpi\n      dup1\n      0x7284e416\n      eq\n      tag_14\n      jumpi\n      dup1\n      0x79388e41\n      eq\n      tag_15\n      jumpi\n      0x00\n      dup1\n      revert\n    tag_35:\n      dup1\n      0x40193883\n      eq\n      tag_9\n      jumpi\n      dup1\n      0x4a79d50c\n      eq\n      tag_10\n      jumpi\n      dup1\n      0x6136f6cf\n      eq\n      tag_11\n      jumpi\n      0x00\n      dup1\n      revert\n    tag_34:\n      dup1\n      0x29dcb0cf\n      gt\n      tag_36\n      jumpi\n      dup1\n      0x29dcb0cf\n      eq\n      tag_6\n      jumpi\n      dup1\n      0x32cb25be\n      eq\n      tag_7\n      jumpi\n      dup1\n      0x3ccfd60b\n      eq\n      tag_8\n      jumpi\n      0x00\n      dup1\n      revert\n    tag_36:\n      dup1\n      0x07ec3174\n      eq\n      tag_3\n      jumpi\n      dup1\n      0x0d43e8ad\n      eq\n      tag_4\n      jumpi\n      dup1\n      0x21d29038\n      eq\n      tag_5\n      jumpi\n      0x00\n      dup1\n      revert\n    tag_1:\n      jumpi(tag_2, calldatasize)\n        /* \"Campaign_1751751092126.sol\":2153:2164  donateETH() */\n      tag_39\n        /* \"Campaign_1751751092126.sol\":2153:2162  donateETH */\n      tag_40\n        /* \"Campaign_1751751092126.sol\":2153:2164  donateETH() */\n      jump\t// in\n    tag_39:\n        /* \"Campaign_1751751092126.sol\":346:5660  contract Campaign {... */\n      stop\n    tag_2:\n      0x00\n      dup1\n      revert\n        /* \"Campaign_1751751092126.sol\":749:802  mapping(address => uint256) public tokenFeesCollected */\n    tag_3:\n      callvalue\n      dup1\n      iszero\n      tag_41\n      jumpi\n      0x00\n      dup1\n      revert\n    tag_41:\n      pop\n      tag_42\n      tag_43\n      calldatasize\n      0x04\n      tag_44\n      jump\t// in\n    tag_43:\n      mstore(0x20, 0x0a)\n      0x00\n      swap1\n      dup2\n      mstore\n      0x40\n      swap1\n      keccak256\n      sload\n      dup2\n      jump\n    tag_42:\n      mload(0x40)\n        /* \"#utility.yul\":552:577   */\n      swap1\n      dup2\n      mstore\n        /* \"#utility.yul\":540:542   */\n      0x20\n        /* \"#utility.yul\":525:543   */\n      add\n        /* \"Campaign_1751751092126.sol\":749:802  mapping(address => uint256) public tokenFeesCollected */\n    tag_46:\n      mload(0x40)\n      dup1\n      swap2\n      sub\n      swap1\n      return\n        /* \"Campaign_1751751092126.sol\":484:513  address public feeDistributor */\n    tag_4:\n      callvalue\n      dup1\n      iszero\n      tag_48\n      jumpi\n      0x00\n      dup1\n      revert\n    tag_48:\n      pop\n      sload(0x04)\n      tag_49\n      swap1\n      sub(shl(0xa0, 0x01), 0x01)\n      and\n      dup2\n      jump\n    tag_49:\n      mload(0x40)\n      sub(shl(0xa0, 0x01), 0x01)\n        /* \"#utility.yul\":752:807   */\n      swap1\n      swap2\n      and\n        /* \"#utility.yul\":734:808   */\n      dup2\n      mstore\n        /* \"#utility.yul\":722:724   */\n      0x20\n        /* \"#utility.yul\":707:725   */\n      add\n        /* \"Campaign_1751751092126.sol\":484:513  address public feeDistributor */\n      tag_46\n        /* \"#utility.yul\":588:814   */\n      jump\n        /* \"Campaign_1751751092126.sol\":4408:4657  function postUpdate(string calldata message) external onlyOwner {... */\n    tag_5:\n      callvalue\n      dup1\n      iszero\n      tag_53\n      jumpi\n      0x00\n      dup1\n      revert\n    tag_53:\n      pop\n      tag_39\n      tag_55\n      calldatasize\n      0x04\n      tag_56\n      jump\t// in\n    tag_55:\n      tag_57\n      jump\t// in\n        /* \"Campaign_1751751092126.sol\":424:447  uint256 public deadline */\n    tag_6:\n      callvalue\n      dup1\n      iszero\n      tag_58\n      jumpi\n      0x00\n      dup1\n      revert\n    tag_58:\n      pop\n      tag_42\n      sload(0x02)\n      dup2\n      jump\n        /* \"Campaign_1751751092126.sol\":4778:4999  function getUpdate(uint256 index) external view returns (string memory, uint256) {... */\n    tag_7:\n      callvalue\n      dup1\n      iszero\n      tag_62\n      jumpi\n      0x00\n      dup1\n      revert\n    tag_62:\n      pop\n      tag_63\n      tag_64\n      calldatasize\n      0x04\n      tag_65\n      jump\t// in\n    tag_64:\n      tag_66\n      jump\t// in\n    tag_63:\n      mload(0x40)\n      tag_46\n      swap3\n      swap2\n      swap1\n      tag_68\n      jump\t// in\n        /* \"Campaign_1751751092126.sol\":3040:3734  function withdraw() external onlyOwner {... */\n    tag_8:\n      callvalue\n      dup1\n      iszero\n      tag_69\n      jumpi\n      0x00\n      dup1\n      revert\n    tag_69:\n      pop\n      tag_39\n      tag_71\n      jump\t// in\n        /* \"Campaign_1751751092126.sol\":398:417  uint256 public goal */\n    tag_9:\n      callvalue\n      dup1\n      iszero\n      tag_72\n      jumpi\n      0x00\n      dup1\n      revert\n    tag_72:\n      pop\n      tag_42\n      sload(0x01)\n      dup2\n      jump\n        /* \"Campaign_1751751092126.sol\":522:541  string public title */\n    tag_10:\n      callvalue\n      dup1\n      iszero\n      tag_76\n      jumpi\n      0x00\n      dup1\n      revert\n    tag_76:\n      pop\n      tag_77\n      tag_78\n      jump\t// in\n    tag_77:\n      mload(0x40)\n      tag_46\n      swap2\n      swap1\n      tag_80\n      jump\t// in\n        /* \"Campaign_1751751092126.sol\":3742:3997  function collectETHFees(address to) public onlyOwner {... */\n    tag_11:\n      callvalue\n      dup1\n      iszero\n      tag_81\n      jumpi\n      0x00\n      dup1\n      revert\n    tag_81:\n      pop\n      tag_39\n      tag_83\n      calldatasize\n      0x04\n      tag_44\n      jump\t// in\n    tag_83:\n      tag_84\n      jump\t// in\n        /* \"Campaign_1751751092126.sol\":2490:3032  function donateToken(address token, uint256 amount) external {... */\n    tag_12:\n      callvalue\n      dup1\n      iszero\n      tag_85\n      jumpi\n      0x00\n      dup1\n      revert\n    tag_85:\n      pop\n      tag_39\n      tag_87\n      calldatasize\n      0x04\n      tag_88\n      jump\t// in\n    tag_87:\n      tag_89\n      jump\t// in\n        /* \"Campaign_1751751092126.sol\":5486:5657  function getFeeBalances() public view returns (uint256 ethFee, uint256 flwFee) {... */\n    tag_13:\n      callvalue\n      dup1\n      iszero\n      tag_90\n      jumpi\n      0x00\n      dup1\n      revert\n    tag_90:\n      pop\n        /* \"Campaign_1751751092126.sol\":5585:5601  ethFeesCollected */\n      sload(0x0b)\n        /* \"Campaign_1751751092126.sol\":5640:5648  flwToken */\n      and(sub(shl(0xa0, 0x01), 0x01), sload(0x03))\n        /* \"Campaign_1751751092126.sol\":5533:5547  uint256 ethFee */\n      0x00\n        /* \"Campaign_1751751092126.sol\":5621:5649  tokenFeesCollected[flwToken] */\n      swap1\n      dup2\n      mstore\n        /* \"Campaign_1751751092126.sol\":5621:5639  tokenFeesCollected */\n      0x0a\n        /* \"Campaign_1751751092126.sol\":5621:5649  tokenFeesCollected[flwToken] */\n      0x20\n      mstore\n      0x40\n      swap1\n      keccak256\n      sload\n        /* \"Campaign_1751751092126.sol\":5486:5657  function getFeeBalances() public view returns (uint256 ethFee, uint256 flwFee) {... */\n    tag_91:\n      0x40\n      dup1\n      mload\n        /* \"#utility.yul\":2849:2874   */\n      swap3\n      dup4\n      mstore\n        /* \"#utility.yul\":2905:2907   */\n      0x20\n        /* \"#utility.yul\":2890:2908   */\n      dup4\n      add\n        /* \"#utility.yul\":2883:2917   */\n      swap2\n      swap1\n      swap2\n      mstore\n        /* \"#utility.yul\":2822:2840   */\n      add\n        /* \"Campaign_1751751092126.sol\":5486:5657  function getFeeBalances() public view returns (uint256 ethFee, uint256 flwFee) {... */\n      tag_46\n        /* \"#utility.yul\":2675:2923   */\n      jump\n        /* \"Campaign_1751751092126.sol\":548:573  string public description */\n    tag_14:\n      callvalue\n      dup1\n      iszero\n      tag_95\n      jumpi\n      0x00\n      dup1\n      revert\n    tag_95:\n      pop\n      tag_77\n      tag_97\n      jump\t// in\n        /* \"Campaign_1751751092126.sol\":4267:4400  function collectAllFees(address to) external onlyOwner {... */\n    tag_15:\n      callvalue\n      dup1\n      iszero\n      tag_99\n      jumpi\n      0x00\n      dup1\n      revert\n    tag_99:\n      pop\n      tag_39\n      tag_101\n      calldatasize\n      0x04\n      tag_44\n      jump\t// in\n    tag_101:\n      tag_102\n      jump\t// in\n        /* \"Campaign_1751751092126.sol\":2180:2482  function donateETH() public payable {... */\n    tag_16:\n      tag_39\n      tag_40\n      jump\t// in\n        /* \"Campaign_1751751092126.sol\":371:391  address public owner */\n    tag_17:\n      callvalue\n      dup1\n      iszero\n      tag_104\n      jumpi\n      0x00\n      dup1\n      revert\n    tag_104:\n      pop\n      sload(0x00)\n      tag_49\n      swap1\n      sub(shl(0xa0, 0x01), 0x01)\n      and\n      dup2\n      jump\n        /* \"Campaign_1751751092126.sol\":5177:5435  function getWithdrawableAmount() public view returns (uint256 ethAmount, uint256 flwAmount) {... */\n    tag_18:\n      callvalue\n      dup1\n      iszero\n      tag_108\n      jumpi\n      0x00\n      dup1\n      revert\n    tag_108:\n      pop\n      tag_91\n      tag_110\n      jump\t// in\n        /* \"Campaign_1751751092126.sol\":917:950  uint256[] public updateTimestamps */\n    tag_19:\n      callvalue\n      dup1\n      iszero\n      tag_112\n      jumpi\n      0x00\n      dup1\n      revert\n    tag_112:\n      pop\n      tag_42\n      tag_114\n      calldatasize\n      0x04\n      tag_65\n      jump\t// in\n    tag_114:\n      tag_115\n      jump\t// in\n        /* \"Campaign_1751751092126.sol\":580:602  string public imageUrl */\n    tag_20:\n      callvalue\n      dup1\n      iszero\n      tag_117\n      jumpi\n      0x00\n      dup1\n      revert\n    tag_117:\n      pop\n      tag_77\n      tag_119\n      jump\t// in\n        /* \"Campaign_1751751092126.sol\":849:873  address[] public updates */\n    tag_21:\n      callvalue\n      dup1\n      iszero\n      tag_121\n      jumpi\n      0x00\n      dup1\n      revert\n    tag_121:\n      pop\n      tag_49\n      tag_123\n      calldatasize\n      0x04\n      tag_65\n      jump\t// in\n    tag_123:\n      tag_124\n      jump\t// in\n        /* \"Campaign_1751751092126.sol\":880:910  string[] public updateMessages */\n    tag_22:\n      callvalue\n      dup1\n      iszero\n      tag_126\n      jumpi\n      0x00\n      dup1\n      revert\n    tag_126:\n      pop\n      tag_77\n      tag_128\n      calldatasize\n      0x04\n      tag_65\n      jump\t// in\n    tag_128:\n      tag_129\n      jump\t// in\n        /* \"Campaign_1751751092126.sol\":4665:4770  function getUpdateCount() external view returns (uint256) {... */\n    tag_23:\n      callvalue\n      dup1\n      iszero\n      tag_131\n      jumpi\n      0x00\n      dup1\n      revert\n    tag_131:\n      pop\n        /* \"Campaign_1751751092126.sol\":4741:4755  updateMessages */\n      0x0d\n        /* \"Campaign_1751751092126.sol\":4741:4762  updateMessages.length */\n      sload\n        /* \"Campaign_1751751092126.sol\":4665:4770  function getUpdateCount() external view returns (uint256) {... */\n      jump(tag_42)\n        /* \"Campaign_1751751092126.sol\":809:840  uint256 public ethFeesCollected */\n    tag_24:\n      callvalue\n      dup1\n      iszero\n      tag_135\n      jumpi\n      0x00\n      dup1\n      revert\n    tag_135:\n      pop\n      tag_42\n      sload(0x0b)\n      dup2\n      jump\n        /* \"Campaign_1751751092126.sol\":611:662  mapping(address => uint256) public ethContributions */\n    tag_25:\n      callvalue\n      dup1\n      iszero\n      tag_139\n      jumpi\n      0x00\n      dup1\n      revert\n    tag_139:\n      pop\n      tag_42\n      tag_141\n      calldatasize\n      0x04\n      tag_44\n      jump\t// in\n    tag_141:\n      mstore(0x20, 0x08)\n      0x00\n      swap1\n      dup2\n      mstore\n      0x40\n      swap1\n      keccak256\n      sload\n      dup2\n      jump\n        /* \"Campaign_1751751092126.sol\":4005:4259  function collectTokenFees(address token, address to) public onlyOwner {... */\n    tag_26:\n      callvalue\n      dup1\n      iszero\n      tag_144\n      jumpi\n      0x00\n      dup1\n      revert\n    tag_144:\n      pop\n      tag_39\n      tag_146\n      calldatasize\n      0x04\n      tag_147\n      jump\t// in\n    tag_146:\n      tag_148\n      jump\t// in\n        /* \"Campaign_1751751092126.sol\":5007:5107  function hasEnded() public view returns (bool) {... */\n    tag_27:\n      callvalue\n      dup1\n      iszero\n      tag_149\n      jumpi\n      0x00\n      dup1\n      revert\n    tag_149:\n      pop\n        /* \"Campaign_1751751092126.sol\":5091:5099  deadline */\n      sload(0x02)\n        /* \"Campaign_1751751092126.sol\":5072:5087  block.timestamp */\n      timestamp\n        /* \"Campaign_1751751092126.sol\":5072:5099  block.timestamp >= deadline */\n      lt\n      iszero\n        /* \"Campaign_1751751092126.sol\":5007:5107  function hasEnded() public view returns (bool) {... */\n      mload(0x40)\n        /* \"#utility.yul\":3358:3372   */\n      swap1\n      iszero\n        /* \"#utility.yul\":3351:3373   */\n      iszero\n        /* \"#utility.yul\":3333:3374   */\n      dup2\n      mstore\n        /* \"#utility.yul\":3321:3323   */\n      0x20\n        /* \"#utility.yul\":3306:3324   */\n      add\n        /* \"Campaign_1751751092126.sol\":5007:5107  function hasEnded() public view returns (bool) {... */\n      tag_46\n        /* \"#utility.yul\":3193:3380   */\n      jump\n        /* \"Campaign_1751751092126.sol\":669:742  mapping(address => mapping(address => uint256)) public tokenContributions */\n    tag_28:\n      callvalue\n      dup1\n      iszero\n      tag_154\n      jumpi\n      0x00\n      dup1\n      revert\n    tag_154:\n      pop\n      tag_42\n      tag_156\n      calldatasize\n      0x04\n      tag_147\n      jump\t// in\n    tag_156:\n      0x09\n      0x20\n      swap1\n      dup2\n      mstore\n      0x00\n      swap3\n      dup4\n      mstore\n      0x40\n      dup1\n      dup5\n      keccak256\n      swap1\n      swap2\n      mstore\n      swap1\n      dup3\n      mstore\n      swap1\n      keccak256\n      sload\n      dup2\n      jump\n        /* \"Campaign_1751751092126.sol\":454:477  address public flwToken */\n    tag_29:\n      callvalue\n      dup1\n      iszero\n      tag_159\n      jumpi\n      0x00\n      dup1\n      revert\n    tag_159:\n      pop\n      sload(0x03)\n      tag_49\n      swap1\n      sub(shl(0xa0, 0x01), 0x01)\n      and\n      dup2\n      jump\n        /* \"Campaign_1751751092126.sol\":2180:2482  function donateETH() public payable {... */\n    tag_40:\n        /* \"Campaign_1751751092126.sol\":2253:2261  deadline */\n      sload(0x02)\n        /* \"Campaign_1751751092126.sol\":2235:2250  block.timestamp */\n      timestamp\n        /* \"Campaign_1751751092126.sol\":2235:2261  block.timestamp < deadline */\n      lt\n        /* \"Campaign_1751751092126.sol\":2227:2280  require(block.timestamp < deadline, \"Campaign ended\") */\n      tag_164\n      jumpi\n      mload(0x40)\n      shl(0xe5, 0x461bcd)\n      dup2\n      mstore\n        /* \"#utility.yul\":3587:3589   */\n      0x20\n        /* \"Campaign_1751751092126.sol\":2227:2280  require(block.timestamp < deadline, \"Campaign ended\") */\n      0x04\n      dup3\n      add\n        /* \"#utility.yul\":3569:3590   */\n      mstore\n        /* \"#utility.yul\":3626:3628   */\n      0x0e\n        /* \"#utility.yul\":3606:3624   */\n      0x24\n      dup3\n      add\n        /* \"#utility.yul\":3599:3629   */\n      mstore\n      shl(0x92, 0x10d85b5c185a59db88195b991959)\n        /* \"#utility.yul\":3645:3663   */\n      0x44\n      dup3\n      add\n        /* \"#utility.yul\":3638:3682   */\n      mstore\n        /* \"#utility.yul\":3699:3717   */\n      0x64\n      add\n        /* \"Campaign_1751751092126.sol\":2227:2280  require(block.timestamp < deadline, \"Campaign ended\") */\n    tag_165:\n      mload(0x40)\n      dup1\n      swap2\n      sub\n      swap1\n      revert\n    tag_164:\n        /* \"Campaign_1751751092126.sol\":2311:2312  0 */\n      0x00\n        /* \"Campaign_1751751092126.sol\":2299:2308  msg.value */\n      callvalue\n        /* \"Campaign_1751751092126.sol\":2299:2312  msg.value > 0 */\n      gt\n        /* \"Campaign_1751751092126.sol\":2291:2328  require(msg.value > 0, \"No ETH sent\") */\n      tag_167\n      jumpi\n      mload(0x40)\n      shl(0xe5, 0x461bcd)\n      dup2\n      mstore\n        /* \"#utility.yul\":3930:3932   */\n      0x20\n        /* \"Campaign_1751751092126.sol\":2291:2328  require(msg.value > 0, \"No ETH sent\") */\n      0x04\n      dup3\n      add\n        /* \"#utility.yul\":3912:3933   */\n      mstore\n        /* \"#utility.yul\":3969:3971   */\n      0x0b\n        /* \"#utility.yul\":3949:3967   */\n      0x24\n      dup3\n      add\n        /* \"#utility.yul\":3942:3972   */\n      mstore\n        /* \"#utility.yul\":4008:4021   */\n      0x4e6f204554482073656e74000000000000000000000000000000000000000000\n        /* \"#utility.yul\":3988:4006   */\n      0x44\n      dup3\n      add\n        /* \"#utility.yul\":3981:4022   */\n      mstore\n        /* \"#utility.yul\":4039:4057   */\n      0x64\n      add\n        /* \"Campaign_1751751092126.sol\":2291:2328  require(msg.value > 0, \"No ETH sent\") */\n      tag_165\n        /* \"#utility.yul\":3728:4063   */\n      jump\n        /* \"Campaign_1751751092126.sol\":2291:2328  require(msg.value > 0, \"No ETH sent\") */\n    tag_167:\n        /* \"Campaign_1751751092126.sol\":2341:2352  uint256 fee */\n      0x00\n        /* \"Campaign_1751751092126.sol\":2373:2376  100 */\n      0x64\n        /* \"Campaign_1751751092126.sol\":2356:2369  msg.value * 2 */\n      tag_170\n        /* \"Campaign_1751751092126.sol\":2356:2365  msg.value */\n      callvalue\n        /* \"Campaign_1751751092126.sol\":2368:2369  2 */\n      0x02\n        /* \"Campaign_1751751092126.sol\":2356:2369  msg.value * 2 */\n      tag_171\n      jump\t// in\n    tag_170:\n        /* \"Campaign_1751751092126.sol\":2355:2376  (msg.value * 2) / 100 */\n      tag_172\n      swap2\n      swap1\n      tag_173\n      jump\t// in\n    tag_172:\n        /* \"Campaign_1751751092126.sol\":2341:2376  uint256 fee = (msg.value * 2) / 100 */\n      swap1\n      pop\n        /* \"Campaign_1751751092126.sol\":2413:2416  fee */\n      dup1\n        /* \"Campaign_1751751092126.sol\":2393:2409  ethFeesCollected */\n      0x0b\n      0x00\n        /* \"Campaign_1751751092126.sol\":2393:2416  ethFeesCollected += fee */\n      dup3\n      dup3\n      sload\n      tag_174\n      swap2\n      swap1\n      tag_175\n      jump\t// in\n    tag_174:\n      swap1\n      swap2\n      sstore\n      pop\n        /* \"Campaign_1751751092126.sol\":2459:2474  msg.value - fee */\n      tag_176\n      swap1\n      pop\n        /* \"Campaign_1751751092126.sol\":2471:2474  fee */\n      dup2\n        /* \"Campaign_1751751092126.sol\":2459:2468  msg.value */\n      callvalue\n        /* \"Campaign_1751751092126.sol\":2459:2474  msg.value - fee */\n      tag_177\n      jump\t// in\n    tag_176:\n        /* \"Campaign_1751751092126.sol\":2444:2454  msg.sender */\n      caller\n        /* \"Campaign_1751751092126.sol\":2427:2455  ethContributions[msg.sender] */\n      0x00\n      swap1\n      dup2\n      mstore\n        /* \"Campaign_1751751092126.sol\":2427:2443  ethContributions */\n      0x08\n        /* \"Campaign_1751751092126.sol\":2427:2455  ethContributions[msg.sender] */\n      0x20\n      mstore\n      0x40\n      dup2\n      keccak256\n        /* \"Campaign_1751751092126.sol\":2427:2474  ethContributions[msg.sender] += msg.value - fee */\n      dup1\n      sload\n        /* \"Campaign_1751751092126.sol\":2427:2455  ethContributions[msg.sender] */\n      swap1\n      swap2\n      swap1\n        /* \"Campaign_1751751092126.sol\":2427:2474  ethContributions[msg.sender] += msg.value - fee */\n      tag_178\n      swap1\n      dup5\n      swap1\n      tag_175\n      jump\t// in\n    tag_178:\n      swap1\n      swap2\n      sstore\n      pop\n      pop\n      pop\n        /* \"Campaign_1751751092126.sol\":2180:2482  function donateETH() public payable {... */\n      jump\t// out\n        /* \"Campaign_1751751092126.sol\":4408:4657  function postUpdate(string calldata message) external onlyOwner {... */\n    tag_57:\n        /* \"Campaign_1751751092126.sol\":1224:1229  owner */\n      and(sub(shl(0xa0, 0x01), 0x01), sload(0x00))\n        /* \"Campaign_1751751092126.sol\":1210:1220  msg.sender */\n      caller\n        /* \"Campaign_1751751092126.sol\":1210:1229  msg.sender == owner */\n      eq\n        /* \"Campaign_1751751092126.sol\":1202:1243  require(msg.sender == owner, \"Not owner\") */\n      tag_180\n      jumpi\n      mload(0x40)\n      shl(0xe5, 0x461bcd)\n      dup2\n      mstore\n        /* \"#utility.yul\":5060:5062   */\n      0x20\n        /* \"Campaign_1751751092126.sol\":1202:1243  require(msg.sender == owner, \"Not owner\") */\n      0x04\n      dup3\n      add\n        /* \"#utility.yul\":5042:5063   */\n      mstore\n        /* \"#utility.yul\":5099:5100   */\n      0x09\n        /* \"#utility.yul\":5079:5097   */\n      0x24\n      dup3\n      add\n        /* \"#utility.yul\":5072:5101   */\n      mstore\n      shl(0xb9, 0x2737ba1037bbb732b9)\n        /* \"#utility.yul\":5117:5135   */\n      0x44\n      dup3\n      add\n        /* \"#utility.yul\":5110:5149   */\n      mstore\n        /* \"#utility.yul\":5166:5184   */\n      0x64\n      add\n        /* \"Campaign_1751751092126.sol\":1202:1243  require(msg.sender == owner, \"Not owner\") */\n      tag_165\n        /* \"#utility.yul\":4858:5190   */\n      jump\n        /* \"Campaign_1751751092126.sol\":1202:1243  require(msg.sender == owner, \"Not owner\") */\n    tag_180:\n        /* \"Campaign_1751751092126.sol\":4483:4490  updates */\n      0x0c\n        /* \"Campaign_1751751092126.sol\":4483:4507  updates.push(msg.sender) */\n      dup1\n      sload\n      0x01\n      dup2\n      dup2\n      add\n      swap1\n      swap3\n      sstore\n      0xdf6966c971051c3d54ec59162606531493a51404a002842f56009d7e5cf4a8c7\n      add\n      dup1\n      sload\n      0xffffffffffffffffffffffff0000000000000000000000000000000000000000\n      and\n        /* \"Campaign_1751751092126.sol\":4496:4506  msg.sender */\n      caller\n        /* \"Campaign_1751751092126.sol\":4483:4507  updates.push(msg.sender) */\n      or\n      swap1\n      sstore\n        /* \"Campaign_1751751092126.sol\":4518:4532  updateMessages */\n      0x0d\n        /* \"Campaign_1751751092126.sol\":4518:4546  updateMessages.push(message) */\n      dup1\n      sload\n      swap2\n      dup3\n      add\n      dup2\n      sstore\n      0x00\n      mstore\n      0xd7b6990105719101dabeb77144f2a3385c8033acd3af97e9423a695e81ad1eb5\n      add\n      tag_186\n        /* \"Campaign_1751751092126.sol\":4538:4545  message */\n      dup3\n      dup5\n        /* \"Campaign_1751751092126.sol\":4518:4546  updateMessages.push(message) */\n      dup4\n      tag_187\n      jump\t// in\n    tag_186:\n      pop\n        /* \"Campaign_1751751092126.sol\":4557:4573  updateTimestamps */\n      0x0e\n        /* \"Campaign_1751751092126.sol\":4557:4595  updateTimestamps.push(block.timestamp) */\n      dup1\n      sload\n      0x01\n      dup2\n      add\n      dup3\n      sstore\n      0x00\n      swap2\n      swap1\n      swap2\n      mstore\n        /* \"Campaign_1751751092126.sol\":4579:4594  block.timestamp */\n      timestamp\n        /* \"Campaign_1751751092126.sol\":4557:4595  updateTimestamps.push(block.timestamp) */\n      0xbb7b4a454dc3493923482f07822329ed19e8244eff582cc204f8554c3620c3fd\n      swap1\n      swap2\n      add\n      dup2\n      swap1\n      sstore\n        /* \"Campaign_1751751092126.sol\":4611:4649  UpdatePosted(message, block.timestamp) */\n      mload(0x40)\n      0x795d961edbc9e83a9c6d46e7e54ae3be27574cfbc69a1eca98133687155c24b0\n      swap2\n      tag_189\n      swap2\n        /* \"Campaign_1751751092126.sol\":4624:4631  message */\n      dup6\n      swap2\n      dup6\n      swap2\n        /* \"Campaign_1751751092126.sol\":4611:4649  UpdatePosted(message, block.timestamp) */\n      tag_190\n      jump\t// in\n    tag_189:\n      mload(0x40)\n      dup1\n      swap2\n      sub\n      swap1\n      log1\n        /* \"Campaign_1751751092126.sol\":4408:4657  function postUpdate(string calldata message) external onlyOwner {... */\n      pop\n      pop\n      jump\t// out\n        /* \"Campaign_1751751092126.sol\":4778:4999  function getUpdate(uint256 index) external view returns (string memory, uint256) {... */\n    tag_66:\n        /* \"Campaign_1751751092126.sol\":4886:4900  updateMessages */\n      0x0d\n        /* \"Campaign_1751751092126.sol\":4886:4907  updateMessages.length */\n      sload\n        /* \"Campaign_1751751092126.sol\":4835:4848  string memory */\n      0x60\n      swap1\n        /* \"Campaign_1751751092126.sol\":4850:4857  uint256 */\n      0x00\n      swap1\n        /* \"Campaign_1751751092126.sol\":4878:4907  index < updateMessages.length */\n      dup4\n      lt\n        /* \"Campaign_1751751092126.sol\":4870:4925  require(index < updateMessages.length, \"Invalid index\") */\n      tag_192\n      jumpi\n      mload(0x40)\n      shl(0xe5, 0x461bcd)\n      dup2\n      mstore\n        /* \"#utility.yul\":8405:8407   */\n      0x20\n        /* \"Campaign_1751751092126.sol\":4870:4925  require(index < updateMessages.length, \"Invalid index\") */\n      0x04\n      dup3\n      add\n        /* \"#utility.yul\":8387:8408   */\n      mstore\n        /* \"#utility.yul\":8444:8446   */\n      0x0d\n        /* \"#utility.yul\":8424:8442   */\n      0x24\n      dup3\n      add\n        /* \"#utility.yul\":8417:8447   */\n      mstore\n        /* \"#utility.yul\":8483:8498   */\n      0x496e76616c696420696e64657800000000000000000000000000000000000000\n        /* \"#utility.yul\":8463:8481   */\n      0x44\n      dup3\n      add\n        /* \"#utility.yul\":8456:8499   */\n      mstore\n        /* \"#utility.yul\":8516:8534   */\n      0x64\n      add\n        /* \"Campaign_1751751092126.sol\":4870:4925  require(index < updateMessages.length, \"Invalid index\") */\n      tag_165\n        /* \"#utility.yul\":8203:8540   */\n      jump\n        /* \"Campaign_1751751092126.sol\":4870:4925  require(index < updateMessages.length, \"Invalid index\") */\n    tag_192:\n        /* \"Campaign_1751751092126.sol\":4944:4958  updateMessages */\n      0x0d\n        /* \"Campaign_1751751092126.sol\":4959:4964  index */\n      dup4\n        /* \"Campaign_1751751092126.sol\":4944:4965  updateMessages[index] */\n      dup2\n      sload\n      dup2\n      lt\n      tag_196\n      jumpi\n      tag_196\n      tag_197\n      jump\t// in\n    tag_196:\n      swap1\n      0x00\n      mstore\n      keccak256(0x00, 0x20)\n      add\n        /* \"Campaign_1751751092126.sol\":4967:4983  updateTimestamps */\n      0x0e\n        /* \"Campaign_1751751092126.sol\":4984:4989  index */\n      dup5\n        /* \"Campaign_1751751092126.sol\":4967:4990  updateTimestamps[index] */\n      dup2\n      sload\n      dup2\n      lt\n      tag_200\n      jumpi\n      tag_200\n      tag_197\n      jump\t// in\n    tag_200:\n      swap1\n      0x00\n      mstore\n      keccak256(0x00, 0x20)\n      add\n      sload\n        /* \"Campaign_1751751092126.sol\":4936:4991  return (updateMessages[index], updateTimestamps[index]) */\n      dup2\n      dup1\n      sload\n      tag_202\n      swap1\n      tag_203\n      jump\t// in\n    tag_202:\n      dup1\n      0x1f\n      add\n      0x20\n      dup1\n      swap2\n      div\n      mul\n      0x20\n      add\n      mload(0x40)\n      swap1\n      dup2\n      add\n      0x40\n      mstore\n      dup1\n      swap3\n      swap2\n      swap1\n      dup2\n      dup2\n      mstore\n      0x20\n      add\n      dup3\n      dup1\n      sload\n      tag_204\n      swap1\n      tag_203\n      jump\t// in\n    tag_204:\n      dup1\n      iszero\n      tag_205\n      jumpi\n      dup1\n      0x1f\n      lt\n      tag_206\n      jumpi\n      0x0100\n      dup1\n      dup4\n      sload\n      div\n      mul\n      dup4\n      mstore\n      swap2\n      0x20\n      add\n      swap2\n      jump(tag_205)\n    tag_206:\n      dup3\n      add\n      swap2\n      swap1\n      0x00\n      mstore\n      keccak256(0x00, 0x20)\n      swap1\n    tag_207:\n      dup2\n      sload\n      dup2\n      mstore\n      swap1\n      0x01\n      add\n      swap1\n      0x20\n      add\n      dup1\n      dup4\n      gt\n      tag_207\n      jumpi\n      dup3\n      swap1\n      sub\n      0x1f\n      and\n      dup3\n      add\n      swap2\n    tag_205:\n      pop\n      pop\n      pop\n      pop\n      pop\n      swap2\n      pop\n      swap2\n      pop\n      swap2\n      pop\n        /* \"Campaign_1751751092126.sol\":4778:4999  function getUpdate(uint256 index) external view returns (string memory, uint256) {... */\n      swap2\n      pop\n      swap2\n      jump\t// out\n        /* \"Campaign_1751751092126.sol\":3040:3734  function withdraw() external onlyOwner {... */\n    tag_71:\n        /* \"Campaign_1751751092126.sol\":1224:1229  owner */\n      and(sub(shl(0xa0, 0x01), 0x01), sload(0x00))\n        /* \"Campaign_1751751092126.sol\":1210:1220  msg.sender */\n      caller\n        /* \"Campaign_1751751092126.sol\":1210:1229  msg.sender == owner */\n      eq\n        /* \"Campaign_1751751092126.sol\":1202:1243  require(msg.sender == owner, \"Not owner\") */\n      tag_209\n      jumpi\n      mload(0x40)\n      shl(0xe5, 0x461bcd)\n      dup2\n      mstore\n        /* \"#utility.yul\":5060:5062   */\n      0x20\n        /* \"Campaign_1751751092126.sol\":1202:1243  require(msg.sender == owner, \"Not owner\") */\n      0x04\n      dup3\n      add\n        /* \"#utility.yul\":5042:5063   */\n      mstore\n        /* \"#utility.yul\":5099:5100   */\n      0x09\n        /* \"#utility.yul\":5079:5097   */\n      0x24\n      dup3\n      add\n        /* \"#utility.yul\":5072:5101   */\n      mstore\n      shl(0xb9, 0x2737ba1037bbb732b9)\n        /* \"#utility.yul\":5117:5135   */\n      0x44\n      dup3\n      add\n        /* \"#utility.yul\":5110:5149   */\n      mstore\n        /* \"#utility.yul\":5166:5184   */\n      0x64\n      add\n        /* \"Campaign_1751751092126.sol\":1202:1243  require(msg.sender == owner, \"Not owner\") */\n      tag_165\n        /* \"#utility.yul\":4858:5190   */\n      jump\n        /* \"Campaign_1751751092126.sol\":1202:1243  require(msg.sender == owner, \"Not owner\") */\n    tag_209:\n        /* \"Campaign_1751751092126.sol\":3117:3125  deadline */\n      sload(0x02)\n        /* \"Campaign_1751751092126.sol\":3098:3113  block.timestamp */\n      timestamp\n        /* \"Campaign_1751751092126.sol\":3098:3125  block.timestamp >= deadline */\n      lt\n      iszero\n        /* \"Campaign_1751751092126.sol\":3090:3148  require(block.timestamp >= deadline, \"Campaign not ended\") */\n      tag_212\n      jumpi\n      mload(0x40)\n      shl(0xe5, 0x461bcd)\n      dup2\n      mstore\n        /* \"#utility.yul\":8879:8881   */\n      0x20\n        /* \"Campaign_1751751092126.sol\":3090:3148  require(block.timestamp >= deadline, \"Campaign not ended\") */\n      0x04\n      dup3\n      add\n        /* \"#utility.yul\":8861:8882   */\n      mstore\n        /* \"#utility.yul\":8918:8920   */\n      0x12\n        /* \"#utility.yul\":8898:8916   */\n      0x24\n      dup3\n      add\n        /* \"#utility.yul\":8891:8921   */\n      mstore\n        /* \"#utility.yul\":8957:8977   */\n      0x43616d706169676e206e6f7420656e6465640000000000000000000000000000\n        /* \"#utility.yul\":8937:8955   */\n      0x44\n      dup3\n      add\n        /* \"#utility.yul\":8930:8978   */\n      mstore\n        /* \"#utility.yul\":8995:9013   */\n      0x64\n      add\n        /* \"Campaign_1751751092126.sol\":3090:3148  require(block.timestamp >= deadline, \"Campaign not ended\") */\n      tag_165\n        /* \"#utility.yul\":8677:9019   */\n      jump\n        /* \"Campaign_1751751092126.sol\":3090:3148  require(block.timestamp >= deadline, \"Campaign not ended\") */\n    tag_212:\n        /* \"Campaign_1751751092126.sol\":3161:3179  uint256 ethBalance */\n      0x00\n        /* \"Campaign_1751751092126.sol\":3206:3222  ethFeesCollected */\n      sload(0x0b)\n        /* \"Campaign_1751751092126.sol\":3182:3203  address(this).balance */\n      selfbalance\n        /* \"Campaign_1751751092126.sol\":3182:3222  address(this).balance - ethFeesCollected */\n      tag_215\n      swap2\n      swap1\n      tag_177\n      jump\t// in\n    tag_215:\n        /* \"Campaign_1751751092126.sol\":3317:3325  flwToken */\n      and(sub(shl(0xa0, 0x01), 0x01), sload(0x03))\n        /* \"Campaign_1751751092126.sol\":3233:3251  uint256 flwBalance */\n      0x00\n        /* \"Campaign_1751751092126.sol\":3298:3326  tokenFeesCollected[flwToken] */\n      dup2\n      dup2\n      mstore\n        /* \"Campaign_1751751092126.sol\":3298:3316  tokenFeesCollected */\n      0x0a\n        /* \"Campaign_1751751092126.sol\":3298:3326  tokenFeesCollected[flwToken] */\n      0x20\n      mstore\n      0x40\n      dup1\n      dup3\n      keccak256\n      sload\n        /* \"Campaign_1751751092126.sol\":3254:3295  IERC20(flwToken).balanceOf(address(this)) */\n      swap1\n      mload\n      shl(0xe0, 0x70a08231)\n      dup2\n      mstore\n        /* \"Campaign_1751751092126.sol\":3289:3293  this */\n      address\n        /* \"Campaign_1751751092126.sol\":3254:3295  IERC20(flwToken).balanceOf(address(this)) */\n      0x04\n      dup3\n      add\n        /* \"#utility.yul\":734:808   */\n      mstore\n        /* \"Campaign_1751751092126.sol\":3161:3222  uint256 ethBalance = address(this).balance - ethFeesCollected */\n      swap4\n      swap5\n      pop\n        /* \"Campaign_1751751092126.sol\":3233:3251  uint256 flwBalance */\n      swap1\n      swap3\n        /* \"Campaign_1751751092126.sol\":3298:3326  tokenFeesCollected[flwToken] */\n      swap1\n      swap2\n        /* \"Campaign_1751751092126.sol\":3317:3325  flwToken */\n      swap1\n        /* \"Campaign_1751751092126.sol\":3254:3280  IERC20(flwToken).balanceOf */\n      0x70a08231\n      swap1\n        /* \"#utility.yul\":707:725   */\n      0x24\n      add\n        /* \"Campaign_1751751092126.sol\":3254:3295  IERC20(flwToken).balanceOf(address(this)) */\n      0x20\n      mload(0x40)\n      dup1\n      dup4\n      sub\n      dup2\n      dup7\n      gas\n      staticcall\n      iszero\n      dup1\n      iszero\n      tag_218\n      jumpi\n      returndatasize\n      0x00\n      dup1\n      returndatacopy\n      revert(0x00, returndatasize)\n    tag_218:\n      pop\n      pop\n      pop\n      pop\n      mload(0x40)\n      returndatasize\n      not(0x1f)\n      0x1f\n      dup3\n      add\n      and\n      dup3\n      add\n      dup1\n      0x40\n      mstore\n      pop\n      dup2\n      add\n      swap1\n      tag_219\n      swap2\n      swap1\n      tag_220\n      jump\t// in\n    tag_219:\n        /* \"Campaign_1751751092126.sol\":3254:3326  IERC20(flwToken).balanceOf(address(this)) - tokenFeesCollected[flwToken] */\n      tag_221\n      swap2\n      swap1\n      tag_177\n      jump\t// in\n    tag_221:\n        /* \"Campaign_1751751092126.sol\":3233:3326  uint256 flwBalance = IERC20(flwToken).balanceOf(address(this)) - tokenFeesCollected[flwToken] */\n      swap1\n      pop\n        /* \"Campaign_1751751092126.sol\":3354:3358  true */\n      0x01\n      dup1\n        /* \"Campaign_1751751092126.sol\":3405:3419  ethBalance > 0 */\n      dup4\n      iszero\n        /* \"Campaign_1751751092126.sol\":3401:3504  if (ethBalance > 0) {... */\n      tag_222\n      jumpi\n        /* \"Campaign_1751751092126.sol\":3458:3463  owner */\n      0x00\n      dup1\n      sload\n        /* \"Campaign_1751751092126.sol\":3450:3492  payable(owner).call{value: ethBalance}(\"\") */\n      mload(0x40)\n      sub(shl(0xa0, 0x01), 0x01)\n        /* \"Campaign_1751751092126.sol\":3458:3463  owner */\n      swap1\n      swap2\n      and\n      swap2\n        /* \"Campaign_1751751092126.sol\":3477:3487  ethBalance */\n      dup7\n      swap2\n        /* \"Campaign_1751751092126.sol\":3450:3492  payable(owner).call{value: ethBalance}(\"\") */\n      swap1\n      dup2\n        /* \"Campaign_1751751092126.sol\":3458:3463  owner */\n      dup2\n        /* \"Campaign_1751751092126.sol\":3450:3492  payable(owner).call{value: ethBalance}(\"\") */\n      dup2\n        /* \"Campaign_1751751092126.sol\":3477:3487  ethBalance */\n      dup6\n        /* \"Campaign_1751751092126.sol\":3458:3463  owner */\n      dup8\n        /* \"Campaign_1751751092126.sol\":3450:3492  payable(owner).call{value: ethBalance}(\"\") */\n      gas\n      call\n      swap3\n      pop\n      pop\n      pop\n      returndatasize\n      dup1\n      0x00\n      dup2\n      eq\n      tag_227\n      jumpi\n      mload(0x40)\n      swap2\n      pop\n      and(add(returndatasize, 0x3f), not(0x1f))\n      dup3\n      add\n      0x40\n      mstore\n      returndatasize\n      dup3\n      mstore\n      returndatasize\n      0x00\n      0x20\n      dup5\n      add\n      returndatacopy\n      jump(tag_226)\n    tag_227:\n      0x60\n      swap2\n      pop\n    tag_226:\n      pop\n        /* \"Campaign_1751751092126.sol\":3436:3492  (ethSent, ) = payable(owner).call{value: ethBalance}(\"\") */\n      swap1\n      swap3\n      pop\n      pop\n        /* \"Campaign_1751751092126.sol\":3401:3504  if (ethBalance > 0) {... */\n    tag_222:\n        /* \"Campaign_1751751092126.sol\":3520:3534  flwBalance > 0 */\n      dup3\n      iszero\n        /* \"Campaign_1751751092126.sol\":3516:3617  if (flwBalance > 0) {... */\n      tag_228\n      jumpi\n        /* \"Campaign_1751751092126.sol\":3568:3576  flwToken */\n      sload(0x03)\n      0x00\n        /* \"Campaign_1751751092126.sol\":3587:3592  owner */\n      sload\n        /* \"Campaign_1751751092126.sol\":3561:3605  IERC20(flwToken).transfer(owner, flwBalance) */\n      mload(0x40)\n      shl(0xe0, 0xa9059cbb)\n      dup2\n      mstore\n      sub(shl(0xa0, 0x01), 0x01)\n        /* \"Campaign_1751751092126.sol\":3587:3592  owner */\n      swap2\n      dup3\n      and\n        /* \"Campaign_1751751092126.sol\":3561:3605  IERC20(flwToken).transfer(owner, flwBalance) */\n      0x04\n      dup3\n      add\n        /* \"#utility.yul\":9597:9671   */\n      mstore\n        /* \"#utility.yul\":9687:9705   */\n      0x24\n      dup2\n      add\n        /* \"#utility.yul\":9680:9714   */\n      dup7\n      swap1\n      mstore\n        /* \"Campaign_1751751092126.sol\":3568:3576  flwToken */\n      swap2\n      and\n      swap1\n        /* \"Campaign_1751751092126.sol\":3561:3586  IERC20(flwToken).transfer */\n      0xa9059cbb\n      swap1\n        /* \"#utility.yul\":9570:9588   */\n      0x44\n      add\n        /* \"Campaign_1751751092126.sol\":3561:3605  IERC20(flwToken).transfer(owner, flwBalance) */\n      0x20\n      mload(0x40)\n      dup1\n      dup4\n      sub\n      dup2\n      0x00\n      dup8\n      gas\n      call\n      iszero\n      dup1\n      iszero\n      tag_232\n      jumpi\n      returndatasize\n      0x00\n      dup1\n      returndatacopy\n      revert(0x00, returndatasize)\n    tag_232:\n      pop\n      pop\n      pop\n      pop\n      mload(0x40)\n      returndatasize\n      not(0x1f)\n      0x1f\n      dup3\n      add\n      and\n      dup3\n      add\n      dup1\n      0x40\n      mstore\n      pop\n      dup2\n      add\n      swap1\n      tag_233\n      swap2\n      swap1\n      tag_234\n      jump\t// in\n    tag_233:\n        /* \"Campaign_1751751092126.sol\":3551:3605  flwSent = IERC20(flwToken).transfer(owner, flwBalance) */\n      swap1\n      pop\n        /* \"Campaign_1751751092126.sol\":3516:3617  if (flwBalance > 0) {... */\n    tag_228:\n        /* \"Campaign_1751751092126.sol\":3634:3667  WithdrawSuccess(ethSent, flwSent) */\n      0x40\n      dup1\n      mload\n        /* \"#utility.yul\":10194:10208   */\n      dup4\n      iszero\n        /* \"#utility.yul\":10187:10209   */\n      iszero\n        /* \"#utility.yul\":10169:10210   */\n      dup2\n      mstore\n        /* \"#utility.yul\":10253:10267   */\n      dup3\n      iszero\n        /* \"#utility.yul\":10246:10268   */\n      iszero\n        /* \"#utility.yul\":10241:10243   */\n      0x20\n        /* \"#utility.yul\":10226:10244   */\n      dup3\n      add\n        /* \"#utility.yul\":10219:10269   */\n      mstore\n        /* \"Campaign_1751751092126.sol\":3634:3667  WithdrawSuccess(ethSent, flwSent) */\n      0xedaf6307dd03cf2213c8cf4c3154d20dbf80b44bb80b206b6381109881db78e7\n      swap2\n        /* \"#utility.yul\":10142:10160   */\n      add\n        /* \"Campaign_1751751092126.sol\":3634:3667  WithdrawSuccess(ethSent, flwSent) */\n      mload(0x40)\n      dup1\n      swap2\n      sub\n      swap1\n      log1\n        /* \"Campaign_1751751092126.sol\":3686:3693  ethSent */\n      dup2\n        /* \"Campaign_1751751092126.sol\":3686:3704  ethSent || flwSent */\n      dup1\n      tag_237\n      jumpi\n      pop\n        /* \"Campaign_1751751092126.sol\":3697:3704  flwSent */\n      dup1\n        /* \"Campaign_1751751092126.sol\":3686:3704  ethSent || flwSent */\n    tag_237:\n        /* \"Campaign_1751751092126.sol\":3678:3726  require(ethSent || flwSent, \"Nothing withdrawn\") */\n      tag_238\n      jumpi\n      mload(0x40)\n      shl(0xe5, 0x461bcd)\n      dup2\n      mstore\n        /* \"#utility.yul\":10482:10484   */\n      0x20\n        /* \"Campaign_1751751092126.sol\":3678:3726  require(ethSent || flwSent, \"Nothing withdrawn\") */\n      0x04\n      dup3\n      add\n        /* \"#utility.yul\":10464:10485   */\n      mstore\n        /* \"#utility.yul\":10521:10523   */\n      0x11\n        /* \"#utility.yul\":10501:10519   */\n      0x24\n      dup3\n      add\n        /* \"#utility.yul\":10494:10524   */\n      mstore\n        /* \"#utility.yul\":10560:10579   */\n      0x4e6f7468696e672077697468647261776e000000000000000000000000000000\n        /* \"#utility.yul\":10540:10558   */\n      0x44\n      dup3\n      add\n        /* \"#utility.yul\":10533:10580   */\n      mstore\n        /* \"#utility.yul\":10597:10615   */\n      0x64\n      add\n        /* \"Campaign_1751751092126.sol\":3678:3726  require(ethSent || flwSent, \"Nothing withdrawn\") */\n      tag_165\n        /* \"#utility.yul\":10280:10621   */\n      jump\n        /* \"Campaign_1751751092126.sol\":3678:3726  require(ethSent || flwSent, \"Nothing withdrawn\") */\n    tag_238:\n        /* \"Campaign_1751751092126.sol\":3079:3734  {... */\n      pop\n      pop\n      pop\n      pop\n        /* \"Campaign_1751751092126.sol\":3040:3734  function withdraw() external onlyOwner {... */\n      jump\t// out\n        /* \"Campaign_1751751092126.sol\":522:541  string public title */\n    tag_78:\n      0x05\n      dup1\n      sload\n      tag_241\n      swap1\n      tag_203\n      jump\t// in\n    tag_241:\n      dup1\n      0x1f\n      add\n      0x20\n      dup1\n      swap2\n      div\n      mul\n      0x20\n      add\n      mload(0x40)\n      swap1\n      dup2\n      add\n      0x40\n      mstore\n      dup1\n      swap3\n      swap2\n      swap1\n      dup2\n      dup2\n      mstore\n      0x20\n      add\n      dup3\n      dup1\n      sload\n      tag_242\n      swap1\n      tag_203\n      jump\t// in\n    tag_242:\n      dup1\n      iszero\n      tag_243\n      jumpi\n      dup1\n      0x1f\n      lt\n      tag_244\n      jumpi\n      0x0100\n      dup1\n      dup4\n      sload\n      div\n      mul\n      dup4\n      mstore\n      swap2\n      0x20\n      add\n      swap2\n      jump(tag_243)\n    tag_244:\n      dup3\n      add\n      swap2\n      swap1\n      0x00\n      mstore\n      keccak256(0x00, 0x20)\n      swap1\n    tag_245:\n      dup2\n      sload\n      dup2\n      mstore\n      swap1\n      0x01\n      add\n      swap1\n      0x20\n      add\n      dup1\n      dup4\n      gt\n      tag_245\n      jumpi\n      dup3\n      swap1\n      sub\n      0x1f\n      and\n      dup3\n      add\n      swap2\n    tag_243:\n      pop\n      pop\n      pop\n      pop\n      pop\n      dup2\n      jump\t// out\n        /* \"Campaign_1751751092126.sol\":3742:3997  function collectETHFees(address to) public onlyOwner {... */\n    tag_84:\n        /* \"Campaign_1751751092126.sol\":1224:1229  owner */\n      and(sub(shl(0xa0, 0x01), 0x01), sload(0x00))\n        /* \"Campaign_1751751092126.sol\":1210:1220  msg.sender */\n      caller\n        /* \"Campaign_1751751092126.sol\":1210:1229  msg.sender == owner */\n      eq\n        /* \"Campaign_1751751092126.sol\":1202:1243  require(msg.sender == owner, \"Not owner\") */\n      tag_247\n      jumpi\n      mload(0x40)\n      shl(0xe5, 0x461bcd)\n      dup2\n      mstore\n        /* \"#utility.yul\":5060:5062   */\n      0x20\n        /* \"Campaign_1751751092126.sol\":1202:1243  require(msg.sender == owner, \"Not owner\") */\n      0x04\n      dup3\n      add\n        /* \"#utility.yul\":5042:5063   */\n      mstore\n        /* \"#utility.yul\":5099:5100   */\n      0x09\n        /* \"#utility.yul\":5079:5097   */\n      0x24\n      dup3\n      add\n        /* \"#utility.yul\":5072:5101   */\n      mstore\n      shl(0xb9, 0x2737ba1037bbb732b9)\n        /* \"#utility.yul\":5117:5135   */\n      0x44\n      dup3\n      add\n        /* \"#utility.yul\":5110:5149   */\n      mstore\n        /* \"#utility.yul\":5166:5184   */\n      0x64\n      add\n        /* \"Campaign_1751751092126.sol\":1202:1243  require(msg.sender == owner, \"Not owner\") */\n      tag_165\n        /* \"#utility.yul\":4858:5190   */\n      jump\n        /* \"Campaign_1751751092126.sol\":1202:1243  require(msg.sender == owner, \"Not owner\") */\n    tag_247:\n        /* \"Campaign_1751751092126.sol\":3823:3839  ethFeesCollected */\n      0x0b\n      dup1\n      sload\n        /* \"Campaign_1751751092126.sol\":3806:3820  uint256 amount */\n      0x00\n        /* \"Campaign_1751751092126.sol\":3850:3870  ethFeesCollected = 0 */\n      swap2\n      dup3\n      swap1\n      sstore\n        /* \"Campaign_1751751092126.sol\":3900:3935  payable(to).call{value: amount}(\"\") */\n      mload(0x40)\n        /* \"Campaign_1751751092126.sol\":3823:3839  ethFeesCollected */\n      swap1\n      swap2\n        /* \"Campaign_1751751092126.sol\":3806:3820  uint256 amount */\n      swap1\n      sub(shl(0xa0, 0x01), 0x01)\n        /* \"Campaign_1751751092126.sol\":3900:3916  payable(to).call */\n      dup5\n      and\n      swap1\n        /* \"Campaign_1751751092126.sol\":3823:3839  ethFeesCollected */\n      dup4\n      swap1\n        /* \"Campaign_1751751092126.sol\":3806:3820  uint256 amount */\n      dup4\n        /* \"Campaign_1751751092126.sol\":3900:3935  payable(to).call{value: amount}(\"\") */\n      dup2\n        /* \"Campaign_1751751092126.sol\":3806:3820  uint256 amount */\n      dup2\n        /* \"Campaign_1751751092126.sol\":3900:3935  payable(to).call{value: amount}(\"\") */\n      dup2\n        /* \"Campaign_1751751092126.sol\":3823:3839  ethFeesCollected */\n      dup6\n        /* \"Campaign_1751751092126.sol\":3900:3916  payable(to).call */\n      dup8\n        /* \"Campaign_1751751092126.sol\":3900:3935  payable(to).call{value: amount}(\"\") */\n      gas\n      call\n      swap3\n      pop\n      pop\n      pop\n      returndatasize\n      dup1\n      0x00\n      dup2\n      eq\n      tag_253\n      jumpi\n      mload(0x40)\n      swap2\n      pop\n      and(add(returndatasize, 0x3f), not(0x1f))\n      dup3\n      add\n      0x40\n      mstore\n      returndatasize\n      dup3\n      mstore\n      returndatasize\n      0x00\n      0x20\n      dup5\n      add\n      returndatacopy\n      jump(tag_252)\n    tag_253:\n      0x60\n      swap2\n      pop\n    tag_252:\n      pop\n        /* \"Campaign_1751751092126.sol\":3881:3935  (bool success, ) = payable(to).call{value: amount}(\"\") */\n      pop\n      swap1\n      pop\n        /* \"Campaign_1751751092126.sol\":3954:3961  success */\n      dup1\n        /* \"Campaign_1751751092126.sol\":3946:3989  require(success, \"ETH fee transfer failed\") */\n      tag_254\n      jumpi\n      mload(0x40)\n      shl(0xe5, 0x461bcd)\n      dup2\n      mstore\n        /* \"#utility.yul\":10828:10830   */\n      0x20\n        /* \"Campaign_1751751092126.sol\":3946:3989  require(success, \"ETH fee transfer failed\") */\n      0x04\n      dup3\n      add\n        /* \"#utility.yul\":10810:10831   */\n      mstore\n        /* \"#utility.yul\":10867:10869   */\n      0x17\n        /* \"#utility.yul\":10847:10865   */\n      0x24\n      dup3\n      add\n        /* \"#utility.yul\":10840:10870   */\n      mstore\n        /* \"#utility.yul\":10906:10931   */\n      0x45544820666565207472616e73666572206661696c6564000000000000000000\n        /* \"#utility.yul\":10886:10904   */\n      0x44\n      dup3\n      add\n        /* \"#utility.yul\":10879:10932   */\n      mstore\n        /* \"#utility.yul\":10949:10967   */\n      0x64\n      add\n        /* \"Campaign_1751751092126.sol\":3946:3989  require(success, \"ETH fee transfer failed\") */\n      tag_165\n        /* \"#utility.yul\":10626:10973   */\n      jump\n        /* \"Campaign_1751751092126.sol\":3946:3989  require(success, \"ETH fee transfer failed\") */\n    tag_254:\n        /* \"Campaign_1751751092126.sol\":3795:3997  {... */\n      pop\n      pop\n        /* \"Campaign_1751751092126.sol\":3742:3997  function collectETHFees(address to) public onlyOwner {... */\n      pop\n      jump\t// out\n        /* \"Campaign_1751751092126.sol\":2490:3032  function donateToken(address token, uint256 amount) external {... */\n    tag_89:\n        /* \"Campaign_1751751092126.sol\":2588:2596  deadline */\n      sload(0x02)\n        /* \"Campaign_1751751092126.sol\":2570:2585  block.timestamp */\n      timestamp\n        /* \"Campaign_1751751092126.sol\":2570:2596  block.timestamp < deadline */\n      lt\n        /* \"Campaign_1751751092126.sol\":2562:2615  require(block.timestamp < deadline, \"Campaign ended\") */\n      tag_258\n      jumpi\n      mload(0x40)\n      shl(0xe5, 0x461bcd)\n      dup2\n      mstore\n        /* \"#utility.yul\":3587:3589   */\n      0x20\n        /* \"Campaign_1751751092126.sol\":2562:2615  require(block.timestamp < deadline, \"Campaign ended\") */\n      0x04\n      dup3\n      add\n        /* \"#utility.yul\":3569:3590   */\n      mstore\n        /* \"#utility.yul\":3626:3628   */\n      0x0e\n        /* \"#utility.yul\":3606:3624   */\n      0x24\n      dup3\n      add\n        /* \"#utility.yul\":3599:3629   */\n      mstore\n      shl(0x92, 0x10d85b5c185a59db88195b991959)\n        /* \"#utility.yul\":3645:3663   */\n      0x44\n      dup3\n      add\n        /* \"#utility.yul\":3638:3682   */\n      mstore\n        /* \"#utility.yul\":3699:3717   */\n      0x64\n      add\n        /* \"Campaign_1751751092126.sol\":2562:2615  require(block.timestamp < deadline, \"Campaign ended\") */\n      tag_165\n        /* \"#utility.yul\":3385:3723   */\n      jump\n        /* \"Campaign_1751751092126.sol\":2562:2615  require(block.timestamp < deadline, \"Campaign ended\") */\n    tag_258:\n        /* \"Campaign_1751751092126.sol\":2643:2644  0 */\n      0x00\n        /* \"Campaign_1751751092126.sol\":2634:2640  amount */\n      dup2\n        /* \"Campaign_1751751092126.sol\":2634:2644  amount > 0 */\n      gt\n        /* \"Campaign_1751751092126.sol\":2626:2663  require(amount > 0, \"No tokens sent\") */\n      tag_260\n      jumpi\n      mload(0x40)\n      shl(0xe5, 0x461bcd)\n      dup2\n      mstore\n        /* \"#utility.yul\":11180:11182   */\n      0x20\n        /* \"Campaign_1751751092126.sol\":2626:2663  require(amount > 0, \"No tokens sent\") */\n      0x04\n      dup3\n      add\n        /* \"#utility.yul\":11162:11183   */\n      mstore\n        /* \"#utility.yul\":11219:11221   */\n      0x0e\n        /* \"#utility.yul\":11199:11217   */\n      0x24\n      dup3\n      add\n        /* \"#utility.yul\":11192:11222   */\n      mstore\n        /* \"#utility.yul\":11258:11274   */\n      0x4e6f20746f6b656e732073656e74000000000000000000000000000000000000\n        /* \"#utility.yul\":11238:11256   */\n      0x44\n      dup3\n      add\n        /* \"#utility.yul\":11231:11275   */\n      mstore\n        /* \"#utility.yul\":11292:11310   */\n      0x64\n      add\n        /* \"Campaign_1751751092126.sol\":2626:2663  require(amount > 0, \"No tokens sent\") */\n      tag_165\n        /* \"#utility.yul\":10978:11316   */\n      jump\n        /* \"Campaign_1751751092126.sol\":2626:2663  require(amount > 0, \"No tokens sent\") */\n    tag_260:\n        /* \"Campaign_1751751092126.sol\":2700:2708  flwToken */\n      sload(0x03)\n        /* \"Campaign_1751751092126.sol\":2676:2687  uint256 fee */\n      0x00\n      swap1\n      sub(shl(0xa0, 0x01), 0x01)\n        /* \"Campaign_1751751092126.sol\":2691:2708  token == flwToken */\n      dup5\n      dup2\n      and\n        /* \"Campaign_1751751092126.sol\":2700:2708  flwToken */\n      swap2\n      and\n        /* \"Campaign_1751751092126.sol\":2691:2708  token == flwToken */\n      eq\n        /* \"Campaign_1751751092126.sol\":2690:2752  (token == flwToken) ? (amount * 5) / 1000 : (amount * 2) / 100 */\n      tag_263\n      jumpi\n        /* \"Campaign_1751751092126.sol\":2749:2752  100 */\n      0x64\n        /* \"Campaign_1751751092126.sol\":2735:2745  amount * 2 */\n      tag_264\n        /* \"Campaign_1751751092126.sol\":2735:2741  amount */\n      dup4\n        /* \"Campaign_1751751092126.sol\":2744:2745  2 */\n      0x02\n        /* \"Campaign_1751751092126.sol\":2735:2745  amount * 2 */\n      tag_171\n      jump\t// in\n    tag_264:\n        /* \"Campaign_1751751092126.sol\":2734:2752  (amount * 2) / 100 */\n      tag_265\n      swap2\n      swap1\n      tag_173\n      jump\t// in\n    tag_265:\n        /* \"Campaign_1751751092126.sol\":2690:2752  (token == flwToken) ? (amount * 5) / 1000 : (amount * 2) / 100 */\n      jump(tag_268)\n    tag_263:\n        /* \"Campaign_1751751092126.sol\":2727:2731  1000 */\n      0x03e8\n        /* \"Campaign_1751751092126.sol\":2713:2723  amount * 5 */\n      tag_267\n        /* \"Campaign_1751751092126.sol\":2713:2719  amount */\n      dup4\n        /* \"Campaign_1751751092126.sol\":2722:2723  5 */\n      0x05\n        /* \"Campaign_1751751092126.sol\":2713:2723  amount * 5 */\n      tag_171\n      jump\t// in\n    tag_267:\n        /* \"Campaign_1751751092126.sol\":2712:2731  (amount * 5) / 1000 */\n      tag_268\n      swap2\n      swap1\n      tag_173\n      jump\t// in\n    tag_268:\n        /* \"Campaign_1751751092126.sol\":2676:2752  uint256 fee = (token == flwToken) ? (amount * 5) / 1000 : (amount * 2) / 100 */\n      swap1\n      pop\n        /* \"Campaign_1751751092126.sol\":2786:2803  uint256 netAmount */\n      0x00\n        /* \"Campaign_1751751092126.sol\":2806:2818  amount - fee */\n      tag_269\n        /* \"Campaign_1751751092126.sol\":2676:2752  uint256 fee = (token == flwToken) ? (amount * 5) / 1000 : (amount * 2) / 100 */\n      dup3\n        /* \"Campaign_1751751092126.sol\":2806:2812  amount */\n      dup5\n        /* \"Campaign_1751751092126.sol\":2806:2818  amount - fee */\n      tag_177\n      jump\t// in\n    tag_269:\n        /* \"Campaign_1751751092126.sol\":2839:2900  IERC20(token).transferFrom(msg.sender, address(this), amount) */\n      mload(0x40)\n      shl(0xe0, 0x23b872dd)\n      dup2\n      mstore\n        /* \"Campaign_1751751092126.sol\":2866:2876  msg.sender */\n      caller\n        /* \"Campaign_1751751092126.sol\":2839:2900  IERC20(token).transferFrom(msg.sender, address(this), amount) */\n      0x04\n      dup3\n      add\n        /* \"#utility.yul\":11584:11618   */\n      mstore\n        /* \"Campaign_1751751092126.sol\":2886:2890  this */\n      address\n        /* \"#utility.yul\":11634:11652   */\n      0x24\n      dup3\n      add\n        /* \"#utility.yul\":11627:11670   */\n      mstore\n        /* \"#utility.yul\":11686:11704   */\n      0x44\n      dup2\n      add\n        /* \"#utility.yul\":11679:11713   */\n      dup6\n      swap1\n      mstore\n        /* \"Campaign_1751751092126.sol\":2786:2818  uint256 netAmount = amount - fee */\n      swap1\n      swap2\n      pop\n      sub(shl(0xa0, 0x01), 0x01)\n        /* \"Campaign_1751751092126.sol\":2839:2865  IERC20(token).transferFrom */\n      dup6\n      and\n      swap1\n      0x23b872dd\n      swap1\n        /* \"#utility.yul\":11496:11514   */\n      0x64\n      add\n        /* \"Campaign_1751751092126.sol\":2839:2900  IERC20(token).transferFrom(msg.sender, address(this), amount) */\n      0x20\n      mload(0x40)\n      dup1\n      dup4\n      sub\n      dup2\n      0x00\n      dup8\n      gas\n      call\n      iszero\n      dup1\n      iszero\n      tag_273\n      jumpi\n      returndatasize\n      0x00\n      dup1\n      returndatacopy\n      revert(0x00, returndatasize)\n    tag_273:\n      pop\n      pop\n      pop\n      pop\n      mload(0x40)\n      returndatasize\n      not(0x1f)\n      0x1f\n      dup3\n      add\n      and\n      dup3\n      add\n      dup1\n      0x40\n      mstore\n      pop\n      dup2\n      add\n      swap1\n      tag_274\n      swap2\n      swap1\n      tag_234\n      jump\t// in\n    tag_274:\n        /* \"Campaign_1751751092126.sol\":2831:2920  require(IERC20(token).transferFrom(msg.sender, address(this), amount), \"Transfer failed\") */\n      tag_275\n      jumpi\n      mload(0x40)\n      shl(0xe5, 0x461bcd)\n      dup2\n      mstore\n        /* \"#utility.yul\":11926:11928   */\n      0x20\n        /* \"Campaign_1751751092126.sol\":2831:2920  require(IERC20(token).transferFrom(msg.sender, address(this), amount), \"Transfer failed\") */\n      0x04\n      dup3\n      add\n        /* \"#utility.yul\":11908:11929   */\n      mstore\n        /* \"#utility.yul\":11965:11967   */\n      0x0f\n        /* \"#utility.yul\":11945:11963   */\n      0x24\n      dup3\n      add\n        /* \"#utility.yul\":11938:11968   */\n      mstore\n        /* \"#utility.yul\":12004:12021   */\n      0x5472616e73666572206661696c65640000000000000000000000000000000000\n        /* \"#utility.yul\":11984:12002   */\n      0x44\n      dup3\n      add\n        /* \"#utility.yul\":11977:12022   */\n      mstore\n        /* \"#utility.yul\":12039:12057   */\n      0x64\n      add\n        /* \"Campaign_1751751092126.sol\":2831:2920  require(IERC20(token).transferFrom(msg.sender, address(this), amount), \"Transfer failed\") */\n      tag_165\n        /* \"#utility.yul\":11724:12063   */\n      jump\n        /* \"Campaign_1751751092126.sol\":2831:2920  require(IERC20(token).transferFrom(msg.sender, address(this), amount), \"Transfer failed\") */\n    tag_275:\n      sub(shl(0xa0, 0x01), 0x01)\n        /* \"Campaign_1751751092126.sol\":2931:2956  tokenFeesCollected[token] */\n      dup5\n      and\n      0x00\n      swap1\n      dup2\n      mstore\n        /* \"Campaign_1751751092126.sol\":2931:2949  tokenFeesCollected */\n      0x0a\n        /* \"Campaign_1751751092126.sol\":2931:2956  tokenFeesCollected[token] */\n      0x20\n      mstore\n      0x40\n      dup2\n      keccak256\n        /* \"Campaign_1751751092126.sol\":2931:2963  tokenFeesCollected[token] += fee */\n      dup1\n      sload\n        /* \"Campaign_1751751092126.sol\":2960:2963  fee */\n      dup5\n      swap3\n        /* \"Campaign_1751751092126.sol\":2931:2956  tokenFeesCollected[token] */\n      swap1\n        /* \"Campaign_1751751092126.sol\":2931:2963  tokenFeesCollected[token] += fee */\n      tag_278\n      swap1\n        /* \"Campaign_1751751092126.sol\":2960:2963  fee */\n      dup5\n      swap1\n        /* \"Campaign_1751751092126.sol\":2931:2963  tokenFeesCollected[token] += fee */\n      tag_175\n      jump\t// in\n    tag_278:\n      swap1\n      swap2\n      sstore\n      pop\n      pop\n        /* \"Campaign_1751751092126.sol\":2993:3003  msg.sender */\n      caller\n        /* \"Campaign_1751751092126.sol\":2974:3004  tokenContributions[msg.sender] */\n      0x00\n      swap1\n      dup2\n      mstore\n        /* \"Campaign_1751751092126.sol\":2974:2992  tokenContributions */\n      0x09\n        /* \"Campaign_1751751092126.sol\":2974:3004  tokenContributions[msg.sender] */\n      0x20\n      swap1\n      dup2\n      mstore\n      0x40\n      dup1\n      dup4\n      keccak256\n      sub(shl(0xa0, 0x01), 0x01)\n        /* \"Campaign_1751751092126.sol\":2974:3011  tokenContributions[msg.sender][token] */\n      dup9\n      and\n      dup5\n      mstore\n      swap1\n      swap2\n      mstore\n      dup2\n      keccak256\n        /* \"Campaign_1751751092126.sol\":2974:3024  tokenContributions[msg.sender][token] += netAmount */\n      dup1\n      sload\n        /* \"Campaign_1751751092126.sol\":3015:3024  netAmount */\n      dup4\n      swap3\n        /* \"Campaign_1751751092126.sol\":2974:3004  tokenContributions[msg.sender] */\n      swap1\n        /* \"Campaign_1751751092126.sol\":2974:3024  tokenContributions[msg.sender][token] += netAmount */\n      tag_279\n      swap1\n        /* \"Campaign_1751751092126.sol\":3015:3024  netAmount */\n      dup5\n      swap1\n        /* \"Campaign_1751751092126.sol\":2974:3024  tokenContributions[msg.sender][token] += netAmount */\n      tag_175\n      jump\t// in\n    tag_279:\n      swap1\n      swap2\n      sstore\n      pop\n      pop\n      pop\n      pop\n      pop\n      pop\n        /* \"Campaign_1751751092126.sol\":2490:3032  function donateToken(address token, uint256 amount) external {... */\n      jump\t// out\n        /* \"Campaign_1751751092126.sol\":548:573  string public description */\n    tag_97:\n      0x06\n      dup1\n      sload\n      tag_241\n      swap1\n      tag_203\n      jump\t// in\n        /* \"Campaign_1751751092126.sol\":4267:4400  function collectAllFees(address to) external onlyOwner {... */\n    tag_102:\n        /* \"Campaign_1751751092126.sol\":1224:1229  owner */\n      and(sub(shl(0xa0, 0x01), 0x01), sload(0x00))\n        /* \"Campaign_1751751092126.sol\":1210:1220  msg.sender */\n      caller\n        /* \"Campaign_1751751092126.sol\":1210:1229  msg.sender == owner */\n      eq\n        /* \"Campaign_1751751092126.sol\":1202:1243  require(msg.sender == owner, \"Not owner\") */\n      tag_287\n      jumpi\n      mload(0x40)\n      shl(0xe5, 0x461bcd)\n      dup2\n      mstore\n        /* \"#utility.yul\":5060:5062   */\n      0x20\n        /* \"Campaign_1751751092126.sol\":1202:1243  require(msg.sender == owner, \"Not owner\") */\n      0x04\n      dup3\n      add\n        /* \"#utility.yul\":5042:5063   */\n      mstore\n        /* \"#utility.yul\":5099:5100   */\n      0x09\n        /* \"#utility.yul\":5079:5097   */\n      0x24\n      dup3\n      add\n        /* \"#utility.yul\":5072:5101   */\n      mstore\n      shl(0xb9, 0x2737ba1037bbb732b9)\n        /* \"#utility.yul\":5117:5135   */\n      0x44\n      dup3\n      add\n        /* \"#utility.yul\":5110:5149   */\n      mstore\n        /* \"#utility.yul\":5166:5184   */\n      0x64\n      add\n        /* \"Campaign_1751751092126.sol\":1202:1243  require(msg.sender == owner, \"Not owner\") */\n      tag_165\n        /* \"#utility.yul\":4858:5190   */\n      jump\n        /* \"Campaign_1751751092126.sol\":1202:1243  require(msg.sender == owner, \"Not owner\") */\n    tag_287:\n        /* \"Campaign_1751751092126.sol\":4333:4351  collectETHFees(to) */\n      tag_290\n        /* \"Campaign_1751751092126.sol\":4348:4350  to */\n      dup2\n        /* \"Campaign_1751751092126.sol\":4333:4347  collectETHFees */\n      tag_84\n        /* \"Campaign_1751751092126.sol\":4333:4351  collectETHFees(to) */\n      jump\t// in\n    tag_290:\n        /* \"Campaign_1751751092126.sol\":4379:4387  flwToken */\n      sload(0x03)\n        /* \"Campaign_1751751092126.sol\":4362:4392  collectTokenFees(flwToken, to) */\n      tag_291\n      swap1\n      sub(shl(0xa0, 0x01), 0x01)\n        /* \"Campaign_1751751092126.sol\":4379:4387  flwToken */\n      and\n        /* \"Campaign_1751751092126.sol\":4389:4391  to */\n      dup3\n        /* \"Campaign_1751751092126.sol\":4362:4378  collectTokenFees */\n      tag_148\n        /* \"Campaign_1751751092126.sol\":4362:4392  collectTokenFees(flwToken, to) */\n      jump\t// in\n    tag_291:\n        /* \"Campaign_1751751092126.sol\":4267:4400  function collectAllFees(address to) external onlyOwner {... */\n      pop\n      jump\t// out\n        /* \"Campaign_1751751092126.sol\":5177:5435  function getWithdrawableAmount() public view returns (uint256 ethAmount, uint256 flwAmount) {... */\n    tag_110:\n        /* \"Campaign_1751751092126.sol\":5231:5248  uint256 ethAmount */\n      0x00\n        /* \"Campaign_1751751092126.sol\":5250:5267  uint256 flwAmount */\n      dup1\n        /* \"Campaign_1751751092126.sol\":5316:5332  ethFeesCollected */\n      sload(0x0b)\n        /* \"Campaign_1751751092126.sol\":5292:5313  address(this).balance */\n      selfbalance\n        /* \"Campaign_1751751092126.sol\":5292:5332  address(this).balance - ethFeesCollected */\n      tag_293\n      swap2\n      swap1\n      tag_177\n      jump\t// in\n    tag_293:\n        /* \"Campaign_1751751092126.sol\":5418:5426  flwToken */\n      and(sub(shl(0xa0, 0x01), 0x01), sload(0x03))\n        /* \"Campaign_1751751092126.sol\":5399:5427  tokenFeesCollected[flwToken] */\n      0x00\n      dup2\n      dup2\n      mstore\n        /* \"Campaign_1751751092126.sol\":5399:5417  tokenFeesCollected */\n      0x0a\n        /* \"Campaign_1751751092126.sol\":5399:5427  tokenFeesCollected[flwToken] */\n      0x20\n      mstore\n      0x40\n      swap1\n      dup2\n      swap1\n      keccak256\n      sload\n        /* \"Campaign_1751751092126.sol\":5355:5396  IERC20(flwToken).balanceOf(address(this)) */\n      swap1\n      mload\n      shl(0xe0, 0x70a08231)\n      dup2\n      mstore\n        /* \"Campaign_1751751092126.sol\":5390:5394  this */\n      address\n        /* \"Campaign_1751751092126.sol\":5355:5396  IERC20(flwToken).balanceOf(address(this)) */\n      0x04\n      dup3\n      add\n        /* \"#utility.yul\":734:808   */\n      mstore\n        /* \"Campaign_1751751092126.sol\":5280:5332  ethAmount = address(this).balance - ethFeesCollected */\n      swap3\n      swap5\n      pop\n        /* \"Campaign_1751751092126.sol\":5399:5427  tokenFeesCollected[flwToken] */\n      swap2\n        /* \"Campaign_1751751092126.sol\":5355:5381  IERC20(flwToken).balanceOf */\n      0x70a08231\n      swap1\n        /* \"#utility.yul\":707:725   */\n      0x24\n      add\n        /* \"Campaign_1751751092126.sol\":5355:5396  IERC20(flwToken).balanceOf(address(this)) */\n      0x20\n      mload(0x40)\n      dup1\n      dup4\n      sub\n      dup2\n      dup7\n      gas\n      staticcall\n      iszero\n      dup1\n      iszero\n      tag_296\n      jumpi\n      returndatasize\n      0x00\n      dup1\n      returndatacopy\n      revert(0x00, returndatasize)\n    tag_296:\n      pop\n      pop\n      pop\n      pop\n      mload(0x40)\n      returndatasize\n      not(0x1f)\n      0x1f\n      dup3\n      add\n      and\n      dup3\n      add\n      dup1\n      0x40\n      mstore\n      pop\n      dup2\n      add\n      swap1\n      tag_297\n      swap2\n      swap1\n      tag_220\n      jump\t// in\n    tag_297:\n        /* \"Campaign_1751751092126.sol\":5355:5427  IERC20(flwToken).balanceOf(address(this)) - tokenFeesCollected[flwToken] */\n      tag_298\n      swap2\n      swap1\n      tag_177\n      jump\t// in\n    tag_298:\n        /* \"Campaign_1751751092126.sol\":5343:5427  flwAmount = IERC20(flwToken).balanceOf(address(this)) - tokenFeesCollected[flwToken] */\n      swap1\n      pop\n        /* \"Campaign_1751751092126.sol\":5177:5435  function getWithdrawableAmount() public view returns (uint256 ethAmount, uint256 flwAmount) {... */\n      swap1\n      swap2\n      jump\t// out\n        /* \"Campaign_1751751092126.sol\":917:950  uint256[] public updateTimestamps */\n    tag_115:\n      0x0e\n      dup2\n      dup2\n      sload\n      dup2\n      lt\n      tag_299\n      jumpi\n      0x00\n      dup1\n      revert\n    tag_299:\n      0x00\n      swap2\n      dup3\n      mstore\n      0x20\n      swap1\n      swap2\n      keccak256\n      add\n      sload\n      swap1\n      pop\n      dup2\n      jump\t// out\n        /* \"Campaign_1751751092126.sol\":580:602  string public imageUrl */\n    tag_119:\n      0x07\n      dup1\n      sload\n      tag_241\n      swap1\n      tag_203\n      jump\t// in\n        /* \"Campaign_1751751092126.sol\":849:873  address[] public updates */\n    tag_124:\n      0x0c\n      dup2\n      dup2\n      sload\n      dup2\n      lt\n      tag_306\n      jumpi\n      0x00\n      dup1\n      revert\n    tag_306:\n      0x00\n      swap2\n      dup3\n      mstore\n      0x20\n      swap1\n      swap2\n      keccak256\n      add\n      sload\n      sub(shl(0xa0, 0x01), 0x01)\n      and\n      swap1\n      pop\n      dup2\n      jump\t// out\n        /* \"Campaign_1751751092126.sol\":880:910  string[] public updateMessages */\n    tag_129:\n      0x0d\n      dup2\n      dup2\n      sload\n      dup2\n      lt\n      tag_308\n      jumpi\n      0x00\n      dup1\n      revert\n    tag_308:\n      swap1\n      0x00\n      mstore\n      keccak256(0x00, 0x20)\n      add\n      0x00\n      swap2\n      pop\n      swap1\n      pop\n      dup1\n      sload\n      tag_241\n      swap1\n      tag_203\n      jump\t// in\n        /* \"Campaign_1751751092126.sol\":4005:4259  function collectTokenFees(address token, address to) public onlyOwner {... */\n    tag_148:\n        /* \"Campaign_1751751092126.sol\":1224:1229  owner */\n      and(sub(shl(0xa0, 0x01), 0x01), sload(0x00))\n        /* \"Campaign_1751751092126.sol\":1210:1220  msg.sender */\n      caller\n        /* \"Campaign_1751751092126.sol\":1210:1229  msg.sender == owner */\n      eq\n        /* \"Campaign_1751751092126.sol\":1202:1243  require(msg.sender == owner, \"Not owner\") */\n      tag_317\n      jumpi\n      mload(0x40)\n      shl(0xe5, 0x461bcd)\n      dup2\n      mstore\n        /* \"#utility.yul\":5060:5062   */\n      0x20\n        /* \"Campaign_1751751092126.sol\":1202:1243  require(msg.sender == owner, \"Not owner\") */\n      0x04\n      dup3\n      add\n        /* \"#utility.yul\":5042:5063   */\n      mstore\n        /* \"#utility.yul\":5099:5100   */\n      0x09\n        /* \"#utility.yul\":5079:5097   */\n      0x24\n      dup3\n      add\n        /* \"#utility.yul\":5072:5101   */\n      mstore\n      shl(0xb9, 0x2737ba1037bbb732b9)\n        /* \"#utility.yul\":5117:5135   */\n      0x44\n      dup3\n      add\n        /* \"#utility.yul\":5110:5149   */\n      mstore\n        /* \"#utility.yul\":5166:5184   */\n      0x64\n      add\n        /* \"Campaign_1751751092126.sol\":1202:1243  require(msg.sender == owner, \"Not owner\") */\n      tag_165\n        /* \"#utility.yul\":4858:5190   */\n      jump\n        /* \"Campaign_1751751092126.sol\":1202:1243  require(msg.sender == owner, \"Not owner\") */\n    tag_317:\n      sub(shl(0xa0, 0x01), 0x01)\n        /* \"Campaign_1751751092126.sol\":4103:4128  tokenFeesCollected[token] */\n      dup3\n      dup2\n      and\n        /* \"Campaign_1751751092126.sol\":4086:4100  uint256 amount */\n      0x00\n        /* \"Campaign_1751751092126.sol\":4103:4128  tokenFeesCollected[token] */\n      dup2\n      dup2\n      mstore\n        /* \"Campaign_1751751092126.sol\":4103:4121  tokenFeesCollected */\n      0x0a\n        /* \"Campaign_1751751092126.sol\":4103:4128  tokenFeesCollected[token] */\n      0x20\n      mstore\n      0x40\n      dup1\n      dup3\n      keccak256\n      dup1\n      sload\n        /* \"Campaign_1751751092126.sol\":4139:4168  tokenFeesCollected[token] = 0 */\n      swap3\n      swap1\n      sstore\n        /* \"Campaign_1751751092126.sol\":4187:4221  IERC20(token).transfer(to, amount) */\n      mload\n      shl(0xe0, 0xa9059cbb)\n      dup2\n      mstore\n        /* \"#utility.yul\":9615:9670   */\n      swap3\n      dup5\n      and\n        /* \"Campaign_1751751092126.sol\":4187:4221  IERC20(token).transfer(to, amount) */\n      0x04\n      dup5\n      add\n        /* \"#utility.yul\":9597:9671   */\n      mstore\n        /* \"#utility.yul\":9687:9705   */\n      0x24\n      dup4\n      add\n        /* \"#utility.yul\":9680:9714   */\n      dup2\n      swap1\n      mstore\n        /* \"Campaign_1751751092126.sol\":4103:4128  tokenFeesCollected[token] */\n      swap2\n        /* \"Campaign_1751751092126.sol\":4187:4209  IERC20(token).transfer */\n      0xa9059cbb\n      swap1\n        /* \"#utility.yul\":9570:9588   */\n      0x44\n      add\n        /* \"Campaign_1751751092126.sol\":4187:4221  IERC20(token).transfer(to, amount) */\n      0x20\n      mload(0x40)\n      dup1\n      dup4\n      sub\n      dup2\n      0x00\n      dup8\n      gas\n      call\n      iszero\n      dup1\n      iszero\n      tag_322\n      jumpi\n      returndatasize\n      0x00\n      dup1\n      returndatacopy\n      revert(0x00, returndatasize)\n    tag_322:\n      pop\n      pop\n      pop\n      pop\n      mload(0x40)\n      returndatasize\n      not(0x1f)\n      0x1f\n      dup3\n      add\n      and\n      dup3\n      add\n      dup1\n      0x40\n      mstore\n      pop\n      dup2\n      add\n      swap1\n      tag_323\n      swap2\n      swap1\n      tag_234\n      jump\t// in\n    tag_323:\n        /* \"Campaign_1751751092126.sol\":4179:4251  require(IERC20(token).transfer(to, amount), \"Token fee transfer failed\") */\n      tag_254\n      jumpi\n      mload(0x40)\n      shl(0xe5, 0x461bcd)\n      dup2\n      mstore\n        /* \"#utility.yul\":12270:12272   */\n      0x20\n        /* \"Campaign_1751751092126.sol\":4179:4251  require(IERC20(token).transfer(to, amount), \"Token fee transfer failed\") */\n      0x04\n      dup3\n      add\n        /* \"#utility.yul\":12252:12273   */\n      mstore\n        /* \"#utility.yul\":12309:12311   */\n      0x19\n        /* \"#utility.yul\":12289:12307   */\n      0x24\n      dup3\n      add\n        /* \"#utility.yul\":12282:12312   */\n      mstore\n        /* \"#utility.yul\":12348:12375   */\n      0x546f6b656e20666565207472616e73666572206661696c656400000000000000\n        /* \"#utility.yul\":12328:12346   */\n      0x44\n      dup3\n      add\n        /* \"#utility.yul\":12321:12376   */\n      mstore\n        /* \"#utility.yul\":12393:12411   */\n      0x64\n      add\n        /* \"Campaign_1751751092126.sol\":4179:4251  require(IERC20(token).transfer(to, amount), \"Token fee transfer failed\") */\n      tag_165\n        /* \"#utility.yul\":12068:12417   */\n      jump\n        /* \"#utility.yul\":14:210   */\n    tag_328:\n        /* \"#utility.yul\":82:102   */\n      dup1\n      calldataload\n      sub(shl(0xa0, 0x01), 0x01)\n        /* \"#utility.yul\":131:185   */\n      dup2\n      and\n        /* \"#utility.yul\":121:186   */\n      dup2\n      eq\n        /* \"#utility.yul\":111:204   */\n      tag_337\n      jumpi\n        /* \"#utility.yul\":200:201   */\n      0x00\n        /* \"#utility.yul\":197:198   */\n      dup1\n        /* \"#utility.yul\":190:202   */\n      revert\n        /* \"#utility.yul\":111:204   */\n    tag_337:\n        /* \"#utility.yul\":14:210   */\n      swap2\n      swap1\n      pop\n      jump\t// out\n        /* \"#utility.yul\":215:401   */\n    tag_44:\n        /* \"#utility.yul\":274:280   */\n      0x00\n        /* \"#utility.yul\":327:329   */\n      0x20\n        /* \"#utility.yul\":315:324   */\n      dup3\n        /* \"#utility.yul\":306:313   */\n      dup5\n        /* \"#utility.yul\":302:325   */\n      sub\n        /* \"#utility.yul\":298:330   */\n      slt\n        /* \"#utility.yul\":295:347   */\n      iszero\n      tag_339\n      jumpi\n        /* \"#utility.yul\":343:344   */\n      0x00\n        /* \"#utility.yul\":340:341   */\n      dup1\n        /* \"#utility.yul\":333:345   */\n      revert\n        /* \"#utility.yul\":295:347   */\n    tag_339:\n        /* \"#utility.yul\":366:395   */\n      tag_340\n        /* \"#utility.yul\":385:394   */\n      dup3\n        /* \"#utility.yul\":366:395   */\n      tag_328\n      jump\t// in\n    tag_340:\n        /* \"#utility.yul\":356:395   */\n      swap4\n        /* \"#utility.yul\":215:401   */\n      swap3\n      pop\n      pop\n      pop\n      jump\t// out\n        /* \"#utility.yul\":819:1411   */\n    tag_56:\n        /* \"#utility.yul\":890:896   */\n      0x00\n        /* \"#utility.yul\":898:904   */\n      dup1\n        /* \"#utility.yul\":951:953   */\n      0x20\n        /* \"#utility.yul\":939:948   */\n      dup4\n        /* \"#utility.yul\":930:937   */\n      dup6\n        /* \"#utility.yul\":926:949   */\n      sub\n        /* \"#utility.yul\":922:954   */\n      slt\n        /* \"#utility.yul\":919:971   */\n      iszero\n      tag_344\n      jumpi\n        /* \"#utility.yul\":967:968   */\n      0x00\n        /* \"#utility.yul\":964:965   */\n      dup1\n        /* \"#utility.yul\":957:969   */\n      revert\n        /* \"#utility.yul\":919:971   */\n    tag_344:\n        /* \"#utility.yul\":1007:1016   */\n      dup3\n        /* \"#utility.yul\":994:1017   */\n      calldataload\n        /* \"#utility.yul\":1036:1054   */\n      0xffffffffffffffff\n        /* \"#utility.yul\":1077:1079   */\n      dup1\n        /* \"#utility.yul\":1069:1075   */\n      dup3\n        /* \"#utility.yul\":1066:1080   */\n      gt\n        /* \"#utility.yul\":1063:1097   */\n      iszero\n      tag_345\n      jumpi\n        /* \"#utility.yul\":1093:1094   */\n      0x00\n        /* \"#utility.yul\":1090:1091   */\n      dup1\n        /* \"#utility.yul\":1083:1095   */\n      revert\n        /* \"#utility.yul\":1063:1097   */\n    tag_345:\n        /* \"#utility.yul\":1131:1137   */\n      dup2\n        /* \"#utility.yul\":1120:1129   */\n      dup6\n        /* \"#utility.yul\":1116:1138   */\n      add\n        /* \"#utility.yul\":1106:1138   */\n      swap2\n      pop\n        /* \"#utility.yul\":1176:1183   */\n      dup6\n        /* \"#utility.yul\":1169:1173   */\n      0x1f\n        /* \"#utility.yul\":1165:1167   */\n      dup4\n        /* \"#utility.yul\":1161:1174   */\n      add\n        /* \"#utility.yul\":1157:1184   */\n      slt\n        /* \"#utility.yul\":1147:1202   */\n      tag_346\n      jumpi\n        /* \"#utility.yul\":1198:1199   */\n      0x00\n        /* \"#utility.yul\":1195:1196   */\n      dup1\n        /* \"#utility.yul\":1188:1200   */\n      revert\n        /* \"#utility.yul\":1147:1202   */\n    tag_346:\n        /* \"#utility.yul\":1238:1240   */\n      dup2\n        /* \"#utility.yul\":1225:1241   */\n      calldataload\n        /* \"#utility.yul\":1264:1266   */\n      dup2\n        /* \"#utility.yul\":1256:1262   */\n      dup2\n        /* \"#utility.yul\":1253:1267   */\n      gt\n        /* \"#utility.yul\":1250:1284   */\n      iszero\n      tag_347\n      jumpi\n        /* \"#utility.yul\":1280:1281   */\n      0x00\n        /* \"#utility.yul\":1277:1278   */\n      dup1\n        /* \"#utility.yul\":1270:1282   */\n      revert\n        /* \"#utility.yul\":1250:1284   */\n    tag_347:\n        /* \"#utility.yul\":1325:1332   */\n      dup7\n        /* \"#utility.yul\":1320:1322   */\n      0x20\n        /* \"#utility.yul\":1311:1317   */\n      dup3\n        /* \"#utility.yul\":1307:1309   */\n      dup6\n        /* \"#utility.yul\":1303:1318   */\n      add\n        /* \"#utility.yul\":1299:1323   */\n      add\n        /* \"#utility.yul\":1296:1333   */\n      gt\n        /* \"#utility.yul\":1293:1350   */\n      iszero\n      tag_348\n      jumpi\n        /* \"#utility.yul\":1346:1347   */\n      0x00\n        /* \"#utility.yul\":1343:1344   */\n      dup1\n        /* \"#utility.yul\":1336:1348   */\n      revert\n        /* \"#utility.yul\":1293:1350   */\n    tag_348:\n        /* \"#utility.yul\":1377:1379   */\n      0x20\n        /* \"#utility.yul\":1369:1380   */\n      swap3\n      swap1\n      swap3\n      add\n      swap7\n        /* \"#utility.yul\":1399:1405   */\n      swap2\n      swap6\n      pop\n        /* \"#utility.yul\":819:1411   */\n      swap1\n      swap4\n      pop\n      pop\n      pop\n      pop\n      jump\t// out\n        /* \"#utility.yul\":1416:1596   */\n    tag_65:\n        /* \"#utility.yul\":1475:1481   */\n      0x00\n        /* \"#utility.yul\":1528:1530   */\n      0x20\n        /* \"#utility.yul\":1516:1525   */\n      dup3\n        /* \"#utility.yul\":1507:1514   */\n      dup5\n        /* \"#utility.yul\":1503:1526   */\n      sub\n        /* \"#utility.yul\":1499:1531   */\n      slt\n        /* \"#utility.yul\":1496:1548   */\n      iszero\n      tag_350\n      jumpi\n        /* \"#utility.yul\":1544:1545   */\n      0x00\n        /* \"#utility.yul\":1541:1542   */\n      dup1\n        /* \"#utility.yul\":1534:1546   */\n      revert\n        /* \"#utility.yul\":1496:1548   */\n    tag_350:\n      pop\n        /* \"#utility.yul\":1567:1590   */\n      calldataload\n      swap2\n        /* \"#utility.yul\":1416:1596   */\n      swap1\n      pop\n      jump\t// out\n        /* \"#utility.yul\":1601:1890   */\n    tag_329:\n        /* \"#utility.yul\":1643:1646   */\n      0x00\n        /* \"#utility.yul\":1681:1686   */\n      dup2\n        /* \"#utility.yul\":1675:1687   */\n      mload\n        /* \"#utility.yul\":1708:1714   */\n      dup1\n        /* \"#utility.yul\":1703:1706   */\n      dup5\n        /* \"#utility.yul\":1696:1715   */\n      mstore\n        /* \"#utility.yul\":1764:1770   */\n      dup1\n        /* \"#utility.yul\":1757:1761   */\n      0x20\n        /* \"#utility.yul\":1750:1755   */\n      dup5\n        /* \"#utility.yul\":1746:1762   */\n      add\n        /* \"#utility.yul\":1739:1743   */\n      0x20\n        /* \"#utility.yul\":1734:1737   */\n      dup7\n        /* \"#utility.yul\":1730:1744   */\n      add\n        /* \"#utility.yul\":1724:1771   */\n      mcopy\n        /* \"#utility.yul\":1816:1817   */\n      0x00\n        /* \"#utility.yul\":1809:1813   */\n      0x20\n        /* \"#utility.yul\":1800:1806   */\n      dup3\n        /* \"#utility.yul\":1795:1798   */\n      dup7\n        /* \"#utility.yul\":1791:1807   */\n      add\n        /* \"#utility.yul\":1787:1814   */\n      add\n        /* \"#utility.yul\":1780:1818   */\n      mstore\n        /* \"#utility.yul\":1879:1883   */\n      0x20\n        /* \"#utility.yul\":1872:1874   */\n      0x1f\n        /* \"#utility.yul\":1868:1875   */\n      not\n        /* \"#utility.yul\":1863:1865   */\n      0x1f\n        /* \"#utility.yul\":1855:1861   */\n      dup4\n        /* \"#utility.yul\":1851:1866   */\n      add\n        /* \"#utility.yul\":1847:1876   */\n      and\n        /* \"#utility.yul\":1842:1845   */\n      dup6\n        /* \"#utility.yul\":1838:1877   */\n      add\n        /* \"#utility.yul\":1834:1884   */\n      add\n        /* \"#utility.yul\":1827:1884   */\n      swap2\n      pop\n      pop\n        /* \"#utility.yul\":1601:1890   */\n      swap3\n      swap2\n      pop\n      pop\n      jump\t// out\n        /* \"#utility.yul\":1895:2186   */\n    tag_68:\n        /* \"#utility.yul\":2072:2074   */\n      0x40\n        /* \"#utility.yul\":2061:2070   */\n      dup2\n        /* \"#utility.yul\":2054:2075   */\n      mstore\n        /* \"#utility.yul\":2035:2039   */\n      0x00\n        /* \"#utility.yul\":2092:2137   */\n      tag_353\n        /* \"#utility.yul\":2133:2135   */\n      0x40\n        /* \"#utility.yul\":2122:2131   */\n      dup4\n        /* \"#utility.yul\":2118:2136   */\n      add\n        /* \"#utility.yul\":2110:2116   */\n      dup6\n        /* \"#utility.yul\":2092:2137   */\n      tag_329\n      jump\t// in\n    tag_353:\n        /* \"#utility.yul\":2084:2137   */\n      swap1\n      pop\n        /* \"#utility.yul\":2173:2179   */\n      dup3\n        /* \"#utility.yul\":2168:2170   */\n      0x20\n        /* \"#utility.yul\":2157:2166   */\n      dup4\n        /* \"#utility.yul\":2153:2171   */\n      add\n        /* \"#utility.yul\":2146:2180   */\n      mstore\n        /* \"#utility.yul\":1895:2186   */\n      swap4\n      swap3\n      pop\n      pop\n      pop\n      jump\t// out\n        /* \"#utility.yul\":2191:2411   */\n    tag_80:\n        /* \"#utility.yul\":2340:2342   */\n      0x20\n        /* \"#utility.yul\":2329:2338   */\n      dup2\n        /* \"#utility.yul\":2322:2343   */\n      mstore\n        /* \"#utility.yul\":2303:2307   */\n      0x00\n        /* \"#utility.yul\":2360:2405   */\n      tag_340\n        /* \"#utility.yul\":2401:2403   */\n      0x20\n        /* \"#utility.yul\":2390:2399   */\n      dup4\n        /* \"#utility.yul\":2386:2404   */\n      add\n        /* \"#utility.yul\":2378:2384   */\n      dup5\n        /* \"#utility.yul\":2360:2405   */\n      tag_329\n      jump\t// in\n        /* \"#utility.yul\":2416:2670   */\n    tag_88:\n        /* \"#utility.yul\":2484:2490   */\n      0x00\n        /* \"#utility.yul\":2492:2498   */\n      dup1\n        /* \"#utility.yul\":2545:2547   */\n      0x40\n        /* \"#utility.yul\":2533:2542   */\n      dup4\n        /* \"#utility.yul\":2524:2531   */\n      dup6\n        /* \"#utility.yul\":2520:2543   */\n      sub\n        /* \"#utility.yul\":2516:2548   */\n      slt\n        /* \"#utility.yul\":2513:2565   */\n      iszero\n      tag_357\n      jumpi\n        /* \"#utility.yul\":2561:2562   */\n      0x00\n        /* \"#utility.yul\":2558:2559   */\n      dup1\n        /* \"#utility.yul\":2551:2563   */\n      revert\n        /* \"#utility.yul\":2513:2565   */\n    tag_357:\n        /* \"#utility.yul\":2584:2613   */\n      tag_358\n        /* \"#utility.yul\":2603:2612   */\n      dup4\n        /* \"#utility.yul\":2584:2613   */\n      tag_328\n      jump\t// in\n    tag_358:\n        /* \"#utility.yul\":2574:2613   */\n      swap5\n        /* \"#utility.yul\":2660:2662   */\n      0x20\n        /* \"#utility.yul\":2645:2663   */\n      swap4\n      swap1\n      swap4\n      add\n        /* \"#utility.yul\":2632:2664   */\n      calldataload\n      swap4\n      pop\n      pop\n      pop\n        /* \"#utility.yul\":2416:2670   */\n      jump\t// out\n        /* \"#utility.yul\":2928:3188   */\n    tag_147:\n        /* \"#utility.yul\":2996:3002   */\n      0x00\n        /* \"#utility.yul\":3004:3010   */\n      dup1\n        /* \"#utility.yul\":3057:3059   */\n      0x40\n        /* \"#utility.yul\":3045:3054   */\n      dup4\n        /* \"#utility.yul\":3036:3043   */\n      dup6\n        /* \"#utility.yul\":3032:3055   */\n      sub\n        /* \"#utility.yul\":3028:3060   */\n      slt\n        /* \"#utility.yul\":3025:3077   */\n      iszero\n      tag_361\n      jumpi\n        /* \"#utility.yul\":3073:3074   */\n      0x00\n        /* \"#utility.yul\":3070:3071   */\n      dup1\n        /* \"#utility.yul\":3063:3075   */\n      revert\n        /* \"#utility.yul\":3025:3077   */\n    tag_361:\n        /* \"#utility.yul\":3096:3125   */\n      tag_362\n        /* \"#utility.yul\":3115:3124   */\n      dup4\n        /* \"#utility.yul\":3096:3125   */\n      tag_328\n      jump\t// in\n    tag_362:\n        /* \"#utility.yul\":3086:3125   */\n      swap2\n      pop\n        /* \"#utility.yul\":3144:3182   */\n      tag_363\n        /* \"#utility.yul\":3178:3180   */\n      0x20\n        /* \"#utility.yul\":3167:3176   */\n      dup5\n        /* \"#utility.yul\":3163:3181   */\n      add\n        /* \"#utility.yul\":3144:3182   */\n      tag_328\n      jump\t// in\n    tag_363:\n        /* \"#utility.yul\":3134:3182   */\n      swap1\n      pop\n        /* \"#utility.yul\":2928:3188   */\n      swap3\n      pop\n      swap3\n      swap1\n      pop\n      jump\t// out\n        /* \"#utility.yul\":4068:4195   */\n    tag_330:\n        /* \"#utility.yul\":4129:4139   */\n      0x4e487b71\n        /* \"#utility.yul\":4124:4127   */\n      0xe0\n        /* \"#utility.yul\":4120:4140   */\n      shl\n        /* \"#utility.yul\":4117:4118   */\n      0x00\n        /* \"#utility.yul\":4110:4141   */\n      mstore\n        /* \"#utility.yul\":4160:4164   */\n      0x11\n        /* \"#utility.yul\":4157:4158   */\n      0x04\n        /* \"#utility.yul\":4150:4165   */\n      mstore\n        /* \"#utility.yul\":4184:4188   */\n      0x24\n        /* \"#utility.yul\":4181:4182   */\n      0x00\n        /* \"#utility.yul\":4174:4189   */\n      revert\n        /* \"#utility.yul\":4200:4368   */\n    tag_171:\n        /* \"#utility.yul\":4273:4282   */\n      dup1\n      dup3\n      mul\n        /* \"#utility.yul\":4304:4313   */\n      dup2\n      iszero\n        /* \"#utility.yul\":4321:4336   */\n      dup3\n      dup3\n      div\n        /* \"#utility.yul\":4315:4337   */\n      dup5\n      eq\n        /* \"#utility.yul\":4301:4338   */\n      or\n        /* \"#utility.yul\":4291:4362   */\n      tag_370\n      jumpi\n        /* \"#utility.yul\":4342:4360   */\n      tag_370\n      tag_330\n      jump\t// in\n    tag_370:\n        /* \"#utility.yul\":4200:4368   */\n      swap3\n      swap2\n      pop\n      pop\n      jump\t// out\n        /* \"#utility.yul\":4373:4590   */\n    tag_173:\n        /* \"#utility.yul\":4413:4414   */\n      0x00\n        /* \"#utility.yul\":4439:4440   */\n      dup3\n        /* \"#utility.yul\":4429:4561   */\n      tag_372\n      jumpi\n        /* \"#utility.yul\":4483:4493   */\n      0x4e487b71\n        /* \"#utility.yul\":4478:4481   */\n      0xe0\n        /* \"#utility.yul\":4474:4494   */\n      shl\n        /* \"#utility.yul\":4471:4472   */\n      0x00\n        /* \"#utility.yul\":4464:4495   */\n      mstore\n        /* \"#utility.yul\":4518:4522   */\n      0x12\n        /* \"#utility.yul\":4515:4516   */\n      0x04\n        /* \"#utility.yul\":4508:4523   */\n      mstore\n        /* \"#utility.yul\":4546:4550   */\n      0x24\n        /* \"#utility.yul\":4543:4544   */\n      0x00\n        /* \"#utility.yul\":4536:4551   */\n      revert\n        /* \"#utility.yul\":4429:4561   */\n    tag_372:\n      pop\n        /* \"#utility.yul\":4575:4584   */\n      div\n      swap1\n        /* \"#utility.yul\":4373:4590   */\n      jump\t// out\n        /* \"#utility.yul\":4595:4720   */\n    tag_175:\n        /* \"#utility.yul\":4660:4669   */\n      dup1\n      dup3\n      add\n        /* \"#utility.yul\":4681:4691   */\n      dup1\n      dup3\n      gt\n        /* \"#utility.yul\":4678:4714   */\n      iszero\n      tag_370\n      jumpi\n        /* \"#utility.yul\":4694:4712   */\n      tag_370\n      tag_330\n      jump\t// in\n        /* \"#utility.yul\":4725:4853   */\n    tag_177:\n        /* \"#utility.yul\":4792:4801   */\n      dup2\n      dup2\n      sub\n        /* \"#utility.yul\":4813:4824   */\n      dup2\n      dup2\n      gt\n        /* \"#utility.yul\":4810:4847   */\n      iszero\n      tag_370\n      jumpi\n        /* \"#utility.yul\":4827:4845   */\n      tag_370\n      tag_330\n      jump\t// in\n        /* \"#utility.yul\":5195:5322   */\n    tag_331:\n        /* \"#utility.yul\":5256:5266   */\n      0x4e487b71\n        /* \"#utility.yul\":5251:5254   */\n      0xe0\n        /* \"#utility.yul\":5247:5267   */\n      shl\n        /* \"#utility.yul\":5244:5245   */\n      0x00\n        /* \"#utility.yul\":5237:5268   */\n      mstore\n        /* \"#utility.yul\":5287:5291   */\n      0x41\n        /* \"#utility.yul\":5284:5285   */\n      0x04\n        /* \"#utility.yul\":5277:5292   */\n      mstore\n        /* \"#utility.yul\":5311:5315   */\n      0x24\n        /* \"#utility.yul\":5308:5309   */\n      0x00\n        /* \"#utility.yul\":5301:5316   */\n      revert\n        /* \"#utility.yul\":5327:5707   */\n    tag_203:\n        /* \"#utility.yul\":5406:5407   */\n      0x01\n        /* \"#utility.yul\":5402:5414   */\n      dup2\n      dup2\n      shr\n      swap1\n        /* \"#utility.yul\":5449:5461   */\n      dup3\n      and\n      dup1\n        /* \"#utility.yul\":5470:5531   */\n      tag_382\n      jumpi\n        /* \"#utility.yul\":5524:5528   */\n      0x7f\n        /* \"#utility.yul\":5516:5522   */\n      dup3\n        /* \"#utility.yul\":5512:5529   */\n      and\n        /* \"#utility.yul\":5502:5529   */\n      swap2\n      pop\n        /* \"#utility.yul\":5470:5531   */\n    tag_382:\n        /* \"#utility.yul\":5577:5579   */\n      0x20\n        /* \"#utility.yul\":5569:5575   */\n      dup3\n        /* \"#utility.yul\":5566:5580   */\n      lt\n        /* \"#utility.yul\":5546:5564   */\n      dup2\n        /* \"#utility.yul\":5543:5581   */\n      sub\n        /* \"#utility.yul\":5540:5701   */\n      tag_383\n      jumpi\n        /* \"#utility.yul\":5623:5633   */\n      0x4e487b71\n        /* \"#utility.yul\":5618:5621   */\n      0xe0\n        /* \"#utility.yul\":5614:5634   */\n      shl\n        /* \"#utility.yul\":5611:5612   */\n      0x00\n        /* \"#utility.yul\":5604:5635   */\n      mstore\n        /* \"#utility.yul\":5658:5662   */\n      0x22\n        /* \"#utility.yul\":5655:5656   */\n      0x04\n        /* \"#utility.yul\":5648:5663   */\n      mstore\n        /* \"#utility.yul\":5686:5690   */\n      0x24\n        /* \"#utility.yul\":5683:5684   */\n      0x00\n        /* \"#utility.yul\":5676:5691   */\n      revert\n        /* \"#utility.yul\":5540:5701   */\n    tag_383:\n      pop\n        /* \"#utility.yul\":5327:5707   */\n      swap2\n      swap1\n      pop\n      jump\t// out\n        /* \"#utility.yul\":5838:6356   */\n    tag_333:\n        /* \"#utility.yul\":5940:5942   */\n      0x1f\n        /* \"#utility.yul\":5935:5938   */\n      dup3\n        /* \"#utility.yul\":5932:5943   */\n      gt\n        /* \"#utility.yul\":5929:6350   */\n      iszero\n      tag_254\n      jumpi\n        /* \"#utility.yul\":5976:5981   */\n      dup1\n        /* \"#utility.yul\":5973:5974   */\n      0x00\n        /* \"#utility.yul\":5966:5982   */\n      mstore\n        /* \"#utility.yul\":6020:6024   */\n      0x20\n        /* \"#utility.yul\":6017:6018   */\n      0x00\n        /* \"#utility.yul\":6007:6025   */\n      keccak256\n        /* \"#utility.yul\":6090:6092   */\n      0x1f\n        /* \"#utility.yul\":6078:6088   */\n      dup5\n        /* \"#utility.yul\":6074:6093   */\n      add\n        /* \"#utility.yul\":6071:6072   */\n      0x05\n        /* \"#utility.yul\":6067:6094   */\n      shr\n        /* \"#utility.yul\":6061:6065   */\n      dup2\n        /* \"#utility.yul\":6057:6095   */\n      add\n        /* \"#utility.yul\":6126:6130   */\n      0x20\n        /* \"#utility.yul\":6114:6124   */\n      dup6\n        /* \"#utility.yul\":6111:6131   */\n      lt\n        /* \"#utility.yul\":6108:6155   */\n      iszero\n      tag_387\n      jumpi\n      pop\n        /* \"#utility.yul\":6149:6153   */\n      dup1\n        /* \"#utility.yul\":6108:6155   */\n    tag_387:\n        /* \"#utility.yul\":6204:6206   */\n      0x1f\n        /* \"#utility.yul\":6199:6202   */\n      dup5\n        /* \"#utility.yul\":6195:6207   */\n      add\n        /* \"#utility.yul\":6192:6193   */\n      0x05\n        /* \"#utility.yul\":6188:6208   */\n      shr\n        /* \"#utility.yul\":6182:6186   */\n      dup3\n        /* \"#utility.yul\":6178:6209   */\n      add\n        /* \"#utility.yul\":6168:6209   */\n      swap2\n      pop\n        /* \"#utility.yul\":6259:6340   */\n    tag_388:\n        /* \"#utility.yul\":6277:6279   */\n      dup2\n        /* \"#utility.yul\":6270:6275   */\n      dup2\n        /* \"#utility.yul\":6267:6280   */\n      lt\n        /* \"#utility.yul\":6259:6340   */\n      iszero\n      tag_390\n      jumpi\n        /* \"#utility.yul\":6336:6337   */\n      0x00\n        /* \"#utility.yul\":6322:6338   */\n      dup2\n      sstore\n        /* \"#utility.yul\":6303:6304   */\n      0x01\n        /* \"#utility.yul\":6292:6305   */\n      add\n        /* \"#utility.yul\":6259:6340   */\n      jump(tag_388)\n    tag_390:\n        /* \"#utility.yul\":6263:6266   */\n      pop\n      pop\n        /* \"#utility.yul\":5838:6356   */\n      pop\n      pop\n      pop\n      jump\t// out\n        /* \"#utility.yul\":6532:7730   */\n    tag_187:\n        /* \"#utility.yul\":6656:6674   */\n      0xffffffffffffffff\n        /* \"#utility.yul\":6651:6654   */\n      dup4\n        /* \"#utility.yul\":6648:6675   */\n      gt\n        /* \"#utility.yul\":6645:6698   */\n      iszero\n      tag_394\n      jumpi\n        /* \"#utility.yul\":6678:6696   */\n      tag_394\n      tag_331\n      jump\t// in\n    tag_394:\n        /* \"#utility.yul\":6707:6801   */\n      tag_395\n        /* \"#utility.yul\":6797:6800   */\n      dup4\n        /* \"#utility.yul\":6757:6795   */\n      tag_396\n        /* \"#utility.yul\":6789:6793   */\n      dup4\n        /* \"#utility.yul\":6783:6794   */\n      sload\n        /* \"#utility.yul\":6757:6795   */\n      tag_203\n      jump\t// in\n    tag_396:\n        /* \"#utility.yul\":6751:6755   */\n      dup4\n        /* \"#utility.yul\":6707:6801   */\n      tag_333\n      jump\t// in\n    tag_395:\n        /* \"#utility.yul\":6827:6828   */\n      0x00\n        /* \"#utility.yul\":6852:6854   */\n      0x1f\n        /* \"#utility.yul\":6847:6850   */\n      dup5\n        /* \"#utility.yul\":6844:6855   */\n      gt\n        /* \"#utility.yul\":6869:6870   */\n      0x01\n        /* \"#utility.yul\":6864:7472   */\n      dup2\n      eq\n      tag_398\n      jumpi\n        /* \"#utility.yul\":7516:7517   */\n      0x00\n        /* \"#utility.yul\":7533:7536   */\n      dup6\n        /* \"#utility.yul\":7530:7623   */\n      iszero\n      tag_399\n      jumpi\n      pop\n        /* \"#utility.yul\":7589:7608   */\n      dup4\n      dup3\n      add\n        /* \"#utility.yul\":7576:7609   */\n      calldataload\n        /* \"#utility.yul\":7530:7623   */\n    tag_399:\n      not(0x00)\n        /* \"#utility.yul\":6489:6490   */\n      0x03\n        /* \"#utility.yul\":6485:6496   */\n      dup8\n      swap1\n      shl\n        /* \"#utility.yul\":6481:6505   */\n      shr\n        /* \"#utility.yul\":6477:6506   */\n      not\n        /* \"#utility.yul\":6467:6507   */\n      and\n        /* \"#utility.yul\":6513:6514   */\n      0x01\n        /* \"#utility.yul\":6509:6520   */\n      dup7\n      swap1\n      shl\n        /* \"#utility.yul\":6464:6521   */\n      or\n        /* \"#utility.yul\":7636:7714   */\n      dup4\n      sstore\n        /* \"#utility.yul\":6837:7724   */\n      jump(tag_390)\n        /* \"#utility.yul\":6864:7472   */\n    tag_398:\n        /* \"#utility.yul\":5785:5786   */\n      0x00\n        /* \"#utility.yul\":5778:5792   */\n      dup4\n      dup2\n      mstore\n        /* \"#utility.yul\":5822:5826   */\n      0x20\n        /* \"#utility.yul\":5809:5827   */\n      dup2\n      keccak256\n      not(0x1f)\n        /* \"#utility.yul\":6900:6917   */\n      dup8\n      and\n      swap2\n        /* \"#utility.yul\":7015:7244   */\n    tag_402:\n        /* \"#utility.yul\":7029:7036   */\n      dup3\n        /* \"#utility.yul\":7026:7027   */\n      dup2\n        /* \"#utility.yul\":7023:7037   */\n      lt\n        /* \"#utility.yul\":7015:7244   */\n      iszero\n      tag_404\n      jumpi\n        /* \"#utility.yul\":7118:7137   */\n      dup7\n      dup6\n      add\n        /* \"#utility.yul\":7105:7138   */\n      calldataload\n        /* \"#utility.yul\":7090:7139   */\n      dup3\n      sstore\n        /* \"#utility.yul\":7225:7229   */\n      0x20\n        /* \"#utility.yul\":7210:7230   */\n      swap5\n      dup6\n      add\n      swap5\n        /* \"#utility.yul\":7178:7179   */\n      0x01\n        /* \"#utility.yul\":7166:7180   */\n      swap1\n      swap3\n      add\n      swap2\n        /* \"#utility.yul\":7045:7057   */\n      add\n        /* \"#utility.yul\":7015:7244   */\n      jump(tag_402)\n    tag_404:\n        /* \"#utility.yul\":7019:7022   */\n      pop\n        /* \"#utility.yul\":7272:7275   */\n      dup7\n        /* \"#utility.yul\":7263:7270   */\n      dup3\n        /* \"#utility.yul\":7260:7276   */\n      lt\n        /* \"#utility.yul\":7257:7416   */\n      iszero\n      tag_405\n      jumpi\n        /* \"#utility.yul\":7396:7397   */\n      0x00\n        /* \"#utility.yul\":7392:7398   */\n      not\n        /* \"#utility.yul\":7386:7389   */\n      0xf8\n        /* \"#utility.yul\":7380:7383   */\n      dup9\n        /* \"#utility.yul\":7377:7378   */\n      0x03\n        /* \"#utility.yul\":7373:7384   */\n      shl\n        /* \"#utility.yul\":7369:7390   */\n      and\n        /* \"#utility.yul\":7365:7399   */\n      shr\n        /* \"#utility.yul\":7361:7400   */\n      not\n        /* \"#utility.yul\":7348:7357   */\n      dup5\n        /* \"#utility.yul\":7343:7346   */\n      dup8\n        /* \"#utility.yul\":7339:7358   */\n      add\n        /* \"#utility.yul\":7326:7359   */\n      calldataload\n        /* \"#utility.yul\":7322:7401   */\n      and\n        /* \"#utility.yul\":7314:7320   */\n      dup2\n        /* \"#utility.yul\":7307:7402   */\n      sstore\n        /* \"#utility.yul\":7257:7416   */\n    tag_405:\n      pop\n      pop\n        /* \"#utility.yul\":7459:7460   */\n      0x01\n        /* \"#utility.yul\":7453:7456   */\n      dup6\n        /* \"#utility.yul\":7450:7451   */\n      0x01\n        /* \"#utility.yul\":7446:7457   */\n      shl\n        /* \"#utility.yul\":7442:7461   */\n      add\n        /* \"#utility.yul\":7436:7440   */\n      dup4\n        /* \"#utility.yul\":7429:7462   */\n      sstore\n        /* \"#utility.yul\":6837:7724   */\n      pop\n      pop\n        /* \"#utility.yul\":6532:7730   */\n      pop\n      pop\n      pop\n      jump\t// out\n        /* \"#utility.yul\":7735:8198   */\n    tag_190:\n        /* \"#utility.yul\":7922:7924   */\n      0x40\n        /* \"#utility.yul\":7911:7920   */\n      dup2\n        /* \"#utility.yul\":7904:7925   */\n      mstore\n        /* \"#utility.yul\":7961:7967   */\n      dup3\n        /* \"#utility.yul\":7956:7958   */\n      0x40\n        /* \"#utility.yul\":7945:7954   */\n      dup3\n        /* \"#utility.yul\":7941:7959   */\n      add\n        /* \"#utility.yul\":7934:7968   */\n      mstore\n        /* \"#utility.yul\":8018:8024   */\n      dup3\n        /* \"#utility.yul\":8010:8016   */\n      dup5\n        /* \"#utility.yul\":8005:8007   */\n      0x60\n        /* \"#utility.yul\":7994:8003   */\n      dup4\n        /* \"#utility.yul\":7990:8008   */\n      add\n        /* \"#utility.yul\":7977:8025   */\n      calldatacopy\n        /* \"#utility.yul\":8074:8075   */\n      0x00\n        /* \"#utility.yul\":8069:8071   */\n      0x60\n        /* \"#utility.yul\":8060:8066   */\n      dup5\n        /* \"#utility.yul\":8049:8058   */\n      dup4\n        /* \"#utility.yul\":8045:8067   */\n      add\n        /* \"#utility.yul\":8041:8072   */\n      add\n        /* \"#utility.yul\":8034:8076   */\n      mstore\n        /* \"#utility.yul\":7885:7889   */\n      0x00\n        /* \"#utility.yul\":8144:8146   */\n      0x60\n        /* \"#utility.yul\":8137:8139   */\n      0x1f\n        /* \"#utility.yul\":8133:8140   */\n      not\n        /* \"#utility.yul\":8128:8130   */\n      0x1f\n        /* \"#utility.yul\":8120:8126   */\n      dup7\n        /* \"#utility.yul\":8116:8131   */\n      add\n        /* \"#utility.yul\":8112:8141   */\n      and\n        /* \"#utility.yul\":8101:8110   */\n      dup4\n        /* \"#utility.yul\":8097:8142   */\n      add\n        /* \"#utility.yul\":8093:8147   */\n      add\n        /* \"#utility.yul\":8085:8147   */\n      swap1\n      pop\n        /* \"#utility.yul\":8185:8191   */\n      dup3\n        /* \"#utility.yul\":8178:8182   */\n      0x20\n        /* \"#utility.yul\":8167:8176   */\n      dup4\n        /* \"#utility.yul\":8163:8183   */\n      add\n        /* \"#utility.yul\":8156:8192   */\n      mstore\n        /* \"#utility.yul\":7735:8198   */\n      swap5\n      swap4\n      pop\n      pop\n      pop\n      pop\n      jump\t// out\n        /* \"#utility.yul\":8545:8672   */\n    tag_197:\n        /* \"#utility.yul\":8606:8616   */\n      0x4e487b71\n        /* \"#utility.yul\":8601:8604   */\n      0xe0\n        /* \"#utility.yul\":8597:8617   */\n      shl\n        /* \"#utility.yul\":8594:8595   */\n      0x00\n        /* \"#utility.yul\":8587:8618   */\n      mstore\n        /* \"#utility.yul\":8637:8641   */\n      0x32\n        /* \"#utility.yul\":8634:8635   */\n      0x04\n        /* \"#utility.yul\":8627:8642   */\n      mstore\n        /* \"#utility.yul\":8661:8665   */\n      0x24\n        /* \"#utility.yul\":8658:8659   */\n      0x00\n        /* \"#utility.yul\":8651:8666   */\n      revert\n        /* \"#utility.yul\":9024:9208   */\n    tag_220:\n        /* \"#utility.yul\":9094:9100   */\n      0x00\n        /* \"#utility.yul\":9147:9149   */\n      0x20\n        /* \"#utility.yul\":9135:9144   */\n      dup3\n        /* \"#utility.yul\":9126:9133   */\n      dup5\n        /* \"#utility.yul\":9122:9145   */\n      sub\n        /* \"#utility.yul\":9118:9150   */\n      slt\n        /* \"#utility.yul\":9115:9167   */\n      iszero\n      tag_411\n      jumpi\n        /* \"#utility.yul\":9163:9164   */\n      0x00\n        /* \"#utility.yul\":9160:9161   */\n      dup1\n        /* \"#utility.yul\":9153:9165   */\n      revert\n        /* \"#utility.yul\":9115:9167   */\n    tag_411:\n      pop\n        /* \"#utility.yul\":9186:9202   */\n      mload\n      swap2\n        /* \"#utility.yul\":9024:9208   */\n      swap1\n      pop\n      jump\t// out\n        /* \"#utility.yul\":9725:10002   */\n    tag_234:\n        /* \"#utility.yul\":9792:9798   */\n      0x00\n        /* \"#utility.yul\":9845:9847   */\n      0x20\n        /* \"#utility.yul\":9833:9842   */\n      dup3\n        /* \"#utility.yul\":9824:9831   */\n      dup5\n        /* \"#utility.yul\":9820:9843   */\n      sub\n        /* \"#utility.yul\":9816:9848   */\n      slt\n        /* \"#utility.yul\":9813:9865   */\n      iszero\n      tag_415\n      jumpi\n        /* \"#utility.yul\":9861:9862   */\n      0x00\n        /* \"#utility.yul\":9858:9859   */\n      dup1\n        /* \"#utility.yul\":9851:9863   */\n      revert\n        /* \"#utility.yul\":9813:9865   */\n    tag_415:\n        /* \"#utility.yul\":9893:9902   */\n      dup2\n        /* \"#utility.yul\":9887:9903   */\n      mload\n        /* \"#utility.yul\":9946:9951   */\n      dup1\n        /* \"#utility.yul\":9939:9952   */\n      iszero\n        /* \"#utility.yul\":9932:9953   */\n      iszero\n        /* \"#utility.yul\":9925:9930   */\n      dup2\n        /* \"#utility.yul\":9922:9954   */\n      eq\n        /* \"#utility.yul\":9912:9972   */\n      tag_340\n      jumpi\n        /* \"#utility.yul\":9968:9969   */\n      0x00\n        /* \"#utility.yul\":9965:9966   */\n      dup1\n        /* \"#utility.yul\":9958:9970   */\n      revert\n\n    auxdata: 0xa26469706673582212204ec6d7e896c9aa6122691c044e1acad133468f27154549cdedd7af61324ff85b64736f6c63430008190033\n}\n",
    "bytecode": {
      "linkReferences": {},
      "object": "608060405234801561000f575f80fd5b50604051611a68380380611a6883398101604081905261002e916102e7565b6001600160a01b03881661007a5760405162461bcd60e51b815260206004820152600e60248201526d13dddb995c881c995c5d5a5c995960921b60448201526064015b60405180910390fd5b5f87116100bc5760405162461bcd60e51b815260206004820152601060248201526f0476f616c206d757374206265203e20360841b6044820152606401610071565b5f86116100ff5760405162461bcd60e51b8152602060048201526011602482015270111d5c985d1a5bdb881c995c5d5a5c9959607a1b6044820152606401610071565b6001600160a01b03851661014a5760405162461bcd60e51b8152602060048201526012602482015271119315c81d1bdad95b881c995c5d5a5c995960721b6044820152606401610071565b6001600160a01b0384166101a05760405162461bcd60e51b815260206004820152601760248201527f4665654469737472696275746f722072657175697265640000000000000000006044820152606401610071565b5f80546001600160a01b0319166001600160a01b038a1617905560018790556101c986426103ad565b600255600380546001600160a01b038088166001600160a01b031992831617909255600480549287169290911691909117905560056102088482610456565b5060066102158382610456565b5060076102228282610456565b505050505050505050610515565b80516001600160a01b0381168114610246575f80fd5b919050565b634e487b7160e01b5f52604160045260245ffd5b5f82601f83011261026e575f80fd5b81516001600160401b03808211156102885761028861024b565b604051601f8301601f19908116603f011681019082821181831017156102b0576102b061024b565b816040528381528660208588010111156102c8575f80fd5b8360208701602083015e5f602085830101528094505050505092915050565b5f805f805f805f80610100898b0312156102ff575f80fd5b61030889610230565b9750602089015196506040890151955061032460608a01610230565b945061033260808a01610230565b60a08a01519094506001600160401b038082111561034e575f80fd5b61035a8c838d0161025f565b945060c08b015191508082111561036f575f80fd5b61037b8c838d0161025f565b935060e08b0151915080821115610390575f80fd5b5061039d8b828c0161025f565b9150509295985092959890939650565b808201808211156103cc57634e487b7160e01b5f52601160045260245ffd5b92915050565b600181811c908216806103e657607f821691505b60208210810361040457634e487b7160e01b5f52602260045260245ffd5b50919050565b601f82111561045157805f5260205f20601f840160051c8101602085101561042f5750805b601f840160051c820191505b8181101561044e575f815560010161043b565b50505b505050565b81516001600160401b0381111561046f5761046f61024b565b6104838161047d84546103d2565b8461040a565b602080601f8311600181146104b6575f841561049f5750858301515b5f19600386901b1c1916600185901b17855561050d565b5f85815260208120601f198616915b828110156104e4578886015182559484019460019091019084016104c5565b508582101561050157878501515f19600388901b60f8161c191681555b505060018460011b0185555b505050505050565b611546806105225f395ff3fe6080604052600436106101a7575f3560e01c80638b4c40b0116100e7578063c52ed53411610087578063e98798e811610062578063e98798e814610489578063ecb70fb7146104a8578063efdf762a146104ca578063f2e76d7b14610500575f80fd5b8063c52ed53414610435578063e27cc5d914610449578063e730395a1461045e575f80fd5b8063a035531b116100c2578063a035531b146103c4578063aba83150146103e3578063b4c2f727146103f7578063bca856ad14610416575f80fd5b80638b4c40b01461038a5780638da5cb5b1461039257806390be10cc146103b0575f80fd5b8063401938831161015257806371a6acf21161012d57806371a6acf2146102f95780637273b736146103185780637284e4161461035757806379388e411461036b575f80fd5b806340193883146102a45780634a79d50c146102b95780636136f6cf146102da575f80fd5b806329dcb0cf1161018257806329dcb0cf1461024e57806332cb25be146102635780633ccfd60b14610290575f80fd5b806307ec3174146101ba5780630d43e8ad146101f857806321d290381461022f575f80fd5b366101b6576101b461051f565b005b5f80fd5b3480156101c5575f80fd5b506101e56101d436600461116b565b600a6020525f908152604090205481565b6040519081526020015b60405180910390f35b348015610203575f80fd5b50600454610217906001600160a01b031681565b6040516001600160a01b0390911681526020016101ef565b34801561023a575f80fd5b506101b461024936600461118b565b610616565b348015610259575f80fd5b506101e560025481565b34801561026e575f80fd5b5061028261027d3660046111f7565b61075f565b6040516101ef92919061123c565b34801561029b575f80fd5b506101b461087f565b3480156102af575f80fd5b506101e560015481565b3480156102c4575f80fd5b506102cd610b21565b6040516101ef919061125d565b3480156102e5575f80fd5b506101b46102f436600461116b565b610bad565b348015610304575f80fd5b506101b461031336600461126f565b610c9f565b348015610323575f80fd5b50600b546003546001600160a01b03165f908152600a60205260409020545b604080519283526020830191909152016101ef565b348015610362575f80fd5b506102cd610eb4565b348015610376575f80fd5b506101b461038536600461116b565b610ec1565b6101b461051f565b34801561039d575f80fd5b505f54610217906001600160a01b031681565b3480156103bb575f80fd5b50610342610f28565b3480156103cf575f80fd5b506101e56103de3660046111f7565b610fc2565b3480156103ee575f80fd5b506102cd610fe1565b348015610402575f80fd5b506102176104113660046111f7565b610fee565b348015610421575f80fd5b506102cd6104303660046111f7565b611016565b348015610440575f80fd5b50600d546101e5565b348015610454575f80fd5b506101e5600b5481565b348015610469575f80fd5b506101e561047836600461116b565b60086020525f908152604090205481565b348015610494575f80fd5b506101b46104a3366004611297565b61103d565b3480156104b3575f80fd5b5060025442101560405190151581526020016101ef565b3480156104d5575f80fd5b506101e56104e4366004611297565b600960209081525f928352604080842090915290825290205481565b34801561050b575f80fd5b50600354610217906001600160a01b031681565b60025442106105665760405162461bcd60e51b815260206004820152600e60248201526d10d85b5c185a59db88195b99195960921b60448201526064015b60405180910390fd5b5f34116105b55760405162461bcd60e51b815260206004820152600b60248201527f4e6f204554482073656e74000000000000000000000000000000000000000000604482015260640161055d565b5f60646105c33460026112dc565b6105cd91906112f9565b905080600b5f8282546105e09190611318565b909155506105f09050813461132b565b335f908152600860205260408120805490919061060e908490611318565b909155505050565b5f546001600160a01b0316331461065b5760405162461bcd60e51b81526020600482015260096024820152682737ba1037bbb732b960b91b604482015260640161055d565b600c805460018181019092557fdf6966c971051c3d54ec59162606531493a51404a002842f56009d7e5cf4a8c70180547fffffffffffffffffffffffff00000000000000000000000000000000000000001633179055600d805491820181555f527fd7b6990105719101dabeb77144f2a3385c8033acd3af97e9423a695e81ad1eb5016106e98284836113d5565b50600e80546001810182555f91909152427fbb7b4a454dc3493923482f07822329ed19e8244eff582cc204f8554c3620c3fd9091018190556040517f795d961edbc9e83a9c6d46e7e54ae3be27574cfbc69a1eca98133687155c24b091610753918591859161148f565b60405180910390a15050565b600d546060905f9083106107b55760405162461bcd60e51b815260206004820152600d60248201527f496e76616c696420696e64657800000000000000000000000000000000000000604482015260640161055d565b600d83815481106107c8576107c86114c6565b905f5260205f2001600e84815481106107e3576107e36114c6565b905f5260205f2001548180546107f890611352565b80601f016020809104026020016040519081016040528092919081815260200182805461082490611352565b801561086f5780601f106108465761010080835404028352916020019161086f565b820191905f5260205f20905b81548152906001019060200180831161085257829003601f168201915b5050505050915091509150915091565b5f546001600160a01b031633146108c45760405162461bcd60e51b81526020600482015260096024820152682737ba1037bbb732b960b91b604482015260640161055d565b6002544210156109165760405162461bcd60e51b815260206004820152601260248201527f43616d706169676e206e6f7420656e6465640000000000000000000000000000604482015260640161055d565b5f600b5447610925919061132b565b6003546001600160a01b03165f818152600a60205260408082205490516370a0823160e01b815230600482015293945090929091906370a0823190602401602060405180830381865afa15801561097e573d5f803e3d5ffd5b505050506040513d601f19601f820116820180604052508101906109a291906114da565b6109ac919061132b565b90506001808315610a0c575f80546040516001600160a01b039091169186919081818185875af1925050503d805f8114610a01576040519150601f19603f3d011682016040523d82523d5f602084013e610a06565b606091505b50909250505b8215610a8a576003545f5460405163a9059cbb60e01b81526001600160a01b0391821660048201526024810186905291169063a9059cbb906044016020604051808303815f875af1158015610a63573d5f803e3d5ffd5b505050506040513d601f19601f82011682018060405250810190610a8791906114f1565b90505b60408051831515815282151560208201527fedaf6307dd03cf2213c8cf4c3154d20dbf80b44bb80b206b6381109881db78e7910160405180910390a18180610acf5750805b610b1b5760405162461bcd60e51b815260206004820152601160248201527f4e6f7468696e672077697468647261776e000000000000000000000000000000604482015260640161055d565b50505050565b60058054610b2e90611352565b80601f0160208091040260200160405190810160405280929190818152602001828054610b5a90611352565b8015610ba55780601f10610b7c57610100808354040283529160200191610ba5565b820191905f5260205f20905b815481529060010190602001808311610b8857829003601f168201915b505050505081565b5f546001600160a01b03163314610bf25760405162461bcd60e51b81526020600482015260096024820152682737ba1037bbb732b960b91b604482015260640161055d565b600b80545f918290556040519091906001600160a01b0384169083908381818185875af1925050503d805f8114610c44576040519150601f19603f3d011682016040523d82523d5f602084013e610c49565b606091505b5050905080610c9a5760405162461bcd60e51b815260206004820152601760248201527f45544820666565207472616e73666572206661696c6564000000000000000000604482015260640161055d565b505050565b6002544210610ce15760405162461bcd60e51b815260206004820152600e60248201526d10d85b5c185a59db88195b99195960921b604482015260640161055d565b5f8111610d305760405162461bcd60e51b815260206004820152600e60248201527f4e6f20746f6b656e732073656e74000000000000000000000000000000000000604482015260640161055d565b6003545f906001600160a01b03848116911614610d63576064610d548360026112dc565b610d5e91906112f9565b610d7b565b6103e8610d718360056112dc565b610d7b91906112f9565b90505f610d88828461132b565b6040516323b872dd60e01b8152336004820152306024820152604481018590529091506001600160a01b038516906323b872dd906064016020604051808303815f875af1158015610ddb573d5f803e3d5ffd5b505050506040513d601f19601f82011682018060405250810190610dff91906114f1565b610e4b5760405162461bcd60e51b815260206004820152600f60248201527f5472616e73666572206661696c65640000000000000000000000000000000000604482015260640161055d565b6001600160a01b0384165f908152600a602052604081208054849290610e72908490611318565b9091555050335f9081526009602090815260408083206001600160a01b038816845290915281208054839290610ea9908490611318565b909155505050505050565b60068054610b2e90611352565b5f546001600160a01b03163314610f065760405162461bcd60e51b81526020600482015260096024820152682737ba1037bbb732b960b91b604482015260640161055d565b610f0f81610bad565b600354610f25906001600160a01b03168261103d565b50565b5f80600b5447610f38919061132b565b6003546001600160a01b03165f818152600a6020526040908190205490516370a0823160e01b8152306004820152929450916370a0823190602401602060405180830381865afa158015610f8e573d5f803e3d5ffd5b505050506040513d601f19601f82011682018060405250810190610fb291906114da565b610fbc919061132b565b90509091565b600e8181548110610fd1575f80fd5b5f91825260209091200154905081565b60078054610b2e90611352565b600c8181548110610ffd575f80fd5b5f918252602090912001546001600160a01b0316905081565b600d8181548110611025575f80fd5b905f5260205f20015f915090508054610b2e90611352565b5f546001600160a01b031633146110825760405162461bcd60e51b81526020600482015260096024820152682737ba1037bbb732b960b91b604482015260640161055d565b6001600160a01b038281165f818152600a602052604080822080549290555163a9059cbb60e01b81529284166004840152602483018190529163a9059cbb906044016020604051808303815f875af11580156110e0573d5f803e3d5ffd5b505050506040513d601f19601f8201168201806040525081019061110491906114f1565b610c9a5760405162461bcd60e51b815260206004820152601960248201527f546f6b656e20666565207472616e73666572206661696c656400000000000000604482015260640161055d565b80356001600160a01b0381168114611166575f80fd5b919050565b5f6020828403121561117b575f80fd5b61118482611150565b9392505050565b5f806020838503121561119c575f80fd5b823567ffffffffffffffff808211156111b3575f80fd5b818501915085601f8301126111c6575f80fd5b8135818111156111d4575f80fd5b8660208285010111156111e5575f80fd5b60209290920196919550909350505050565b5f60208284031215611207575f80fd5b5035919050565b5f81518084528060208401602086015e5f602082860101526020601f19601f83011685010191505092915050565b604081525f61124e604083018561120e565b90508260208301529392505050565b602081525f611184602083018461120e565b5f8060408385031215611280575f80fd5b61128983611150565b946020939093013593505050565b5f80604083850312156112a8575f80fd5b6112b183611150565b91506112bf60208401611150565b90509250929050565b634e487b7160e01b5f52601160045260245ffd5b80820281158282048414176112f3576112f36112c8565b92915050565b5f8261131357634e487b7160e01b5f52601260045260245ffd5b500490565b808201808211156112f3576112f36112c8565b818103818111156112f3576112f36112c8565b634e487b7160e01b5f52604160045260245ffd5b600181811c9082168061136657607f821691505b60208210810361138457634e487b7160e01b5f52602260045260245ffd5b50919050565b601f821115610c9a57805f5260205f20601f840160051c810160208510156113af5750805b601f840160051c820191505b818110156113ce575f81556001016113bb565b5050505050565b67ffffffffffffffff8311156113ed576113ed61133e565b611401836113fb8354611352565b8361138a565b5f601f841160018114611432575f851561141b5750838201355b5f19600387901b1c1916600186901b1783556113ce565b5f83815260208120601f198716915b828110156114615786850135825560209485019460019092019101611441565b508682101561147d575f1960f88860031b161c19848701351681555b505060018560011b0183555050505050565b60408152826040820152828460608301375f606084830101525f6060601f19601f8601168301019050826020830152949350505050565b634e487b7160e01b5f52603260045260245ffd5b5f602082840312156114ea575f80fd5b5051919050565b5f60208284031215611501575f80fd5b81518015158114611184575f80fdfea26469706673582212204ec6d7e896c9aa6122691c044e1acad133468f27154549cdedd7af61324ff85b64736f6c63430008190033",
      "opcodes": "PUSH1 0x80 PUSH1 0x40 MSTORE CALLVALUE DUP1 ISZERO PUSH2 0xF JUMPI PUSH0 DUP1 REVERT JUMPDEST POP PUSH1 0x40 MLOAD PUSH2 0x1A68 CODESIZE SUB DUP1 PUSH2 0x1A68 DUP4 CODECOPY DUP2 ADD PUSH1 0x40 DUP2 SWAP1 MSTORE PUSH2 0x2E SWAP2 PUSH2 0x2E7 JUMP JUMPDEST PUSH1 0x1 PUSH1 0x1 PUSH1 0xA0 SHL SUB DUP9 AND PUSH2 0x7A JUMPI PUSH1 0x40 MLOAD PUSH3 0x461BCD PUSH1 0xE5 SHL DUP2 MSTORE PUSH1 0x20 PUSH1 0x4 DUP3 ADD MSTORE PUSH1 0xE PUSH1 0x24 DUP3 ADD MSTORE PUSH14 0x13DDDB995C881C995C5D5A5C9959 PUSH1 0x92 SHL PUSH1 0x44 DUP3 ADD MSTORE PUSH1 0x64 ADD JUMPDEST PUSH1 0x40 MLOAD DUP1 SWAP2 SUB SWAP1 REVERT JUMPDEST PUSH0 DUP8 GT PUSH2 0xBC JUMPI PUSH1 0x40 MLOAD PUSH3 0x461BCD PUSH1 0xE5 SHL DUP2 MSTORE PUSH1 0x20 PUSH1 0x4 DUP3 ADD MSTORE PUSH1 0x10 PUSH1 0x24 DUP3 ADD MSTORE PUSH16 0x476F616C206D757374206265203E203 PUSH1 0x84 SHL PUSH1 0x44 DUP3 ADD MSTORE PUSH1 0x64 ADD PUSH2 0x71 JUMP JUMPDEST PUSH0 DUP7 GT PUSH2 0xFF JUMPI PUSH1 0x40 MLOAD PUSH3 0x461BCD PUSH1 0xE5 SHL DUP2 MSTORE PUSH1 0x20 PUSH1 0x4 DUP3 ADD MSTORE PUSH1 0x11 PUSH1 0x24 DUP3 ADD MSTORE PUSH17 0x111D5C985D1A5BDB881C995C5D5A5C9959 PUSH1 0x7A SHL PUSH1 0x44 DUP3 ADD MSTORE PUSH1 0x64 ADD PUSH2 0x71 JUMP JUMPDEST PUSH1 0x1 PUSH1 0x1 PUSH1 0xA0 SHL SUB DUP6 AND PUSH2 0x14A JUMPI PUSH1 0x40 MLOAD PUSH3 0x461BCD PUSH1 0xE5 SHL DUP2 MSTORE PUSH1 0x20 PUSH1 0x4 DUP3 ADD MSTORE PUSH1 0x12 PUSH1 0x24 DUP3 ADD MSTORE PUSH18 0x119315C81D1BDAD95B881C995C5D5A5C9959 PUSH1 0x72 SHL PUSH1 0x44 DUP3 ADD MSTORE PUSH1 0x64 ADD PUSH2 0x71 JUMP JUMPDEST PUSH1 0x1 PUSH1 0x1 PUSH1 0xA0 SHL SUB DUP5 AND PUSH2 0x1A0 JUMPI PUSH1 0x40 MLOAD PUSH3 0x461BCD PUSH1 0xE5 SHL DUP2 MSTORE PUSH1 0x20 PUSH1 0x4 DUP3 ADD MSTORE PUSH1 0x17 PUSH1 0x24 DUP3 ADD MSTORE PUSH32 0x4665654469737472696275746F72207265717569726564000000000000000000 PUSH1 0x44 DUP3 ADD MSTORE PUSH1 0x64 ADD PUSH2 0x71 JUMP JUMPDEST PUSH0 DUP1 SLOAD PUSH1 0x1 PUSH1 0x1 PUSH1 0xA0 SHL SUB NOT AND PUSH1 0x1 PUSH1 0x1 PUSH1 0xA0 SHL SUB DUP11 AND OR SWAP1 SSTORE PUSH1 0x1 DUP8 SWAP1 SSTORE PUSH2 0x1C9 DUP7 TIMESTAMP PUSH2 0x3AD JUMP JUMPDEST PUSH1 0x2 SSTORE PUSH1 0x3 DUP1 SLOAD PUSH1 0x1 PUSH1 0x1 PUSH1 0xA0 SHL SUB DUP1 DUP9 AND PUSH1 0x1 PUSH1 0x1 PUSH1 0xA0 SHL SUB NOT SWAP3 DUP4 AND OR SWAP1 SWAP3 SSTORE PUSH1 0x4 DUP1 SLOAD SWAP3 DUP8 AND SWAP3 SWAP1 SWAP2 AND SWAP2 SWAP1 SWAP2 OR SWAP1 SSTORE PUSH1 0x5 PUSH2 0x208 DUP5 DUP3 PUSH2 0x456 JUMP JUMPDEST POP PUSH1 0x6 PUSH2 0x215 DUP4 DUP3 PUSH2 0x456 JUMP JUMPDEST POP PUSH1 0x7 PUSH2 0x222 DUP3 DUP3 PUSH2 0x456 JUMP JUMPDEST POP POP POP POP POP POP POP POP POP PUSH2 0x515 JUMP JUMPDEST DUP1 MLOAD PUSH1 0x1 PUSH1 0x1 PUSH1 0xA0 SHL SUB DUP2 AND DUP2 EQ PUSH2 0x246 JUMPI PUSH0 DUP1 REVERT JUMPDEST SWAP2 SWAP1 POP JUMP JUMPDEST PUSH4 0x4E487B71 PUSH1 0xE0 SHL PUSH0 MSTORE PUSH1 0x41 PUSH1 0x4 MSTORE PUSH1 0x24 PUSH0 REVERT JUMPDEST PUSH0 DUP3 PUSH1 0x1F DUP4 ADD SLT PUSH2 0x26E JUMPI PUSH0 DUP1 REVERT JUMPDEST DUP2 MLOAD PUSH1 0x1 PUSH1 0x1 PUSH1 0x40 SHL SUB DUP1 DUP3 GT ISZERO PUSH2 0x288 JUMPI PUSH2 0x288 PUSH2 0x24B JUMP JUMPDEST PUSH1 0x40 MLOAD PUSH1 0x1F DUP4 ADD PUSH1 0x1F NOT SWAP1 DUP2 AND PUSH1 0x3F ADD AND DUP2 ADD SWAP1 DUP3 DUP3 GT DUP2 DUP4 LT OR ISZERO PUSH2 0x2B0 JUMPI PUSH2 0x2B0 PUSH2 0x24B JUMP JUMPDEST DUP2 PUSH1 0x40 MSTORE DUP4 DUP2 MSTORE DUP7 PUSH1 0x20 DUP6 DUP9 ADD ADD GT ISZERO PUSH2 0x2C8 JUMPI PUSH0 DUP1 REVERT JUMPDEST DUP4 PUSH1 0x20 DUP8 ADD PUSH1 0x20 DUP4 ADD MCOPY PUSH0 PUSH1 0x20 DUP6 DUP4 ADD ADD MSTORE DUP1 SWAP5 POP POP POP POP POP SWAP3 SWAP2 POP POP JUMP JUMPDEST PUSH0 DUP1 PUSH0 DUP1 PUSH0 DUP1 PUSH0 DUP1 PUSH2 0x100 DUP10 DUP12 SUB SLT ISZERO PUSH2 0x2FF JUMPI PUSH0 DUP1 REVERT JUMPDEST PUSH2 0x308 DUP10 PUSH2 0x230 JUMP JUMPDEST SWAP8 POP PUSH1 0x20 DUP10 ADD MLOAD SWAP7 POP PUSH1 0x40 DUP10 ADD MLOAD SWAP6 POP PUSH2 0x324 PUSH1 0x60 DUP11 ADD PUSH2 0x230 JUMP JUMPDEST SWAP5 POP PUSH2 0x332 PUSH1 0x80 DUP11 ADD PUSH2 0x230 JUMP JUMPDEST PUSH1 0xA0 DUP11 ADD MLOAD SWAP1 SWAP5 POP PUSH1 0x1 PUSH1 0x1 PUSH1 0x40 SHL SUB DUP1 DUP3 GT ISZERO PUSH2 0x34E JUMPI PUSH0 DUP1 REVERT JUMPDEST PUSH2 0x35A DUP13 DUP4 DUP14 ADD PUSH2 0x25F JUMP JUMPDEST SWAP5 POP PUSH1 0xC0 DUP12 ADD MLOAD SWAP2 POP DUP1 DUP3 GT ISZERO PUSH2 0x36F JUMPI PUSH0 DUP1 REVERT JUMPDEST PUSH2 0x37B DUP13 DUP4 DUP14 ADD PUSH2 0x25F JUMP JUMPDEST SWAP4 POP PUSH1 0xE0 DUP12 ADD MLOAD SWAP2 POP DUP1 DUP3 GT ISZERO PUSH2 0x390 JUMPI PUSH0 DUP1 REVERT JUMPDEST POP PUSH2 0x39D DUP12 DUP3 DUP13 ADD PUSH2 0x25F JUMP JUMPDEST SWAP2 POP POP SWAP3 SWAP6 SWAP9 POP SWAP3 SWAP6 SWAP9 SWAP1 SWAP4 SWAP7 POP JUMP JUMPDEST DUP1 DUP3 ADD DUP1 DUP3 GT ISZERO PUSH2 0x3CC JUMPI PUSH4 0x4E487B71 PUSH1 0xE0 SHL PUSH0 MSTORE PUSH1 0x11 PUSH1 0x4 MSTORE PUSH1 0x24 PUSH0 REVERT JUMPDEST SWAP3 SWAP2 POP POP JUMP JUMPDEST PUSH1 0x1 DUP2 DUP2 SHR SWAP1 DUP3 AND DUP1 PUSH2 0x3E6 JUMPI PUSH1 0x7F DUP3 AND SWAP2 POP JUMPDEST PUSH1 0x20 DUP3 LT DUP2 SUB PUSH2 0x404 JUMPI PUSH4 0x4E487B71 PUSH1 0xE0 SHL PUSH0 MSTORE PUSH1 0x22 PUSH1 0x4 MSTORE PUSH1 0x24 PUSH0 REVERT JUMPDEST POP SWAP2 SWAP1 POP JUMP JUMPDEST PUSH1 0x1F DUP3 GT ISZERO PUSH2 0x451 JUMPI DUP1 PUSH0 MSTORE PUSH1 0x20 PUSH0 KECCAK256 PUSH1 0x1F DUP5 ADD PUSH1 0x5 SHR DUP2 ADD PUSH1 0x20 DUP6 LT ISZERO PUSH2 0x42F JUMPI POP DUP1 JUMPDEST PUSH1 0x1F DUP5 ADD PUSH1 0x5 SHR DUP3 ADD SWAP2 POP JUMPDEST DUP2 DUP2 LT ISZERO PUSH2 0x44E JUMPI PUSH0 DUP2 SSTORE PUSH1 0x1 ADD PUSH2 0x43B JUMP JUMPDEST POP POP JUMPDEST POP POP POP JUMP JUMPDEST DUP2 MLOAD PUSH1 0x1 PUSH1 0x1 PUSH1 0x40 SHL SUB DUP2 GT ISZERO PUSH2 0x46F JUMPI PUSH2 0x46F PUSH2 0x24B JUMP JUMPDEST PUSH2 0x483 DUP2 PUSH2 0x47D DUP5 SLOAD PUSH2 0x3D2 JUMP JUMPDEST DUP5 PUSH2 0x40A JUMP JUMPDEST PUSH1 0x20 DUP1 PUSH1 0x1F DUP4 GT PUSH1 0x1 DUP2 EQ PUSH2 0x4B6 JUMPI PUSH0 DUP5 ISZERO PUSH2 0x49F JUMPI POP DUP6 DUP4 ADD MLOAD JUMPDEST PUSH0 NOT PUSH1 0x3 DUP7 SWAP1 SHL SHR NOT AND PUSH1 0x1 DUP6 SWAP1 SHL OR DUP6 SSTORE PUSH2 0x50D JUMP JUMPDEST PUSH0 DUP6 DUP2 MSTORE PUSH1 0x20 DUP2 KECCAK256 PUSH1 0x1F NOT DUP7 AND SWAP2 JUMPDEST DUP3 DUP2 LT ISZERO PUSH2 0x4E4 JUMPI DUP9 DUP7 ADD MLOAD DUP3 SSTORE SWAP5 DUP5 ADD SWAP5 PUSH1 0x1 SWAP1 SWAP2 ADD SWAP1 DUP5 ADD PUSH2 0x4C5 JUMP JUMPDEST POP DUP6 DUP3 LT ISZERO PUSH2 0x501 JUMPI DUP8 DUP6 ADD MLOAD PUSH0 NOT PUSH1 0x3 DUP9 SWAP1 SHL PUSH1 0xF8 AND SHR NOT AND DUP2 SSTORE JUMPDEST POP POP PUSH1 0x1 DUP5 PUSH1 0x1 SHL ADD DUP6 SSTORE JUMPDEST POP POP POP POP POP POP JUMP JUMPDEST PUSH2 0x1546 DUP1 PUSH2 0x522 PUSH0 CODECOPY PUSH0 RETURN INVALID PUSH1 0x80 PUSH1 0x40 MSTORE PUSH1 0x4 CALLDATASIZE LT PUSH2 0x1A7 JUMPI PUSH0 CALLDATALOAD PUSH1 0xE0 SHR DUP1 PUSH4 0x8B4C40B0 GT PUSH2 0xE7 JUMPI DUP1 PUSH4 0xC52ED534 GT PUSH2 0x87 JUMPI DUP1 PUSH4 0xE98798E8 GT PUSH2 0x62 JUMPI DUP1 PUSH4 0xE98798E8 EQ PUSH2 0x489 JUMPI DUP1 PUSH4 0xECB70FB7 EQ PUSH2 0x4A8 JUMPI DUP1 PUSH4 0xEFDF762A EQ PUSH2 0x4CA JUMPI DUP1 PUSH4 0xF2E76D7B EQ PUSH2 0x500 JUMPI PUSH0 DUP1 REVERT JUMPDEST DUP1 PUSH4 0xC52ED534 EQ PUSH2 0x435 JUMPI DUP1 PUSH4 0xE27CC5D9 EQ PUSH2 0x449 JUMPI DUP1 PUSH4 0xE730395A EQ PUSH2 0x45E JUMPI PUSH0 DUP1 REVERT JUMPDEST DUP1 PUSH4 0xA035531B GT PUSH2 0xC2 JUMPI DUP1 PUSH4 0xA035531B EQ PUSH2 0x3C4 JUMPI DUP1 PUSH4 0xABA83150 EQ PUSH2 0x3E3 JUMPI DUP1 PUSH4 0xB4C2F727 EQ PUSH2 0x3F7 JUMPI DUP1 PUSH4 0xBCA856AD EQ PUSH2 0x416 JUMPI PUSH0 DUP1 REVERT JUMPDEST DUP1 PUSH4 0x8B4C40B0 EQ PUSH2 0x38A JUMPI DUP1 PUSH4 0x8DA5CB5B EQ PUSH2 0x392 JUMPI DUP1 PUSH4 0x90BE10CC EQ PUSH2 0x3B0 JUMPI PUSH0 DUP1 REVERT JUMPDEST DUP1 PUSH4 0x40193883 GT PUSH2 0x152 JUMPI DUP1 PUSH4 0x71A6ACF2 GT PUSH2 0x12D JUMPI DUP1 PUSH4 0x71A6ACF2 EQ PUSH2 0x2F9 JUMPI DUP1 PUSH4 0x7273B736 EQ PUSH2 0x318 JUMPI DUP1 PUSH4 0x7284E416 EQ PUSH2 0x357 JUMPI DUP1 PUSH4 0x79388E41 EQ PUSH2 0x36B JUMPI PUSH0 DUP1 REVERT JUMPDEST DUP1 PUSH4 0x40193883 EQ PUSH2 0x2A4 JUMPI DUP1 PUSH4 0x4A79D50C EQ PUSH2 0x2B9 JUMPI DUP1 PUSH4 0x6136F6CF EQ PUSH2 0x2DA JUMPI PUSH0 DUP1 REVERT JUMPDEST DUP1 PUSH4 0x29DCB0CF GT PUSH2 0x182 JUMPI DUP1 PUSH4 0x29DCB0CF EQ PUSH2 0x24E JUMPI DUP1 PUSH4 0x32CB25BE EQ PUSH2 0x263 JUMPI DUP1 PUSH4 0x3CCFD60B EQ PUSH2 0x290 JUMPI PUSH0 DUP1 REVERT JUMPDEST DUP1 PUSH4 0x7EC3174 EQ PUSH2 0x1BA JUMPI DUP1 PUSH4 0xD43E8AD EQ PUSH2 0x1F8 JUMPI DUP1 PUSH4 0x21D29038 EQ PUSH2 0x22F JUMPI PUSH0 DUP1 REVERT JUMPDEST CALLDATASIZE PUSH2 0x1B6 JUMPI PUSH2 0x1B4 PUSH2 0x51F JUMP JUMPDEST STOP JUMPDEST PUSH0 DUP1 REVERT JUMPDEST CALLVALUE DUP1 ISZERO PUSH2 0x1C5 JUMPI PUSH0 DUP1 REVERT JUMPDEST POP PUSH2 0x1E5 PUSH2 0x1D4 CALLDATASIZE PUSH1 0x4 PUSH2 0x116B JUMP JUMPDEST PUSH1 0xA PUSH1 0x20 MSTORE PUSH0 SWAP1 DUP2 MSTORE PUSH1 0x40 SWAP1 KECCAK256 SLOAD DUP2 JUMP JUMPDEST PUSH1 0x40 MLOAD SWAP1 DUP2 MSTORE PUSH1 0x20 ADD JUMPDEST PUSH1 0x40 MLOAD DUP1 SWAP2 SUB SWAP1 RETURN JUMPDEST CALLVALUE DUP1 ISZERO PUSH2 0x203 JUMPI PUSH0 DUP1 REVERT JUMPDEST POP PUSH1 0x4 SLOAD PUSH2 0x217 SWAP1 PUSH1 0x1 PUSH1 0x1 PUSH1 0xA0 SHL SUB AND DUP2 JUMP JUMPDEST PUSH1 0x40 MLOAD PUSH1 0x1 PUSH1 0x1 PUSH1 0xA0 SHL SUB SWAP1 SWAP2 AND DUP2 MSTORE PUSH1 0x20 ADD PUSH2 0x1EF JUMP JUMPDEST CALLVALUE DUP1 ISZERO PUSH2 0x23A JUMPI PUSH0 DUP1 REVERT JUMPDEST POP PUSH2 0x1B4 PUSH2 0x249 CALLDATASIZE PUSH1 0x4 PUSH2 0x118B JUMP JUMPDEST PUSH2 0x616 JUMP JUMPDEST CALLVALUE DUP1 ISZERO PUSH2 0x259 JUMPI PUSH0 DUP1 REVERT JUMPDEST POP PUSH2 0x1E5 PUSH1 0x2 SLOAD DUP2 JUMP JUMPDEST CALLVALUE DUP1 ISZERO PUSH2 0x26E JUMPI PUSH0 DUP1 REVERT JUMPDEST POP PUSH2 0x282 PUSH2 0x27D CALLDATASIZE PUSH1 0x4 PUSH2 0x11F7 JUMP JUMPDEST PUSH2 0x75F JUMP JUMPDEST PUSH1 0x40 MLOAD PUSH2 0x1EF SWAP3 SWAP2 SWAP1 PUSH2 0x123C JUMP JUMPDEST CALLVALUE DUP1 ISZERO PUSH2 0x29B JUMPI PUSH0 DUP1 REVERT JUMPDEST POP PUSH2 0x1B4 PUSH2 0x87F JUMP JUMPDEST CALLVALUE DUP1 ISZERO PUSH2 0x2AF JUMPI PUSH0 DUP1 REVERT JUMPDEST POP PUSH2 0x1E5 PUSH1 0x1 SLOAD DUP2 JUMP JUMPDEST CALLVALUE DUP1 ISZERO PUSH2 0x2C4 JUMPI PUSH0 DUP1 REVERT JUMPDEST POP PUSH2 0x2CD PUSH2 0xB21 JUMP JUMPDEST PUSH1 0x40 MLOAD PUSH2 0x1EF SWAP2 SWAP1 PUSH2 0x125D JUMP JUMPDEST CALLVALUE DUP1 ISZERO PUSH2 0x2E5 JUMPI PUSH0 DUP1 REVERT JUMPDEST POP PUSH2 0x1B4 PUSH2 0x2F4 CALLDATASIZE PUSH1 0x4 PUSH2 0x116B JUMP JUMPDEST PUSH2 0xBAD JUMP JUMPDEST CALLVALUE DUP1 ISZERO PUSH2 0x304 JUMPI PUSH0 DUP1 REVERT JUMPDEST POP PUSH2 0x1B4 PUSH2 0x313 CALLDATASIZE PUSH1 0x4 PUSH2 0x126F JUMP JUMPDEST PUSH2 0xC9F JUMP JUMPDEST CALLVALUE DUP1 ISZERO PUSH2 0x323 JUMPI PUSH0 DUP1 REVERT JUMPDEST POP PUSH1 0xB SLOAD PUSH1 0x3 SLOAD PUSH1 0x1 PUSH1 0x1 PUSH1 0xA0 SHL SUB AND PUSH0 SWAP1 DUP2 MSTORE PUSH1 0xA PUSH1 0x20 MSTORE PUSH1 0x40 SWAP1 KECCAK256 SLOAD JUMPDEST PUSH1 0x40 DUP1 MLOAD SWAP3 DUP4 MSTORE PUSH1 0x20 DUP4 ADD SWAP2 SWAP1 SWAP2 MSTORE ADD PUSH2 0x1EF JUMP JUMPDEST CALLVALUE DUP1 ISZERO PUSH2 0x362 JUMPI PUSH0 DUP1 REVERT JUMPDEST POP PUSH2 0x2CD PUSH2 0xEB4 JUMP JUMPDEST CALLVALUE DUP1 ISZERO PUSH2 0x376 JUMPI PUSH0 DUP1 REVERT JUMPDEST POP PUSH2 0x1B4 PUSH2 0x385 CALLDATASIZE PUSH1 0x4 PUSH2 0x116B JUMP JUMPDEST PUSH2 0xEC1 JUMP JUMPDEST PUSH2 0x1B4 PUSH2 0x51F JUMP JUMPDEST CALLVALUE DUP1 ISZERO PUSH2 0x39D JUMPI PUSH0 DUP1 REVERT JUMPDEST POP PUSH0 SLOAD PUSH2 0x217 SWAP1 PUSH1 0x1 PUSH1 0x1 PUSH1 0xA0 SHL SUB AND DUP2 JUMP JUMPDEST CALLVALUE DUP1 ISZERO PUSH2 0x3BB JUMPI PUSH0 DUP1 REVERT JUMPDEST POP PUSH2 0x342 PUSH2 0xF28 JUMP JUMPDEST CALLVALUE DUP1 ISZERO PUSH2 0x3CF JUMPI PUSH0 DUP1 REVERT JUMPDEST POP PUSH2 0x1E5 PUSH2 0x3DE CALLDATASIZE PUSH1 0x4 PUSH2 0x11F7 JUMP JUMPDEST PUSH2 0xFC2 JUMP JUMPDEST CALLVALUE DUP1 ISZERO PUSH2 0x3EE JUMPI PUSH0 DUP1 REVERT JUMPDEST POP PUSH2 0x2CD PUSH2 0xFE1 JUMP JUMPDEST CALLVALUE DUP1 ISZERO PUSH2 0x402 JUMPI PUSH0 DUP1 REVERT JUMPDEST POP PUSH2 0x217 PUSH2 0x411 CALLDATASIZE PUSH1 0x4 PUSH2 0x11F7 JUMP JUMPDEST PUSH2 0xFEE JUMP JUMPDEST CALLVALUE DUP1 ISZERO PUSH2 0x421 JUMPI PUSH0 DUP1 REVERT JUMPDEST POP PUSH2 0x2CD PUSH2 0x430 CALLDATASIZE PUSH1 0x4 PUSH2 0x11F7 JUMP JUMPDEST PUSH2 0x1016 JUMP JUMPDEST CALLVALUE DUP1 ISZERO PUSH2 0x440 JUMPI PUSH0 DUP1 REVERT JUMPDEST POP PUSH1 0xD SLOAD PUSH2 0x1E5 JUMP JUMPDEST CALLVALUE DUP1 ISZERO PUSH2 0x454 JUMPI PUSH0 DUP1 REVERT JUMPDEST POP PUSH2 0x1E5 PUSH1 0xB SLOAD DUP2 JUMP JUMPDEST CALLVALUE DUP1 ISZERO PUSH2 0x469 JUMPI PUSH0 DUP1 REVERT JUMPDEST POP PUSH2 0x1E5 PUSH2 0x478 CALLDATASIZE PUSH1 0x4 PUSH2 0x116B JUMP JUMPDEST PUSH1 0x8 PUSH1 0x20 MSTORE PUSH0 SWAP1 DUP2 MSTORE PUSH1 0x40 SWAP1 KECCAK256 SLOAD DUP2 JUMP JUMPDEST CALLVALUE DUP1 ISZERO PUSH2 0x494 JUMPI PUSH0 DUP1 REVERT JUMPDEST POP PUSH2 0x1B4 PUSH2 0x4A3 CALLDATASIZE PUSH1 0x4 PUSH2 0x1297 JUMP JUMPDEST PUSH2 0x103D JUMP JUMPDEST CALLVALUE DUP1 ISZERO PUSH2 0x4B3 JUMPI PUSH0 DUP1 REVERT JUMPDEST POP PUSH1 0x2 SLOAD TIMESTAMP LT ISZERO PUSH1 0x40 MLOAD SWAP1 ISZERO ISZERO DUP2 MSTORE PUSH1 0x20 ADD PUSH2 0x1EF JUMP JUMPDEST CALLVALUE DUP1 ISZERO PUSH2 0x4D5 JUMPI PUSH0 DUP1 REVERT JUMPDEST POP PUSH2 0x1E5 PUSH2 0x4E4 CALLDATASIZE PUSH1 0x4 PUSH2 0x1297 JUMP JUMPDEST PUSH1 0x9 PUSH1 0x20 SWAP1 DUP2 MSTORE PUSH0 SWAP3 DUP4 MSTORE PUSH1 0x40 DUP1 DUP5 KECCAK256 SWAP1 SWAP2 MSTORE SWAP1 DUP3 MSTORE SWAP1 KECCAK256 SLOAD DUP2 JUMP JUMPDEST CALLVALUE DUP1 ISZERO PUSH2 0x50B JUMPI PUSH0 DUP1 REVERT JUMPDEST POP PUSH1 0x3 SLOAD PUSH2 0x217 SWAP1 PUSH1 0x1 PUSH1 0x1 PUSH1 0xA0 SHL SUB AND DUP2 JUMP JUMPDEST PUSH1 0x2 SLOAD TIMESTAMP LT PUSH2 0x566 JUMPI PUSH1 0x40 MLOAD PUSH3 0x461BCD PUSH1 0xE5 SHL DUP2 MSTORE PUSH1 0x20 PUSH1 0x4 DUP3 ADD MSTORE PUSH1 0xE PUSH1 0x24 DUP3 ADD MSTORE PUSH14 0x10D85B5C185A59DB88195B991959 PUSH1 0x92 SHL PUSH1 0x44 DUP3 ADD MSTORE PUSH1 0x64 ADD JUMPDEST PUSH1 0x40 MLOAD DUP1 SWAP2 SUB SWAP1 REVERT JUMPDEST PUSH0 CALLVALUE GT PUSH2 0x5B5 JUMPI PUSH1 0x40 MLOAD PUSH3 0x461BCD PUSH1 0xE5 SHL DUP2 MSTORE PUSH1 0x20 PUSH1 0x4 DUP3 ADD MSTORE PUSH1 0xB PUSH1 0x24 DUP3 ADD MSTORE PUSH32 0x4E6F204554482073656E74000000000000000000000000000000000000000000 PUSH1 0x44 DUP3 ADD MSTORE PUSH1 0x64 ADD PUSH2 0x55D JUMP JUMPDEST PUSH0 PUSH1 0x64 PUSH2 0x5C3 CALLVALUE PUSH1 0x2 PUSH2 0x12DC JUMP JUMPDEST PUSH2 0x5CD SWAP2 SWAP1 PUSH2 0x12F9 JUMP JUMPDEST SWAP1 POP DUP1 PUSH1 0xB PUSH0 DUP3 DUP3 SLOAD PUSH2 0x5E0 SWAP2 SWAP1 PUSH2 0x1318 JUMP JUMPDEST SWAP1 SWAP2 SSTORE POP PUSH2 0x5F0 SWAP1 POP DUP2 CALLVALUE PUSH2 0x132B JUMP JUMPDEST CALLER PUSH0 SWAP1 DUP2 MSTORE PUSH1 0x8 PUSH1 0x20 MSTORE PUSH1 0x40 DUP2 KECCAK256 DUP1 SLOAD SWAP1 SWAP2 SWAP1 PUSH2 0x60E SWAP1 DUP5 SWAP1 PUSH2 0x1318 JUMP JUMPDEST SWAP1 SWAP2 SSTORE POP POP POP JUMP JUMPDEST PUSH0 SLOAD PUSH1 0x1 PUSH1 0x1 PUSH1 0xA0 SHL SUB AND CALLER EQ PUSH2 0x65B JUMPI PUSH1 0x40 MLOAD PUSH3 0x461BCD PUSH1 0xE5 SHL DUP2 MSTORE PUSH1 0x20 PUSH1 0x4 DUP3 ADD MSTORE PUSH1 0x9 PUSH1 0x24 DUP3 ADD MSTORE PUSH9 0x2737BA1037BBB732B9 PUSH1 0xB9 SHL PUSH1 0x44 DUP3 ADD MSTORE PUSH1 0x64 ADD PUSH2 0x55D JUMP JUMPDEST PUSH1 0xC DUP1 SLOAD PUSH1 0x1 DUP2 DUP2 ADD SWAP1 SWAP3 SSTORE PUSH32 0xDF6966C971051C3D54EC59162606531493A51404A002842F56009D7E5CF4A8C7 ADD DUP1 SLOAD PUSH32 0xFFFFFFFFFFFFFFFFFFFFFFFF0000000000000000000000000000000000000000 AND CALLER OR SWAP1 SSTORE PUSH1 0xD DUP1 SLOAD SWAP2 DUP3 ADD DUP2 SSTORE PUSH0 MSTORE PUSH32 0xD7B6990105719101DABEB77144F2A3385C8033ACD3AF97E9423A695E81AD1EB5 ADD PUSH2 0x6E9 DUP3 DUP5 DUP4 PUSH2 0x13D5 JUMP JUMPDEST POP PUSH1 0xE DUP1 SLOAD PUSH1 0x1 DUP2 ADD DUP3 SSTORE PUSH0 SWAP2 SWAP1 SWAP2 MSTORE TIMESTAMP PUSH32 0xBB7B4A454DC3493923482F07822329ED19E8244EFF582CC204F8554C3620C3FD SWAP1 SWAP2 ADD DUP2 SWAP1 SSTORE PUSH1 0x40 MLOAD PUSH32 0x795D961EDBC9E83A9C6D46E7E54AE3BE27574CFBC69A1ECA98133687155C24B0 SWAP2 PUSH2 0x753 SWAP2 DUP6 SWAP2 DUP6 SWAP2 PUSH2 0x148F JUMP JUMPDEST PUSH1 0x40 MLOAD DUP1 SWAP2 SUB SWAP1 LOG1 POP POP JUMP JUMPDEST PUSH1 0xD SLOAD PUSH1 0x60 SWAP1 PUSH0 SWAP1 DUP4 LT PUSH2 0x7B5 JUMPI PUSH1 0x40 MLOAD PUSH3 0x461BCD PUSH1 0xE5 SHL DUP2 MSTORE PUSH1 0x20 PUSH1 0x4 DUP3 ADD MSTORE PUSH1 0xD PUSH1 0x24 DUP3 ADD MSTORE PUSH32 0x496E76616C696420696E64657800000000000000000000000000000000000000 PUSH1 0x44 DUP3 ADD MSTORE PUSH1 0x64 ADD PUSH2 0x55D JUMP JUMPDEST PUSH1 0xD DUP4 DUP2 SLOAD DUP2 LT PUSH2 0x7C8 JUMPI PUSH2 0x7C8 PUSH2 0x14C6 JUMP JUMPDEST SWAP1 PUSH0 MSTORE PUSH1 0x20 PUSH0 KECCAK256 ADD PUSH1 0xE DUP5 DUP2 SLOAD DUP2 LT PUSH2 0x7E3 JUMPI PUSH2 0x7E3 PUSH2 0x14C6 JUMP JUMPDEST SWAP1 PUSH0 MSTORE PUSH1 0x20 PUSH0 KECCAK256 ADD SLOAD DUP2 DUP1 SLOAD PUSH2 0x7F8 SWAP1 PUSH2 0x1352 JUMP JUMPDEST DUP1 PUSH1 0x1F ADD PUSH1 0x20 DUP1 SWAP2 DIV MUL PUSH1 0x20 ADD PUSH1 0x40 MLOAD SWAP1 DUP2 ADD PUSH1 0x40 MSTORE DUP1 SWAP3 SWAP2 SWAP1 DUP2 DUP2 MSTORE PUSH1 0x20 ADD DUP3 DUP1 SLOAD PUSH2 0x824 SWAP1 PUSH2 0x1352 JUMP JUMPDEST DUP1 ISZERO PUSH2 0x86F JUMPI DUP1 PUSH1 0x1F LT PUSH2 0x846 JUMPI PUSH2 0x100 DUP1 DUP4 SLOAD DIV MUL DUP4 MSTORE SWAP2 PUSH1 0x20 ADD SWAP2 PUSH2 0x86F JUMP JUMPDEST DUP3 ADD SWAP2 SWAP1 PUSH0 MSTORE PUSH1 0x20 PUSH0 KECCAK256 SWAP1 JUMPDEST DUP2 SLOAD DUP2 MSTORE SWAP1 PUSH1 0x1 ADD SWAP1 PUSH1 0x20 ADD DUP1 DUP4 GT PUSH2 0x852 JUMPI DUP3 SWAP1 SUB PUSH1 0x1F AND DUP3 ADD SWAP2 JUMPDEST POP POP POP POP POP SWAP2 POP SWAP2 POP SWAP2 POP SWAP2 POP SWAP2 JUMP JUMPDEST PUSH0 SLOAD PUSH1 0x1 PUSH1 0x1 PUSH1 0xA0 SHL SUB AND CALLER EQ PUSH2 0x8C4 JUMPI PUSH1 0x40 MLOAD PUSH3 0x461BCD PUSH1 0xE5 SHL DUP2 MSTORE PUSH1 0x20 PUSH1 0x4 DUP3 ADD MSTORE PUSH1 0x9 PUSH1 0x24 DUP3 ADD MSTORE PUSH9 0x2737BA1037BBB732B9 PUSH1 0xB9 SHL PUSH1 0x44 DUP3 ADD MSTORE PUSH1 0x64 ADD PUSH2 0x55D JUMP JUMPDEST PUSH1 0x2 SLOAD TIMESTAMP LT ISZERO PUSH2 0x916 JUMPI PUSH1 0x40 MLOAD PUSH3 0x461BCD PUSH1 0xE5 SHL DUP2 MSTORE PUSH1 0x20 PUSH1 0x4 DUP3 ADD MSTORE PUSH1 0x12 PUSH1 0x24 DUP3 ADD MSTORE PUSH32 0x43616D706169676E206E6F7420656E6465640000000000000000000000000000 PUSH1 0x44 DUP3 ADD MSTORE PUSH1 0x64 ADD PUSH2 0x55D JUMP JUMPDEST PUSH0 PUSH1 0xB SLOAD SELFBALANCE PUSH2 0x925 SWAP2 SWAP1 PUSH2 0x132B JUMP JUMPDEST PUSH1 0x3 SLOAD PUSH1 0x1 PUSH1 0x1 PUSH1 0xA0 SHL SUB AND PUSH0 DUP2 DUP2 MSTORE PUSH1 0xA PUSH1 0x20 MSTORE PUSH1 0x40 DUP1 DUP3 KECCAK256 SLOAD SWAP1 MLOAD PUSH4 0x70A08231 PUSH1 0xE0 SHL DUP2 MSTORE ADDRESS PUSH1 0x4 DUP3 ADD MSTORE SWAP4 SWAP5 POP SWAP1 SWAP3 SWAP1 SWAP2 SWAP1 PUSH4 0x70A08231 SWAP1 PUSH1 0x24 ADD PUSH1 0x20 PUSH1 0x40 MLOAD DUP1 DUP4 SUB DUP2 DUP7 GAS STATICCALL ISZERO DUP1 ISZERO PUSH2 0x97E JUMPI RETURNDATASIZE PUSH0 DUP1 RETURNDATACOPY RETURNDATASIZE PUSH0 REVERT JUMPDEST POP POP POP POP PUSH1 0x40 MLOAD RETURNDATASIZE PUSH1 0x1F NOT PUSH1 0x1F DUP3 ADD AND DUP3 ADD DUP1 PUSH1 0x40 MSTORE POP DUP2 ADD SWAP1 PUSH2 0x9A2 SWAP2 SWAP1 PUSH2 0x14DA JUMP JUMPDEST PUSH2 0x9AC SWAP2 SWAP1 PUSH2 0x132B JUMP JUMPDEST SWAP1 POP PUSH1 0x1 DUP1 DUP4 ISZERO PUSH2 0xA0C JUMPI PUSH0 DUP1 SLOAD PUSH1 0x40 MLOAD PUSH1 0x1 PUSH1 0x1 PUSH1 0xA0 SHL SUB SWAP1 SWAP2 AND SWAP2 DUP7 SWAP2 SWAP1 DUP2 DUP2 DUP2 DUP6 DUP8 GAS CALL SWAP3 POP POP POP RETURNDATASIZE DUP1 PUSH0 DUP2 EQ PUSH2 0xA01 JUMPI PUSH1 0x40 MLOAD SWAP2 POP PUSH1 0x1F NOT PUSH1 0x3F RETURNDATASIZE ADD AND DUP3 ADD PUSH1 0x40 MSTORE RETURNDATASIZE DUP3 MSTORE RETURNDATASIZE PUSH0 PUSH1 0x20 DUP5 ADD RETURNDATACOPY PUSH2 0xA06 JUMP JUMPDEST PUSH1 0x60 SWAP2 POP JUMPDEST POP SWAP1 SWAP3 POP POP JUMPDEST DUP3 ISZERO PUSH2 0xA8A JUMPI PUSH1 0x3 SLOAD PUSH0 SLOAD PUSH1 0x40 MLOAD PUSH4 0xA9059CBB PUSH1 0xE0 SHL DUP2 MSTORE PUSH1 0x1 PUSH1 0x1 PUSH1 0xA0 SHL SUB SWAP2 DUP3 AND PUSH1 0x4 DUP3 ADD MSTORE PUSH1 0x24 DUP2 ADD DUP7 SWAP1 MSTORE SWAP2 AND SWAP1 PUSH4 0xA9059CBB SWAP1 PUSH1 0x44 ADD PUSH1 0x20 PUSH1 0x40 MLOAD DUP1 DUP4 SUB DUP2 PUSH0 DUP8 GAS CALL ISZERO DUP1 ISZERO PUSH2 0xA63 JUMPI RETURNDATASIZE PUSH0 DUP1 RETURNDATACOPY RETURNDATASIZE PUSH0 REVERT JUMPDEST POP POP POP POP PUSH1 0x40 MLOAD RETURNDATASIZE PUSH1 0x1F NOT PUSH1 0x1F DUP3 ADD AND DUP3 ADD DUP1 PUSH1 0x40 MSTORE POP DUP2 ADD SWAP1 PUSH2 0xA87 SWAP2 SWAP1 PUSH2 0x14F1 JUMP JUMPDEST SWAP1 POP JUMPDEST PUSH1 0x40 DUP1 MLOAD DUP4 ISZERO ISZERO DUP2 MSTORE DUP3 ISZERO ISZERO PUSH1 0x20 DUP3 ADD MSTORE PUSH32 0xEDAF6307DD03CF2213C8CF4C3154D20DBF80B44BB80B206B6381109881DB78E7 SWAP2 ADD PUSH1 0x40 MLOAD DUP1 SWAP2 SUB SWAP1 LOG1 DUP2 DUP1 PUSH2 0xACF JUMPI POP DUP1 JUMPDEST PUSH2 0xB1B JUMPI PUSH1 0x40 MLOAD PUSH3 0x461BCD PUSH1 0xE5 SHL DUP2 MSTORE PUSH1 0x20 PUSH1 0x4 DUP3 ADD MSTORE PUSH1 0x11 PUSH1 0x24 DUP3 ADD MSTORE PUSH32 0x4E6F7468696E672077697468647261776E000000000000000000000000000000 PUSH1 0x44 DUP3 ADD MSTORE PUSH1 0x64 ADD PUSH2 0x55D JUMP JUMPDEST POP POP POP POP JUMP JUMPDEST PUSH1 0x5 DUP1 SLOAD PUSH2 0xB2E SWAP1 PUSH2 0x1352 JUMP JUMPDEST DUP1 PUSH1 0x1F ADD PUSH1 0x20 DUP1 SWAP2 DIV MUL PUSH1 0x20 ADD PUSH1 0x40 MLOAD SWAP1 DUP2 ADD PUSH1 0x40 MSTORE DUP1 SWAP3 SWAP2 SWAP1 DUP2 DUP2 MSTORE PUSH1 0x20 ADD DUP3 DUP1 SLOAD PUSH2 0xB5A SWAP1 PUSH2 0x1352 JUMP JUMPDEST DUP1 ISZERO PUSH2 0xBA5 JUMPI DUP1 PUSH1 0x1F LT PUSH2 0xB7C JUMPI PUSH2 0x100 DUP1 DUP4 SLOAD DIV MUL DUP4 MSTORE SWAP2 PUSH1 0x20 ADD SWAP2 PUSH2 0xBA5 JUMP JUMPDEST DUP3 ADD SWAP2 SWAP1 PUSH0 MSTORE PUSH1 0x20 PUSH0 KECCAK256 SWAP1 JUMPDEST DUP2 SLOAD DUP2 MSTORE SWAP1 PUSH1 0x1 ADD SWAP1 PUSH1 0x20 ADD DUP1 DUP4 GT PUSH2 0xB88 JUMPI DUP3 SWAP1 SUB PUSH1 0x1F AND DUP3 ADD SWAP2 JUMPDEST POP POP POP POP POP DUP2 JUMP JUMPDEST PUSH0 SLOAD PUSH1 0x1 PUSH1 0x1 PUSH1 0xA0 SHL SUB AND CALLER EQ PUSH2 0xBF2 JUMPI PUSH1 0x40 MLOAD PUSH3 0x461BCD PUSH1 0xE5 SHL DUP2 MSTORE PUSH1 0x20 PUSH1 0x4 DUP3 ADD MSTORE PUSH1 0x9 PUSH1 0x24 DUP3 ADD MSTORE PUSH9 0x2737BA1037BBB732B9 PUSH1 0xB9 SHL PUSH1 0x44 DUP3 ADD MSTORE PUSH1 0x64 ADD PUSH2 0x55D JUMP JUMPDEST PUSH1 0xB DUP1 SLOAD PUSH0 SWAP2 DUP3 SWAP1 SSTORE PUSH1 0x40 MLOAD SWAP1 SWAP2 SWAP1 PUSH1 0x1 PUSH1 0x1 PUSH1 0xA0 SHL SUB DUP5 AND SWAP1 DUP4 SWAP1 DUP4 DUP2 DUP2 DUP2 DUP6 DUP8 GAS CALL SWAP3 POP POP POP RETURNDATASIZE DUP1 PUSH0 DUP2 EQ PUSH2 0xC44 JUMPI PUSH1 0x40 MLOAD SWAP2 POP PUSH1 0x1F NOT PUSH1 0x3F RETURNDATASIZE ADD AND DUP3 ADD PUSH1 0x40 MSTORE RETURNDATASIZE DUP3 MSTORE RETURNDATASIZE PUSH0 PUSH1 0x20 DUP5 ADD RETURNDATACOPY PUSH2 0xC49 JUMP JUMPDEST PUSH1 0x60 SWAP2 POP JUMPDEST POP POP SWAP1 POP DUP1 PUSH2 0xC9A JUMPI PUSH1 0x40 MLOAD PUSH3 0x461BCD PUSH1 0xE5 SHL DUP2 MSTORE PUSH1 0x20 PUSH1 0x4 DUP3 ADD MSTORE PUSH1 0x17 PUSH1 0x24 DUP3 ADD MSTORE PUSH32 0x45544820666565207472616E73666572206661696C6564000000000000000000 PUSH1 0x44 DUP3 ADD MSTORE PUSH1 0x64 ADD PUSH2 0x55D JUMP JUMPDEST POP POP POP JUMP JUMPDEST PUSH1 0x2 SLOAD TIMESTAMP LT PUSH2 0xCE1 JUMPI PUSH1 0x40 MLOAD PUSH3 0x461BCD PUSH1 0xE5 SHL DUP2 MSTORE PUSH1 0x20 PUSH1 0x4 DUP3 ADD MSTORE PUSH1 0xE PUSH1 0x24 DUP3 ADD MSTORE PUSH14 0x10D85B5C185A59DB88195B991959 PUSH1 0x92 SHL PUSH1 0x44 DUP3 ADD MSTORE PUSH1 0x64 ADD PUSH2 0x55D JUMP JUMPDEST PUSH0 DUP2 GT PUSH2 0xD30 JUMPI PUSH1 0x40 MLOAD PUSH3 0x461BCD PUSH1 0xE5 SHL DUP2 MSTORE PUSH1 0x20 PUSH1 0x4 DUP3 ADD MSTORE PUSH1 0xE PUSH1 0x24 DUP3 ADD MSTORE PUSH32 0x4E6F20746F6B656E732073656E74000000000000000000000000000000000000 PUSH1 0x44 DUP3 ADD MSTORE PUSH1 0x64 ADD PUSH2 0x55D JUMP JUMPDEST PUSH1 0x3 SLOAD PUSH0 SWAP1 PUSH1 0x1 PUSH1 0x1 PUSH1 0xA0 SHL SUB DUP5 DUP2 AND SWAP2 AND EQ PUSH2 0xD63 JUMPI PUSH1 0x64 PUSH2 0xD54 DUP4 PUSH1 0x2 PUSH2 0x12DC JUMP JUMPDEST PUSH2 0xD5E SWAP2 SWAP1 PUSH2 0x12F9 JUMP JUMPDEST PUSH2 0xD7B JUMP JUMPDEST PUSH2 0x3E8 PUSH2 0xD71 DUP4 PUSH1 0x5 PUSH2 0x12DC JUMP JUMPDEST PUSH2 0xD7B SWAP2 SWAP1 PUSH2 0x12F9 JUMP JUMPDEST SWAP1 POP PUSH0 PUSH2 0xD88 DUP3 DUP5 PUSH2 0x132B JUMP JUMPDEST PUSH1 0x40 MLOAD PUSH4 0x23B872DD PUSH1 0xE0 SHL DUP2 MSTORE CALLER PUSH1 0x4 DUP3 ADD MSTORE ADDRESS PUSH1 0x24 DUP3 ADD MSTORE PUSH1 0x44 DUP2 ADD DUP6 SWAP1 MSTORE SWAP1 SWAP2 POP PUSH1 0x1 PUSH1 0x1 PUSH1 0xA0 SHL SUB DUP6 AND SWAP1 PUSH4 0x23B872DD SWAP1 PUSH1 0x64 ADD PUSH1 0x20 PUSH1 0x40 MLOAD DUP1 DUP4 SUB DUP2 PUSH0 DUP8 GAS CALL ISZERO DUP1 ISZERO PUSH2 0xDDB JUMPI RETURNDATASIZE PUSH0 DUP1 RETURNDATACOPY RETURNDATASIZE PUSH0 REVERT JUMPDEST POP POP POP POP PUSH1 0x40 MLOAD RETURNDATASIZE PUSH1 0x1F NOT PUSH1 0x1F DUP3 ADD AND DUP3 ADD DUP1 PUSH1 0x40 MSTORE POP DUP2 ADD SWAP1 PUSH2 0xDFF SWAP2 SWAP1 PUSH2 0x14F1 JUMP JUMPDEST PUSH2 0xE4B JUMPI PUSH1 0x40 MLOAD PUSH3 0x461BCD PUSH1 0xE5 SHL DUP2 MSTORE PUSH1 0x20 PUSH1 0x4 DUP3 ADD MSTORE PUSH1 0xF PUSH1 0x24 DUP3 ADD MSTORE PUSH32 0x5472616E73666572206661696C65640000000000000000000000000000000000 PUSH1 0x44 DUP3 ADD MSTORE PUSH1 0x64 ADD PUSH2 0x55D JUMP JUMPDEST PUSH1 0x1 PUSH1 0x1 PUSH1 0xA0 SHL SUB DUP5 AND PUSH0 SWAP1 DUP2 MSTORE PUSH1 0xA PUSH1 0x20 MSTORE PUSH1 0x40 DUP2 KECCAK256 DUP1 SLOAD DUP5 SWAP3 SWAP1 PUSH2 0xE72 SWAP1 DUP5 SWAP1 PUSH2 0x1318 JUMP JUMPDEST SWAP1 SWAP2 SSTORE POP POP CALLER PUSH0 SWAP1 DUP2 MSTORE PUSH1 0x9 PUSH1 0x20 SWAP1 DUP2 MSTORE PUSH1 0x40 DUP1 DUP4 KECCAK256 PUSH1 0x1 PUSH1 0x1 PUSH1 0xA0 SHL SUB DUP9 AND DUP5 MSTORE SWAP1 SWAP2 MSTORE DUP2 KECCAK256 DUP1 SLOAD DUP4 SWAP3 SWAP1 PUSH2 0xEA9 SWAP1 DUP5 SWAP1 PUSH2 0x1318 JUMP JUMPDEST SWAP1 SWAP2 SSTORE POP POP POP POP POP POP JUMP JUMPDEST PUSH1 0x6 DUP1 SLOAD PUSH2 0xB2E SWAP1 PUSH2 0x1352 JUMP JUMPDEST PUSH0 SLOAD PUSH1 0x1 PUSH1 0x1 PUSH1 0xA0 SHL SUB AND CALLER EQ PUSH2 0xF06 JUMPI PUSH1 0x40 MLOAD PUSH3 0x461BCD PUSH1 0xE5 SHL DUP2 MSTORE PUSH1 0x20 PUSH1 0x4 DUP3 ADD MSTORE PUSH1 0x9 PUSH1 0x24 DUP3 ADD MSTORE PUSH9 0x2737BA1037BBB732B9 PUSH1 0xB9 SHL PUSH1 0x44 DUP3 ADD MSTORE PUSH1 0x64 ADD PUSH2 0x55D JUMP JUMPDEST PUSH2 0xF0F DUP2 PUSH2 0xBAD JUMP JUMPDEST PUSH1 0x3 SLOAD PUSH2 0xF25 SWAP1 PUSH1 0x1 PUSH1 0x1 PUSH1 0xA0 SHL SUB AND DUP3 PUSH2 0x103D JUMP JUMPDEST POP JUMP JUMPDEST PUSH0 DUP1 PUSH1 0xB SLOAD SELFBALANCE PUSH2 0xF38 SWAP2 SWAP1 PUSH2 0x132B JUMP JUMPDEST PUSH1 0x3 SLOAD PUSH1 0x1 PUSH1 0x1 PUSH1 0xA0 SHL SUB AND PUSH0 DUP2 DUP2 MSTORE PUSH1 0xA PUSH1 0x20 MSTORE PUSH1 0x40 SWAP1 DUP2 SWAP1 KECCAK256 SLOAD SWAP1 MLOAD PUSH4 0x70A08231 PUSH1 0xE0 SHL DUP2 MSTORE ADDRESS PUSH1 0x4 DUP3 ADD MSTORE SWAP3 SWAP5 POP SWAP2 PUSH4 0x70A08231 SWAP1 PUSH1 0x24 ADD PUSH1 0x20 PUSH1 0x40 MLOAD DUP1 DUP4 SUB DUP2 DUP7 GAS STATICCALL ISZERO DUP1 ISZERO PUSH2 0xF8E JUMPI RETURNDATASIZE PUSH0 DUP1 RETURNDATACOPY RETURNDATASIZE PUSH0 REVERT JUMPDEST POP POP POP POP PUSH1 0x40 MLOAD RETURNDATASIZE PUSH1 0x1F NOT PUSH1 0x1F DUP3 ADD AND DUP3 ADD DUP1 PUSH1 0x40 MSTORE POP DUP2 ADD SWAP1 PUSH2 0xFB2 SWAP2 SWAP1 PUSH2 0x14DA JUMP JUMPDEST PUSH2 0xFBC SWAP2 SWAP1 PUSH2 0x132B JUMP JUMPDEST SWAP1 POP SWAP1 SWAP2 JUMP JUMPDEST PUSH1 0xE DUP2 DUP2 SLOAD DUP2 LT PUSH2 0xFD1 JUMPI PUSH0 DUP1 REVERT JUMPDEST PUSH0 SWAP2 DUP3 MSTORE PUSH1 0x20 SWAP1 SWAP2 KECCAK256 ADD SLOAD SWAP1 POP DUP2 JUMP JUMPDEST PUSH1 0x7 DUP1 SLOAD PUSH2 0xB2E SWAP1 PUSH2 0x1352 JUMP JUMPDEST PUSH1 0xC DUP2 DUP2 SLOAD DUP2 LT PUSH2 0xFFD JUMPI PUSH0 DUP1 REVERT JUMPDEST PUSH0 SWAP2 DUP3 MSTORE PUSH1 0x20 SWAP1 SWAP2 KECCAK256 ADD SLOAD PUSH1 0x1 PUSH1 0x1 PUSH1 0xA0 SHL SUB AND SWAP1 POP DUP2 JUMP JUMPDEST PUSH1 0xD DUP2 DUP2 SLOAD DUP2 LT PUSH2 0x1025 JUMPI PUSH0 DUP1 REVERT JUMPDEST SWAP1 PUSH0 MSTORE PUSH1 0x20 PUSH0 KECCAK256 ADD PUSH0 SWAP2 POP SWAP1 POP DUP1 SLOAD PUSH2 0xB2E SWAP1 PUSH2 0x1352 JUMP JUMPDEST PUSH0 SLOAD PUSH1 0x1 PUSH1 0x1 PUSH1 0xA0 SHL SUB AND CALLER EQ PUSH2 0x1082 JUMPI PUSH1 0x40 MLOAD PUSH3 0x461BCD PUSH1 0xE5 SHL DUP2 MSTORE PUSH1 0x20 PUSH1 0x4 DUP3 ADD MSTORE PUSH1 0x9 PUSH1 0x24 DUP3 ADD MSTORE PUSH9 0x2737BA1037BBB732B9 PUSH1 0xB9 SHL PUSH1 0x44 DUP3 ADD MSTORE PUSH1 0x64 ADD PUSH2 0x55D JUMP JUMPDEST PUSH1 0x1 PUSH1 0x1 PUSH1 0xA0 SHL SUB DUP3 DUP2 AND PUSH0 DUP2 DUP2 MSTORE PUSH1 0xA PUSH1 0x20 MSTORE PUSH1 0x40 DUP1 DUP3 KECCAK256 DUP1 SLOAD SWAP3 SWAP1 SSTORE MLOAD PUSH4 0xA9059CBB PUSH1 0xE0 SHL DUP2 MSTORE SWAP3 DUP5 AND PUSH1 0x4 DUP5 ADD MSTORE PUSH1 0x24 DUP4 ADD DUP2 SWAP1 MSTORE SWAP2 PUSH4 0xA9059CBB SWAP1 PUSH1 0x44 ADD PUSH1 0x20 PUSH1 0x40 MLOAD DUP1 DUP4 SUB DUP2 PUSH0 DUP8 GAS CALL ISZERO DUP1 ISZERO PUSH2 0x10E0 JUMPI RETURNDATASIZE PUSH0 DUP1 RETURNDATACOPY RETURNDATASIZE PUSH0 REVERT JUMPDEST POP POP POP POP PUSH1 0x40 MLOAD RETURNDATASIZE PUSH1 0x1F NOT PUSH1 0x1F DUP3 ADD AND DUP3 ADD DUP1 PUSH1 0x40 MSTORE POP DUP2 ADD SWAP1 PUSH2 0x1104 SWAP2 SWAP1 PUSH2 0x14F1 JUMP JUMPDEST PUSH2 0xC9A JUMPI PUSH1 0x40 MLOAD PUSH3 0x461BCD PUSH1 0xE5 SHL DUP2 MSTORE PUSH1 0x20 PUSH1 0x4 DUP3 ADD MSTORE PUSH1 0x19 PUSH1 0x24 DUP3 ADD MSTORE PUSH32 0x546F6B656E20666565207472616E73666572206661696C656400000000000000 PUSH1 0x44 DUP3 ADD MSTORE PUSH1 0x64 ADD PUSH2 0x55D JUMP JUMPDEST DUP1 CALLDATALOAD PUSH1 0x1 PUSH1 0x1 PUSH1 0xA0 SHL SUB DUP2 AND DUP2 EQ PUSH2 0x1166 JUMPI PUSH0 DUP1 REVERT JUMPDEST SWAP2 SWAP1 POP JUMP JUMPDEST PUSH0 PUSH1 0x20 DUP3 DUP5 SUB SLT ISZERO PUSH2 0x117B JUMPI PUSH0 DUP1 REVERT JUMPDEST PUSH2 0x1184 DUP3 PUSH2 0x1150 JUMP JUMPDEST SWAP4 SWAP3 POP POP POP JUMP JUMPDEST PUSH0 DUP1 PUSH1 0x20 DUP4 DUP6 SUB SLT ISZERO PUSH2 0x119C JUMPI PUSH0 DUP1 REVERT JUMPDEST DUP3 CALLDATALOAD PUSH8 0xFFFFFFFFFFFFFFFF DUP1 DUP3 GT ISZERO PUSH2 0x11B3 JUMPI PUSH0 DUP1 REVERT JUMPDEST DUP2 DUP6 ADD SWAP2 POP DUP6 PUSH1 0x1F DUP4 ADD SLT PUSH2 0x11C6 JUMPI PUSH0 DUP1 REVERT JUMPDEST DUP2 CALLDATALOAD DUP2 DUP2 GT ISZERO PUSH2 0x11D4 JUMPI PUSH0 DUP1 REVERT JUMPDEST DUP7 PUSH1 0x20 DUP3 DUP6 ADD ADD GT ISZERO PUSH2 0x11E5 JUMPI PUSH0 DUP1 REVERT JUMPDEST PUSH1 0x20 SWAP3 SWAP1 SWAP3 ADD SWAP7 SWAP2 SWAP6 POP SWAP1 SWAP4 POP POP POP POP JUMP JUMPDEST PUSH0 PUSH1 0x20 DUP3 DUP5 SUB SLT ISZERO PUSH2 0x1207 JUMPI PUSH0 DUP1 REVERT JUMPDEST POP CALLDATALOAD SWAP2 SWAP1 POP JUMP JUMPDEST PUSH0 DUP2 MLOAD DUP1 DUP5 MSTORE DUP1 PUSH1 0x20 DUP5 ADD PUSH1 0x20 DUP7 ADD MCOPY PUSH0 PUSH1 0x20 DUP3 DUP7 ADD ADD MSTORE PUSH1 0x20 PUSH1 0x1F NOT PUSH1 0x1F DUP4 ADD AND DUP6 ADD ADD SWAP2 POP POP SWAP3 SWAP2 POP POP JUMP JUMPDEST PUSH1 0x40 DUP2 MSTORE PUSH0 PUSH2 0x124E PUSH1 0x40 DUP4 ADD DUP6 PUSH2 0x120E JUMP JUMPDEST SWAP1 POP DUP3 PUSH1 0x20 DUP4 ADD MSTORE SWAP4 SWAP3 POP POP POP JUMP JUMPDEST PUSH1 0x20 DUP2 MSTORE PUSH0 PUSH2 0x1184 PUSH1 0x20 DUP4 ADD DUP5 PUSH2 0x120E JUMP JUMPDEST PUSH0 DUP1 PUSH1 0x40 DUP4 DUP6 SUB SLT ISZERO PUSH2 0x1280 JUMPI PUSH0 DUP1 REVERT JUMPDEST PUSH2 0x1289 DUP4 PUSH2 0x1150 JUMP JUMPDEST SWAP5 PUSH1 0x20 SWAP4 SWAP1 SWAP4 ADD CALLDATALOAD SWAP4 POP POP POP JUMP JUMPDEST PUSH0 DUP1 PUSH1 0x40 DUP4 DUP6 SUB SLT ISZERO PUSH2 0x12A8 JUMPI PUSH0 DUP1 REVERT JUMPDEST PUSH2 0x12B1 DUP4 PUSH2 0x1150 JUMP JUMPDEST SWAP2 POP PUSH2 0x12BF PUSH1 0x20 DUP5 ADD PUSH2 0x1150 JUMP JUMPDEST SWAP1 POP SWAP3 POP SWAP3 SWAP1 POP JUMP JUMPDEST PUSH4 0x4E487B71 PUSH1 0xE0 SHL PUSH0 MSTORE PUSH1 0x11 PUSH1 0x4 MSTORE PUSH1 0x24 PUSH0 REVERT JUMPDEST DUP1 DUP3 MUL DUP2 ISZERO DUP3 DUP3 DIV DUP5 EQ OR PUSH2 0x12F3 JUMPI PUSH2 0x12F3 PUSH2 0x12C8 JUMP JUMPDEST SWAP3 SWAP2 POP POP JUMP JUMPDEST PUSH0 DUP3 PUSH2 0x1313 JUMPI PUSH4 0x4E487B71 PUSH1 0xE0 SHL PUSH0 MSTORE PUSH1 0x12 PUSH1 0x4 MSTORE PUSH1 0x24 PUSH0 REVERT JUMPDEST POP DIV SWAP1 JUMP JUMPDEST DUP1 DUP3 ADD DUP1 DUP3 GT ISZERO PUSH2 0x12F3 JUMPI PUSH2 0x12F3 PUSH2 0x12C8 JUMP JUMPDEST DUP2 DUP2 SUB DUP2 DUP2 GT ISZERO PUSH2 0x12F3 JUMPI PUSH2 0x12F3 PUSH2 0x12C8 JUMP JUMPDEST PUSH4 0x4E487B71 PUSH1 0xE0 SHL PUSH0 MSTORE PUSH1 0x41 PUSH1 0x4 MSTORE PUSH1 0x24 PUSH0 REVERT JUMPDEST PUSH1 0x1 DUP2 DUP2 SHR SWAP1 DUP3 AND DUP1 PUSH2 0x1366 JUMPI PUSH1 0x7F DUP3 AND SWAP2 POP JUMPDEST PUSH1 0x20 DUP3 LT DUP2 SUB PUSH2 0x1384 JUMPI PUSH4 0x4E487B71 PUSH1 0xE0 SHL PUSH0 MSTORE PUSH1 0x22 PUSH1 0x4 MSTORE PUSH1 0x24 PUSH0 REVERT JUMPDEST POP SWAP2 SWAP1 POP JUMP JUMPDEST PUSH1 0x1F DUP3 GT ISZERO PUSH2 0xC9A JUMPI DUP1 PUSH0 MSTORE PUSH1 0x20 PUSH0 KECCAK256 PUSH1 0x1F DUP5 ADD PUSH1 0x5 SHR DUP2 ADD PUSH1 0x20 DUP6 LT ISZERO PUSH2 0x13AF JUMPI POP DUP1 JUMPDEST PUSH1 0x1F DUP5 ADD PUSH1 0x5 SHR DUP3 ADD SWAP2 POP JUMPDEST DUP2 DUP2 LT ISZERO PUSH2 0x13CE JUMPI PUSH0 DUP2 SSTORE PUSH1 0x1 ADD PUSH2 0x13BB JUMP JUMPDEST POP POP POP POP POP JUMP JUMPDEST PUSH8 0xFFFFFFFFFFFFFFFF DUP4 GT ISZERO PUSH2 0x13ED JUMPI PUSH2 0x13ED PUSH2 0x133E JUMP JUMPDEST PUSH2 0x1401 DUP4 PUSH2 0x13FB DUP4 SLOAD PUSH2 0x1352 JUMP JUMPDEST DUP4 PUSH2 0x138A JUMP JUMPDEST PUSH0 PUSH1 0x1F DUP5 GT PUSH1 0x1 DUP2 EQ PUSH2 0x1432 JUMPI PUSH0 DUP6 ISZERO PUSH2 0x141B JUMPI POP DUP4 DUP3 ADD CALLDATALOAD JUMPDEST PUSH0 NOT PUSH1 0x3 DUP8 SWAP1 SHL SHR NOT AND PUSH1 0x1 DUP7 SWAP1 SHL OR DUP4 SSTORE PUSH2 0x13CE JUMP JUMPDEST PUSH0 DUP4 DUP2 MSTORE PUSH1 0x20 DUP2 KECCAK256 PUSH1 0x1F NOT DUP8 AND SWAP2 JUMPDEST DUP3 DUP2 LT ISZERO PUSH2 0x1461 JUMPI DUP7 DUP6 ADD CALLDATALOAD DUP3 SSTORE PUSH1 0x20 SWAP5 DUP6 ADD SWAP5 PUSH1 0x1 SWAP1 SWAP3 ADD SWAP2 ADD PUSH2 0x1441 JUMP JUMPDEST POP DUP7 DUP3 LT ISZERO PUSH2 0x147D JUMPI PUSH0 NOT PUSH1 0xF8 DUP9 PUSH1 0x3 SHL AND SHR NOT DUP5 DUP8 ADD CALLDATALOAD AND DUP2 SSTORE JUMPDEST POP POP PUSH1 0x1 DUP6 PUSH1 0x1 SHL ADD DUP4 SSTORE POP POP POP POP POP JUMP JUMPDEST PUSH1 0x40 DUP2 MSTORE DUP3 PUSH1 0x40 DUP3 ADD MSTORE DUP3 DUP5 PUSH1 0x60 DUP4 ADD CALLDATACOPY PUSH0 PUSH1 0x60 DUP5 DUP4 ADD ADD MSTORE PUSH0 PUSH1 0x60 PUSH1 0x1F NOT PUSH1 0x1F DUP7 ADD AND DUP4 ADD ADD SWAP1 POP DUP3 PUSH1 0x20 DUP4 ADD MSTORE SWAP5 SWAP4 POP POP POP POP JUMP JUMPDEST PUSH4 0x4E487B71 PUSH1 0xE0 SHL PUSH0 MSTORE PUSH1 0x32 PUSH1 0x4 MSTORE PUSH1 0x24 PUSH0 REVERT JUMPDEST PUSH0 PUSH1 0x20 DUP3 DUP5 SUB SLT ISZERO PUSH2 0x14EA JUMPI PUSH0 DUP1 REVERT JUMPDEST POP MLOAD SWAP2 SWAP1 POP JUMP JUMPDEST PUSH0 PUSH1 0x20 DUP3 DUP5 SUB SLT ISZERO PUSH2 0x1501 JUMPI PUSH0 DUP1 REVERT JUMPDEST DUP2 MLOAD DUP1 ISZERO ISZERO DUP2 EQ PUSH2 0x1184 JUMPI PUSH0 DUP1 REVERT INVALID LOG2 PUSH5 0x6970667358 0x22 SLT KECCAK256 0x4E 0xC6 0xD7 0xE8 SWAP7 0xC9 0xAA PUSH2 0x2269 SHR DIV 0x4E BYTE 0xCA 0xD1 CALLER CHAINID DUP16 0x27 ISZERO GASLIMIT BLOBHASH 0xCD 0xED 0xD7 0xAF PUSH2 0x324F 0xF8 JUMPDEST PUSH5 0x736F6C6343 STOP ADDMOD NOT STOP CALLER "
    },
    "gasEstimates": {
      "creation": {
        "codeDepositCost": "1089200",
        "executionCost": "infinite",
        "totalCost": "infinite"
      },
      "external": {
        "collectAllFees(address)": "infinite",
        "collectETHFees(address)": "infinite",
        "collectTokenFees(address,address)": "infinite",
        "deadline()": "2329",
        "description()": "infinite",
        "donateETH()": "infinite",
        "donateToken(address,uint256)": "infinite",
        "ethContributions(address)": "2594",
        "ethFeesCollected()": "2350",
        "feeDistributor()": "2405",
        "flwToken()": "2446",
        "getFeeBalances()": "6660",
        "getUpdate(uint256)": "infinite",
        "getUpdateCount()": "2325",
        "getWithdrawableAmount()": "infinite",
        "goal()": "2329",
        "hasEnded()": "2359",
        "imageUrl()": "infinite",
        "owner()": "2403",
        "postUpdate(string)": "infinite",
        "title()": "infinite",
        "tokenContributions(address,address)": "infinite",
        "tokenFeesCollected(address)": "2552",
        "updateMessages(uint256)": "infinite",
        "updateTimestamps(uint256)": "4606",
        "updates(uint256)": "4700",
        "withdraw()": "infinite"
      }
    },
    "methodIdentifiers": {
      "collectAllFees(address)": "79388e41",
      "collectETHFees(address)": "6136f6cf",
      "collectTokenFees(address,address)": "e98798e8",
      "deadline()": "29dcb0cf",
      "description()": "7284e416",
      "donateETH()": "8b4c40b0",
      "donateToken(address,uint256)": "71a6acf2",
      "ethContributions(address)": "e730395a",
      "ethFeesCollected()": "e27cc5d9",
      "feeDistributor()": "0d43e8ad",
      "flwToken()": "f2e76d7b",
      "getFeeBalances()": "7273b736",
      "getUpdate(uint256)": "32cb25be",
      "getUpdateCount()": "c52ed534",
      "getWithdrawableAmount()": "90be10cc",
      "goal()": "40193883",
      "hasEnded()": "ecb70fb7",
      "imageUrl()": "aba83150",
      "owner()": "8da5cb5b",
      "postUpdate(string)": "21d29038",
      "title()": "4a79d50c",
      "tokenContributions(address,address)": "efdf762a",
      "tokenFeesCollected(address)": "07ec3174",
      "updateMessages(uint256)": "bca856ad",
      "updateTimestamps(uint256)": "a035531b",
      "updates(uint256)": "b4c2f727",
      "withdraw()": "3ccfd60b"
    }
  },
  "storageLayout": {
    "storage": [
      {
        "astId": 2241,
        "contract": "Campaign_1751751092126.sol:Campaign",
        "label": "owner",
        "offset": 0,
        "slot": "0",
        "type": "t_address"
      },
      {
        "astId": 2243,
        "contract": "Campaign_1751751092126.sol:Campaign",
        "label": "goal",
        "offset": 0,
        "slot": "1",
        "type": "t_uint256"
      },
      {
        "astId": 2245,
        "contract": "Campaign_1751751092126.sol:Campaign",
        "label": "deadline",
        "offset": 0,
        "slot": "2",
        "type": "t_uint256"
      },
      {
        "astId": 2247,
        "contract": "Campaign_1751751092126.sol:Campaign",
        "label": "flwToken",
        "offset": 0,
        "slot": "3",
        "type": "t_address"
      },
      {
        "astId": 2249,
        "contract": "Campaign_1751751092126.sol:Campaign",
        "label": "feeDistributor",
        "offset": 0,
        "slot": "4",
        "type": "t_address"
      },
      {
        "astId": 2251,
        "contract": "Campaign_1751751092126.sol:Campaign",
        "label": "title",
        "offset": 0,
        "slot": "5",
        "type": "t_string_storage"
      },
      {
        "astId": 2253,
        "contract": "Campaign_1751751092126.sol:Campaign",
        "label": "description",
        "offset": 0,
        "slot": "6",
        "type": "t_string_storage"
      },
      {
        "astId": 2255,
        "contract": "Campaign_1751751092126.sol:Campaign",
        "label": "imageUrl",
        "offset": 0,
        "slot": "7",
        "type": "t_string_storage"
      },
      {
        "astId": 2259,
        "contract": "Campaign_1751751092126.sol:Campaign",
        "label": "ethContributions",
        "offset": 0,
        "slot": "8",
        "type": "t_mapping(t_address,t_uint256)"
      },
      {
        "astId": 2265,
        "contract": "Campaign_1751751092126.sol:Campaign",
        "label": "tokenContributions",
        "offset": 0,
        "slot": "9",
        "type": "t_mapping(t_address,t_mapping(t_address,t_uint256))"
      },
      {
        "astId": 2269,
        "contract": "Campaign_1751751092126.sol:Campaign",
        "label": "tokenFeesCollected",
        "offset": 0,
        "slot": "10",
        "type": "t_mapping(t_address,t_uint256)"
      },
      {
        "astId": 2271,
        "contract": "Campaign_1751751092126.sol:Campaign",
        "label": "ethFeesCollected",
        "offset": 0,
        "slot": "11",
        "type": "t_uint256"
      },
      {
        "astId": 2274,
        "contract": "Campaign_1751751092126.sol:Campaign",
        "label": "updates",
        "offset": 0,
        "slot": "12",
        "type": "t_array(t_address)dyn_storage"
      },
      {
        "astId": 2277,
        "contract": "Campaign_1751751092126.sol:Campaign",
        "label": "updateMessages",
        "offset": 0,
        "slot": "13",
        "type": "t_array(t_string_storage)dyn_storage"
      },
      {
        "astId": 2280,
        "contract": "Campaign_1751751092126.sol:Campaign",
        "label": "updateTimestamps",
        "offset": 0,
        "slot": "14",
        "type": "t_array(t_uint256)dyn_storage"
      }
    ],
    "types": {
      "t_address": {
        "encoding": "inplace",
        "label": "address",
        "numberOfBytes": "20"
      },
      "t_array(t_address)dyn_storage": {
        "base": "t_address",
        "encoding": "dynamic_array",
        "label": "address[]",
        "numberOfBytes": "32"
      },
      "t_array(t_string_storage)dyn_storage": {
        "base": "t_string_storage",
        "encoding": "dynamic_array",
        "label": "string[]",
        "numberOfBytes": "32"
      },
      "t_array(t_uint256)dyn_storage": {
        "base": "t_uint256",
        "encoding": "dynamic_array",
        "label": "uint256[]",
        "numberOfBytes": "32"
      },
      "t_mapping(t_address,t_mapping(t_address,t_uint256))": {
        "encoding": "mapping",
        "key": "t_address",
        "label": "mapping(address => mapping(address => uint256))",
        "numberOfBytes": "32",
        "value": "t_mapping(t_address,t_uint256)"
      },
      "t_mapping(t_address,t_uint256)": {
        "encoding": "mapping",
        "key": "t_address",
        "label": "mapping(address => uint256)",
        "numberOfBytes": "32",
        "value": "t_uint256"
      },
      "t_string_storage": {
        "encoding": "bytes",
        "label": "string",
        "numberOfBytes": "32"
      },
      "t_uint256": {
        "encoding": "inplace",
        "label": "uint256",
        "numberOfBytes": "32"
      }
    }
  },
  "userdoc": {
    "kind": "user",
    "methods": {},
    "version": 1
  }
}