{
  "abi": [
    {
      "inputs": [
        {
          "internalType": "address",
          "name": "_campaignOwner",
          "type": "address"
        },
        {
          "internalType": "uint256",
          "name": "_goal",
          "type": "uint256"
        },
        {
          "internalType": "uint256",
          "name": "_duration",
          "type": "uint256"
        },
        {
          "internalType": "address",
          "name": "_flwToken",
          "type": "address"
        },
        {
          "internalType": "address",
          "name": "_feeDistributor",
          "type": "address"
        },
        {
          "internalType": "string",
          "name": "_title",
          "type": "string"
        },
        {
          "internalType": "string",
          "name": "_description",
          "type": "string"
        },
        {
          "internalType": "string",
          "name": "_imageUrl",
          "type": "string"
        }
      ],
      "stateMutability": "nonpayable",
      "type": "constructor"
    },
    {
      "anonymous": false,
      "inputs": [
        {
          "indexed": false,
          "internalType": "string",
          "name": "message",
          "type": "string"
        },
        {
          "indexed": false,
          "internalType": "uint256",
          "name": "timestamp",
          "type": "uint256"
        }
      ],
      "name": "UpdatePosted",
      "type": "event"
    },
    {
      "anonymous": false,
      "inputs": [
        {
          "indexed": true,
          "internalType": "address",
          "name": "owner",
          "type": "address"
        },
        {
          "indexed": false,
          "internalType": "uint256",
          "name": "ethAmount",
          "type": "uint256"
        },
        {
          "indexed": false,
          "internalType": "uint256",
          "name": "tokenAmount",
          "type": "uint256"
        }
      ],
      "name": "WithdrawAttempt",
      "type": "event"
    },
    {
      "anonymous": false,
      "inputs": [
        {
          "indexed": false,
          "internalType": "bool",
          "name": "ethSent",
          "type": "bool"
        },
        {
          "indexed": false,
          "internalType": "bool",
          "name": "tokenSent",
          "type": "bool"
        }
      ],
      "name": "WithdrawSuccess",
      "type": "event"
    },
    {
      "inputs": [],
      "name": "campaignOwner",
      "outputs": [
        {
          "internalType": "address",
          "name": "",
          "type": "address"
        }
      ],
      "stateMutability": "view",
      "type": "function"
    },
    {
      "inputs": [
        {
          "internalType": "address",
          "name": "to",
          "type": "address"
        }
      ],
      "name": "collectAllFees",
      "outputs": [],
      "stateMutability": "nonpayable",
      "type": "function"
    },
    {
      "inputs": [
        {
          "internalType": "address",
          "name": "to",
          "type": "address"
        }
      ],
      "name": "collectETHFees",
      "outputs": [],
      "stateMutability": "nonpayable",
      "type": "function"
    },
    {
      "inputs": [
        {
          "internalType": "address",
          "name": "token",
          "type": "address"
        },
        {
          "internalType": "address",
          "name": "to",
          "type": "address"
        }
      ],
      "name": "collectTokenFees",
      "outputs": [],
      "stateMutability": "nonpayable",
      "type": "function"
    },
    {
      "inputs": [],
      "name": "deadline",
      "outputs": [
        {
          "internalType": "uint256",
          "name": "",
          "type": "uint256"
        }
      ],
      "stateMutability": "view",
      "type": "function"
    },
    {
      "inputs": [],
      "name": "description",
      "outputs": [
        {
          "internalType": "string",
          "name": "",
          "type": "string"
        }
      ],
      "stateMutability": "view",
      "type": "function"
    },
    {
      "inputs": [],
      "name": "donateETH",
      "outputs": [],
      "stateMutability": "payable",
      "type": "function"
    },
    {
      "inputs": [
        {
          "internalType": "address",
          "name": "token",
          "type": "address"
        },
        {
          "internalType": "uint256",
          "name": "amount",
          "type": "uint256"
        }
      ],
      "name": "donateToken",
      "outputs": [],
      "stateMutability": "nonpayable",
      "type": "function"
    },
    {
      "inputs": [
        {
          "internalType": "address",
          "name": "",
          "type": "address"
        }
      ],
      "name": "ethContributions",
      "outputs": [
        {
          "internalType": "uint256",
          "name": "",
          "type": "uint256"
        }
      ],
      "stateMutability": "view",
      "type": "function"
    },
    {
      "inputs": [],
      "name": "ethFeesCollected",
      "outputs": [
        {
          "internalType": "uint256",
          "name": "",
          "type": "uint256"
        }
      ],
      "stateMutability": "view",
      "type": "function"
    },
    {
      "inputs": [],
      "name": "factory",
      "outputs": [
        {
          "internalType": "address",
          "name": "",
          "type": "address"
        }
      ],
      "stateMutability": "view",
      "type": "function"
    },
    {
      "inputs": [],
      "name": "feeDistributor",
      "outputs": [
        {
          "internalType": "address",
          "name": "",
          "type": "address"
        }
      ],
      "stateMutability": "view",
      "type": "function"
    },
    {
      "inputs": [],
      "name": "flwToken",
      "outputs": [
        {
          "internalType": "address",
          "name": "",
          "type": "address"
        }
      ],
      "stateMutability": "view",
      "type": "function"
    },
    {
      "inputs": [],
      "name": "getDeadline",
      "outputs": [
        {
          "internalType": "uint256",
          "name": "",
          "type": "uint256"
        }
      ],
      "stateMutability": "view",
      "type": "function"
    },
    {
      "inputs": [],
      "name": "getDescription",
      "outputs": [
        {
          "internalType": "string",
          "name": "",
          "type": "string"
        }
      ],
      "stateMutability": "view",
      "type": "function"
    },
    {
      "inputs": [],
      "name": "getFactory",
      "outputs": [
        {
          "internalType": "address",
          "name": "",
          "type": "address"
        }
      ],
      "stateMutability": "view",
      "type": "function"
    },
    {
      "inputs": [],
      "name": "getFeeBalances",
      "outputs": [
        {
          "internalType": "uint256",
          "name": "ethFees",
          "type": "uint256"
        },
        {
          "internalType": "uint256",
          "name": "flwFees",
          "type": "uint256"
        }
      ],
      "stateMutability": "view",
      "type": "function"
    },
    {
      "inputs": [],
      "name": "getGoal",
      "outputs": [
        {
          "internalType": "uint256",
          "name": "",
          "type": "uint256"
        }
      ],
      "stateMutability": "view",
      "type": "function"
    },
    {
      "inputs": [],
      "name": "getImageUrl",
      "outputs": [
        {
          "internalType": "string",
          "name": "",
          "type": "string"
        }
      ],
      "stateMutability": "view",
      "type": "function"
    },
    {
      "inputs": [],
      "name": "getTitle",
      "outputs": [
        {
          "internalType": "string",
          "name": "",
          "type": "string"
        }
      ],
      "stateMutability": "view",
      "type": "function"
    },
    {
      "inputs": [],
      "name": "getTotalBalance",
      "outputs": [
        {
          "internalType": "uint256",
          "name": "ethBalance",
          "type": "uint256"
        },
        {
          "internalType": "uint256",
          "name": "flwBalance",
          "type": "uint256"
        }
      ],
      "stateMutability": "view",
      "type": "function"
    },
    {
      "inputs": [
        {
          "internalType": "uint256",
          "name": "index",
          "type": "uint256"
        }
      ],
      "name": "getUpdate",
      "outputs": [
        {
          "internalType": "string",
          "name": "",
          "type": "string"
        },
        {
          "internalType": "uint256",
          "name": "",
          "type": "uint256"
        }
      ],
      "stateMutability": "view",
      "type": "function"
    },
    {
      "inputs": [],
      "name": "getUpdateCount",
      "outputs": [
        {
          "internalType": "uint256",
          "name": "",
          "type": "uint256"
        }
      ],
      "stateMutability": "view",
      "type": "function"
    },
    {
      "inputs": [],
      "name": "getWithdrawableAmount",
      "outputs": [
        {
          "internalType": "uint256",
          "name": "ethAmount",
          "type": "uint256"
        },
        {
          "internalType": "uint256",
          "name": "flwAmount",
          "type": "uint256"
        }
      ],
      "stateMutability": "view",
      "type": "function"
    },
    {
      "inputs": [],
      "name": "goal",
      "outputs": [
        {
          "internalType": "uint256",
          "name": "",
          "type": "uint256"
        }
      ],
      "stateMutability": "view",
      "type": "function"
    },
    {
      "inputs": [],
      "name": "hasEnded",
      "outputs": [
        {
          "internalType": "bool",
          "name": "",
          "type": "bool"
        }
      ],
      "stateMutability": "view",
      "type": "function"
    },
    {
      "inputs": [],
      "name": "imageUrl",
      "outputs": [
        {
          "internalType": "string",
          "name": "",
          "type": "string"
        }
      ],
      "stateMutability": "view",
      "type": "function"
    },
    {
      "inputs": [],
      "name": "isActive",
      "outputs": [
        {
          "internalType": "bool",
          "name": "",
          "type": "bool"
        }
      ],
      "stateMutability": "view",
      "type": "function"
    },
    {
      "inputs": [],
      "name": "owner",
      "outputs": [
        {
          "internalType": "address",
          "name": "",
          "type": "address"
        }
      ],
      "stateMutability": "view",
      "type": "function"
    },
    {
      "inputs": [
        {
          "internalType": "string",
          "name": "message",
          "type": "string"
        }
      ],
      "name": "postUpdate",
      "outputs": [],
      "stateMutability": "nonpayable",
      "type": "function"
    },
    {
      "inputs": [],
      "name": "title",
      "outputs": [
        {
          "internalType": "string",
          "name": "",
          "type": "string"
        }
      ],
      "stateMutability": "view",
      "type": "function"
    },
    {
      "inputs": [
        {
          "internalType": "address",
          "name": "",
          "type": "address"
        },
        {
          "internalType": "address",
          "name": "",
          "type": "address"
        }
      ],
      "name": "tokenContributions",
      "outputs": [
        {
          "internalType": "uint256",
          "name": "",
          "type": "uint256"
        }
      ],
      "stateMutability": "view",
      "type": "function"
    },
    {
      "inputs": [
        {
          "internalType": "address",
          "name": "",
          "type": "address"
        }
      ],
      "name": "tokenFeesCollected",
      "outputs": [
        {
          "internalType": "uint256",
          "name": "",
          "type": "uint256"
        }
      ],
      "stateMutability": "view",
      "type": "function"
    },
    {
      "inputs": [
        {
          "internalType": "uint256",
          "name": "",
          "type": "uint256"
        }
      ],
      "name": "updateMessages",
      "outputs": [
        {
          "internalType": "string",
          "name": "",
          "type": "string"
        }
      ],
      "stateMutability": "view",
      "type": "function"
    },
    {
      "inputs": [
        {
          "internalType": "uint256",
          "name": "",
          "type": "uint256"
        }
      ],
      "name": "updateTimestamps",
      "outputs": [
        {
          "internalType": "uint256",
          "name": "",
          "type": "uint256"
        }
      ],
      "stateMutability": "view",
      "type": "function"
    },
    {
      "inputs": [
        {
          "internalType": "uint256",
          "name": "",
          "type": "uint256"
        }
      ],
      "name": "updates",
      "outputs": [
        {
          "internalType": "address",
          "name": "",
          "type": "address"
        }
      ],
      "stateMutability": "view",
      "type": "function"
    },
    {
      "inputs": [],
      "name": "withdraw",
      "outputs": [],
      "stateMutability": "nonpayable",
      "type": "function"
    },
    {
      "stateMutability": "payable",
      "type": "receive"
    }
  ],
  "devdoc": {
    "kind": "dev",
    "methods": {},
    "version": 1
  },
  "evm": {
    "assembly": "    /* \"Campaign-Fixed-v4.sol\":337:7364  contract Campaign {... */\n  mstore(0x40, 0x80)\n    /* \"Campaign-Fixed-v4.sol\":1501:2430  constructor(... */\n  callvalue\n  dup1\n  iszero\n  tag_1\n  jumpi\n  0x00\n  dup1\n  revert\ntag_1:\n  pop\n  mload(0x40)\n  sub(codesize, bytecodeSize)\n  dup1\n  bytecodeSize\n  dup4\n  codecopy\n  dup2\n  add\n  0x40\n  dup2\n  swap1\n  mstore\n  tag_2\n  swap2\n  tag_3\n  jump\t// in\ntag_2:\n  sub(shl(0xa0, 0x01), 0x01)\n    /* \"Campaign-Fixed-v4.sol\":1778:1806  _campaignOwner != address(0) */\n  dup9\n  and\n    /* \"Campaign-Fixed-v4.sol\":1770:1834  require(_campaignOwner != address(0), \"Campaign owner required\") */\n  tag_6\n  jumpi\n  mload(0x40)\n  shl(0xe5, 0x461bcd)\n  dup2\n  mstore\n    /* \"#utility.yul\":2404:2406   */\n  0x20\n    /* \"Campaign-Fixed-v4.sol\":1770:1834  require(_campaignOwner != address(0), \"Campaign owner required\") */\n  0x04\n  dup3\n  add\n    /* \"#utility.yul\":2386:2407   */\n  mstore\n    /* \"#utility.yul\":2443:2445   */\n  0x17\n    /* \"#utility.yul\":2423:2441   */\n  0x24\n  dup3\n  add\n    /* \"#utility.yul\":2416:2446   */\n  mstore\n    /* \"#utility.yul\":2482:2507   */\n  0x43616d706169676e206f776e6572207265717569726564000000000000000000\n    /* \"#utility.yul\":2462:2480   */\n  0x44\n  dup3\n  add\n    /* \"#utility.yul\":2455:2508   */\n  mstore\n    /* \"#utility.yul\":2525:2543   */\n  0x64\n  add\n    /* \"Campaign-Fixed-v4.sol\":1770:1834  require(_campaignOwner != address(0), \"Campaign owner required\") */\ntag_7:\n  mload(0x40)\n  dup1\n  swap2\n  sub\n  swap1\n  revert\ntag_6:\n    /* \"Campaign-Fixed-v4.sol\":1860:1861  0 */\n  0x00\n    /* \"Campaign-Fixed-v4.sol\":1852:1857  _goal */\n  dup8\n    /* \"Campaign-Fixed-v4.sol\":1852:1861  _goal > 0 */\n  gt\n    /* \"Campaign-Fixed-v4.sol\":1844:1882  require(_goal > 0, \"Goal must be > 0\") */\n  tag_9\n  jumpi\n  mload(0x40)\n  shl(0xe5, 0x461bcd)\n  dup2\n  mstore\n    /* \"#utility.yul\":2756:2758   */\n  0x20\n    /* \"Campaign-Fixed-v4.sol\":1844:1882  require(_goal > 0, \"Goal must be > 0\") */\n  0x04\n  dup3\n  add\n    /* \"#utility.yul\":2738:2759   */\n  mstore\n    /* \"#utility.yul\":2795:2797   */\n  0x10\n    /* \"#utility.yul\":2775:2793   */\n  0x24\n  dup3\n  add\n    /* \"#utility.yul\":2768:2798   */\n  mstore\n  shl(0x84, 0x0476f616c206d757374206265203e203)\n    /* \"#utility.yul\":2814:2832   */\n  0x44\n  dup3\n  add\n    /* \"#utility.yul\":2807:2853   */\n  mstore\n    /* \"#utility.yul\":2870:2888   */\n  0x64\n  add\n    /* \"Campaign-Fixed-v4.sol\":1844:1882  require(_goal > 0, \"Goal must be > 0\") */\n  tag_7\n    /* \"#utility.yul\":2554:2894   */\n  jump\n    /* \"Campaign-Fixed-v4.sol\":1844:1882  require(_goal > 0, \"Goal must be > 0\") */\ntag_9:\n    /* \"Campaign-Fixed-v4.sol\":1912:1913  0 */\n  0x00\n    /* \"Campaign-Fixed-v4.sol\":1900:1909  _duration */\n  dup7\n    /* \"Campaign-Fixed-v4.sol\":1900:1913  _duration > 0 */\n  gt\n    /* \"Campaign-Fixed-v4.sol\":1892:1935  require(_duration > 0, \"Duration required\") */\n  tag_12\n  jumpi\n  mload(0x40)\n  shl(0xe5, 0x461bcd)\n  dup2\n  mstore\n    /* \"#utility.yul\":3101:3103   */\n  0x20\n    /* \"Campaign-Fixed-v4.sol\":1892:1935  require(_duration > 0, \"Duration required\") */\n  0x04\n  dup3\n  add\n    /* \"#utility.yul\":3083:3104   */\n  mstore\n    /* \"#utility.yul\":3140:3142   */\n  0x11\n    /* \"#utility.yul\":3120:3138   */\n  0x24\n  dup3\n  add\n    /* \"#utility.yul\":3113:3143   */\n  mstore\n  shl(0x7a, 0x111d5c985d1a5bdb881c995c5d5a5c9959)\n    /* \"#utility.yul\":3159:3177   */\n  0x44\n  dup3\n  add\n    /* \"#utility.yul\":3152:3199   */\n  mstore\n    /* \"#utility.yul\":3216:3234   */\n  0x64\n  add\n    /* \"Campaign-Fixed-v4.sol\":1892:1935  require(_duration > 0, \"Duration required\") */\n  tag_7\n    /* \"#utility.yul\":2899:3240   */\n  jump\n    /* \"Campaign-Fixed-v4.sol\":1892:1935  require(_duration > 0, \"Duration required\") */\ntag_12:\n  sub(shl(0xa0, 0x01), 0x01)\n    /* \"Campaign-Fixed-v4.sol\":1953:1976  _flwToken != address(0) */\n  dup6\n  and\n    /* \"Campaign-Fixed-v4.sol\":1945:1999  require(_flwToken != address(0), \"FLW token required\") */\n  tag_15\n  jumpi\n  mload(0x40)\n  shl(0xe5, 0x461bcd)\n  dup2\n  mstore\n    /* \"#utility.yul\":3447:3449   */\n  0x20\n    /* \"Campaign-Fixed-v4.sol\":1945:1999  require(_flwToken != address(0), \"FLW token required\") */\n  0x04\n  dup3\n  add\n    /* \"#utility.yul\":3429:3450   */\n  mstore\n    /* \"#utility.yul\":3486:3488   */\n  0x12\n    /* \"#utility.yul\":3466:3484   */\n  0x24\n  dup3\n  add\n    /* \"#utility.yul\":3459:3489   */\n  mstore\n  shl(0x72, 0x119315c81d1bdad95b881c995c5d5a5c9959)\n    /* \"#utility.yul\":3505:3523   */\n  0x44\n  dup3\n  add\n    /* \"#utility.yul\":3498:3546   */\n  mstore\n    /* \"#utility.yul\":3563:3581   */\n  0x64\n  add\n    /* \"Campaign-Fixed-v4.sol\":1945:1999  require(_flwToken != address(0), \"FLW token required\") */\n  tag_7\n    /* \"#utility.yul\":3245:3587   */\n  jump\n    /* \"Campaign-Fixed-v4.sol\":1945:1999  require(_flwToken != address(0), \"FLW token required\") */\ntag_15:\n  sub(shl(0xa0, 0x01), 0x01)\n    /* \"Campaign-Fixed-v4.sol\":2017:2046  _feeDistributor != address(0) */\n  dup5\n  and\n    /* \"Campaign-Fixed-v4.sol\":2009:2074  require(_feeDistributor != address(0), \"FeeDistributor required\") */\n  tag_18\n  jumpi\n  mload(0x40)\n  shl(0xe5, 0x461bcd)\n  dup2\n  mstore\n    /* \"#utility.yul\":3794:3796   */\n  0x20\n    /* \"Campaign-Fixed-v4.sol\":2009:2074  require(_feeDistributor != address(0), \"FeeDistributor required\") */\n  0x04\n  dup3\n  add\n    /* \"#utility.yul\":3776:3797   */\n  mstore\n    /* \"#utility.yul\":3833:3835   */\n  0x17\n    /* \"#utility.yul\":3813:3831   */\n  0x24\n  dup3\n  add\n    /* \"#utility.yul\":3806:3836   */\n  mstore\n    /* \"#utility.yul\":3872:3897   */\n  0x4665654469737472696275746f72207265717569726564000000000000000000\n    /* \"#utility.yul\":3852:3870   */\n  0x44\n  dup3\n  add\n    /* \"#utility.yul\":3845:3898   */\n  mstore\n    /* \"#utility.yul\":3915:3933   */\n  0x64\n  add\n    /* \"Campaign-Fixed-v4.sol\":2009:2074  require(_feeDistributor != address(0), \"FeeDistributor required\") */\n  tag_7\n    /* \"#utility.yul\":3592:3939   */\n  jump\n    /* \"Campaign-Fixed-v4.sol\":2009:2074  require(_feeDistributor != address(0), \"FeeDistributor required\") */\ntag_18:\n    /* \"Campaign-Fixed-v4.sol\":2085:2098  campaignOwner */\n  0x00\n    /* \"Campaign-Fixed-v4.sol\":2085:2115  campaignOwner = _campaignOwner */\n  dup1\n  sload\n  sub(shl(0xa0, 0x01), 0x01)\n  dup11\n  and\n  not(sub(shl(0xa0, 0x01), 0x01))\n  swap2\n  dup3\n  and\n  or\n  swap1\n  swap2\n  sstore\n  0x01\n    /* \"Campaign-Fixed-v4.sol\":2125:2145  factory = msg.sender */\n  dup1\n  sload\n  swap1\n  swap2\n  and\n    /* \"Campaign-Fixed-v4.sol\":2135:2145  msg.sender */\n  caller\n    /* \"Campaign-Fixed-v4.sol\":2125:2145  factory = msg.sender */\n  or\n  swap1\n  sstore\n    /* \"Campaign-Fixed-v4.sol\":2201:2205  goal */\n  0x02\n    /* \"Campaign-Fixed-v4.sol\":2201:2213  goal = _goal */\n  dup8\n  swap1\n  sstore\n    /* \"Campaign-Fixed-v4.sol\":2234:2261  block.timestamp + _duration */\n  tag_21\n    /* \"Campaign-Fixed-v4.sol\":2252:2261  _duration */\n  dup7\n    /* \"Campaign-Fixed-v4.sol\":2234:2249  block.timestamp */\n  timestamp\n    /* \"Campaign-Fixed-v4.sol\":2234:2261  block.timestamp + _duration */\n  tag_22\n  jump\t// in\ntag_21:\n    /* \"Campaign-Fixed-v4.sol\":2223:2231  deadline */\n  0x03\n    /* \"Campaign-Fixed-v4.sol\":2223:2261  deadline = block.timestamp + _duration */\n  sstore\n    /* \"Campaign-Fixed-v4.sol\":2271:2279  flwToken */\n  0x04\n    /* \"Campaign-Fixed-v4.sol\":2271:2291  flwToken = _flwToken */\n  dup1\n  sload\n  sub(shl(0xa0, 0x01), 0x01)\n  dup1\n  dup9\n  and\n  not(sub(shl(0xa0, 0x01), 0x01))\n  swap3\n  dup4\n  and\n  or\n  swap1\n  swap3\n  sstore\n    /* \"Campaign-Fixed-v4.sol\":2301:2315  feeDistributor */\n  0x05\n    /* \"Campaign-Fixed-v4.sol\":2301:2333  feeDistributor = _feeDistributor */\n  dup1\n  sload\n  swap3\n  dup8\n  and\n  swap3\n  swap1\n  swap2\n  and\n  swap2\n  swap1\n  swap2\n  or\n  swap1\n  sstore\n    /* \"Campaign-Fixed-v4.sol\":2343:2348  title */\n  0x06\n    /* \"Campaign-Fixed-v4.sol\":2343:2357  title = _title */\n  tag_23\n    /* \"Campaign-Fixed-v4.sol\":2351:2357  _title */\n  dup5\n    /* \"Campaign-Fixed-v4.sol\":2343:2348  title */\n  dup3\n    /* \"Campaign-Fixed-v4.sol\":2343:2357  title = _title */\n  tag_24\n  jump\t// in\ntag_23:\n  pop\n    /* \"Campaign-Fixed-v4.sol\":2367:2378  description */\n  0x07\n    /* \"Campaign-Fixed-v4.sol\":2367:2393  description = _description */\n  tag_25\n    /* \"Campaign-Fixed-v4.sol\":2381:2393  _description */\n  dup4\n    /* \"Campaign-Fixed-v4.sol\":2367:2378  description */\n  dup3\n    /* \"Campaign-Fixed-v4.sol\":2367:2393  description = _description */\n  tag_24\n  jump\t// in\ntag_25:\n  pop\n    /* \"Campaign-Fixed-v4.sol\":2403:2411  imageUrl */\n  0x08\n    /* \"Campaign-Fixed-v4.sol\":2403:2423  imageUrl = _imageUrl */\n  tag_26\n    /* \"Campaign-Fixed-v4.sol\":2414:2423  _imageUrl */\n  dup3\n    /* \"Campaign-Fixed-v4.sol\":2403:2411  imageUrl */\n  dup3\n    /* \"Campaign-Fixed-v4.sol\":2403:2423  imageUrl = _imageUrl */\n  tag_24\n  jump\t// in\ntag_26:\n  pop\n    /* \"Campaign-Fixed-v4.sol\":1501:2430  constructor(... */\n  pop\n  pop\n  pop\n  pop\n  pop\n  pop\n  pop\n  pop\n    /* \"Campaign-Fixed-v4.sol\":337:7364  contract Campaign {... */\n  jump(tag_35)\n    /* \"#utility.yul\":14:191   */\ntag_28:\n    /* \"#utility.yul\":93:106   */\n  dup1\n  mload\n  sub(shl(0xa0, 0x01), 0x01)\n    /* \"#utility.yul\":135:166   */\n  dup2\n  and\n    /* \"#utility.yul\":125:167   */\n  dup2\n  eq\n    /* \"#utility.yul\":115:185   */\n  tag_37\n  jumpi\n    /* \"#utility.yul\":181:182   */\n  0x00\n    /* \"#utility.yul\":178:179   */\n  dup1\n    /* \"#utility.yul\":171:183   */\n  revert\n    /* \"#utility.yul\":115:185   */\ntag_37:\n    /* \"#utility.yul\":14:191   */\n  swap2\n  swap1\n  pop\n  jump\t// out\n    /* \"#utility.yul\":196:323   */\ntag_29:\n    /* \"#utility.yul\":257:267   */\n  0x4e487b71\n    /* \"#utility.yul\":252:255   */\n  0xe0\n    /* \"#utility.yul\":248:268   */\n  shl\n    /* \"#utility.yul\":245:246   */\n  0x00\n    /* \"#utility.yul\":238:269   */\n  mstore\n    /* \"#utility.yul\":288:292   */\n  0x41\n    /* \"#utility.yul\":285:286   */\n  0x04\n    /* \"#utility.yul\":278:293   */\n  mstore\n    /* \"#utility.yul\":312:316   */\n  0x24\n    /* \"#utility.yul\":309:310   */\n  0x00\n    /* \"#utility.yul\":302:317   */\n  revert\n    /* \"#utility.yul\":328:1044   */\ntag_30:\n    /* \"#utility.yul\":382:387   */\n  0x00\n    /* \"#utility.yul\":435:438   */\n  dup3\n    /* \"#utility.yul\":428:432   */\n  0x1f\n    /* \"#utility.yul\":420:426   */\n  dup4\n    /* \"#utility.yul\":416:433   */\n  add\n    /* \"#utility.yul\":412:439   */\n  slt\n    /* \"#utility.yul\":402:457   */\n  tag_40\n  jumpi\n    /* \"#utility.yul\":453:454   */\n  0x00\n    /* \"#utility.yul\":450:451   */\n  dup1\n    /* \"#utility.yul\":443:455   */\n  revert\n    /* \"#utility.yul\":402:457   */\ntag_40:\n    /* \"#utility.yul\":476:489   */\n  dup2\n  mload\n  sub(shl(0x40, 0x01), 0x01)\n    /* \"#utility.yul\":538:548   */\n  dup1\n  dup3\n  gt\n    /* \"#utility.yul\":535:571   */\n  iszero\n  tag_42\n  jumpi\n    /* \"#utility.yul\":551:569   */\n  tag_42\n  tag_29\n  jump\t// in\ntag_42:\n    /* \"#utility.yul\":626:628   */\n  0x40\n    /* \"#utility.yul\":620:629   */\n  mload\n    /* \"#utility.yul\":594:596   */\n  0x1f\n    /* \"#utility.yul\":680:693   */\n  dup4\n  add\n  not(0x1f)\n    /* \"#utility.yul\":676:698   */\n  swap1\n  dup2\n  and\n    /* \"#utility.yul\":700:702   */\n  0x3f\n    /* \"#utility.yul\":672:703   */\n  add\n    /* \"#utility.yul\":668:708   */\n  and\n    /* \"#utility.yul\":656:709   */\n  dup2\n  add\n  swap1\n    /* \"#utility.yul\":724:742   */\n  dup3\n  dup3\n  gt\n    /* \"#utility.yul\":744:766   */\n  dup2\n  dup4\n  lt\n    /* \"#utility.yul\":721:767   */\n  or\n    /* \"#utility.yul\":718:790   */\n  iszero\n  tag_44\n  jumpi\n    /* \"#utility.yul\":770:788   */\n  tag_44\n  tag_29\n  jump\t// in\ntag_44:\n    /* \"#utility.yul\":810:820   */\n  dup2\n    /* \"#utility.yul\":806:808   */\n  0x40\n    /* \"#utility.yul\":799:821   */\n  mstore\n    /* \"#utility.yul\":845:847   */\n  dup4\n    /* \"#utility.yul\":837:843   */\n  dup2\n    /* \"#utility.yul\":830:848   */\n  mstore\n    /* \"#utility.yul\":891:894   */\n  dup7\n    /* \"#utility.yul\":884:888   */\n  0x20\n    /* \"#utility.yul\":879:881   */\n  dup6\n    /* \"#utility.yul\":871:877   */\n  dup9\n    /* \"#utility.yul\":867:882   */\n  add\n    /* \"#utility.yul\":863:889   */\n  add\n    /* \"#utility.yul\":860:895   */\n  gt\n    /* \"#utility.yul\":857:912   */\n  iszero\n  tag_45\n  jumpi\n    /* \"#utility.yul\":908:909   */\n  0x00\n    /* \"#utility.yul\":905:906   */\n  dup1\n    /* \"#utility.yul\":898:910   */\n  revert\n    /* \"#utility.yul\":857:912   */\ntag_45:\n    /* \"#utility.yul\":965:967   */\n  dup4\n    /* \"#utility.yul\":958:962   */\n  0x20\n    /* \"#utility.yul\":950:956   */\n  dup8\n    /* \"#utility.yul\":946:963   */\n  add\n    /* \"#utility.yul\":939:943   */\n  0x20\n    /* \"#utility.yul\":931:937   */\n  dup4\n    /* \"#utility.yul\":927:944   */\n  add\n    /* \"#utility.yul\":921:968   */\n  mcopy\n    /* \"#utility.yul\":1012:1013   */\n  0x00\n    /* \"#utility.yul\":1005:1009   */\n  0x20\n    /* \"#utility.yul\":1000:1002   */\n  dup6\n    /* \"#utility.yul\":992:998   */\n  dup4\n    /* \"#utility.yul\":988:1003   */\n  add\n    /* \"#utility.yul\":984:1010   */\n  add\n    /* \"#utility.yul\":977:1014   */\n  mstore\n    /* \"#utility.yul\":1032:1038   */\n  dup1\n    /* \"#utility.yul\":1023:1038   */\n  swap5\n  pop\n  pop\n  pop\n  pop\n  pop\n    /* \"#utility.yul\":328:1044   */\n  swap3\n  swap2\n  pop\n  pop\n  jump\t// out\n    /* \"#utility.yul\":1049:2197   */\ntag_3:\n    /* \"#utility.yul\":1212:1218   */\n  0x00\n    /* \"#utility.yul\":1220:1226   */\n  dup1\n    /* \"#utility.yul\":1228:1234   */\n  0x00\n    /* \"#utility.yul\":1236:1242   */\n  dup1\n    /* \"#utility.yul\":1244:1250   */\n  0x00\n    /* \"#utility.yul\":1252:1258   */\n  dup1\n    /* \"#utility.yul\":1260:1266   */\n  0x00\n    /* \"#utility.yul\":1268:1274   */\n  dup1\n    /* \"#utility.yul\":1321:1324   */\n  0x0100\n    /* \"#utility.yul\":1309:1318   */\n  dup10\n    /* \"#utility.yul\":1300:1307   */\n  dup12\n    /* \"#utility.yul\":1296:1319   */\n  sub\n    /* \"#utility.yul\":1292:1325   */\n  slt\n    /* \"#utility.yul\":1289:1342   */\n  iszero\n  tag_47\n  jumpi\n    /* \"#utility.yul\":1338:1339   */\n  0x00\n    /* \"#utility.yul\":1335:1336   */\n  dup1\n    /* \"#utility.yul\":1328:1340   */\n  revert\n    /* \"#utility.yul\":1289:1342   */\ntag_47:\n    /* \"#utility.yul\":1361:1401   */\n  tag_48\n    /* \"#utility.yul\":1391:1400   */\n  dup10\n    /* \"#utility.yul\":1361:1401   */\n  tag_28\n  jump\t// in\ntag_48:\n    /* \"#utility.yul\":1351:1401   */\n  swap8\n  pop\n    /* \"#utility.yul\":1441:1443   */\n  0x20\n    /* \"#utility.yul\":1430:1439   */\n  dup10\n    /* \"#utility.yul\":1426:1444   */\n  add\n    /* \"#utility.yul\":1420:1445   */\n  mload\n    /* \"#utility.yul\":1410:1445   */\n  swap7\n  pop\n    /* \"#utility.yul\":1485:1487   */\n  0x40\n    /* \"#utility.yul\":1474:1483   */\n  dup10\n    /* \"#utility.yul\":1470:1488   */\n  add\n    /* \"#utility.yul\":1464:1489   */\n  mload\n    /* \"#utility.yul\":1454:1489   */\n  swap6\n  pop\n    /* \"#utility.yul\":1508:1557   */\n  tag_49\n    /* \"#utility.yul\":1553:1555   */\n  0x60\n    /* \"#utility.yul\":1542:1551   */\n  dup11\n    /* \"#utility.yul\":1538:1556   */\n  add\n    /* \"#utility.yul\":1508:1557   */\n  tag_28\n  jump\t// in\ntag_49:\n    /* \"#utility.yul\":1498:1557   */\n  swap5\n  pop\n    /* \"#utility.yul\":1576:1626   */\n  tag_50\n    /* \"#utility.yul\":1621:1624   */\n  0x80\n    /* \"#utility.yul\":1610:1619   */\n  dup11\n    /* \"#utility.yul\":1606:1625   */\n  add\n    /* \"#utility.yul\":1576:1626   */\n  tag_28\n  jump\t// in\ntag_50:\n    /* \"#utility.yul\":1670:1673   */\n  0xa0\n    /* \"#utility.yul\":1655:1674   */\n  dup11\n  add\n    /* \"#utility.yul\":1649:1675   */\n  mload\n    /* \"#utility.yul\":1566:1626   */\n  swap1\n  swap5\n  pop\n  sub(shl(0x40, 0x01), 0x01)\n    /* \"#utility.yul\":1724:1738   */\n  dup1\n  dup3\n  gt\n    /* \"#utility.yul\":1721:1755   */\n  iszero\n  tag_51\n  jumpi\n    /* \"#utility.yul\":1751:1752   */\n  0x00\n    /* \"#utility.yul\":1748:1749   */\n  dup1\n    /* \"#utility.yul\":1741:1753   */\n  revert\n    /* \"#utility.yul\":1721:1755   */\ntag_51:\n    /* \"#utility.yul\":1774:1835   */\n  tag_52\n    /* \"#utility.yul\":1827:1834   */\n  dup13\n    /* \"#utility.yul\":1818:1824   */\n  dup4\n    /* \"#utility.yul\":1807:1816   */\n  dup14\n    /* \"#utility.yul\":1803:1825   */\n  add\n    /* \"#utility.yul\":1774:1835   */\n  tag_30\n  jump\t// in\ntag_52:\n    /* \"#utility.yul\":1764:1835   */\n  swap5\n  pop\n    /* \"#utility.yul\":1881:1884   */\n  0xc0\n    /* \"#utility.yul\":1870:1879   */\n  dup12\n    /* \"#utility.yul\":1866:1885   */\n  add\n    /* \"#utility.yul\":1860:1886   */\n  mload\n    /* \"#utility.yul\":1844:1886   */\n  swap2\n  pop\n    /* \"#utility.yul\":1911:1913   */\n  dup1\n    /* \"#utility.yul\":1901:1909   */\n  dup3\n    /* \"#utility.yul\":1898:1914   */\n  gt\n    /* \"#utility.yul\":1895:1931   */\n  iszero\n  tag_53\n  jumpi\n    /* \"#utility.yul\":1927:1928   */\n  0x00\n    /* \"#utility.yul\":1924:1925   */\n  dup1\n    /* \"#utility.yul\":1917:1929   */\n  revert\n    /* \"#utility.yul\":1895:1931   */\ntag_53:\n    /* \"#utility.yul\":1950:2013   */\n  tag_54\n    /* \"#utility.yul\":2005:2012   */\n  dup13\n    /* \"#utility.yul\":1994:2002   */\n  dup4\n    /* \"#utility.yul\":1983:1992   */\n  dup14\n    /* \"#utility.yul\":1979:2003   */\n  add\n    /* \"#utility.yul\":1950:2013   */\n  tag_30\n  jump\t// in\ntag_54:\n    /* \"#utility.yul\":1940:2013   */\n  swap4\n  pop\n    /* \"#utility.yul\":2059:2062   */\n  0xe0\n    /* \"#utility.yul\":2048:2057   */\n  dup12\n    /* \"#utility.yul\":2044:2063   */\n  add\n    /* \"#utility.yul\":2038:2064   */\n  mload\n    /* \"#utility.yul\":2022:2064   */\n  swap2\n  pop\n    /* \"#utility.yul\":2089:2091   */\n  dup1\n    /* \"#utility.yul\":2079:2087   */\n  dup3\n    /* \"#utility.yul\":2076:2092   */\n  gt\n    /* \"#utility.yul\":2073:2109   */\n  iszero\n  tag_55\n  jumpi\n    /* \"#utility.yul\":2105:2106   */\n  0x00\n    /* \"#utility.yul\":2102:2103   */\n  dup1\n    /* \"#utility.yul\":2095:2107   */\n  revert\n    /* \"#utility.yul\":2073:2109   */\ntag_55:\n  pop\n    /* \"#utility.yul\":2128:2191   */\n  tag_56\n    /* \"#utility.yul\":2183:2190   */\n  dup12\n    /* \"#utility.yul\":2172:2180   */\n  dup3\n    /* \"#utility.yul\":2161:2170   */\n  dup13\n    /* \"#utility.yul\":2157:2181   */\n  add\n    /* \"#utility.yul\":2128:2191   */\n  tag_30\n  jump\t// in\ntag_56:\n    /* \"#utility.yul\":2118:2191   */\n  swap2\n  pop\n  pop\n    /* \"#utility.yul\":1049:2197   */\n  swap3\n  swap6\n  swap9\n  pop\n  swap3\n  swap6\n  swap9\n  swap1\n  swap4\n  swap7\n  pop\n  jump\t// out\n    /* \"#utility.yul\":3944:4166   */\ntag_22:\n    /* \"#utility.yul\":4009:4018   */\n  dup1\n  dup3\n  add\n    /* \"#utility.yul\":4030:4040   */\n  dup1\n  dup3\n  gt\n    /* \"#utility.yul\":4027:4160   */\n  iszero\n  tag_63\n  jumpi\n    /* \"#utility.yul\":4082:4092   */\n  0x4e487b71\n    /* \"#utility.yul\":4077:4080   */\n  0xe0\n    /* \"#utility.yul\":4073:4093   */\n  shl\n    /* \"#utility.yul\":4070:4071   */\n  0x00\n    /* \"#utility.yul\":4063:4094   */\n  mstore\n    /* \"#utility.yul\":4117:4121   */\n  0x11\n    /* \"#utility.yul\":4114:4115   */\n  0x04\n    /* \"#utility.yul\":4107:4122   */\n  mstore\n    /* \"#utility.yul\":4145:4149   */\n  0x24\n    /* \"#utility.yul\":4142:4143   */\n  0x00\n    /* \"#utility.yul\":4135:4150   */\n  revert\n    /* \"#utility.yul\":4027:4160   */\ntag_63:\n    /* \"#utility.yul\":3944:4166   */\n  swap3\n  swap2\n  pop\n  pop\n  jump\t// out\n    /* \"#utility.yul\":4171:4551   */\ntag_31:\n    /* \"#utility.yul\":4250:4251   */\n  0x01\n    /* \"#utility.yul\":4246:4258   */\n  dup2\n  dup2\n  shr\n  swap1\n    /* \"#utility.yul\":4293:4305   */\n  dup3\n  and\n  dup1\n    /* \"#utility.yul\":4314:4375   */\n  tag_65\n  jumpi\n    /* \"#utility.yul\":4368:4372   */\n  0x7f\n    /* \"#utility.yul\":4360:4366   */\n  dup3\n    /* \"#utility.yul\":4356:4373   */\n  and\n    /* \"#utility.yul\":4346:4373   */\n  swap2\n  pop\n    /* \"#utility.yul\":4314:4375   */\ntag_65:\n    /* \"#utility.yul\":4421:4423   */\n  0x20\n    /* \"#utility.yul\":4413:4419   */\n  dup3\n    /* \"#utility.yul\":4410:4424   */\n  lt\n    /* \"#utility.yul\":4390:4408   */\n  dup2\n    /* \"#utility.yul\":4387:4425   */\n  sub\n    /* \"#utility.yul\":4384:4545   */\n  tag_66\n  jumpi\n    /* \"#utility.yul\":4467:4477   */\n  0x4e487b71\n    /* \"#utility.yul\":4462:4465   */\n  0xe0\n    /* \"#utility.yul\":4458:4478   */\n  shl\n    /* \"#utility.yul\":4455:4456   */\n  0x00\n    /* \"#utility.yul\":4448:4479   */\n  mstore\n    /* \"#utility.yul\":4502:4506   */\n  0x22\n    /* \"#utility.yul\":4499:4500   */\n  0x04\n    /* \"#utility.yul\":4492:4507   */\n  mstore\n    /* \"#utility.yul\":4530:4534   */\n  0x24\n    /* \"#utility.yul\":4527:4528   */\n  0x00\n    /* \"#utility.yul\":4520:4535   */\n  revert\n    /* \"#utility.yul\":4384:4545   */\ntag_66:\n  pop\n    /* \"#utility.yul\":4171:4551   */\n  swap2\n  swap1\n  pop\n  jump\t// out\n    /* \"#utility.yul\":4682:5200   */\ntag_33:\n    /* \"#utility.yul\":4784:4786   */\n  0x1f\n    /* \"#utility.yul\":4779:4782   */\n  dup3\n    /* \"#utility.yul\":4776:4787   */\n  gt\n    /* \"#utility.yul\":4773:5194   */\n  iszero\n  tag_69\n  jumpi\n    /* \"#utility.yul\":4820:4825   */\n  dup1\n    /* \"#utility.yul\":4817:4818   */\n  0x00\n    /* \"#utility.yul\":4810:4826   */\n  mstore\n    /* \"#utility.yul\":4864:4868   */\n  0x20\n    /* \"#utility.yul\":4861:4862   */\n  0x00\n    /* \"#utility.yul\":4851:4869   */\n  keccak256\n    /* \"#utility.yul\":4934:4936   */\n  0x1f\n    /* \"#utility.yul\":4922:4932   */\n  dup5\n    /* \"#utility.yul\":4918:4937   */\n  add\n    /* \"#utility.yul\":4915:4916   */\n  0x05\n    /* \"#utility.yul\":4911:4938   */\n  shr\n    /* \"#utility.yul\":4905:4909   */\n  dup2\n    /* \"#utility.yul\":4901:4939   */\n  add\n    /* \"#utility.yul\":4970:4974   */\n  0x20\n    /* \"#utility.yul\":4958:4968   */\n  dup6\n    /* \"#utility.yul\":4955:4975   */\n  lt\n    /* \"#utility.yul\":4952:4999   */\n  iszero\n  tag_70\n  jumpi\n  pop\n    /* \"#utility.yul\":4993:4997   */\n  dup1\n    /* \"#utility.yul\":4952:4999   */\ntag_70:\n    /* \"#utility.yul\":5048:5050   */\n  0x1f\n    /* \"#utility.yul\":5043:5046   */\n  dup5\n    /* \"#utility.yul\":5039:5051   */\n  add\n    /* \"#utility.yul\":5036:5037   */\n  0x05\n    /* \"#utility.yul\":5032:5052   */\n  shr\n    /* \"#utility.yul\":5026:5030   */\n  dup3\n    /* \"#utility.yul\":5022:5053   */\n  add\n    /* \"#utility.yul\":5012:5053   */\n  swap2\n  pop\n    /* \"#utility.yul\":5103:5184   */\ntag_71:\n    /* \"#utility.yul\":5121:5123   */\n  dup2\n    /* \"#utility.yul\":5114:5119   */\n  dup2\n    /* \"#utility.yul\":5111:5124   */\n  lt\n    /* \"#utility.yul\":5103:5184   */\n  iszero\n  tag_73\n  jumpi\n    /* \"#utility.yul\":5180:5181   */\n  0x00\n    /* \"#utility.yul\":5166:5182   */\n  dup2\n  sstore\n    /* \"#utility.yul\":5147:5148   */\n  0x01\n    /* \"#utility.yul\":5136:5149   */\n  add\n    /* \"#utility.yul\":5103:5184   */\n  jump(tag_71)\ntag_73:\n    /* \"#utility.yul\":5107:5110   */\n  pop\n  pop\n    /* \"#utility.yul\":4773:5194   */\ntag_69:\n    /* \"#utility.yul\":4682:5200   */\n  pop\n  pop\n  pop\n  jump\t// out\n    /* \"#utility.yul\":5376:6721   */\ntag_24:\n    /* \"#utility.yul\":5496:5506   */\n  dup2\n  mload\n  sub(shl(0x40, 0x01), 0x01)\n    /* \"#utility.yul\":5518:5548   */\n  dup2\n  gt\n    /* \"#utility.yul\":5515:5571   */\n  iszero\n  tag_77\n  jumpi\n    /* \"#utility.yul\":5551:5569   */\n  tag_77\n  tag_29\n  jump\t// in\ntag_77:\n    /* \"#utility.yul\":5580:5677   */\n  tag_78\n    /* \"#utility.yul\":5670:5676   */\n  dup2\n    /* \"#utility.yul\":5630:5668   */\n  tag_79\n    /* \"#utility.yul\":5662:5666   */\n  dup5\n    /* \"#utility.yul\":5656:5667   */\n  sload\n    /* \"#utility.yul\":5630:5668   */\n  tag_31\n  jump\t// in\ntag_79:\n    /* \"#utility.yul\":5624:5628   */\n  dup5\n    /* \"#utility.yul\":5580:5677   */\n  tag_33\n  jump\t// in\ntag_78:\n    /* \"#utility.yul\":5732:5736   */\n  0x20\n  dup1\n    /* \"#utility.yul\":5789:5791   */\n  0x1f\n    /* \"#utility.yul\":5778:5792   */\n  dup4\n  gt\n    /* \"#utility.yul\":5806:5807   */\n  0x01\n    /* \"#utility.yul\":5801:6464   */\n  dup2\n  eq\n  tag_81\n  jumpi\n    /* \"#utility.yul\":6508:6509   */\n  0x00\n    /* \"#utility.yul\":6525:6531   */\n  dup5\n    /* \"#utility.yul\":6522:6611   */\n  iszero\n  tag_82\n  jumpi\n  pop\n    /* \"#utility.yul\":6577:6596   */\n  dup6\n  dup4\n  add\n    /* \"#utility.yul\":6571:6597   */\n  mload\n    /* \"#utility.yul\":6522:6611   */\ntag_82:\n  not(0x00)\n    /* \"#utility.yul\":5333:5334   */\n  0x03\n    /* \"#utility.yul\":5329:5340   */\n  dup7\n  swap1\n  shl\n    /* \"#utility.yul\":5325:5349   */\n  shr\n    /* \"#utility.yul\":5321:5350   */\n  not\n    /* \"#utility.yul\":5311:5351   */\n  and\n    /* \"#utility.yul\":5357:5358   */\n  0x01\n    /* \"#utility.yul\":5353:5364   */\n  dup6\n  swap1\n  shl\n    /* \"#utility.yul\":5308:5365   */\n  or\n    /* \"#utility.yul\":6624:6705   */\n  dup6\n  sstore\n    /* \"#utility.yul\":5771:6715   */\n  jump(tag_80)\n    /* \"#utility.yul\":5801:6464   */\ntag_81:\n    /* \"#utility.yul\":4629:4630   */\n  0x00\n    /* \"#utility.yul\":4622:4636   */\n  dup6\n  dup2\n  mstore\n    /* \"#utility.yul\":4666:4670   */\n  0x20\n    /* \"#utility.yul\":4653:4671   */\n  dup2\n  keccak256\n  not(0x1f)\n    /* \"#utility.yul\":5837:5857   */\n  dup7\n  and\n  swap2\n    /* \"#utility.yul\":5955:6191   */\ntag_85:\n    /* \"#utility.yul\":5969:5976   */\n  dup3\n    /* \"#utility.yul\":5966:5967   */\n  dup2\n    /* \"#utility.yul\":5963:5977   */\n  lt\n    /* \"#utility.yul\":5955:6191   */\n  iszero\n  tag_87\n  jumpi\n    /* \"#utility.yul\":6058:6077   */\n  dup9\n  dup7\n  add\n    /* \"#utility.yul\":6052:6078   */\n  mload\n    /* \"#utility.yul\":6037:6079   */\n  dup3\n  sstore\n    /* \"#utility.yul\":6150:6177   */\n  swap5\n  dup5\n  add\n  swap5\n    /* \"#utility.yul\":6118:6119   */\n  0x01\n    /* \"#utility.yul\":6106:6120   */\n  swap1\n  swap2\n  add\n  swap1\n    /* \"#utility.yul\":5985:6004   */\n  dup5\n  add\n    /* \"#utility.yul\":5955:6191   */\n  jump(tag_85)\ntag_87:\n    /* \"#utility.yul\":5959:5962   */\n  pop\n    /* \"#utility.yul\":6219:6225   */\n  dup6\n    /* \"#utility.yul\":6210:6217   */\n  dup3\n    /* \"#utility.yul\":6207:6226   */\n  lt\n    /* \"#utility.yul\":6204:6405   */\n  iszero\n  tag_88\n  jumpi\n    /* \"#utility.yul\":6280:6299   */\n  dup8\n  dup6\n  add\n    /* \"#utility.yul\":6274:6300   */\n  mload\n  not(0x00)\n    /* \"#utility.yul\":6363:6364   */\n  0x03\n    /* \"#utility.yul\":6359:6373   */\n  dup9\n  swap1\n  shl\n    /* \"#utility.yul\":6375:6378   */\n  0xf8\n    /* \"#utility.yul\":6355:6379   */\n  and\n    /* \"#utility.yul\":6351:6388   */\n  shr\n    /* \"#utility.yul\":6347:6389   */\n  not\n    /* \"#utility.yul\":6332:6390   */\n  and\n    /* \"#utility.yul\":6317:6391   */\n  dup2\n  sstore\n    /* \"#utility.yul\":6204:6405   */\ntag_88:\n  pop\n  pop\n    /* \"#utility.yul\":6451:6452   */\n  0x01\n    /* \"#utility.yul\":6442:6448   */\n  dup5\n    /* \"#utility.yul\":6439:6440   */\n  0x01\n    /* \"#utility.yul\":6435:6449   */\n  shl\n    /* \"#utility.yul\":6431:6453   */\n  add\n    /* \"#utility.yul\":6425:6429   */\n  dup6\n    /* \"#utility.yul\":6418:6454   */\n  sstore\n    /* \"#utility.yul\":5771:6715   */\ntag_80:\n  pop\n  pop\n  pop\n  pop\n    /* \"#utility.yul\":5376:6721   */\n  pop\n  pop\n  jump\t// out\ntag_35:\n    /* \"Campaign-Fixed-v4.sol\":337:7364  contract Campaign {... */\n  dataSize(sub_0)\n  dup1\n  dataOffset(sub_0)\n  0x00\n  codecopy\n  0x00\n  return\nstop\n\nsub_0: assembly {\n        /* \"Campaign-Fixed-v4.sol\":337:7364  contract Campaign {... */\n      mstore(0x40, 0x80)\n      jumpi(tag_1, lt(calldatasize, 0x04))\n      shr(0xe0, calldataload(0x00))\n      dup1\n      0x8b4c40b0\n      gt\n      tag_40\n      jumpi\n      dup1\n      0xbca856ad\n      gt\n      tag_41\n      jumpi\n      dup1\n      0xe98798e8\n      gt\n      tag_42\n      jumpi\n      dup1\n      0xefdf762a\n      gt\n      tag_43\n      jumpi\n      dup1\n      0xefdf762a\n      eq\n      tag_37\n      jumpi\n      dup1\n      0xf2e76d7b\n      eq\n      tag_38\n      jumpi\n      dup1\n      0xff3c1a8f\n      eq\n      tag_39\n      jumpi\n      0x00\n      dup1\n      revert\n    tag_43:\n      dup1\n      0xe98798e8\n      eq\n      tag_35\n      jumpi\n      dup1\n      0xecb70fb7\n      eq\n      tag_36\n      jumpi\n      0x00\n      dup1\n      revert\n    tag_42:\n      dup1\n      0xc52ed534\n      gt\n      tag_44\n      jumpi\n      dup1\n      0xc52ed534\n      eq\n      tag_32\n      jumpi\n      dup1\n      0xe27cc5d9\n      eq\n      tag_33\n      jumpi\n      dup1\n      0xe730395a\n      eq\n      tag_34\n      jumpi\n      0x00\n      dup1\n      revert\n    tag_44:\n      dup1\n      0xbca856ad\n      eq\n      tag_30\n      jumpi\n      dup1\n      0xc45a0155\n      eq\n      tag_31\n      jumpi\n      0x00\n      dup1\n      revert\n    tag_41:\n      dup1\n      0xa035531b\n      gt\n      tag_45\n      jumpi\n      dup1\n      0xb17fac22\n      gt\n      tag_46\n      jumpi\n      dup1\n      0xb17fac22\n      eq\n      tag_27\n      jumpi\n      dup1\n      0xb4c2f727\n      eq\n      tag_28\n      jumpi\n      dup1\n      0xb97a7d24\n      eq\n      tag_29\n      jumpi\n      0x00\n      dup1\n      revert\n    tag_46:\n      dup1\n      0xa035531b\n      eq\n      tag_25\n      jumpi\n      dup1\n      0xaba83150\n      eq\n      tag_26\n      jumpi\n      0x00\n      dup1\n      revert\n    tag_45:\n      dup1\n      0x8b4c40b0\n      eq\n      tag_21\n      jumpi\n      dup1\n      0x8da5cb5b\n      eq\n      tag_22\n      jumpi\n      dup1\n      0x90be10cc\n      eq\n      tag_23\n      jumpi\n      dup1\n      0x9743a691\n      eq\n      tag_24\n      jumpi\n      0x00\n      dup1\n      revert\n    tag_40:\n      dup1\n      0x40193883\n      gt\n      tag_47\n      jumpi\n      dup1\n      0x71a6acf2\n      gt\n      tag_48\n      jumpi\n      dup1\n      0x7284e416\n      gt\n      tag_49\n      jumpi\n      dup1\n      0x7284e416\n      eq\n      tag_18\n      jumpi\n      dup1\n      0x79388e41\n      eq\n      tag_19\n      jumpi\n      dup1\n      0x88cc58e4\n      eq\n      tag_20\n      jumpi\n      0x00\n      dup1\n      revert\n    tag_49:\n      dup1\n      0x71a6acf2\n      eq\n      tag_16\n      jumpi\n      dup1\n      0x7273b736\n      eq\n      tag_17\n      jumpi\n      0x00\n      dup1\n      revert\n    tag_48:\n      dup1\n      0x40193883\n      eq\n      tag_12\n      jumpi\n      dup1\n      0x4a79d50c\n      eq\n      tag_13\n      jumpi\n      dup1\n      0x5f8d96de\n      eq\n      tag_14\n      jumpi\n      dup1\n      0x6136f6cf\n      eq\n      tag_15\n      jumpi\n      0x00\n      dup1\n      revert\n    tag_47:\n      dup1\n      0x21d29038\n      gt\n      tag_50\n      jumpi\n      dup1\n      0x29dcb0cf\n      gt\n      tag_51\n      jumpi\n      dup1\n      0x29dcb0cf\n      eq\n      tag_9\n      jumpi\n      dup1\n      0x32cb25be\n      eq\n      tag_10\n      jumpi\n      dup1\n      0x3ccfd60b\n      eq\n      tag_11\n      jumpi\n      0x00\n      dup1\n      revert\n    tag_51:\n      dup1\n      0x21d29038\n      eq\n      tag_7\n      jumpi\n      dup1\n      0x22f3e2d4\n      eq\n      tag_8\n      jumpi\n      0x00\n      dup1\n      revert\n    tag_50:\n      dup1\n      0x07ec3174\n      eq\n      tag_3\n      jumpi\n      dup1\n      0x0d43e8ad\n      eq\n      tag_4\n      jumpi\n      dup1\n      0x12b58349\n      eq\n      tag_5\n      jumpi\n      dup1\n      0x1a092541\n      eq\n      tag_6\n      jumpi\n      0x00\n      dup1\n      revert\n    tag_1:\n      jumpi(tag_2, calldatasize)\n        /* \"Campaign-Fixed-v4.sol\":2473:2484  donateETH() */\n      tag_54\n        /* \"Campaign-Fixed-v4.sol\":2473:2482  donateETH */\n      tag_55\n        /* \"Campaign-Fixed-v4.sol\":2473:2484  donateETH() */\n      jump\t// in\n    tag_54:\n        /* \"Campaign-Fixed-v4.sol\":337:7364  contract Campaign {... */\n      stop\n    tag_2:\n      0x00\n      dup1\n      revert\n        /* \"Campaign-Fixed-v4.sol\":868:921  mapping(address => uint256) public tokenFeesCollected */\n    tag_3:\n      callvalue\n      dup1\n      iszero\n      tag_56\n      jumpi\n      0x00\n      dup1\n      revert\n    tag_56:\n      pop\n      tag_57\n      tag_58\n      calldatasize\n      0x04\n      tag_59\n      jump\t// in\n    tag_58:\n      mstore(0x20, 0x0b)\n      0x00\n      swap1\n      dup2\n      mstore\n      0x40\n      swap1\n      keccak256\n      sload\n      dup2\n      jump\n    tag_57:\n      mload(0x40)\n        /* \"#utility.yul\":552:577   */\n      swap1\n      dup2\n      mstore\n        /* \"#utility.yul\":540:542   */\n      0x20\n        /* \"#utility.yul\":525:543   */\n      add\n        /* \"Campaign-Fixed-v4.sol\":868:921  mapping(address => uint256) public tokenFeesCollected */\n    tag_61:\n      mload(0x40)\n      dup1\n      swap2\n      sub\n      swap1\n      return\n        /* \"Campaign-Fixed-v4.sol\":611:640  address public feeDistributor */\n    tag_4:\n      callvalue\n      dup1\n      iszero\n      tag_63\n      jumpi\n      0x00\n      dup1\n      revert\n    tag_63:\n      pop\n      sload(0x05)\n      tag_64\n      swap1\n      sub(shl(0xa0, 0x01), 0x01)\n      and\n      dup2\n      jump\n    tag_64:\n      mload(0x40)\n      sub(shl(0xa0, 0x01), 0x01)\n        /* \"#utility.yul\":752:807   */\n      swap1\n      swap2\n      and\n        /* \"#utility.yul\":734:808   */\n      dup2\n      mstore\n        /* \"#utility.yul\":722:724   */\n      0x20\n        /* \"#utility.yul\":707:725   */\n      add\n        /* \"Campaign-Fixed-v4.sol\":611:640  address public feeDistributor */\n      tag_61\n        /* \"#utility.yul\":588:814   */\n      jump\n        /* \"Campaign-Fixed-v4.sol\":6266:6444  function getTotalBalance() public view returns (uint256 ethBalance, uint256 flwBalance) {... */\n    tag_5:\n      callvalue\n      dup1\n      iszero\n      tag_68\n      jumpi\n      0x00\n      dup1\n      revert\n    tag_68:\n      pop\n      tag_69\n      tag_70\n      jump\t// in\n    tag_69:\n      0x40\n      dup1\n      mload\n        /* \"#utility.yul\":993:1018   */\n      swap3\n      dup4\n      mstore\n        /* \"#utility.yul\":1049:1051   */\n      0x20\n        /* \"#utility.yul\":1034:1052   */\n      dup4\n      add\n        /* \"#utility.yul\":1027:1061   */\n      swap2\n      swap1\n      swap2\n      mstore\n        /* \"#utility.yul\":966:984   */\n      add\n        /* \"Campaign-Fixed-v4.sol\":6266:6444  function getTotalBalance() public view returns (uint256 ethBalance, uint256 flwBalance) {... */\n      tag_61\n        /* \"#utility.yul\":819:1067   */\n      jump\n        /* \"Campaign-Fixed-v4.sol\":7055:7152  function getDescription() public view returns (string memory) {... */\n    tag_6:\n      callvalue\n      dup1\n      iszero\n      tag_73\n      jumpi\n      0x00\n      dup1\n      revert\n    tag_73:\n      pop\n      tag_74\n      tag_75\n      jump\t// in\n    tag_74:\n      mload(0x40)\n      tag_61\n      swap2\n      swap1\n      tag_77\n      jump\t// in\n        /* \"Campaign-Fixed-v4.sol\":4888:5140  function postUpdate(string calldata message) external onlyCampaignOwner {... */\n    tag_7:\n      callvalue\n      dup1\n      iszero\n      tag_78\n      jumpi\n      0x00\n      dup1\n      revert\n    tag_78:\n      pop\n      tag_54\n      tag_80\n      calldatasize\n      0x04\n      tag_81\n      jump\t// in\n    tag_80:\n      tag_82\n      jump\t// in\n        /* \"Campaign-Fixed-v4.sol\":6450:6547  function isActive() public view returns (bool) {... */\n    tag_8:\n      callvalue\n      dup1\n      iszero\n      tag_83\n      jumpi\n      0x00\n      dup1\n      revert\n    tag_83:\n      pop\n        /* \"Campaign-Fixed-v4.sol\":6532:6540  deadline */\n      sload(0x03)\n        /* \"Campaign-Fixed-v4.sol\":6514:6529  block.timestamp */\n      timestamp\n        /* \"Campaign-Fixed-v4.sol\":6514:6540  block.timestamp < deadline */\n      lt\n        /* \"Campaign-Fixed-v4.sol\":6450:6547  function isActive() public view returns (bool) {... */\n    tag_84:\n      mload(0x40)\n        /* \"#utility.yul\":2353:2367   */\n      swap1\n      iszero\n        /* \"#utility.yul\":2346:2368   */\n      iszero\n        /* \"#utility.yul\":2328:2369   */\n      dup2\n      mstore\n        /* \"#utility.yul\":2316:2318   */\n      0x20\n        /* \"#utility.yul\":2301:2319   */\n      add\n        /* \"Campaign-Fixed-v4.sol\":6450:6547  function isActive() public view returns (bool) {... */\n      tag_61\n        /* \"#utility.yul\":2188:2375   */\n      jump\n        /* \"Campaign-Fixed-v4.sol\":553:576  uint256 public deadline */\n    tag_9:\n      callvalue\n      dup1\n      iszero\n      tag_88\n      jumpi\n      0x00\n      dup1\n      revert\n    tag_88:\n      pop\n      tag_57\n      sload(0x03)\n      dup2\n      jump\n        /* \"Campaign-Fixed-v4.sol\":5255:5473  function getUpdate(uint256 index) external view returns (string memory, uint256) {... */\n    tag_10:\n      callvalue\n      dup1\n      iszero\n      tag_92\n      jumpi\n      0x00\n      dup1\n      revert\n    tag_92:\n      pop\n      tag_93\n      tag_94\n      calldatasize\n      0x04\n      tag_95\n      jump\t// in\n    tag_94:\n      tag_96\n      jump\t// in\n    tag_93:\n      mload(0x40)\n      tag_61\n      swap3\n      swap2\n      swap1\n      tag_98\n      jump\t// in\n        /* \"Campaign-Fixed-v4.sol\":3390:4089  function withdraw() external onlyCampaignOwner {... */\n    tag_11:\n      callvalue\n      dup1\n      iszero\n      tag_99\n      jumpi\n      0x00\n      dup1\n      revert\n    tag_99:\n      pop\n      tag_54\n      tag_101\n      jump\t// in\n        /* \"Campaign-Fixed-v4.sol\":528:547  uint256 public goal */\n    tag_12:\n      callvalue\n      dup1\n      iszero\n      tag_102\n      jumpi\n      0x00\n      dup1\n      revert\n    tag_102:\n      pop\n      tag_57\n      sload(0x02)\n      dup2\n      jump\n        /* \"Campaign-Fixed-v4.sol\":647:666  string public title */\n    tag_13:\n      callvalue\n      dup1\n      iszero\n      tag_106\n      jumpi\n      0x00\n      dup1\n      revert\n    tag_106:\n      pop\n      tag_74\n      tag_108\n      jump\t// in\n        /* \"Campaign-Fixed-v4.sol\":6873:6958  function getDeadline() public view returns (uint256) {... */\n    tag_14:\n      callvalue\n      dup1\n      iszero\n      tag_110\n      jumpi\n      0x00\n      dup1\n      revert\n    tag_110:\n      pop\n        /* \"Campaign-Fixed-v4.sol\":6943:6951  deadline */\n      sload(0x03)\n        /* \"Campaign-Fixed-v4.sol\":6873:6958  function getDeadline() public view returns (uint256) {... */\n      jump(tag_57)\n        /* \"Campaign-Fixed-v4.sol\":4127:4379  function collectETHFees(address to) public onlyFactory {... */\n    tag_15:\n      callvalue\n      dup1\n      iszero\n      tag_114\n      jumpi\n      0x00\n      dup1\n      revert\n    tag_114:\n      pop\n      tag_54\n      tag_116\n      calldatasize\n      0x04\n      tag_59\n      jump\t// in\n    tag_116:\n      tag_117\n      jump\t// in\n        /* \"Campaign-Fixed-v4.sol\":2798:3330  function donateToken(address token, uint256 amount) external {... */\n    tag_16:\n      callvalue\n      dup1\n      iszero\n      tag_118\n      jumpi\n      0x00\n      dup1\n      revert\n    tag_118:\n      pop\n      tag_54\n      tag_120\n      calldatasize\n      0x04\n      tag_121\n      jump\t// in\n    tag_120:\n      tag_122\n      jump\t// in\n        /* \"Campaign-Fixed-v4.sol\":6107:6260  function getFeeBalances() public view returns (uint256 ethFees, uint256 flwFees) {... */\n    tag_17:\n      callvalue\n      dup1\n      iszero\n      tag_123\n      jumpi\n      0x00\n      dup1\n      revert\n    tag_123:\n      pop\n        /* \"Campaign-Fixed-v4.sol\":6206:6222  ethFeesCollected */\n      sload(0x0c)\n        /* \"Campaign-Fixed-v4.sol\":6243:6251  flwToken */\n      and(sub(shl(0xa0, 0x01), 0x01), sload(0x04))\n        /* \"Campaign-Fixed-v4.sol\":6154:6169  uint256 ethFees */\n      0x00\n        /* \"Campaign-Fixed-v4.sol\":6224:6252  tokenFeesCollected[flwToken] */\n      swap1\n      dup2\n      mstore\n        /* \"Campaign-Fixed-v4.sol\":6224:6242  tokenFeesCollected */\n      0x0b\n        /* \"Campaign-Fixed-v4.sol\":6224:6252  tokenFeesCollected[flwToken] */\n      0x20\n      mstore\n      0x40\n      swap1\n      keccak256\n      sload\n        /* \"Campaign-Fixed-v4.sol\":6107:6260  function getFeeBalances() public view returns (uint256 ethFees, uint256 flwFees) {... */\n      jump(tag_69)\n        /* \"Campaign-Fixed-v4.sol\":672:697  string public description */\n    tag_18:\n      callvalue\n      dup1\n      iszero\n      tag_127\n      jumpi\n      0x00\n      dup1\n      revert\n    tag_127:\n      pop\n      tag_74\n      tag_129\n      jump\t// in\n        /* \"Campaign-Fixed-v4.sol\":4711:4843  function collectAllFees(address to) external onlyFactory {... */\n    tag_19:\n      callvalue\n      dup1\n      iszero\n      tag_131\n      jumpi\n      0x00\n      dup1\n      revert\n    tag_131:\n      pop\n      tag_54\n      tag_133\n      calldatasize\n      0x04\n      tag_59\n      jump\t// in\n    tag_133:\n      tag_134\n      jump\t// in\n        /* \"Campaign-Fixed-v4.sol\":7279:7362  function getFactory() public view returns (address) {... */\n    tag_20:\n      callvalue\n      dup1\n      iszero\n      tag_135\n      jumpi\n      0x00\n      dup1\n      revert\n    tag_135:\n      pop\n        /* \"Campaign-Fixed-v4.sol\":7348:7355  factory */\n      and(sub(shl(0xa0, 0x01), 0x01), sload(0x01))\n        /* \"Campaign-Fixed-v4.sol\":7279:7362  function getFactory() public view returns (address) {... */\n      jump(tag_64)\n        /* \"Campaign-Fixed-v4.sol\":2497:2792  function donateETH() public payable {... */\n    tag_21:\n      tag_54\n      tag_55\n      jump\t// in\n        /* \"Campaign-Fixed-v4.sol\":6719:6803  function owner() public view returns (address) {... */\n    tag_22:\n      callvalue\n      dup1\n      iszero\n      tag_140\n      jumpi\n      0x00\n      dup1\n      revert\n    tag_140:\n      pop\n        /* \"Campaign-Fixed-v4.sol\":6757:6764  address */\n      0x00\n        /* \"Campaign-Fixed-v4.sol\":6783:6796  campaignOwner */\n      sload\n      sub(shl(0xa0, 0x01), 0x01)\n      and\n        /* \"Campaign-Fixed-v4.sol\":6719:6803  function owner() public view returns (address) {... */\n      jump(tag_64)\n        /* \"Campaign-Fixed-v4.sol\":5583:6101  function getWithdrawableAmount() public view returns (uint256 ethAmount, uint256 flwAmount) {... */\n    tag_23:\n      callvalue\n      dup1\n      iszero\n      tag_144\n      jumpi\n      0x00\n      dup1\n      revert\n    tag_144:\n      pop\n      tag_69\n      tag_146\n      jump\t// in\n        /* \"Campaign-Fixed-v4.sol\":7158:7249  function getImageUrl() public view returns (string memory) {... */\n    tag_24:\n      callvalue\n      dup1\n      iszero\n      tag_148\n      jumpi\n      0x00\n      dup1\n      revert\n    tag_148:\n      pop\n      tag_74\n      tag_150\n      jump\t// in\n        /* \"Campaign-Fixed-v4.sol\":1031:1064  uint256[] public updateTimestamps */\n    tag_25:\n      callvalue\n      dup1\n      iszero\n      tag_152\n      jumpi\n      0x00\n      dup1\n      revert\n    tag_152:\n      pop\n      tag_57\n      tag_154\n      calldatasize\n      0x04\n      tag_95\n      jump\t// in\n    tag_154:\n      tag_155\n      jump\t// in\n        /* \"Campaign-Fixed-v4.sol\":703:725  string public imageUrl */\n    tag_26:\n      callvalue\n      dup1\n      iszero\n      tag_157\n      jumpi\n      0x00\n      dup1\n      revert\n    tag_157:\n      pop\n      tag_74\n      tag_159\n      jump\t// in\n        /* \"Campaign-Fixed-v4.sol\":361:389  address public campaignOwner */\n    tag_27:\n      callvalue\n      dup1\n      iszero\n      tag_161\n      jumpi\n      0x00\n      dup1\n      revert\n    tag_161:\n      pop\n      sload(0x00)\n      tag_64\n      swap1\n      sub(shl(0xa0, 0x01), 0x01)\n      and\n      dup2\n      jump\n        /* \"Campaign-Fixed-v4.sol\":965:989  address[] public updates */\n    tag_28:\n      callvalue\n      dup1\n      iszero\n      tag_165\n      jumpi\n      0x00\n      dup1\n      revert\n    tag_165:\n      pop\n      tag_64\n      tag_167\n      calldatasize\n      0x04\n      tag_95\n      jump\t// in\n    tag_167:\n      tag_168\n      jump\t// in\n        /* \"Campaign-Fixed-v4.sol\":6553:6630  function getGoal() public view returns (uint256) {... */\n    tag_29:\n      callvalue\n      dup1\n      iszero\n      tag_170\n      jumpi\n      0x00\n      dup1\n      revert\n    tag_170:\n      pop\n        /* \"Campaign-Fixed-v4.sol\":6619:6623  goal */\n      sload(0x02)\n        /* \"Campaign-Fixed-v4.sol\":6553:6630  function getGoal() public view returns (uint256) {... */\n      jump(tag_57)\n        /* \"Campaign-Fixed-v4.sol\":995:1025  string[] public updateMessages */\n    tag_30:\n      callvalue\n      dup1\n      iszero\n      tag_174\n      jumpi\n      0x00\n      dup1\n      revert\n    tag_174:\n      pop\n      tag_74\n      tag_176\n      calldatasize\n      0x04\n      tag_95\n      jump\t// in\n    tag_176:\n      tag_177\n      jump\t// in\n        /* \"Campaign-Fixed-v4.sol\":452:474  address public factory */\n    tag_31:\n      callvalue\n      dup1\n      iszero\n      tag_179\n      jumpi\n      0x00\n      dup1\n      revert\n    tag_179:\n      pop\n      sload(0x01)\n      tag_64\n      swap1\n      sub(shl(0xa0, 0x01), 0x01)\n      and\n      dup2\n      jump\n        /* \"Campaign-Fixed-v4.sol\":5146:5249  function getUpdateCount() external view returns (uint256) {... */\n    tag_32:\n      callvalue\n      dup1\n      iszero\n      tag_183\n      jumpi\n      0x00\n      dup1\n      revert\n    tag_183:\n      pop\n        /* \"Campaign-Fixed-v4.sol\":5221:5235  updateMessages */\n      0x0e\n        /* \"Campaign-Fixed-v4.sol\":5221:5242  updateMessages.length */\n      sload\n        /* \"Campaign-Fixed-v4.sol\":5146:5249  function getUpdateCount() external view returns (uint256) {... */\n      jump(tag_57)\n        /* \"Campaign-Fixed-v4.sol\":927:958  uint256 public ethFeesCollected */\n    tag_33:\n      callvalue\n      dup1\n      iszero\n      tag_187\n      jumpi\n      0x00\n      dup1\n      revert\n    tag_187:\n      pop\n      tag_57\n      sload(0x0c)\n      dup2\n      jump\n        /* \"Campaign-Fixed-v4.sol\":732:783  mapping(address => uint256) public ethContributions */\n    tag_34:\n      callvalue\n      dup1\n      iszero\n      tag_191\n      jumpi\n      0x00\n      dup1\n      revert\n    tag_191:\n      pop\n      tag_57\n      tag_193\n      calldatasize\n      0x04\n      tag_59\n      jump\t// in\n    tag_193:\n      mstore(0x20, 0x09)\n      0x00\n      swap1\n      dup2\n      mstore\n      0x40\n      swap1\n      keccak256\n      sload\n      dup2\n      jump\n        /* \"Campaign-Fixed-v4.sol\":4417:4669  function collectTokenFees(address token, address to) public onlyFactory {... */\n    tag_35:\n      callvalue\n      dup1\n      iszero\n      tag_196\n      jumpi\n      0x00\n      dup1\n      revert\n    tag_196:\n      pop\n      tag_54\n      tag_198\n      calldatasize\n      0x04\n      tag_199\n      jump\t// in\n    tag_198:\n      tag_200\n      jump\t// in\n        /* \"Campaign-Fixed-v4.sol\":5479:5577  function hasEnded() public view returns (bool) {... */\n    tag_36:\n      callvalue\n      dup1\n      iszero\n      tag_201\n      jumpi\n      0x00\n      dup1\n      revert\n    tag_201:\n      pop\n        /* \"Campaign-Fixed-v4.sol\":5562:5570  deadline */\n      sload(0x03)\n        /* \"Campaign-Fixed-v4.sol\":5543:5558  block.timestamp */\n      timestamp\n        /* \"Campaign-Fixed-v4.sol\":5543:5570  block.timestamp >= deadline */\n      lt\n      iszero\n        /* \"Campaign-Fixed-v4.sol\":5479:5577  function hasEnded() public view returns (bool) {... */\n      jump(tag_84)\n        /* \"Campaign-Fixed-v4.sol\":789:862  mapping(address => mapping(address => uint256)) public tokenContributions */\n    tag_37:\n      callvalue\n      dup1\n      iszero\n      tag_205\n      jumpi\n      0x00\n      dup1\n      revert\n    tag_205:\n      pop\n      tag_57\n      tag_207\n      calldatasize\n      0x04\n      tag_199\n      jump\t// in\n    tag_207:\n      0x0a\n      0x20\n      swap1\n      dup2\n      mstore\n      0x00\n      swap3\n      dup4\n      mstore\n      0x40\n      dup1\n      dup5\n      keccak256\n      swap1\n      swap2\n      mstore\n      swap1\n      dup3\n      mstore\n      swap1\n      keccak256\n      sload\n      dup2\n      jump\n        /* \"Campaign-Fixed-v4.sol\":582:605  address public flwToken */\n    tag_38:\n      callvalue\n      dup1\n      iszero\n      tag_210\n      jumpi\n      0x00\n      dup1\n      revert\n    tag_210:\n      pop\n      sload(0x04)\n      tag_64\n      swap1\n      sub(shl(0xa0, 0x01), 0x01)\n      and\n      dup2\n      jump\n        /* \"Campaign-Fixed-v4.sol\":6964:7049  function getTitle() public view returns (string memory) {... */\n    tag_39:\n      callvalue\n      dup1\n      iszero\n      tag_214\n      jumpi\n      0x00\n      dup1\n      revert\n    tag_214:\n      pop\n      tag_74\n      tag_216\n      jump\t// in\n        /* \"Campaign-Fixed-v4.sol\":2497:2792  function donateETH() public payable {... */\n    tag_55:\n        /* \"Campaign-Fixed-v4.sol\":2569:2577  deadline */\n      sload(0x03)\n        /* \"Campaign-Fixed-v4.sol\":2551:2566  block.timestamp */\n      timestamp\n        /* \"Campaign-Fixed-v4.sol\":2551:2577  block.timestamp < deadline */\n      lt\n        /* \"Campaign-Fixed-v4.sol\":2543:2596  require(block.timestamp < deadline, \"Campaign ended\") */\n      tag_219\n      jumpi\n      mload(0x40)\n      shl(0xe5, 0x461bcd)\n      dup2\n      mstore\n        /* \"#utility.yul\":3587:3589   */\n      0x20\n        /* \"Campaign-Fixed-v4.sol\":2543:2596  require(block.timestamp < deadline, \"Campaign ended\") */\n      0x04\n      dup3\n      add\n        /* \"#utility.yul\":3569:3590   */\n      mstore\n        /* \"#utility.yul\":3626:3628   */\n      0x0e\n        /* \"#utility.yul\":3606:3624   */\n      0x24\n      dup3\n      add\n        /* \"#utility.yul\":3599:3629   */\n      mstore\n      shl(0x92, 0x10d85b5c185a59db88195b991959)\n        /* \"#utility.yul\":3645:3663   */\n      0x44\n      dup3\n      add\n        /* \"#utility.yul\":3638:3682   */\n      mstore\n        /* \"#utility.yul\":3699:3717   */\n      0x64\n      add\n        /* \"Campaign-Fixed-v4.sol\":2543:2596  require(block.timestamp < deadline, \"Campaign ended\") */\n    tag_220:\n      mload(0x40)\n      dup1\n      swap2\n      sub\n      swap1\n      revert\n    tag_219:\n        /* \"Campaign-Fixed-v4.sol\":2626:2627  0 */\n      0x00\n        /* \"Campaign-Fixed-v4.sol\":2614:2623  msg.value */\n      callvalue\n        /* \"Campaign-Fixed-v4.sol\":2614:2627  msg.value > 0 */\n      gt\n        /* \"Campaign-Fixed-v4.sol\":2606:2643  require(msg.value > 0, \"No ETH sent\") */\n      tag_222\n      jumpi\n      mload(0x40)\n      shl(0xe5, 0x461bcd)\n      dup2\n      mstore\n        /* \"#utility.yul\":3930:3932   */\n      0x20\n        /* \"Campaign-Fixed-v4.sol\":2606:2643  require(msg.value > 0, \"No ETH sent\") */\n      0x04\n      dup3\n      add\n        /* \"#utility.yul\":3912:3933   */\n      mstore\n        /* \"#utility.yul\":3969:3971   */\n      0x0b\n        /* \"#utility.yul\":3949:3967   */\n      0x24\n      dup3\n      add\n        /* \"#utility.yul\":3942:3972   */\n      mstore\n        /* \"#utility.yul\":4008:4021   */\n      0x4e6f204554482073656e74000000000000000000000000000000000000000000\n        /* \"#utility.yul\":3988:4006   */\n      0x44\n      dup3\n      add\n        /* \"#utility.yul\":3981:4022   */\n      mstore\n        /* \"#utility.yul\":4039:4057   */\n      0x64\n      add\n        /* \"Campaign-Fixed-v4.sol\":2606:2643  require(msg.value > 0, \"No ETH sent\") */\n      tag_220\n        /* \"#utility.yul\":3728:4063   */\n      jump\n        /* \"Campaign-Fixed-v4.sol\":2606:2643  require(msg.value > 0, \"No ETH sent\") */\n    tag_222:\n        /* \"Campaign-Fixed-v4.sol\":2654:2665  uint256 fee */\n      0x00\n        /* \"Campaign-Fixed-v4.sol\":2686:2689  100 */\n      0x64\n        /* \"Campaign-Fixed-v4.sol\":2669:2682  msg.value * 2 */\n      tag_225\n        /* \"Campaign-Fixed-v4.sol\":2669:2678  msg.value */\n      callvalue\n        /* \"Campaign-Fixed-v4.sol\":2681:2682  2 */\n      0x02\n        /* \"Campaign-Fixed-v4.sol\":2669:2682  msg.value * 2 */\n      tag_226\n      jump\t// in\n    tag_225:\n        /* \"Campaign-Fixed-v4.sol\":2668:2689  (msg.value * 2) / 100 */\n      tag_227\n      swap2\n      swap1\n      tag_228\n      jump\t// in\n    tag_227:\n        /* \"Campaign-Fixed-v4.sol\":2654:2689  uint256 fee = (msg.value * 2) / 100 */\n      swap1\n      pop\n        /* \"Campaign-Fixed-v4.sol\":2725:2728  fee */\n      dup1\n        /* \"Campaign-Fixed-v4.sol\":2705:2721  ethFeesCollected */\n      0x0c\n      0x00\n        /* \"Campaign-Fixed-v4.sol\":2705:2728  ethFeesCollected += fee */\n      dup3\n      dup3\n      sload\n      tag_229\n      swap2\n      swap1\n      tag_230\n      jump\t// in\n    tag_229:\n      swap1\n      swap2\n      sstore\n      pop\n        /* \"Campaign-Fixed-v4.sol\":2770:2785  msg.value - fee */\n      tag_231\n      swap1\n      pop\n        /* \"Campaign-Fixed-v4.sol\":2782:2785  fee */\n      dup2\n        /* \"Campaign-Fixed-v4.sol\":2770:2779  msg.value */\n      callvalue\n        /* \"Campaign-Fixed-v4.sol\":2770:2785  msg.value - fee */\n      tag_232\n      jump\t// in\n    tag_231:\n        /* \"Campaign-Fixed-v4.sol\":2755:2765  msg.sender */\n      caller\n        /* \"Campaign-Fixed-v4.sol\":2738:2766  ethContributions[msg.sender] */\n      0x00\n      swap1\n      dup2\n      mstore\n        /* \"Campaign-Fixed-v4.sol\":2738:2754  ethContributions */\n      0x09\n        /* \"Campaign-Fixed-v4.sol\":2738:2766  ethContributions[msg.sender] */\n      0x20\n      mstore\n      0x40\n      dup2\n      keccak256\n        /* \"Campaign-Fixed-v4.sol\":2738:2785  ethContributions[msg.sender] += msg.value - fee */\n      dup1\n      sload\n        /* \"Campaign-Fixed-v4.sol\":2738:2766  ethContributions[msg.sender] */\n      swap1\n      swap2\n      swap1\n        /* \"Campaign-Fixed-v4.sol\":2738:2785  ethContributions[msg.sender] += msg.value - fee */\n      tag_233\n      swap1\n      dup5\n      swap1\n      tag_230\n      jump\t// in\n    tag_233:\n      swap1\n      swap2\n      sstore\n      pop\n      pop\n      pop\n        /* \"Campaign-Fixed-v4.sol\":2497:2792  function donateETH() public payable {... */\n      jump\t// out\n        /* \"Campaign-Fixed-v4.sol\":6266:6444  function getTotalBalance() public view returns (uint256 ethBalance, uint256 flwBalance) {... */\n    tag_70:\n        /* \"Campaign-Fixed-v4.sol\":6402:6410  flwToken */\n      0x04\n      dup1\n      sload\n        /* \"Campaign-Fixed-v4.sol\":6395:6436  IERC20(flwToken).balanceOf(address(this)) */\n      mload(0x40)\n      shl(0xe0, 0x70a08231)\n      dup2\n      mstore\n        /* \"Campaign-Fixed-v4.sol\":6430:6434  this */\n      address\n        /* \"Campaign-Fixed-v4.sol\":6395:6436  IERC20(flwToken).balanceOf(address(this)) */\n      swap3\n      dup2\n      add\n        /* \"#utility.yul\":734:808   */\n      swap3\n      swap1\n      swap3\n      mstore\n        /* \"Campaign-Fixed-v4.sol\":6314:6332  uint256 ethBalance */\n      0x00\n      swap2\n      dup3\n      swap2\n        /* \"Campaign-Fixed-v4.sol\":6372:6393  address(this).balance */\n      selfbalance\n      swap2\n      sub(shl(0xa0, 0x01), 0x01)\n        /* \"Campaign-Fixed-v4.sol\":6402:6410  flwToken */\n      swap1\n      swap2\n      and\n      swap1\n        /* \"Campaign-Fixed-v4.sol\":6395:6421  IERC20(flwToken).balanceOf */\n      0x70a08231\n      swap1\n        /* \"#utility.yul\":707:725   */\n      0x24\n      add\n        /* \"Campaign-Fixed-v4.sol\":6395:6436  IERC20(flwToken).balanceOf(address(this)) */\n      0x20\n      mload(0x40)\n      dup1\n      dup4\n      sub\n      dup2\n      dup7\n      gas\n      staticcall\n      iszero\n      dup1\n      iszero\n      tag_237\n      jumpi\n      returndatasize\n      0x00\n      dup1\n      returndatacopy\n      revert(0x00, returndatasize)\n    tag_237:\n      pop\n      pop\n      pop\n      pop\n      mload(0x40)\n      returndatasize\n      not(0x1f)\n      0x1f\n      dup3\n      add\n      and\n      dup3\n      add\n      dup1\n      0x40\n      mstore\n      pop\n      dup2\n      add\n      swap1\n      tag_238\n      swap2\n      swap1\n      tag_239\n      jump\t// in\n    tag_238:\n        /* \"Campaign-Fixed-v4.sol\":6364:6437  return (address(this).balance, IERC20(flwToken).balanceOf(address(this))) */\n      swap2\n      pop\n      swap2\n      pop\n        /* \"Campaign-Fixed-v4.sol\":6266:6444  function getTotalBalance() public view returns (uint256 ethBalance, uint256 flwBalance) {... */\n      swap1\n      swap2\n      jump\t// out\n        /* \"Campaign-Fixed-v4.sol\":7055:7152  function getDescription() public view returns (string memory) {... */\n    tag_75:\n        /* \"Campaign-Fixed-v4.sol\":7102:7115  string memory */\n      0x60\n        /* \"Campaign-Fixed-v4.sol\":7134:7145  description */\n      0x07\n        /* \"Campaign-Fixed-v4.sol\":7127:7145  return description */\n      dup1\n      sload\n      tag_241\n      swap1\n      tag_242\n      jump\t// in\n    tag_241:\n      dup1\n      0x1f\n      add\n      0x20\n      dup1\n      swap2\n      div\n      mul\n      0x20\n      add\n      mload(0x40)\n      swap1\n      dup2\n      add\n      0x40\n      mstore\n      dup1\n      swap3\n      swap2\n      swap1\n      dup2\n      dup2\n      mstore\n      0x20\n      add\n      dup3\n      dup1\n      sload\n      tag_243\n      swap1\n      tag_242\n      jump\t// in\n    tag_243:\n      dup1\n      iszero\n      tag_244\n      jumpi\n      dup1\n      0x1f\n      lt\n      tag_245\n      jumpi\n      0x0100\n      dup1\n      dup4\n      sload\n      div\n      mul\n      dup4\n      mstore\n      swap2\n      0x20\n      add\n      swap2\n      jump(tag_244)\n    tag_245:\n      dup3\n      add\n      swap2\n      swap1\n      0x00\n      mstore\n      keccak256(0x00, 0x20)\n      swap1\n    tag_246:\n      dup2\n      sload\n      dup2\n      mstore\n      swap1\n      0x01\n      add\n      swap1\n      0x20\n      add\n      dup1\n      dup4\n      gt\n      tag_246\n      jumpi\n      dup3\n      swap1\n      sub\n      0x1f\n      and\n      dup3\n      add\n      swap2\n    tag_244:\n      pop\n      pop\n      pop\n      pop\n      pop\n      swap1\n      pop\n        /* \"Campaign-Fixed-v4.sol\":7055:7152  function getDescription() public view returns (string memory) {... */\n      swap1\n      jump\t// out\n        /* \"Campaign-Fixed-v4.sol\":4888:5140  function postUpdate(string calldata message) external onlyCampaignOwner {... */\n    tag_82:\n        /* \"Campaign-Fixed-v4.sol\":1339:1352  campaignOwner */\n      and(sub(shl(0xa0, 0x01), 0x01), sload(0x00))\n        /* \"Campaign-Fixed-v4.sol\":1325:1335  msg.sender */\n      caller\n        /* \"Campaign-Fixed-v4.sol\":1325:1352  msg.sender == campaignOwner */\n      eq\n        /* \"Campaign-Fixed-v4.sol\":1317:1375  require(msg.sender == campaignOwner, \"Not campaign owner\") */\n      tag_248\n      jumpi\n      mload(0x40)\n      shl(0xe5, 0x461bcd)\n      dup2\n      mstore\n        /* \"#utility.yul\":5634:5636   */\n      0x20\n        /* \"Campaign-Fixed-v4.sol\":1317:1375  require(msg.sender == campaignOwner, \"Not campaign owner\") */\n      0x04\n      dup3\n      add\n        /* \"#utility.yul\":5616:5637   */\n      mstore\n        /* \"#utility.yul\":5673:5675   */\n      0x12\n        /* \"#utility.yul\":5653:5671   */\n      0x24\n      dup3\n      add\n        /* \"#utility.yul\":5646:5676   */\n      mstore\n        /* \"#utility.yul\":5712:5732   */\n      0x4e6f742063616d706169676e206f776e65720000000000000000000000000000\n        /* \"#utility.yul\":5692:5710   */\n      0x44\n      dup3\n      add\n        /* \"#utility.yul\":5685:5733   */\n      mstore\n        /* \"#utility.yul\":5750:5768   */\n      0x64\n      add\n        /* \"Campaign-Fixed-v4.sol\":1317:1375  require(msg.sender == campaignOwner, \"Not campaign owner\") */\n      tag_220\n        /* \"#utility.yul\":5432:5774   */\n      jump\n        /* \"Campaign-Fixed-v4.sol\":1317:1375  require(msg.sender == campaignOwner, \"Not campaign owner\") */\n    tag_248:\n        /* \"Campaign-Fixed-v4.sol\":4970:4977  updates */\n      0x0d\n        /* \"Campaign-Fixed-v4.sol\":4970:4994  updates.push(msg.sender) */\n      dup1\n      sload\n      0x01\n      dup2\n      dup2\n      add\n      swap1\n      swap3\n      sstore\n      0xd7b6990105719101dabeb77144f2a3385c8033acd3af97e9423a695e81ad1eb5\n      add\n      dup1\n      sload\n      0xffffffffffffffffffffffff0000000000000000000000000000000000000000\n      and\n        /* \"Campaign-Fixed-v4.sol\":4983:4993  msg.sender */\n      caller\n        /* \"Campaign-Fixed-v4.sol\":4970:4994  updates.push(msg.sender) */\n      or\n      swap1\n      sstore\n        /* \"Campaign-Fixed-v4.sol\":5004:5018  updateMessages */\n      0x0e\n        /* \"Campaign-Fixed-v4.sol\":5004:5032  updateMessages.push(message) */\n      dup1\n      sload\n      swap2\n      dup3\n      add\n      dup2\n      sstore\n      0x00\n      mstore\n      0xbb7b4a454dc3493923482f07822329ed19e8244eff582cc204f8554c3620c3fd\n      add\n      tag_254\n        /* \"Campaign-Fixed-v4.sol\":5024:5031  message */\n      dup3\n      dup5\n        /* \"Campaign-Fixed-v4.sol\":5004:5032  updateMessages.push(message) */\n      dup4\n      tag_255\n      jump\t// in\n    tag_254:\n      pop\n        /* \"Campaign-Fixed-v4.sol\":5042:5058  updateTimestamps */\n      0x0f\n        /* \"Campaign-Fixed-v4.sol\":5042:5080  updateTimestamps.push(block.timestamp) */\n      dup1\n      sload\n      0x01\n      dup2\n      add\n      dup3\n      sstore\n      0x00\n      swap2\n      swap1\n      swap2\n      mstore\n        /* \"Campaign-Fixed-v4.sol\":5064:5079  block.timestamp */\n      timestamp\n        /* \"Campaign-Fixed-v4.sol\":5042:5080  updateTimestamps.push(block.timestamp) */\n      0x8d1108e10bcb7c27dddfc02ed9d693a074039d026cf4ea4240b40f7d581ac802\n      swap1\n      swap2\n      add\n      dup2\n      swap1\n      sstore\n        /* \"Campaign-Fixed-v4.sol\":5095:5133  UpdatePosted(message, block.timestamp) */\n      mload(0x40)\n      0x795d961edbc9e83a9c6d46e7e54ae3be27574cfbc69a1eca98133687155c24b0\n      swap2\n      tag_257\n      swap2\n        /* \"Campaign-Fixed-v4.sol\":5108:5115  message */\n      dup6\n      swap2\n      dup6\n      swap2\n        /* \"Campaign-Fixed-v4.sol\":5095:5133  UpdatePosted(message, block.timestamp) */\n      tag_258\n      jump\t// in\n    tag_257:\n      mload(0x40)\n      dup1\n      swap2\n      sub\n      swap1\n      log1\n        /* \"Campaign-Fixed-v4.sol\":4888:5140  function postUpdate(string calldata message) external onlyCampaignOwner {... */\n      pop\n      pop\n      jump\t// out\n        /* \"Campaign-Fixed-v4.sol\":5255:5473  function getUpdate(uint256 index) external view returns (string memory, uint256) {... */\n    tag_96:\n        /* \"Campaign-Fixed-v4.sol\":5362:5376  updateMessages */\n      0x0e\n        /* \"Campaign-Fixed-v4.sol\":5362:5383  updateMessages.length */\n      sload\n        /* \"Campaign-Fixed-v4.sol\":5312:5325  string memory */\n      0x60\n      swap1\n        /* \"Campaign-Fixed-v4.sol\":5327:5334  uint256 */\n      0x00\n      swap1\n        /* \"Campaign-Fixed-v4.sol\":5354:5383  index < updateMessages.length */\n      dup4\n      lt\n        /* \"Campaign-Fixed-v4.sol\":5346:5401  require(index < updateMessages.length, \"Invalid index\") */\n      tag_261\n      jumpi\n      mload(0x40)\n      shl(0xe5, 0x461bcd)\n      dup2\n      mstore\n        /* \"#utility.yul\":8604:8606   */\n      0x20\n        /* \"Campaign-Fixed-v4.sol\":5346:5401  require(index < updateMessages.length, \"Invalid index\") */\n      0x04\n      dup3\n      add\n        /* \"#utility.yul\":8586:8607   */\n      mstore\n        /* \"#utility.yul\":8643:8645   */\n      0x0d\n        /* \"#utility.yul\":8623:8641   */\n      0x24\n      dup3\n      add\n        /* \"#utility.yul\":8616:8646   */\n      mstore\n        /* \"#utility.yul\":8682:8697   */\n      0x496e76616c696420696e64657800000000000000000000000000000000000000\n        /* \"#utility.yul\":8662:8680   */\n      0x44\n      dup3\n      add\n        /* \"#utility.yul\":8655:8698   */\n      mstore\n        /* \"#utility.yul\":8715:8733   */\n      0x64\n      add\n        /* \"Campaign-Fixed-v4.sol\":5346:5401  require(index < updateMessages.length, \"Invalid index\") */\n      tag_220\n        /* \"#utility.yul\":8402:8739   */\n      jump\n        /* \"Campaign-Fixed-v4.sol\":5346:5401  require(index < updateMessages.length, \"Invalid index\") */\n    tag_261:\n        /* \"Campaign-Fixed-v4.sol\":5419:5433  updateMessages */\n      0x0e\n        /* \"Campaign-Fixed-v4.sol\":5434:5439  index */\n      dup4\n        /* \"Campaign-Fixed-v4.sol\":5419:5440  updateMessages[index] */\n      dup2\n      sload\n      dup2\n      lt\n      tag_265\n      jumpi\n      tag_265\n      tag_266\n      jump\t// in\n    tag_265:\n      swap1\n      0x00\n      mstore\n      keccak256(0x00, 0x20)\n      add\n        /* \"Campaign-Fixed-v4.sol\":5442:5458  updateTimestamps */\n      0x0f\n        /* \"Campaign-Fixed-v4.sol\":5459:5464  index */\n      dup5\n        /* \"Campaign-Fixed-v4.sol\":5442:5465  updateTimestamps[index] */\n      dup2\n      sload\n      dup2\n      lt\n      tag_269\n      jumpi\n      tag_269\n      tag_266\n      jump\t// in\n    tag_269:\n      swap1\n      0x00\n      mstore\n      keccak256(0x00, 0x20)\n      add\n      sload\n        /* \"Campaign-Fixed-v4.sol\":5411:5466  return (updateMessages[index], updateTimestamps[index]) */\n      dup2\n      dup1\n      sload\n      tag_271\n      swap1\n      tag_242\n      jump\t// in\n    tag_271:\n      dup1\n      0x1f\n      add\n      0x20\n      dup1\n      swap2\n      div\n      mul\n      0x20\n      add\n      mload(0x40)\n      swap1\n      dup2\n      add\n      0x40\n      mstore\n      dup1\n      swap3\n      swap2\n      swap1\n      dup2\n      dup2\n      mstore\n      0x20\n      add\n      dup3\n      dup1\n      sload\n      tag_272\n      swap1\n      tag_242\n      jump\t// in\n    tag_272:\n      dup1\n      iszero\n      tag_273\n      jumpi\n      dup1\n      0x1f\n      lt\n      tag_274\n      jumpi\n      0x0100\n      dup1\n      dup4\n      sload\n      div\n      mul\n      dup4\n      mstore\n      swap2\n      0x20\n      add\n      swap2\n      jump(tag_273)\n    tag_274:\n      dup3\n      add\n      swap2\n      swap1\n      0x00\n      mstore\n      keccak256(0x00, 0x20)\n      swap1\n    tag_275:\n      dup2\n      sload\n      dup2\n      mstore\n      swap1\n      0x01\n      add\n      swap1\n      0x20\n      add\n      dup1\n      dup4\n      gt\n      tag_275\n      jumpi\n      dup3\n      swap1\n      sub\n      0x1f\n      and\n      dup3\n      add\n      swap2\n    tag_273:\n      pop\n      pop\n      pop\n      pop\n      pop\n      swap2\n      pop\n      swap2\n      pop\n      swap2\n      pop\n        /* \"Campaign-Fixed-v4.sol\":5255:5473  function getUpdate(uint256 index) external view returns (string memory, uint256) {... */\n      swap2\n      pop\n      swap2\n      jump\t// out\n        /* \"Campaign-Fixed-v4.sol\":3390:4089  function withdraw() external onlyCampaignOwner {... */\n    tag_101:\n        /* \"Campaign-Fixed-v4.sol\":1339:1352  campaignOwner */\n      and(sub(shl(0xa0, 0x01), 0x01), sload(0x00))\n        /* \"Campaign-Fixed-v4.sol\":1325:1335  msg.sender */\n      caller\n        /* \"Campaign-Fixed-v4.sol\":1325:1352  msg.sender == campaignOwner */\n      eq\n        /* \"Campaign-Fixed-v4.sol\":1317:1375  require(msg.sender == campaignOwner, \"Not campaign owner\") */\n      tag_277\n      jumpi\n      mload(0x40)\n      shl(0xe5, 0x461bcd)\n      dup2\n      mstore\n        /* \"#utility.yul\":5634:5636   */\n      0x20\n        /* \"Campaign-Fixed-v4.sol\":1317:1375  require(msg.sender == campaignOwner, \"Not campaign owner\") */\n      0x04\n      dup3\n      add\n        /* \"#utility.yul\":5616:5637   */\n      mstore\n        /* \"#utility.yul\":5673:5675   */\n      0x12\n        /* \"#utility.yul\":5653:5671   */\n      0x24\n      dup3\n      add\n        /* \"#utility.yul\":5646:5676   */\n      mstore\n        /* \"#utility.yul\":5712:5732   */\n      0x4e6f742063616d706169676e206f776e65720000000000000000000000000000\n        /* \"#utility.yul\":5692:5710   */\n      0x44\n      dup3\n      add\n        /* \"#utility.yul\":5685:5733   */\n      mstore\n        /* \"#utility.yul\":5750:5768   */\n      0x64\n      add\n        /* \"Campaign-Fixed-v4.sol\":1317:1375  require(msg.sender == campaignOwner, \"Not campaign owner\") */\n      tag_220\n        /* \"#utility.yul\":5432:5774   */\n      jump\n        /* \"Campaign-Fixed-v4.sol\":1317:1375  require(msg.sender == campaignOwner, \"Not campaign owner\") */\n    tag_277:\n        /* \"Campaign-Fixed-v4.sol\":3474:3482  deadline */\n      sload(0x03)\n        /* \"Campaign-Fixed-v4.sol\":3455:3470  block.timestamp */\n      timestamp\n        /* \"Campaign-Fixed-v4.sol\":3455:3482  block.timestamp >= deadline */\n      lt\n      iszero\n        /* \"Campaign-Fixed-v4.sol\":3447:3505  require(block.timestamp >= deadline, \"Campaign not ended\") */\n      tag_280\n      jumpi\n      mload(0x40)\n      shl(0xe5, 0x461bcd)\n      dup2\n      mstore\n        /* \"#utility.yul\":9078:9080   */\n      0x20\n        /* \"Campaign-Fixed-v4.sol\":3447:3505  require(block.timestamp >= deadline, \"Campaign not ended\") */\n      0x04\n      dup3\n      add\n        /* \"#utility.yul\":9060:9081   */\n      mstore\n        /* \"#utility.yul\":9117:9119   */\n      0x12\n        /* \"#utility.yul\":9097:9115   */\n      0x24\n      dup3\n      add\n        /* \"#utility.yul\":9090:9120   */\n      mstore\n        /* \"#utility.yul\":9156:9176   */\n      0x43616d706169676e206e6f7420656e6465640000000000000000000000000000\n        /* \"#utility.yul\":9136:9154   */\n      0x44\n      dup3\n      add\n        /* \"#utility.yul\":9129:9177   */\n      mstore\n        /* \"#utility.yul\":9194:9212   */\n      0x64\n      add\n        /* \"Campaign-Fixed-v4.sol\":3447:3505  require(block.timestamp >= deadline, \"Campaign not ended\") */\n      tag_220\n        /* \"#utility.yul\":8876:9218   */\n      jump\n        /* \"Campaign-Fixed-v4.sol\":3447:3505  require(block.timestamp >= deadline, \"Campaign not ended\") */\n    tag_280:\n        /* \"Campaign-Fixed-v4.sol\":3516:3534  uint256 ethBalance */\n      0x00\n        /* \"Campaign-Fixed-v4.sol\":3561:3577  ethFeesCollected */\n      sload(0x0c)\n        /* \"Campaign-Fixed-v4.sol\":3537:3558  address(this).balance */\n      selfbalance\n        /* \"Campaign-Fixed-v4.sol\":3537:3577  address(this).balance - ethFeesCollected */\n      tag_283\n      swap2\n      swap1\n      tag_232\n      jump\t// in\n    tag_283:\n        /* \"Campaign-Fixed-v4.sol\":3671:3679  flwToken */\n      0x04\n      dup1\n      sload\n      sub(shl(0xa0, 0x01), 0x01)\n      and\n        /* \"Campaign-Fixed-v4.sol\":3587:3605  uint256 flwBalance */\n      0x00\n        /* \"Campaign-Fixed-v4.sol\":3652:3680  tokenFeesCollected[flwToken] */\n      dup2\n      dup2\n      mstore\n        /* \"Campaign-Fixed-v4.sol\":3652:3670  tokenFeesCollected */\n      0x0b\n        /* \"Campaign-Fixed-v4.sol\":3652:3680  tokenFeesCollected[flwToken] */\n      0x20\n      mstore\n      0x40\n      dup1\n      dup3\n      keccak256\n      sload\n        /* \"Campaign-Fixed-v4.sol\":3608:3649  IERC20(flwToken).balanceOf(address(this)) */\n      swap1\n      mload\n      shl(0xe0, 0x70a08231)\n      dup2\n      mstore\n        /* \"Campaign-Fixed-v4.sol\":3643:3647  this */\n      address\n        /* \"Campaign-Fixed-v4.sol\":3608:3649  IERC20(flwToken).balanceOf(address(this)) */\n      swap5\n      dup2\n      add\n        /* \"#utility.yul\":734:808   */\n      swap5\n      swap1\n      swap5\n      mstore\n        /* \"Campaign-Fixed-v4.sol\":3516:3577  uint256 ethBalance = address(this).balance - ethFeesCollected */\n      swap4\n      swap5\n      pop\n        /* \"Campaign-Fixed-v4.sol\":3587:3605  uint256 flwBalance */\n      swap3\n        /* \"Campaign-Fixed-v4.sol\":3652:3680  tokenFeesCollected[flwToken] */\n      swap2\n        /* \"Campaign-Fixed-v4.sol\":3608:3634  IERC20(flwToken).balanceOf */\n      0x70a08231\n      swap1\n        /* \"#utility.yul\":707:725   */\n      0x24\n      add\n        /* \"Campaign-Fixed-v4.sol\":3608:3649  IERC20(flwToken).balanceOf(address(this)) */\n      0x20\n      mload(0x40)\n      dup1\n      dup4\n      sub\n      dup2\n      dup7\n      gas\n      staticcall\n      iszero\n      dup1\n      iszero\n      tag_286\n      jumpi\n      returndatasize\n      0x00\n      dup1\n      returndatacopy\n      revert(0x00, returndatasize)\n    tag_286:\n      pop\n      pop\n      pop\n      pop\n      mload(0x40)\n      returndatasize\n      not(0x1f)\n      0x1f\n      dup3\n      add\n      and\n      dup3\n      add\n      dup1\n      0x40\n      mstore\n      pop\n      dup2\n      add\n      swap1\n      tag_287\n      swap2\n      swap1\n      tag_239\n      jump\t// in\n    tag_287:\n        /* \"Campaign-Fixed-v4.sol\":3608:3680  IERC20(flwToken).balanceOf(address(this)) - tokenFeesCollected[flwToken] */\n      tag_288\n      swap2\n      swap1\n      tag_232\n      jump\t// in\n    tag_288:\n        /* \"Campaign-Fixed-v4.sol\":3587:3680  uint256 flwBalance = IERC20(flwToken).balanceOf(address(this)) - tokenFeesCollected[flwToken] */\n      swap1\n      pop\n        /* \"Campaign-Fixed-v4.sol\":3706:3710  true */\n      0x01\n      dup1\n        /* \"Campaign-Fixed-v4.sol\":3754:3768  ethBalance > 0 */\n      dup4\n      iszero\n        /* \"Campaign-Fixed-v4.sol\":3750:3859  if (ethBalance > 0) {... */\n      tag_289\n      jumpi\n        /* \"Campaign-Fixed-v4.sol\":3806:3819  campaignOwner */\n      0x00\n      dup1\n      sload\n        /* \"Campaign-Fixed-v4.sol\":3798:3848  payable(campaignOwner).call{value: ethBalance}(\"\") */\n      mload(0x40)\n      sub(shl(0xa0, 0x01), 0x01)\n        /* \"Campaign-Fixed-v4.sol\":3806:3819  campaignOwner */\n      swap1\n      swap2\n      and\n      swap2\n        /* \"Campaign-Fixed-v4.sol\":3833:3843  ethBalance */\n      dup7\n      swap2\n        /* \"Campaign-Fixed-v4.sol\":3798:3848  payable(campaignOwner).call{value: ethBalance}(\"\") */\n      swap1\n      dup2\n        /* \"Campaign-Fixed-v4.sol\":3806:3819  campaignOwner */\n      dup2\n        /* \"Campaign-Fixed-v4.sol\":3798:3848  payable(campaignOwner).call{value: ethBalance}(\"\") */\n      dup2\n        /* \"Campaign-Fixed-v4.sol\":3833:3843  ethBalance */\n      dup6\n        /* \"Campaign-Fixed-v4.sol\":3806:3819  campaignOwner */\n      dup8\n        /* \"Campaign-Fixed-v4.sol\":3798:3848  payable(campaignOwner).call{value: ethBalance}(\"\") */\n      gas\n      call\n      swap3\n      pop\n      pop\n      pop\n      returndatasize\n      dup1\n      0x00\n      dup2\n      eq\n      tag_294\n      jumpi\n      mload(0x40)\n      swap2\n      pop\n      and(add(returndatasize, 0x3f), not(0x1f))\n      dup3\n      add\n      0x40\n      mstore\n      returndatasize\n      dup3\n      mstore\n      returndatasize\n      0x00\n      0x20\n      dup5\n      add\n      returndatacopy\n      jump(tag_293)\n    tag_294:\n      0x60\n      swap2\n      pop\n    tag_293:\n      pop\n        /* \"Campaign-Fixed-v4.sol\":3784:3848  (ethSent, ) = payable(campaignOwner).call{value: ethBalance}(\"\") */\n      swap1\n      swap3\n      pop\n      pop\n        /* \"Campaign-Fixed-v4.sol\":3750:3859  if (ethBalance > 0) {... */\n    tag_289:\n        /* \"Campaign-Fixed-v4.sol\":3873:3887  flwBalance > 0 */\n      dup3\n      iszero\n        /* \"Campaign-Fixed-v4.sol\":3869:3976  if (flwBalance > 0) {... */\n      tag_295\n      jumpi\n        /* \"Campaign-Fixed-v4.sol\":3920:3928  flwToken */\n      0x04\n      dup1\n      sload\n      0x00\n        /* \"Campaign-Fixed-v4.sol\":3939:3952  campaignOwner */\n      sload\n        /* \"Campaign-Fixed-v4.sol\":3913:3965  IERC20(flwToken).transfer(campaignOwner, flwBalance) */\n      mload(0x40)\n      shl(0xe0, 0xa9059cbb)\n      dup2\n      mstore\n      sub(shl(0xa0, 0x01), 0x01)\n        /* \"Campaign-Fixed-v4.sol\":3939:3952  campaignOwner */\n      swap2\n      dup3\n      and\n        /* \"Campaign-Fixed-v4.sol\":3913:3965  IERC20(flwToken).transfer(campaignOwner, flwBalance) */\n      swap4\n      dup2\n      add\n        /* \"#utility.yul\":9607:9681   */\n      swap4\n      swap1\n      swap4\n      mstore\n        /* \"#utility.yul\":9697:9715   */\n      0x24\n      dup4\n      add\n        /* \"#utility.yul\":9690:9724   */\n      dup7\n      swap1\n      mstore\n        /* \"Campaign-Fixed-v4.sol\":3920:3928  flwToken */\n      and\n      swap1\n        /* \"Campaign-Fixed-v4.sol\":3913:3938  IERC20(flwToken).transfer */\n      0xa9059cbb\n      swap1\n        /* \"#utility.yul\":9580:9598   */\n      0x44\n      add\n        /* \"Campaign-Fixed-v4.sol\":3913:3965  IERC20(flwToken).transfer(campaignOwner, flwBalance) */\n      0x20\n      mload(0x40)\n      dup1\n      dup4\n      sub\n      dup2\n      0x00\n      dup8\n      gas\n      call\n      iszero\n      dup1\n      iszero\n      tag_299\n      jumpi\n      returndatasize\n      0x00\n      dup1\n      returndatacopy\n      revert(0x00, returndatasize)\n    tag_299:\n      pop\n      pop\n      pop\n      pop\n      mload(0x40)\n      returndatasize\n      not(0x1f)\n      0x1f\n      dup3\n      add\n      and\n      dup3\n      add\n      dup1\n      0x40\n      mstore\n      pop\n      dup2\n      add\n      swap1\n      tag_300\n      swap2\n      swap1\n      tag_301\n      jump\t// in\n    tag_300:\n        /* \"Campaign-Fixed-v4.sol\":3903:3965  flwSent = IERC20(flwToken).transfer(campaignOwner, flwBalance) */\n      swap1\n      pop\n        /* \"Campaign-Fixed-v4.sol\":3869:3976  if (flwBalance > 0) {... */\n    tag_295:\n        /* \"Campaign-Fixed-v4.sol\":3991:4024  WithdrawSuccess(ethSent, flwSent) */\n      0x40\n      dup1\n      mload\n        /* \"#utility.yul\":10204:10218   */\n      dup4\n      iszero\n        /* \"#utility.yul\":10197:10219   */\n      iszero\n        /* \"#utility.yul\":10179:10220   */\n      dup2\n      mstore\n        /* \"#utility.yul\":10263:10277   */\n      dup3\n      iszero\n        /* \"#utility.yul\":10256:10278   */\n      iszero\n        /* \"#utility.yul\":10251:10253   */\n      0x20\n        /* \"#utility.yul\":10236:10254   */\n      dup3\n      add\n        /* \"#utility.yul\":10229:10279   */\n      mstore\n        /* \"Campaign-Fixed-v4.sol\":3991:4024  WithdrawSuccess(ethSent, flwSent) */\n      0xedaf6307dd03cf2213c8cf4c3154d20dbf80b44bb80b206b6381109881db78e7\n      swap2\n        /* \"#utility.yul\":10152:10170   */\n      add\n        /* \"Campaign-Fixed-v4.sol\":3991:4024  WithdrawSuccess(ethSent, flwSent) */\n      mload(0x40)\n      dup1\n      swap2\n      sub\n      swap1\n      log1\n        /* \"Campaign-Fixed-v4.sol\":4042:4049  ethSent */\n      dup2\n        /* \"Campaign-Fixed-v4.sol\":4042:4060  ethSent || flwSent */\n      dup1\n      tag_304\n      jumpi\n      pop\n        /* \"Campaign-Fixed-v4.sol\":4053:4060  flwSent */\n      dup1\n        /* \"Campaign-Fixed-v4.sol\":4042:4060  ethSent || flwSent */\n    tag_304:\n        /* \"Campaign-Fixed-v4.sol\":4034:4082  require(ethSent || flwSent, \"Nothing withdrawn\") */\n      tag_305\n      jumpi\n      mload(0x40)\n      shl(0xe5, 0x461bcd)\n      dup2\n      mstore\n        /* \"#utility.yul\":10492:10494   */\n      0x20\n        /* \"Campaign-Fixed-v4.sol\":4034:4082  require(ethSent || flwSent, \"Nothing withdrawn\") */\n      0x04\n      dup3\n      add\n        /* \"#utility.yul\":10474:10495   */\n      mstore\n        /* \"#utility.yul\":10531:10533   */\n      0x11\n        /* \"#utility.yul\":10511:10529   */\n      0x24\n      dup3\n      add\n        /* \"#utility.yul\":10504:10534   */\n      mstore\n        /* \"#utility.yul\":10570:10589   */\n      0x4e6f7468696e672077697468647261776e000000000000000000000000000000\n        /* \"#utility.yul\":10550:10568   */\n      0x44\n      dup3\n      add\n        /* \"#utility.yul\":10543:10590   */\n      mstore\n        /* \"#utility.yul\":10607:10625   */\n      0x64\n      add\n        /* \"Campaign-Fixed-v4.sol\":4034:4082  require(ethSent || flwSent, \"Nothing withdrawn\") */\n      tag_220\n        /* \"#utility.yul\":10290:10631   */\n      jump\n        /* \"Campaign-Fixed-v4.sol\":4034:4082  require(ethSent || flwSent, \"Nothing withdrawn\") */\n    tag_305:\n        /* \"Campaign-Fixed-v4.sol\":3437:4089  {... */\n      pop\n      pop\n      pop\n      pop\n        /* \"Campaign-Fixed-v4.sol\":3390:4089  function withdraw() external onlyCampaignOwner {... */\n      jump\t// out\n        /* \"Campaign-Fixed-v4.sol\":647:666  string public title */\n    tag_108:\n      0x06\n      dup1\n      sload\n      tag_308\n      swap1\n      tag_242\n      jump\t// in\n    tag_308:\n      dup1\n      0x1f\n      add\n      0x20\n      dup1\n      swap2\n      div\n      mul\n      0x20\n      add\n      mload(0x40)\n      swap1\n      dup2\n      add\n      0x40\n      mstore\n      dup1\n      swap3\n      swap2\n      swap1\n      dup2\n      dup2\n      mstore\n      0x20\n      add\n      dup3\n      dup1\n      sload\n      tag_309\n      swap1\n      tag_242\n      jump\t// in\n    tag_309:\n      dup1\n      iszero\n      tag_310\n      jumpi\n      dup1\n      0x1f\n      lt\n      tag_311\n      jumpi\n      0x0100\n      dup1\n      dup4\n      sload\n      div\n      mul\n      dup4\n      mstore\n      swap2\n      0x20\n      add\n      swap2\n      jump(tag_310)\n    tag_311:\n      dup3\n      add\n      swap2\n      swap1\n      0x00\n      mstore\n      keccak256(0x00, 0x20)\n      swap1\n    tag_312:\n      dup2\n      sload\n      dup2\n      mstore\n      swap1\n      0x01\n      add\n      swap1\n      0x20\n      add\n      dup1\n      dup4\n      gt\n      tag_312\n      jumpi\n      dup3\n      swap1\n      sub\n      0x1f\n      and\n      dup3\n      add\n      swap2\n    tag_310:\n      pop\n      pop\n      pop\n      pop\n      pop\n      dup2\n      jump\t// out\n        /* \"Campaign-Fixed-v4.sol\":4127:4379  function collectETHFees(address to) public onlyFactory {... */\n    tag_117:\n        /* \"Campaign-Fixed-v4.sol\":1454:1461  factory */\n      and(sub(shl(0xa0, 0x01), 0x01), sload(0x01))\n        /* \"Campaign-Fixed-v4.sol\":1440:1450  msg.sender */\n      caller\n        /* \"Campaign-Fixed-v4.sol\":1440:1461  msg.sender == factory */\n      eq\n        /* \"Campaign-Fixed-v4.sol\":1432:1477  require(msg.sender == factory, \"Not factory\") */\n      tag_315\n      jumpi\n      mload(0x40)\n      shl(0xe5, 0x461bcd)\n      dup2\n      mstore\n        /* \"#utility.yul\":10838:10840   */\n      0x20\n        /* \"Campaign-Fixed-v4.sol\":1432:1477  require(msg.sender == factory, \"Not factory\") */\n      0x04\n      dup3\n      add\n        /* \"#utility.yul\":10820:10841   */\n      mstore\n        /* \"#utility.yul\":10877:10879   */\n      0x0b\n        /* \"#utility.yul\":10857:10875   */\n      0x24\n      dup3\n      add\n        /* \"#utility.yul\":10850:10880   */\n      mstore\n      shl(0xa8, 0x4e6f7420666163746f7279)\n        /* \"#utility.yul\":10896:10914   */\n      0x44\n      dup3\n      add\n        /* \"#utility.yul\":10889:10930   */\n      mstore\n        /* \"#utility.yul\":10947:10965   */\n      0x64\n      add\n        /* \"Campaign-Fixed-v4.sol\":1432:1477  require(msg.sender == factory, \"Not factory\") */\n      tag_220\n        /* \"#utility.yul\":10636:10971   */\n      jump\n        /* \"Campaign-Fixed-v4.sol\":1432:1477  require(msg.sender == factory, \"Not factory\") */\n    tag_315:\n        /* \"Campaign-Fixed-v4.sol\":4209:4225  ethFeesCollected */\n      0x0c\n      dup1\n      sload\n        /* \"Campaign-Fixed-v4.sol\":4192:4206  uint256 amount */\n      0x00\n        /* \"Campaign-Fixed-v4.sol\":4235:4255  ethFeesCollected = 0 */\n      swap2\n      dup3\n      swap1\n      sstore\n        /* \"Campaign-Fixed-v4.sol\":4284:4319  payable(to).call{value: amount}(\"\") */\n      mload(0x40)\n        /* \"Campaign-Fixed-v4.sol\":4209:4225  ethFeesCollected */\n      swap1\n      swap2\n        /* \"Campaign-Fixed-v4.sol\":4192:4206  uint256 amount */\n      swap1\n      sub(shl(0xa0, 0x01), 0x01)\n        /* \"Campaign-Fixed-v4.sol\":4284:4300  payable(to).call */\n      dup5\n      and\n      swap1\n        /* \"Campaign-Fixed-v4.sol\":4209:4225  ethFeesCollected */\n      dup4\n      swap1\n        /* \"Campaign-Fixed-v4.sol\":4192:4206  uint256 amount */\n      dup4\n        /* \"Campaign-Fixed-v4.sol\":4284:4319  payable(to).call{value: amount}(\"\") */\n      dup2\n        /* \"Campaign-Fixed-v4.sol\":4192:4206  uint256 amount */\n      dup2\n        /* \"Campaign-Fixed-v4.sol\":4284:4319  payable(to).call{value: amount}(\"\") */\n      dup2\n        /* \"Campaign-Fixed-v4.sol\":4209:4225  ethFeesCollected */\n      dup6\n        /* \"Campaign-Fixed-v4.sol\":4284:4300  payable(to).call */\n      dup8\n        /* \"Campaign-Fixed-v4.sol\":4284:4319  payable(to).call{value: amount}(\"\") */\n      gas\n      call\n      swap3\n      pop\n      pop\n      pop\n      returndatasize\n      dup1\n      0x00\n      dup2\n      eq\n      tag_322\n      jumpi\n      mload(0x40)\n      swap2\n      pop\n      and(add(returndatasize, 0x3f), not(0x1f))\n      dup3\n      add\n      0x40\n      mstore\n      returndatasize\n      dup3\n      mstore\n      returndatasize\n      0x00\n      0x20\n      dup5\n      add\n      returndatacopy\n      jump(tag_321)\n    tag_322:\n      0x60\n      swap2\n      pop\n    tag_321:\n      pop\n        /* \"Campaign-Fixed-v4.sol\":4265:4319  (bool success, ) = payable(to).call{value: amount}(\"\") */\n      pop\n      swap1\n      pop\n        /* \"Campaign-Fixed-v4.sol\":4337:4344  success */\n      dup1\n        /* \"Campaign-Fixed-v4.sol\":4329:4372  require(success, \"ETH fee transfer failed\") */\n      tag_323\n      jumpi\n      mload(0x40)\n      shl(0xe5, 0x461bcd)\n      dup2\n      mstore\n        /* \"#utility.yul\":11178:11180   */\n      0x20\n        /* \"Campaign-Fixed-v4.sol\":4329:4372  require(success, \"ETH fee transfer failed\") */\n      0x04\n      dup3\n      add\n        /* \"#utility.yul\":11160:11181   */\n      mstore\n        /* \"#utility.yul\":11217:11219   */\n      0x17\n        /* \"#utility.yul\":11197:11215   */\n      0x24\n      dup3\n      add\n        /* \"#utility.yul\":11190:11220   */\n      mstore\n        /* \"#utility.yul\":11256:11281   */\n      0x45544820666565207472616e73666572206661696c6564000000000000000000\n        /* \"#utility.yul\":11236:11254   */\n      0x44\n      dup3\n      add\n        /* \"#utility.yul\":11229:11282   */\n      mstore\n        /* \"#utility.yul\":11299:11317   */\n      0x64\n      add\n        /* \"Campaign-Fixed-v4.sol\":4329:4372  require(success, \"ETH fee transfer failed\") */\n      tag_220\n        /* \"#utility.yul\":10976:11323   */\n      jump\n        /* \"Campaign-Fixed-v4.sol\":4329:4372  require(success, \"ETH fee transfer failed\") */\n    tag_323:\n        /* \"Campaign-Fixed-v4.sol\":4182:4379  {... */\n      pop\n      pop\n        /* \"Campaign-Fixed-v4.sol\":4127:4379  function collectETHFees(address to) public onlyFactory {... */\n      pop\n      jump\t// out\n        /* \"Campaign-Fixed-v4.sol\":2798:3330  function donateToken(address token, uint256 amount) external {... */\n    tag_122:\n        /* \"Campaign-Fixed-v4.sol\":2895:2903  deadline */\n      sload(0x03)\n        /* \"Campaign-Fixed-v4.sol\":2877:2892  block.timestamp */\n      timestamp\n        /* \"Campaign-Fixed-v4.sol\":2877:2903  block.timestamp < deadline */\n      lt\n        /* \"Campaign-Fixed-v4.sol\":2869:2922  require(block.timestamp < deadline, \"Campaign ended\") */\n      tag_327\n      jumpi\n      mload(0x40)\n      shl(0xe5, 0x461bcd)\n      dup2\n      mstore\n        /* \"#utility.yul\":3587:3589   */\n      0x20\n        /* \"Campaign-Fixed-v4.sol\":2869:2922  require(block.timestamp < deadline, \"Campaign ended\") */\n      0x04\n      dup3\n      add\n        /* \"#utility.yul\":3569:3590   */\n      mstore\n        /* \"#utility.yul\":3626:3628   */\n      0x0e\n        /* \"#utility.yul\":3606:3624   */\n      0x24\n      dup3\n      add\n        /* \"#utility.yul\":3599:3629   */\n      mstore\n      shl(0x92, 0x10d85b5c185a59db88195b991959)\n        /* \"#utility.yul\":3645:3663   */\n      0x44\n      dup3\n      add\n        /* \"#utility.yul\":3638:3682   */\n      mstore\n        /* \"#utility.yul\":3699:3717   */\n      0x64\n      add\n        /* \"Campaign-Fixed-v4.sol\":2869:2922  require(block.timestamp < deadline, \"Campaign ended\") */\n      tag_220\n        /* \"#utility.yul\":3385:3723   */\n      jump\n        /* \"Campaign-Fixed-v4.sol\":2869:2922  require(block.timestamp < deadline, \"Campaign ended\") */\n    tag_327:\n        /* \"Campaign-Fixed-v4.sol\":2949:2950  0 */\n      0x00\n        /* \"Campaign-Fixed-v4.sol\":2940:2946  amount */\n      dup2\n        /* \"Campaign-Fixed-v4.sol\":2940:2950  amount > 0 */\n      gt\n        /* \"Campaign-Fixed-v4.sol\":2932:2969  require(amount > 0, \"No tokens sent\") */\n      tag_329\n      jumpi\n      mload(0x40)\n      shl(0xe5, 0x461bcd)\n      dup2\n      mstore\n        /* \"#utility.yul\":11530:11532   */\n      0x20\n        /* \"Campaign-Fixed-v4.sol\":2932:2969  require(amount > 0, \"No tokens sent\") */\n      0x04\n      dup3\n      add\n        /* \"#utility.yul\":11512:11533   */\n      mstore\n        /* \"#utility.yul\":11569:11571   */\n      0x0e\n        /* \"#utility.yul\":11549:11567   */\n      0x24\n      dup3\n      add\n        /* \"#utility.yul\":11542:11572   */\n      mstore\n        /* \"#utility.yul\":11608:11624   */\n      0x4e6f20746f6b656e732073656e74000000000000000000000000000000000000\n        /* \"#utility.yul\":11588:11606   */\n      0x44\n      dup3\n      add\n        /* \"#utility.yul\":11581:11625   */\n      mstore\n        /* \"#utility.yul\":11642:11660   */\n      0x64\n      add\n        /* \"Campaign-Fixed-v4.sol\":2932:2969  require(amount > 0, \"No tokens sent\") */\n      tag_220\n        /* \"#utility.yul\":11328:11666   */\n      jump\n        /* \"Campaign-Fixed-v4.sol\":2932:2969  require(amount > 0, \"No tokens sent\") */\n    tag_329:\n        /* \"Campaign-Fixed-v4.sol\":3004:3012  flwToken */\n      sload(0x04)\n        /* \"Campaign-Fixed-v4.sol\":2980:2991  uint256 fee */\n      0x00\n      swap1\n      sub(shl(0xa0, 0x01), 0x01)\n        /* \"Campaign-Fixed-v4.sol\":2995:3012  token == flwToken */\n      dup5\n      dup2\n      and\n        /* \"Campaign-Fixed-v4.sol\":3004:3012  flwToken */\n      swap2\n      and\n        /* \"Campaign-Fixed-v4.sol\":2995:3012  token == flwToken */\n      eq\n        /* \"Campaign-Fixed-v4.sol\":2994:3056  (token == flwToken) ? (amount * 5) / 1000 : (amount * 2) / 100 */\n      tag_332\n      jumpi\n        /* \"Campaign-Fixed-v4.sol\":3053:3056  100 */\n      0x64\n        /* \"Campaign-Fixed-v4.sol\":3039:3049  amount * 2 */\n      tag_333\n        /* \"Campaign-Fixed-v4.sol\":3039:3045  amount */\n      dup4\n        /* \"Campaign-Fixed-v4.sol\":3048:3049  2 */\n      0x02\n        /* \"Campaign-Fixed-v4.sol\":3039:3049  amount * 2 */\n      tag_226\n      jump\t// in\n    tag_333:\n        /* \"Campaign-Fixed-v4.sol\":3038:3056  (amount * 2) / 100 */\n      tag_334\n      swap2\n      swap1\n      tag_228\n      jump\t// in\n    tag_334:\n        /* \"Campaign-Fixed-v4.sol\":2994:3056  (token == flwToken) ? (amount * 5) / 1000 : (amount * 2) / 100 */\n      jump(tag_337)\n    tag_332:\n        /* \"Campaign-Fixed-v4.sol\":3031:3035  1000 */\n      0x03e8\n        /* \"Campaign-Fixed-v4.sol\":3017:3027  amount * 5 */\n      tag_336\n        /* \"Campaign-Fixed-v4.sol\":3017:3023  amount */\n      dup4\n        /* \"Campaign-Fixed-v4.sol\":3026:3027  5 */\n      0x05\n        /* \"Campaign-Fixed-v4.sol\":3017:3027  amount * 5 */\n      tag_226\n      jump\t// in\n    tag_336:\n        /* \"Campaign-Fixed-v4.sol\":3016:3035  (amount * 5) / 1000 */\n      tag_337\n      swap2\n      swap1\n      tag_228\n      jump\t// in\n    tag_337:\n        /* \"Campaign-Fixed-v4.sol\":2980:3056  uint256 fee = (token == flwToken) ? (amount * 5) / 1000 : (amount * 2) / 100 */\n      swap1\n      pop\n        /* \"Campaign-Fixed-v4.sol\":3089:3106  uint256 netAmount */\n      0x00\n        /* \"Campaign-Fixed-v4.sol\":3109:3121  amount - fee */\n      tag_338\n        /* \"Campaign-Fixed-v4.sol\":2980:3056  uint256 fee = (token == flwToken) ? (amount * 5) / 1000 : (amount * 2) / 100 */\n      dup3\n        /* \"Campaign-Fixed-v4.sol\":3109:3115  amount */\n      dup5\n        /* \"Campaign-Fixed-v4.sol\":3109:3121  amount - fee */\n      tag_232\n      jump\t// in\n    tag_338:\n        /* \"Campaign-Fixed-v4.sol\":3140:3201  IERC20(token).transferFrom(msg.sender, address(this), amount) */\n      mload(0x40)\n      shl(0xe0, 0x23b872dd)\n      dup2\n      mstore\n        /* \"Campaign-Fixed-v4.sol\":3167:3177  msg.sender */\n      caller\n        /* \"Campaign-Fixed-v4.sol\":3140:3201  IERC20(token).transferFrom(msg.sender, address(this), amount) */\n      0x04\n      dup3\n      add\n        /* \"#utility.yul\":11934:11968   */\n      mstore\n        /* \"Campaign-Fixed-v4.sol\":3187:3191  this */\n      address\n        /* \"#utility.yul\":11984:12002   */\n      0x24\n      dup3\n      add\n        /* \"#utility.yul\":11977:12020   */\n      mstore\n        /* \"#utility.yul\":12036:12054   */\n      0x44\n      dup2\n      add\n        /* \"#utility.yul\":12029:12063   */\n      dup6\n      swap1\n      mstore\n        /* \"Campaign-Fixed-v4.sol\":3089:3121  uint256 netAmount = amount - fee */\n      swap1\n      swap2\n      pop\n      sub(shl(0xa0, 0x01), 0x01)\n        /* \"Campaign-Fixed-v4.sol\":3140:3166  IERC20(token).transferFrom */\n      dup6\n      and\n      swap1\n      0x23b872dd\n      swap1\n        /* \"#utility.yul\":11846:11864   */\n      0x64\n      add\n        /* \"Campaign-Fixed-v4.sol\":3140:3201  IERC20(token).transferFrom(msg.sender, address(this), amount) */\n      0x20\n      mload(0x40)\n      dup1\n      dup4\n      sub\n      dup2\n      0x00\n      dup8\n      gas\n      call\n      iszero\n      dup1\n      iszero\n      tag_342\n      jumpi\n      returndatasize\n      0x00\n      dup1\n      returndatacopy\n      revert(0x00, returndatasize)\n    tag_342:\n      pop\n      pop\n      pop\n      pop\n      mload(0x40)\n      returndatasize\n      not(0x1f)\n      0x1f\n      dup3\n      add\n      and\n      dup3\n      add\n      dup1\n      0x40\n      mstore\n      pop\n      dup2\n      add\n      swap1\n      tag_343\n      swap2\n      swap1\n      tag_301\n      jump\t// in\n    tag_343:\n        /* \"Campaign-Fixed-v4.sol\":3132:3221  require(IERC20(token).transferFrom(msg.sender, address(this), amount), \"Transfer failed\") */\n      tag_344\n      jumpi\n      mload(0x40)\n      shl(0xe5, 0x461bcd)\n      dup2\n      mstore\n        /* \"#utility.yul\":12276:12278   */\n      0x20\n        /* \"Campaign-Fixed-v4.sol\":3132:3221  require(IERC20(token).transferFrom(msg.sender, address(this), amount), \"Transfer failed\") */\n      0x04\n      dup3\n      add\n        /* \"#utility.yul\":12258:12279   */\n      mstore\n        /* \"#utility.yul\":12315:12317   */\n      0x0f\n        /* \"#utility.yul\":12295:12313   */\n      0x24\n      dup3\n      add\n        /* \"#utility.yul\":12288:12318   */\n      mstore\n        /* \"#utility.yul\":12354:12371   */\n      0x5472616e73666572206661696c65640000000000000000000000000000000000\n        /* \"#utility.yul\":12334:12352   */\n      0x44\n      dup3\n      add\n        /* \"#utility.yul\":12327:12372   */\n      mstore\n        /* \"#utility.yul\":12389:12407   */\n      0x64\n      add\n        /* \"Campaign-Fixed-v4.sol\":3132:3221  require(IERC20(token).transferFrom(msg.sender, address(this), amount), \"Transfer failed\") */\n      tag_220\n        /* \"#utility.yul\":12074:12413   */\n      jump\n        /* \"Campaign-Fixed-v4.sol\":3132:3221  require(IERC20(token).transferFrom(msg.sender, address(this), amount), \"Transfer failed\") */\n    tag_344:\n      sub(shl(0xa0, 0x01), 0x01)\n        /* \"Campaign-Fixed-v4.sol\":3231:3256  tokenFeesCollected[token] */\n      dup5\n      and\n      0x00\n      swap1\n      dup2\n      mstore\n        /* \"Campaign-Fixed-v4.sol\":3231:3249  tokenFeesCollected */\n      0x0b\n        /* \"Campaign-Fixed-v4.sol\":3231:3256  tokenFeesCollected[token] */\n      0x20\n      mstore\n      0x40\n      dup2\n      keccak256\n        /* \"Campaign-Fixed-v4.sol\":3231:3263  tokenFeesCollected[token] += fee */\n      dup1\n      sload\n        /* \"Campaign-Fixed-v4.sol\":3260:3263  fee */\n      dup5\n      swap3\n        /* \"Campaign-Fixed-v4.sol\":3231:3256  tokenFeesCollected[token] */\n      swap1\n        /* \"Campaign-Fixed-v4.sol\":3231:3263  tokenFeesCollected[token] += fee */\n      tag_347\n      swap1\n        /* \"Campaign-Fixed-v4.sol\":3260:3263  fee */\n      dup5\n      swap1\n        /* \"Campaign-Fixed-v4.sol\":3231:3263  tokenFeesCollected[token] += fee */\n      tag_230\n      jump\t// in\n    tag_347:\n      swap1\n      swap2\n      sstore\n      pop\n      pop\n        /* \"Campaign-Fixed-v4.sol\":3292:3302  msg.sender */\n      caller\n        /* \"Campaign-Fixed-v4.sol\":3273:3303  tokenContributions[msg.sender] */\n      0x00\n      swap1\n      dup2\n      mstore\n        /* \"Campaign-Fixed-v4.sol\":3273:3291  tokenContributions */\n      0x0a\n        /* \"Campaign-Fixed-v4.sol\":3273:3303  tokenContributions[msg.sender] */\n      0x20\n      swap1\n      dup2\n      mstore\n      0x40\n      dup1\n      dup4\n      keccak256\n      sub(shl(0xa0, 0x01), 0x01)\n        /* \"Campaign-Fixed-v4.sol\":3273:3310  tokenContributions[msg.sender][token] */\n      dup9\n      and\n      dup5\n      mstore\n      swap1\n      swap2\n      mstore\n      dup2\n      keccak256\n        /* \"Campaign-Fixed-v4.sol\":3273:3323  tokenContributions[msg.sender][token] += netAmount */\n      dup1\n      sload\n        /* \"Campaign-Fixed-v4.sol\":3314:3323  netAmount */\n      dup4\n      swap3\n        /* \"Campaign-Fixed-v4.sol\":3273:3303  tokenContributions[msg.sender] */\n      swap1\n        /* \"Campaign-Fixed-v4.sol\":3273:3323  tokenContributions[msg.sender][token] += netAmount */\n      tag_348\n      swap1\n        /* \"Campaign-Fixed-v4.sol\":3314:3323  netAmount */\n      dup5\n      swap1\n        /* \"Campaign-Fixed-v4.sol\":3273:3323  tokenContributions[msg.sender][token] += netAmount */\n      tag_230\n      jump\t// in\n    tag_348:\n      swap1\n      swap2\n      sstore\n      pop\n      pop\n      pop\n      pop\n      pop\n      pop\n        /* \"Campaign-Fixed-v4.sol\":2798:3330  function donateToken(address token, uint256 amount) external {... */\n      jump\t// out\n        /* \"Campaign-Fixed-v4.sol\":672:697  string public description */\n    tag_129:\n      0x07\n      dup1\n      sload\n      tag_308\n      swap1\n      tag_242\n      jump\t// in\n        /* \"Campaign-Fixed-v4.sol\":4711:4843  function collectAllFees(address to) external onlyFactory {... */\n    tag_134:\n        /* \"Campaign-Fixed-v4.sol\":1454:1461  factory */\n      and(sub(shl(0xa0, 0x01), 0x01), sload(0x01))\n        /* \"Campaign-Fixed-v4.sol\":1440:1450  msg.sender */\n      caller\n        /* \"Campaign-Fixed-v4.sol\":1440:1461  msg.sender == factory */\n      eq\n        /* \"Campaign-Fixed-v4.sol\":1432:1477  require(msg.sender == factory, \"Not factory\") */\n      tag_356\n      jumpi\n      mload(0x40)\n      shl(0xe5, 0x461bcd)\n      dup2\n      mstore\n        /* \"#utility.yul\":10838:10840   */\n      0x20\n        /* \"Campaign-Fixed-v4.sol\":1432:1477  require(msg.sender == factory, \"Not factory\") */\n      0x04\n      dup3\n      add\n        /* \"#utility.yul\":10820:10841   */\n      mstore\n        /* \"#utility.yul\":10877:10879   */\n      0x0b\n        /* \"#utility.yul\":10857:10875   */\n      0x24\n      dup3\n      add\n        /* \"#utility.yul\":10850:10880   */\n      mstore\n      shl(0xa8, 0x4e6f7420666163746f7279)\n        /* \"#utility.yul\":10896:10914   */\n      0x44\n      dup3\n      add\n        /* \"#utility.yul\":10889:10930   */\n      mstore\n        /* \"#utility.yul\":10947:10965   */\n      0x64\n      add\n        /* \"Campaign-Fixed-v4.sol\":1432:1477  require(msg.sender == factory, \"Not factory\") */\n      tag_220\n        /* \"#utility.yul\":10636:10971   */\n      jump\n        /* \"Campaign-Fixed-v4.sol\":1432:1477  require(msg.sender == factory, \"Not factory\") */\n    tag_356:\n        /* \"Campaign-Fixed-v4.sol\":4778:4796  collectETHFees(to) */\n      tag_359\n        /* \"Campaign-Fixed-v4.sol\":4793:4795  to */\n      dup2\n        /* \"Campaign-Fixed-v4.sol\":4778:4792  collectETHFees */\n      tag_117\n        /* \"Campaign-Fixed-v4.sol\":4778:4796  collectETHFees(to) */\n      jump\t// in\n    tag_359:\n        /* \"Campaign-Fixed-v4.sol\":4823:4831  flwToken */\n      sload(0x04)\n        /* \"Campaign-Fixed-v4.sol\":4806:4836  collectTokenFees(flwToken, to) */\n      tag_360\n      swap1\n      sub(shl(0xa0, 0x01), 0x01)\n        /* \"Campaign-Fixed-v4.sol\":4823:4831  flwToken */\n      and\n        /* \"Campaign-Fixed-v4.sol\":4833:4835  to */\n      dup3\n        /* \"Campaign-Fixed-v4.sol\":4806:4822  collectTokenFees */\n      tag_200\n        /* \"Campaign-Fixed-v4.sol\":4806:4836  collectTokenFees(flwToken, to) */\n      jump\t// in\n    tag_360:\n        /* \"Campaign-Fixed-v4.sol\":4711:4843  function collectAllFees(address to) external onlyFactory {... */\n      pop\n      jump\t// out\n        /* \"Campaign-Fixed-v4.sol\":5583:6101  function getWithdrawableAmount() public view returns (uint256 ethAmount, uint256 flwAmount) {... */\n    tag_146:\n        /* \"Campaign-Fixed-v4.sol\":5637:5654  uint256 ethAmount */\n      0x00\n        /* \"Campaign-Fixed-v4.sol\":5656:5673  uint256 flwAmount */\n      dup1\n        /* \"Campaign-Fixed-v4.sol\":5707:5715  deadline */\n      sload(0x03)\n        /* \"Campaign-Fixed-v4.sol\":5689:5704  block.timestamp */\n      timestamp\n        /* \"Campaign-Fixed-v4.sol\":5689:5715  block.timestamp < deadline */\n      lt\n        /* \"Campaign-Fixed-v4.sol\":5685:5755  if (block.timestamp < deadline) {... */\n      iszero\n      tag_364\n      jumpi\n      pop\n        /* \"Campaign-Fixed-v4.sol\":5739:5740  0 */\n      0x00\n      swap2\n      dup3\n      swap2\n      pop\n        /* \"Campaign-Fixed-v4.sol\":5583:6101  function getWithdrawableAmount() public view returns (uint256 ethAmount, uint256 flwAmount) {... */\n      jump\t// out\n        /* \"Campaign-Fixed-v4.sol\":5685:5755  if (block.timestamp < deadline) {... */\n    tag_364:\n        /* \"Campaign-Fixed-v4.sol\":5853:5861  flwToken */\n      0x04\n      dup1\n      sload\n        /* \"Campaign-Fixed-v4.sol\":5846:5887  IERC20(flwToken).balanceOf(address(this)) */\n      mload(0x40)\n      shl(0xe0, 0x70a08231)\n      dup2\n      mstore\n        /* \"Campaign-Fixed-v4.sol\":5881:5885  this */\n      address\n        /* \"Campaign-Fixed-v4.sol\":5846:5887  IERC20(flwToken).balanceOf(address(this)) */\n      swap3\n      dup2\n      add\n        /* \"#utility.yul\":734:808   */\n      swap3\n      swap1\n      swap3\n      mstore\n        /* \"Campaign-Fixed-v4.sol\":5794:5815  address(this).balance */\n      selfbalance\n      swap2\n        /* \"Campaign-Fixed-v4.sol\":5773:5791  uint256 ethBalance */\n      0x00\n      swap2\n      sub(shl(0xa0, 0x01), 0x01)\n        /* \"Campaign-Fixed-v4.sol\":5853:5861  flwToken */\n      and\n      swap1\n        /* \"Campaign-Fixed-v4.sol\":5846:5872  IERC20(flwToken).balanceOf */\n      0x70a08231\n      swap1\n        /* \"#utility.yul\":707:725   */\n      0x24\n      add\n        /* \"Campaign-Fixed-v4.sol\":5846:5887  IERC20(flwToken).balanceOf(address(this)) */\n      0x20\n      mload(0x40)\n      dup1\n      dup4\n      sub\n      dup2\n      dup7\n      gas\n      staticcall\n      iszero\n      dup1\n      iszero\n      tag_367\n      jumpi\n      returndatasize\n      0x00\n      dup1\n      returndatacopy\n      revert(0x00, returndatasize)\n    tag_367:\n      pop\n      pop\n      pop\n      pop\n      mload(0x40)\n      returndatasize\n      not(0x1f)\n      0x1f\n      dup3\n      add\n      and\n      dup3\n      add\n      dup1\n      0x40\n      mstore\n      pop\n      dup2\n      add\n      swap1\n      tag_368\n      swap2\n      swap1\n      tag_239\n      jump\t// in\n    tag_368:\n        /* \"Campaign-Fixed-v4.sol\":5825:5887  uint256 flwBalance = IERC20(flwToken).balanceOf(address(this)) */\n      swap1\n      pop\n        /* \"Campaign-Fixed-v4.sol\":5931:5947  ethFeesCollected */\n      sload(0x0c)\n        /* \"Campaign-Fixed-v4.sol\":5918:5928  ethBalance */\n      dup3\n        /* \"Campaign-Fixed-v4.sol\":5918:5947  ethBalance > ethFeesCollected */\n      gt\n        /* \"Campaign-Fixed-v4.sol\":5918:5983  ethBalance > ethFeesCollected ? ethBalance - ethFeesCollected : 0 */\n      tag_369\n      jumpi\n        /* \"Campaign-Fixed-v4.sol\":5982:5983  0 */\n      0x00\n        /* \"Campaign-Fixed-v4.sol\":5918:5983  ethBalance > ethFeesCollected ? ethBalance - ethFeesCollected : 0 */\n      jump(tag_371)\n    tag_369:\n        /* \"Campaign-Fixed-v4.sol\":5963:5979  ethFeesCollected */\n      sload(0x0c)\n        /* \"Campaign-Fixed-v4.sol\":5950:5979  ethBalance - ethFeesCollected */\n      tag_371\n      swap1\n        /* \"Campaign-Fixed-v4.sol\":5950:5960  ethBalance */\n      dup4\n        /* \"Campaign-Fixed-v4.sol\":5950:5979  ethBalance - ethFeesCollected */\n      tag_232\n      jump\t// in\n    tag_371:\n        /* \"Campaign-Fixed-v4.sol\":6037:6045  flwToken */\n      and(sub(shl(0xa0, 0x01), 0x01), sload(0x04))\n        /* \"Campaign-Fixed-v4.sol\":6018:6046  tokenFeesCollected[flwToken] */\n      0x00\n      swap1\n      dup2\n      mstore\n        /* \"Campaign-Fixed-v4.sol\":6018:6036  tokenFeesCollected */\n      0x0b\n        /* \"Campaign-Fixed-v4.sol\":6018:6046  tokenFeesCollected[flwToken] */\n      0x20\n      mstore\n      0x40\n      swap1\n      keccak256\n      sload\n        /* \"Campaign-Fixed-v4.sol\":5906:5983  ethAmount = ethBalance > ethFeesCollected ? ethBalance - ethFeesCollected : 0 */\n      swap1\n      swap5\n      pop\n        /* \"Campaign-Fixed-v4.sol\":6005:6046  flwBalance > tokenFeesCollected[flwToken] */\n      dup2\n      gt\n        /* \"Campaign-Fixed-v4.sol\":6005:6094  flwBalance > tokenFeesCollected[flwToken] ? flwBalance - tokenFeesCollected[flwToken] : 0 */\n      tag_372\n      jumpi\n        /* \"Campaign-Fixed-v4.sol\":6093:6094  0 */\n      0x00\n        /* \"Campaign-Fixed-v4.sol\":6005:6094  flwBalance > tokenFeesCollected[flwToken] ? flwBalance - tokenFeesCollected[flwToken] : 0 */\n      jump(tag_374)\n    tag_372:\n        /* \"Campaign-Fixed-v4.sol\":6081:6089  flwToken */\n      and(sub(shl(0xa0, 0x01), 0x01), sload(0x04))\n        /* \"Campaign-Fixed-v4.sol\":6062:6090  tokenFeesCollected[flwToken] */\n      0x00\n      swap1\n      dup2\n      mstore\n        /* \"Campaign-Fixed-v4.sol\":6062:6080  tokenFeesCollected */\n      0x0b\n        /* \"Campaign-Fixed-v4.sol\":6062:6090  tokenFeesCollected[flwToken] */\n      0x20\n      mstore\n      0x40\n      swap1\n      keccak256\n      sload\n        /* \"Campaign-Fixed-v4.sol\":6049:6090  flwBalance - tokenFeesCollected[flwToken] */\n      tag_374\n      swap1\n        /* \"Campaign-Fixed-v4.sol\":6049:6059  flwBalance */\n      dup3\n        /* \"Campaign-Fixed-v4.sol\":6049:6090  flwBalance - tokenFeesCollected[flwToken] */\n      tag_232\n      jump\t// in\n    tag_374:\n        /* \"Campaign-Fixed-v4.sol\":5993:6094  flwAmount = flwBalance > tokenFeesCollected[flwToken] ? flwBalance - tokenFeesCollected[flwToken] : 0 */\n      swap3\n      pop\n        /* \"Campaign-Fixed-v4.sol\":5675:6101  {... */\n      pop\n      pop\n        /* \"Campaign-Fixed-v4.sol\":5583:6101  function getWithdrawableAmount() public view returns (uint256 ethAmount, uint256 flwAmount) {... */\n      swap1\n      swap2\n      jump\t// out\n        /* \"Campaign-Fixed-v4.sol\":7158:7249  function getImageUrl() public view returns (string memory) {... */\n    tag_150:\n        /* \"Campaign-Fixed-v4.sol\":7202:7215  string memory */\n      0x60\n        /* \"Campaign-Fixed-v4.sol\":7234:7242  imageUrl */\n      0x08\n        /* \"Campaign-Fixed-v4.sol\":7227:7242  return imageUrl */\n      dup1\n      sload\n      tag_241\n      swap1\n      tag_242\n      jump\t// in\n        /* \"Campaign-Fixed-v4.sol\":1031:1064  uint256[] public updateTimestamps */\n    tag_155:\n      0x0f\n      dup2\n      dup2\n      sload\n      dup2\n      lt\n      tag_381\n      jumpi\n      0x00\n      dup1\n      revert\n    tag_381:\n      0x00\n      swap2\n      dup3\n      mstore\n      0x20\n      swap1\n      swap2\n      keccak256\n      add\n      sload\n      swap1\n      pop\n      dup2\n      jump\t// out\n        /* \"Campaign-Fixed-v4.sol\":703:725  string public imageUrl */\n    tag_159:\n      0x08\n      dup1\n      sload\n      tag_308\n      swap1\n      tag_242\n      jump\t// in\n        /* \"Campaign-Fixed-v4.sol\":965:989  address[] public updates */\n    tag_168:\n      0x0d\n      dup2\n      dup2\n      sload\n      dup2\n      lt\n      tag_388\n      jumpi\n      0x00\n      dup1\n      revert\n    tag_388:\n      0x00\n      swap2\n      dup3\n      mstore\n      0x20\n      swap1\n      swap2\n      keccak256\n      add\n      sload\n      sub(shl(0xa0, 0x01), 0x01)\n      and\n      swap1\n      pop\n      dup2\n      jump\t// out\n        /* \"Campaign-Fixed-v4.sol\":995:1025  string[] public updateMessages */\n    tag_177:\n      0x0e\n      dup2\n      dup2\n      sload\n      dup2\n      lt\n      tag_391\n      jumpi\n      0x00\n      dup1\n      revert\n    tag_391:\n      swap1\n      0x00\n      mstore\n      keccak256(0x00, 0x20)\n      add\n      0x00\n      swap2\n      pop\n      swap1\n      pop\n      dup1\n      sload\n      tag_308\n      swap1\n      tag_242\n      jump\t// in\n        /* \"Campaign-Fixed-v4.sol\":4417:4669  function collectTokenFees(address token, address to) public onlyFactory {... */\n    tag_200:\n        /* \"Campaign-Fixed-v4.sol\":1454:1461  factory */\n      and(sub(shl(0xa0, 0x01), 0x01), sload(0x01))\n        /* \"Campaign-Fixed-v4.sol\":1440:1450  msg.sender */\n      caller\n        /* \"Campaign-Fixed-v4.sol\":1440:1461  msg.sender == factory */\n      eq\n        /* \"Campaign-Fixed-v4.sol\":1432:1477  require(msg.sender == factory, \"Not factory\") */\n      tag_400\n      jumpi\n      mload(0x40)\n      shl(0xe5, 0x461bcd)\n      dup2\n      mstore\n        /* \"#utility.yul\":10838:10840   */\n      0x20\n        /* \"Campaign-Fixed-v4.sol\":1432:1477  require(msg.sender == factory, \"Not factory\") */\n      0x04\n      dup3\n      add\n        /* \"#utility.yul\":10820:10841   */\n      mstore\n        /* \"#utility.yul\":10877:10879   */\n      0x0b\n        /* \"#utility.yul\":10857:10875   */\n      0x24\n      dup3\n      add\n        /* \"#utility.yul\":10850:10880   */\n      mstore\n      shl(0xa8, 0x4e6f7420666163746f7279)\n        /* \"#utility.yul\":10896:10914   */\n      0x44\n      dup3\n      add\n        /* \"#utility.yul\":10889:10930   */\n      mstore\n        /* \"#utility.yul\":10947:10965   */\n      0x64\n      add\n        /* \"Campaign-Fixed-v4.sol\":1432:1477  require(msg.sender == factory, \"Not factory\") */\n      tag_220\n        /* \"#utility.yul\":10636:10971   */\n      jump\n        /* \"Campaign-Fixed-v4.sol\":1432:1477  require(msg.sender == factory, \"Not factory\") */\n    tag_400:\n      sub(shl(0xa0, 0x01), 0x01)\n        /* \"Campaign-Fixed-v4.sol\":4516:4541  tokenFeesCollected[token] */\n      dup3\n      dup2\n      and\n        /* \"Campaign-Fixed-v4.sol\":4499:4513  uint256 amount */\n      0x00\n        /* \"Campaign-Fixed-v4.sol\":4516:4541  tokenFeesCollected[token] */\n      dup2\n      dup2\n      mstore\n        /* \"Campaign-Fixed-v4.sol\":4516:4534  tokenFeesCollected */\n      0x0b\n        /* \"Campaign-Fixed-v4.sol\":4516:4541  tokenFeesCollected[token] */\n      0x20\n      mstore\n      0x40\n      dup1\n      dup3\n      keccak256\n      dup1\n      sload\n        /* \"Campaign-Fixed-v4.sol\":4551:4580  tokenFeesCollected[token] = 0 */\n      swap3\n      swap1\n      sstore\n        /* \"Campaign-Fixed-v4.sol\":4598:4632  IERC20(token).transfer(to, amount) */\n      mload\n      shl(0xe0, 0xa9059cbb)\n      dup2\n      mstore\n        /* \"#utility.yul\":9625:9680   */\n      swap3\n      dup5\n      and\n        /* \"Campaign-Fixed-v4.sol\":4598:4632  IERC20(token).transfer(to, amount) */\n      0x04\n      dup5\n      add\n        /* \"#utility.yul\":9607:9681   */\n      mstore\n        /* \"#utility.yul\":9697:9715   */\n      0x24\n      dup4\n      add\n        /* \"#utility.yul\":9690:9724   */\n      dup2\n      swap1\n      mstore\n        /* \"Campaign-Fixed-v4.sol\":4516:4541  tokenFeesCollected[token] */\n      swap2\n        /* \"Campaign-Fixed-v4.sol\":4598:4620  IERC20(token).transfer */\n      0xa9059cbb\n      swap1\n        /* \"#utility.yul\":9580:9598   */\n      0x44\n      add\n        /* \"Campaign-Fixed-v4.sol\":4598:4632  IERC20(token).transfer(to, amount) */\n      0x20\n      mload(0x40)\n      dup1\n      dup4\n      sub\n      dup2\n      0x00\n      dup8\n      gas\n      call\n      iszero\n      dup1\n      iszero\n      tag_405\n      jumpi\n      returndatasize\n      0x00\n      dup1\n      returndatacopy\n      revert(0x00, returndatasize)\n    tag_405:\n      pop\n      pop\n      pop\n      pop\n      mload(0x40)\n      returndatasize\n      not(0x1f)\n      0x1f\n      dup3\n      add\n      and\n      dup3\n      add\n      dup1\n      0x40\n      mstore\n      pop\n      dup2\n      add\n      swap1\n      tag_406\n      swap2\n      swap1\n      tag_301\n      jump\t// in\n    tag_406:\n        /* \"Campaign-Fixed-v4.sol\":4590:4662  require(IERC20(token).transfer(to, amount), \"Token fee transfer failed\") */\n      tag_323\n      jumpi\n      mload(0x40)\n      shl(0xe5, 0x461bcd)\n      dup2\n      mstore\n        /* \"#utility.yul\":12620:12622   */\n      0x20\n        /* \"Campaign-Fixed-v4.sol\":4590:4662  require(IERC20(token).transfer(to, amount), \"Token fee transfer failed\") */\n      0x04\n      dup3\n      add\n        /* \"#utility.yul\":12602:12623   */\n      mstore\n        /* \"#utility.yul\":12659:12661   */\n      0x19\n        /* \"#utility.yul\":12639:12657   */\n      0x24\n      dup3\n      add\n        /* \"#utility.yul\":12632:12662   */\n      mstore\n        /* \"#utility.yul\":12698:12725   */\n      0x546f6b656e20666565207472616e73666572206661696c656400000000000000\n        /* \"#utility.yul\":12678:12696   */\n      0x44\n      dup3\n      add\n        /* \"#utility.yul\":12671:12726   */\n      mstore\n        /* \"#utility.yul\":12743:12761   */\n      0x64\n      add\n        /* \"Campaign-Fixed-v4.sol\":4590:4662  require(IERC20(token).transfer(to, amount), \"Token fee transfer failed\") */\n      tag_220\n        /* \"#utility.yul\":12418:12767   */\n      jump\n        /* \"Campaign-Fixed-v4.sol\":6964:7049  function getTitle() public view returns (string memory) {... */\n    tag_216:\n        /* \"Campaign-Fixed-v4.sol\":7005:7018  string memory */\n      0x60\n        /* \"Campaign-Fixed-v4.sol\":7037:7042  title */\n      0x06\n        /* \"Campaign-Fixed-v4.sol\":7030:7042  return title */\n      dup1\n      sload\n      tag_241\n      swap1\n      tag_242\n      jump\t// in\n        /* \"#utility.yul\":14:210   */\n    tag_417:\n        /* \"#utility.yul\":82:102   */\n      dup1\n      calldataload\n      sub(shl(0xa0, 0x01), 0x01)\n        /* \"#utility.yul\":131:185   */\n      dup2\n      and\n        /* \"#utility.yul\":121:186   */\n      dup2\n      eq\n        /* \"#utility.yul\":111:204   */\n      tag_426\n      jumpi\n        /* \"#utility.yul\":200:201   */\n      0x00\n        /* \"#utility.yul\":197:198   */\n      dup1\n        /* \"#utility.yul\":190:202   */\n      revert\n        /* \"#utility.yul\":111:204   */\n    tag_426:\n        /* \"#utility.yul\":14:210   */\n      swap2\n      swap1\n      pop\n      jump\t// out\n        /* \"#utility.yul\":215:401   */\n    tag_59:\n        /* \"#utility.yul\":274:280   */\n      0x00\n        /* \"#utility.yul\":327:329   */\n      0x20\n        /* \"#utility.yul\":315:324   */\n      dup3\n        /* \"#utility.yul\":306:313   */\n      dup5\n        /* \"#utility.yul\":302:325   */\n      sub\n        /* \"#utility.yul\":298:330   */\n      slt\n        /* \"#utility.yul\":295:347   */\n      iszero\n      tag_428\n      jumpi\n        /* \"#utility.yul\":343:344   */\n      0x00\n        /* \"#utility.yul\":340:341   */\n      dup1\n        /* \"#utility.yul\":333:345   */\n      revert\n        /* \"#utility.yul\":295:347   */\n    tag_428:\n        /* \"#utility.yul\":366:395   */\n      tag_429\n        /* \"#utility.yul\":385:394   */\n      dup3\n        /* \"#utility.yul\":366:395   */\n      tag_417\n      jump\t// in\n    tag_429:\n        /* \"#utility.yul\":356:395   */\n      swap4\n        /* \"#utility.yul\":215:401   */\n      swap3\n      pop\n      pop\n      pop\n      jump\t// out\n        /* \"#utility.yul\":1072:1361   */\n    tag_418:\n        /* \"#utility.yul\":1114:1117   */\n      0x00\n        /* \"#utility.yul\":1152:1157   */\n      dup2\n        /* \"#utility.yul\":1146:1158   */\n      mload\n        /* \"#utility.yul\":1179:1185   */\n      dup1\n        /* \"#utility.yul\":1174:1177   */\n      dup5\n        /* \"#utility.yul\":1167:1186   */\n      mstore\n        /* \"#utility.yul\":1235:1241   */\n      dup1\n        /* \"#utility.yul\":1228:1232   */\n      0x20\n        /* \"#utility.yul\":1221:1226   */\n      dup5\n        /* \"#utility.yul\":1217:1233   */\n      add\n        /* \"#utility.yul\":1210:1214   */\n      0x20\n        /* \"#utility.yul\":1205:1208   */\n      dup7\n        /* \"#utility.yul\":1201:1215   */\n      add\n        /* \"#utility.yul\":1195:1242   */\n      mcopy\n        /* \"#utility.yul\":1287:1288   */\n      0x00\n        /* \"#utility.yul\":1280:1284   */\n      0x20\n        /* \"#utility.yul\":1271:1277   */\n      dup3\n        /* \"#utility.yul\":1266:1269   */\n      dup7\n        /* \"#utility.yul\":1262:1278   */\n      add\n        /* \"#utility.yul\":1258:1285   */\n      add\n        /* \"#utility.yul\":1251:1289   */\n      mstore\n        /* \"#utility.yul\":1350:1354   */\n      0x20\n        /* \"#utility.yul\":1343:1345   */\n      0x1f\n        /* \"#utility.yul\":1339:1346   */\n      not\n        /* \"#utility.yul\":1334:1336   */\n      0x1f\n        /* \"#utility.yul\":1326:1332   */\n      dup4\n        /* \"#utility.yul\":1322:1337   */\n      add\n        /* \"#utility.yul\":1318:1347   */\n      and\n        /* \"#utility.yul\":1313:1316   */\n      dup6\n        /* \"#utility.yul\":1309:1348   */\n      add\n        /* \"#utility.yul\":1305:1355   */\n      add\n        /* \"#utility.yul\":1298:1355   */\n      swap2\n      pop\n      pop\n        /* \"#utility.yul\":1072:1361   */\n      swap3\n      swap2\n      pop\n      pop\n      jump\t// out\n        /* \"#utility.yul\":1366:1586   */\n    tag_77:\n        /* \"#utility.yul\":1515:1517   */\n      0x20\n        /* \"#utility.yul\":1504:1513   */\n      dup2\n        /* \"#utility.yul\":1497:1518   */\n      mstore\n        /* \"#utility.yul\":1478:1482   */\n      0x00\n        /* \"#utility.yul\":1535:1580   */\n      tag_429\n        /* \"#utility.yul\":1576:1578   */\n      0x20\n        /* \"#utility.yul\":1565:1574   */\n      dup4\n        /* \"#utility.yul\":1561:1579   */\n      add\n        /* \"#utility.yul\":1553:1559   */\n      dup5\n        /* \"#utility.yul\":1535:1580   */\n      tag_418\n      jump\t// in\n        /* \"#utility.yul\":1591:2183   */\n    tag_81:\n        /* \"#utility.yul\":1662:1668   */\n      0x00\n        /* \"#utility.yul\":1670:1676   */\n      dup1\n        /* \"#utility.yul\":1723:1725   */\n      0x20\n        /* \"#utility.yul\":1711:1720   */\n      dup4\n        /* \"#utility.yul\":1702:1709   */\n      dup6\n        /* \"#utility.yul\":1698:1721   */\n      sub\n        /* \"#utility.yul\":1694:1726   */\n      slt\n        /* \"#utility.yul\":1691:1743   */\n      iszero\n      tag_437\n      jumpi\n        /* \"#utility.yul\":1739:1740   */\n      0x00\n        /* \"#utility.yul\":1736:1737   */\n      dup1\n        /* \"#utility.yul\":1729:1741   */\n      revert\n        /* \"#utility.yul\":1691:1743   */\n    tag_437:\n        /* \"#utility.yul\":1779:1788   */\n      dup3\n        /* \"#utility.yul\":1766:1789   */\n      calldataload\n        /* \"#utility.yul\":1808:1826   */\n      0xffffffffffffffff\n        /* \"#utility.yul\":1849:1851   */\n      dup1\n        /* \"#utility.yul\":1841:1847   */\n      dup3\n        /* \"#utility.yul\":1838:1852   */\n      gt\n        /* \"#utility.yul\":1835:1869   */\n      iszero\n      tag_438\n      jumpi\n        /* \"#utility.yul\":1865:1866   */\n      0x00\n        /* \"#utility.yul\":1862:1863   */\n      dup1\n        /* \"#utility.yul\":1855:1867   */\n      revert\n        /* \"#utility.yul\":1835:1869   */\n    tag_438:\n        /* \"#utility.yul\":1903:1909   */\n      dup2\n        /* \"#utility.yul\":1892:1901   */\n      dup6\n        /* \"#utility.yul\":1888:1910   */\n      add\n        /* \"#utility.yul\":1878:1910   */\n      swap2\n      pop\n        /* \"#utility.yul\":1948:1955   */\n      dup6\n        /* \"#utility.yul\":1941:1945   */\n      0x1f\n        /* \"#utility.yul\":1937:1939   */\n      dup4\n        /* \"#utility.yul\":1933:1946   */\n      add\n        /* \"#utility.yul\":1929:1956   */\n      slt\n        /* \"#utility.yul\":1919:1974   */\n      tag_439\n      jumpi\n        /* \"#utility.yul\":1970:1971   */\n      0x00\n        /* \"#utility.yul\":1967:1968   */\n      dup1\n        /* \"#utility.yul\":1960:1972   */\n      revert\n        /* \"#utility.yul\":1919:1974   */\n    tag_439:\n        /* \"#utility.yul\":2010:2012   */\n      dup2\n        /* \"#utility.yul\":1997:2013   */\n      calldataload\n        /* \"#utility.yul\":2036:2038   */\n      dup2\n        /* \"#utility.yul\":2028:2034   */\n      dup2\n        /* \"#utility.yul\":2025:2039   */\n      gt\n        /* \"#utility.yul\":2022:2056   */\n      iszero\n      tag_440\n      jumpi\n        /* \"#utility.yul\":2052:2053   */\n      0x00\n        /* \"#utility.yul\":2049:2050   */\n      dup1\n        /* \"#utility.yul\":2042:2054   */\n      revert\n        /* \"#utility.yul\":2022:2056   */\n    tag_440:\n        /* \"#utility.yul\":2097:2104   */\n      dup7\n        /* \"#utility.yul\":2092:2094   */\n      0x20\n        /* \"#utility.yul\":2083:2089   */\n      dup3\n        /* \"#utility.yul\":2079:2081   */\n      dup6\n        /* \"#utility.yul\":2075:2090   */\n      add\n        /* \"#utility.yul\":2071:2095   */\n      add\n        /* \"#utility.yul\":2068:2105   */\n      gt\n        /* \"#utility.yul\":2065:2122   */\n      iszero\n      tag_441\n      jumpi\n        /* \"#utility.yul\":2118:2119   */\n      0x00\n        /* \"#utility.yul\":2115:2116   */\n      dup1\n        /* \"#utility.yul\":2108:2120   */\n      revert\n        /* \"#utility.yul\":2065:2122   */\n    tag_441:\n        /* \"#utility.yul\":2149:2151   */\n      0x20\n        /* \"#utility.yul\":2141:2152   */\n      swap3\n      swap1\n      swap3\n      add\n      swap7\n        /* \"#utility.yul\":2171:2177   */\n      swap2\n      swap6\n      pop\n        /* \"#utility.yul\":1591:2183   */\n      swap1\n      swap4\n      pop\n      pop\n      pop\n      pop\n      jump\t// out\n        /* \"#utility.yul\":2380:2560   */\n    tag_95:\n        /* \"#utility.yul\":2439:2445   */\n      0x00\n        /* \"#utility.yul\":2492:2494   */\n      0x20\n        /* \"#utility.yul\":2480:2489   */\n      dup3\n        /* \"#utility.yul\":2471:2478   */\n      dup5\n        /* \"#utility.yul\":2467:2490   */\n      sub\n        /* \"#utility.yul\":2463:2495   */\n      slt\n        /* \"#utility.yul\":2460:2512   */\n      iszero\n      tag_444\n      jumpi\n        /* \"#utility.yul\":2508:2509   */\n      0x00\n        /* \"#utility.yul\":2505:2506   */\n      dup1\n        /* \"#utility.yul\":2498:2510   */\n      revert\n        /* \"#utility.yul\":2460:2512   */\n    tag_444:\n      pop\n        /* \"#utility.yul\":2531:2554   */\n      calldataload\n      swap2\n        /* \"#utility.yul\":2380:2560   */\n      swap1\n      pop\n      jump\t// out\n        /* \"#utility.yul\":2565:2856   */\n    tag_98:\n        /* \"#utility.yul\":2742:2744   */\n      0x40\n        /* \"#utility.yul\":2731:2740   */\n      dup2\n        /* \"#utility.yul\":2724:2745   */\n      mstore\n        /* \"#utility.yul\":2705:2709   */\n      0x00\n        /* \"#utility.yul\":2762:2807   */\n      tag_446\n        /* \"#utility.yul\":2803:2805   */\n      0x40\n        /* \"#utility.yul\":2792:2801   */\n      dup4\n        /* \"#utility.yul\":2788:2806   */\n      add\n        /* \"#utility.yul\":2780:2786   */\n      dup6\n        /* \"#utility.yul\":2762:2807   */\n      tag_418\n      jump\t// in\n    tag_446:\n        /* \"#utility.yul\":2754:2807   */\n      swap1\n      pop\n        /* \"#utility.yul\":2843:2849   */\n      dup3\n        /* \"#utility.yul\":2838:2840   */\n      0x20\n        /* \"#utility.yul\":2827:2836   */\n      dup4\n        /* \"#utility.yul\":2823:2841   */\n      add\n        /* \"#utility.yul\":2816:2850   */\n      mstore\n        /* \"#utility.yul\":2565:2856   */\n      swap4\n      swap3\n      pop\n      pop\n      pop\n      jump\t// out\n        /* \"#utility.yul\":2861:3115   */\n    tag_121:\n        /* \"#utility.yul\":2929:2935   */\n      0x00\n        /* \"#utility.yul\":2937:2943   */\n      dup1\n        /* \"#utility.yul\":2990:2992   */\n      0x40\n        /* \"#utility.yul\":2978:2987   */\n      dup4\n        /* \"#utility.yul\":2969:2976   */\n      dup6\n        /* \"#utility.yul\":2965:2988   */\n      sub\n        /* \"#utility.yul\":2961:2993   */\n      slt\n        /* \"#utility.yul\":2958:3010   */\n      iszero\n      tag_448\n      jumpi\n        /* \"#utility.yul\":3006:3007   */\n      0x00\n        /* \"#utility.yul\":3003:3004   */\n      dup1\n        /* \"#utility.yul\":2996:3008   */\n      revert\n        /* \"#utility.yul\":2958:3010   */\n    tag_448:\n        /* \"#utility.yul\":3029:3058   */\n      tag_449\n        /* \"#utility.yul\":3048:3057   */\n      dup4\n        /* \"#utility.yul\":3029:3058   */\n      tag_417\n      jump\t// in\n    tag_449:\n        /* \"#utility.yul\":3019:3058   */\n      swap5\n        /* \"#utility.yul\":3105:3107   */\n      0x20\n        /* \"#utility.yul\":3090:3108   */\n      swap4\n      swap1\n      swap4\n      add\n        /* \"#utility.yul\":3077:3109   */\n      calldataload\n      swap4\n      pop\n      pop\n      pop\n        /* \"#utility.yul\":2861:3115   */\n      jump\t// out\n        /* \"#utility.yul\":3120:3380   */\n    tag_199:\n        /* \"#utility.yul\":3188:3194   */\n      0x00\n        /* \"#utility.yul\":3196:3202   */\n      dup1\n        /* \"#utility.yul\":3249:3251   */\n      0x40\n        /* \"#utility.yul\":3237:3246   */\n      dup4\n        /* \"#utility.yul\":3228:3235   */\n      dup6\n        /* \"#utility.yul\":3224:3247   */\n      sub\n        /* \"#utility.yul\":3220:3252   */\n      slt\n        /* \"#utility.yul\":3217:3269   */\n      iszero\n      tag_451\n      jumpi\n        /* \"#utility.yul\":3265:3266   */\n      0x00\n        /* \"#utility.yul\":3262:3263   */\n      dup1\n        /* \"#utility.yul\":3255:3267   */\n      revert\n        /* \"#utility.yul\":3217:3269   */\n    tag_451:\n        /* \"#utility.yul\":3288:3317   */\n      tag_452\n        /* \"#utility.yul\":3307:3316   */\n      dup4\n        /* \"#utility.yul\":3288:3317   */\n      tag_417\n      jump\t// in\n    tag_452:\n        /* \"#utility.yul\":3278:3317   */\n      swap2\n      pop\n        /* \"#utility.yul\":3336:3374   */\n      tag_453\n        /* \"#utility.yul\":3370:3372   */\n      0x20\n        /* \"#utility.yul\":3359:3368   */\n      dup5\n        /* \"#utility.yul\":3355:3373   */\n      add\n        /* \"#utility.yul\":3336:3374   */\n      tag_417\n      jump\t// in\n    tag_453:\n        /* \"#utility.yul\":3326:3374   */\n      swap1\n      pop\n        /* \"#utility.yul\":3120:3380   */\n      swap3\n      pop\n      swap3\n      swap1\n      pop\n      jump\t// out\n        /* \"#utility.yul\":4068:4195   */\n    tag_419:\n        /* \"#utility.yul\":4129:4139   */\n      0x4e487b71\n        /* \"#utility.yul\":4124:4127   */\n      0xe0\n        /* \"#utility.yul\":4120:4140   */\n      shl\n        /* \"#utility.yul\":4117:4118   */\n      0x00\n        /* \"#utility.yul\":4110:4141   */\n      mstore\n        /* \"#utility.yul\":4160:4164   */\n      0x11\n        /* \"#utility.yul\":4157:4158   */\n      0x04\n        /* \"#utility.yul\":4150:4165   */\n      mstore\n        /* \"#utility.yul\":4184:4188   */\n      0x24\n        /* \"#utility.yul\":4181:4182   */\n      0x00\n        /* \"#utility.yul\":4174:4189   */\n      revert\n        /* \"#utility.yul\":4200:4368   */\n    tag_226:\n        /* \"#utility.yul\":4273:4282   */\n      dup1\n      dup3\n      mul\n        /* \"#utility.yul\":4304:4313   */\n      dup2\n      iszero\n        /* \"#utility.yul\":4321:4336   */\n      dup3\n      dup3\n      div\n        /* \"#utility.yul\":4315:4337   */\n      dup5\n      eq\n        /* \"#utility.yul\":4301:4338   */\n      or\n        /* \"#utility.yul\":4291:4362   */\n      tag_459\n      jumpi\n        /* \"#utility.yul\":4342:4360   */\n      tag_459\n      tag_419\n      jump\t// in\n    tag_459:\n        /* \"#utility.yul\":4200:4368   */\n      swap3\n      swap2\n      pop\n      pop\n      jump\t// out\n        /* \"#utility.yul\":4373:4590   */\n    tag_228:\n        /* \"#utility.yul\":4413:4414   */\n      0x00\n        /* \"#utility.yul\":4439:4440   */\n      dup3\n        /* \"#utility.yul\":4429:4561   */\n      tag_461\n      jumpi\n        /* \"#utility.yul\":4483:4493   */\n      0x4e487b71\n        /* \"#utility.yul\":4478:4481   */\n      0xe0\n        /* \"#utility.yul\":4474:4494   */\n      shl\n        /* \"#utility.yul\":4471:4472   */\n      0x00\n        /* \"#utility.yul\":4464:4495   */\n      mstore\n        /* \"#utility.yul\":4518:4522   */\n      0x12\n        /* \"#utility.yul\":4515:4516   */\n      0x04\n        /* \"#utility.yul\":4508:4523   */\n      mstore\n        /* \"#utility.yul\":4546:4550   */\n      0x24\n        /* \"#utility.yul\":4543:4544   */\n      0x00\n        /* \"#utility.yul\":4536:4551   */\n      revert\n        /* \"#utility.yul\":4429:4561   */\n    tag_461:\n      pop\n        /* \"#utility.yul\":4575:4584   */\n      div\n      swap1\n        /* \"#utility.yul\":4373:4590   */\n      jump\t// out\n        /* \"#utility.yul\":4595:4720   */\n    tag_230:\n        /* \"#utility.yul\":4660:4669   */\n      dup1\n      dup3\n      add\n        /* \"#utility.yul\":4681:4691   */\n      dup1\n      dup3\n      gt\n        /* \"#utility.yul\":4678:4714   */\n      iszero\n      tag_459\n      jumpi\n        /* \"#utility.yul\":4694:4712   */\n      tag_459\n      tag_419\n      jump\t// in\n        /* \"#utility.yul\":4725:4853   */\n    tag_232:\n        /* \"#utility.yul\":4792:4801   */\n      dup2\n      dup2\n      sub\n        /* \"#utility.yul\":4813:4824   */\n      dup2\n      dup2\n      gt\n        /* \"#utility.yul\":4810:4847   */\n      iszero\n      tag_459\n      jumpi\n        /* \"#utility.yul\":4827:4845   */\n      tag_459\n      tag_419\n      jump\t// in\n        /* \"#utility.yul\":4858:5042   */\n    tag_239:\n        /* \"#utility.yul\":4928:4934   */\n      0x00\n        /* \"#utility.yul\":4981:4983   */\n      0x20\n        /* \"#utility.yul\":4969:4978   */\n      dup3\n        /* \"#utility.yul\":4960:4967   */\n      dup5\n        /* \"#utility.yul\":4956:4979   */\n      sub\n        /* \"#utility.yul\":4952:4984   */\n      slt\n        /* \"#utility.yul\":4949:5001   */\n      iszero\n      tag_469\n      jumpi\n        /* \"#utility.yul\":4997:4998   */\n      0x00\n        /* \"#utility.yul\":4994:4995   */\n      dup1\n        /* \"#utility.yul\":4987:4999   */\n      revert\n        /* \"#utility.yul\":4949:5001   */\n    tag_469:\n      pop\n        /* \"#utility.yul\":5020:5036   */\n      mload\n      swap2\n        /* \"#utility.yul\":4858:5042   */\n      swap1\n      pop\n      jump\t// out\n        /* \"#utility.yul\":5047:5427   */\n    tag_242:\n        /* \"#utility.yul\":5126:5127   */\n      0x01\n        /* \"#utility.yul\":5122:5134   */\n      dup2\n      dup2\n      shr\n      swap1\n        /* \"#utility.yul\":5169:5181   */\n      dup3\n      and\n      dup1\n        /* \"#utility.yul\":5190:5251   */\n      tag_471\n      jumpi\n        /* \"#utility.yul\":5244:5248   */\n      0x7f\n        /* \"#utility.yul\":5236:5242   */\n      dup3\n        /* \"#utility.yul\":5232:5249   */\n      and\n        /* \"#utility.yul\":5222:5249   */\n      swap2\n      pop\n        /* \"#utility.yul\":5190:5251   */\n    tag_471:\n        /* \"#utility.yul\":5297:5299   */\n      0x20\n        /* \"#utility.yul\":5289:5295   */\n      dup3\n        /* \"#utility.yul\":5286:5300   */\n      lt\n        /* \"#utility.yul\":5266:5284   */\n      dup2\n        /* \"#utility.yul\":5263:5301   */\n      sub\n        /* \"#utility.yul\":5260:5421   */\n      tag_472\n      jumpi\n        /* \"#utility.yul\":5343:5353   */\n      0x4e487b71\n        /* \"#utility.yul\":5338:5341   */\n      0xe0\n        /* \"#utility.yul\":5334:5354   */\n      shl\n        /* \"#utility.yul\":5331:5332   */\n      0x00\n        /* \"#utility.yul\":5324:5355   */\n      mstore\n        /* \"#utility.yul\":5378:5382   */\n      0x22\n        /* \"#utility.yul\":5375:5376   */\n      0x04\n        /* \"#utility.yul\":5368:5383   */\n      mstore\n        /* \"#utility.yul\":5406:5410   */\n      0x24\n        /* \"#utility.yul\":5403:5404   */\n      0x00\n        /* \"#utility.yul\":5396:5411   */\n      revert\n        /* \"#utility.yul\":5260:5421   */\n    tag_472:\n      pop\n        /* \"#utility.yul\":5047:5427   */\n      swap2\n      swap1\n      pop\n      jump\t// out\n        /* \"#utility.yul\":5779:5906   */\n    tag_420:\n        /* \"#utility.yul\":5840:5850   */\n      0x4e487b71\n        /* \"#utility.yul\":5835:5838   */\n      0xe0\n        /* \"#utility.yul\":5831:5851   */\n      shl\n        /* \"#utility.yul\":5828:5829   */\n      0x00\n        /* \"#utility.yul\":5821:5852   */\n      mstore\n        /* \"#utility.yul\":5871:5875   */\n      0x41\n        /* \"#utility.yul\":5868:5869   */\n      0x04\n        /* \"#utility.yul\":5861:5876   */\n      mstore\n        /* \"#utility.yul\":5895:5899   */\n      0x24\n        /* \"#utility.yul\":5892:5893   */\n      0x00\n        /* \"#utility.yul\":5885:5900   */\n      revert\n        /* \"#utility.yul\":6037:6555   */\n    tag_422:\n        /* \"#utility.yul\":6139:6141   */\n      0x1f\n        /* \"#utility.yul\":6134:6137   */\n      dup3\n        /* \"#utility.yul\":6131:6142   */\n      gt\n        /* \"#utility.yul\":6128:6549   */\n      iszero\n      tag_323\n      jumpi\n        /* \"#utility.yul\":6175:6180   */\n      dup1\n        /* \"#utility.yul\":6172:6173   */\n      0x00\n        /* \"#utility.yul\":6165:6181   */\n      mstore\n        /* \"#utility.yul\":6219:6223   */\n      0x20\n        /* \"#utility.yul\":6216:6217   */\n      0x00\n        /* \"#utility.yul\":6206:6224   */\n      keccak256\n        /* \"#utility.yul\":6289:6291   */\n      0x1f\n        /* \"#utility.yul\":6277:6287   */\n      dup5\n        /* \"#utility.yul\":6273:6292   */\n      add\n        /* \"#utility.yul\":6270:6271   */\n      0x05\n        /* \"#utility.yul\":6266:6293   */\n      shr\n        /* \"#utility.yul\":6260:6264   */\n      dup2\n        /* \"#utility.yul\":6256:6294   */\n      add\n        /* \"#utility.yul\":6325:6329   */\n      0x20\n        /* \"#utility.yul\":6313:6323   */\n      dup6\n        /* \"#utility.yul\":6310:6330   */\n      lt\n        /* \"#utility.yul\":6307:6354   */\n      iszero\n      tag_478\n      jumpi\n      pop\n        /* \"#utility.yul\":6348:6352   */\n      dup1\n        /* \"#utility.yul\":6307:6354   */\n    tag_478:\n        /* \"#utility.yul\":6403:6405   */\n      0x1f\n        /* \"#utility.yul\":6398:6401   */\n      dup5\n        /* \"#utility.yul\":6394:6406   */\n      add\n        /* \"#utility.yul\":6391:6392   */\n      0x05\n        /* \"#utility.yul\":6387:6407   */\n      shr\n        /* \"#utility.yul\":6381:6385   */\n      dup3\n        /* \"#utility.yul\":6377:6408   */\n      add\n        /* \"#utility.yul\":6367:6408   */\n      swap2\n      pop\n        /* \"#utility.yul\":6458:6539   */\n    tag_479:\n        /* \"#utility.yul\":6476:6478   */\n      dup2\n        /* \"#utility.yul\":6469:6474   */\n      dup2\n        /* \"#utility.yul\":6466:6479   */\n      lt\n        /* \"#utility.yul\":6458:6539   */\n      iszero\n      tag_481\n      jumpi\n        /* \"#utility.yul\":6535:6536   */\n      0x00\n        /* \"#utility.yul\":6521:6537   */\n      dup2\n      sstore\n        /* \"#utility.yul\":6502:6503   */\n      0x01\n        /* \"#utility.yul\":6491:6504   */\n      add\n        /* \"#utility.yul\":6458:6539   */\n      jump(tag_479)\n    tag_481:\n        /* \"#utility.yul\":6462:6465   */\n      pop\n      pop\n        /* \"#utility.yul\":6037:6555   */\n      pop\n      pop\n      pop\n      jump\t// out\n        /* \"#utility.yul\":6731:7929   */\n    tag_255:\n        /* \"#utility.yul\":6855:6873   */\n      0xffffffffffffffff\n        /* \"#utility.yul\":6850:6853   */\n      dup4\n        /* \"#utility.yul\":6847:6874   */\n      gt\n        /* \"#utility.yul\":6844:6897   */\n      iszero\n      tag_485\n      jumpi\n        /* \"#utility.yul\":6877:6895   */\n      tag_485\n      tag_420\n      jump\t// in\n    tag_485:\n        /* \"#utility.yul\":6906:7000   */\n      tag_486\n        /* \"#utility.yul\":6996:6999   */\n      dup4\n        /* \"#utility.yul\":6956:6994   */\n      tag_487\n        /* \"#utility.yul\":6988:6992   */\n      dup4\n        /* \"#utility.yul\":6982:6993   */\n      sload\n        /* \"#utility.yul\":6956:6994   */\n      tag_242\n      jump\t// in\n    tag_487:\n        /* \"#utility.yul\":6950:6954   */\n      dup4\n        /* \"#utility.yul\":6906:7000   */\n      tag_422\n      jump\t// in\n    tag_486:\n        /* \"#utility.yul\":7026:7027   */\n      0x00\n        /* \"#utility.yul\":7051:7053   */\n      0x1f\n        /* \"#utility.yul\":7046:7049   */\n      dup5\n        /* \"#utility.yul\":7043:7054   */\n      gt\n        /* \"#utility.yul\":7068:7069   */\n      0x01\n        /* \"#utility.yul\":7063:7671   */\n      dup2\n      eq\n      tag_489\n      jumpi\n        /* \"#utility.yul\":7715:7716   */\n      0x00\n        /* \"#utility.yul\":7732:7735   */\n      dup6\n        /* \"#utility.yul\":7729:7822   */\n      iszero\n      tag_490\n      jumpi\n      pop\n        /* \"#utility.yul\":7788:7807   */\n      dup4\n      dup3\n      add\n        /* \"#utility.yul\":7775:7808   */\n      calldataload\n        /* \"#utility.yul\":7729:7822   */\n    tag_490:\n      not(0x00)\n        /* \"#utility.yul\":6688:6689   */\n      0x03\n        /* \"#utility.yul\":6684:6695   */\n      dup8\n      swap1\n      shl\n        /* \"#utility.yul\":6680:6704   */\n      shr\n        /* \"#utility.yul\":6676:6705   */\n      not\n        /* \"#utility.yul\":6666:6706   */\n      and\n        /* \"#utility.yul\":6712:6713   */\n      0x01\n        /* \"#utility.yul\":6708:6719   */\n      dup7\n      swap1\n      shl\n        /* \"#utility.yul\":6663:6720   */\n      or\n        /* \"#utility.yul\":7835:7913   */\n      dup4\n      sstore\n        /* \"#utility.yul\":7036:7923   */\n      jump(tag_481)\n        /* \"#utility.yul\":7063:7671   */\n    tag_489:\n        /* \"#utility.yul\":5984:5985   */\n      0x00\n        /* \"#utility.yul\":5977:5991   */\n      dup4\n      dup2\n      mstore\n        /* \"#utility.yul\":6021:6025   */\n      0x20\n        /* \"#utility.yul\":6008:6026   */\n      dup2\n      keccak256\n      not(0x1f)\n        /* \"#utility.yul\":7099:7116   */\n      dup8\n      and\n      swap2\n        /* \"#utility.yul\":7214:7443   */\n    tag_493:\n        /* \"#utility.yul\":7228:7235   */\n      dup3\n        /* \"#utility.yul\":7225:7226   */\n      dup2\n        /* \"#utility.yul\":7222:7236   */\n      lt\n        /* \"#utility.yul\":7214:7443   */\n      iszero\n      tag_495\n      jumpi\n        /* \"#utility.yul\":7317:7336   */\n      dup7\n      dup6\n      add\n        /* \"#utility.yul\":7304:7337   */\n      calldataload\n        /* \"#utility.yul\":7289:7338   */\n      dup3\n      sstore\n        /* \"#utility.yul\":7424:7428   */\n      0x20\n        /* \"#utility.yul\":7409:7429   */\n      swap5\n      dup6\n      add\n      swap5\n        /* \"#utility.yul\":7377:7378   */\n      0x01\n        /* \"#utility.yul\":7365:7379   */\n      swap1\n      swap3\n      add\n      swap2\n        /* \"#utility.yul\":7244:7256   */\n      add\n        /* \"#utility.yul\":7214:7443   */\n      jump(tag_493)\n    tag_495:\n        /* \"#utility.yul\":7218:7221   */\n      pop\n        /* \"#utility.yul\":7471:7474   */\n      dup7\n        /* \"#utility.yul\":7462:7469   */\n      dup3\n        /* \"#utility.yul\":7459:7475   */\n      lt\n        /* \"#utility.yul\":7456:7615   */\n      iszero\n      tag_496\n      jumpi\n        /* \"#utility.yul\":7595:7596   */\n      0x00\n        /* \"#utility.yul\":7591:7597   */\n      not\n        /* \"#utility.yul\":7585:7588   */\n      0xf8\n        /* \"#utility.yul\":7579:7582   */\n      dup9\n        /* \"#utility.yul\":7576:7577   */\n      0x03\n        /* \"#utility.yul\":7572:7583   */\n      shl\n        /* \"#utility.yul\":7568:7589   */\n      and\n        /* \"#utility.yul\":7564:7598   */\n      shr\n        /* \"#utility.yul\":7560:7599   */\n      not\n        /* \"#utility.yul\":7547:7556   */\n      dup5\n        /* \"#utility.yul\":7542:7545   */\n      dup8\n        /* \"#utility.yul\":7538:7557   */\n      add\n        /* \"#utility.yul\":7525:7558   */\n      calldataload\n        /* \"#utility.yul\":7521:7600   */\n      and\n        /* \"#utility.yul\":7513:7519   */\n      dup2\n        /* \"#utility.yul\":7506:7601   */\n      sstore\n        /* \"#utility.yul\":7456:7615   */\n    tag_496:\n      pop\n      pop\n        /* \"#utility.yul\":7658:7659   */\n      0x01\n        /* \"#utility.yul\":7652:7655   */\n      dup6\n        /* \"#utility.yul\":7649:7650   */\n      0x01\n        /* \"#utility.yul\":7645:7656   */\n      shl\n        /* \"#utility.yul\":7641:7660   */\n      add\n        /* \"#utility.yul\":7635:7639   */\n      dup4\n        /* \"#utility.yul\":7628:7661   */\n      sstore\n        /* \"#utility.yul\":7036:7923   */\n      pop\n      pop\n        /* \"#utility.yul\":6731:7929   */\n      pop\n      pop\n      pop\n      jump\t// out\n        /* \"#utility.yul\":7934:8397   */\n    tag_258:\n        /* \"#utility.yul\":8121:8123   */\n      0x40\n        /* \"#utility.yul\":8110:8119   */\n      dup2\n        /* \"#utility.yul\":8103:8124   */\n      mstore\n        /* \"#utility.yul\":8160:8166   */\n      dup3\n        /* \"#utility.yul\":8155:8157   */\n      0x40\n        /* \"#utility.yul\":8144:8153   */\n      dup3\n        /* \"#utility.yul\":8140:8158   */\n      add\n        /* \"#utility.yul\":8133:8167   */\n      mstore\n        /* \"#utility.yul\":8217:8223   */\n      dup3\n        /* \"#utility.yul\":8209:8215   */\n      dup5\n        /* \"#utility.yul\":8204:8206   */\n      0x60\n        /* \"#utility.yul\":8193:8202   */\n      dup4\n        /* \"#utility.yul\":8189:8207   */\n      add\n        /* \"#utility.yul\":8176:8224   */\n      calldatacopy\n        /* \"#utility.yul\":8273:8274   */\n      0x00\n        /* \"#utility.yul\":8268:8270   */\n      0x60\n        /* \"#utility.yul\":8259:8265   */\n      dup5\n        /* \"#utility.yul\":8248:8257   */\n      dup4\n        /* \"#utility.yul\":8244:8266   */\n      add\n        /* \"#utility.yul\":8240:8271   */\n      add\n        /* \"#utility.yul\":8233:8275   */\n      mstore\n        /* \"#utility.yul\":8084:8088   */\n      0x00\n        /* \"#utility.yul\":8343:8345   */\n      0x60\n        /* \"#utility.yul\":8336:8338   */\n      0x1f\n        /* \"#utility.yul\":8332:8339   */\n      not\n        /* \"#utility.yul\":8327:8329   */\n      0x1f\n        /* \"#utility.yul\":8319:8325   */\n      dup7\n        /* \"#utility.yul\":8315:8330   */\n      add\n        /* \"#utility.yul\":8311:8340   */\n      and\n        /* \"#utility.yul\":8300:8309   */\n      dup4\n        /* \"#utility.yul\":8296:8341   */\n      add\n        /* \"#utility.yul\":8292:8346   */\n      add\n        /* \"#utility.yul\":8284:8346   */\n      swap1\n      pop\n        /* \"#utility.yul\":8384:8390   */\n      dup3\n        /* \"#utility.yul\":8377:8381   */\n      0x20\n        /* \"#utility.yul\":8366:8375   */\n      dup4\n        /* \"#utility.yul\":8362:8382   */\n      add\n        /* \"#utility.yul\":8355:8391   */\n      mstore\n        /* \"#utility.yul\":7934:8397   */\n      swap5\n      swap4\n      pop\n      pop\n      pop\n      pop\n      jump\t// out\n        /* \"#utility.yul\":8744:8871   */\n    tag_266:\n        /* \"#utility.yul\":8805:8815   */\n      0x4e487b71\n        /* \"#utility.yul\":8800:8803   */\n      0xe0\n        /* \"#utility.yul\":8796:8816   */\n      shl\n        /* \"#utility.yul\":8793:8794   */\n      0x00\n        /* \"#utility.yul\":8786:8817   */\n      mstore\n        /* \"#utility.yul\":8836:8840   */\n      0x32\n        /* \"#utility.yul\":8833:8834   */\n      0x04\n        /* \"#utility.yul\":8826:8841   */\n      mstore\n        /* \"#utility.yul\":8860:8864   */\n      0x24\n        /* \"#utility.yul\":8857:8858   */\n      0x00\n        /* \"#utility.yul\":8850:8865   */\n      revert\n        /* \"#utility.yul\":9735:10012   */\n    tag_301:\n        /* \"#utility.yul\":9802:9808   */\n      0x00\n        /* \"#utility.yul\":9855:9857   */\n      0x20\n        /* \"#utility.yul\":9843:9852   */\n      dup3\n        /* \"#utility.yul\":9834:9841   */\n      dup5\n        /* \"#utility.yul\":9830:9853   */\n      sub\n        /* \"#utility.yul\":9826:9858   */\n      slt\n        /* \"#utility.yul\":9823:9875   */\n      iszero\n      tag_504\n      jumpi\n        /* \"#utility.yul\":9871:9872   */\n      0x00\n        /* \"#utility.yul\":9868:9869   */\n      dup1\n        /* \"#utility.yul\":9861:9873   */\n      revert\n        /* \"#utility.yul\":9823:9875   */\n    tag_504:\n        /* \"#utility.yul\":9903:9912   */\n      dup2\n        /* \"#utility.yul\":9897:9913   */\n      mload\n        /* \"#utility.yul\":9956:9961   */\n      dup1\n        /* \"#utility.yul\":9949:9962   */\n      iszero\n        /* \"#utility.yul\":9942:9963   */\n      iszero\n        /* \"#utility.yul\":9935:9940   */\n      dup2\n        /* \"#utility.yul\":9932:9964   */\n      eq\n        /* \"#utility.yul\":9922:9982   */\n      tag_429\n      jumpi\n        /* \"#utility.yul\":9978:9979   */\n      0x00\n        /* \"#utility.yul\":9975:9976   */\n      dup1\n        /* \"#utility.yul\":9968:9980   */\n      revert\n\n    auxdata: 0xa2646970667358221220800cb6fdaa54c8b7433e19719ea8e73efd883fb67e3790c8fa9b922fd46346ad64736f6c63430008190033\n}\n",
    "bytecode": {
      "linkReferences": {},
      "object": "608060405234801561000f575f80fd5b50604051611de1380380611de183398101604081905261002e91610304565b6001600160a01b0388166100895760405162461bcd60e51b815260206004820152601760248201527f43616d706169676e206f776e657220726571756972656400000000000000000060448201526064015b60405180910390fd5b5f87116100cb5760405162461bcd60e51b815260206004820152601060248201526f0476f616c206d757374206265203e20360841b6044820152606401610080565b5f861161010e5760405162461bcd60e51b8152602060048201526011602482015270111d5c985d1a5bdb881c995c5d5a5c9959607a1b6044820152606401610080565b6001600160a01b0385166101595760405162461bcd60e51b8152602060048201526012602482015271119315c81d1bdad95b881c995c5d5a5c995960721b6044820152606401610080565b6001600160a01b0384166101af5760405162461bcd60e51b815260206004820152601760248201527f4665654469737472696275746f722072657175697265640000000000000000006044820152606401610080565b5f80546001600160a01b038a166001600160a01b031991821617909155600180549091163317905560028790556101e686426103ca565b600355600480546001600160a01b038088166001600160a01b031992831617909255600580549287169290911691909117905560066102258482610473565b5060076102328382610473565b50600861023f8282610473565b505050505050505050610532565b80516001600160a01b0381168114610263575f80fd5b919050565b634e487b7160e01b5f52604160045260245ffd5b5f82601f83011261028b575f80fd5b81516001600160401b03808211156102a5576102a5610268565b604051601f8301601f19908116603f011681019082821181831017156102cd576102cd610268565b816040528381528660208588010111156102e5575f80fd5b8360208701602083015e5f602085830101528094505050505092915050565b5f805f805f805f80610100898b03121561031c575f80fd5b6103258961024d565b9750602089015196506040890151955061034160608a0161024d565b945061034f60808a0161024d565b60a08a01519094506001600160401b038082111561036b575f80fd5b6103778c838d0161027c565b945060c08b015191508082111561038c575f80fd5b6103988c838d0161027c565b935060e08b01519150808211156103ad575f80fd5b506103ba8b828c0161027c565b9150509295985092959890939650565b808201808211156103e957634e487b7160e01b5f52601160045260245ffd5b92915050565b600181811c9082168061040357607f821691505b60208210810361042157634e487b7160e01b5f52602260045260245ffd5b50919050565b601f82111561046e57805f5260205f20601f840160051c8101602085101561044c5750805b601f840160051c820191505b8181101561046b575f8155600101610458565b50505b505050565b81516001600160401b0381111561048c5761048c610268565b6104a08161049a84546103ef565b84610427565b602080601f8311600181146104d3575f84156104bc5750858301515b5f19600386901b1c1916600185901b17855561052a565b5f85815260208120601f198616915b82811015610501578886015182559484019460019091019084016104e2565b508582101561051e57878501515f19600388901b60f8161c191681555b505060018460011b0185555b505050505050565b6118a28061053f5f395ff3fe608060405260043610610260575f3560e01c80638b4c40b01161014b578063bca856ad116100c6578063e98798e81161007c578063efdf762a11610062578063efdf762a1461065a578063f2e76d7b14610690578063ff3c1a8f146106af575f80fd5b8063e98798e814610624578063ecb70fb714610643575f80fd5b8063c52ed534116100ac578063c52ed534146105d0578063e27cc5d9146105e4578063e730395a146105f9575f80fd5b8063bca856ad14610592578063c45a0155146105b1575f80fd5b8063a035531b1161011b578063b17fac2211610101578063b17fac2214610541578063b4c2f7271461055f578063b97a7d241461057e575f80fd5b8063a035531b1461050e578063aba831501461052d575f80fd5b80638b4c40b0146104c25780638da5cb5b146104ca57806390be10cc146104e65780639743a691146104fa575f80fd5b806340193883116101db57806371a6acf2116101ab5780637284e416116101915780637284e4161461047257806379388e411461048657806388cc58e4146104a5575f80fd5b806371a6acf2146104255780637273b73614610444575f80fd5b806340193883146103c95780634a79d50c146103de5780635f8d96de146103f25780636136f6cf14610406575f80fd5b806321d290381161023057806329dcb0cf1161021657806329dcb0cf1461037357806332cb25be146103885780633ccfd60b146103b5575f80fd5b806321d290381461033257806322f3e2d414610351575f80fd5b806307ec3174146102735780630d43e8ad146102b157806312b58349146102e85780631a09254114610311575f80fd5b3661026f5761026d6106c3565b005b5f80fd5b34801561027e575f80fd5b5061029e61028d3660046114c7565b600b6020525f908152604090205481565b6040519081526020015b60405180910390f35b3480156102bc575f80fd5b506005546102d0906001600160a01b031681565b6040516001600160a01b0390911681526020016102a8565b3480156102f3575f80fd5b506102fc6107ba565b604080519283526020830191909152016102a8565b34801561031c575f80fd5b50610325610835565b6040516102a89190611515565b34801561033d575f80fd5b5061026d61034c366004611527565b6108c5565b34801561035c575f80fd5b5060035442105b60405190151581526020016102a8565b34801561037e575f80fd5b5061029e60035481565b348015610393575f80fd5b506103a76103a2366004611593565b610a22565b6040516102a89291906115aa565b3480156103c0575f80fd5b5061026d610b42565b3480156103d4575f80fd5b5061029e60025481565b3480156103e9575f80fd5b50610325610dfa565b3480156103fd575f80fd5b5060035461029e565b348015610411575f80fd5b5061026d6104203660046114c7565b610e86565b348015610430575f80fd5b5061026d61043f3660046115cb565b610f7b565b34801561044f575f80fd5b50600c546004546001600160a01b03165f908152600b60205260409020546102fc565b34801561047d575f80fd5b50610325611190565b348015610491575f80fd5b5061026d6104a03660046114c7565b61119d565b3480156104b0575f80fd5b506001546001600160a01b03166102d0565b61026d6106c3565b3480156104d5575f80fd5b505f546001600160a01b03166102d0565b3480156104f1575f80fd5b506102fc611207565b348015610505575f80fd5b506103256112fd565b348015610519575f80fd5b5061029e610528366004611593565b61130c565b348015610538575f80fd5b5061032561132b565b34801561054c575f80fd5b505f546102d0906001600160a01b031681565b34801561056a575f80fd5b506102d0610579366004611593565b611338565b348015610589575f80fd5b5060025461029e565b34801561059d575f80fd5b506103256105ac366004611593565b611360565b3480156105bc575f80fd5b506001546102d0906001600160a01b031681565b3480156105db575f80fd5b50600e5461029e565b3480156105ef575f80fd5b5061029e600c5481565b348015610604575f80fd5b5061029e6106133660046114c7565b60096020525f908152604090205481565b34801561062f575f80fd5b5061026d61063e3660046115f3565b611387565b34801561064e575f80fd5b50600354421015610363565b348015610665575f80fd5b5061029e6106743660046115f3565b600a60209081525f928352604080842090915290825290205481565b34801561069b575f80fd5b506004546102d0906001600160a01b031681565b3480156106ba575f80fd5b5061032561149d565b600354421061070a5760405162461bcd60e51b815260206004820152600e60248201526d10d85b5c185a59db88195b99195960921b60448201526064015b60405180910390fd5b5f34116107595760405162461bcd60e51b815260206004820152600b60248201527f4e6f204554482073656e740000000000000000000000000000000000000000006044820152606401610701565b5f6064610767346002611638565b6107719190611655565b905080600c5f8282546107849190611674565b9091555061079490508134611687565b335f90815260096020526040812080549091906107b2908490611674565b909155505050565b600480546040516370a0823160e01b815230928101929092525f91829147916001600160a01b03909116906370a0823190602401602060405180830381865afa158015610809573d5f803e3d5ffd5b505050506040513d601f19601f8201168201806040525081019061082d919061169a565b915091509091565b606060078054610844906116b1565b80601f0160208091040260200160405190810160405280929190818152602001828054610870906116b1565b80156108bb5780601f10610892576101008083540402835291602001916108bb565b820191905f5260205f20905b81548152906001019060200180831161089e57829003601f168201915b5050505050905090565b5f546001600160a01b0316331461091e5760405162461bcd60e51b815260206004820152601260248201527f4e6f742063616d706169676e206f776e657200000000000000000000000000006044820152606401610701565b600d805460018181019092557fd7b6990105719101dabeb77144f2a3385c8033acd3af97e9423a695e81ad1eb50180547fffffffffffffffffffffffff00000000000000000000000000000000000000001633179055600e805491820181555f527fbb7b4a454dc3493923482f07822329ed19e8244eff582cc204f8554c3620c3fd016109ac828483611748565b50600f80546001810182555f91909152427f8d1108e10bcb7c27dddfc02ed9d693a074039d026cf4ea4240b40f7d581ac8029091018190556040517f795d961edbc9e83a9c6d46e7e54ae3be27574cfbc69a1eca98133687155c24b091610a169185918591611802565b60405180910390a15050565b600e546060905f908310610a785760405162461bcd60e51b815260206004820152600d60248201527f496e76616c696420696e646578000000000000000000000000000000000000006044820152606401610701565b600e8381548110610a8b57610a8b611839565b905f5260205f2001600f8481548110610aa657610aa6611839565b905f5260205f200154818054610abb906116b1565b80601f0160208091040260200160405190810160405280929190818152602001828054610ae7906116b1565b8015610b325780601f10610b0957610100808354040283529160200191610b32565b820191905f5260205f20905b815481529060010190602001808311610b1557829003601f168201915b5050505050915091509150915091565b5f546001600160a01b03163314610b9b5760405162461bcd60e51b815260206004820152601260248201527f4e6f742063616d706169676e206f776e657200000000000000000000000000006044820152606401610701565b600354421015610bed5760405162461bcd60e51b815260206004820152601260248201527f43616d706169676e206e6f7420656e64656400000000000000000000000000006044820152606401610701565b5f600c5447610bfc9190611687565b600480546001600160a01b03165f818152600b60205260408082205490516370a0823160e01b8152309481019490945293945092916370a0823190602401602060405180830381865afa158015610c55573d5f803e3d5ffd5b505050506040513d601f19601f82011682018060405250810190610c79919061169a565b610c839190611687565b90506001808315610ce3575f80546040516001600160a01b039091169186919081818185875af1925050503d805f8114610cd8576040519150601f19603f3d011682016040523d82523d5f602084013e610cdd565b606091505b50909250505b8215610d6357600480545f5460405163a9059cbb60e01b81526001600160a01b039182169381019390935260248301869052169063a9059cbb906044016020604051808303815f875af1158015610d3c573d5f803e3d5ffd5b505050506040513d601f19601f82011682018060405250810190610d60919061184d565b90505b60408051831515815282151560208201527fedaf6307dd03cf2213c8cf4c3154d20dbf80b44bb80b206b6381109881db78e7910160405180910390a18180610da85750805b610df45760405162461bcd60e51b815260206004820152601160248201527f4e6f7468696e672077697468647261776e0000000000000000000000000000006044820152606401610701565b50505050565b60068054610e07906116b1565b80601f0160208091040260200160405190810160405280929190818152602001828054610e33906116b1565b8015610e7e5780601f10610e5557610100808354040283529160200191610e7e565b820191905f5260205f20905b815481529060010190602001808311610e6157829003601f168201915b505050505081565b6001546001600160a01b03163314610ece5760405162461bcd60e51b815260206004820152600b60248201526a4e6f7420666163746f727960a81b6044820152606401610701565b600c80545f918290556040519091906001600160a01b0384169083908381818185875af1925050503d805f8114610f20576040519150601f19603f3d011682016040523d82523d5f602084013e610f25565b606091505b5050905080610f765760405162461bcd60e51b815260206004820152601760248201527f45544820666565207472616e73666572206661696c65640000000000000000006044820152606401610701565b505050565b6003544210610fbd5760405162461bcd60e51b815260206004820152600e60248201526d10d85b5c185a59db88195b99195960921b6044820152606401610701565b5f811161100c5760405162461bcd60e51b815260206004820152600e60248201527f4e6f20746f6b656e732073656e740000000000000000000000000000000000006044820152606401610701565b6004545f906001600160a01b0384811691161461103f576064611030836002611638565b61103a9190611655565b611057565b6103e861104d836005611638565b6110579190611655565b90505f6110648284611687565b6040516323b872dd60e01b8152336004820152306024820152604481018590529091506001600160a01b038516906323b872dd906064016020604051808303815f875af11580156110b7573d5f803e3d5ffd5b505050506040513d601f19601f820116820180604052508101906110db919061184d565b6111275760405162461bcd60e51b815260206004820152600f60248201527f5472616e73666572206661696c656400000000000000000000000000000000006044820152606401610701565b6001600160a01b0384165f908152600b60205260408120805484929061114e908490611674565b9091555050335f908152600a602090815260408083206001600160a01b038816845290915281208054839290611185908490611674565b909155505050505050565b60078054610e07906116b1565b6001546001600160a01b031633146111e55760405162461bcd60e51b815260206004820152600b60248201526a4e6f7420666163746f727960a81b6044820152606401610701565b6111ee81610e86565b600454611204906001600160a01b031682611387565b50565b5f8060035442101561121b57505f91829150565b600480546040516370a0823160e01b8152309281019290925247915f916001600160a01b0316906370a0823190602401602060405180830381865afa158015611266573d5f803e3d5ffd5b505050506040513d601f19601f8201168201806040525081019061128a919061169a565b9050600c54821161129b575f6112a8565b600c546112a89083611687565b6004546001600160a01b03165f908152600b602052604090205490945081116112d1575f6112f5565b6004546001600160a01b03165f908152600b60205260409020546112f59082611687565b925050509091565b606060088054610844906116b1565b600f818154811061131b575f80fd5b5f91825260209091200154905081565b60088054610e07906116b1565b600d8181548110611347575f80fd5b5f918252602090912001546001600160a01b0316905081565b600e818154811061136f575f80fd5b905f5260205f20015f915090508054610e07906116b1565b6001546001600160a01b031633146113cf5760405162461bcd60e51b815260206004820152600b60248201526a4e6f7420666163746f727960a81b6044820152606401610701565b6001600160a01b038281165f818152600b602052604080822080549290555163a9059cbb60e01b81529284166004840152602483018190529163a9059cbb906044016020604051808303815f875af115801561142d573d5f803e3d5ffd5b505050506040513d601f19601f82011682018060405250810190611451919061184d565b610f765760405162461bcd60e51b815260206004820152601960248201527f546f6b656e20666565207472616e73666572206661696c6564000000000000006044820152606401610701565b606060068054610844906116b1565b80356001600160a01b03811681146114c2575f80fd5b919050565b5f602082840312156114d7575f80fd5b6114e0826114ac565b9392505050565b5f81518084528060208401602086015e5f602082860101526020601f19601f83011685010191505092915050565b602081525f6114e060208301846114e7565b5f8060208385031215611538575f80fd5b823567ffffffffffffffff8082111561154f575f80fd5b818501915085601f830112611562575f80fd5b813581811115611570575f80fd5b866020828501011115611581575f80fd5b60209290920196919550909350505050565b5f602082840312156115a3575f80fd5b5035919050565b604081525f6115bc60408301856114e7565b90508260208301529392505050565b5f80604083850312156115dc575f80fd5b6115e5836114ac565b946020939093013593505050565b5f8060408385031215611604575f80fd5b61160d836114ac565b915061161b602084016114ac565b90509250929050565b634e487b7160e01b5f52601160045260245ffd5b808202811582820484141761164f5761164f611624565b92915050565b5f8261166f57634e487b7160e01b5f52601260045260245ffd5b500490565b8082018082111561164f5761164f611624565b8181038181111561164f5761164f611624565b5f602082840312156116aa575f80fd5b5051919050565b600181811c908216806116c557607f821691505b6020821081036116e357634e487b7160e01b5f52602260045260245ffd5b50919050565b634e487b7160e01b5f52604160045260245ffd5b601f821115610f7657805f5260205f20601f840160051c810160208510156117225750805b601f840160051c820191505b81811015611741575f815560010161172e565b5050505050565b67ffffffffffffffff831115611760576117606116e9565b6117748361176e83546116b1565b836116fd565b5f601f8411600181146117a5575f851561178e5750838201355b5f19600387901b1c1916600186901b178355611741565b5f83815260208120601f198716915b828110156117d457868501358255602094850194600190920191016117b4565b50868210156117f0575f1960f88860031b161c19848701351681555b505060018560011b0183555050505050565b60408152826040820152828460608301375f606084830101525f6060601f19601f8601168301019050826020830152949350505050565b634e487b7160e01b5f52603260045260245ffd5b5f6020828403121561185d575f80fd5b815180151581146114e0575f80fdfea2646970667358221220800cb6fdaa54c8b7433e19719ea8e73efd883fb67e3790c8fa9b922fd46346ad64736f6c63430008190033",
      "opcodes": "PUSH1 0x80 PUSH1 0x40 MSTORE CALLVALUE DUP1 ISZERO PUSH2 0xF JUMPI PUSH0 DUP1 REVERT JUMPDEST POP PUSH1 0x40 MLOAD PUSH2 0x1DE1 CODESIZE SUB DUP1 PUSH2 0x1DE1 DUP4 CODECOPY DUP2 ADD PUSH1 0x40 DUP2 SWAP1 MSTORE PUSH2 0x2E SWAP2 PUSH2 0x304 JUMP JUMPDEST PUSH1 0x1 PUSH1 0x1 PUSH1 0xA0 SHL SUB DUP9 AND PUSH2 0x89 JUMPI PUSH1 0x40 MLOAD PUSH3 0x461BCD PUSH1 0xE5 SHL DUP2 MSTORE PUSH1 0x20 PUSH1 0x4 DUP3 ADD MSTORE PUSH1 0x17 PUSH1 0x24 DUP3 ADD MSTORE PUSH32 0x43616D706169676E206F776E6572207265717569726564000000000000000000 PUSH1 0x44 DUP3 ADD MSTORE PUSH1 0x64 ADD JUMPDEST PUSH1 0x40 MLOAD DUP1 SWAP2 SUB SWAP1 REVERT JUMPDEST PUSH0 DUP8 GT PUSH2 0xCB JUMPI PUSH1 0x40 MLOAD PUSH3 0x461BCD PUSH1 0xE5 SHL DUP2 MSTORE PUSH1 0x20 PUSH1 0x4 DUP3 ADD MSTORE PUSH1 0x10 PUSH1 0x24 DUP3 ADD MSTORE PUSH16 0x476F616C206D757374206265203E203 PUSH1 0x84 SHL PUSH1 0x44 DUP3 ADD MSTORE PUSH1 0x64 ADD PUSH2 0x80 JUMP JUMPDEST PUSH0 DUP7 GT PUSH2 0x10E JUMPI PUSH1 0x40 MLOAD PUSH3 0x461BCD PUSH1 0xE5 SHL DUP2 MSTORE PUSH1 0x20 PUSH1 0x4 DUP3 ADD MSTORE PUSH1 0x11 PUSH1 0x24 DUP3 ADD MSTORE PUSH17 0x111D5C985D1A5BDB881C995C5D5A5C9959 PUSH1 0x7A SHL PUSH1 0x44 DUP3 ADD MSTORE PUSH1 0x64 ADD PUSH2 0x80 JUMP JUMPDEST PUSH1 0x1 PUSH1 0x1 PUSH1 0xA0 SHL SUB DUP6 AND PUSH2 0x159 JUMPI PUSH1 0x40 MLOAD PUSH3 0x461BCD PUSH1 0xE5 SHL DUP2 MSTORE PUSH1 0x20 PUSH1 0x4 DUP3 ADD MSTORE PUSH1 0x12 PUSH1 0x24 DUP3 ADD MSTORE PUSH18 0x119315C81D1BDAD95B881C995C5D5A5C9959 PUSH1 0x72 SHL PUSH1 0x44 DUP3 ADD MSTORE PUSH1 0x64 ADD PUSH2 0x80 JUMP JUMPDEST PUSH1 0x1 PUSH1 0x1 PUSH1 0xA0 SHL SUB DUP5 AND PUSH2 0x1AF JUMPI PUSH1 0x40 MLOAD PUSH3 0x461BCD PUSH1 0xE5 SHL DUP2 MSTORE PUSH1 0x20 PUSH1 0x4 DUP3 ADD MSTORE PUSH1 0x17 PUSH1 0x24 DUP3 ADD MSTORE PUSH32 0x4665654469737472696275746F72207265717569726564000000000000000000 PUSH1 0x44 DUP3 ADD MSTORE PUSH1 0x64 ADD PUSH2 0x80 JUMP JUMPDEST PUSH0 DUP1 SLOAD PUSH1 0x1 PUSH1 0x1 PUSH1 0xA0 SHL SUB DUP11 AND PUSH1 0x1 PUSH1 0x1 PUSH1 0xA0 SHL SUB NOT SWAP2 DUP3 AND OR SWAP1 SWAP2 SSTORE PUSH1 0x1 DUP1 SLOAD SWAP1 SWAP2 AND CALLER OR SWAP1 SSTORE PUSH1 0x2 DUP8 SWAP1 SSTORE PUSH2 0x1E6 DUP7 TIMESTAMP PUSH2 0x3CA JUMP JUMPDEST PUSH1 0x3 SSTORE PUSH1 0x4 DUP1 SLOAD PUSH1 0x1 PUSH1 0x1 PUSH1 0xA0 SHL SUB DUP1 DUP9 AND PUSH1 0x1 PUSH1 0x1 PUSH1 0xA0 SHL SUB NOT SWAP3 DUP4 AND OR SWAP1 SWAP3 SSTORE PUSH1 0x5 DUP1 SLOAD SWAP3 DUP8 AND SWAP3 SWAP1 SWAP2 AND SWAP2 SWAP1 SWAP2 OR SWAP1 SSTORE PUSH1 0x6 PUSH2 0x225 DUP5 DUP3 PUSH2 0x473 JUMP JUMPDEST POP PUSH1 0x7 PUSH2 0x232 DUP4 DUP3 PUSH2 0x473 JUMP JUMPDEST POP PUSH1 0x8 PUSH2 0x23F DUP3 DUP3 PUSH2 0x473 JUMP JUMPDEST POP POP POP POP POP POP POP POP POP PUSH2 0x532 JUMP JUMPDEST DUP1 MLOAD PUSH1 0x1 PUSH1 0x1 PUSH1 0xA0 SHL SUB DUP2 AND DUP2 EQ PUSH2 0x263 JUMPI PUSH0 DUP1 REVERT JUMPDEST SWAP2 SWAP1 POP JUMP JUMPDEST PUSH4 0x4E487B71 PUSH1 0xE0 SHL PUSH0 MSTORE PUSH1 0x41 PUSH1 0x4 MSTORE PUSH1 0x24 PUSH0 REVERT JUMPDEST PUSH0 DUP3 PUSH1 0x1F DUP4 ADD SLT PUSH2 0x28B JUMPI PUSH0 DUP1 REVERT JUMPDEST DUP2 MLOAD PUSH1 0x1 PUSH1 0x1 PUSH1 0x40 SHL SUB DUP1 DUP3 GT ISZERO PUSH2 0x2A5 JUMPI PUSH2 0x2A5 PUSH2 0x268 JUMP JUMPDEST PUSH1 0x40 MLOAD PUSH1 0x1F DUP4 ADD PUSH1 0x1F NOT SWAP1 DUP2 AND PUSH1 0x3F ADD AND DUP2 ADD SWAP1 DUP3 DUP3 GT DUP2 DUP4 LT OR ISZERO PUSH2 0x2CD JUMPI PUSH2 0x2CD PUSH2 0x268 JUMP JUMPDEST DUP2 PUSH1 0x40 MSTORE DUP4 DUP2 MSTORE DUP7 PUSH1 0x20 DUP6 DUP9 ADD ADD GT ISZERO PUSH2 0x2E5 JUMPI PUSH0 DUP1 REVERT JUMPDEST DUP4 PUSH1 0x20 DUP8 ADD PUSH1 0x20 DUP4 ADD MCOPY PUSH0 PUSH1 0x20 DUP6 DUP4 ADD ADD MSTORE DUP1 SWAP5 POP POP POP POP POP SWAP3 SWAP2 POP POP JUMP JUMPDEST PUSH0 DUP1 PUSH0 DUP1 PUSH0 DUP1 PUSH0 DUP1 PUSH2 0x100 DUP10 DUP12 SUB SLT ISZERO PUSH2 0x31C JUMPI PUSH0 DUP1 REVERT JUMPDEST PUSH2 0x325 DUP10 PUSH2 0x24D JUMP JUMPDEST SWAP8 POP PUSH1 0x20 DUP10 ADD MLOAD SWAP7 POP PUSH1 0x40 DUP10 ADD MLOAD SWAP6 POP PUSH2 0x341 PUSH1 0x60 DUP11 ADD PUSH2 0x24D JUMP JUMPDEST SWAP5 POP PUSH2 0x34F PUSH1 0x80 DUP11 ADD PUSH2 0x24D JUMP JUMPDEST PUSH1 0xA0 DUP11 ADD MLOAD SWAP1 SWAP5 POP PUSH1 0x1 PUSH1 0x1 PUSH1 0x40 SHL SUB DUP1 DUP3 GT ISZERO PUSH2 0x36B JUMPI PUSH0 DUP1 REVERT JUMPDEST PUSH2 0x377 DUP13 DUP4 DUP14 ADD PUSH2 0x27C JUMP JUMPDEST SWAP5 POP PUSH1 0xC0 DUP12 ADD MLOAD SWAP2 POP DUP1 DUP3 GT ISZERO PUSH2 0x38C JUMPI PUSH0 DUP1 REVERT JUMPDEST PUSH2 0x398 DUP13 DUP4 DUP14 ADD PUSH2 0x27C JUMP JUMPDEST SWAP4 POP PUSH1 0xE0 DUP12 ADD MLOAD SWAP2 POP DUP1 DUP3 GT ISZERO PUSH2 0x3AD JUMPI PUSH0 DUP1 REVERT JUMPDEST POP PUSH2 0x3BA DUP12 DUP3 DUP13 ADD PUSH2 0x27C JUMP JUMPDEST SWAP2 POP POP SWAP3 SWAP6 SWAP9 POP SWAP3 SWAP6 SWAP9 SWAP1 SWAP4 SWAP7 POP JUMP JUMPDEST DUP1 DUP3 ADD DUP1 DUP3 GT ISZERO PUSH2 0x3E9 JUMPI PUSH4 0x4E487B71 PUSH1 0xE0 SHL PUSH0 MSTORE PUSH1 0x11 PUSH1 0x4 MSTORE PUSH1 0x24 PUSH0 REVERT JUMPDEST SWAP3 SWAP2 POP POP JUMP JUMPDEST PUSH1 0x1 DUP2 DUP2 SHR SWAP1 DUP3 AND DUP1 PUSH2 0x403 JUMPI PUSH1 0x7F DUP3 AND SWAP2 POP JUMPDEST PUSH1 0x20 DUP3 LT DUP2 SUB PUSH2 0x421 JUMPI PUSH4 0x4E487B71 PUSH1 0xE0 SHL PUSH0 MSTORE PUSH1 0x22 PUSH1 0x4 MSTORE PUSH1 0x24 PUSH0 REVERT JUMPDEST POP SWAP2 SWAP1 POP JUMP JUMPDEST PUSH1 0x1F DUP3 GT ISZERO PUSH2 0x46E JUMPI DUP1 PUSH0 MSTORE PUSH1 0x20 PUSH0 KECCAK256 PUSH1 0x1F DUP5 ADD PUSH1 0x5 SHR DUP2 ADD PUSH1 0x20 DUP6 LT ISZERO PUSH2 0x44C JUMPI POP DUP1 JUMPDEST PUSH1 0x1F DUP5 ADD PUSH1 0x5 SHR DUP3 ADD SWAP2 POP JUMPDEST DUP2 DUP2 LT ISZERO PUSH2 0x46B JUMPI PUSH0 DUP2 SSTORE PUSH1 0x1 ADD PUSH2 0x458 JUMP JUMPDEST POP POP JUMPDEST POP POP POP JUMP JUMPDEST DUP2 MLOAD PUSH1 0x1 PUSH1 0x1 PUSH1 0x40 SHL SUB DUP2 GT ISZERO PUSH2 0x48C JUMPI PUSH2 0x48C PUSH2 0x268 JUMP JUMPDEST PUSH2 0x4A0 DUP2 PUSH2 0x49A DUP5 SLOAD PUSH2 0x3EF JUMP JUMPDEST DUP5 PUSH2 0x427 JUMP JUMPDEST PUSH1 0x20 DUP1 PUSH1 0x1F DUP4 GT PUSH1 0x1 DUP2 EQ PUSH2 0x4D3 JUMPI PUSH0 DUP5 ISZERO PUSH2 0x4BC JUMPI POP DUP6 DUP4 ADD MLOAD JUMPDEST PUSH0 NOT PUSH1 0x3 DUP7 SWAP1 SHL SHR NOT AND PUSH1 0x1 DUP6 SWAP1 SHL OR DUP6 SSTORE PUSH2 0x52A JUMP JUMPDEST PUSH0 DUP6 DUP2 MSTORE PUSH1 0x20 DUP2 KECCAK256 PUSH1 0x1F NOT DUP7 AND SWAP2 JUMPDEST DUP3 DUP2 LT ISZERO PUSH2 0x501 JUMPI DUP9 DUP7 ADD MLOAD DUP3 SSTORE SWAP5 DUP5 ADD SWAP5 PUSH1 0x1 SWAP1 SWAP2 ADD SWAP1 DUP5 ADD PUSH2 0x4E2 JUMP JUMPDEST POP DUP6 DUP3 LT ISZERO PUSH2 0x51E JUMPI DUP8 DUP6 ADD MLOAD PUSH0 NOT PUSH1 0x3 DUP9 SWAP1 SHL PUSH1 0xF8 AND SHR NOT AND DUP2 SSTORE JUMPDEST POP POP PUSH1 0x1 DUP5 PUSH1 0x1 SHL ADD DUP6 SSTORE JUMPDEST POP POP POP POP POP POP JUMP JUMPDEST PUSH2 0x18A2 DUP1 PUSH2 0x53F PUSH0 CODECOPY PUSH0 RETURN INVALID PUSH1 0x80 PUSH1 0x40 MSTORE PUSH1 0x4 CALLDATASIZE LT PUSH2 0x260 JUMPI PUSH0 CALLDATALOAD PUSH1 0xE0 SHR DUP1 PUSH4 0x8B4C40B0 GT PUSH2 0x14B JUMPI DUP1 PUSH4 0xBCA856AD GT PUSH2 0xC6 JUMPI DUP1 PUSH4 0xE98798E8 GT PUSH2 0x7C JUMPI DUP1 PUSH4 0xEFDF762A GT PUSH2 0x62 JUMPI DUP1 PUSH4 0xEFDF762A EQ PUSH2 0x65A JUMPI DUP1 PUSH4 0xF2E76D7B EQ PUSH2 0x690 JUMPI DUP1 PUSH4 0xFF3C1A8F EQ PUSH2 0x6AF JUMPI PUSH0 DUP1 REVERT JUMPDEST DUP1 PUSH4 0xE98798E8 EQ PUSH2 0x624 JUMPI DUP1 PUSH4 0xECB70FB7 EQ PUSH2 0x643 JUMPI PUSH0 DUP1 REVERT JUMPDEST DUP1 PUSH4 0xC52ED534 GT PUSH2 0xAC JUMPI DUP1 PUSH4 0xC52ED534 EQ PUSH2 0x5D0 JUMPI DUP1 PUSH4 0xE27CC5D9 EQ PUSH2 0x5E4 JUMPI DUP1 PUSH4 0xE730395A EQ PUSH2 0x5F9 JUMPI PUSH0 DUP1 REVERT JUMPDEST DUP1 PUSH4 0xBCA856AD EQ PUSH2 0x592 JUMPI DUP1 PUSH4 0xC45A0155 EQ PUSH2 0x5B1 JUMPI PUSH0 DUP1 REVERT JUMPDEST DUP1 PUSH4 0xA035531B GT PUSH2 0x11B JUMPI DUP1 PUSH4 0xB17FAC22 GT PUSH2 0x101 JUMPI DUP1 PUSH4 0xB17FAC22 EQ PUSH2 0x541 JUMPI DUP1 PUSH4 0xB4C2F727 EQ PUSH2 0x55F JUMPI DUP1 PUSH4 0xB97A7D24 EQ PUSH2 0x57E JUMPI PUSH0 DUP1 REVERT JUMPDEST DUP1 PUSH4 0xA035531B EQ PUSH2 0x50E JUMPI DUP1 PUSH4 0xABA83150 EQ PUSH2 0x52D JUMPI PUSH0 DUP1 REVERT JUMPDEST DUP1 PUSH4 0x8B4C40B0 EQ PUSH2 0x4C2 JUMPI DUP1 PUSH4 0x8DA5CB5B EQ PUSH2 0x4CA JUMPI DUP1 PUSH4 0x90BE10CC EQ PUSH2 0x4E6 JUMPI DUP1 PUSH4 0x9743A691 EQ PUSH2 0x4FA JUMPI PUSH0 DUP1 REVERT JUMPDEST DUP1 PUSH4 0x40193883 GT PUSH2 0x1DB JUMPI DUP1 PUSH4 0x71A6ACF2 GT PUSH2 0x1AB JUMPI DUP1 PUSH4 0x7284E416 GT PUSH2 0x191 JUMPI DUP1 PUSH4 0x7284E416 EQ PUSH2 0x472 JUMPI DUP1 PUSH4 0x79388E41 EQ PUSH2 0x486 JUMPI DUP1 PUSH4 0x88CC58E4 EQ PUSH2 0x4A5 JUMPI PUSH0 DUP1 REVERT JUMPDEST DUP1 PUSH4 0x71A6ACF2 EQ PUSH2 0x425 JUMPI DUP1 PUSH4 0x7273B736 EQ PUSH2 0x444 JUMPI PUSH0 DUP1 REVERT JUMPDEST DUP1 PUSH4 0x40193883 EQ PUSH2 0x3C9 JUMPI DUP1 PUSH4 0x4A79D50C EQ PUSH2 0x3DE JUMPI DUP1 PUSH4 0x5F8D96DE EQ PUSH2 0x3F2 JUMPI DUP1 PUSH4 0x6136F6CF EQ PUSH2 0x406 JUMPI PUSH0 DUP1 REVERT JUMPDEST DUP1 PUSH4 0x21D29038 GT PUSH2 0x230 JUMPI DUP1 PUSH4 0x29DCB0CF GT PUSH2 0x216 JUMPI DUP1 PUSH4 0x29DCB0CF EQ PUSH2 0x373 JUMPI DUP1 PUSH4 0x32CB25BE EQ PUSH2 0x388 JUMPI DUP1 PUSH4 0x3CCFD60B EQ PUSH2 0x3B5 JUMPI PUSH0 DUP1 REVERT JUMPDEST DUP1 PUSH4 0x21D29038 EQ PUSH2 0x332 JUMPI DUP1 PUSH4 0x22F3E2D4 EQ PUSH2 0x351 JUMPI PUSH0 DUP1 REVERT JUMPDEST DUP1 PUSH4 0x7EC3174 EQ PUSH2 0x273 JUMPI DUP1 PUSH4 0xD43E8AD EQ PUSH2 0x2B1 JUMPI DUP1 PUSH4 0x12B58349 EQ PUSH2 0x2E8 JUMPI DUP1 PUSH4 0x1A092541 EQ PUSH2 0x311 JUMPI PUSH0 DUP1 REVERT JUMPDEST CALLDATASIZE PUSH2 0x26F JUMPI PUSH2 0x26D PUSH2 0x6C3 JUMP JUMPDEST STOP JUMPDEST PUSH0 DUP1 REVERT JUMPDEST CALLVALUE DUP1 ISZERO PUSH2 0x27E JUMPI PUSH0 DUP1 REVERT JUMPDEST POP PUSH2 0x29E PUSH2 0x28D CALLDATASIZE PUSH1 0x4 PUSH2 0x14C7 JUMP JUMPDEST PUSH1 0xB PUSH1 0x20 MSTORE PUSH0 SWAP1 DUP2 MSTORE PUSH1 0x40 SWAP1 KECCAK256 SLOAD DUP2 JUMP JUMPDEST PUSH1 0x40 MLOAD SWAP1 DUP2 MSTORE PUSH1 0x20 ADD JUMPDEST PUSH1 0x40 MLOAD DUP1 SWAP2 SUB SWAP1 RETURN JUMPDEST CALLVALUE DUP1 ISZERO PUSH2 0x2BC JUMPI PUSH0 DUP1 REVERT JUMPDEST POP PUSH1 0x5 SLOAD PUSH2 0x2D0 SWAP1 PUSH1 0x1 PUSH1 0x1 PUSH1 0xA0 SHL SUB AND DUP2 JUMP JUMPDEST PUSH1 0x40 MLOAD PUSH1 0x1 PUSH1 0x1 PUSH1 0xA0 SHL SUB SWAP1 SWAP2 AND DUP2 MSTORE PUSH1 0x20 ADD PUSH2 0x2A8 JUMP JUMPDEST CALLVALUE DUP1 ISZERO PUSH2 0x2F3 JUMPI PUSH0 DUP1 REVERT JUMPDEST POP PUSH2 0x2FC PUSH2 0x7BA JUMP JUMPDEST PUSH1 0x40 DUP1 MLOAD SWAP3 DUP4 MSTORE PUSH1 0x20 DUP4 ADD SWAP2 SWAP1 SWAP2 MSTORE ADD PUSH2 0x2A8 JUMP JUMPDEST CALLVALUE DUP1 ISZERO PUSH2 0x31C JUMPI PUSH0 DUP1 REVERT JUMPDEST POP PUSH2 0x325 PUSH2 0x835 JUMP JUMPDEST PUSH1 0x40 MLOAD PUSH2 0x2A8 SWAP2 SWAP1 PUSH2 0x1515 JUMP JUMPDEST CALLVALUE DUP1 ISZERO PUSH2 0x33D JUMPI PUSH0 DUP1 REVERT JUMPDEST POP PUSH2 0x26D PUSH2 0x34C CALLDATASIZE PUSH1 0x4 PUSH2 0x1527 JUMP JUMPDEST PUSH2 0x8C5 JUMP JUMPDEST CALLVALUE DUP1 ISZERO PUSH2 0x35C JUMPI PUSH0 DUP1 REVERT JUMPDEST POP PUSH1 0x3 SLOAD TIMESTAMP LT JUMPDEST PUSH1 0x40 MLOAD SWAP1 ISZERO ISZERO DUP2 MSTORE PUSH1 0x20 ADD PUSH2 0x2A8 JUMP JUMPDEST CALLVALUE DUP1 ISZERO PUSH2 0x37E JUMPI PUSH0 DUP1 REVERT JUMPDEST POP PUSH2 0x29E PUSH1 0x3 SLOAD DUP2 JUMP JUMPDEST CALLVALUE DUP1 ISZERO PUSH2 0x393 JUMPI PUSH0 DUP1 REVERT JUMPDEST POP PUSH2 0x3A7 PUSH2 0x3A2 CALLDATASIZE PUSH1 0x4 PUSH2 0x1593 JUMP JUMPDEST PUSH2 0xA22 JUMP JUMPDEST PUSH1 0x40 MLOAD PUSH2 0x2A8 SWAP3 SWAP2 SWAP1 PUSH2 0x15AA JUMP JUMPDEST CALLVALUE DUP1 ISZERO PUSH2 0x3C0 JUMPI PUSH0 DUP1 REVERT JUMPDEST POP PUSH2 0x26D PUSH2 0xB42 JUMP JUMPDEST CALLVALUE DUP1 ISZERO PUSH2 0x3D4 JUMPI PUSH0 DUP1 REVERT JUMPDEST POP PUSH2 0x29E PUSH1 0x2 SLOAD DUP2 JUMP JUMPDEST CALLVALUE DUP1 ISZERO PUSH2 0x3E9 JUMPI PUSH0 DUP1 REVERT JUMPDEST POP PUSH2 0x325 PUSH2 0xDFA JUMP JUMPDEST CALLVALUE DUP1 ISZERO PUSH2 0x3FD JUMPI PUSH0 DUP1 REVERT JUMPDEST POP PUSH1 0x3 SLOAD PUSH2 0x29E JUMP JUMPDEST CALLVALUE DUP1 ISZERO PUSH2 0x411 JUMPI PUSH0 DUP1 REVERT JUMPDEST POP PUSH2 0x26D PUSH2 0x420 CALLDATASIZE PUSH1 0x4 PUSH2 0x14C7 JUMP JUMPDEST PUSH2 0xE86 JUMP JUMPDEST CALLVALUE DUP1 ISZERO PUSH2 0x430 JUMPI PUSH0 DUP1 REVERT JUMPDEST POP PUSH2 0x26D PUSH2 0x43F CALLDATASIZE PUSH1 0x4 PUSH2 0x15CB JUMP JUMPDEST PUSH2 0xF7B JUMP JUMPDEST CALLVALUE DUP1 ISZERO PUSH2 0x44F JUMPI PUSH0 DUP1 REVERT JUMPDEST POP PUSH1 0xC SLOAD PUSH1 0x4 SLOAD PUSH1 0x1 PUSH1 0x1 PUSH1 0xA0 SHL SUB AND PUSH0 SWAP1 DUP2 MSTORE PUSH1 0xB PUSH1 0x20 MSTORE PUSH1 0x40 SWAP1 KECCAK256 SLOAD PUSH2 0x2FC JUMP JUMPDEST CALLVALUE DUP1 ISZERO PUSH2 0x47D JUMPI PUSH0 DUP1 REVERT JUMPDEST POP PUSH2 0x325 PUSH2 0x1190 JUMP JUMPDEST CALLVALUE DUP1 ISZERO PUSH2 0x491 JUMPI PUSH0 DUP1 REVERT JUMPDEST POP PUSH2 0x26D PUSH2 0x4A0 CALLDATASIZE PUSH1 0x4 PUSH2 0x14C7 JUMP JUMPDEST PUSH2 0x119D JUMP JUMPDEST CALLVALUE DUP1 ISZERO PUSH2 0x4B0 JUMPI PUSH0 DUP1 REVERT JUMPDEST POP PUSH1 0x1 SLOAD PUSH1 0x1 PUSH1 0x1 PUSH1 0xA0 SHL SUB AND PUSH2 0x2D0 JUMP JUMPDEST PUSH2 0x26D PUSH2 0x6C3 JUMP JUMPDEST CALLVALUE DUP1 ISZERO PUSH2 0x4D5 JUMPI PUSH0 DUP1 REVERT JUMPDEST POP PUSH0 SLOAD PUSH1 0x1 PUSH1 0x1 PUSH1 0xA0 SHL SUB AND PUSH2 0x2D0 JUMP JUMPDEST CALLVALUE DUP1 ISZERO PUSH2 0x4F1 JUMPI PUSH0 DUP1 REVERT JUMPDEST POP PUSH2 0x2FC PUSH2 0x1207 JUMP JUMPDEST CALLVALUE DUP1 ISZERO PUSH2 0x505 JUMPI PUSH0 DUP1 REVERT JUMPDEST POP PUSH2 0x325 PUSH2 0x12FD JUMP JUMPDEST CALLVALUE DUP1 ISZERO PUSH2 0x519 JUMPI PUSH0 DUP1 REVERT JUMPDEST POP PUSH2 0x29E PUSH2 0x528 CALLDATASIZE PUSH1 0x4 PUSH2 0x1593 JUMP JUMPDEST PUSH2 0x130C JUMP JUMPDEST CALLVALUE DUP1 ISZERO PUSH2 0x538 JUMPI PUSH0 DUP1 REVERT JUMPDEST POP PUSH2 0x325 PUSH2 0x132B JUMP JUMPDEST CALLVALUE DUP1 ISZERO PUSH2 0x54C JUMPI PUSH0 DUP1 REVERT JUMPDEST POP PUSH0 SLOAD PUSH2 0x2D0 SWAP1 PUSH1 0x1 PUSH1 0x1 PUSH1 0xA0 SHL SUB AND DUP2 JUMP JUMPDEST CALLVALUE DUP1 ISZERO PUSH2 0x56A JUMPI PUSH0 DUP1 REVERT JUMPDEST POP PUSH2 0x2D0 PUSH2 0x579 CALLDATASIZE PUSH1 0x4 PUSH2 0x1593 JUMP JUMPDEST PUSH2 0x1338 JUMP JUMPDEST CALLVALUE DUP1 ISZERO PUSH2 0x589 JUMPI PUSH0 DUP1 REVERT JUMPDEST POP PUSH1 0x2 SLOAD PUSH2 0x29E JUMP JUMPDEST CALLVALUE DUP1 ISZERO PUSH2 0x59D JUMPI PUSH0 DUP1 REVERT JUMPDEST POP PUSH2 0x325 PUSH2 0x5AC CALLDATASIZE PUSH1 0x4 PUSH2 0x1593 JUMP JUMPDEST PUSH2 0x1360 JUMP JUMPDEST CALLVALUE DUP1 ISZERO PUSH2 0x5BC JUMPI PUSH0 DUP1 REVERT JUMPDEST POP PUSH1 0x1 SLOAD PUSH2 0x2D0 SWAP1 PUSH1 0x1 PUSH1 0x1 PUSH1 0xA0 SHL SUB AND DUP2 JUMP JUMPDEST CALLVALUE DUP1 ISZERO PUSH2 0x5DB JUMPI PUSH0 DUP1 REVERT JUMPDEST POP PUSH1 0xE SLOAD PUSH2 0x29E JUMP JUMPDEST CALLVALUE DUP1 ISZERO PUSH2 0x5EF JUMPI PUSH0 DUP1 REVERT JUMPDEST POP PUSH2 0x29E PUSH1 0xC SLOAD DUP2 JUMP JUMPDEST CALLVALUE DUP1 ISZERO PUSH2 0x604 JUMPI PUSH0 DUP1 REVERT JUMPDEST POP PUSH2 0x29E PUSH2 0x613 CALLDATASIZE PUSH1 0x4 PUSH2 0x14C7 JUMP JUMPDEST PUSH1 0x9 PUSH1 0x20 MSTORE PUSH0 SWAP1 DUP2 MSTORE PUSH1 0x40 SWAP1 KECCAK256 SLOAD DUP2 JUMP JUMPDEST CALLVALUE DUP1 ISZERO PUSH2 0x62F JUMPI PUSH0 DUP1 REVERT JUMPDEST POP PUSH2 0x26D PUSH2 0x63E CALLDATASIZE PUSH1 0x4 PUSH2 0x15F3 JUMP JUMPDEST PUSH2 0x1387 JUMP JUMPDEST CALLVALUE DUP1 ISZERO PUSH2 0x64E JUMPI PUSH0 DUP1 REVERT JUMPDEST POP PUSH1 0x3 SLOAD TIMESTAMP LT ISZERO PUSH2 0x363 JUMP JUMPDEST CALLVALUE DUP1 ISZERO PUSH2 0x665 JUMPI PUSH0 DUP1 REVERT JUMPDEST POP PUSH2 0x29E PUSH2 0x674 CALLDATASIZE PUSH1 0x4 PUSH2 0x15F3 JUMP JUMPDEST PUSH1 0xA PUSH1 0x20 SWAP1 DUP2 MSTORE PUSH0 SWAP3 DUP4 MSTORE PUSH1 0x40 DUP1 DUP5 KECCAK256 SWAP1 SWAP2 MSTORE SWAP1 DUP3 MSTORE SWAP1 KECCAK256 SLOAD DUP2 JUMP JUMPDEST CALLVALUE DUP1 ISZERO PUSH2 0x69B JUMPI PUSH0 DUP1 REVERT JUMPDEST POP PUSH1 0x4 SLOAD PUSH2 0x2D0 SWAP1 PUSH1 0x1 PUSH1 0x1 PUSH1 0xA0 SHL SUB AND DUP2 JUMP JUMPDEST CALLVALUE DUP1 ISZERO PUSH2 0x6BA JUMPI PUSH0 DUP1 REVERT JUMPDEST POP PUSH2 0x325 PUSH2 0x149D JUMP JUMPDEST PUSH1 0x3 SLOAD TIMESTAMP LT PUSH2 0x70A JUMPI PUSH1 0x40 MLOAD PUSH3 0x461BCD PUSH1 0xE5 SHL DUP2 MSTORE PUSH1 0x20 PUSH1 0x4 DUP3 ADD MSTORE PUSH1 0xE PUSH1 0x24 DUP3 ADD MSTORE PUSH14 0x10D85B5C185A59DB88195B991959 PUSH1 0x92 SHL PUSH1 0x44 DUP3 ADD MSTORE PUSH1 0x64 ADD JUMPDEST PUSH1 0x40 MLOAD DUP1 SWAP2 SUB SWAP1 REVERT JUMPDEST PUSH0 CALLVALUE GT PUSH2 0x759 JUMPI PUSH1 0x40 MLOAD PUSH3 0x461BCD PUSH1 0xE5 SHL DUP2 MSTORE PUSH1 0x20 PUSH1 0x4 DUP3 ADD MSTORE PUSH1 0xB PUSH1 0x24 DUP3 ADD MSTORE PUSH32 0x4E6F204554482073656E74000000000000000000000000000000000000000000 PUSH1 0x44 DUP3 ADD MSTORE PUSH1 0x64 ADD PUSH2 0x701 JUMP JUMPDEST PUSH0 PUSH1 0x64 PUSH2 0x767 CALLVALUE PUSH1 0x2 PUSH2 0x1638 JUMP JUMPDEST PUSH2 0x771 SWAP2 SWAP1 PUSH2 0x1655 JUMP JUMPDEST SWAP1 POP DUP1 PUSH1 0xC PUSH0 DUP3 DUP3 SLOAD PUSH2 0x784 SWAP2 SWAP1 PUSH2 0x1674 JUMP JUMPDEST SWAP1 SWAP2 SSTORE POP PUSH2 0x794 SWAP1 POP DUP2 CALLVALUE PUSH2 0x1687 JUMP JUMPDEST CALLER PUSH0 SWAP1 DUP2 MSTORE PUSH1 0x9 PUSH1 0x20 MSTORE PUSH1 0x40 DUP2 KECCAK256 DUP1 SLOAD SWAP1 SWAP2 SWAP1 PUSH2 0x7B2 SWAP1 DUP5 SWAP1 PUSH2 0x1674 JUMP JUMPDEST SWAP1 SWAP2 SSTORE POP POP POP JUMP JUMPDEST PUSH1 0x4 DUP1 SLOAD PUSH1 0x40 MLOAD PUSH4 0x70A08231 PUSH1 0xE0 SHL DUP2 MSTORE ADDRESS SWAP3 DUP2 ADD SWAP3 SWAP1 SWAP3 MSTORE PUSH0 SWAP2 DUP3 SWAP2 SELFBALANCE SWAP2 PUSH1 0x1 PUSH1 0x1 PUSH1 0xA0 SHL SUB SWAP1 SWAP2 AND SWAP1 PUSH4 0x70A08231 SWAP1 PUSH1 0x24 ADD PUSH1 0x20 PUSH1 0x40 MLOAD DUP1 DUP4 SUB DUP2 DUP7 GAS STATICCALL ISZERO DUP1 ISZERO PUSH2 0x809 JUMPI RETURNDATASIZE PUSH0 DUP1 RETURNDATACOPY RETURNDATASIZE PUSH0 REVERT JUMPDEST POP POP POP POP PUSH1 0x40 MLOAD RETURNDATASIZE PUSH1 0x1F NOT PUSH1 0x1F DUP3 ADD AND DUP3 ADD DUP1 PUSH1 0x40 MSTORE POP DUP2 ADD SWAP1 PUSH2 0x82D SWAP2 SWAP1 PUSH2 0x169A JUMP JUMPDEST SWAP2 POP SWAP2 POP SWAP1 SWAP2 JUMP JUMPDEST PUSH1 0x60 PUSH1 0x7 DUP1 SLOAD PUSH2 0x844 SWAP1 PUSH2 0x16B1 JUMP JUMPDEST DUP1 PUSH1 0x1F ADD PUSH1 0x20 DUP1 SWAP2 DIV MUL PUSH1 0x20 ADD PUSH1 0x40 MLOAD SWAP1 DUP2 ADD PUSH1 0x40 MSTORE DUP1 SWAP3 SWAP2 SWAP1 DUP2 DUP2 MSTORE PUSH1 0x20 ADD DUP3 DUP1 SLOAD PUSH2 0x870 SWAP1 PUSH2 0x16B1 JUMP JUMPDEST DUP1 ISZERO PUSH2 0x8BB JUMPI DUP1 PUSH1 0x1F LT PUSH2 0x892 JUMPI PUSH2 0x100 DUP1 DUP4 SLOAD DIV MUL DUP4 MSTORE SWAP2 PUSH1 0x20 ADD SWAP2 PUSH2 0x8BB JUMP JUMPDEST DUP3 ADD SWAP2 SWAP1 PUSH0 MSTORE PUSH1 0x20 PUSH0 KECCAK256 SWAP1 JUMPDEST DUP2 SLOAD DUP2 MSTORE SWAP1 PUSH1 0x1 ADD SWAP1 PUSH1 0x20 ADD DUP1 DUP4 GT PUSH2 0x89E JUMPI DUP3 SWAP1 SUB PUSH1 0x1F AND DUP3 ADD SWAP2 JUMPDEST POP POP POP POP POP SWAP1 POP SWAP1 JUMP JUMPDEST PUSH0 SLOAD PUSH1 0x1 PUSH1 0x1 PUSH1 0xA0 SHL SUB AND CALLER EQ PUSH2 0x91E JUMPI PUSH1 0x40 MLOAD PUSH3 0x461BCD PUSH1 0xE5 SHL DUP2 MSTORE PUSH1 0x20 PUSH1 0x4 DUP3 ADD MSTORE PUSH1 0x12 PUSH1 0x24 DUP3 ADD MSTORE PUSH32 0x4E6F742063616D706169676E206F776E65720000000000000000000000000000 PUSH1 0x44 DUP3 ADD MSTORE PUSH1 0x64 ADD PUSH2 0x701 JUMP JUMPDEST PUSH1 0xD DUP1 SLOAD PUSH1 0x1 DUP2 DUP2 ADD SWAP1 SWAP3 SSTORE PUSH32 0xD7B6990105719101DABEB77144F2A3385C8033ACD3AF97E9423A695E81AD1EB5 ADD DUP1 SLOAD PUSH32 0xFFFFFFFFFFFFFFFFFFFFFFFF0000000000000000000000000000000000000000 AND CALLER OR SWAP1 SSTORE PUSH1 0xE DUP1 SLOAD SWAP2 DUP3 ADD DUP2 SSTORE PUSH0 MSTORE PUSH32 0xBB7B4A454DC3493923482F07822329ED19E8244EFF582CC204F8554C3620C3FD ADD PUSH2 0x9AC DUP3 DUP5 DUP4 PUSH2 0x1748 JUMP JUMPDEST POP PUSH1 0xF DUP1 SLOAD PUSH1 0x1 DUP2 ADD DUP3 SSTORE PUSH0 SWAP2 SWAP1 SWAP2 MSTORE TIMESTAMP PUSH32 0x8D1108E10BCB7C27DDDFC02ED9D693A074039D026CF4EA4240B40F7D581AC802 SWAP1 SWAP2 ADD DUP2 SWAP1 SSTORE PUSH1 0x40 MLOAD PUSH32 0x795D961EDBC9E83A9C6D46E7E54AE3BE27574CFBC69A1ECA98133687155C24B0 SWAP2 PUSH2 0xA16 SWAP2 DUP6 SWAP2 DUP6 SWAP2 PUSH2 0x1802 JUMP JUMPDEST PUSH1 0x40 MLOAD DUP1 SWAP2 SUB SWAP1 LOG1 POP POP JUMP JUMPDEST PUSH1 0xE SLOAD PUSH1 0x60 SWAP1 PUSH0 SWAP1 DUP4 LT PUSH2 0xA78 JUMPI PUSH1 0x40 MLOAD PUSH3 0x461BCD PUSH1 0xE5 SHL DUP2 MSTORE PUSH1 0x20 PUSH1 0x4 DUP3 ADD MSTORE PUSH1 0xD PUSH1 0x24 DUP3 ADD MSTORE PUSH32 0x496E76616C696420696E64657800000000000000000000000000000000000000 PUSH1 0x44 DUP3 ADD MSTORE PUSH1 0x64 ADD PUSH2 0x701 JUMP JUMPDEST PUSH1 0xE DUP4 DUP2 SLOAD DUP2 LT PUSH2 0xA8B JUMPI PUSH2 0xA8B PUSH2 0x1839 JUMP JUMPDEST SWAP1 PUSH0 MSTORE PUSH1 0x20 PUSH0 KECCAK256 ADD PUSH1 0xF DUP5 DUP2 SLOAD DUP2 LT PUSH2 0xAA6 JUMPI PUSH2 0xAA6 PUSH2 0x1839 JUMP JUMPDEST SWAP1 PUSH0 MSTORE PUSH1 0x20 PUSH0 KECCAK256 ADD SLOAD DUP2 DUP1 SLOAD PUSH2 0xABB SWAP1 PUSH2 0x16B1 JUMP JUMPDEST DUP1 PUSH1 0x1F ADD PUSH1 0x20 DUP1 SWAP2 DIV MUL PUSH1 0x20 ADD PUSH1 0x40 MLOAD SWAP1 DUP2 ADD PUSH1 0x40 MSTORE DUP1 SWAP3 SWAP2 SWAP1 DUP2 DUP2 MSTORE PUSH1 0x20 ADD DUP3 DUP1 SLOAD PUSH2 0xAE7 SWAP1 PUSH2 0x16B1 JUMP JUMPDEST DUP1 ISZERO PUSH2 0xB32 JUMPI DUP1 PUSH1 0x1F LT PUSH2 0xB09 JUMPI PUSH2 0x100 DUP1 DUP4 SLOAD DIV MUL DUP4 MSTORE SWAP2 PUSH1 0x20 ADD SWAP2 PUSH2 0xB32 JUMP JUMPDEST DUP3 ADD SWAP2 SWAP1 PUSH0 MSTORE PUSH1 0x20 PUSH0 KECCAK256 SWAP1 JUMPDEST DUP2 SLOAD DUP2 MSTORE SWAP1 PUSH1 0x1 ADD SWAP1 PUSH1 0x20 ADD DUP1 DUP4 GT PUSH2 0xB15 JUMPI DUP3 SWAP1 SUB PUSH1 0x1F AND DUP3 ADD SWAP2 JUMPDEST POP POP POP POP POP SWAP2 POP SWAP2 POP SWAP2 POP SWAP2 POP SWAP2 JUMP JUMPDEST PUSH0 SLOAD PUSH1 0x1 PUSH1 0x1 PUSH1 0xA0 SHL SUB AND CALLER EQ PUSH2 0xB9B JUMPI PUSH1 0x40 MLOAD PUSH3 0x461BCD PUSH1 0xE5 SHL DUP2 MSTORE PUSH1 0x20 PUSH1 0x4 DUP3 ADD MSTORE PUSH1 0x12 PUSH1 0x24 DUP3 ADD MSTORE PUSH32 0x4E6F742063616D706169676E206F776E65720000000000000000000000000000 PUSH1 0x44 DUP3 ADD MSTORE PUSH1 0x64 ADD PUSH2 0x701 JUMP JUMPDEST PUSH1 0x3 SLOAD TIMESTAMP LT ISZERO PUSH2 0xBED JUMPI PUSH1 0x40 MLOAD PUSH3 0x461BCD PUSH1 0xE5 SHL DUP2 MSTORE PUSH1 0x20 PUSH1 0x4 DUP3 ADD MSTORE PUSH1 0x12 PUSH1 0x24 DUP3 ADD MSTORE PUSH32 0x43616D706169676E206E6F7420656E6465640000000000000000000000000000 PUSH1 0x44 DUP3 ADD MSTORE PUSH1 0x64 ADD PUSH2 0x701 JUMP JUMPDEST PUSH0 PUSH1 0xC SLOAD SELFBALANCE PUSH2 0xBFC SWAP2 SWAP1 PUSH2 0x1687 JUMP JUMPDEST PUSH1 0x4 DUP1 SLOAD PUSH1 0x1 PUSH1 0x1 PUSH1 0xA0 SHL SUB AND PUSH0 DUP2 DUP2 MSTORE PUSH1 0xB PUSH1 0x20 MSTORE PUSH1 0x40 DUP1 DUP3 KECCAK256 SLOAD SWAP1 MLOAD PUSH4 0x70A08231 PUSH1 0xE0 SHL DUP2 MSTORE ADDRESS SWAP5 DUP2 ADD SWAP5 SWAP1 SWAP5 MSTORE SWAP4 SWAP5 POP SWAP3 SWAP2 PUSH4 0x70A08231 SWAP1 PUSH1 0x24 ADD PUSH1 0x20 PUSH1 0x40 MLOAD DUP1 DUP4 SUB DUP2 DUP7 GAS STATICCALL ISZERO DUP1 ISZERO PUSH2 0xC55 JUMPI RETURNDATASIZE PUSH0 DUP1 RETURNDATACOPY RETURNDATASIZE PUSH0 REVERT JUMPDEST POP POP POP POP PUSH1 0x40 MLOAD RETURNDATASIZE PUSH1 0x1F NOT PUSH1 0x1F DUP3 ADD AND DUP3 ADD DUP1 PUSH1 0x40 MSTORE POP DUP2 ADD SWAP1 PUSH2 0xC79 SWAP2 SWAP1 PUSH2 0x169A JUMP JUMPDEST PUSH2 0xC83 SWAP2 SWAP1 PUSH2 0x1687 JUMP JUMPDEST SWAP1 POP PUSH1 0x1 DUP1 DUP4 ISZERO PUSH2 0xCE3 JUMPI PUSH0 DUP1 SLOAD PUSH1 0x40 MLOAD PUSH1 0x1 PUSH1 0x1 PUSH1 0xA0 SHL SUB SWAP1 SWAP2 AND SWAP2 DUP7 SWAP2 SWAP1 DUP2 DUP2 DUP2 DUP6 DUP8 GAS CALL SWAP3 POP POP POP RETURNDATASIZE DUP1 PUSH0 DUP2 EQ PUSH2 0xCD8 JUMPI PUSH1 0x40 MLOAD SWAP2 POP PUSH1 0x1F NOT PUSH1 0x3F RETURNDATASIZE ADD AND DUP3 ADD PUSH1 0x40 MSTORE RETURNDATASIZE DUP3 MSTORE RETURNDATASIZE PUSH0 PUSH1 0x20 DUP5 ADD RETURNDATACOPY PUSH2 0xCDD JUMP JUMPDEST PUSH1 0x60 SWAP2 POP JUMPDEST POP SWAP1 SWAP3 POP POP JUMPDEST DUP3 ISZERO PUSH2 0xD63 JUMPI PUSH1 0x4 DUP1 SLOAD PUSH0 SLOAD PUSH1 0x40 MLOAD PUSH4 0xA9059CBB PUSH1 0xE0 SHL DUP2 MSTORE PUSH1 0x1 PUSH1 0x1 PUSH1 0xA0 SHL SUB SWAP2 DUP3 AND SWAP4 DUP2 ADD SWAP4 SWAP1 SWAP4 MSTORE PUSH1 0x24 DUP4 ADD DUP7 SWAP1 MSTORE AND SWAP1 PUSH4 0xA9059CBB SWAP1 PUSH1 0x44 ADD PUSH1 0x20 PUSH1 0x40 MLOAD DUP1 DUP4 SUB DUP2 PUSH0 DUP8 GAS CALL ISZERO DUP1 ISZERO PUSH2 0xD3C JUMPI RETURNDATASIZE PUSH0 DUP1 RETURNDATACOPY RETURNDATASIZE PUSH0 REVERT JUMPDEST POP POP POP POP PUSH1 0x40 MLOAD RETURNDATASIZE PUSH1 0x1F NOT PUSH1 0x1F DUP3 ADD AND DUP3 ADD DUP1 PUSH1 0x40 MSTORE POP DUP2 ADD SWAP1 PUSH2 0xD60 SWAP2 SWAP1 PUSH2 0x184D JUMP JUMPDEST SWAP1 POP JUMPDEST PUSH1 0x40 DUP1 MLOAD DUP4 ISZERO ISZERO DUP2 MSTORE DUP3 ISZERO ISZERO PUSH1 0x20 DUP3 ADD MSTORE PUSH32 0xEDAF6307DD03CF2213C8CF4C3154D20DBF80B44BB80B206B6381109881DB78E7 SWAP2 ADD PUSH1 0x40 MLOAD DUP1 SWAP2 SUB SWAP1 LOG1 DUP2 DUP1 PUSH2 0xDA8 JUMPI POP DUP1 JUMPDEST PUSH2 0xDF4 JUMPI PUSH1 0x40 MLOAD PUSH3 0x461BCD PUSH1 0xE5 SHL DUP2 MSTORE PUSH1 0x20 PUSH1 0x4 DUP3 ADD MSTORE PUSH1 0x11 PUSH1 0x24 DUP3 ADD MSTORE PUSH32 0x4E6F7468696E672077697468647261776E000000000000000000000000000000 PUSH1 0x44 DUP3 ADD MSTORE PUSH1 0x64 ADD PUSH2 0x701 JUMP JUMPDEST POP POP POP POP JUMP JUMPDEST PUSH1 0x6 DUP1 SLOAD PUSH2 0xE07 SWAP1 PUSH2 0x16B1 JUMP JUMPDEST DUP1 PUSH1 0x1F ADD PUSH1 0x20 DUP1 SWAP2 DIV MUL PUSH1 0x20 ADD PUSH1 0x40 MLOAD SWAP1 DUP2 ADD PUSH1 0x40 MSTORE DUP1 SWAP3 SWAP2 SWAP1 DUP2 DUP2 MSTORE PUSH1 0x20 ADD DUP3 DUP1 SLOAD PUSH2 0xE33 SWAP1 PUSH2 0x16B1 JUMP JUMPDEST DUP1 ISZERO PUSH2 0xE7E JUMPI DUP1 PUSH1 0x1F LT PUSH2 0xE55 JUMPI PUSH2 0x100 DUP1 DUP4 SLOAD DIV MUL DUP4 MSTORE SWAP2 PUSH1 0x20 ADD SWAP2 PUSH2 0xE7E JUMP JUMPDEST DUP3 ADD SWAP2 SWAP1 PUSH0 MSTORE PUSH1 0x20 PUSH0 KECCAK256 SWAP1 JUMPDEST DUP2 SLOAD DUP2 MSTORE SWAP1 PUSH1 0x1 ADD SWAP1 PUSH1 0x20 ADD DUP1 DUP4 GT PUSH2 0xE61 JUMPI DUP3 SWAP1 SUB PUSH1 0x1F AND DUP3 ADD SWAP2 JUMPDEST POP POP POP POP POP DUP2 JUMP JUMPDEST PUSH1 0x1 SLOAD PUSH1 0x1 PUSH1 0x1 PUSH1 0xA0 SHL SUB AND CALLER EQ PUSH2 0xECE JUMPI PUSH1 0x40 MLOAD PUSH3 0x461BCD PUSH1 0xE5 SHL DUP2 MSTORE PUSH1 0x20 PUSH1 0x4 DUP3 ADD MSTORE PUSH1 0xB PUSH1 0x24 DUP3 ADD MSTORE PUSH11 0x4E6F7420666163746F7279 PUSH1 0xA8 SHL PUSH1 0x44 DUP3 ADD MSTORE PUSH1 0x64 ADD PUSH2 0x701 JUMP JUMPDEST PUSH1 0xC DUP1 SLOAD PUSH0 SWAP2 DUP3 SWAP1 SSTORE PUSH1 0x40 MLOAD SWAP1 SWAP2 SWAP1 PUSH1 0x1 PUSH1 0x1 PUSH1 0xA0 SHL SUB DUP5 AND SWAP1 DUP4 SWAP1 DUP4 DUP2 DUP2 DUP2 DUP6 DUP8 GAS CALL SWAP3 POP POP POP RETURNDATASIZE DUP1 PUSH0 DUP2 EQ PUSH2 0xF20 JUMPI PUSH1 0x40 MLOAD SWAP2 POP PUSH1 0x1F NOT PUSH1 0x3F RETURNDATASIZE ADD AND DUP3 ADD PUSH1 0x40 MSTORE RETURNDATASIZE DUP3 MSTORE RETURNDATASIZE PUSH0 PUSH1 0x20 DUP5 ADD RETURNDATACOPY PUSH2 0xF25 JUMP JUMPDEST PUSH1 0x60 SWAP2 POP JUMPDEST POP POP SWAP1 POP DUP1 PUSH2 0xF76 JUMPI PUSH1 0x40 MLOAD PUSH3 0x461BCD PUSH1 0xE5 SHL DUP2 MSTORE PUSH1 0x20 PUSH1 0x4 DUP3 ADD MSTORE PUSH1 0x17 PUSH1 0x24 DUP3 ADD MSTORE PUSH32 0x45544820666565207472616E73666572206661696C6564000000000000000000 PUSH1 0x44 DUP3 ADD MSTORE PUSH1 0x64 ADD PUSH2 0x701 JUMP JUMPDEST POP POP POP JUMP JUMPDEST PUSH1 0x3 SLOAD TIMESTAMP LT PUSH2 0xFBD JUMPI PUSH1 0x40 MLOAD PUSH3 0x461BCD PUSH1 0xE5 SHL DUP2 MSTORE PUSH1 0x20 PUSH1 0x4 DUP3 ADD MSTORE PUSH1 0xE PUSH1 0x24 DUP3 ADD MSTORE PUSH14 0x10D85B5C185A59DB88195B991959 PUSH1 0x92 SHL PUSH1 0x44 DUP3 ADD MSTORE PUSH1 0x64 ADD PUSH2 0x701 JUMP JUMPDEST PUSH0 DUP2 GT PUSH2 0x100C JUMPI PUSH1 0x40 MLOAD PUSH3 0x461BCD PUSH1 0xE5 SHL DUP2 MSTORE PUSH1 0x20 PUSH1 0x4 DUP3 ADD MSTORE PUSH1 0xE PUSH1 0x24 DUP3 ADD MSTORE PUSH32 0x4E6F20746F6B656E732073656E74000000000000000000000000000000000000 PUSH1 0x44 DUP3 ADD MSTORE PUSH1 0x64 ADD PUSH2 0x701 JUMP JUMPDEST PUSH1 0x4 SLOAD PUSH0 SWAP1 PUSH1 0x1 PUSH1 0x1 PUSH1 0xA0 SHL SUB DUP5 DUP2 AND SWAP2 AND EQ PUSH2 0x103F JUMPI PUSH1 0x64 PUSH2 0x1030 DUP4 PUSH1 0x2 PUSH2 0x1638 JUMP JUMPDEST PUSH2 0x103A SWAP2 SWAP1 PUSH2 0x1655 JUMP JUMPDEST PUSH2 0x1057 JUMP JUMPDEST PUSH2 0x3E8 PUSH2 0x104D DUP4 PUSH1 0x5 PUSH2 0x1638 JUMP JUMPDEST PUSH2 0x1057 SWAP2 SWAP1 PUSH2 0x1655 JUMP JUMPDEST SWAP1 POP PUSH0 PUSH2 0x1064 DUP3 DUP5 PUSH2 0x1687 JUMP JUMPDEST PUSH1 0x40 MLOAD PUSH4 0x23B872DD PUSH1 0xE0 SHL DUP2 MSTORE CALLER PUSH1 0x4 DUP3 ADD MSTORE ADDRESS PUSH1 0x24 DUP3 ADD MSTORE PUSH1 0x44 DUP2 ADD DUP6 SWAP1 MSTORE SWAP1 SWAP2 POP PUSH1 0x1 PUSH1 0x1 PUSH1 0xA0 SHL SUB DUP6 AND SWAP1 PUSH4 0x23B872DD SWAP1 PUSH1 0x64 ADD PUSH1 0x20 PUSH1 0x40 MLOAD DUP1 DUP4 SUB DUP2 PUSH0 DUP8 GAS CALL ISZERO DUP1 ISZERO PUSH2 0x10B7 JUMPI RETURNDATASIZE PUSH0 DUP1 RETURNDATACOPY RETURNDATASIZE PUSH0 REVERT JUMPDEST POP POP POP POP PUSH1 0x40 MLOAD RETURNDATASIZE PUSH1 0x1F NOT PUSH1 0x1F DUP3 ADD AND DUP3 ADD DUP1 PUSH1 0x40 MSTORE POP DUP2 ADD SWAP1 PUSH2 0x10DB SWAP2 SWAP1 PUSH2 0x184D JUMP JUMPDEST PUSH2 0x1127 JUMPI PUSH1 0x40 MLOAD PUSH3 0x461BCD PUSH1 0xE5 SHL DUP2 MSTORE PUSH1 0x20 PUSH1 0x4 DUP3 ADD MSTORE PUSH1 0xF PUSH1 0x24 DUP3 ADD MSTORE PUSH32 0x5472616E73666572206661696C65640000000000000000000000000000000000 PUSH1 0x44 DUP3 ADD MSTORE PUSH1 0x64 ADD PUSH2 0x701 JUMP JUMPDEST PUSH1 0x1 PUSH1 0x1 PUSH1 0xA0 SHL SUB DUP5 AND PUSH0 SWAP1 DUP2 MSTORE PUSH1 0xB PUSH1 0x20 MSTORE PUSH1 0x40 DUP2 KECCAK256 DUP1 SLOAD DUP5 SWAP3 SWAP1 PUSH2 0x114E SWAP1 DUP5 SWAP1 PUSH2 0x1674 JUMP JUMPDEST SWAP1 SWAP2 SSTORE POP POP CALLER PUSH0 SWAP1 DUP2 MSTORE PUSH1 0xA PUSH1 0x20 SWAP1 DUP2 MSTORE PUSH1 0x40 DUP1 DUP4 KECCAK256 PUSH1 0x1 PUSH1 0x1 PUSH1 0xA0 SHL SUB DUP9 AND DUP5 MSTORE SWAP1 SWAP2 MSTORE DUP2 KECCAK256 DUP1 SLOAD DUP4 SWAP3 SWAP1 PUSH2 0x1185 SWAP1 DUP5 SWAP1 PUSH2 0x1674 JUMP JUMPDEST SWAP1 SWAP2 SSTORE POP POP POP POP POP POP JUMP JUMPDEST PUSH1 0x7 DUP1 SLOAD PUSH2 0xE07 SWAP1 PUSH2 0x16B1 JUMP JUMPDEST PUSH1 0x1 SLOAD PUSH1 0x1 PUSH1 0x1 PUSH1 0xA0 SHL SUB AND CALLER EQ PUSH2 0x11E5 JUMPI PUSH1 0x40 MLOAD PUSH3 0x461BCD PUSH1 0xE5 SHL DUP2 MSTORE PUSH1 0x20 PUSH1 0x4 DUP3 ADD MSTORE PUSH1 0xB PUSH1 0x24 DUP3 ADD MSTORE PUSH11 0x4E6F7420666163746F7279 PUSH1 0xA8 SHL PUSH1 0x44 DUP3 ADD MSTORE PUSH1 0x64 ADD PUSH2 0x701 JUMP JUMPDEST PUSH2 0x11EE DUP2 PUSH2 0xE86 JUMP JUMPDEST PUSH1 0x4 SLOAD PUSH2 0x1204 SWAP1 PUSH1 0x1 PUSH1 0x1 PUSH1 0xA0 SHL SUB AND DUP3 PUSH2 0x1387 JUMP JUMPDEST POP JUMP JUMPDEST PUSH0 DUP1 PUSH1 0x3 SLOAD TIMESTAMP LT ISZERO PUSH2 0x121B JUMPI POP PUSH0 SWAP2 DUP3 SWAP2 POP JUMP JUMPDEST PUSH1 0x4 DUP1 SLOAD PUSH1 0x40 MLOAD PUSH4 0x70A08231 PUSH1 0xE0 SHL DUP2 MSTORE ADDRESS SWAP3 DUP2 ADD SWAP3 SWAP1 SWAP3 MSTORE SELFBALANCE SWAP2 PUSH0 SWAP2 PUSH1 0x1 PUSH1 0x1 PUSH1 0xA0 SHL SUB AND SWAP1 PUSH4 0x70A08231 SWAP1 PUSH1 0x24 ADD PUSH1 0x20 PUSH1 0x40 MLOAD DUP1 DUP4 SUB DUP2 DUP7 GAS STATICCALL ISZERO DUP1 ISZERO PUSH2 0x1266 JUMPI RETURNDATASIZE PUSH0 DUP1 RETURNDATACOPY RETURNDATASIZE PUSH0 REVERT JUMPDEST POP POP POP POP PUSH1 0x40 MLOAD RETURNDATASIZE PUSH1 0x1F NOT PUSH1 0x1F DUP3 ADD AND DUP3 ADD DUP1 PUSH1 0x40 MSTORE POP DUP2 ADD SWAP1 PUSH2 0x128A SWAP2 SWAP1 PUSH2 0x169A JUMP JUMPDEST SWAP1 POP PUSH1 0xC SLOAD DUP3 GT PUSH2 0x129B JUMPI PUSH0 PUSH2 0x12A8 JUMP JUMPDEST PUSH1 0xC SLOAD PUSH2 0x12A8 SWAP1 DUP4 PUSH2 0x1687 JUMP JUMPDEST PUSH1 0x4 SLOAD PUSH1 0x1 PUSH1 0x1 PUSH1 0xA0 SHL SUB AND PUSH0 SWAP1 DUP2 MSTORE PUSH1 0xB PUSH1 0x20 MSTORE PUSH1 0x40 SWAP1 KECCAK256 SLOAD SWAP1 SWAP5 POP DUP2 GT PUSH2 0x12D1 JUMPI PUSH0 PUSH2 0x12F5 JUMP JUMPDEST PUSH1 0x4 SLOAD PUSH1 0x1 PUSH1 0x1 PUSH1 0xA0 SHL SUB AND PUSH0 SWAP1 DUP2 MSTORE PUSH1 0xB PUSH1 0x20 MSTORE PUSH1 0x40 SWAP1 KECCAK256 SLOAD PUSH2 0x12F5 SWAP1 DUP3 PUSH2 0x1687 JUMP JUMPDEST SWAP3 POP POP POP SWAP1 SWAP2 JUMP JUMPDEST PUSH1 0x60 PUSH1 0x8 DUP1 SLOAD PUSH2 0x844 SWAP1 PUSH2 0x16B1 JUMP JUMPDEST PUSH1 0xF DUP2 DUP2 SLOAD DUP2 LT PUSH2 0x131B JUMPI PUSH0 DUP1 REVERT JUMPDEST PUSH0 SWAP2 DUP3 MSTORE PUSH1 0x20 SWAP1 SWAP2 KECCAK256 ADD SLOAD SWAP1 POP DUP2 JUMP JUMPDEST PUSH1 0x8 DUP1 SLOAD PUSH2 0xE07 SWAP1 PUSH2 0x16B1 JUMP JUMPDEST PUSH1 0xD DUP2 DUP2 SLOAD DUP2 LT PUSH2 0x1347 JUMPI PUSH0 DUP1 REVERT JUMPDEST PUSH0 SWAP2 DUP3 MSTORE PUSH1 0x20 SWAP1 SWAP2 KECCAK256 ADD SLOAD PUSH1 0x1 PUSH1 0x1 PUSH1 0xA0 SHL SUB AND SWAP1 POP DUP2 JUMP JUMPDEST PUSH1 0xE DUP2 DUP2 SLOAD DUP2 LT PUSH2 0x136F JUMPI PUSH0 DUP1 REVERT JUMPDEST SWAP1 PUSH0 MSTORE PUSH1 0x20 PUSH0 KECCAK256 ADD PUSH0 SWAP2 POP SWAP1 POP DUP1 SLOAD PUSH2 0xE07 SWAP1 PUSH2 0x16B1 JUMP JUMPDEST PUSH1 0x1 SLOAD PUSH1 0x1 PUSH1 0x1 PUSH1 0xA0 SHL SUB AND CALLER EQ PUSH2 0x13CF JUMPI PUSH1 0x40 MLOAD PUSH3 0x461BCD PUSH1 0xE5 SHL DUP2 MSTORE PUSH1 0x20 PUSH1 0x4 DUP3 ADD MSTORE PUSH1 0xB PUSH1 0x24 DUP3 ADD MSTORE PUSH11 0x4E6F7420666163746F7279 PUSH1 0xA8 SHL PUSH1 0x44 DUP3 ADD MSTORE PUSH1 0x64 ADD PUSH2 0x701 JUMP JUMPDEST PUSH1 0x1 PUSH1 0x1 PUSH1 0xA0 SHL SUB DUP3 DUP2 AND PUSH0 DUP2 DUP2 MSTORE PUSH1 0xB PUSH1 0x20 MSTORE PUSH1 0x40 DUP1 DUP3 KECCAK256 DUP1 SLOAD SWAP3 SWAP1 SSTORE MLOAD PUSH4 0xA9059CBB PUSH1 0xE0 SHL DUP2 MSTORE SWAP3 DUP5 AND PUSH1 0x4 DUP5 ADD MSTORE PUSH1 0x24 DUP4 ADD DUP2 SWAP1 MSTORE SWAP2 PUSH4 0xA9059CBB SWAP1 PUSH1 0x44 ADD PUSH1 0x20 PUSH1 0x40 MLOAD DUP1 DUP4 SUB DUP2 PUSH0 DUP8 GAS CALL ISZERO DUP1 ISZERO PUSH2 0x142D JUMPI RETURNDATASIZE PUSH0 DUP1 RETURNDATACOPY RETURNDATASIZE PUSH0 REVERT JUMPDEST POP POP POP POP PUSH1 0x40 MLOAD RETURNDATASIZE PUSH1 0x1F NOT PUSH1 0x1F DUP3 ADD AND DUP3 ADD DUP1 PUSH1 0x40 MSTORE POP DUP2 ADD SWAP1 PUSH2 0x1451 SWAP2 SWAP1 PUSH2 0x184D JUMP JUMPDEST PUSH2 0xF76 JUMPI PUSH1 0x40 MLOAD PUSH3 0x461BCD PUSH1 0xE5 SHL DUP2 MSTORE PUSH1 0x20 PUSH1 0x4 DUP3 ADD MSTORE PUSH1 0x19 PUSH1 0x24 DUP3 ADD MSTORE PUSH32 0x546F6B656E20666565207472616E73666572206661696C656400000000000000 PUSH1 0x44 DUP3 ADD MSTORE PUSH1 0x64 ADD PUSH2 0x701 JUMP JUMPDEST PUSH1 0x60 PUSH1 0x6 DUP1 SLOAD PUSH2 0x844 SWAP1 PUSH2 0x16B1 JUMP JUMPDEST DUP1 CALLDATALOAD PUSH1 0x1 PUSH1 0x1 PUSH1 0xA0 SHL SUB DUP2 AND DUP2 EQ PUSH2 0x14C2 JUMPI PUSH0 DUP1 REVERT JUMPDEST SWAP2 SWAP1 POP JUMP JUMPDEST PUSH0 PUSH1 0x20 DUP3 DUP5 SUB SLT ISZERO PUSH2 0x14D7 JUMPI PUSH0 DUP1 REVERT JUMPDEST PUSH2 0x14E0 DUP3 PUSH2 0x14AC JUMP JUMPDEST SWAP4 SWAP3 POP POP POP JUMP JUMPDEST PUSH0 DUP2 MLOAD DUP1 DUP5 MSTORE DUP1 PUSH1 0x20 DUP5 ADD PUSH1 0x20 DUP7 ADD MCOPY PUSH0 PUSH1 0x20 DUP3 DUP7 ADD ADD MSTORE PUSH1 0x20 PUSH1 0x1F NOT PUSH1 0x1F DUP4 ADD AND DUP6 ADD ADD SWAP2 POP POP SWAP3 SWAP2 POP POP JUMP JUMPDEST PUSH1 0x20 DUP2 MSTORE PUSH0 PUSH2 0x14E0 PUSH1 0x20 DUP4 ADD DUP5 PUSH2 0x14E7 JUMP JUMPDEST PUSH0 DUP1 PUSH1 0x20 DUP4 DUP6 SUB SLT ISZERO PUSH2 0x1538 JUMPI PUSH0 DUP1 REVERT JUMPDEST DUP3 CALLDATALOAD PUSH8 0xFFFFFFFFFFFFFFFF DUP1 DUP3 GT ISZERO PUSH2 0x154F JUMPI PUSH0 DUP1 REVERT JUMPDEST DUP2 DUP6 ADD SWAP2 POP DUP6 PUSH1 0x1F DUP4 ADD SLT PUSH2 0x1562 JUMPI PUSH0 DUP1 REVERT JUMPDEST DUP2 CALLDATALOAD DUP2 DUP2 GT ISZERO PUSH2 0x1570 JUMPI PUSH0 DUP1 REVERT JUMPDEST DUP7 PUSH1 0x20 DUP3 DUP6 ADD ADD GT ISZERO PUSH2 0x1581 JUMPI PUSH0 DUP1 REVERT JUMPDEST PUSH1 0x20 SWAP3 SWAP1 SWAP3 ADD SWAP7 SWAP2 SWAP6 POP SWAP1 SWAP4 POP POP POP POP JUMP JUMPDEST PUSH0 PUSH1 0x20 DUP3 DUP5 SUB SLT ISZERO PUSH2 0x15A3 JUMPI PUSH0 DUP1 REVERT JUMPDEST POP CALLDATALOAD SWAP2 SWAP1 POP JUMP JUMPDEST PUSH1 0x40 DUP2 MSTORE PUSH0 PUSH2 0x15BC PUSH1 0x40 DUP4 ADD DUP6 PUSH2 0x14E7 JUMP JUMPDEST SWAP1 POP DUP3 PUSH1 0x20 DUP4 ADD MSTORE SWAP4 SWAP3 POP POP POP JUMP JUMPDEST PUSH0 DUP1 PUSH1 0x40 DUP4 DUP6 SUB SLT ISZERO PUSH2 0x15DC JUMPI PUSH0 DUP1 REVERT JUMPDEST PUSH2 0x15E5 DUP4 PUSH2 0x14AC JUMP JUMPDEST SWAP5 PUSH1 0x20 SWAP4 SWAP1 SWAP4 ADD CALLDATALOAD SWAP4 POP POP POP JUMP JUMPDEST PUSH0 DUP1 PUSH1 0x40 DUP4 DUP6 SUB SLT ISZERO PUSH2 0x1604 JUMPI PUSH0 DUP1 REVERT JUMPDEST PUSH2 0x160D DUP4 PUSH2 0x14AC JUMP JUMPDEST SWAP2 POP PUSH2 0x161B PUSH1 0x20 DUP5 ADD PUSH2 0x14AC JUMP JUMPDEST SWAP1 POP SWAP3 POP SWAP3 SWAP1 POP JUMP JUMPDEST PUSH4 0x4E487B71 PUSH1 0xE0 SHL PUSH0 MSTORE PUSH1 0x11 PUSH1 0x4 MSTORE PUSH1 0x24 PUSH0 REVERT JUMPDEST DUP1 DUP3 MUL DUP2 ISZERO DUP3 DUP3 DIV DUP5 EQ OR PUSH2 0x164F JUMPI PUSH2 0x164F PUSH2 0x1624 JUMP JUMPDEST SWAP3 SWAP2 POP POP JUMP JUMPDEST PUSH0 DUP3 PUSH2 0x166F JUMPI PUSH4 0x4E487B71 PUSH1 0xE0 SHL PUSH0 MSTORE PUSH1 0x12 PUSH1 0x4 MSTORE PUSH1 0x24 PUSH0 REVERT JUMPDEST POP DIV SWAP1 JUMP JUMPDEST DUP1 DUP3 ADD DUP1 DUP3 GT ISZERO PUSH2 0x164F JUMPI PUSH2 0x164F PUSH2 0x1624 JUMP JUMPDEST DUP2 DUP2 SUB DUP2 DUP2 GT ISZERO PUSH2 0x164F JUMPI PUSH2 0x164F PUSH2 0x1624 JUMP JUMPDEST PUSH0 PUSH1 0x20 DUP3 DUP5 SUB SLT ISZERO PUSH2 0x16AA JUMPI PUSH0 DUP1 REVERT JUMPDEST POP MLOAD SWAP2 SWAP1 POP JUMP JUMPDEST PUSH1 0x1 DUP2 DUP2 SHR SWAP1 DUP3 AND DUP1 PUSH2 0x16C5 JUMPI PUSH1 0x7F DUP3 AND SWAP2 POP JUMPDEST PUSH1 0x20 DUP3 LT DUP2 SUB PUSH2 0x16E3 JUMPI PUSH4 0x4E487B71 PUSH1 0xE0 SHL PUSH0 MSTORE PUSH1 0x22 PUSH1 0x4 MSTORE PUSH1 0x24 PUSH0 REVERT JUMPDEST POP SWAP2 SWAP1 POP JUMP JUMPDEST PUSH4 0x4E487B71 PUSH1 0xE0 SHL PUSH0 MSTORE PUSH1 0x41 PUSH1 0x4 MSTORE PUSH1 0x24 PUSH0 REVERT JUMPDEST PUSH1 0x1F DUP3 GT ISZERO PUSH2 0xF76 JUMPI DUP1 PUSH0 MSTORE PUSH1 0x20 PUSH0 KECCAK256 PUSH1 0x1F DUP5 ADD PUSH1 0x5 SHR DUP2 ADD PUSH1 0x20 DUP6 LT ISZERO PUSH2 0x1722 JUMPI POP DUP1 JUMPDEST PUSH1 0x1F DUP5 ADD PUSH1 0x5 SHR DUP3 ADD SWAP2 POP JUMPDEST DUP2 DUP2 LT ISZERO PUSH2 0x1741 JUMPI PUSH0 DUP2 SSTORE PUSH1 0x1 ADD PUSH2 0x172E JUMP JUMPDEST POP POP POP POP POP JUMP JUMPDEST PUSH8 0xFFFFFFFFFFFFFFFF DUP4 GT ISZERO PUSH2 0x1760 JUMPI PUSH2 0x1760 PUSH2 0x16E9 JUMP JUMPDEST PUSH2 0x1774 DUP4 PUSH2 0x176E DUP4 SLOAD PUSH2 0x16B1 JUMP JUMPDEST DUP4 PUSH2 0x16FD JUMP JUMPDEST PUSH0 PUSH1 0x1F DUP5 GT PUSH1 0x1 DUP2 EQ PUSH2 0x17A5 JUMPI PUSH0 DUP6 ISZERO PUSH2 0x178E JUMPI POP DUP4 DUP3 ADD CALLDATALOAD JUMPDEST PUSH0 NOT PUSH1 0x3 DUP8 SWAP1 SHL SHR NOT AND PUSH1 0x1 DUP7 SWAP1 SHL OR DUP4 SSTORE PUSH2 0x1741 JUMP JUMPDEST PUSH0 DUP4 DUP2 MSTORE PUSH1 0x20 DUP2 KECCAK256 PUSH1 0x1F NOT DUP8 AND SWAP2 JUMPDEST DUP3 DUP2 LT ISZERO PUSH2 0x17D4 JUMPI DUP7 DUP6 ADD CALLDATALOAD DUP3 SSTORE PUSH1 0x20 SWAP5 DUP6 ADD SWAP5 PUSH1 0x1 SWAP1 SWAP3 ADD SWAP2 ADD PUSH2 0x17B4 JUMP JUMPDEST POP DUP7 DUP3 LT ISZERO PUSH2 0x17F0 JUMPI PUSH0 NOT PUSH1 0xF8 DUP9 PUSH1 0x3 SHL AND SHR NOT DUP5 DUP8 ADD CALLDATALOAD AND DUP2 SSTORE JUMPDEST POP POP PUSH1 0x1 DUP6 PUSH1 0x1 SHL ADD DUP4 SSTORE POP POP POP POP POP JUMP JUMPDEST PUSH1 0x40 DUP2 MSTORE DUP3 PUSH1 0x40 DUP3 ADD MSTORE DUP3 DUP5 PUSH1 0x60 DUP4 ADD CALLDATACOPY PUSH0 PUSH1 0x60 DUP5 DUP4 ADD ADD MSTORE PUSH0 PUSH1 0x60 PUSH1 0x1F NOT PUSH1 0x1F DUP7 ADD AND DUP4 ADD ADD SWAP1 POP DUP3 PUSH1 0x20 DUP4 ADD MSTORE SWAP5 SWAP4 POP POP POP POP JUMP JUMPDEST PUSH4 0x4E487B71 PUSH1 0xE0 SHL PUSH0 MSTORE PUSH1 0x32 PUSH1 0x4 MSTORE PUSH1 0x24 PUSH0 REVERT JUMPDEST PUSH0 PUSH1 0x20 DUP3 DUP5 SUB SLT ISZERO PUSH2 0x185D JUMPI PUSH0 DUP1 REVERT JUMPDEST DUP2 MLOAD DUP1 ISZERO ISZERO DUP2 EQ PUSH2 0x14E0 JUMPI PUSH0 DUP1 REVERT INVALID LOG2 PUSH5 0x6970667358 0x22 SLT KECCAK256 DUP1 0xC 0xB6 REVERT 0xAA SLOAD 0xC8 0xB7 NUMBER RETURNDATACOPY NOT PUSH18 0x9EA8E73EFD883FB67E3790C8FA9B922FD463 CHAINID 0xAD PUSH5 0x736F6C6343 STOP ADDMOD NOT STOP CALLER "
    },
    "gasEstimates": {
      "creation": {
        "codeDepositCost": "1261200",
        "executionCost": "infinite",
        "totalCost": "infinite"
      },
      "external": {
        "campaignOwner()": "2402",
        "collectAllFees(address)": "infinite",
        "collectETHFees(address)": "infinite",
        "collectTokenFees(address,address)": "infinite",
        "deadline()": "2351",
        "description()": "infinite",
        "donateETH()": "infinite",
        "donateToken(address,uint256)": "infinite",
        "ethContributions(address)": "2616",
        "ethFeesCollected()": "2372",
        "factory()": "2426",
        "feeDistributor()": "2405",
        "flwToken()": "2424",
        "getDeadline()": "2370",
        "getDescription()": "infinite",
        "getFactory()": "2441",
        "getFeeBalances()": "6694",
        "getGoal()": "2391",
        "getImageUrl()": "infinite",
        "getTitle()": "infinite",
        "getTotalBalance()": "infinite",
        "getUpdate(uint256)": "infinite",
        "getUpdateCount()": "2347",
        "getWithdrawableAmount()": "infinite",
        "goal()": "2329",
        "hasEnded()": "2394",
        "imageUrl()": "infinite",
        "isActive()": "2382",
        "owner()": "2397",
        "postUpdate(string)": "infinite",
        "title()": "infinite",
        "tokenContributions(address,address)": "infinite",
        "tokenFeesCollected(address)": "2552",
        "updateMessages(uint256)": "infinite",
        "updateTimestamps(uint256)": "4629",
        "updates(uint256)": "4700",
        "withdraw()": "infinite"
      }
    },
    "methodIdentifiers": {
      "campaignOwner()": "b17fac22",
      "collectAllFees(address)": "79388e41",
      "collectETHFees(address)": "6136f6cf",
      "collectTokenFees(address,address)": "e98798e8",
      "deadline()": "29dcb0cf",
      "description()": "7284e416",
      "donateETH()": "8b4c40b0",
      "donateToken(address,uint256)": "71a6acf2",
      "ethContributions(address)": "e730395a",
      "ethFeesCollected()": "e27cc5d9",
      "factory()": "c45a0155",
      "feeDistributor()": "0d43e8ad",
      "flwToken()": "f2e76d7b",
      "getDeadline()": "5f8d96de",
      "getDescription()": "1a092541",
      "getFactory()": "88cc58e4",
      "getFeeBalances()": "7273b736",
      "getGoal()": "b97a7d24",
      "getImageUrl()": "9743a691",
      "getTitle()": "ff3c1a8f",
      "getTotalBalance()": "12b58349",
      "getUpdate(uint256)": "32cb25be",
      "getUpdateCount()": "c52ed534",
      "getWithdrawableAmount()": "90be10cc",
      "goal()": "40193883",
      "hasEnded()": "ecb70fb7",
      "imageUrl()": "aba83150",
      "isActive()": "22f3e2d4",
      "owner()": "8da5cb5b",
      "postUpdate(string)": "21d29038",
      "title()": "4a79d50c",
      "tokenContributions(address,address)": "efdf762a",
      "tokenFeesCollected(address)": "07ec3174",
      "updateMessages(uint256)": "bca856ad",
      "updateTimestamps(uint256)": "a035531b",
      "updates(uint256)": "b4c2f727",
      "withdraw()": "3ccfd60b"
    }
  },
  "storageLayout": {
    "storage": [
      {
        "astId": 828,
        "contract": "Campaign-Fixed-v4.sol:Campaign",
        "label": "campaignOwner",
        "offset": 0,
        "slot": "0",
        "type": "t_address"
      },
      {
        "astId": 830,
        "contract": "Campaign-Fixed-v4.sol:Campaign",
        "label": "factory",
        "offset": 0,
        "slot": "1",
        "type": "t_address"
      },
      {
        "astId": 832,
        "contract": "Campaign-Fixed-v4.sol:Campaign",
        "label": "goal",
        "offset": 0,
        "slot": "2",
        "type": "t_uint256"
      },
      {
        "astId": 834,
        "contract": "Campaign-Fixed-v4.sol:Campaign",
        "label": "deadline",
        "offset": 0,
        "slot": "3",
        "type": "t_uint256"
      },
      {
        "astId": 836,
        "contract": "Campaign-Fixed-v4.sol:Campaign",
        "label": "flwToken",
        "offset": 0,
        "slot": "4",
        "type": "t_address"
      },
      {
        "astId": 838,
        "contract": "Campaign-Fixed-v4.sol:Campaign",
        "label": "feeDistributor",
        "offset": 0,
        "slot": "5",
        "type": "t_address"
      },
      {
        "astId": 840,
        "contract": "Campaign-Fixed-v4.sol:Campaign",
        "label": "title",
        "offset": 0,
        "slot": "6",
        "type": "t_string_storage"
      },
      {
        "astId": 842,
        "contract": "Campaign-Fixed-v4.sol:Campaign",
        "label": "description",
        "offset": 0,
        "slot": "7",
        "type": "t_string_storage"
      },
      {
        "astId": 844,
        "contract": "Campaign-Fixed-v4.sol:Campaign",
        "label": "imageUrl",
        "offset": 0,
        "slot": "8",
        "type": "t_string_storage"
      },
      {
        "astId": 848,
        "contract": "Campaign-Fixed-v4.sol:Campaign",
        "label": "ethContributions",
        "offset": 0,
        "slot": "9",
        "type": "t_mapping(t_address,t_uint256)"
      },
      {
        "astId": 854,
        "contract": "Campaign-Fixed-v4.sol:Campaign",
        "label": "tokenContributions",
        "offset": 0,
        "slot": "10",
        "type": "t_mapping(t_address,t_mapping(t_address,t_uint256))"
      },
      {
        "astId": 858,
        "contract": "Campaign-Fixed-v4.sol:Campaign",
        "label": "tokenFeesCollected",
        "offset": 0,
        "slot": "11",
        "type": "t_mapping(t_address,t_uint256)"
      },
      {
        "astId": 860,
        "contract": "Campaign-Fixed-v4.sol:Campaign",
        "label": "ethFeesCollected",
        "offset": 0,
        "slot": "12",
        "type": "t_uint256"
      },
      {
        "astId": 863,
        "contract": "Campaign-Fixed-v4.sol:Campaign",
        "label": "updates",
        "offset": 0,
        "slot": "13",
        "type": "t_array(t_address)dyn_storage"
      },
      {
        "astId": 866,
        "contract": "Campaign-Fixed-v4.sol:Campaign",
        "label": "updateMessages",
        "offset": 0,
        "slot": "14",
        "type": "t_array(t_string_storage)dyn_storage"
      },
      {
        "astId": 869,
        "contract": "Campaign-Fixed-v4.sol:Campaign",
        "label": "updateTimestamps",
        "offset": 0,
        "slot": "15",
        "type": "t_array(t_uint256)dyn_storage"
      }
    ],
    "types": {
      "t_address": {
        "encoding": "inplace",
        "label": "address",
        "numberOfBytes": "20"
      },
      "t_array(t_address)dyn_storage": {
        "base": "t_address",
        "encoding": "dynamic_array",
        "label": "address[]",
        "numberOfBytes": "32"
      },
      "t_array(t_string_storage)dyn_storage": {
        "base": "t_string_storage",
        "encoding": "dynamic_array",
        "label": "string[]",
        "numberOfBytes": "32"
      },
      "t_array(t_uint256)dyn_storage": {
        "base": "t_uint256",
        "encoding": "dynamic_array",
        "label": "uint256[]",
        "numberOfBytes": "32"
      },
      "t_mapping(t_address,t_mapping(t_address,t_uint256))": {
        "encoding": "mapping",
        "key": "t_address",
        "label": "mapping(address => mapping(address => uint256))",
        "numberOfBytes": "32",
        "value": "t_mapping(t_address,t_uint256)"
      },
      "t_mapping(t_address,t_uint256)": {
        "encoding": "mapping",
        "key": "t_address",
        "label": "mapping(address => uint256)",
        "numberOfBytes": "32",
        "value": "t_uint256"
      },
      "t_string_storage": {
        "encoding": "bytes",
        "label": "string",
        "numberOfBytes": "32"
      },
      "t_uint256": {
        "encoding": "inplace",
        "label": "uint256",
        "numberOfBytes": "32"
      }
    }
  },
  "userdoc": {
    "kind": "user",
    "methods": {},
    "version": 1
  }
}